{
  "contractName": "ECDSA",
  "abi": [
    {
      "inputs": [],
      "name": "verify",
      "outputs": [
        {
          "internalType": "bool",
          "name": "",
          "type": "bool"
        }
      ],
      "stateMutability": "nonpayable",
      "type": "function"
    }
  ],
  "bytecode": "0x608060405234801561001057600080fd5b506104e1806100206000396000f3fe608060405234801561001057600080fd5b506004361061002b5760003560e01c8063fc735e9914610030575b600080fd5b61003861004e565b604051610045919061024b565b60405180910390f35b60008061008f6040518060400160405280600481526020017f5445535400000000000000000000000000000000000000000000000000000000815250610107565b9050600060405180608001604052806041815260200161046b604191399050600073999471bb43b9c9789050386f90c1ad63dca8910690508073ffffffffffffffffffffffffffffffffffffffff166100e8848461015d565b73ffffffffffffffffffffffffffffffffffffffff1614935050505090565b60008160405160200161011a91906102e0565b60405160208183030381529060405280519060200120604051602001610140919061036e565b604051602081830303815290604052805190602001209050919050565b6000806000806041855114610178576000935050505061022a565b6020850151925060408501519150606085015160001a9050601b8160ff1610156101ac57601b816101a991906103d0565b90505b601b8160ff16141580156101c45750601c8160ff1614155b156101d5576000935050505061022a565b600186828585604051600081526020016040526040516101f89493929190610425565b6020604051602081039080840390855afa15801561021a573d6000803e3d6000fd5b5050506020604051035193505050505b92915050565b60008115159050919050565b61024581610230565b82525050565b6000602082019050610260600083018461023c565b92915050565b600081519050919050565b600081905092915050565b60005b8381101561029a57808201518184015260208101905061027f565b838111156102a9576000848401525b50505050565b60006102ba82610266565b6102c48185610271565b93506102d481856020860161027c565b80840191505092915050565b60006102ec82846102af565b915081905092915050565b7f19457468657265756d205369676e6564204d6573736167653a0a333200000000600082015250565b600061032d601c83610271565b9150610338826102f7565b601c82019050919050565b6000819050919050565b6000819050919050565b61036861036382610343565b61034d565b82525050565b600061037982610320565b91506103858284610357565b60208201915081905092915050565b600060ff82169050919050565b7f4e487b7100000000000000000000000000000000000000000000000000000000600052601160045260246000fd5b60006103db82610394565b91506103e683610394565b92508260ff038211156103fc576103fb6103a1565b5b828201905092915050565b61041081610343565b82525050565b61041f81610394565b82525050565b600060808201905061043a6000830187610407565b6104476020830186610416565b6104546040830185610407565b6104616060830184610407565b9594505050505056febceab59162da5e511fb9c37fda207d443d05e438e5c843c57b2d5628580ce9216ffa0335834d8bb63d86fb42a8dd4d18f41bc3a301546e2c47aa1041c3a1823701a26469706673582212201703b14007c3a382e6520c8a589a37433e364335036018bb50583e6d9af5198d64736f6c634300080d0033",
  "immutableReferences": {},
  "source": "// SPDX-License-Identifier: MIT\npragma solidity >=0.4.22 <0.9.0;\n\n\ncontract ECDSA {\n\n    function verify() public returns (bool) {\n        bytes32 message = ethMessageHash(\"TEST\");\n\n        bytes memory sig = hex\"bceab59162da5e511fb9c37fda207d443d05e438e5c843c57b2d5628580ce9216ffa0335834d8bb63d86fb42a8dd4d18f41bc3a301546e2c47aa1041c3a1823701\";\n        address addr = 0x999471bB43B9C9789050386F90C1Ad63DCa89106;\n\n        return recover(message, sig) == addr;\n    }\n\n    /**\n     * @dev Recover signer address from a message by using their signature\n     * @param hash bytes32 message, the hash is the signed message. What is recovered is the signer address.\n     * @param sig bytes signature, the signature is generated using web3.eth.sign()\n     */\n    function recover(bytes32 hash, bytes memory sig) internal returns (address) {\n        bytes32 r;\n        bytes32 s;\n        uint8 v;\n\n        // Check the signature length\n        if (sig.length != 65) {\n            return (address(0));\n        }\n\n        // Divide the signature in r, s and v variables\n        // ecrecover takes the signature parameters, and the only way to get them\n        // currently is to use assembly.\n        // solium-disable-next-line security/no-inline-assembly\n        assembly {\n            r := mload(add(sig, 32))\n            s := mload(add(sig, 64))\n            v := byte(0, mload(add(sig, 96)))\n        }\n\n        // Version of signature should be 27 or 28, but 0 and 1 are also possible versions\n        if (v < 27) {\n            v += 27;\n        }\n\n        // If the version is correct return the signer address\n        if (v != 27 && v != 28) {\n            return (address(0));\n        } else {\n            // solium-disable-next-line arg-overflow\n            return ecrecover(hash, v, r, s);\n        }\n    }\n\n    /**\n    * @dev prefix a bytes32 value with \"\\x19Ethereum Signed Message:\" and hash the result\n    */\n    function ethMessageHash(string memory message) internal pure returns (bytes32) {\n        return keccak256(\n            abi.encodePacked(\"\\x19Ethereum Signed Message:\\n32\", keccak256(abi.encodePacked(message)))\n        );\n    }\n}",
  "sourcePath": "/Users/mac/Desktop/codings/ethereum/sonic/src/verifier/contracts/Signature.sol",
  "compiler": {
    "name": "solc",
    "version": "0.8.13+commit.abaa5c0e.Emscripten.clang"
  },
  "schemaVersion": "3.4.7",
  "updatedAt": "2022-10-17T15:04:21.430Z",
  "devdoc": {
    "kind": "dev",
    "methods": {},
    "version": 1
  },
  "userdoc": {
    "kind": "user",
    "methods": {},
    "version": 1
  }
}