{
  "contractName": "Inputs",
  "abi": [
    {
      "inputs": [
        {
          "internalType": "uint256",
          "name": "",
          "type": "uint256"
        }
      ],
      "name": "Proof",
      "outputs": [
        {
          "internalType": "uint256",
          "name": "",
          "type": "uint256"
        }
      ],
      "stateMutability": "view",
      "type": "function"
    },
    {
      "inputs": [
        {
          "internalType": "uint256",
          "name": "",
          "type": "uint256"
        }
      ],
      "name": "randoms",
      "outputs": [
        {
          "internalType": "uint256",
          "name": "",
          "type": "uint256"
        }
      ],
      "stateMutability": "view",
      "type": "function"
    }
  ],
  "bytecode": "0x6080604052604051806102a001604052807f194496e72eb65dec19337210d63c1203e86f630af98de6c44358bd2d96092bd081526020017f046949a983d7f581d037471f6cb887068300cbe032a50e55d7b512464179ab1b81526020017e82bfe34b0586786efd348072322572416185349c7d5802a120f80c5179865181526020017f2161c4895d5aaaa8c8739ebcd779af2b91ed317ea95472be9c8e7730db31ac9d81526020017f181ff8cb093ea02ec3efe8253a5d26562bd56afa0d8eac52339fe08dc0423d4781526020017f13a3a5241966a3e66a3f494582812d5c9ae917f7c0be7d0cece9082d89036c9581526020017f27e001ffdfef708462d6b4a4b02208b4bdc2014dbb82185c41fac78e2210d5ee81526020017f239bb2cbdeccf75e2253b47ed232beffd312beb9ee36f489cc6c4582ff5a6a1081526020017f078195cfbe60a22f113a659632c3a4fa3e045c53d399f229a6605be9ae118c4281526020017f071c540b4dc8ca74f70967c4451ab48e84eb760aa2172c0ad425ff2d795d6e2e81526020017f0bd0baf1b0b799efa5bde801dcd45267f7b9ca01b5984b5e22b3984141d3ff8881526020017f196db801a465fdea0d5bb03ec74575f722762cfb2d34c87905a1923016e2e60081526020017f0a0c81d55ce50c5a247c81d9cbdd011c8d565a7138f2355ff6adb9f6dd0226c381526020017f2c556d770e09c781af2605b538198659e33f4d9cd15bc477c2e8e74a2441e8a581526020017f0bdf1d3b7d25372f4266abc13e8f3b05cc2a4e03024311e24353b173d990932881526020017f1654389901e9bcb281d828eb131200d1345a217ce149115868eadba943b596de81526020017f14747a807c784d575bebb7363835ef94215227f9574677afce275cc603975b6b81526020017f2db243af05e0f7734ab362373164feae023075df9dcfd4bae9f8b7b918769d4981526020017f19960139019e015f70021da13e37807e29ca7f24446ff448c45524d624268fd881526020017f0c5cc0b2302eee1c47fa41d80346071ed07061ffa6d6332e69e4abce46ad096481526020017f1622cc35e68ab19b004be672286deccb1546735e17fddd08988a3be4cb602beb815250600090601561033b9291906104f6565b5060405180604001604052807f2d9f26059e10374eabd8cec819735a109add5d70045de09f6fbbea899b39da9c81526020017f20586ec0ff36b6b82bcd221cc12e9eafa4f89d9c9f04000d0a07a9cebf4288aa81525060159060026103a1929190610536565b506103c96040518060c00160405280609a81526020016109bf609a91396104a060201b60201c565b60175560405180608001604052806041815260200161097e60419139601890805190602001906103fa929190610576565b5073e350875ec3ea8bb18c7034a53b776d015d97d871601960006101000a81548173ffffffffffffffffffffffffffffffffffffffff021916908373ffffffffffffffffffffffffffffffffffffffff1602179055507f11fe870a49305b75e63301cc8ecb34f684fb4cae91cb0bbb8265ff0ccfd3f5c6601a55600060146015811061048957610488610619565b5b0154601b5534801561049a57600080fd5b506107d6565b6000816040516020016104b391906106c2565b604051602081830303815290604052805190602001206040516020016104d99190610750565b604051602081830303815290604052805190602001209050919050565b8260158101928215610525579160200282015b82811115610524578251825591602001919060010190610509565b5b50905061053291906105fc565b5090565b8260028101928215610565579160200282015b82811115610564578251825591602001919060010190610549565b5b50905061057291906105fc565b5090565b828054610582906107a5565b90600052602060002090601f0160209004810192826105a457600085556105eb565b82601f106105bd57805160ff19168380011785556105eb565b828001600101855582156105eb579182015b828111156105ea5782518255916020019190600101906105cf565b5b5090506105f891906105fc565b5090565b5b808211156106155760008160009055506001016105fd565b5090565b7f4e487b7100000000000000000000000000000000000000000000000000000000600052603260045260246000fd5b600081519050919050565b600081905092915050565b60005b8381101561067c578082015181840152602081019050610661565b8381111561068b576000848401525b50505050565b600061069c82610648565b6106a68185610653565b93506106b681856020860161065e565b80840191505092915050565b60006106ce8284610691565b915081905092915050565b7f19457468657265756d205369676e6564204d6573736167653a0a333200000000600082015250565b600061070f601c83610653565b915061071a826106d9565b601c82019050919050565b6000819050919050565b6000819050919050565b61074a61074582610725565b61072f565b82525050565b600061075b82610702565b91506107678284610739565b60208201915081905092915050565b7f4e487b7100000000000000000000000000000000000000000000000000000000600052602260045260246000fd5b600060028204905060018216806107bd57607f821691505b6020821081036107d0576107cf610776565b5b50919050565b610199806107e56000396000f3fe608060405234801561001057600080fd5b50600436106100365760003560e01c80630d07b72f1461003b578063c0d0ed7c1461006b575b600080fd5b6100556004803603810190610050919061010c565b61009b565b6040516100629190610148565b60405180910390f35b6100856004803603810190610080919061010c565b6100b6565b6040516100929190610148565b60405180910390f35b600081601581106100ab57600080fd5b016000915090505481565b601581600281106100c657600080fd5b016000915090505481565b600080fd5b6000819050919050565b6100e9816100d6565b81146100f457600080fd5b50565b600081359050610106816100e0565b92915050565b600060208284031215610122576101216100d1565b5b6000610130848285016100f7565b91505092915050565b610142816100d6565b82525050565b600060208201905061015d6000830184610139565b9291505056fea26469706673582212207269f534ee986f30431c24cb85aeba7a2cfddcc4c3303527c3cbca548ac3973464736f6c634300080d003337b78360ec9a23d0063480940ae6273f31cfdeef8cda68dc391b204da0ab163f20cd2ab84a4b3d7d5dbd5a76e6da4d397c65db1573aede042b4fecc05433a40f013233313031343437393738323031353234353233343438353934343737313731343337363132393936303039393735373731333832383633343133323034313530383936323533343939332c203135303939303634363134313539323939363633303830343837323330383233383834393432343430353836373030343436303130333937313036373033383536333730363836343731333235",
  "immutableReferences": {},
  "source": "// SPDX-License-Identifier: MIT\npragma solidity >=0.4.22 <0.9.0;\n\ncontract Inputs {\n\n    uint256[21] public Proof = [\n        uint256(11429008309605675341474472839593328920164544267724272334121107847312021466064),\n        uint256(1995278733733848960923564237539070069254135250975328135502116388585338415899),\n        uint256(231014479782015245234485944771714376129960099757713828634132041508962534993),\n        uint256(15099064614159299663080487230823884942440586700446010397106703856370686471325),\n        uint256(10911997731943274075869643439668756489125664959295695247107153863972726390087),\n        uint256(8883079956021269520428603707470829554074757399727352418163991564550343453845),\n        uint256(18035988637373634897813334457659675867857155183095772793648129696306193028590),\n        uint256(16106045002637522303515065401446966073189094759800456173123420884661299735056),\n        uint256(3395147172402996337127237802390080576649516904409990366501292023972732439618),\n        uint256(3216241709340850247887812240887513398315065222763209655088170620298484084270),\n        uint256(5344235764667976573804119075468512078380817144293812494152834200451543203720),\n        uint256(11501677510243432580355494980184601957333547180901976934693433478320536872448),\n        uint256(4545226728140336400007326889217882301142998034712508393204890995438657873603),\n        uint256(20052702838233732382145143347915728376062577136068410877768062154133156784293),\n        uint256(5369649984321766319810459110150505225411686904825830737804470888594616128296),\n        uint256(10099688445141971330510835267769948351805605014762733420275714706855351916254),\n        uint256(9252056708215315779973983307609880284826912473241320509761120579995104140139),\n        uint256(20669044099392548957549197632043998464498873532477270874006425670248878742857),\n        uint256(11572856712932036104612742963749221319836005439756413618067030561227578707928),\n        uint256(5591634052202194491140830090042291462209385675293115589289831521643597203812),\n        uint256(10012364878445126637403116614853075154766367145189767023725638490267012049899)\n    ];\n\n    uint256[2] public randoms = [\n        uint256(20635269287353674939661816788107042311729024848913504192248510833205786040988),\n        uint256(14630258091650071609679859836448958603357520035730789644563591436908376524970)\n    ];\n\n    bytes32 message = ethMessageHash(\"231014479782015245234485944771714376129960099757713828634132041508962534993, 15099064614159299663080487230823884942440586700446010397106703856370686471325\");\n    bytes sig = hex\"37b78360ec9a23d0063480940ae6273f31cfdeef8cda68dc391b204da0ab163f20cd2ab84a4b3d7d5dbd5a76e6da4d397c65db1573aede042b4fecc05433a40f01\";\n    address addr = 0xe350875eC3EA8Bb18c7034A53B776D015d97D871;\n\n    uint256 evalK = uint256(8139029593433211937598298729972982837137631016553503507131477490874965030342);\n    uint256 evalS = Proof[20];\n\n    /**\n    * @dev prefix a bytes32 value with \"\\x19Ethereum Signed Message:\" and hash the result\n    */\n    function ethMessageHash(string memory message) internal pure returns (bytes32) {\n        return keccak256(\n            abi.encodePacked(\"\\x19Ethereum Signed Message:\\n32\", keccak256(abi.encodePacked(message)))\n        );\n    }\n\n}",
  "sourcePath": "/Users/mac/Desktop/codings/ethereum/sonic/src/verifier/contracts/inputs.sol",
  "compiler": {
    "name": "solc",
    "version": "0.8.13+commit.abaa5c0e.Emscripten.clang"
  },
  "schemaVersion": "3.4.7",
  "updatedAt": "2022-10-18T05:52:30.360Z",
  "devdoc": {
    "kind": "dev",
    "methods": {},
    "version": 1
  },
  "userdoc": {
    "kind": "user",
    "methods": {},
    "version": 1
  }
}