{
  "contractName": "PolyCoeff",
  "abi": [
    {
      "inputs": [
        {
          "internalType": "uint256",
          "name": "",
          "type": "uint256"
        }
      ],
      "name": "_coefficients",
      "outputs": [
        {
          "internalType": "uint256",
          "name": "",
          "type": "uint256"
        }
      ],
      "stateMutability": "view",
      "type": "function"
    }
  ],
  "bytecode": "0x608060405260405180617b6001604052807f30644e72e131a029b85045b68181585d2833e84879b9709143e1f593f000000081526020017f30644e72e131a029b85045b68181585d2833e84879b9709143e1f593f000000081526020017f30644e72e131a029b85045b68181585d2833e84879b9709143e1f593f000000081526020017f30644e72e131a029b85045b68181585d2833e84879b9709143e1f593f000000081526020017f30644e72e131a029b85045b68181585d2833e84879b9709143e1f593f000000081526020017f30644e72e131a029b85045b68181585d2833e84879b9709143e1f593f000000081526020017f30644e72e131a029b85045b68181585d2833e84879b9709143e1f593f000000081526020017f30644e72e131a029b85045b68181585d2833e84879b9709143e1f593f000000081526020017f30644e72e131a029b85045b68181585d2833e84879b9709143e1f593f000000081526020017f30644e72e131a029b85045b68181585d2833e84879b9709143e1f593f000000081526020017f30644e72e131a029b85045b68181585d2833e84879b9709143e1f593f000000081526020017f30644e72e131a029b85045b68181585d2833e84879b9709143e1f593f000000081526020017f30644e72e131a029b85045b68181585d2833e84879b9709143e1f593f000000081526020017f30644e72e131a029b85045b68181585d2833e84879b9709143e1f593f000000081526020017f30644e72e131a029b85045b68181585d2833e84879b9709143e1f593f000000081526020017f30644e72e131a029b85045b68181585d2833e84879b9709143e1f593f000000081526020017f30644e72e131a029b85045b68181585d2833e84879b9709143e1f593f000000081526020017f30644e72e131a029b85045b68181585d2833e84879b9709143e1f593f000000081526020017f30644e72e131a029b85045b68181585d2833e84879b9709143e1f593f000000081526020017f30644e72e131a029b85045b68181585d2833e84879b9709143e1f593f000000081526020017f30644e72e131a029b85045b68181585d2833e84879b9709143e1f593f000000081526020017f30644e72e131a029b85045b68181585d2833e84879b9709143e1f593f000000081526020017f30644e72e131a029b85045b68181585d2833e84879b9709143e1f593f000000081526020017f30644e72e131a029b85045b68181585d2833e84879b9709143e1f593f000000081526020017f30644e72e131a029b85045b68181585d2833e84879b9709143e1f593f000000081526020017f30644e72e131a029b85045b68181585d2833e84879b9709143e1f593f000000081526020017f30644e72e131a029b85045b68181585d2833e84879b9709143e1f593f000000081526020017f30644e72e131a029b85045b68181585d2833e84879b9709143e1f593f000000081526020017f30644e72e131a029b85045b68181585d2833e84879b9709143e1f593f000000081526020017f30644e72e131a029b85045b68181585d2833e84879b9709143e1f593f000000081526020017f30644e72e131a029b85045b68181585d2833e84879b9709143e1f593f000000081526020017f30644e72e131a029b85045b68181585d2833e84879b9709143e1f593f000000081526020017f30644e72e131a029b85045b68181585d2833e84879b9709143e1f593f000000081526020017f30644e72e131a029b85045b68181585d2833e84879b9709143e1f593f000000081526020017f30644e72e131a029b85045b68181585d2833e84879b9709143e1f593f000000081526020017f30644e72e131a029b85045b68181585d2833e84879b9709143e1f593f000000081526020017f30644e72e131a029b85045b68181585d2833e84879b9709143e1f593f000000081526020017f30644e72e131a029b85045b68181585d2833e84879b9709143e1f593f000000081526020017f30644e72e131a029b85045b68181585d2833e84879b9709143e1f593f000000081526020017f30644e72e131a029b85045b68181585d2833e84879b9709143e1f593f000000081526020017f30644e72e131a029b85045b68181585d2833e84879b9709143e1f593f000000081526020017f30644e72e131a029b85045b68181585d2833e84879b9709143e1f593f000000081526020017f30644e72e131a029b85045b68181585d2833e84879b9709143e1f593f000000081526020017f30644e72e131a029b85045b68181585d2833e84879b9709143e1f593f000000081526020017f30644e72e131a029b85045b68181585d2833e84879b9709143e1f593f000000081526020017f30644e72e131a029b85045b68181585d2833e84879b9709143e1f593f000000081526020017f30644e72e131a029b85045b68181585d2833e84879b9709143e1f593f000000081526020017f30644e72e131a029b85045b68181585d2833e84879b9709143e1f593f000000081526020017f30644e72e131a029b85045b68181585d2833e84879b9709143e1f593f000000081526020017f30644e72e131a029b85045b68181585d2833e84879b9709143e1f593f000000081526020017f30644e72e131a029b85045b68181585d2833e84879b9709143e1f593f000000081526020017f30644e72e131a029b85045b68181585d2833e84879b9709143e1f593f000000081526020017f30644e72e131a029b85045b68181585d2833e84879b9709143e1f593f000000081526020017f30644e72e131a029b85045b68181585d2833e84879b9709143e1f593f000000081526020017f30644e72e131a029b85045b68181585d2833e84879b9709143e1f593f000000081526020017f30644e72e131a029b85045b68181585d2833e84879b9709143e1f593f000000081526020017f30644e72e131a029b85045b68181585d2833e84879b9709143e1f593f000000081526020017f30644e72e131a029b85045b68181585d2833e84879b9709143e1f593f000000081526020017f30644e72e131a029b85045b68181585d2833e84879b9709143e1f593f000000081526020017f30644e72e131a029b85045b68181585d2833e84879b9709143e1f593f000000081526020017f30644e72e131a029b85045b68181585d2833e84879b9709143e1f593f000000081526020017f30644e72e131a029b85045b68181585d2833e84879b9709143e1f593f000000081526020017f30644e72e131a029b85045b68181585d2833e84879b9709143e1f593f000000081526020017f30644e72e131a029b85045b68181585d2833e84879b9709143e1f593f000000081526020017f30644e72e131a029b85045b68181585d2833e84879b9709143e1f593f000000081526020017f30644e72e131a029b85045b68181585d2833e84879b9709143e1f593f000000081526020017f30644e72e131a029b85045b68181585d2833e84879b9709143e1f593f000000081526020017f30644e72e131a029b85045b68181585d2833e84879b9709143e1f593f000000081526020017f30644e72e131a029b85045b68181585d2833e84879b9709143e1f593f000000081526020017f30644e72e131a029b85045b68181585d2833e84879b9709143e1f593f000000081526020017f30644e72e131a029b85045b68181585d2833e84879b9709143e1f593f000000081526020017f30644e72e131a029b85045b68181585d2833e84879b9709143e1f593f000000081526020017f30644e72e131a029b85045b68181585d2833e84879b9709143e1f593f000000081526020017f30644e72e131a029b85045b68181585d2833e84879b9709143e1f593f000000081526020017f30644e72e131a029b85045b68181585d2833e84879b9709143e1f593f000000081526020017f30644e72e131a029b85045b68181585d2833e84879b9709143e1f593f000000081526020017f30644e72e131a029b85045b68181585d2833e84879b9709143e1f593f000000081526020017f30644e72e131a029b85045b68181585d2833e84879b9709143e1f593f000000081526020017f30644e72e131a029b85045b68181585d2833e84879b9709143e1f593f000000081526020017f30644e72e131a029b85045b68181585d2833e84879b9709143e1f593f000000081526020017f30644e72e131a029b85045b68181585d2833e84879b9709143e1f593f000000081526020017f30644e72e131a029b85045b68181585d2833e84879b9709143e1f593f000000081526020017f30644e72e131a029b85045b68181585d2833e84879b9709143e1f593f000000081526020017f30644e72e131a029b85045b68181585d2833e84879b9709143e1f593f000000081526020017f30644e72e131a029b85045b68181585d2833e84879b9709143e1f593f000000081526020017f30644e72e131a029b85045b68181585d2833e84879b9709143e1f593f000000081526020017f30644e72e131a029b85045b68181585d2833e84879b9709143e1f593f000000081526020017f30644e72e131a029b85045b68181585d2833e84879b9709143e1f593f000000081526020017f30644e72e131a029b85045b68181585d2833e84879b9709143e1f593f000000081526020017f30644e72e131a029b85045b68181585d2833e84879b9709143e1f593f000000081526020017f30644e72e131a029b85045b68181585d2833e84879b9709143e1f593f000000081526020017f30644e72e131a029b85045b68181585d2833e84879b9709143e1f593f000000081526020017f30644e72e131a029b85045b68181585d2833e84879b9709143e1f593f000000081526020017f30644e72e131a029b85045b68181585d2833e84879b9709143e1f593f000000081526020017f30644e72e131a029b85045b68181585d2833e84879b9709143e1f593f000000081526020017f30644e72e131a029b85045b68181585d2833e84879b9709143e1f593f000000081526020017f30644e72e131a029b85045b68181585d2833e84879b9709143e1f593f000000081526020017f30644e72e131a029b85045b68181585d2833e84879b9709143e1f593f000000081526020017f30644e72e131a029b85045b68181585d2833e84879b9709143e1f593f000000081526020017f30644e72e131a029b85045b68181585d2833e84879b9709143e1f593f000000081526020017f30644e72e131a029b85045b68181585d2833e84879b9709143e1f593f000000081526020017f30644e72e131a029b85045b68181585d2833e84879b9709143e1f593f000000081526020017f30644e72e131a029b85045b68181585d2833e84879b9709143e1f593f000000081526020017f30644e72e131a029b85045b68181585d2833e84879b9709143e1f593f000000081526020017f30644e72e131a029b85045b68181585d2833e84879b9709143e1f593f000000081526020017f30644e72e131a029b85045b68181585d2833e84879b9709143e1f593f000000081526020017f30644e72e131a029b85045b68181585d2833e84879b9709143e1f593f000000081526020017f30644e72e131a029b85045b68181585d2833e84879b9709143e1f593f000000081526020017f30644e72e131a029b85045b68181585d2833e84879b9709143e1f593f000000081526020017f30644e72e131a029b85045b68181585d2833e84879b9709143e1f593f000000081526020017f30644e72e131a029b85045b68181585d2833e84879b9709143e1f593f000000081526020017f30644e72e131a029b85045b68181585d2833e84879b9709143e1f593f000000081526020017f30644e72e131a029b85045b68181585d2833e84879b9709143e1f593f000000081526020017f30644e72e131a029b85045b68181585d2833e84879b9709143e1f593f000000081526020017f30644e72e131a029b85045b68181585d2833e84879b9709143e1f593f000000081526020017f30644e72e131a029b85045b68181585d2833e84879b9709143e1f593f000000081526020017f30644e72e131a029b85045b68181585d2833e84879b9709143e1f593f000000081526020017f30644e72e131a029b85045b68181585d2833e84879b9709143e1f593f000000081526020017f30644e72e131a029b85045b68181585d2833e84879b9709143e1f593f000000081526020017f30644e72e131a029b85045b68181585d2833e84879b9709143e1f593f000000081526020017f30644e72e131a029b85045b68181585d2833e84879b9709143e1f593f000000081526020017f30644e72e131a029b85045b68181585d2833e84879b9709143e1f593f000000081526020017f30644e72e131a029b85045b68181585d2833e84879b9709143e1f593f000000081526020017f30644e72e131a029b85045b68181585d2833e84879b9709143e1f593f000000081526020017f30644e72e131a029b85045b68181585d2833e84879b9709143e1f593f000000081526020017f30644e72e131a029b85045b68181585d2833e84879b9709143e1f593f000000081526020017f30644e72e131a029b85045b68181585d2833e84879b9709143e1f593f000000081526020017f30644e72e131a029b85045b68181585d2833e84879b9709143e1f593f000000081526020017f30644e72e131a029b85045b68181585d2833e84879b9709143e1f593f000000081526020017f30644e72e131a029b85045b68181585d2833e84879b9709143e1f593f000000081526020017f30644e72e131a029b85045b68181585d2833e84879b9709143e1f593f000000081526020017f30644e72e131a029b85045b68181585d2833e84879b9709143e1f593f000000081526020017f30644e72e131a029b85045b68181585d2833e84879b9709143e1f593f000000081526020017f30644e72e131a029b85045b68181585d2833e84879b9709143e1f593f000000081526020017f30644e72e131a029b85045b68181585d2833e84879b9709143e1f593f000000081526020017f30644e72e131a029b85045b68181585d2833e84879b9709143e1f593f000000081526020017f30644e72e131a029b85045b68181585d2833e84879b9709143e1f593f000000081526020017f30644e72e131a029b85045b68181585d2833e84879b9709143e1f593f000000081526020017f30644e72e131a029b85045b68181585d2833e84879b9709143e1f593f000000081526020017f30644e72e131a029b85045b68181585d2833e84879b9709143e1f593f000000081526020017f30644e72e131a029b85045b68181585d2833e84879b9709143e1f593f000000081526020017f30644e72e131a029b85045b68181585d2833e84879b9709143e1f593f000000081526020017f30644e72e131a029b85045b68181585d2833e84879b9709143e1f593f000000081526020017f30644e72e131a029b85045b68181585d2833e84879b9709143e1f593f000000081526020017f30644e72e131a029b85045b68181585d2833e84879b9709143e1f593f000000081526020017f30644e72e131a029b85045b68181585d2833e84879b9709143e1f593f000000081526020017f30644e72e131a029b85045b68181585d2833e84879b9709143e1f593f000000081526020017f30644e72e131a029b85045b68181585d2833e84879b9709143e1f593f000000081526020017f30644e72e131a029b85045b68181585d2833e84879b9709143e1f593f000000081526020017f30644e72e131a029b85045b68181585d2833e84879b9709143e1f593f000000081526020017f30644e72e131a029b85045b68181585d2833e84879b9709143e1f593f000000081526020017f30644e72e131a029b85045b68181585d2833e84879b9709143e1f593f000000081526020017f30644e72e131a029b85045b68181585d2833e84879b9709143e1f593f000000081526020017f30644e72e131a029b85045b68181585d2833e84879b9709143e1f593f000000081526020017f30644e72e131a029b85045b68181585d2833e84879b9709143e1f593f000000081526020017f30644e72e131a029b85045b68181585d2833e84879b9709143e1f593f000000081526020017f30644e72e131a029b85045b68181585d2833e84879b9709143e1f593f000000081526020017f30644e72e131a029b85045b68181585d2833e84879b9709143e1f593f000000081526020017f30644e72e131a029b85045b68181585d2833e84879b9709143e1f593f000000081526020017f30644e72e131a029b85045b68181585d2833e84879b9709143e1f593f000000081526020017f30644e72e131a029b85045b68181585d2833e84879b9709143e1f593f000000081526020017f30644e72e131a029b85045b68181585d2833e84879b9709143e1f593f000000081526020017f30644e72e131a029b85045b68181585d2833e84879b9709143e1f593f000000081526020017f30644e72e131a029b85045b68181585d2833e84879b9709143e1f593f000000081526020017f30644e72e131a029b85045b68181585d2833e84879b9709143e1f593f000000081526020017f30644e72e131a029b85045b68181585d2833e84879b9709143e1f593f000000081526020017f30644e72e131a029b85045b68181585d2833e84879b9709143e1f593f000000081526020017f30644e72e131a029b85045b68181585d2833e84879b9709143e1f593f000000081526020017f30644e72e131a029b85045b68181585d2833e84879b9709143e1f593f000000081526020017f30644e72e131a029b85045b68181585d2833e84879b9709143e1f593f000000081526020017f30644e72e131a029b85045b68181585d2833e84879b9709143e1f593f000000081526020017f30644e72e131a029b85045b68181585d2833e84879b9709143e1f593f000000081526020017f30644e72e131a029b85045b68181585d2833e84879b9709143e1f593f000000081526020017f30644e72e131a029b85045b68181585d2833e84879b9709143e1f593f000000081526020017f30644e72e131a029b85045b68181585d2833e84879b9709143e1f593f000000081526020017f30644e72e131a029b85045b68181585d2833e84879b9709143e1f593f000000081526020017f30644e72e131a029b85045b68181585d2833e84879b9709143e1f593f000000081526020017f30644e72e131a029b85045b68181585d2833e84879b9709143e1f593f000000081526020017f30644e72e131a029b85045b68181585d2833e84879b9709143e1f593f000000081526020017f30644e72e131a029b85045b68181585d2833e84879b9709143e1f593f000000081526020017f30644e72e131a029b85045b68181585d2833e84879b9709143e1f593f000000081526020017f30644e72e131a029b85045b68181585d2833e84879b9709143e1f593f000000081526020017f30644e72e131a029b85045b68181585d2833e84879b9709143e1f593f000000081526020017f30644e72e131a029b85045b68181585d2833e84879b9709143e1f593f000000081526020017f30644e72e131a029b85045b68181585d2833e84879b9709143e1f593f000000081526020017f30644e72e131a029b85045b68181585d2833e84879b9709143e1f593f000000081526020017f30644e72e131a029b85045b68181585d2833e84879b9709143e1f593f000000081526020017f30644e72e131a029b85045b68181585d2833e84879b9709143e1f593f000000081526020017f30644e72e131a029b85045b68181585d2833e84879b9709143e1f593f000000081526020017f30644e72e131a029b85045b68181585d2833e84879b9709143e1f593f000000081526020017f30644e72e131a029b85045b68181585d2833e84879b9709143e1f593f000000081526020017f30644e72e131a029b85045b68181585d2833e84879b9709143e1f593f000000081526020017f30644e72e131a029b85045b68181585d2833e84879b9709143e1f593f000000081526020017f30644e72e131a029b85045b68181585d2833e84879b9709143e1f593f000000081526020017f30644e72e131a029b85045b68181585d2833e84879b9709143e1f593f000000081526020017f30644e72e131a029b85045b68181585d2833e84879b9709143e1f593f000000081526020017f30644e72e131a029b85045b68181585d2833e84879b9709143e1f593f000000081526020017f30644e72e131a029b85045b68181585d2833e84879b9709143e1f593f000000081526020017f30644e72e131a029b85045b68181585d2833e84879b9709143e1f593f000000081526020017f30644e72e131a029b85045b68181585d2833e84879b9709143e1f593f000000081526020017f30644e72e131a029b85045b68181585d2833e84879b9709143e1f593f000000081526020017f30644e72e131a029b85045b68181585d2833e84879b9709143e1f593f000000081526020017f30644e72e131a029b85045b68181585d2833e84879b9709143e1f593f000000081526020017f30644e72e131a029b85045b68181585d2833e84879b9709143e1f593f00000008152602001600081526020017f30644e72e131a029b85045b68181585d2833e84879b9709143e1f593f000000081526020017f30644e72e131a029b85045b68181585d2833e84879b9709143e1f593f000000081526020017f30644e72e131a029b85045b68181585d2833e84879b9709143e1f593f000000081526020017f30644e72e131a029b85045b68181585d2833e84879b9709143e1f593f000000081526020017f30644e72e131a029b85045b68181585d2833e84879b9709143e1f593f000000081526020017f30644e72e131a029b85045b68181585d2833e84879b9709143e1f593f000000081526020017f30644e72e131a029b85045b68181585d2833e84879b9709143e1f593f000000081526020017f30644e72e131a029b85045b68181585d2833e84879b9709143e1f593f000000081526020017f30644e72e131a029b85045b68181585d2833e84879b9709143e1f593f000000081526020017f30644e72e131a029b85045b68181585d2833e84879b9709143e1f593f000000081526020017f30644e72e131a029b85045b68181585d2833e84879b9709143e1f593f000000081526020017f30644e72e131a029b85045b68181585d2833e84879b9709143e1f593f000000081526020017f30644e72e131a029b85045b68181585d2833e84879b9709143e1f593f000000081526020017f30644e72e131a029b85045b68181585d2833e84879b9709143e1f593f000000081526020017f30644e72e131a029b85045b68181585d2833e84879b9709143e1f593f000000081526020017f30644e72e131a029b85045b68181585d2833e84879b9709143e1f593f000000081526020017f30644e72e131a029b85045b68181585d2833e84879b9709143e1f593f000000081526020017f30644e72e131a029b85045b68181585d2833e84879b9709143e1f593f000000081526020017f30644e72e131a029b85045b68181585d2833e84879b9709143e1f593f000000081526020017f30644e72e131a029b85045b68181585d2833e84879b9709143e1f593f000000081526020017f30644e72e131a029b85045b68181585d2833e84879b9709143e1f593f000000081526020017f30644e72e131a029b85045b68181585d2833e84879b9709143e1f593f000000081526020017f30644e72e131a029b85045b68181585d2833e84879b9709143e1f593f000000081526020017f30644e72e131a029b85045b68181585d2833e84879b9709143e1f593f000000081526020017f30644e72e131a029b85045b68181585d2833e84879b9709143e1f593f000000081526020017f30644e72e131a029b85045b68181585d2833e84879b9709143e1f593f000000081526020017f30644e72e131a029b85045b68181585d2833e84879b9709143e1f593f000000081526020017f30644e72e131a029b85045b68181585d2833e84879b9709143e1f593f000000081526020017f30644e72e131a029b85045b68181585d2833e84879b9709143e1f593f000000081526020017f30644e72e131a029b85045b68181585d2833e84879b9709143e1f593f000000081526020017f30644e72e131a029b85045b68181585d2833e84879b9709143e1f593f000000081526020017f30644e72e131a029b85045b68181585d2833e84879b9709143e1f593f000000081526020017f30644e72e131a029b85045b68181585d2833e84879b9709143e1f593f000000081526020017f30644e72e131a029b85045b68181585d2833e84879b9709143e1f593f000000081526020017f30644e72e131a029b85045b68181585d2833e84879b9709143e1f593f000000081526020017f30644e72e131a029b85045b68181585d2833e84879b9709143e1f593f000000081526020017f30644e72e131a029b85045b68181585d2833e84879b9709143e1f593f000000081526020017f30644e72e131a029b85045b68181585d2833e84879b9709143e1f593f000000081526020017f30644e72e131a029b85045b68181585d2833e84879b9709143e1f593f000000081526020017f30644e72e131a029b85045b68181585d2833e84879b9709143e1f593f000000081526020017f30644e72e131a029b85045b68181585d2833e84879b9709143e1f593f000000081526020017f30644e72e131a029b85045b68181585d2833e84879b9709143e1f593f000000081526020017f30644e72e131a029b85045b68181585d2833e84879b9709143e1f593f000000081526020017f30644e72e131a029b85045b68181585d2833e84879b9709143e1f593f000000081526020017f30644e72e131a029b85045b68181585d2833e84879b9709143e1f593f000000081526020017f30644e72e131a029b85045b68181585d2833e84879b9709143e1f593f000000081526020017f30644e72e131a029b85045b68181585d2833e84879b9709143e1f593f000000081526020017f30644e72e131a029b85045b68181585d2833e84879b9709143e1f593f000000081526020017f30644e72e131a029b85045b68181585d2833e84879b9709143e1f593f000000081526020017f30644e72e131a029b85045b68181585d2833e84879b9709143e1f593f000000081526020017f30644e72e131a029b85045b68181585d2833e84879b9709143e1f593f000000081526020017f30644e72e131a029b85045b68181585d2833e84879b9709143e1f593f000000081526020017f30644e72e131a029b85045b68181585d2833e84879b9709143e1f593f000000081526020017f30644e72e131a029b85045b68181585d2833e84879b9709143e1f593f000000081526020017f30644e72e131a029b85045b68181585d2833e84879b9709143e1f593f000000081526020017f30644e72e131a029b85045b68181585d2833e84879b9709143e1f593f000000081526020017f30644e72e131a029b85045b68181585d2833e84879b9709143e1f593f000000081526020017f30644e72e131a029b85045b68181585d2833e84879b9709143e1f593f000000081526020017f30644e72e131a029b85045b68181585d2833e84879b9709143e1f593f000000081526020017f30644e72e131a029b85045b68181585d2833e84879b9709143e1f593f000000081526020017f30644e72e131a029b85045b68181585d2833e84879b9709143e1f593f000000081526020017f30644e72e131a029b85045b68181585d2833e84879b9709143e1f593f000000081526020017f30644e72e131a029b85045b68181585d2833e84879b9709143e1f593f000000081526020017f30644e72e131a029b85045b68181585d2833e84879b9709143e1f593f000000081526020017f30644e72e131a029b85045b68181585d2833e84879b9709143e1f593f000000081526020017f30644e72e131a029b85045b68181585d2833e84879b9709143e1f593f000000081526020017f30644e72e131a029b85045b68181585d2833e84879b9709143e1f593f000000081526020017f30644e72e131a029b85045b68181585d2833e84879b9709143e1f593f000000081526020017f30644e72e131a029b85045b68181585d2833e84879b9709143e1f593f000000081526020017f30644e72e131a029b85045b68181585d2833e84879b9709143e1f593f000000081526020017f30644e72e131a029b85045b68181585d2833e84879b9709143e1f593f000000081526020017f30644e72e131a029b85045b68181585d2833e84879b9709143e1f593f000000081526020017f30644e72e131a029b85045b68181585d2833e84879b9709143e1f593f000000081526020017f30644e72e131a029b85045b68181585d2833e84879b9709143e1f593f000000081526020017f30644e72e131a029b85045b68181585d2833e84879b9709143e1f593f000000081526020017f30644e72e131a029b85045b68181585d2833e84879b9709143e1f593f000000081526020017f30644e72e131a029b85045b68181585d2833e84879b9709143e1f593f000000081526020017f30644e72e131a029b85045b68181585d2833e84879b9709143e1f593f000000081526020017f30644e72e131a029b85045b68181585d2833e84879b9709143e1f593f000000081526020017f30644e72e131a029b85045b68181585d2833e84879b9709143e1f593f000000081526020017f30644e72e131a029b85045b68181585d2833e84879b9709143e1f593f000000081526020017f30644e72e131a029b85045b68181585d2833e84879b9709143e1f593f000000081526020017f30644e72e131a029b85045b68181585d2833e84879b9709143e1f593f000000081526020017f30644e72e131a029b85045b68181585d2833e84879b9709143e1f593f000000081526020017f30644e72e131a029b85045b68181585d2833e84879b9709143e1f593f000000081526020017f30644e72e131a029b85045b68181585d2833e84879b9709143e1f593f000000081526020017f30644e72e131a029b85045b68181585d2833e84879b9709143e1f593f000000081526020017f30644e72e131a029b85045b68181585d2833e84879b9709143e1f593f000000081526020017f30644e72e131a029b85045b68181585d2833e84879b9709143e1f593f000000081526020017f30644e72e131a029b85045b68181585d2833e84879b9709143e1f593f000000081526020017f30644e72e131a029b85045b68181585d2833e84879b9709143e1f593f000000081526020017f30644e72e131a029b85045b68181585d2833e84879b9709143e1f593f000000081526020017f30644e72e131a029b85045b68181585d2833e84879b9709143e1f593f000000081526020017f30644e72e131a029b85045b68181585d2833e84879b9709143e1f593f000000081526020017f30644e72e131a029b85045b68181585d2833e84879b9709143e1f593f000000081526020017f30644e72e131a029b85045b68181585d2833e84879b9709143e1f593f000000081526020017f30644e72e131a029b85045b68181585d2833e84879b9709143e1f593f000000081526020017f30644e72e131a029b85045b68181585d2833e84879b9709143e1f593f000000081526020017f30644e72e131a029b85045b68181585d2833e84879b9709143e1f593f000000081526020017f30644e72e131a029b85045b68181585d2833e84879b9709143e1f593f000000081526020017f30644e72e131a029b85045b68181585d2833e84879b9709143e1f593f000000081526020017f30644e72e131a029b85045b68181585d2833e84879b9709143e1f593f000000081526020017f30644e72e131a029b85045b68181585d2833e84879b9709143e1f593f000000081526020017f30644e72e131a029b85045b68181585d2833e84879b9709143e1f593f000000081526020017f30644e72e131a029b85045b68181585d2833e84879b9709143e1f593f000000081526020017f30644e72e131a029b85045b68181585d2833e84879b9709143e1f593f000000081526020017f30644e72e131a029b85045b68181585d2833e84879b9709143e1f593f000000081526020017f30644e72e131a029b85045b68181585d2833e84879b9709143e1f593f000000081526020017f30644e72e131a029b85045b68181585d2833e84879b9709143e1f593f000000081526020017f30644e72e131a029b85045b68181585d2833e84879b9709143e1f593f000000081526020017f30644e72e131a029b85045b68181585d2833e84879b9709143e1f593f000000081526020017f30644e72e131a029b85045b68181585d2833e84879b9709143e1f593f000000081526020017f30644e72e131a029b85045b68181585d2833e84879b9709143e1f593f000000081526020017f30644e72e131a029b85045b68181585d2833e84879b9709143e1f593f000000081526020017f30644e72e131a029b85045b68181585d2833e84879b9709143e1f593f000000081526020017f30644e72e131a029b85045b68181585d2833e84879b9709143e1f593f000000081526020017f30644e72e131a029b85045b68181585d2833e84879b9709143e1f593f000000081526020017f30644e72e131a029b85045b68181585d2833e84879b9709143e1f593f000000081526020017f30644e72e131a029b85045b68181585d2833e84879b9709143e1f593f000000081526020017f30644e72e131a029b85045b68181585d2833e84879b9709143e1f593f000000081526020017f30644e72e131a029b85045b68181585d2833e84879b9709143e1f593f000000081526020017f30644e72e131a029b85045b68181585d2833e84879b9709143e1f593f000000081526020017f30644e72e131a029b85045b68181585d2833e84879b9709143e1f593f000000081526020017f30644e72e131a029b85045b68181585d2833e84879b9709143e1f593f000000081526020017f30644e72e131a029b85045b68181585d2833e84879b9709143e1f593f000000081526020017f30644e72e131a029b85045b68181585d2833e84879b9709143e1f593f000000081526020017f30644e72e131a029b85045b68181585d2833e84879b9709143e1f593f000000081526020017f30644e72e131a029b85045b68181585d2833e84879b9709143e1f593f000000081526020017f30644e72e131a029b85045b68181585d2833e84879b9709143e1f593f000000081526020017f30644e72e131a029b85045b68181585d2833e84879b9709143e1f593f000000081526020017f30644e72e131a029b85045b68181585d2833e84879b9709143e1f593f000000081526020017f30644e72e131a029b85045b68181585d2833e84879b9709143e1f593f000000081526020017f30644e72e131a029b85045b68181585d2833e84879b9709143e1f593f000000081526020017f30644e72e131a029b85045b68181585d2833e84879b9709143e1f593f000000081526020017f30644e72e131a029b85045b68181585d2833e84879b9709143e1f593f000000081526020017f30644e72e131a029b85045b68181585d2833e84879b9709143e1f593f000000081526020017f30644e72e131a029b85045b68181585d2833e84879b9709143e1f593f000000081526020017f30644e72e131a029b85045b68181585d2833e84879b9709143e1f593f000000081526020017f30644e72e131a029b85045b68181585d2833e84879b9709143e1f593f000000081526020017f30644e72e131a029b85045b68181585d2833e84879b9709143e1f593f000000081526020017f30644e72e131a029b85045b68181585d2833e84879b9709143e1f593f000000081526020017f30644e72e131a029b85045b68181585d2833e84879b9709143e1f593f000000081526020017f30644e72e131a029b85045b68181585d2833e84879b9709143e1f593f000000081526020017f30644e72e131a029b85045b68181585d2833e84879b9709143e1f593f000000081526020017f30644e72e131a029b85045b68181585d2833e84879b9709143e1f593f000000081526020017f30644e72e131a029b85045b68181585d2833e84879b9709143e1f593f000000081526020017f30644e72e131a029b85045b68181585d2833e84879b9709143e1f593f000000081526020017f30644e72e131a029b85045b68181585d2833e84879b9709143e1f593f000000081526020017f30644e72e131a029b85045b68181585d2833e84879b9709143e1f593f000000081526020017f30644e72e131a029b85045b68181585d2833e84879b9709143e1f593f000000081526020017f30644e72e131a029b85045b68181585d2833e84879b9709143e1f593f000000081526020017f30644e72e131a029b85045b68181585d2833e84879b9709143e1f593f000000081526020017f30644e72e131a029b85045b68181585d2833e84879b9709143e1f593f000000081526020017f30644e72e131a029b85045b68181585d2833e84879b9709143e1f593f000000081526020017f30644e72e131a029b85045b68181585d2833e84879b9709143e1f593f000000081526020017f30644e72e131a029b85045b68181585d2833e84879b9709143e1f593f000000081526020017f30644e72e131a029b85045b68181585d2833e84879b9709143e1f593f000000081526020017f30644e72e131a029b85045b68181585d2833e84879b9709143e1f593f000000081526020017f30644e72e131a029b85045b68181585d2833e84879b9709143e1f593f000000081526020017f30644e72e131a029b85045b68181585d2833e84879b9709143e1f593f000000081526020017f30644e72e131a029b85045b68181585d2833e84879b9709143e1f593f000000081526020017f30644e72e131a029b85045b68181585d2833e84879b9709143e1f593f000000081526020017f30644e72e131a029b85045b68181585d2833e84879b9709143e1f593f000000081526020017f30644e72e131a029b85045b68181585d2833e84879b9709143e1f593f000000081526020017f30644e72e131a029b85045b68181585d2833e84879b9709143e1f593f000000081526020017f30644e72e131a029b85045b68181585d2833e84879b9709143e1f593f000000081526020017f30644e72e131a029b85045b68181585d2833e84879b9709143e1f593f000000081526020017f30644e72e131a029b85045b68181585d2833e84879b9709143e1f593f000000081526020017f30644e72e131a029b85045b68181585d2833e84879b9709143e1f593f000000081526020017f30644e72e131a029b85045b68181585d2833e84879b9709143e1f593f000000081526020017f30644e72e131a029b85045b68181585d2833e84879b9709143e1f593f000000081526020017f30644e72e131a029b85045b68181585d2833e84879b9709143e1f593f000000081526020017f30644e72e131a029b85045b68181585d2833e84879b9709143e1f593f000000081526020017f30644e72e131a029b85045b68181585d2833e84879b9709143e1f593f000000081526020017f30644e72e131a029b85045b68181585d2833e84879b9709143e1f593f000000081526020017f30644e72e131a029b85045b68181585d2833e84879b9709143e1f593f000000081526020017f30644e72e131a029b85045b68181585d2833e84879b9709143e1f593f000000081526020017f30644e72e131a029b85045b68181585d2833e84879b9709143e1f593f000000081526020017f30644e72e131a029b85045b68181585d2833e84879b9709143e1f593f000000081526020017f30644e72e131a029b85045b68181585d2833e84879b9709143e1f593f000000081526020017f30644e72e131a029b85045b68181585d2833e84879b9709143e1f593f000000081526020017f30644e72e131a029b85045b68181585d2833e84879b9709143e1f593f000000081526020017f30644e72e131a029b85045b68181585d2833e84879b9709143e1f593f000000081526020017f30644e72e131a029b85045b68181585d2833e84879b9709143e1f593f000000081526020017f30644e72e131a029b85045b68181585d2833e84879b9709143e1f593f000000081526020017f30644e72e131a029b85045b68181585d2833e84879b9709143e1f593f000000081526020017f30644e72e131a029b85045b68181585d2833e84879b9709143e1f593f000000081526020017f30644e72e131a029b85045b68181585d2833e84879b9709143e1f593f000000081526020017f30644e72e131a029b85045b68181585d2833e84879b9709143e1f593f000000081526020017f30644e72e131a029b85045b68181585d2833e84879b9709143e1f593f000000081526020017f30644e72e131a029b85045b68181585d2833e84879b9709143e1f593f000000081526020017f30644e72e131a029b85045b68181585d2833e84879b9709143e1f593f000000081526020017f30644e72e131a029b85045b68181585d2833e84879b9709143e1f593f000000081526020017f30644e72e131a029b85045b68181585d2833e84879b9709143e1f593f000000081526020017f30644e72e131a029b85045b68181585d2833e84879b9709143e1f593f000000081526020017f30644e72e131a029b85045b68181585d2833e84879b9709143e1f593f000000081526020017f30644e72e131a029b85045b68181585d2833e84879b9709143e1f593f000000081526020017f30644e72e131a029b85045b68181585d2833e84879b9709143e1f593f000000081526020017f30644e72e131a029b85045b68181585d2833e84879b9709143e1f593f000000081526020017f30644e72e131a029b85045b68181585d2833e84879b9709143e1f593f000000081526020017f30644e72e131a029b85045b68181585d2833e84879b9709143e1f593f000000081526020017f30644e72e131a029b85045b68181585d2833e84879b9709143e1f593f000000081526020017f30644e72e131a029b85045b68181585d2833e84879b9709143e1f593f000000081526020017f30644e72e131a029b85045b68181585d2833e84879b9709143e1f593f0000000815260200160008152602001600081526020017f30644e72e131a029b85045b68181585d2833e84879b9709143e1f593f00000008152602001600181526020017f30644e72e131a029b85045b68181585d2833e84879b9709143e1f593f00000008152602001600181526020017f30644e72e131a029b85045b68181585d2833e84879b9709143e1f593f00000008152602001606481526020017f30644e72e131a029b85045b68181585d2833e84879b9709143e1f593efffff9d8152602001606481526020017f30644e72e131a029b85045b68181585d2833e84879b9709143e1f593efffff9d81526020017f30644e72e131a029b85045b68181585d2833e84879b9709143e1f593f000000081526020017f30644e72e131a029b85045b68181585d2833e84879b9709143e1f593f00000008152602001606481526020017f30644e72e131a029b85045b68181585d2833e84879b9709143e1f593efffff9d81526020017f30644e72e131a029b85045b68181585d2833e84879b9709143e1f593f00000008152602001606481526020017f30644e72e131a029b85045b68181585d2833e84879b9709143e1f593efffff9d81526020017f30644e72e131a029b85045b68181585d2833e84879b9709143e1f593f00000008152602001600181526020017f30644e72e131a029b85045b68181585d2833e84879b9709143e1f593f000000081526020016001815260200160018152602001600181526020017f30644e72e131a029b85045b68181585d2833e84879b9709143e1f593f00000008152602001600181526020017f30644e72e131a029b85045b68181585d2833e84879b9709143e1f593f00000008152602001600181526020017f30644e72e131a029b85045b68181585d2833e84879b9709143e1f593f00000008152602001600181526020017f30644e72e131a029b85045b68181585d2833e84879b9709143e1f593f00000008152602001600181526020016001815260200160018152602001600181526020016001815260200160018152602001600181526020016001815260200160018152602001600181526020016001815260200160018152602001600181526020016001815260200160018152602001600181526020016001815260200160018152602001600181526020016001815260200160018152602001600181526020016001815260200160018152602001600181526020016001815260200160018152602001600181526020016001815260200160018152602001600181526020016001815260200160018152602001600181526020016002815260200160048152602001600881526020016010815260200160208152602001604081526020016101008152602001608081526020016104008152602001610800815260200161100081526020016120008152602001614000815260200161800081526020017f30644e72e131a029b85045b68181585d2833e84879b9709143e1f593f0000000815260200161020081526020016040815260200160018152602001600281526020016004815260200160088152602001601081526020016020815260200160808152602001612000815260200161020081526020016104008152602001610800815260200161100081526020016101008152602001614000815260200161800081526020017f30644e72e131a029b85045b68181585d2833e84879b9709143e1f593f00000008152602001600181526020016001815260200160018152602001600181526020016001815260200160018152602001600181526020016001815260200160018152602001600181526020016001815260200160018152602001600181526020016001815260200160018152602001600181526020017f30644e72e131a029b85045b68181585d2833e84879b9709143e1f593f00000008152602001600181526020016002815260200160048152602001600881526020016010815260200160208152602001604081526020016102008152602001610100815260200160808152602001610400815260200161080081526020016110008152602001612000815260200161400081526020016180008152602001600181526020017f30644e72e131a029b85045b68181585d2833e84879b9709143e1f593f00000008152602001600181526020017f30644e72e131a029b85045b68181585d2833e84879b9709143e1f593f00000008152602001600181526020016001815260200160018152602001600181526020016001815260200160018152602001600181526020016001815260200160018152602001600181526020016001815260200160018152602001600181526020016001815260200160018152602001600181526020016001815260200160018152602001600181526020016001815260200160018152602001600181526020016001815260200160018152602001600181526020016001815260200160018152602001600181526020016001815260200160018152602001600181526020016001815260200160018152602001600181526020016001815260200160018152602001600181526020016001815260200160018152602001600181526020016001815260200160018152602001600181526020016001815260200160018152602001600181526020016001815260200160018152602001600181526020016001815260200160018152602001600181526020016001815260200160018152602001600181526020016001815260200160018152602001600181526020016001815260200160018152602001600181526020016001815260200160018152602001600181526020016001815260200160018152602001600181526020016001815260200160018152602001600181526020016001815260200160018152602001600181526020016001815260200160018152602001600181526020016001815260200160018152602001600181526020016001815260200160018152602001600181526020016001815260200160018152602001600181526020016001815260200160018152602001600181526020016001815260200160018152602001600181526020016001815260200160018152602001600181526020016001815260200160018152602001600181526020016001815260200160018152602001600181526020016001815260200160018152602001600181526020016001815260200160018152602001600181526020016001815260200160018152602001600181526020016001815260200160018152602001600181526020016001815260200160018152602001600181526020016001815260200160018152602001600181526020016001815260200160018152602001600181526020016001815260200160018152602001600181526020016001815260200160018152602001600181526020016001815260200160018152602001600181526020016001815260200160018152602001600181526020016001815260200160018152602001600181526020016001815260200160018152602001600181526020016001815260200160018152602001600181526020016001815260200160018152602001600181526020016001815260200160018152602001600181526020016001815260200160018152602001600181526020016001815260200160018152602001600181526020016001815260200160018152602001600181526020016001815260200160018152602001600181526020016001815260200160018152602001600181526020016001815260200160018152602001600181526020016001815260200160018152602001600181526020016001815260200160018152602001600181526020016001815260200160018152602001600181526020016001815260200160018152602001600181526020016001815260200160018152602001600181526020016002815260200160048152602001600881526020016010815260200160208152602001604081526020016101008152602001608081526020016104008152602001610800815260200161100081526020016120008152602001614000815260200161800081526020017f30644e72e131a029b85045b68181585d2833e84879b9709143e1f593f000000081526020016102008152602001604081526020016002815260200160018152602001600481526020016008815260200160108152602001602081526020016080815260200161800081526020016102008152602001610400815260200161080081526020016110008152602001612000815260200161400081526020017f30644e72e131a029b85045b68181585d2833e84879b9709143e1f593f000000081526020016101008152602001600281526020016004815260200160088152602001601081526020016020815260200160408152602001608081526020016101008152602001600181526020016104008152602001610800815260200161100081526020016120008152602001614000815260200161800081526020017f30644e72e131a029b85045b68181585d2833e84879b9709143e1f593f000000081526020016102008152602001600181526020016002815260200160048152602001600881526020016010815260200160208152602001604081526020016080815260200161010081526020016104008152602001610800815260200161100081526020016120008152602001614000815260200161800081526020017f30644e72e131a029b85045b68181585d2833e84879b9709143e1f593f0000000815260200161020081526020016080815260200160028152602001600481526020016008815260200160108152602001602081526020016040815260200161010081526020016001815260200161040081526020017f30644e72e131a029b85045b68181585d2833e84879b9709143e1f593f00000008152602001618000815260200161400081526020016102008152602001611000815260200161080081526020016120008152602001600181526020016002815260200160048152602001600881526020016010815260200160208152602001608081526020016040815260200161010081526020016104008152602001610800815260200161100081526020016120008152602001614000815260200161800081526020017f30644e72e131a029b85045b68181585d2833e84879b9709143e1f593f000000081526020016102008152602001604081526020016020815260200160108152602001608081526020016004815260200160028152602001600881526020016001815260200161010081526020016104008152602001610800815260200161100081526020016120008152602001614000815260200161800081526020017f30644e72e131a029b85045b68181585d2833e84879b9709143e1f593f000000081526020016102008152602001600181526020016002815260200160048152602001600881526020016010815260200160208152602001604081526020016080815260200161010081526020016104008152602001610800815260200161100081526020016120008152602001614000815260200161800081526020017f30644e72e131a029b85045b68181585d2833e84879b9709143e1f593f00000008152602001610200815260200160018152602001600181526020016001815260200160018152602001600181526020016001815260200160018152602001600181526020016001815260200160018152602001600181526020016001815260200160018152602001600181526020016001815260200160018152602001600181526020016001815260200160018152602001600181526020016001815260200160018152602001600181526020016001815260200160018152602001600181526020016001815260200160018152602001600181526020016001815260200160018152602001600181526020016001815260200160018152602001600181526020016001815260200160018152602001600181526020016001815260200160018152602001600181526020016001815260200160018152602001600181526020016001815260200160018152602001600181526020016001815260200160018152602001600181526020016001815260200160018152602001600181526020016001815260200160018152602001600181526020016001815260200160018152602001600181526020016001815260200160018152602001600181526020016001815260200160018152602001600181526020016001815260200160018152602001600181526020016001815260200160018152602001600181526020016001815260200160018152602001600181526020016001815260200160018152602001600181526020016001815260200160018152602001600181526020016001815260200160018152602001600181526020016001815260200160018152602001600181526020016001815260200160018152602001600181526020016001815260200160018152602001600181526020016001815260200160018152602001600181526020016001815260200160018152602001600181526020016001815260200160018152602001600181526020016001815260200160018152602001600181526020016001815260200160018152602001600181526020016001815260200160018152602001600181526020016001815260200160018152602001600181526020016001815260200160018152602001600181526020016001815260200160018152602001600181526020016001815260200160018152602001600181526020016001815260200160018152602001600181526020016001815260200160018152506000906103db61505f929190615072565b5034801561506c57600080fd5b506150d0565b826103db81019282156150a2579160200282015b828111156150a1578251825591602001919060010190615086565b5b5090506150af91906150b3565b5090565b5b808211156150cc5760008160009055506001016150b4565b5090565b61012c806150df6000396000f3fe6080604052348015600f57600080fd5b506004361060285760003560e01c80639f8f9b3414602d575b600080fd5b60436004803603810190603f919060a8565b6057565b604051604e919060dd565b60405180910390f35b6000816103db8110606757600080fd5b016000915090505481565b600080fd5b6000819050919050565b6088816077565b8114609257600080fd5b50565b60008135905060a2816081565b92915050565b60006020828403121560bb5760ba6072565b5b600060c7848285016095565b91505092915050565b60d7816077565b82525050565b600060208201905060f0600083018460d0565b9291505056fea2646970667358221220196214ebd10be6e05dd708bbd1525a9f56cf2e084e888d7d3a7c0ef0666d100164736f6c634300080d0033",
  "immutableReferences": {},
  "source": "// SPDX-License-Identifier: MIT\npragma solidity >=0.4.22 <0.9.0;\n\n\ncontract PolyCoeff {\n    uint256[987] public _coefficients = [\n                    uint256(21888242871839275222246405745257275088548364400416034343698204186575808495616),\n                    uint256(21888242871839275222246405745257275088548364400416034343698204186575808495616),\n                    uint256(21888242871839275222246405745257275088548364400416034343698204186575808495616),\n                    uint256(21888242871839275222246405745257275088548364400416034343698204186575808495616),\n                    uint256(21888242871839275222246405745257275088548364400416034343698204186575808495616),\n                    uint256(21888242871839275222246405745257275088548364400416034343698204186575808495616),\n                    uint256(21888242871839275222246405745257275088548364400416034343698204186575808495616),\n                    uint256(21888242871839275222246405745257275088548364400416034343698204186575808495616),\n                    uint256(21888242871839275222246405745257275088548364400416034343698204186575808495616),\n                    uint256(21888242871839275222246405745257275088548364400416034343698204186575808495616),\n                    uint256(21888242871839275222246405745257275088548364400416034343698204186575808495616),\n                    uint256(21888242871839275222246405745257275088548364400416034343698204186575808495616),\n                    uint256(21888242871839275222246405745257275088548364400416034343698204186575808495616),\n                    uint256(21888242871839275222246405745257275088548364400416034343698204186575808495616),\n                    uint256(21888242871839275222246405745257275088548364400416034343698204186575808495616),\n                    uint256(21888242871839275222246405745257275088548364400416034343698204186575808495616),\n                    uint256(21888242871839275222246405745257275088548364400416034343698204186575808495616),\n                    uint256(21888242871839275222246405745257275088548364400416034343698204186575808495616),\n                    uint256(21888242871839275222246405745257275088548364400416034343698204186575808495616),\n                    uint256(21888242871839275222246405745257275088548364400416034343698204186575808495616),\n                    uint256(21888242871839275222246405745257275088548364400416034343698204186575808495616),\n                    uint256(21888242871839275222246405745257275088548364400416034343698204186575808495616),\n                    uint256(21888242871839275222246405745257275088548364400416034343698204186575808495616),\n                    uint256(21888242871839275222246405745257275088548364400416034343698204186575808495616),\n                    uint256(21888242871839275222246405745257275088548364400416034343698204186575808495616),\n                    uint256(21888242871839275222246405745257275088548364400416034343698204186575808495616),\n                    uint256(21888242871839275222246405745257275088548364400416034343698204186575808495616),\n                    uint256(21888242871839275222246405745257275088548364400416034343698204186575808495616),\n                    uint256(21888242871839275222246405745257275088548364400416034343698204186575808495616),\n                    uint256(21888242871839275222246405745257275088548364400416034343698204186575808495616),\n                    uint256(21888242871839275222246405745257275088548364400416034343698204186575808495616),\n                    uint256(21888242871839275222246405745257275088548364400416034343698204186575808495616),\n                    uint256(21888242871839275222246405745257275088548364400416034343698204186575808495616),\n                    uint256(21888242871839275222246405745257275088548364400416034343698204186575808495616),\n                    uint256(21888242871839275222246405745257275088548364400416034343698204186575808495616),\n                    uint256(21888242871839275222246405745257275088548364400416034343698204186575808495616),\n                    uint256(21888242871839275222246405745257275088548364400416034343698204186575808495616),\n                    uint256(21888242871839275222246405745257275088548364400416034343698204186575808495616),\n                    uint256(21888242871839275222246405745257275088548364400416034343698204186575808495616),\n                    uint256(21888242871839275222246405745257275088548364400416034343698204186575808495616),\n                    uint256(21888242871839275222246405745257275088548364400416034343698204186575808495616),\n                    uint256(21888242871839275222246405745257275088548364400416034343698204186575808495616),\n                    uint256(21888242871839275222246405745257275088548364400416034343698204186575808495616),\n                    uint256(21888242871839275222246405745257275088548364400416034343698204186575808495616),\n                    uint256(21888242871839275222246405745257275088548364400416034343698204186575808495616),\n                    uint256(21888242871839275222246405745257275088548364400416034343698204186575808495616),\n                    uint256(21888242871839275222246405745257275088548364400416034343698204186575808495616),\n                    uint256(21888242871839275222246405745257275088548364400416034343698204186575808495616),\n                    uint256(21888242871839275222246405745257275088548364400416034343698204186575808495616),\n                    uint256(21888242871839275222246405745257275088548364400416034343698204186575808495616),\n                    uint256(21888242871839275222246405745257275088548364400416034343698204186575808495616),\n                    uint256(21888242871839275222246405745257275088548364400416034343698204186575808495616),\n                    uint256(21888242871839275222246405745257275088548364400416034343698204186575808495616),\n                    uint256(21888242871839275222246405745257275088548364400416034343698204186575808495616),\n                    uint256(21888242871839275222246405745257275088548364400416034343698204186575808495616),\n                    uint256(21888242871839275222246405745257275088548364400416034343698204186575808495616),\n                    uint256(21888242871839275222246405745257275088548364400416034343698204186575808495616),\n                    uint256(21888242871839275222246405745257275088548364400416034343698204186575808495616),\n                    uint256(21888242871839275222246405745257275088548364400416034343698204186575808495616),\n                    uint256(21888242871839275222246405745257275088548364400416034343698204186575808495616),\n                    uint256(21888242871839275222246405745257275088548364400416034343698204186575808495616),\n                    uint256(21888242871839275222246405745257275088548364400416034343698204186575808495616),\n                    uint256(21888242871839275222246405745257275088548364400416034343698204186575808495616),\n                    uint256(21888242871839275222246405745257275088548364400416034343698204186575808495616),\n                    uint256(21888242871839275222246405745257275088548364400416034343698204186575808495616),\n                    uint256(21888242871839275222246405745257275088548364400416034343698204186575808495616),\n                    uint256(21888242871839275222246405745257275088548364400416034343698204186575808495616),\n                    uint256(21888242871839275222246405745257275088548364400416034343698204186575808495616),\n                    uint256(21888242871839275222246405745257275088548364400416034343698204186575808495616),\n                    uint256(21888242871839275222246405745257275088548364400416034343698204186575808495616),\n                    uint256(21888242871839275222246405745257275088548364400416034343698204186575808495616),\n                    uint256(21888242871839275222246405745257275088548364400416034343698204186575808495616),\n                    uint256(21888242871839275222246405745257275088548364400416034343698204186575808495616),\n                    uint256(21888242871839275222246405745257275088548364400416034343698204186575808495616),\n                    uint256(21888242871839275222246405745257275088548364400416034343698204186575808495616),\n                    uint256(21888242871839275222246405745257275088548364400416034343698204186575808495616),\n                    uint256(21888242871839275222246405745257275088548364400416034343698204186575808495616),\n                    uint256(21888242871839275222246405745257275088548364400416034343698204186575808495616),\n                    uint256(21888242871839275222246405745257275088548364400416034343698204186575808495616),\n                    uint256(21888242871839275222246405745257275088548364400416034343698204186575808495616),\n                    uint256(21888242871839275222246405745257275088548364400416034343698204186575808495616),\n                    uint256(21888242871839275222246405745257275088548364400416034343698204186575808495616),\n                    uint256(21888242871839275222246405745257275088548364400416034343698204186575808495616),\n                    uint256(21888242871839275222246405745257275088548364400416034343698204186575808495616),\n                    uint256(21888242871839275222246405745257275088548364400416034343698204186575808495616),\n                    uint256(21888242871839275222246405745257275088548364400416034343698204186575808495616),\n                    uint256(21888242871839275222246405745257275088548364400416034343698204186575808495616),\n                    uint256(21888242871839275222246405745257275088548364400416034343698204186575808495616),\n                    uint256(21888242871839275222246405745257275088548364400416034343698204186575808495616),\n                    uint256(21888242871839275222246405745257275088548364400416034343698204186575808495616),\n                    uint256(21888242871839275222246405745257275088548364400416034343698204186575808495616),\n                    uint256(21888242871839275222246405745257275088548364400416034343698204186575808495616),\n                    uint256(21888242871839275222246405745257275088548364400416034343698204186575808495616),\n                    uint256(21888242871839275222246405745257275088548364400416034343698204186575808495616),\n                    uint256(21888242871839275222246405745257275088548364400416034343698204186575808495616),\n                    uint256(21888242871839275222246405745257275088548364400416034343698204186575808495616),\n                    uint256(21888242871839275222246405745257275088548364400416034343698204186575808495616),\n                    uint256(21888242871839275222246405745257275088548364400416034343698204186575808495616),\n                    uint256(21888242871839275222246405745257275088548364400416034343698204186575808495616),\n                    uint256(21888242871839275222246405745257275088548364400416034343698204186575808495616),\n                    uint256(21888242871839275222246405745257275088548364400416034343698204186575808495616),\n                    uint256(21888242871839275222246405745257275088548364400416034343698204186575808495616),\n                    uint256(21888242871839275222246405745257275088548364400416034343698204186575808495616),\n                    uint256(21888242871839275222246405745257275088548364400416034343698204186575808495616),\n                    uint256(21888242871839275222246405745257275088548364400416034343698204186575808495616),\n                    uint256(21888242871839275222246405745257275088548364400416034343698204186575808495616),\n                    uint256(21888242871839275222246405745257275088548364400416034343698204186575808495616),\n                    uint256(21888242871839275222246405745257275088548364400416034343698204186575808495616),\n                    uint256(21888242871839275222246405745257275088548364400416034343698204186575808495616),\n                    uint256(21888242871839275222246405745257275088548364400416034343698204186575808495616),\n                    uint256(21888242871839275222246405745257275088548364400416034343698204186575808495616),\n                    uint256(21888242871839275222246405745257275088548364400416034343698204186575808495616),\n                    uint256(21888242871839275222246405745257275088548364400416034343698204186575808495616),\n                    uint256(21888242871839275222246405745257275088548364400416034343698204186575808495616),\n                    uint256(21888242871839275222246405745257275088548364400416034343698204186575808495616),\n                    uint256(21888242871839275222246405745257275088548364400416034343698204186575808495616),\n                    uint256(21888242871839275222246405745257275088548364400416034343698204186575808495616),\n                    uint256(21888242871839275222246405745257275088548364400416034343698204186575808495616),\n                    uint256(21888242871839275222246405745257275088548364400416034343698204186575808495616),\n                    uint256(21888242871839275222246405745257275088548364400416034343698204186575808495616),\n                    uint256(21888242871839275222246405745257275088548364400416034343698204186575808495616),\n                    uint256(21888242871839275222246405745257275088548364400416034343698204186575808495616),\n                    uint256(21888242871839275222246405745257275088548364400416034343698204186575808495616),\n                    uint256(21888242871839275222246405745257275088548364400416034343698204186575808495616),\n                    uint256(21888242871839275222246405745257275088548364400416034343698204186575808495616),\n                    uint256(21888242871839275222246405745257275088548364400416034343698204186575808495616),\n                    uint256(21888242871839275222246405745257275088548364400416034343698204186575808495616),\n                    uint256(21888242871839275222246405745257275088548364400416034343698204186575808495616),\n                    uint256(21888242871839275222246405745257275088548364400416034343698204186575808495616),\n                    uint256(21888242871839275222246405745257275088548364400416034343698204186575808495616),\n                    uint256(21888242871839275222246405745257275088548364400416034343698204186575808495616),\n                    uint256(21888242871839275222246405745257275088548364400416034343698204186575808495616),\n                    uint256(21888242871839275222246405745257275088548364400416034343698204186575808495616),\n                    uint256(21888242871839275222246405745257275088548364400416034343698204186575808495616),\n                    uint256(21888242871839275222246405745257275088548364400416034343698204186575808495616),\n                    uint256(21888242871839275222246405745257275088548364400416034343698204186575808495616),\n                    uint256(21888242871839275222246405745257275088548364400416034343698204186575808495616),\n                    uint256(21888242871839275222246405745257275088548364400416034343698204186575808495616),\n                    uint256(21888242871839275222246405745257275088548364400416034343698204186575808495616),\n                    uint256(21888242871839275222246405745257275088548364400416034343698204186575808495616),\n                    uint256(21888242871839275222246405745257275088548364400416034343698204186575808495616),\n                    uint256(21888242871839275222246405745257275088548364400416034343698204186575808495616),\n                    uint256(21888242871839275222246405745257275088548364400416034343698204186575808495616),\n                    uint256(21888242871839275222246405745257275088548364400416034343698204186575808495616),\n                    uint256(21888242871839275222246405745257275088548364400416034343698204186575808495616),\n                    uint256(21888242871839275222246405745257275088548364400416034343698204186575808495616),\n                    uint256(21888242871839275222246405745257275088548364400416034343698204186575808495616),\n                    uint256(21888242871839275222246405745257275088548364400416034343698204186575808495616),\n                    uint256(21888242871839275222246405745257275088548364400416034343698204186575808495616),\n                    uint256(21888242871839275222246405745257275088548364400416034343698204186575808495616),\n                    uint256(21888242871839275222246405745257275088548364400416034343698204186575808495616),\n                    uint256(21888242871839275222246405745257275088548364400416034343698204186575808495616),\n                    uint256(21888242871839275222246405745257275088548364400416034343698204186575808495616),\n                    uint256(21888242871839275222246405745257275088548364400416034343698204186575808495616),\n                    uint256(21888242871839275222246405745257275088548364400416034343698204186575808495616),\n                    uint256(21888242871839275222246405745257275088548364400416034343698204186575808495616),\n                    uint256(21888242871839275222246405745257275088548364400416034343698204186575808495616),\n                    uint256(21888242871839275222246405745257275088548364400416034343698204186575808495616),\n                    uint256(21888242871839275222246405745257275088548364400416034343698204186575808495616),\n                    uint256(21888242871839275222246405745257275088548364400416034343698204186575808495616),\n                    uint256(21888242871839275222246405745257275088548364400416034343698204186575808495616),\n                    uint256(21888242871839275222246405745257275088548364400416034343698204186575808495616),\n                    uint256(21888242871839275222246405745257275088548364400416034343698204186575808495616),\n                    uint256(21888242871839275222246405745257275088548364400416034343698204186575808495616),\n                    uint256(21888242871839275222246405745257275088548364400416034343698204186575808495616),\n                    uint256(21888242871839275222246405745257275088548364400416034343698204186575808495616),\n                    uint256(21888242871839275222246405745257275088548364400416034343698204186575808495616),\n                    uint256(21888242871839275222246405745257275088548364400416034343698204186575808495616),\n                    uint256(21888242871839275222246405745257275088548364400416034343698204186575808495616),\n                    uint256(21888242871839275222246405745257275088548364400416034343698204186575808495616),\n                    uint256(21888242871839275222246405745257275088548364400416034343698204186575808495616),\n                    uint256(21888242871839275222246405745257275088548364400416034343698204186575808495616),\n                    uint256(21888242871839275222246405745257275088548364400416034343698204186575808495616),\n                    uint256(21888242871839275222246405745257275088548364400416034343698204186575808495616),\n                    uint256(21888242871839275222246405745257275088548364400416034343698204186575808495616),\n                    uint256(21888242871839275222246405745257275088548364400416034343698204186575808495616),\n                    uint256(21888242871839275222246405745257275088548364400416034343698204186575808495616),\n                    uint256(21888242871839275222246405745257275088548364400416034343698204186575808495616),\n                    uint256(21888242871839275222246405745257275088548364400416034343698204186575808495616),\n                    uint256(21888242871839275222246405745257275088548364400416034343698204186575808495616),\n                    uint256(21888242871839275222246405745257275088548364400416034343698204186575808495616),\n                    uint256(21888242871839275222246405745257275088548364400416034343698204186575808495616),\n                    uint256(21888242871839275222246405745257275088548364400416034343698204186575808495616),\n                    uint256(21888242871839275222246405745257275088548364400416034343698204186575808495616),\n                    uint256(21888242871839275222246405745257275088548364400416034343698204186575808495616),\n                    uint256(21888242871839275222246405745257275088548364400416034343698204186575808495616),\n                    uint256(21888242871839275222246405745257275088548364400416034343698204186575808495616),\n                    uint256(21888242871839275222246405745257275088548364400416034343698204186575808495616),\n                    uint256(21888242871839275222246405745257275088548364400416034343698204186575808495616),\n                    uint256(21888242871839275222246405745257275088548364400416034343698204186575808495616),\n                    uint256(21888242871839275222246405745257275088548364400416034343698204186575808495616),\n                    uint256(21888242871839275222246405745257275088548364400416034343698204186575808495616),\n                    uint256(21888242871839275222246405745257275088548364400416034343698204186575808495616),\n                    uint256(21888242871839275222246405745257275088548364400416034343698204186575808495616),\n                    uint256(21888242871839275222246405745257275088548364400416034343698204186575808495616),\n                    uint256(21888242871839275222246405745257275088548364400416034343698204186575808495616),\n                    uint256(21888242871839275222246405745257275088548364400416034343698204186575808495616),\n                    uint256(21888242871839275222246405745257275088548364400416034343698204186575808495616),\n                    uint256(21888242871839275222246405745257275088548364400416034343698204186575808495616),\n                    uint256(21888242871839275222246405745257275088548364400416034343698204186575808495616),\n                    uint256(21888242871839275222246405745257275088548364400416034343698204186575808495616),\n                    uint256(21888242871839275222246405745257275088548364400416034343698204186575808495616),\n                    uint256(21888242871839275222246405745257275088548364400416034343698204186575808495616),\n                    uint256(21888242871839275222246405745257275088548364400416034343698204186575808495616),\n                    uint256(0),\n                    uint256(21888242871839275222246405745257275088548364400416034343698204186575808495616),\n                    uint256(21888242871839275222246405745257275088548364400416034343698204186575808495616),\n                    uint256(21888242871839275222246405745257275088548364400416034343698204186575808495616),\n                    uint256(21888242871839275222246405745257275088548364400416034343698204186575808495616),\n                    uint256(21888242871839275222246405745257275088548364400416034343698204186575808495616),\n                    uint256(21888242871839275222246405745257275088548364400416034343698204186575808495616),\n                    uint256(21888242871839275222246405745257275088548364400416034343698204186575808495616),\n                    uint256(21888242871839275222246405745257275088548364400416034343698204186575808495616),\n                    uint256(21888242871839275222246405745257275088548364400416034343698204186575808495616),\n                    uint256(21888242871839275222246405745257275088548364400416034343698204186575808495616),\n                    uint256(21888242871839275222246405745257275088548364400416034343698204186575808495616),\n                    uint256(21888242871839275222246405745257275088548364400416034343698204186575808495616),\n                    uint256(21888242871839275222246405745257275088548364400416034343698204186575808495616),\n                    uint256(21888242871839275222246405745257275088548364400416034343698204186575808495616),\n                    uint256(21888242871839275222246405745257275088548364400416034343698204186575808495616),\n                    uint256(21888242871839275222246405745257275088548364400416034343698204186575808495616),\n                    uint256(21888242871839275222246405745257275088548364400416034343698204186575808495616),\n                    uint256(21888242871839275222246405745257275088548364400416034343698204186575808495616),\n                    uint256(21888242871839275222246405745257275088548364400416034343698204186575808495616),\n                    uint256(21888242871839275222246405745257275088548364400416034343698204186575808495616),\n                    uint256(21888242871839275222246405745257275088548364400416034343698204186575808495616),\n                    uint256(21888242871839275222246405745257275088548364400416034343698204186575808495616),\n                    uint256(21888242871839275222246405745257275088548364400416034343698204186575808495616),\n                    uint256(21888242871839275222246405745257275088548364400416034343698204186575808495616),\n                    uint256(21888242871839275222246405745257275088548364400416034343698204186575808495616),\n                    uint256(21888242871839275222246405745257275088548364400416034343698204186575808495616),\n                    uint256(21888242871839275222246405745257275088548364400416034343698204186575808495616),\n                    uint256(21888242871839275222246405745257275088548364400416034343698204186575808495616),\n                    uint256(21888242871839275222246405745257275088548364400416034343698204186575808495616),\n                    uint256(21888242871839275222246405745257275088548364400416034343698204186575808495616),\n                    uint256(21888242871839275222246405745257275088548364400416034343698204186575808495616),\n                    uint256(21888242871839275222246405745257275088548364400416034343698204186575808495616),\n                    uint256(21888242871839275222246405745257275088548364400416034343698204186575808495616),\n                    uint256(21888242871839275222246405745257275088548364400416034343698204186575808495616),\n                    uint256(21888242871839275222246405745257275088548364400416034343698204186575808495616),\n                    uint256(21888242871839275222246405745257275088548364400416034343698204186575808495616),\n                    uint256(21888242871839275222246405745257275088548364400416034343698204186575808495616),\n                    uint256(21888242871839275222246405745257275088548364400416034343698204186575808495616),\n                    uint256(21888242871839275222246405745257275088548364400416034343698204186575808495616),\n                    uint256(21888242871839275222246405745257275088548364400416034343698204186575808495616),\n                    uint256(21888242871839275222246405745257275088548364400416034343698204186575808495616),\n                    uint256(21888242871839275222246405745257275088548364400416034343698204186575808495616),\n                    uint256(21888242871839275222246405745257275088548364400416034343698204186575808495616),\n                    uint256(21888242871839275222246405745257275088548364400416034343698204186575808495616),\n                    uint256(21888242871839275222246405745257275088548364400416034343698204186575808495616),\n                    uint256(21888242871839275222246405745257275088548364400416034343698204186575808495616),\n                    uint256(21888242871839275222246405745257275088548364400416034343698204186575808495616),\n                    uint256(21888242871839275222246405745257275088548364400416034343698204186575808495616),\n                    uint256(21888242871839275222246405745257275088548364400416034343698204186575808495616),\n                    uint256(21888242871839275222246405745257275088548364400416034343698204186575808495616),\n                    uint256(21888242871839275222246405745257275088548364400416034343698204186575808495616),\n                    uint256(21888242871839275222246405745257275088548364400416034343698204186575808495616),\n                    uint256(21888242871839275222246405745257275088548364400416034343698204186575808495616),\n                    uint256(21888242871839275222246405745257275088548364400416034343698204186575808495616),\n                    uint256(21888242871839275222246405745257275088548364400416034343698204186575808495616),\n                    uint256(21888242871839275222246405745257275088548364400416034343698204186575808495616),\n                    uint256(21888242871839275222246405745257275088548364400416034343698204186575808495616),\n                    uint256(21888242871839275222246405745257275088548364400416034343698204186575808495616),\n                    uint256(21888242871839275222246405745257275088548364400416034343698204186575808495616),\n                    uint256(21888242871839275222246405745257275088548364400416034343698204186575808495616),\n                    uint256(21888242871839275222246405745257275088548364400416034343698204186575808495616),\n                    uint256(21888242871839275222246405745257275088548364400416034343698204186575808495616),\n                    uint256(21888242871839275222246405745257275088548364400416034343698204186575808495616),\n                    uint256(21888242871839275222246405745257275088548364400416034343698204186575808495616),\n                    uint256(21888242871839275222246405745257275088548364400416034343698204186575808495616),\n                    uint256(21888242871839275222246405745257275088548364400416034343698204186575808495616),\n                    uint256(21888242871839275222246405745257275088548364400416034343698204186575808495616),\n                    uint256(21888242871839275222246405745257275088548364400416034343698204186575808495616),\n                    uint256(21888242871839275222246405745257275088548364400416034343698204186575808495616),\n                    uint256(21888242871839275222246405745257275088548364400416034343698204186575808495616),\n                    uint256(21888242871839275222246405745257275088548364400416034343698204186575808495616),\n                    uint256(21888242871839275222246405745257275088548364400416034343698204186575808495616),\n                    uint256(21888242871839275222246405745257275088548364400416034343698204186575808495616),\n                    uint256(21888242871839275222246405745257275088548364400416034343698204186575808495616),\n                    uint256(21888242871839275222246405745257275088548364400416034343698204186575808495616),\n                    uint256(21888242871839275222246405745257275088548364400416034343698204186575808495616),\n                    uint256(21888242871839275222246405745257275088548364400416034343698204186575808495616),\n                    uint256(21888242871839275222246405745257275088548364400416034343698204186575808495616),\n                    uint256(21888242871839275222246405745257275088548364400416034343698204186575808495616),\n                    uint256(21888242871839275222246405745257275088548364400416034343698204186575808495616),\n                    uint256(21888242871839275222246405745257275088548364400416034343698204186575808495616),\n                    uint256(21888242871839275222246405745257275088548364400416034343698204186575808495616),\n                    uint256(21888242871839275222246405745257275088548364400416034343698204186575808495616),\n                    uint256(21888242871839275222246405745257275088548364400416034343698204186575808495616),\n                    uint256(21888242871839275222246405745257275088548364400416034343698204186575808495616),\n                    uint256(21888242871839275222246405745257275088548364400416034343698204186575808495616),\n                    uint256(21888242871839275222246405745257275088548364400416034343698204186575808495616),\n                    uint256(21888242871839275222246405745257275088548364400416034343698204186575808495616),\n                    uint256(21888242871839275222246405745257275088548364400416034343698204186575808495616),\n                    uint256(21888242871839275222246405745257275088548364400416034343698204186575808495616),\n                    uint256(21888242871839275222246405745257275088548364400416034343698204186575808495616),\n                    uint256(21888242871839275222246405745257275088548364400416034343698204186575808495616),\n                    uint256(21888242871839275222246405745257275088548364400416034343698204186575808495616),\n                    uint256(21888242871839275222246405745257275088548364400416034343698204186575808495616),\n                    uint256(21888242871839275222246405745257275088548364400416034343698204186575808495616),\n                    uint256(21888242871839275222246405745257275088548364400416034343698204186575808495616),\n                    uint256(21888242871839275222246405745257275088548364400416034343698204186575808495616),\n                    uint256(21888242871839275222246405745257275088548364400416034343698204186575808495616),\n                    uint256(21888242871839275222246405745257275088548364400416034343698204186575808495616),\n                    uint256(21888242871839275222246405745257275088548364400416034343698204186575808495616),\n                    uint256(21888242871839275222246405745257275088548364400416034343698204186575808495616),\n                    uint256(21888242871839275222246405745257275088548364400416034343698204186575808495616),\n                    uint256(21888242871839275222246405745257275088548364400416034343698204186575808495616),\n                    uint256(21888242871839275222246405745257275088548364400416034343698204186575808495616),\n                    uint256(21888242871839275222246405745257275088548364400416034343698204186575808495616),\n                    uint256(21888242871839275222246405745257275088548364400416034343698204186575808495616),\n                    uint256(21888242871839275222246405745257275088548364400416034343698204186575808495616),\n                    uint256(21888242871839275222246405745257275088548364400416034343698204186575808495616),\n                    uint256(21888242871839275222246405745257275088548364400416034343698204186575808495616),\n                    uint256(21888242871839275222246405745257275088548364400416034343698204186575808495616),\n                    uint256(21888242871839275222246405745257275088548364400416034343698204186575808495616),\n                    uint256(21888242871839275222246405745257275088548364400416034343698204186575808495616),\n                    uint256(21888242871839275222246405745257275088548364400416034343698204186575808495616),\n                    uint256(21888242871839275222246405745257275088548364400416034343698204186575808495616),\n                    uint256(21888242871839275222246405745257275088548364400416034343698204186575808495616),\n                    uint256(21888242871839275222246405745257275088548364400416034343698204186575808495616),\n                    uint256(21888242871839275222246405745257275088548364400416034343698204186575808495616),\n                    uint256(21888242871839275222246405745257275088548364400416034343698204186575808495616),\n                    uint256(21888242871839275222246405745257275088548364400416034343698204186575808495616),\n                    uint256(21888242871839275222246405745257275088548364400416034343698204186575808495616),\n                    uint256(21888242871839275222246405745257275088548364400416034343698204186575808495616),\n                    uint256(21888242871839275222246405745257275088548364400416034343698204186575808495616),\n                    uint256(21888242871839275222246405745257275088548364400416034343698204186575808495616),\n                    uint256(21888242871839275222246405745257275088548364400416034343698204186575808495616),\n                    uint256(21888242871839275222246405745257275088548364400416034343698204186575808495616),\n                    uint256(21888242871839275222246405745257275088548364400416034343698204186575808495616),\n                    uint256(21888242871839275222246405745257275088548364400416034343698204186575808495616),\n                    uint256(21888242871839275222246405745257275088548364400416034343698204186575808495616),\n                    uint256(21888242871839275222246405745257275088548364400416034343698204186575808495616),\n                    uint256(21888242871839275222246405745257275088548364400416034343698204186575808495616),\n                    uint256(21888242871839275222246405745257275088548364400416034343698204186575808495616),\n                    uint256(21888242871839275222246405745257275088548364400416034343698204186575808495616),\n                    uint256(21888242871839275222246405745257275088548364400416034343698204186575808495616),\n                    uint256(21888242871839275222246405745257275088548364400416034343698204186575808495616),\n                    uint256(21888242871839275222246405745257275088548364400416034343698204186575808495616),\n                    uint256(21888242871839275222246405745257275088548364400416034343698204186575808495616),\n                    uint256(21888242871839275222246405745257275088548364400416034343698204186575808495616),\n                    uint256(21888242871839275222246405745257275088548364400416034343698204186575808495616),\n                    uint256(21888242871839275222246405745257275088548364400416034343698204186575808495616),\n                    uint256(21888242871839275222246405745257275088548364400416034343698204186575808495616),\n                    uint256(21888242871839275222246405745257275088548364400416034343698204186575808495616),\n                    uint256(21888242871839275222246405745257275088548364400416034343698204186575808495616),\n                    uint256(21888242871839275222246405745257275088548364400416034343698204186575808495616),\n                    uint256(21888242871839275222246405745257275088548364400416034343698204186575808495616),\n                    uint256(21888242871839275222246405745257275088548364400416034343698204186575808495616),\n                    uint256(21888242871839275222246405745257275088548364400416034343698204186575808495616),\n                    uint256(21888242871839275222246405745257275088548364400416034343698204186575808495616),\n                    uint256(21888242871839275222246405745257275088548364400416034343698204186575808495616),\n                    uint256(21888242871839275222246405745257275088548364400416034343698204186575808495616),\n                    uint256(21888242871839275222246405745257275088548364400416034343698204186575808495616),\n                    uint256(21888242871839275222246405745257275088548364400416034343698204186575808495616),\n                    uint256(21888242871839275222246405745257275088548364400416034343698204186575808495616),\n                    uint256(21888242871839275222246405745257275088548364400416034343698204186575808495616),\n                    uint256(21888242871839275222246405745257275088548364400416034343698204186575808495616),\n                    uint256(21888242871839275222246405745257275088548364400416034343698204186575808495616),\n                    uint256(21888242871839275222246405745257275088548364400416034343698204186575808495616),\n                    uint256(21888242871839275222246405745257275088548364400416034343698204186575808495616),\n                    uint256(21888242871839275222246405745257275088548364400416034343698204186575808495616),\n                    uint256(21888242871839275222246405745257275088548364400416034343698204186575808495616),\n                    uint256(21888242871839275222246405745257275088548364400416034343698204186575808495616),\n                    uint256(21888242871839275222246405745257275088548364400416034343698204186575808495616),\n                    uint256(21888242871839275222246405745257275088548364400416034343698204186575808495616),\n                    uint256(21888242871839275222246405745257275088548364400416034343698204186575808495616),\n                    uint256(21888242871839275222246405745257275088548364400416034343698204186575808495616),\n                    uint256(21888242871839275222246405745257275088548364400416034343698204186575808495616),\n                    uint256(21888242871839275222246405745257275088548364400416034343698204186575808495616),\n                    uint256(21888242871839275222246405745257275088548364400416034343698204186575808495616),\n                    uint256(21888242871839275222246405745257275088548364400416034343698204186575808495616),\n                    uint256(21888242871839275222246405745257275088548364400416034343698204186575808495616),\n                    uint256(21888242871839275222246405745257275088548364400416034343698204186575808495616),\n                    uint256(21888242871839275222246405745257275088548364400416034343698204186575808495616),\n                    uint256(21888242871839275222246405745257275088548364400416034343698204186575808495616),\n                    uint256(21888242871839275222246405745257275088548364400416034343698204186575808495616),\n                    uint256(21888242871839275222246405745257275088548364400416034343698204186575808495616),\n                    uint256(21888242871839275222246405745257275088548364400416034343698204186575808495616),\n                    uint256(21888242871839275222246405745257275088548364400416034343698204186575808495616),\n                    uint256(21888242871839275222246405745257275088548364400416034343698204186575808495616),\n                    uint256(21888242871839275222246405745257275088548364400416034343698204186575808495616),\n                    uint256(21888242871839275222246405745257275088548364400416034343698204186575808495616),\n                    uint256(21888242871839275222246405745257275088548364400416034343698204186575808495616),\n                    uint256(21888242871839275222246405745257275088548364400416034343698204186575808495616),\n                    uint256(21888242871839275222246405745257275088548364400416034343698204186575808495616),\n                    uint256(21888242871839275222246405745257275088548364400416034343698204186575808495616),\n                    uint256(21888242871839275222246405745257275088548364400416034343698204186575808495616),\n                    uint256(21888242871839275222246405745257275088548364400416034343698204186575808495616),\n                    uint256(21888242871839275222246405745257275088548364400416034343698204186575808495616),\n                    uint256(21888242871839275222246405745257275088548364400416034343698204186575808495616),\n                    uint256(21888242871839275222246405745257275088548364400416034343698204186575808495616),\n                    uint256(21888242871839275222246405745257275088548364400416034343698204186575808495616),\n                    uint256(21888242871839275222246405745257275088548364400416034343698204186575808495616),\n                    uint256(21888242871839275222246405745257275088548364400416034343698204186575808495616),\n                    uint256(21888242871839275222246405745257275088548364400416034343698204186575808495616),\n                    uint256(21888242871839275222246405745257275088548364400416034343698204186575808495616),\n                    uint256(21888242871839275222246405745257275088548364400416034343698204186575808495616),\n                    uint256(21888242871839275222246405745257275088548364400416034343698204186575808495616),\n                    uint256(21888242871839275222246405745257275088548364400416034343698204186575808495616),\n                    uint256(21888242871839275222246405745257275088548364400416034343698204186575808495616),\n                    uint256(21888242871839275222246405745257275088548364400416034343698204186575808495616),\n                    uint256(21888242871839275222246405745257275088548364400416034343698204186575808495616),\n                    uint256(21888242871839275222246405745257275088548364400416034343698204186575808495616),\n                    uint256(21888242871839275222246405745257275088548364400416034343698204186575808495616),\n                    uint256(21888242871839275222246405745257275088548364400416034343698204186575808495616),\n                    uint256(21888242871839275222246405745257275088548364400416034343698204186575808495616),\n                    uint256(21888242871839275222246405745257275088548364400416034343698204186575808495616),\n                    uint256(0),\n                    uint256(0),\n                    uint256(21888242871839275222246405745257275088548364400416034343698204186575808495616),\n                    uint256(1),\n                    uint256(21888242871839275222246405745257275088548364400416034343698204186575808495616),\n                    uint256(1),\n                    uint256(21888242871839275222246405745257275088548364400416034343698204186575808495616),\n                    uint256(100),\n                    uint256(21888242871839275222246405745257275088548364400416034343698204186575808495517),\n                    uint256(100),\n                    uint256(21888242871839275222246405745257275088548364400416034343698204186575808495517),\n                    uint256(21888242871839275222246405745257275088548364400416034343698204186575808495616),\n                    uint256(21888242871839275222246405745257275088548364400416034343698204186575808495616),\n                    uint256(100),\n                    uint256(21888242871839275222246405745257275088548364400416034343698204186575808495517),\n                    uint256(21888242871839275222246405745257275088548364400416034343698204186575808495616),\n                    uint256(100),\n                    uint256(21888242871839275222246405745257275088548364400416034343698204186575808495517),\n                    uint256(21888242871839275222246405745257275088548364400416034343698204186575808495616),\n                    uint256(1),\n                    uint256(21888242871839275222246405745257275088548364400416034343698204186575808495616),\n                    uint256(1),\n                    uint256(1),\n                    uint256(1),\n                    uint256(21888242871839275222246405745257275088548364400416034343698204186575808495616),\n                    uint256(1),\n                    uint256(21888242871839275222246405745257275088548364400416034343698204186575808495616),\n                    uint256(1),\n                    uint256(21888242871839275222246405745257275088548364400416034343698204186575808495616),\n                    uint256(1),\n                    uint256(21888242871839275222246405745257275088548364400416034343698204186575808495616),\n                    uint256(1),\n                    uint256(1),\n                    uint256(1),\n                    uint256(1),\n                    uint256(1),\n                    uint256(1),\n                    uint256(1),\n                    uint256(1),\n                    uint256(1),\n                    uint256(1),\n                    uint256(1),\n                    uint256(1),\n                    uint256(1),\n                    uint256(1),\n                    uint256(1),\n                    uint256(1),\n                    uint256(1),\n                    uint256(1),\n                    uint256(1),\n                    uint256(1),\n                    uint256(1),\n                    uint256(1),\n                    uint256(1),\n                    uint256(1),\n                    uint256(1),\n                    uint256(1),\n                    uint256(1),\n                    uint256(1),\n                    uint256(1),\n                    uint256(1),\n                    uint256(1),\n                    uint256(1),\n                    uint256(1),\n                    uint256(1),\n                    uint256(2),\n                    uint256(4),\n                    uint256(8),\n                    uint256(16),\n                    uint256(32),\n                    uint256(64),\n                    uint256(256),\n                    uint256(128),\n                    uint256(1024),\n                    uint256(2048),\n                    uint256(4096),\n                    uint256(8192),\n                    uint256(16384),\n                    uint256(32768),\n                    uint256(21888242871839275222246405745257275088548364400416034343698204186575808495616),\n                    uint256(512),\n                    uint256(64),\n                    uint256(1),\n                    uint256(2),\n                    uint256(4),\n                    uint256(8),\n                    uint256(16),\n                    uint256(32),\n                    uint256(128),\n                    uint256(8192),\n                    uint256(512),\n                    uint256(1024),\n                    uint256(2048),\n                    uint256(4096),\n                    uint256(256),\n                    uint256(16384),\n                    uint256(32768),\n                    uint256(21888242871839275222246405745257275088548364400416034343698204186575808495616),\n                    uint256(1),\n                    uint256(1),\n                    uint256(1),\n                    uint256(1),\n                    uint256(1),\n                    uint256(1),\n                    uint256(1),\n                    uint256(1),\n                    uint256(1),\n                    uint256(1),\n                    uint256(1),\n                    uint256(1),\n                    uint256(1),\n                    uint256(1),\n                    uint256(1),\n                    uint256(1),\n                    uint256(21888242871839275222246405745257275088548364400416034343698204186575808495616),\n                    uint256(1),\n                    uint256(2),\n                    uint256(4),\n                    uint256(8),\n                    uint256(16),\n                    uint256(32),\n                    uint256(64),\n                    uint256(512),\n                    uint256(256),\n                    uint256(128),\n                    uint256(1024),\n                    uint256(2048),\n                    uint256(4096),\n                    uint256(8192),\n                    uint256(16384),\n                    uint256(32768),\n                    uint256(1),\n                    uint256(21888242871839275222246405745257275088548364400416034343698204186575808495616),\n                    uint256(1),\n                    uint256(21888242871839275222246405745257275088548364400416034343698204186575808495616),\n                    uint256(1),\n                    uint256(1),\n                    uint256(1),\n                    uint256(1),\n                    uint256(1),\n                    uint256(1),\n                    uint256(1),\n                    uint256(1),\n                    uint256(1),\n                    uint256(1),\n                    uint256(1),\n                    uint256(1),\n                    uint256(1),\n                    uint256(1),\n                    uint256(1),\n                    uint256(1),\n                    uint256(1),\n                    uint256(1),\n                    uint256(1),\n                    uint256(1),\n                    uint256(1),\n                    uint256(1),\n                    uint256(1),\n                    uint256(1),\n                    uint256(1),\n                    uint256(1),\n                    uint256(1),\n                    uint256(1),\n                    uint256(1),\n                    uint256(1),\n                    uint256(1),\n                    uint256(1),\n                    uint256(1),\n                    uint256(1),\n                    uint256(1),\n                    uint256(1),\n                    uint256(1),\n                    uint256(1),\n                    uint256(1),\n                    uint256(1),\n                    uint256(1),\n                    uint256(1),\n                    uint256(1),\n                    uint256(1),\n                    uint256(1),\n                    uint256(1),\n                    uint256(1),\n                    uint256(1),\n                    uint256(1),\n                    uint256(1),\n                    uint256(1),\n                    uint256(1),\n                    uint256(1),\n                    uint256(1),\n                    uint256(1),\n                    uint256(1),\n                    uint256(1),\n                    uint256(1),\n                    uint256(1),\n                    uint256(1),\n                    uint256(1),\n                    uint256(1),\n                    uint256(1),\n                    uint256(1),\n                    uint256(1),\n                    uint256(1),\n                    uint256(1),\n                    uint256(1),\n                    uint256(1),\n                    uint256(1),\n                    uint256(1),\n                    uint256(1),\n                    uint256(1),\n                    uint256(1),\n                    uint256(1),\n                    uint256(1),\n                    uint256(1),\n                    uint256(1),\n                    uint256(1),\n                    uint256(1),\n                    uint256(1),\n                    uint256(1),\n                    uint256(1),\n                    uint256(1),\n                    uint256(1),\n                    uint256(1),\n                    uint256(1),\n                    uint256(1),\n                    uint256(1),\n                    uint256(1),\n                    uint256(1),\n                    uint256(1),\n                    uint256(1),\n                    uint256(1),\n                    uint256(1),\n                    uint256(1),\n                    uint256(1),\n                    uint256(1),\n                    uint256(1),\n                    uint256(1),\n                    uint256(1),\n                    uint256(1),\n                    uint256(1),\n                    uint256(1),\n                    uint256(1),\n                    uint256(1),\n                    uint256(1),\n                    uint256(1),\n                    uint256(1),\n                    uint256(1),\n                    uint256(1),\n                    uint256(1),\n                    uint256(1),\n                    uint256(1),\n                    uint256(1),\n                    uint256(1),\n                    uint256(1),\n                    uint256(1),\n                    uint256(1),\n                    uint256(1),\n                    uint256(1),\n                    uint256(1),\n                    uint256(1),\n                    uint256(1),\n                    uint256(1),\n                    uint256(1),\n                    uint256(1),\n                    uint256(1),\n                    uint256(1),\n                    uint256(1),\n                    uint256(1),\n                    uint256(1),\n                    uint256(1),\n                    uint256(1),\n                    uint256(1),\n                    uint256(1),\n                    uint256(1),\n                    uint256(1),\n                    uint256(1),\n                    uint256(1),\n                    uint256(1),\n                    uint256(1),\n                    uint256(1),\n                    uint256(1),\n                    uint256(1),\n                    uint256(1),\n                    uint256(1),\n                    uint256(1),\n                    uint256(1),\n                    uint256(1),\n                    uint256(1),\n                    uint256(1),\n                    uint256(1),\n                    uint256(1),\n                    uint256(1),\n                    uint256(1),\n                    uint256(1),\n                    uint256(1),\n                    uint256(1),\n                    uint256(1),\n                    uint256(1),\n                    uint256(1),\n                    uint256(1),\n                    uint256(1),\n                    uint256(1),\n                    uint256(1),\n                    uint256(1),\n                    uint256(1),\n                    uint256(1),\n                    uint256(1),\n                    uint256(1),\n                    uint256(1),\n                    uint256(1),\n                    uint256(1),\n                    uint256(1),\n                    uint256(1),\n                    uint256(1),\n                    uint256(1),\n                    uint256(1),\n                    uint256(1),\n                    uint256(1),\n                    uint256(2),\n                    uint256(4),\n                    uint256(8),\n                    uint256(16),\n                    uint256(32),\n                    uint256(64),\n                    uint256(256),\n                    uint256(128),\n                    uint256(1024),\n                    uint256(2048),\n                    uint256(4096),\n                    uint256(8192),\n                    uint256(16384),\n                    uint256(32768),\n                    uint256(21888242871839275222246405745257275088548364400416034343698204186575808495616),\n                    uint256(512),\n                    uint256(64),\n                    uint256(2),\n                    uint256(1),\n                    uint256(4),\n                    uint256(8),\n                    uint256(16),\n                    uint256(32),\n                    uint256(128),\n                    uint256(32768),\n                    uint256(512),\n                    uint256(1024),\n                    uint256(2048),\n                    uint256(4096),\n                    uint256(8192),\n                    uint256(16384),\n                    uint256(21888242871839275222246405745257275088548364400416034343698204186575808495616),\n                    uint256(256),\n                    uint256(2),\n                    uint256(4),\n                    uint256(8),\n                    uint256(16),\n                    uint256(32),\n                    uint256(64),\n                    uint256(128),\n                    uint256(256),\n                    uint256(1),\n                    uint256(1024),\n                    uint256(2048),\n                    uint256(4096),\n                    uint256(8192),\n                    uint256(16384),\n                    uint256(32768),\n                    uint256(21888242871839275222246405745257275088548364400416034343698204186575808495616),\n                    uint256(512),\n                    uint256(1),\n                    uint256(2),\n                    uint256(4),\n                    uint256(8),\n                    uint256(16),\n                    uint256(32),\n                    uint256(64),\n                    uint256(128),\n                    uint256(256),\n                    uint256(1024),\n                    uint256(2048),\n                    uint256(4096),\n                    uint256(8192),\n                    uint256(16384),\n                    uint256(32768),\n                    uint256(21888242871839275222246405745257275088548364400416034343698204186575808495616),\n                    uint256(512),\n                    uint256(128),\n                    uint256(2),\n                    uint256(4),\n                    uint256(8),\n                    uint256(16),\n                    uint256(32),\n                    uint256(64),\n                    uint256(256),\n                    uint256(1),\n                    uint256(1024),\n                    uint256(21888242871839275222246405745257275088548364400416034343698204186575808495616),\n                    uint256(32768),\n                    uint256(16384),\n                    uint256(512),\n                    uint256(4096),\n                    uint256(2048),\n                    uint256(8192),\n                    uint256(1),\n                    uint256(2),\n                    uint256(4),\n                    uint256(8),\n                    uint256(16),\n                    uint256(32),\n                    uint256(128),\n                    uint256(64),\n                    uint256(256),\n                    uint256(1024),\n                    uint256(2048),\n                    uint256(4096),\n                    uint256(8192),\n                    uint256(16384),\n                    uint256(32768),\n                    uint256(21888242871839275222246405745257275088548364400416034343698204186575808495616),\n                    uint256(512),\n                    uint256(64),\n                    uint256(32),\n                    uint256(16),\n                    uint256(128),\n                    uint256(4),\n                    uint256(2),\n                    uint256(8),\n                    uint256(1),\n                    uint256(256),\n                    uint256(1024),\n                    uint256(2048),\n                    uint256(4096),\n                    uint256(8192),\n                    uint256(16384),\n                    uint256(32768),\n                    uint256(21888242871839275222246405745257275088548364400416034343698204186575808495616),\n                    uint256(512),\n                    uint256(1),\n                    uint256(2),\n                    uint256(4),\n                    uint256(8),\n                    uint256(16),\n                    uint256(32),\n                    uint256(64),\n                    uint256(128),\n                    uint256(256),\n                    uint256(1024),\n                    uint256(2048),\n                    uint256(4096),\n                    uint256(8192),\n                    uint256(16384),\n                    uint256(32768),\n                    uint256(21888242871839275222246405745257275088548364400416034343698204186575808495616),\n                    uint256(512),\n                    uint256(1),\n                    uint256(1),\n                    uint256(1),\n                    uint256(1),\n                    uint256(1),\n                    uint256(1),\n                    uint256(1),\n                    uint256(1),\n                    uint256(1),\n                    uint256(1),\n                    uint256(1),\n                    uint256(1),\n                    uint256(1),\n                    uint256(1),\n                    uint256(1),\n                    uint256(1),\n                    uint256(1),\n                    uint256(1),\n                    uint256(1),\n                    uint256(1),\n                    uint256(1),\n                    uint256(1),\n                    uint256(1),\n                    uint256(1),\n                    uint256(1),\n                    uint256(1),\n                    uint256(1),\n                    uint256(1),\n                    uint256(1),\n                    uint256(1),\n                    uint256(1),\n                    uint256(1),\n                    uint256(1),\n                    uint256(1),\n                    uint256(1),\n                    uint256(1),\n                    uint256(1),\n                    uint256(1),\n                    uint256(1),\n                    uint256(1),\n                    uint256(1),\n                    uint256(1),\n                    uint256(1),\n                    uint256(1),\n                    uint256(1),\n                    uint256(1),\n                    uint256(1),\n                    uint256(1),\n                    uint256(1),\n                    uint256(1),\n                    uint256(1),\n                    uint256(1),\n                    uint256(1),\n                    uint256(1),\n                    uint256(1),\n                    uint256(1),\n                    uint256(1),\n                    uint256(1),\n                    uint256(1),\n                    uint256(1),\n                    uint256(1),\n                    uint256(1),\n                    uint256(1),\n                    uint256(1),\n                    uint256(1),\n                    uint256(1),\n                    uint256(1),\n                    uint256(1),\n                    uint256(1),\n                    uint256(1),\n                    uint256(1),\n                    uint256(1),\n                    uint256(1),\n                    uint256(1),\n                    uint256(1),\n                    uint256(1),\n                    uint256(1),\n                    uint256(1),\n                    uint256(1),\n                    uint256(1),\n                    uint256(1),\n                    uint256(1),\n                    uint256(1),\n                    uint256(1),\n                    uint256(1),\n                    uint256(1),\n                    uint256(1),\n                    uint256(1),\n                    uint256(1),\n                    uint256(1),\n                    uint256(1),\n                    uint256(1),\n                    uint256(1),\n                    uint256(1),\n                    uint256(1),\n                    uint256(1),\n                    uint256(1),\n                    uint256(1),\n                    uint256(1),\n                    uint256(1),\n                    uint256(1),\n                    uint256(1),\n                    uint256(1),\n                    uint256(1),\n                    uint256(1),\n                    uint256(1),\n                    uint256(1),\n                    uint256(1),\n                    uint256(1),\n                    uint256(1),\n                    uint256(1),\n                    uint256(1),\n                    uint256(1),\n                    uint256(1),\n                    uint256(1),\n                    uint256(1),\n                    uint256(1),\n                    uint256(1),\n                    uint256(1),\n                    uint256(1),\n                    uint256(1),\n                    uint256(1),\n                    uint256(1),\n                    uint256(1),\n                    uint256(1),\n                    uint256(1),\n                    uint256(1)\n        ];\n}",
  "sourcePath": "/Users/mac/Desktop/codings/ethereum/sonic/src/verifier/contracts/PolyCoeff.sol",
  "compiler": {
    "name": "solc",
    "version": "0.8.13+commit.abaa5c0e.Emscripten.clang"
  },
  "schemaVersion": "3.4.7",
  "updatedAt": "2022-10-20T07:42:04.790Z",
  "devdoc": {
    "kind": "dev",
    "methods": {},
    "version": 1
  },
  "userdoc": {
    "kind": "user",
    "methods": {},
    "version": 1
  }
}