{
  "contractName": "Signature",
  "abi": [
    {
      "inputs": [],
      "name": "verifySignature",
      "outputs": [
        {
          "internalType": "bool",
          "name": "result",
          "type": "bool"
        },
        {
          "internalType": "uint256",
          "name": "u1",
          "type": "uint256"
        },
        {
          "internalType": "uint256",
          "name": "u2",
          "type": "uint256"
        }
      ],
      "stateMutability": "pure",
      "type": "function",
      "constant": true
    }
  ],
  "bytecode": "0x61020b610053600b82828239805160001a607314610046577f4e487b7100000000000000000000000000000000000000000000000000000000600052600060045260246000fd5b30600052607381538281f3fe73000000000000000000000000000000000000000030146080604052600436106100355760003560e01c806358cd25131461003a575b600080fd5b61004261005a565b6040516100519392919061016f565b60405180910390f35b6000806000807f6aff44ff6f44b2643277754d766a65caf3a2bea321116d7413c42aa42809fe49905060007f2b9e5ab32d9a1a276734b9bb9938efe2d468491bed9dbc47bd1c91c28693907e90507ffffffffffffffffffffffffffffffffebaaedce6af48a03bbfd25e8cd0364141806100d7576100d66101a6565b5b817f329336d6e1465b7a7628c7dc5cf963ea50e73f5652952b86a44fec6f9ea380510993507ffffffffffffffffffffffffffffffffebaaedce6af48a03bbfd25e8cd03641418061012b5761012a6101a6565b5b8183099250600194505050909192565b60008115159050919050565b6101508161013b565b82525050565b6000819050919050565b61016981610156565b82525050565b60006060820190506101846000830186610147565b6101916020830185610160565b61019e6040830184610160565b949350505050565b7f4e487b7100000000000000000000000000000000000000000000000000000000600052601260045260246000fdfea2646970667358221220f34757cd92846f6c64c88037166b6cec8935ea9845b40f3b543659b2dee0f63764736f6c634300080d0033",
  "immutableReferences": {},
  "source": "// SPDX-License-Identifier: MIT\npragma solidity >=0.4.22 <0.9.0;\nimport \"./EllipticCurve.sol\";\n\nlibrary Signature {\n    uint256 constant GX = 0x79BE667EF9DCBBAC55A06295CE870B07029BFCDB2DCE28D959F2815B16F81798;\n    uint256 constant GY = 0x483ADA7726A3C4655DA4FBFC0E1108A8FD17B448A68554199C47D08FFB10D4B8;\n    uint256 constant AA = 0;\n    uint256 constant BB = 7;\n    uint256 constant PP = 0xFFFFFFFFFFFFFFFFFFFFFFFFFFFFFFFFFFFFFFFFFFFFFFFFFFFFFFFEFFFFFC2F;\n    \n    uint256 constant Sig_N = uint256(0xFFFFFFFFFFFFFFFFFFFFFFFFFFFFFFFEBAAEDCE6AF48A03BBFD25E8CD0364141);\n    uint256 constant k = uint256(0x329336d6e1465b7a7628c7dc5cf963ea50e73f5652952b86a44fec6f9ea38051);\n    uint256 constant GenPoint1 = uint256(0x79be667ef9dcbbac55a06295ce870b07029bfcdb2dce28d959f2815b16f81798);\n    uint256 constant GenPoint2 = uint256(0x483ada7726a3c4655da4fbfc0e1108a8fd17b448a68554199c47d08ffb10d4b8);\n\n    uint256 constant VK1 = uint256(0x79be667ef9dcbbac55a06295ce870b07029bfcdb2dce28d959f2815b16f81798);\n    uint256 constant VK2 = uint256(0x483ada7726a3c4655da4fbfc0e1108a8fd17b448a68554199c47d08ffb10d4b8);\n\n    function verifySignature() public pure returns (bool result, uint256 u1, uint256 u2) {\n        uint256 r = uint256(48396184156600631669970593167846023698693942389456547435405490714133440101961);\n        uint256 s = uint256(19729240313119551073101153267323619572933040150415896064375412524185250140286);\n\n        u1 = mulmod(k, s, Sig_N);\n        u2 = mulmod(r, s, Sig_N);\n        // ( , XY2) = EllipticCurve.ecMul(u1, GenPoint1, GenPoint2, AA, PP); \n        // ( , XY4) = EllipticCurve.ecMul(u2, VK1, VK2, AA, PP); \n        result = true;\n        // return true;\n        // return (r == (XY2 + XY4) % Sig_N, XY2, XY4);\n    }\n}",
  "sourcePath": "/Users/mac/Desktop/codings/ethereum/sonic/src/verifier/contracts/Signature.sol",
  "compiler": {
    "name": "solc",
    "version": "0.8.13+commit.abaa5c0e.Emscripten.clang"
  },
  "schemaVersion": "3.4.7",
  "updatedAt": "2022-10-17T13:52:48.793Z",
  "networkType": "ethereum",
  "devdoc": {
    "kind": "dev",
    "methods": {},
    "version": 1
  },
  "userdoc": {
    "kind": "user",
    "methods": {},
    "version": 1
  }
}