{
  "contractName": "Verifier",
  "abi": [
    {
      "anonymous": false,
      "inputs": [
        {
          "indexed": false,
          "internalType": "bool",
          "name": "result",
          "type": "bool"
        }
      ],
      "name": "verifyResult",
      "type": "event"
    },
    {
      "inputs": [
        {
          "components": [
            {
              "internalType": "uint256",
              "name": "X",
              "type": "uint256"
            },
            {
              "internalType": "uint256",
              "name": "Y",
              "type": "uint256"
            }
          ],
          "internalType": "struct Pairing.G1Point",
          "name": "_commitment",
          "type": "tuple"
        },
        {
          "components": [
            {
              "internalType": "uint256",
              "name": "X",
              "type": "uint256"
            },
            {
              "internalType": "uint256",
              "name": "Y",
              "type": "uint256"
            }
          ],
          "internalType": "struct Pairing.G1Point",
          "name": "_proof",
          "type": "tuple"
        },
        {
          "internalType": "uint256",
          "name": "_index",
          "type": "uint256"
        },
        {
          "internalType": "uint256",
          "name": "_value",
          "type": "uint256"
        },
        {
          "internalType": "uint256",
          "name": "proofIndex",
          "type": "uint256"
        },
        {
          "internalType": "bool",
          "name": "isT",
          "type": "bool"
        }
      ],
      "name": "verify",
      "outputs": [
        {
          "internalType": "bool",
          "name": "",
          "type": "bool"
        }
      ],
      "stateMutability": "view",
      "type": "function",
      "constant": true
    },
    {
      "inputs": [],
      "name": "verifySonic",
      "outputs": [
        {
          "internalType": "bool",
          "name": "",
          "type": "bool"
        }
      ],
      "stateMutability": "nonpayable",
      "type": "function"
    },
    {
      "inputs": [],
      "name": "verifySOCC",
      "outputs": [
        {
          "internalType": "bool",
          "name": "",
          "type": "bool"
        }
      ],
      "stateMutability": "nonpayable",
      "type": "function"
    }
  ],
  "bytecode": "0x60806040526040518060c001604052807f1a597e49c263d6a226f25fe1e806caac7f15f85b763044e7d3043ba5992dd8d581526020017f228b515a17f28b89920873207477f8c7fc05582debaf3184febf1cfdedc5ce8881526020017f174f58212aaf2066b9f2c4d48d00bb7a4db526d159263eb383fc4ee75ee3c8b981526020017f18e9db03472e0863ddf2838cf8880b11083593229561aaf9a11c760bb97a64fa81526020017f0566eed2b6bb584ca75fbe0ca9ffc98eb586c25812617df7e01a2b6d8270f0bf81526020017f2439b9152d339bfc8231e510490cc818398899979e14eb5c2488eb1548acd8ce81525060009060066200010392919062000cf8565b506040518060c001604052807f208f992ecbeeef3fa5b1c3505c588c7a872e3987797a14052b6f34411c9ea0ae81526020017f12bb1156a9f6b360fcb2614e15d8a3ff07f2c699dc69ca830b20d2df91fe9cd381526020017f184fbc3584ffa73e241b0c3c54e9f8d024ec5327b2540f7999c386aebd2662cf81526020017f15904dc85f8ddf338fe3151d3c146b4083e99dd3f26d87d33dd5d20eb64284a381526020017f20101834550a7d15aa7a685d3f0095b689822cb568dfc9690e0cc58e9826d8fb81526020017f17aeb906de035900f3fa2e5d932bb9951cfb27cfca5d8d7063f27b90673ed18b81525060019060066200020392919062000cf8565b506040518060c001604052807f024248dcf25ea502fb805bcab808906eb944154792151d643ad7b4b0eca6d91381526020017f2b15dc62a5c9e36597914ddbbfde48806a8eabe45c8d3cccf9578ad08e058f9281526020017f1a0e34169445e3d2ae1fcaf3b72d51a23e79341f444c7b3a66ba6d0f5af7e8dd81526020017f20ab132d3e7dd0600d89b397a3bf88e3900434c826b458028981278a619d809481526020017f0a66c012d8ebf11c9a9fc4ccfeeab0ace62b1c1fa744f6c6173f1994e9241db781526020017f213265606feefab60d7cd5cc78ca2d908391d91f88975253e54ab84c415fbdd881525060029060066200030392919062000cf8565b506040518060c001604052807f14c35af32416c899af0b827ef0f1a686393d629317706d8c143cdfd5717c4c5e81526020017f02a4fd764f52470e2fcfff325fb9692f55d6b8b077eefeaa04e07152b4d1fa9481526020017f026de9f4399828462d5261af72470ff42a5019b2bdcab1e8a785cf5316ce7be081526020017f28505103380e230ea76fa52dc17b1269cfa9076761a1bb971c5b90767de58db081526020017f19ea09d089c848b2dee00082395883e0b405de1da65d4b4aeebd50c84e47349d81526020017f1347d25e195829c45d507f3925c8424581657036a67eebc4bf2e5a8fe22102e781525060039060066200040392919062000cf8565b50604051806040016040528060405180604001604052807f198e9393920d483a7260bfb731fb5d25f1aa493335a9e71297e485b7aef312c281526020017f1800deef121f1e76426a00665e5c4479674322d4f75edadd46debd5cd992f6ed815250815260200160405180604001604052807f090689d0585ff075ec9e99ad690c3395bc4b313370b38ef355acdadcd122975b81526020017f12c85ea5db8c6deb4aab71808dcb408fe3d1e7690c43d37b4ce6cc0166fa7daa8152508152506004600082015181600001906002620004dc92919062000d4a565b50602082015181600201906002620004f692919062000d4a565b505050604051806102a001604052807f055fbf2386587bcba6d0faab0dad36a7dd07be3b007bdc0e66e702dfdb0e3b1381526020017f141ff086ffab95b9b990effc3345bf7a853da5e77ac2dc755ad6025b1908926d81526020017e82bfe34b0586786efd348072322572416185349c7d5802a120f80c5179865181526020017f2161c4895d5aaaa8c8739ebcd779af2b91ed317ea95472be9c8e7730db31ac9d81526020017f168c364666e72ad25c373c29401ec8c28f3f54ba4dcf10cf27015479f34db6ed81526020017f2e1b7e13b6780e313af73f78ddd517964b42c59d2bf86bd777b0e00c3337ceb681526020017f0e9acfe25b8ad44cc77ec8d5fc4daed1aa4dc168cf43eba560926e008a1fac0a81526020017f28d6fdfe29141fc626189b707815845209b7f662eb9293efd3a14691d642b31881526020017f0dc0d7365b1cdaae9016602037e81117647afa32b97434fb1067fd1a1e2d763581526020017f1297ffdfa747d7a1640e8771562e276c5e97c5d805da94adf7ff4fbd7d452e1b81526020017f0406159e9e98834f8232ca58c658423d39dbd96d51b8e637ec090519988d553e81526020017f057c35f25c1bf72e930f9e54370bb7f6cd9e6d56492257b65c18760d5a37c81381526020017f1be374b96508ed19f6d4f911982829a52722a52c2b8d554075c18e0eff23e61a81526020017f0d63a54d3a334a8343471c5cf392bbc8c8be467520e29acd1e5e61883dfdea8081526020017f032e4e4e6020e063ad558c79f5364f3c2a30811aded15ab066301ca2f73f5bb481526020017f046629faaa2001037742e97ab6f3d243c38fb8a9f4fbeb86306aaa8df596cfbc81526020017f0a88da10e4d3716a3274e6c20c208ccb6ee9428714d1468bf8362df48871785181526020017f084e44aaeedcb2a70e11db0fdc88e6895d954d3475b68925403f7e003cc4c65d81526020017f2931848bdef48aa22f85d8476d26586a6cd3b5bed0daef47d5ec60399218f93981526020017f072ff2971a937fb30f86729cc3de7bcd69a46b89b1bc96c342758ffbf947a2a881526020017f282bad330084d9dcb8214a53e0c0e0de5015193cbf5d008f84d9e120524af52f81525060089060156200083292919062000d8f565b5060405180604001604052807f2ddf44044e6a0240f9fb9c9437919fa130c6a162e2038d855712f8c93a14cb4a81526020017f264cd382cfe0728d0575932e9ef9ad4414bebb33d03edc941c2a4384ba77a551815250601d9060026200089a92919062000d4a565b507f0d80fb041e10d6105db2f8344b76697d46cc29967b4673538b66dbeff248e69a601f556008601460158110620008d757620008d662000ec9565b5b01546020556040518060a001604052807f126e5b58583c183152d0993a995795f0035b475019454db6a260795ae452143881526020017f263a4d5b91a99e654a987555a388a7e62080fb60a60b857e553504fff30a2a5881526020017f282bad330084d9dcb8214a53e0c0e0de5015193cbf5d008f84d9e120524af52f81526020017f0509913b0d3e78d045bebf1773167bbc0b512f9190a6c4056c0d66a805e070ea81526020017f0559c28091a69651933dbafad4fe9620381d465e8464ce5bd72a2b3401fc5cef8152506021906005620009b592919062000dd4565b506040518060a001604052807f133d583c482a1f5135b0ca2d950a407aac80ea3a605aa64a38b311b41d678a6e81526020017f27a1f5cc9f84619dc75babd5ed58da19b9a5002c746805638bcf5e8d97c6ae6d81526020017f15e065011db7a4182816a04dc4e5b02a06be80a7190f73592fa0f206a36b5f5781526020017f0af002a3deec7e836997504512e9304184a109de807adabf4d2615f8666307ee81526020017f27375236292660e5f42bdd3b9d04008d1aa84a913e570c6b895f9f3287e320a3815250602690600562000a8f92919062000dd4565b5060405180604001604052807f1c142611ecf4017bb3d085367b850ba82990d4c1d1439af4acf3bba4ef585c5881526020017f19862e582dbf525431dadf734d473e9bc8428baa901d3051336007e5ec90a71e815250602b6000820151816000015560208201518160010155505060405180604001604052807f14df7e4cbe13d51c5b009925f631a725d0d8abd7cb5b2867305f42f5e2e72bb381526020017f0cfa1927d3854d3e77d546801b4239708c3680eaa94cb816da5e6d0debc009da815250602d600082015181600001556020820151816001015550507f2d4b6b0329dca365a9c9fc6090d3a1633f421fc8290bf0b19c9994c0e0e419eb602f557f2c732899b8e75ae1a010463366048a62f2bb0466d43af5466a41f2795a3c44a16030557f091b51fc9d3a461739b5d3f09dbfe92e41b6d6174df2c149d078f0aebb3666c160315562000c006040518060c00160405280609a81526020016200338c609a913962000c9e60201b60201c565b6032556040518060800160405280604181526020016200334b604191396033908051906020019062000c3492919062000e19565b5073a2f2f34cc9d9646a57ec5b95761a367abdd73d2a603460006101000a81548173ffffffffffffffffffffffffffffffffffffffff021916908373ffffffffffffffffffffffffffffffffffffffff16021790555034801562000c9757600080fd5b50620010a1565b60008160405160200162000cb3919062000f7b565b6040516020818303038152906040528051906020012060405160200162000cdb919062001013565b604051602081830303815290604052805190602001209050919050565b82805482825590600052602060002090810192821562000d37579160200282015b8281111562000d3657825182559160200191906001019062000d19565b5b50905062000d46919062000eaa565b5090565b826002810192821562000d7c579160200282015b8281111562000d7b57825182559160200191906001019062000d5e565b5b50905062000d8b919062000eaa565b5090565b826015810192821562000dc1579160200282015b8281111562000dc057825182559160200191906001019062000da3565b5b50905062000dd0919062000eaa565b5090565b826005810192821562000e06579160200282015b8281111562000e0557825182559160200191906001019062000de8565b5b50905062000e15919062000eaa565b5090565b82805462000e27906200106c565b90600052602060002090601f01602090048101928262000e4b576000855562000e97565b82601f1062000e6657805160ff191683800117855562000e97565b8280016001018555821562000e97579182015b8281111562000e9657825182559160200191906001019062000e79565b5b50905062000ea6919062000eaa565b5090565b5b8082111562000ec557600081600090555060010162000eab565b5090565b7f4e487b7100000000000000000000000000000000000000000000000000000000600052603260045260246000fd5b600081519050919050565b600081905092915050565b60005b8381101562000f2e57808201518184015260208101905062000f11565b8381111562000f3e576000848401525b50505050565b600062000f518262000ef8565b62000f5d818562000f03565b935062000f6f81856020860162000f0e565b80840191505092915050565b600062000f89828462000f44565b915081905092915050565b7f19457468657265756d205369676e6564204d6573736167653a0a333200000000600082015250565b600062000fcc601c8362000f03565b915062000fd98262000f94565b601c82019050919050565b6000819050919050565b6000819050919050565b6200100d620010078262000fe4565b62000fee565b82525050565b6000620010208262000fbd565b91506200102e828462000ff8565b60208201915081905092915050565b7f4e487b7100000000000000000000000000000000000000000000000000000000600052602260045260246000fd5b600060028204905060018216806200108557607f821691505b6020821081036200109b576200109a6200103d565b5b50919050565b61229a80620010b16000396000f3fe608060405234801561001057600080fd5b50600436106100415760003560e01c80638f156d71146100465780639c22c95114610064578063d98966fd14610082575b600080fd5b61004e6100b2565b60405161005b91906118ad565b60405180910390f35b61006c610361565b60405161007991906118ad565b60405180910390f35b61009c60048036038101906100979190611a1a565b610a14565b6040516100a991906118ad565b60405180910390f35b600080610171604051806040016040528060216000600581106100d8576100d7611aa8565b5b0154815260200160216001600581106100f4576100f3611aa8565b5b01548152506040518060400160405280602160036005811061011957610118611aa8565b5b01548152602001602160046005811061013557610134611aa8565b5b0154815250601d60016002811061014f5761014e611aa8565b5b0154602160026005811061016657610165611aa8565b5b015460006001610a14565b801561022157506102206040518060400160405280602160006005811061019b5761019a611aa8565b5b0154815260200160216001600581106101b7576101b6611aa8565b5b0154815250604051806040016040528060266001600581106101dc576101db611aa8565b5b0154815260200160266002600581106101f8576101f7611aa8565b5b0154815250602f54602660006005811061021557610214611aa8565b5b015460006001610a14565b5b80156102c557506102c4602d604051806040016040529081600082015481526020016001820154815250506040518060400160405280602660036005811061026c5761026b611aa8565b5b01548152602001602660046005811061028857610287611aa8565b5b0154815250601d6000600281106102a2576102a1611aa8565b5b015460266000600581106102b9576102b8611aa8565b5b015460006001610a14565b5b80156103215750610320602d60405180604001604052908160008201548152602001600182015481525050602b6040518060400160405290816000820154815260200160018201548152505060305460315460006001610a14565b5b90507f9ebf19a79884326bf6ddfcf4bd501eb6a52b40414ecd5d8a70514f606810801e8160405161035291906118ad565b60405180910390a18091505090565b6000807f30644e72e131a029b85045b68181585d2833e84879b9709143e1f593f00000018061039357610392611ad7565b5b601d6001600281106103a8576103a7611aa8565b5b0154601d6000600281106103bf576103be611aa8565b5b015409905060007f30644e72e131a029b85045b68181585d2833e84879b9709143e1f593f0000001806103f5576103f4611ad7565b5b601f547f30644e72e131a029b85045b68181585d2833e84879b9709143e1f593f00000016104239190611b35565b7f30644e72e131a029b85045b68181585d2833e84879b9709143e1f593f00000018061045257610451611ad7565b5b7f30644e72e131a029b85045b68181585d2833e84879b9709143e1f593f00000018061048157610480611ad7565b5b6020547f30644e72e131a029b85045b68181585d2833e84879b9709143e1f593f0000001806104b3576104b2611ad7565b5b6008600f601581106104c8576104c7611aa8565b5b01546008600c601581106104df576104de611aa8565b5b015408087f30644e72e131a029b85045b68181585d2833e84879b9709143e1f593f00000018061051257610511611ad7565b5b600860096015811061052757610526611aa8565b5b0154600860066015811061053e5761053d611aa8565b5b015408090890506000603460009054906101000a900473ffffffffffffffffffffffffffffffffffffffff1673ffffffffffffffffffffffffffffffffffffffff166106166032546033805461059390611b98565b80601f01602080910402602001604051908101604052809291908181526020018280546105bf90611b98565b801561060c5780601f106105e15761010080835404028352916020019161060c565b820191906000526020600020905b8154815290600101906020018083116105ef57829003601f168201915b5050505050610ce9565b73ffffffffffffffffffffffffffffffffffffffff1614905060006106eb6040518060400160405280600860006015811061065457610653611aa8565b5b0154815260200160086001601581106106705761066f611aa8565b5b01548152506040518060400160405280600860076015811061069557610694611aa8565b5b01548152602001600880601581106106b0576106af611aa8565b5b0154815250601d6001600281106106ca576106c9611aa8565b5b015460086006601581106106e1576106e0611aa8565b5b0154600080610a14565b801561079857506107976040518060400160405280600860006015811061071557610714611aa8565b5b01548152602001600860016015811061073157610730611aa8565b5b015481525060405180604001604052806008600d6015811061075657610755611aa8565b5b015481526020016008600e6015811061077257610771611aa8565b5b0154815250866008600c6015811061078d5761078c611aa8565b5b0154600080610a14565b5b801561085c575061085b604051806040016040528060086002601581106107c2576107c1611aa8565b5b0154815260200160086003601581106107de576107dd611aa8565b5b015481525060405180604001604052806008600a6015811061080357610802611aa8565b5b015481526020016008600b6015811061081f5761081e611aa8565b5b0154815250601d60016002811061083957610838611aa8565b5b015460086009601581106108505761084f611aa8565b5b015460016000610a14565b5b801561090a57506109096040518060400160405280600860026015811061088657610885611aa8565b5b0154815260200160086003601581106108a2576108a1611aa8565b5b0154815250604051806040016040528060086010601581106108c7576108c6611aa8565b5b0154815260200160086011601581106108e3576108e2611aa8565b5b0154815250866008600f601581106108fe576108fd611aa8565b5b015460016000610a14565b5b80156109b857506109b76040518060400160405280600860046015811061093457610933611aa8565b5b0154815260200160086005601581106109505761094f611aa8565b5b01548152506040518060400160405280600860126015811061097557610974611aa8565b5b01548152602001600860136015811061099157610990611aa8565b5b0154815250601d6001600281106109ab576109aa611aa8565b5b01548660006001610a14565b5b80156109c857506109c76100b2565b5b80156109d15750815b90507f9ebf19a79884326bf6ddfcf4bd501eb6a52b40414ecd5d8a70514f606810801e81604051610a0291906118ad565b60405180910390a18094505050505090565b60007f30644e72e131a029b85045b68181585d2833e84879b9709143e1f593f0000001876000015110610a7c576040517f08c379a0000000000000000000000000000000000000000000000000000000008152600401610a7390611c4c565b60405180910390fd5b7f30644e72e131a029b85045b68181585d2833e84879b9709143e1f593f0000001876020015110610ae2576040517f08c379a0000000000000000000000000000000000000000000000000000000008152600401610ad990611cde565b60405180910390fd5b7f30644e72e131a029b85045b68181585d2833e84879b9709143e1f593f0000001866000015110610b48576040517f08c379a0000000000000000000000000000000000000000000000000000000008152600401610b3f90611d70565b60405180910390fd5b7f30644e72e131a029b85045b68181585d2833e84879b9709143e1f593f0000001866020015110610bae576040517f08c379a0000000000000000000000000000000000000000000000000000000008152600401610ba590611e02565b60405180910390fd5b7f30644e72e131a029b85045b68181585d2833e84879b9709143e1f593f00000018510610c10576040517f08c379a0000000000000000000000000000000000000000000000000000000008152600401610c0790611e94565b60405180910390fd5b7f30644e72e131a029b85045b68181585d2833e84879b9709143e1f593f00000018410610c72576040517f08c379a0000000000000000000000000000000000000000000000000000000008152600401610c6990611f26565b60405180910390fd5b6000610c86610c818888610dbc565b610e94565b90506000610ca4610c9e610c98610f52565b88610dbc565b83610f76565b90506000610cb18a610e94565b9050610cda89610cc088611074565b84610cca8a611168565b85610cd58c8c61128b565b611454565b93505050509695505050505050565b6000806000806041855114610d045760009350505050610db6565b6020850151925060408501519150606085015160001a9050601b8160ff161015610d3857601b81610d359190611f53565b90505b601b8160ff1614158015610d505750601c8160ff1614155b15610d615760009350505050610db6565b60018682858560405160008152602001604052604051610d849493929190611fb2565b6020604051602081039080840390855afa158015610da6573d6000803e3d6000fd5b5050506020604051035193505050505b92915050565b610dc46117ca565b610dcc6117e4565b836000015181600060038110610de557610de4611aa8565b5b602002018181525050836020015181600160038110610e0757610e06611aa8565b5b6020020181815250508281600260038110610e2557610e24611aa8565b5b602002018181525050600060608360808460076107d05a03fa90508060008103610e4b57fe5b5080610e8c576040517f08c379a0000000000000000000000000000000000000000000000000000000008152600401610e8390612043565b60405180910390fd5b505092915050565b610e9c6117ca565b60008260000151148015610eb4575060008260200151145b15610ed75760405180604001604052806000815260200160008152509050610f4d565b6040518060400160405280836000015181526020017f30644e72e131a029b85045b68181585d97816a916871ca8d3c208c16d87cfd478460200151610f1c9190612063565b7f30644e72e131a029b85045b68181585d97816a916871ca8d3c208c16d87cfd47610f479190611b35565b81525090505b919050565b610f5a6117ca565b6040518060400160405280600181526020016002815250905090565b610f7e6117ca565b610f86611806565b836000015181600060048110610f9f57610f9e611aa8565b5b602002018181525050836020015181600160048110610fc157610fc0611aa8565b5b602002018181525050826000015181600260048110610fe357610fe2611aa8565b5b60200201818152505082602001518160036004811061100557611004611aa8565b5b602002018181525050600060608360c08460066107d05a03fa9050806000810361102b57fe5b508061106c576040517f08c379a0000000000000000000000000000000000000000000000000000000008152600401611063906120e0565b60405180910390fd5b505092915050565b61107c611828565b6040518060400160405280604051806040016040528060008660036110a19190612100565b815481106110b2576110b1611aa8565b5b9060005260206000200154815260200160018660036110d19190612100565b815481106110e2576110e1611aa8565b5b906000526020600020015481525081526020016040518060400160405280600286600361110f9190612100565b815481106111205761111f611aa8565b5b90600052602060002001548152602001600386600361113f9190612100565b815481106111505761114f611aa8565b5b90600052602060002001548152508152509050919050565b611170611828565b60405180604001604052806040518060400160405280600060018760036111979190612100565b6111a1919061215a565b815481106111b2576111b1611aa8565b5b906000526020600020015481526020016001808760036111d29190612100565b6111dc919061215a565b815481106111ed576111ec611aa8565b5b9060005260206000200154815250815260200160405180604001604052806002600187600361121c9190612100565b611226919061215a565b8154811061123757611236611aa8565b5b90600052602060002001548152602001600360018760036112589190612100565b611262919061215a565b8154811061127357611272611aa8565b5b90600052602060002001548152508152509050919050565b611293611828565b8115611337576004604051806040016040529081600082016002806020026040519081016040528092919082600280156112e2576020028201915b8154815260200190600101908083116112ce575b5050505050815260200160028201600280602002604051908101604052809291908260028015611327576020028201915b815481526020019060010190808311611313575b505050505081525050905061144e565b604051806040016040528060405180604001604052806000600288600361135e9190612100565b611368919061215a565b8154811061137957611378611aa8565b5b906000526020600020015481526020016001600288600361139a9190612100565b6113a4919061215a565b815481106113b5576113b4611aa8565b5b9060005260206000200154815250815260200160405180604001604052806002808860036113e39190612100565b6113ed919061215a565b815481106113fe576113fd611aa8565b5b906000526020600020015481526020016003600288600361141f9190612100565b611429919061215a565b8154811061143a57611439611aa8565b5b906000526020600020015481525081525090505b92915050565b60008060405180606001604052808981526020018781526020018581525090506000604051806060016040528089815260200187815260200185815250905060006012905060008167ffffffffffffffff8111156114b5576114b46118ed565b5b6040519080825280602002602001820160405280156114e35781602001602082028036833780820191505090505b50905060005b60038110156117215760006006826115019190612100565b905085826003811061151657611515611aa8565b5b6020020151600001518360008361152d919061215a565b8151811061153e5761153d611aa8565b5b60200260200101818152505085826003811061155d5761155c611aa8565b5b60200201516020015183600183611574919061215a565b8151811061158557611584611aa8565b5b6020026020010181815250508482600381106115a4576115a3611aa8565b5b6020020151600001516000600281106115c0576115bf611aa8565b5b6020020151836002836115d3919061215a565b815181106115e4576115e3611aa8565b5b60200260200101818152505084826003811061160357611602611aa8565b5b60200201516000015160016002811061161f5761161e611aa8565b5b602002015183600383611632919061215a565b8151811061164357611642611aa8565b5b60200260200101818152505084826003811061166257611661611aa8565b5b60200201516020015160006002811061167e5761167d611aa8565b5b602002015183600483611691919061215a565b815181106116a2576116a1611aa8565b5b6020026020010181815250508482600381106116c1576116c0611aa8565b5b6020020151602001516001600281106116dd576116dc611aa8565b5b6020020151836005836116f0919061215a565b8151811061170157611700611aa8565b5b602002602001018181525050508080611719906121b0565b9150506114e9565b5061172a61184e565b60008060208561173a9190612100565b9050602083826020870160086107d05a03fa9150816000810361175957fe5b508161179a576040517f08c379a000000000000000000000000000000000000000000000000000000000815260040161179190612244565b60405180910390fd5b6000836000600181106117b0576117af611aa8565b5b602002015114159750505050505050509695505050505050565b604051806040016040528060008152602001600081525090565b6040518060600160405280600390602082028036833780820191505090505090565b6040518060800160405280600490602082028036833780820191505090505090565b604051806040016040528061183b611870565b8152602001611848611870565b81525090565b6040518060200160405280600190602082028036833780820191505090505090565b6040518060400160405280600290602082028036833780820191505090505090565b60008115159050919050565b6118a781611892565b82525050565b60006020820190506118c2600083018461189e565b92915050565b6000604051905090565b600080fd5b600080fd5b6000601f19601f8301169050919050565b7f4e487b7100000000000000000000000000000000000000000000000000000000600052604160045260246000fd5b611925826118dc565b810181811067ffffffffffffffff82111715611944576119436118ed565b5b80604052505050565b60006119576118c8565b9050611963828261191c565b919050565b6000819050919050565b61197b81611968565b811461198657600080fd5b50565b60008135905061199881611972565b92915050565b6000604082840312156119b4576119b36118d7565b5b6119be604061194d565b905060006119ce84828501611989565b60008301525060206119e284828501611989565b60208301525092915050565b6119f781611892565b8114611a0257600080fd5b50565b600081359050611a14816119ee565b92915050565b6000806000806000806101008789031215611a3857611a376118d2565b5b6000611a4689828a0161199e565b9650506040611a5789828a0161199e565b9550506080611a6889828a01611989565b94505060a0611a7989828a01611989565b93505060c0611a8a89828a01611989565b92505060e0611a9b89828a01611a05565b9150509295509295509295565b7f4e487b7100000000000000000000000000000000000000000000000000000000600052603260045260246000fd5b7f4e487b7100000000000000000000000000000000000000000000000000000000600052601260045260246000fd5b7f4e487b7100000000000000000000000000000000000000000000000000000000600052601160045260246000fd5b6000611b4082611968565b9150611b4b83611968565b925082821015611b5e57611b5d611b06565b5b828203905092915050565b7f4e487b7100000000000000000000000000000000000000000000000000000000600052602260045260246000fd5b60006002820490506001821680611bb057607f821691505b602082108103611bc357611bc2611b69565b5b50919050565b600082825260208201905092915050565b7f56657269666965722e7665726966794b5a473a205f636f6d6d69746d656e742e60008201527f58206973206f7574206f662072616e6765000000000000000000000000000000602082015250565b6000611c36603183611bc9565b9150611c4182611bda565b604082019050919050565b60006020820190508181036000830152611c6581611c29565b9050919050565b7f56657269666965722e7665726966794b5a473a205f636f6d6d69746d656e742e60008201527f59206973206f7574206f662072616e6765000000000000000000000000000000602082015250565b6000611cc8603183611bc9565b9150611cd382611c6c565b604082019050919050565b60006020820190508181036000830152611cf781611cbb565b9050919050565b7f56657269666965722e7665726966794b5a473a205f70726f6f662e582069732060008201527f6f7574206f662072616e67650000000000000000000000000000000000000000602082015250565b6000611d5a602c83611bc9565b9150611d6582611cfe565b604082019050919050565b60006020820190508181036000830152611d8981611d4d565b9050919050565b7f56657269666965722e7665726966794b5a473a205f70726f6f662e592069732060008201527f6f7574206f662072616e67650000000000000000000000000000000000000000602082015250565b6000611dec602c83611bc9565b9150611df782611d90565b604082019050919050565b60006020820190508181036000830152611e1b81611ddf565b9050919050565b7f56657269666965722e7665726966794b5a473a205f696e646578206973206f7560008201527f74206f662072616e676500000000000000000000000000000000000000000000602082015250565b6000611e7e602a83611bc9565b9150611e8982611e22565b604082019050919050565b60006020820190508181036000830152611ead81611e71565b9050919050565b7f56657269666965722e7665726966794b5a473a205f76616c7565206973206f7560008201527f74206f662072616e676500000000000000000000000000000000000000000000602082015250565b6000611f10602a83611bc9565b9150611f1b82611eb4565b604082019050919050565b60006020820190508181036000830152611f3f81611f03565b9050919050565b600060ff82169050919050565b6000611f5e82611f46565b9150611f6983611f46565b92508260ff03821115611f7f57611f7e611b06565b5b828201905092915050565b6000819050919050565b611f9d81611f8a565b82525050565b611fac81611f46565b82525050565b6000608082019050611fc76000830187611f94565b611fd46020830186611fa3565b611fe16040830185611f94565b611fee6060830184611f94565b95945050505050565b7f70616972696e672d6d756c2d6661696c65640000000000000000000000000000600082015250565b600061202d601283611bc9565b915061203882611ff7565b602082019050919050565b6000602082019050818103600083015261205c81612020565b9050919050565b600061206e82611968565b915061207983611968565b92508261208957612088611ad7565b5b828206905092915050565b7f70616972696e672d6164642d6661696c65640000000000000000000000000000600082015250565b60006120ca601283611bc9565b91506120d582612094565b602082019050919050565b600060208201905081810360008301526120f9816120bd565b9050919050565b600061210b82611968565b915061211683611968565b9250817fffffffffffffffffffffffffffffffffffffffffffffffffffffffffffffffff048311821515161561214f5761214e611b06565b5b828202905092915050565b600061216582611968565b915061217083611968565b9250827fffffffffffffffffffffffffffffffffffffffffffffffffffffffffffffffff038211156121a5576121a4611b06565b5b828201905092915050565b60006121bb82611968565b91507fffffffffffffffffffffffffffffffffffffffffffffffffffffffffffffffff82036121ed576121ec611b06565b5b600182019050919050565b7f70616972696e672d6f70636f64652d6661696c65640000000000000000000000600082015250565b600061222e601583611bc9565b9150612239826121f8565b602082019050919050565b6000602082019050818103600083015261225d81612221565b905091905056fea26469706673582212201864d7fdd7f5bb2669a8c08b7bfc1bc3eafbc6635c615578a4eaf8a1cb27a1dc64736f6c634300080d00335965bd77ef5fdd9db27103492c1c0fa491feff7a5391a32e4160f0fe135988e70d53409fa2fb6a2e374ccfdf33196e88dc258f3172d2366e6a2e3039d504166b013233313031343437393738323031353234353233343438353934343737313731343337363132393936303039393735373731333832383633343133323034313530383936323533343939332c203130313938363135383530323336373738313931353732353830313737323431343539353332303936353337333734323339393933323033323330313536333238393630323132373131313439",
  "immutableReferences": {},
  "source": "// Modified from https://github.com/appliedzkp/semaphore/blob/master/contracts/sol/verifier.sol\n// SPDX-License-Identifier: MIT\npragma solidity >=0.4.22 <0.9.0;\npragma experimental ABIEncoderV2;\nimport \"./Pairing.sol\";\nimport { Constants } from \"./Constants.sol\";\n// import \"@openzeppelin/contracts/utils/Strings.sol\";\n\ncontract Verifier is Constants {\n\n    using Pairing for *;\n\n    event verifyResult(bool result);\n\n        uint256[21] Proof = [\n        uint256(2430733905368895916701976989655953862896035771386717556982160819783711210259),\n        uint256(9102689289354761110068331105410089518316055851359267235619562339144552714861),\n        uint256(231014479782015245234485944771714376129960099757713828634132041508962534993),\n        uint256(15099064614159299663080487230823884942440586700446010397106703856370686471325),\n        uint256(10198615850236778191572580177241459532096537374239993203230156328960212711149),\n        uint256(20854966057074177555524519608858250376341891606772696891343849640249819385526),\n        uint256(6605909092223862648613968386402357480359451094900557075157385215695092952074),\n        uint256(18472372209171503790441601420424676041484799620636246676248038256500873016088),\n        uint256(6220787008916881319464370308587583513747649813889514713418153671677530961461),\n        uint256(8410191156283576312133164019612153564612983502707137877846252398182429699611),\n        uint256(1820001689768674135888951944656928058241513992531238138089549754609125119294),\n        uint256(2481025605512560144389230622484540415228674859111262047132029184762560628755),\n        uint256(12614326796259460332098117539257035477751183231136301969141385827893700191770),\n        uint256(6056125761187849748353562446238980078619996597424387167604135170228008905344),\n        uint256(1438753959943999162451315047167581830276659445368102511962701719477730368436),\n        uint256(1989759524443601204692947738626334818861392328343249322352120588556964384700),\n        uint256(4764924722803456286311178318372354491810275746966477090281148264867809032273),\n        uint256(3756790786816475510002535058113872263686811807862191243886597789673842853469),\n        uint256(18632317099518353147736879316131442557722213222436942659892786599050299898169),\n        uint256(3250906048494115919264401473218909908097490254322898166638512619982074389160),\n        uint256(18169683744246052594747345179909030548741561307324612991065700128574975702319)\n    ];\n\n    uint256[2] Randoms = [\n        uint256(20748554516541903851893401240329527750480785079715456083281433659587182250826),\n        uint256(17323628418251496212520547221003717179005341626515695250810504986175930344785)\n    ];\n\n    uint256 evalK = uint256(6107955905213222098911676322114463806190125380976743840977370452610947540634);\n    uint256 evalS = Proof[20];\n\n    // SOCC_hscS = [G1Point S_j, uint256 s_j, G1Point W_j]\n    uint256[5] SOCC_hscS = [\n        uint256(8336614892309485028849467793134923327156829985996982469921999618884819358776),\n        uint256(17290899279085178024936961682249154968987397116301237179151550605443113560664),\n        uint256(18169683744246052594747345179909030548741561307324612991065700128574975702319),\n        uint256(2278468211751234646712135520919898219361960368572599019079972562160207294698),\n        uint256(2420156036684871195688033984161764517471465559954831069502558639467666365679)\n    ];\n    // SOCC_hscW = [uint256 s'_j,G1Point W'_j, G1Point Q_j]\n    uint256[5] SOCC_hscW = [\n        uint256(8702330772908673544678514143802978245139883407827296227979754460248183114350),\n        uint256(17926359916659905699556696996276133538058455684840102529224327278061418884717),\n        uint256(9895040669229526741117904727812823634582492611498587562463411105945646489431),\n        uint256(4947190002820093267899730441996921991882734347194954849846175079133624862702),\n        uint256(17737945086681349098252848496937276901600675156251938510370979269949725548707)\n    ];\n\n    Pairing.G1Point hscQv = Pairing.G1Point(\n        uint256(12700359451261376939236228318139409828644131707895034570361970225488483343448),\n        uint256(11544898578886980549803566157426707547167181914929290408430550390469018298142)\n    );\n    Pairing.G1Point hscC = Pairing.G1Point(\n        uint256(9441135556124043806916187484539565100183345165257292117673036998730723044275),\n        uint256(5869639566566113220789863422799500968026057473505251183319867188056795646426)\n    );\n\n    uint256 u = uint256(20487330288252882171410724243653372084954338721269411052281427881862306732523);\n    uint256 v = uint256(20105232964311582578824171353106690547034178131939785538492689354042317227169);\n\n    // from terminal\n    uint256 s_uv = uint256(4119086359917066269382802373150874671712346973043070050093647525174658361025);\n\n    // from Go\n    bytes32 message = ethMessageHash(\"231014479782015245234485944771714376129960099757713828634132041508962534993, 10198615850236778191572580177241459532096537374239993203230156328960212711149\");\n    bytes sig = hex\"5965bd77ef5fdd9db27103492c1c0fa491feff7a5391a32e4160f0fe135988e70d53409fa2fb6a2e374ccfdf33196e88dc258f3172d2366e6a2e3039d504166b01\";\n    address addr = 0xa2F2f34cc9D9646A57Ec5B95761a367abdD73d2a;\n\n\n\n    function verify(\n        Pairing.G1Point memory _commitment, // F\n        Pairing.G1Point memory _proof, // W\n        uint256 _index,  // z\n        uint256 _value,  // F(z) or v\n        uint proofIndex,\n        bool isT\n    ) public view returns (bool) {\n        // Make sure each parameter is less than the prime q\n        require(_commitment.X < BABYJUB_P, \"Verifier.verifyKZG: _commitment.X is out of range\");\n        require(_commitment.Y < BABYJUB_P, \"Verifier.verifyKZG: _commitment.Y is out of range\");\n        require(_proof.X < BABYJUB_P, \"Verifier.verifyKZG: _proof.X is out of range\");\n        require(_proof.Y < BABYJUB_P, \"Verifier.verifyKZG: _proof.Y is out of range\");\n        require(_index < BABYJUB_P, \"Verifier.verifyKZG: _index is out of range\");\n        require(_value < BABYJUB_P, \"Verifier.verifyKZG: _value is out of range\");\n       \n        Pairing.G1Point memory negProof = Pairing.negate(Pairing.mulScalar(_proof, _index));\n        Pairing.G1Point memory mulProof = Pairing.plus(Pairing.mulScalar(Constants.G1Gen(), _value), negProof);\n        Pairing.G1Point memory negCm = Pairing.negate(_commitment);\n\n        return Pairing.pairing(_proof, Constants.SRS_G2_hAlphaX1(proofIndex),\n                                mulProof, Constants.SRS_G2_hAlphaX0(proofIndex),\n                                negCm, Constants.SRS_G2_hAlphaXdMax(proofIndex, isT));\n        // return false;\n    }\n\n    function verifySonic(\n        // uint256[21] memory Proof,\n        // uint256[2] memory Randoms\n    ) public returns (bool) {\n\n        uint256 yz = mulmod(Randoms[0], Randoms[1], Pairing.BABYJUB_P);\n        uint256 t = addmod(mulmod(addmod(Proof[6], Proof[9], Pairing.BABYJUB_P), \n                                  addmod(addmod(Proof[12], \n                                                Proof[15], Pairing.BABYJUB_P), \n                                         evalS, Pairing.BABYJUB_P), Pairing.BABYJUB_P),\n                            Pairing.BABYJUB_P - evalK, Pairing.BABYJUB_P);\n\n        bool verifySignature = recover(message, sig) == addr;\n        bool result = verify(Pairing.G1Point(Proof[0], Proof[1]), // aLocal\n                      Pairing.G1Point(Proof[7], Proof[8]),\n                      Randoms[1], \n                      Proof[6],\n                      0, false) &&\n                verify(Pairing.G1Point(Proof[0], Proof[1]), // bLocal\n                      Pairing.G1Point(Proof[13], Proof[14]),\n                      yz,\n                      Proof[12],\n                      0, false) &&\n                verify(Pairing.G1Point(Proof[2], Proof[3]), // aRaw\n                      Pairing.G1Point(Proof[10], Proof[11]),\n                      Randoms[1],\n                      Proof[9],\n                      1, false) &&\n                verify(Pairing.G1Point(Proof[2], Proof[3]), // bRaw\n                      Pairing.G1Point(Proof[16], Proof[17]),\n                      yz,\n                      Proof[15],\n                      1, false) &&\n                verify(Pairing.G1Point(Proof[4], Proof[5]), // t\n                      Pairing.G1Point(Proof[18], Proof[19]),\n                      Randoms[1],\n                      t,\n                      0, true) && \n                verifySOCC() && verifySignature;\n        // bool result = true;\n        emit verifyResult(result);\n        return result;\n    }\n\n    function verifySOCC() public returns (bool) {\n\n        bool verified = verify(Pairing.G1Point(SOCC_hscS[0], SOCC_hscS[1]), // pcV(bp,srs,S_j,d,z_j,(s_j,W_j)\n                      Pairing.G1Point(SOCC_hscS[3], SOCC_hscS[4]),\n                      Randoms[1], \n                      SOCC_hscS[2],\n                      0, true) &&\n                      verify(Pairing.G1Point(SOCC_hscS[0], SOCC_hscS[1]), // pcV(bp,srs,S_j,d,u,(s'_j,W'_j))\n                      Pairing.G1Point(SOCC_hscW[1], SOCC_hscW[2]),\n                      u, \n                      SOCC_hscW[0],\n                      0, true) &&\n                      verify(hscC,                                      // pcV(bp,srs,C,d,y_j,(s'_j,Q_j)\n                      Pairing.G1Point(SOCC_hscW[3], SOCC_hscW[4]),\n                      Randoms[0], \n                      SOCC_hscW[0],\n                      0, true) &&\n                      verify(hscC,                                      // pcV(bp,srs,C,d,v,(s_uv,Q_v))\n                      hscQv,\n                      v, \n                      s_uv,\n                      0, true);\n        emit verifyResult(verified);\n        return verified;\n    }\n\n    /**\n     * @dev Recover signer address from a message by using their signature\n     * @param hash bytes32 message, the hash is the signed message. What is recovered is the signer address.\n     * @param signature bytes signature, the signature is generated using web3.eth.sign()\n     */\n    function recover(bytes32 hash, bytes memory signature) internal pure returns (address) {\n        bytes32 r;\n        bytes32 s;\n        uint8 v;\n\n        // Check the signature length\n        if (signature.length != 65) {\n            return (address(0));\n        }\n\n        // Divide the signature in r, s and v variables\n        // ecrecover takes the signature parameters, and the only way to get them\n        // currently is to use assembly.\n        // solium-disable-next-line security/no-inline-assembly\n        assembly {\n            r := mload(add(signature, 32))\n            s := mload(add(signature, 64))\n            v := byte(0, mload(add(signature, 96)))\n        }\n\n        // Version of signature should be 27 or 28, but 0 and 1 are also possible versions\n        if (v < 27) {\n            v += 27;\n        }\n\n        // If the version is correct return the signer address\n        if (v != 27 && v != 28) {\n            return (address(0));\n        } else {\n            // solium-disable-next-line arg-overflow\n            return ecrecover(hash, v, r, s);\n        }\n    }\n\n    /**\n    * @dev prefix a bytes32 value with \"\\x19Ethereum Signed Message:\" and hash the result\n    */\n    function ethMessageHash(string memory rawCommitment) internal pure returns (bytes32) {\n        return keccak256(\n            abi.encodePacked(\"\\x19Ethereum Signed Message:\\n32\", keccak256(abi.encodePacked(rawCommitment)))\n        );\n    }\n\n}",
  "sourcePath": "/Users/mac/Desktop/codings/ethereum/sonic/src/verifier/contracts/Verifier.sol",
  "compiler": {
    "name": "solc",
    "version": "0.8.13+commit.abaa5c0e.Emscripten.clang"
  },
  "schemaVersion": "3.4.7",
  "updatedAt": "2022-10-18T05:52:35.150Z",
  "networkType": "ethereum",
  "devdoc": {
    "kind": "dev",
    "methods": {},
    "version": 1
  },
  "userdoc": {
    "kind": "user",
    "methods": {},
    "version": 1
  }
}