{
  "contractName": "Verifier",
  "abi": [
    {
      "anonymous": false,
      "inputs": [
        {
          "indexed": false,
          "internalType": "bool",
          "name": "result",
          "type": "bool"
        }
      ],
      "name": "verifyResult",
      "type": "event"
    },
    {
      "inputs": [
        {
          "components": [
            {
              "internalType": "uint256",
              "name": "X",
              "type": "uint256"
            },
            {
              "internalType": "uint256",
              "name": "Y",
              "type": "uint256"
            }
          ],
          "internalType": "struct Pairing.G1Point",
          "name": "_commitment",
          "type": "tuple"
        },
        {
          "components": [
            {
              "internalType": "uint256",
              "name": "X",
              "type": "uint256"
            },
            {
              "internalType": "uint256",
              "name": "Y",
              "type": "uint256"
            }
          ],
          "internalType": "struct Pairing.G1Point",
          "name": "_proof",
          "type": "tuple"
        },
        {
          "internalType": "uint256",
          "name": "_index",
          "type": "uint256"
        },
        {
          "internalType": "uint256",
          "name": "_value",
          "type": "uint256"
        }
      ],
      "name": "verify",
      "outputs": [
        {
          "internalType": "bool",
          "name": "",
          "type": "bool"
        }
      ],
      "stateMutability": "view",
      "type": "function",
      "constant": true
    },
    {
      "inputs": [],
      "name": "verifySonic",
      "outputs": [
        {
          "internalType": "bool",
          "name": "",
          "type": "bool"
        }
      ],
      "stateMutability": "nonpayable",
      "type": "function"
    },
    {
      "inputs": [],
      "name": "verifySonicBatched",
      "outputs": [
        {
          "internalType": "bool",
          "name": "",
          "type": "bool"
        }
      ],
      "stateMutability": "nonpayable",
      "type": "function"
    },
    {
      "inputs": [],
      "name": "evalPoly",
      "outputs": [
        {
          "internalType": "uint256",
          "name": "",
          "type": "uint256"
        }
      ],
      "stateMutability": "view",
      "type": "function",
      "constant": true
    }
  ],
  "bytecode": "0x608060405260405180604001604052807f198e9393920d483a7260bfb731fb5d25f1aa493335a9e71297e485b7aef312c281526020017f21a808dad5c50720fb7294745cf4c87812ce0ea76baa7df4e922615d1388f25a81525060009060026200006b929190620017c6565b5060405180604001604052807f1800deef121f1e76426a00665e5c4479674322d4f75edadd46debd5cd992f6ed81526020017f04c5e74c85a87f008a2feb4b5c8a1e7f9ba9d8eb40eb02e70139c89fb1c505a98152506001906002620000d3929190620017c6565b5060405180604001604052807f090689d0585ff075ec9e99ad690c3395bc4b313370b38ef355acdadcd122975b81526020017f204b66d8e1fadc307c35187a6b813be0b46ba1cd720cd1c4ee5f68d13036b4ba81525060029060026200013b929190620017c6565b5060405180604001604052807f12c85ea5db8c6deb4aab71808dcb408fe3d1e7690c43d37b4ce6cc0166fa7daa81526020017f2d58022915fc6bc90e036e858fbc98055084ac7aff98ccceb0e3fde64bc1a0848152506003906002620001a3929190620017c6565b5060405180608001604052807f1a597e49c263d6a226f25fe1e806caac7f15f85b763044e7d3043ba5992dd8d581526020017f228b515a17f28b89920873207477f8c7fc05582debaf3184febf1cfdedc5ce8881526020017f18e9db03472e0863ddf2838cf8880b11083593229561aaf9a11c760bb97a64fa81526020017f0566eed2b6bb584ca75fbe0ca9ffc98eb586c25812617df7e01a2b6d8270f0bf81525060049060046200025792919062001818565b5060405180608001604052807f208f992ecbeeef3fa5b1c3505c588c7a872e3987797a14052b6f34411c9ea0ae81526020017f12bb1156a9f6b360fcb2614e15d8a3ff07f2c699dc69ca830b20d2df91fe9cd381526020017f15904dc85f8ddf338fe3151d3c146b4083e99dd3f26d87d33dd5d20eb64284a381526020017f20101834550a7d15aa7a685d3f0095b689822cb568dfc9690e0cc58e9826d8fb81525060059060046200030b92919062001818565b5060405180608001604052807f024248dcf25ea502fb805bcab808906eb944154792151d643ad7b4b0eca6d91381526020017f2b15dc62a5c9e36597914ddbbfde48806a8eabe45c8d3cccf9578ad08e058f9281526020017f20ab132d3e7dd0600d89b397a3bf88e3900434c826b458028981278a619d809481526020017f0a66c012d8ebf11c9a9fc4ccfeeab0ace62b1c1fa744f6c6173f1994e9241db78152506006906004620003bf92919062001818565b5060405180608001604052807f14c35af32416c899af0b827ef0f1a686393d629317706d8c143cdfd5717c4c5e81526020017f02a4fd764f52470e2fcfff325fb9692f55d6b8b077eefeaa04e07152b4d1fa9481526020017f28505103380e230ea76fa52dc17b1269cfa9076761a1bb971c5b90767de58db081526020017f19ea09d089c848b2dee00082395883e0b405de1da65d4b4aeebd50c84e47349d81525060079060046200047392919062001818565b50604051806040016040528060405180604001604052807f185c3f6fe300ae4825fbc17232a7ef067d895c6838b58df5d3821b3c5f47a38081526020017f0ec8eed74d6dfed1e4bbac422898cbf6334bb2ea304a443a0b388c8a513b98ea815250815260200160405180604001604052807f2ce0b9172a655debea69f18829f2b0a98ec43a6ce296f603371237011936328181526020017f113e4f1953b68002611afddebc49dc2876e7a4e246061eec0f05ebc6595ff13781525081525060086000820151816000019060026200054c9291906200186a565b50602082015181600201906002620005669291906200186a565b505050604051806040016040528060405180604001604052807f11a27fdb89b46af22a89049c391fada5cb5ce6f4c9df8fe5ebae5d422b0bcddf81526020017f1ebadb21506ba2b40566be5bdbfe1ead7400477fc516e1ded4461c6759c221f5815250815260200160405180604001604052807f2d204255b7a4116982ce5bcd3bcc3639e3cc82b273a8ffbf404370c38ce5db3f81526020017f18b0e4266a167129aaee0af3b9ab5a3b4d2bcd690de7d94312c23b494f9fd3bb815250815250600c600082015181600001906002620006419291906200186a565b506020820151816002019060026200065b9291906200186a565b505050604051806040016040528060405180604001604052807f198e9393920d483a7260bfb731fb5d25f1aa493335a9e71297e485b7aef312c281526020017f1800deef121f1e76426a00665e5c4479674322d4f75edadd46debd5cd992f6ed815250815260200160405180604001604052807f090689d0585ff075ec9e99ad690c3395bc4b313370b38ef355acdadcd122975b81526020017f12c85ea5db8c6deb4aab71808dcb408fe3d1e7690c43d37b4ce6cc0166fa7daa8152508152506010600082015181600001906002620007369291906200186a565b50602082015181600201906002620007509291906200186a565b505050604051806102a001604052807f2d2e305d3ab2dc6e0081ffcf4a701f924a1a7296cdc32046c10c0b6f992387b281526020017f10d4d3cca369c48670346ef36c6739e885bb11b52038a89c706aacfb7d72d78981526020017f2e35395f5838af48130dca441dda40ea378236a7259002822b87101d02189cf981526020017f259e64ee9a51992b6a66d97b27e9071b120bd0677b1e58f9373725493d0dfc3581526020017ef575de1f064343e871771cb242eaaf6812e4568c2bb7e6673e876c7464050181526020017f16d136c3465f30dfece26e1c3f94d1b9f6b90caa57245be3440ee15730c89cab81526020017f0cea2e280aefedbce8fd0e4abaf7e4575dc8fe4a4268a61d8dd063507fc5ecfb81526020017f0b19cca2316e1f6d3490971e1707cf7f8a8542f1ebb784b0f95ae933e191167081526020017f2dedb4628bf08f798ce6d93603b6ed8cac8942ae15ac5468e21b057a6001910a81526020017f213c7c9a650878edd5e1c73acd8868f2b83acff59c7fe0708c4006b8fe24b2df81526020017f1e812a5bf519614265594c3c12f2c881d46929dbaeabe2353ecd4288b7ab000d81526020017ec4b2d3c0dadfd5209c926bf4f936931a6d2c04fa9608cb278d855dbd3f38a981526020017f1f492c8edd37499078a6576275a4f46fe77a79ae3034b524e22eae2459c8a7d281526020017f05df1f21eb91f54ce9ebc45963392c05646ab94d5285f23f62d004e9742caa4181526020017f2baa1788aecf01e0f174e1dec4e4a1a6bb12e04f5a664c73110341089fa4a78581526020017f293d12d2ddee8106ee524edceb5b09802836c0009574f2a42db542c83d1612a981526020017f2a84b96b69dba240b21032b810c85532ac40b61d6b890cc3757309d83d0703ae81526020017f1a49d50f46a39f0fde8d3e1d95771d29bbb9eb7c9baab30cfb7867a50cd00d2681526020017f2be1f7e20177ef75851870d314a7fff4c31f0a9590dcadfa7ad98f63d01bffe681526020017f0fa336d3c59c626772a0d93ee1d4144b21e0fea2b000cd4fa60c03f69456025c81526020017f18a2993be8e03e3ec58688e40a0997a30ae6b413ab6156da93218e1ba39fee64815250601490601562000a8b929190620018af565b506040518060a001604052807f2f376e28777cfe34cf077eba864c462fd6efbfe4d3f6af17768ef2ed4f829ddd81526020017f2f0ed729a52c3cf5d51e5e6d8e737f79e5d99150f7b9b63f3dd38704f9d8ef2681526020017f2ef8bb94a174a78dfe41d6eed9d719c7d83be3826f1f10504ace98cab243a95a81526020017f2f1d1ad3ba383b2802a9d032e35c633fcb87438ec572dcecf69bdd65d3a29c6d81526020017f2f17797aa9b5b553209d135cdd69146128b9841e82c8b01e3f3a07d1e3714dc9815250602990600562000b65929190620018f4565b50610bb2602e557f19a48669ccf72c593144962560f593b667daa2052d1cdcc2500bb3b003c073c9602f556014806015811062000ba75762000ba662001a73565b5b01546030556040518060a001604052807f0abcbc513a4f12ef3d24aedcb8005305a64e9914941d63de78e83c7ce9559cb681526020017f29cb2b0a977afdb5e3c2fead88d2b26d1b699c1b7a6693262c371d3263f232bc81526020017f18a2993be8e03e3ec58688e40a0997a30ae6b413ab6156da93218e1ba39fee6481526020017f2f3fabffbd2bca7bc61901b09b4f45c78a3748a2e40ced61b93883605553ba4c81526020017f06332cd70541f1f5958e148a641305cb34193b8a595c46613dc0fff11c226ebe815250603190600562000c85929190620018f4565b506040518060a001604052807f173fe27a7f0c60540d8d600c5850189dd4bb8d7f3c007a385606cd2c6181554d81526020017f08f2c08c988b82b1e72491c92c1888d988b28dbdf5969bca17d439211e0e491781526020017f07d1bdb66bfe5e8ea65931d35586ff1c40ce91a19e82bf032ce19b1ef5f0597181526020017f1f7e97b1ecc7c35f2e9ee3393ea5d101018c8ab489dc82d6678931cd13a0656481526020017f0aa1ce7a4ee86b4d125985c4fbef9eb81ff6397e9ee5b638cd6c5f7f3f1edc8f815250603690600562000d5f929190620018f4565b5060405180604001604052807f069c989f95c67f2eadad54192ee90365dfd843dd18cd104449c2cd0f6135a00d81526020017f1d30712bd9824a34faf8681c2f97adc1305a2faf1b39d4edf30d23aa5d73e271815250603b6000820151816000015560208201518160010155505060405180604001604052807f2cfff7d01b631c28468be5bf2d727199af5fad36b826df7816f54952caf49c3281526020017f1070005b7818ade38c833c325a22173c6abf1df16c09a6634c989af7701ecfe2815250603d600082015181600001556020820151816001015550507f121f60ce38117f295e9818dfcb4dc742f01502a468e608ef94852d629c400ff1603f557f2877d2ce379fc3bf527374243a7169b5101750073677141bca5b7ea0248e81db6040557f1139f290e1b15f50b86c3fa6c4961c7e69c7b36bf05d9dc9791958e93c06082e60415562000ed06040518060c00160405280609a815260200162005931609a91396200176c60201b60201c565b604255604051806080016040528060418152602001620059cb604191396043908051906020019062000f0492919062001939565b5073e448992fdeaf94784bbd8f432d781c061d907985604460006101000a81548173ffffffffffffffffffffffffffffffffffffffff021916908373ffffffffffffffffffffffffffffffffffffffff160217905550604051806040016040528060405180604001604052806000808154811062000f875762000f8662001a73565b5b90600052602060002001548152602001600160008154811062000faf5762000fae62001a73565b5b906000526020600020015481525081526020016040518060400160405280600260008154811062000fe55762000fe462001a73565b5b9060005260206000200154815260200160036000815481106200100d576200100c62001a73565b5b90600052602060002001548152508152506045600082015181600001906002620010399291906200186a565b50602082015181600201906002620010539291906200186a565b5050506040518060400160405280600181526020016002815250604960008201518160000155602082015181600101555050604051806040016040528060405180604001604052806000600181548110620010b357620010b262001a73565b5b9060005260206000200154815260200160018081548110620010da57620010d962001a73565b5b906000526020600020015481525081526020016040518060400160405280600260018154811062001110576200110f62001a73565b5b90600052602060002001548152602001600360018154811062001138576200113762001a73565b5b9060005260206000200154815250815250604b600082015181600001906002620011649291906200186a565b506020820151816002019060026200117e9291906200186a565b505050604051806040016040528060405180604001604052806004600281548110620011af57620011ae62001a73565b5b906000526020600020015481526020016005600281548110620011d757620011d662001a73565b5b90600052602060002001548152508152602001604051806040016040528060066002815481106200120d576200120c62001a73565b5b90600052602060002001548152602001600760028154811062001235576200123462001a73565b5b9060005260206000200154815250815250604f600082015181600001906002620012619291906200186a565b506020820151816002019060026200127b9291906200186a565b5050507f30644e72e131a029b85045b68181585d2833e84879b9709143e1f593f000000180620012b057620012af62001aa2565b5b6029600160058110620012c857620012c762001a73565b5b01546029600060058110620012e257620012e162001a73565b5b0154096053557f21d1ad4787778ebe1fe648796a728cba28fdc1b56fda844fc2f5bf686ba122d7605455604051806040016040528060296001600581106200132f576200132e62001a73565b5b0154815260200160296001600581106200134e576200134d62001a73565b5b01548152506055906002620013659291906200186a565b50604051806040016040528060535481526020016053548152506057906002620013919291906200186a565b5060405180602001604052806029600160058110620013b557620013b462001a73565b5b01548152506059906001620013cc929190620019ca565b5060405180606001604052806029600160058110620013f057620013ef62001a73565b5b0154815260200160296001600581106200140f576200140e62001a73565b5b0154815260200160296001600581106200142e576200142d62001a73565b5b0154815250605a9060036200144592919062001a0f565b506040518060200160405280602960016005811062001469576200146862001a73565b5b0154815250605d90600162001480929190620019ca565b5060405180602001604052806029600160058110620014a457620014a362001a73565b5b0154815250605e906001620014bb929190620019ca565b5060405180602001604052806029600160058110620014df57620014de62001a73565b5b0154815250605f906001620014f6929190620019ca565b50604051806020016040528060296001600581106200151a576200151962001a73565b5b0154815250606090600162001531929190620019ca565b506040518060400160405280602960016005811062001555576200155462001a73565b5b01548152602001602960016005811062001574576200157362001a73565b5b015481525060619060026200158b9291906200186a565b50604051806040016040528060535481526020016053548152506063906002620015b79291906200186a565b5060405180602001604052806029600160058110620015db57620015da62001a73565b5b01548152506065906001620015f2929190620019ca565b506040518060600160405280602960016005811062001616576200161562001a73565b5b01548152602001602960016005811062001635576200163462001a73565b5b01548152602001602960016005811062001654576200165362001a73565b5b015481525060669060036200166b92919062001a0f565b50604051806020016040528060296001600581106200168f576200168e62001a73565b5b01548152506069906001620016a6929190620019ca565b5060405180602001604052806029600160058110620016ca57620016c962001a73565b5b0154815250606a906001620016e1929190620019ca565b506040518060200160405280602960016005811062001705576200170462001a73565b5b0154815250606b9060016200171c929190620019ca565b506040518060200160405280602960016005811062001740576200173f62001a73565b5b0154815250606c90600162001757929190620019ca565b503480156200176557600080fd5b5062001c7a565b60008160405160200162001781919062001b54565b60405160208183030381529060405280519060200120604051602001620017a9919062001bec565b604051602081830303815290604052805190602001209050919050565b82805482825590600052602060002090810192821562001805579160200282015b8281111562001804578251825591602001919060010190620017e7565b5b50905062001814919062001a54565b5090565b82805482825590600052602060002090810192821562001857579160200282015b828111156200185657825182559160200191906001019062001839565b5b50905062001866919062001a54565b5090565b82600281019282156200189c579160200282015b828111156200189b5782518255916020019190600101906200187e565b5b509050620018ab919062001a54565b5090565b8260158101928215620018e1579160200282015b82811115620018e0578251825591602001919060010190620018c3565b5b509050620018f0919062001a54565b5090565b826005810192821562001926579160200282015b828111156200192557825182559160200191906001019062001908565b5b50905062001935919062001a54565b5090565b828054620019479062001c45565b90600052602060002090601f0160209004810192826200196b5760008555620019b7565b82601f106200198657805160ff1916838001178555620019b7565b82800160010185558215620019b7579182015b82811115620019b657825182559160200191906001019062001999565b5b509050620019c6919062001a54565b5090565b8260018101928215620019fc579160200282015b82811115620019fb578251825591602001919060010190620019de565b5b50905062001a0b919062001a54565b5090565b826003810192821562001a41579160200282015b8281111562001a4057825182559160200191906001019062001a23565b5b50905062001a50919062001a54565b5090565b5b8082111562001a6f57600081600090555060010162001a55565b5090565b7f4e487b7100000000000000000000000000000000000000000000000000000000600052603260045260246000fd5b7f4e487b7100000000000000000000000000000000000000000000000000000000600052601260045260246000fd5b600081519050919050565b600081905092915050565b60005b8381101562001b0757808201518184015260208101905062001aea565b8381111562001b17576000848401525b50505050565b600062001b2a8262001ad1565b62001b36818562001adc565b935062001b4881856020860162001ae7565b80840191505092915050565b600062001b62828462001b1d565b915081905092915050565b7f19457468657265756d205369676e6564204d6573736167653a0a333200000000600082015250565b600062001ba5601c8362001adc565b915062001bb28262001b6d565b601c82019050919050565b6000819050919050565b6000819050919050565b62001be662001be08262001bbd565b62001bc7565b82525050565b600062001bf98262001b96565b915062001c07828462001bd1565b60208201915081905092915050565b7f4e487b7100000000000000000000000000000000000000000000000000000000600052602260045260246000fd5b6000600282049050600182168062001c5e57607f821691505b60208210810362001c745762001c7362001c16565b5b50919050565b613ca78062001c8a6000396000f3fe608060405234801561001057600080fd5b506004361061004c5760003560e01c80632d88635414610051578063903ae8901461006f5780639c22c9511461009f578063ffef4ff4146100bd575b600080fd5b6100596100db565b60405161006691906131da565b60405180910390f35b6100896004803603810190610084919061331b565b610d16565b60405161009691906131da565b60405180910390f35b6100a7611103565b6040516100b491906131da565b60405180910390f35b6100c5611c27565b6040516100d29190613391565b60405180910390f35b600080604460009054906101000a900473ffffffffffffffffffffffffffffffffffffffff1673ffffffffffffffffffffffffffffffffffffffff166101ad6042546043805461012a906133db565b80601f0160208091040260200160405190810160405280929190818152602001828054610156906133db565b80156101a35780601f10610178576101008083540402835291602001916101a3565b820191906000526020600020905b81548152906001019060200180831161018657829003601f168201915b5050505050611ce2565b73ffffffffffffffffffffffffffffffffffffffff161490506000604051806101000160405280604051806040016040528060146000601581106101f4576101f361340c565b5b0154815260200160146001601581106102105761020f61340c565b5b015481525081526020016040518060400160405280601460026015811061023a5761023961340c565b5b0154815260200160146003601581106102565761025561340c565b5b01548152508152602001604051806040016040528060146004601581106102805761027f61340c565b5b01548152602001601460056015811061029c5761029b61340c565b5b01548152508152602001604051806040016040528060146006601581106102c6576102c561340c565b5b0154815260200160146007601581106102e2576102e161340c565b5b015481525081526020016040518060400160405280601460086015811061030c5761030b61340c565b5b0154815260200160146009601581106103285761032761340c565b5b0154815250815260200160405180604001604052806014600a601581106103525761035161340c565b5b015481526020016014600b6015811061036e5761036d61340c565b5b0154815250815260200160405180604001604052806014600c601581106103985761039761340c565b5b015481526020016014600d601581106103b4576103b361340c565b5b0154815250815260200160405180604001604052806014600e601581106103de576103dd61340c565b5b015481526020016014600f601581106103fa576103f961340c565b5b0154815250815250905060006104106001611db5565b9050600061041e6002611db5565b9050600061042c6003611db5565b9050600061043a6004611db5565b905060006104486005611db5565b905060006104566006611db5565b905060006104646007611db5565b905060006104726008611db5565b9050600060405180604001604052806104896125e1565b81526020016104966125e1565b8152509050600061055161054b8c6000600881106104b7576104b661340c565b5b602002015161054661054160496040518060400160405290816000820154815260200160018201548152505060296002600581106104f8576104f761340c565b5b0154606160016002811061050f5761050e61340c565b5b015461051b919061346a565b60616000600281106105305761052f61340c565b5b015461053c91906134c4565b612605565b6126dd565b61279b565b8b612605565b90506106108161060b6106058e6001600881106105715761057061340c565b5b60200201516106006105fb60496040518060400160405290816000820154815260200160018201548152505060296002600581106105b2576105b161340c565b5b015460636001600281106105c9576105c861340c565b5b01546105d5919061346a565b60636000600281106105ea576105e961340c565b5b01546105f691906134c4565b612605565b6126dd565b61279b565b8c612605565b61279b565b905061068d816106886106828e6002600881106106305761062f61340c565b5b602002015161067d61067860496040518060400160405290816000820154815260200160018201548152505060656000600181106106715761067061340c565b5b0154612605565b6126dd565b61279b565b8b612605565b61279b565b90506107918161078c6107868e6003600881106106ad576106ac61340c565b5b602002015161078161077c604960405180604001604052908160008201548152602001600182015481525050600260296002600581106106f0576106ef61340c565b5b015460666002600381106107075761070661340c565b5b0154610713919061346a565b60296002600581106107285761072761340c565b5b0154606660016003811061073f5761073e61340c565b5b015461074b919061346a565b60666000600381106107605761075f61340c565b5b015461076c91906134c4565b61077691906134c4565b18612605565b6126dd565b61279b565b8a612605565b61279b565b905061080e816108096108038e6004600881106107b1576107b061340c565b5b60200201516107fe6107f960496040518060400160405290816000820154815260200160018201548152505060696000600181106107f2576107f161340c565b5b0154612605565b6126dd565b61279b565b89612605565b61279b565b905061088b816108866108808e60056008811061082e5761082d61340c565b5b602002015161087b610876604960405180604001604052908160008201548152602001600182015481525050606a60006001811061086f5761086e61340c565b5b0154612605565b6126dd565b61279b565b88612605565b61279b565b9050610908816109036108fd8e6006600881106108ab576108aa61340c565b5b60200201516108f86108f3604960405180604001604052908160008201548152602001600182015481525050606b6000600181106108ec576108eb61340c565b5b0154612605565b6126dd565b61279b565b87612605565b61279b565b90506109858161098061097a8e6007600881106109285761092761340c565b5b6020020151610975610970604960405180604001604052908160008201548152602001600182015481525050606c6000600181106109695761096861340c565b5b0154612605565b6126dd565b61279b565b86612605565b61279b565b90506109ec816109e76109e2856000600281106109a5576109a461340c565b5b60200201516109dd6049604051806040016040529081600082015481526020016001820154815250506109d86009611db5565b612605565b61279b565b6126dd565b61279b565b90506000610c3483600160028110610a0757610a0661340c565b5b6020020151604f60405180604001604052908160008201600280602002604051908101604052809291908260028015610a55576020028201915b815481526020019060010190808311610a41575b5050505050815260200160028201600280602002604051908101604052809291908260028015610a9a576020028201915b815481526020019060010190808311610a86575b505050505081525050610af886600160028110610aba57610ab961340c565b5b6020020151610af3610aee604960405180604001604052908160008201548152602001600182015481525050605454612605565b6126dd565b61279b565b604b60405180604001604052908160008201600280602002604051908101604052809291908260028015610b41576020028201915b815481526020019060010190808311610b2d575b5050505050815260200160028201600280602002604051908101604052809291908260028015610b86576020028201915b815481526020019060010190808311610b72575b505050505081525050610b98876126dd565b604b60405180604001604052908160008201600280602002604051908101604052809291908260028015610be1576020028201915b815481526020019060010190808311610bcd575b5050505050815260200160028201600280602002604051908101604052809291908260028015610c26576020028201915b815481526020019060010190808311610c12575b505050505081525050612899565b90508c90506014600760158110610c4e57610c4d61340c565b5b01546014600660158110610c6557610c6461340c565b5b01541490506014600960158110610c7f57610c7e61340c565b5b01546014600860158110610c9657610c9561340c565b5b01541490506014600b60158110610cb057610caf61340c565b5b01546014600a60158110610cc757610cc661340c565b5b01541490507f9ebf19a79884326bf6ddfcf4bd501eb6a52b40414ecd5d8a70514f606810801e81604051610cfb91906131da565b60405180910390a1809d505050505050505050505050505090565b60007f30644e72e131a029b85045b68181585d2833e84879b9709143e1f593f0000001856000015110610d7e576040517f08c379a0000000000000000000000000000000000000000000000000000000008152600401610d759061359d565b60405180910390fd5b7f30644e72e131a029b85045b68181585d2833e84879b9709143e1f593f0000001856020015110610de4576040517f08c379a0000000000000000000000000000000000000000000000000000000008152600401610ddb9061362f565b60405180910390fd5b7f30644e72e131a029b85045b68181585d2833e84879b9709143e1f593f0000001846000015110610e4a576040517f08c379a0000000000000000000000000000000000000000000000000000000008152600401610e41906136c1565b60405180910390fd5b7f30644e72e131a029b85045b68181585d2833e84879b9709143e1f593f0000001846020015110610eb0576040517f08c379a0000000000000000000000000000000000000000000000000000000008152600401610ea790613753565b60405180910390fd5b7f30644e72e131a029b85045b68181585d2833e84879b9709143e1f593f00000018310610f12576040517f08c379a0000000000000000000000000000000000000000000000000000000008152600401610f09906137e5565b60405180910390fd5b7f30644e72e131a029b85045b68181585d2833e84879b9709143e1f593f00000018210610f74576040517f08c379a0000000000000000000000000000000000000000000000000000000008152600401610f6b90613877565b60405180910390fd5b6000610f9886610f93610f8e610f886125e1565b87612605565b6126dd565b61279b565b90506000610fa5866126dd565b90506000610fb38787612605565b90506110f6610fc2828561279b565b60456040518060400160405290816000820160028060200260405190810160405280929190826002801561100b576020028201915b815481526020019060010190808311610ff7575b5050505050815260200160028201600280602002604051908101604052809291908260028015611050576020028201915b81548152602001906001019080831161103c575b50505050508152505084604b604051806040016040529081600082016002806020026040519081016040528092919082600280156110a3576020028201915b81548152602001906001019080831161108f575b50505050508152602001600282016002806020026040519081016040528092919082600280156110e8576020028201915b8154815260200190600101908083116110d4575b505050505081525050612c01565b9350505050949350505050565b6000807f30644e72e131a029b85045b68181585d2833e84879b9709143e1f593f00000018061113557611134613897565b5b602f547f30644e72e131a029b85045b68181585d2833e84879b9709143e1f593f000000161116391906138c6565b7f30644e72e131a029b85045b68181585d2833e84879b9709143e1f593f00000018061119257611191613897565b5b7f30644e72e131a029b85045b68181585d2833e84879b9709143e1f593f0000001806111c1576111c0613897565b5b6030547f30644e72e131a029b85045b68181585d2833e84879b9709143e1f593f0000001806111f3576111f2613897565b5b6014600f601581106112085761120761340c565b5b01546014600c6015811061121f5761121e61340c565b5b015408087f30644e72e131a029b85045b68181585d2833e84879b9709143e1f593f00000018061125257611251613897565b5b60146009601581106112675761126661340c565b5b0154601460066015811061127e5761127d61340c565b5b015408090890506000604460009054906101000a900473ffffffffffffffffffffffffffffffffffffffff1673ffffffffffffffffffffffffffffffffffffffff16611356604254604380546112d3906133db565b80601f01602080910402602001604051908101604052809291908181526020018280546112ff906133db565b801561134c5780601f106113215761010080835404028352916020019161134c565b820191906000526020600020905b81548152906001019060200180831161132f57829003601f168201915b5050505050611ce2565b73ffffffffffffffffffffffffffffffffffffffff161490506000611429604051806040016040528060146000601581106113945761139361340c565b5b0154815260200160146001601581106113b0576113af61340c565b5b0154815250604051806040016040528060146007601581106113d5576113d461340c565b5b0154815260200160146008601581106113f1576113f061340c565b5b0154815250602960016005811061140b5761140a61340c565b5b015460146006601581106114225761142161340c565b5b0154610d16565b90506114cf6040518060400160405280601460006015811061144e5761144d61340c565b5b01548152602001601460016015811061146a5761146961340c565b5b015481525060405180604001604052806014600d6015811061148f5761148e61340c565b5b015481526020016014600e601581106114ab576114aa61340c565b5b01548152506053546014600c601581106114c8576114c761340c565b5b0154610d16565b9050611589604051806040016040528060146002601581106114f4576114f361340c565b5b0154815260200160146003601581106115105761150f61340c565b5b015481525060405180604001604052806014600a601581106115355761153461340c565b5b015481526020016014600b601581106115515761155061340c565b5b0154815250602960016005811061156b5761156a61340c565b5b015460146009601581106115825761158161340c565b5b0154610d16565b905061162f604051806040016040528060146002601581106115ae576115ad61340c565b5b0154815260200160146003601581106115ca576115c961340c565b5b0154815250604051806040016040528060146010601581106115ef576115ee61340c565b5b01548152602001601460116015811061160b5761160a61340c565b5b01548152506053546014600f601581106116285761162761340c565b5b0154610d16565b90506116d3604051806040016040528060146004601581106116545761165361340c565b5b0154815260200160146005601581106116705761166f61340c565b5b0154815250604051806040016040528060146012601581106116955761169461340c565b5b0154815260200160146013601581106116b1576116b061340c565b5b015481525060296001600581106116cb576116ca61340c565b5b015486610d16565b9050611777604051806040016040528060146004601581106116f8576116f761340c565b5b0154815260200160146005601581106117145761171361340c565b5b0154815250604051806040016040528060146012601581106117395761173861340c565b5b0154815260200160146013601581106117555761175461340c565b5b0154815250602960016005811061176f5761176e61340c565b5b015486610d16565b905061181b6040518060400160405280601460046015811061179c5761179b61340c565b5b0154815260200160146005601581106117b8576117b761340c565b5b0154815250604051806040016040528060146012601581106117dd576117dc61340c565b5b0154815260200160146013601581106117f9576117f861340c565b5b015481525060296001600581106118135761181261340c565b5b015486610d16565b90506118bf604051806040016040528060146004601581106118405761183f61340c565b5b01548152602001601460056015811061185c5761185b61340c565b5b0154815250604051806040016040528060146012601581106118815761188061340c565b5b01548152602001601460136015811061189d5761189c61340c565b5b015481525060296001600581106118b7576118b661340c565b5b015486610d16565b9050611963604051806040016040528060146004601581106118e4576118e361340c565b5b015481526020016014600560158110611900576118ff61340c565b5b0154815250604051806040016040528060146012601581106119255761192461340c565b5b0154815260200160146013601581106119415761194061340c565b5b0154815250602960016005811061195b5761195a61340c565b5b015486610d16565b9050611a07604051806040016040528060146004601581106119885761198761340c565b5b0154815260200160146005601581106119a4576119a361340c565b5b0154815250604051806040016040528060146012601581106119c9576119c861340c565b5b0154815260200160146013601581106119e5576119e461340c565b5b015481525060296001600581106119ff576119fe61340c565b5b015486610d16565b9050611aab60405180604001604052806014600460158110611a2c57611a2b61340c565b5b015481526020016014600560158110611a4857611a4761340c565b5b015481525060405180604001604052806014601260158110611a6d57611a6c61340c565b5b015481526020016014601360158110611a8957611a8861340c565b5b01548152506029600160058110611aa357611aa261340c565b5b015486610d16565b9050611b4f60405180604001604052806014600460158110611ad057611acf61340c565b5b015481526020016014600560158110611aec57611aeb61340c565b5b015481525060405180604001604052806014601260158110611b1157611b1061340c565b5b015481526020016014601360158110611b2d57611b2c61340c565b5b01548152506029600160058110611b4757611b4661340c565b5b015486610d16565b90508190506014600760158110611b6957611b6861340c565b5b01546014600660158110611b8057611b7f61340c565b5b01541490506014600960158110611b9a57611b9961340c565b5b01546014600860158110611bb157611bb061340c565b5b01541490506014600b60158110611bcb57611bca61340c565b5b01546014600a60158110611be257611be161340c565b5b01541490507f9ebf19a79884326bf6ddfcf4bd501eb6a52b40414ecd5d8a70514f606810801e81604051611c1691906131da565b60405180910390a180935050505090565b60008060cc905060006040905060006029600060058110611c4b57611c4a61340c565b5b0154905060007f30644e72e131a029b85045b68181585d2833e84879b9709143e1f593f000000190506000806001905060005b85811015611ca8578384828409840892508381830991508080611ca0906138fa565b915050611c7e565b506000611cbf611cb9868987612f5b565b85613053565b90508380611cd057611ccf613897565b5b83820992508297505050505050505090565b6000806000806041855114611cfd5760009350505050611daf565b6020850151925060408501519150606085015160001a9050601b8160ff161015611d3157601b81611d2e919061394f565b90505b601b8160ff1614158015611d495750601c8160ff1614155b15611d5a5760009350505050611daf565b60018682858560405160008152602001604052604051611d7d94939291906139ae565b6020604051602081039080840390855afa158015611d9f573d6000803e3d6000fd5b5050506020604051035193505050505b92915050565b6000806001905060018314611f12577f30644e72e131a029b85045b68181585d2833e84879b9709143e1f593f000000180611df357611df2613897565b5b7f30644e72e131a029b85045b68181585d2833e84879b9709143e1f593f000000180611e2257611e21613897565b5b6055600060028110611e3757611e3661340c565b5b01547f30644e72e131a029b85045b68181585d2833e84879b9709143e1f593f0000001611e6491906138c6565b605454087f30644e72e131a029b85045b68181585d2833e84879b9709143e1f593f000000180611e9757611e96613897565b5b7f30644e72e131a029b85045b68181585d2833e84879b9709143e1f593f000000180611ec657611ec5613897565b5b6055600160028110611edb57611eda61340c565b5b01547f30644e72e131a029b85045b68181585d2833e84879b9709143e1f593f0000001611f0891906138c6565b6054540884090990505b60028314612068577f30644e72e131a029b85045b68181585d2833e84879b9709143e1f593f000000180611f4957611f48613897565b5b7f30644e72e131a029b85045b68181585d2833e84879b9709143e1f593f000000180611f7857611f77613897565b5b6057600060028110611f8d57611f8c61340c565b5b01547f30644e72e131a029b85045b68181585d2833e84879b9709143e1f593f0000001611fba91906138c6565b605454087f30644e72e131a029b85045b68181585d2833e84879b9709143e1f593f000000180611fed57611fec613897565b5b7f30644e72e131a029b85045b68181585d2833e84879b9709143e1f593f00000018061201c5761201b613897565b5b60576001600281106120315761203061340c565b5b01547f30644e72e131a029b85045b68181585d2833e84879b9709143e1f593f000000161205e91906138c6565b6054540884090990505b60038314612119577f30644e72e131a029b85045b68181585d2833e84879b9709143e1f593f00000018061209f5761209e613897565b5b7f30644e72e131a029b85045b68181585d2833e84879b9709143e1f593f0000001806120ce576120cd613897565b5b60596000600181106120e3576120e261340c565b5b01547f30644e72e131a029b85045b68181585d2833e84879b9709143e1f593f000000161211091906138c6565b60545408820990505b60048314612314577f30644e72e131a029b85045b68181585d2833e84879b9709143e1f593f0000001806121505761214f613897565b5b7f30644e72e131a029b85045b68181585d2833e84879b9709143e1f593f00000018061217f5761217e613897565b5b605a6000600381106121945761219361340c565b5b01547f30644e72e131a029b85045b68181585d2833e84879b9709143e1f593f00000016121c191906138c6565b605454087f30644e72e131a029b85045b68181585d2833e84879b9709143e1f593f0000001806121f4576121f3613897565b5b7f30644e72e131a029b85045b68181585d2833e84879b9709143e1f593f00000018061222357612222613897565b5b605a6001600381106122385761223761340c565b5b01547f30644e72e131a029b85045b68181585d2833e84879b9709143e1f593f000000161226591906138c6565b605454087f30644e72e131a029b85045b68181585d2833e84879b9709143e1f593f00000018061229857612297613897565b5b7f30644e72e131a029b85045b68181585d2833e84879b9709143e1f593f0000001806122c7576122c6613897565b5b605a6002600381106122dc576122db61340c565b5b01547f30644e72e131a029b85045b68181585d2833e84879b9709143e1f593f000000161230991906138c6565b605454088609090990505b600583146123c5577f30644e72e131a029b85045b68181585d2833e84879b9709143e1f593f00000018061234b5761234a613897565b5b7f30644e72e131a029b85045b68181585d2833e84879b9709143e1f593f00000018061237a57612379613897565b5b605d60006001811061238f5761238e61340c565b5b01547f30644e72e131a029b85045b68181585d2833e84879b9709143e1f593f00000016123bc91906138c6565b60545408820990505b60068314612476577f30644e72e131a029b85045b68181585d2833e84879b9709143e1f593f0000001806123fc576123fb613897565b5b7f30644e72e131a029b85045b68181585d2833e84879b9709143e1f593f00000018061242b5761242a613897565b5b605e6000600181106124405761243f61340c565b5b01547f30644e72e131a029b85045b68181585d2833e84879b9709143e1f593f000000161246d91906138c6565b60545408820990505b60078314612527577f30644e72e131a029b85045b68181585d2833e84879b9709143e1f593f0000001806124ad576124ac613897565b5b7f30644e72e131a029b85045b68181585d2833e84879b9709143e1f593f0000001806124dc576124db613897565b5b605f6000600181106124f1576124f061340c565b5b01547f30644e72e131a029b85045b68181585d2833e84879b9709143e1f593f000000161251e91906138c6565b60545408820990505b600883146125d8577f30644e72e131a029b85045b68181585d2833e84879b9709143e1f593f00000018061255e5761255d613897565b5b7f30644e72e131a029b85045b68181585d2833e84879b9709143e1f593f00000018061258d5761258c613897565b5b60606000600181106125a2576125a161340c565b5b01547f30644e72e131a029b85045b68181585d2833e84879b9709143e1f593f00000016125cf91906138c6565b60545408820990505b80915050919050565b6125e961313f565b6040518060400160405280600181526020016002815250905090565b61260d61313f565b612615613159565b83600001518160006003811061262e5761262d61340c565b5b6020020181815250508360200151816001600381106126505761264f61340c565b5b602002018181525050828160026003811061266e5761266d61340c565b5b602002018181525050600060608360808460076107d05a03fa9050806000810361269457fe5b50806126d5576040517f08c379a00000000000000000000000000000000000000000000000000000000081526004016126cc90613a3f565b60405180910390fd5b505092915050565b6126e561313f565b600082600001511480156126fd575060008260200151145b156127205760405180604001604052806000815260200160008152509050612796565b6040518060400160405280836000015181526020017f30644e72e131a029b85045b68181585d97816a916871ca8d3c208c16d87cfd4784602001516127659190613a5f565b7f30644e72e131a029b85045b68181585d97816a916871ca8d3c208c16d87cfd4761279091906138c6565b81525090505b919050565b6127a361313f565b6127ab61317b565b8360000151816000600481106127c4576127c361340c565b5b6020020181815250508360200151816001600481106127e6576127e561340c565b5b6020020181815250508260000151816002600481106128085761280761340c565b5b60200201818152505082602001518160036004811061282a5761282961340c565b5b602002018181525050600060608360c08460066107d05a03fa9050806000810361285057fe5b5080612891576040517f08c379a000000000000000000000000000000000000000000000000000000000815260040161288890613adc565b60405180910390fd5b505092915050565b60008060405180606001604052808981526020018781526020018581525090506000604051806060016040528089815260200187815260200185815250905060006012905060008167ffffffffffffffff8111156128fa576128f961321a565b5b6040519080825280602002602001820160405280156129285781602001602082028036833780820191505090505b50905060005b6003811015612b66576000600682612946919061346a565b905085826003811061295b5761295a61340c565b5b6020020151600001518360008361297291906134c4565b815181106129835761298261340c565b5b6020026020010181815250508582600381106129a2576129a161340c565b5b602002015160200151836001836129b991906134c4565b815181106129ca576129c961340c565b5b6020026020010181815250508482600381106129e9576129e861340c565b5b602002015160000151600060028110612a0557612a0461340c565b5b602002015183600283612a1891906134c4565b81518110612a2957612a2861340c565b5b602002602001018181525050848260038110612a4857612a4761340c565b5b602002015160000151600160028110612a6457612a6361340c565b5b602002015183600383612a7791906134c4565b81518110612a8857612a8761340c565b5b602002602001018181525050848260038110612aa757612aa661340c565b5b602002015160200151600060028110612ac357612ac261340c565b5b602002015183600483612ad691906134c4565b81518110612ae757612ae661340c565b5b602002602001018181525050848260038110612b0657612b0561340c565b5b602002015160200151600160028110612b2257612b2161340c565b5b602002015183600583612b3591906134c4565b81518110612b4657612b4561340c565b5b602002602001018181525050508080612b5e906138fa565b91505061292e565b50612b6f61319d565b6000602082602086026020860160086107d05a03fa90508060008103612b9157fe5b5080612bd2576040517f08c379a0000000000000000000000000000000000000000000000000000000008152600401612bc990613b48565b60405180910390fd5b600082600060018110612be857612be761340c565b5b6020020151141596505050505050509695505050505050565b6000806040518060400160405280878152602001858152509050600060405180604001604052808781526020018581525090506000600c905060008167ffffffffffffffff811115612c5657612c5561321a565b5b604051908082528060200260200182016040528015612c845781602001602082028036833780820191505090505b50905060005b6002811015612ec2576000600682612ca2919061346a565b9050858260028110612cb757612cb661340c565b5b60200201516000015183600083612cce91906134c4565b81518110612cdf57612cde61340c565b5b602002602001018181525050858260028110612cfe57612cfd61340c565b5b60200201516020015183600183612d1591906134c4565b81518110612d2657612d2561340c565b5b602002602001018181525050848260028110612d4557612d4461340c565b5b602002015160000151600060028110612d6157612d6061340c565b5b602002015183600283612d7491906134c4565b81518110612d8557612d8461340c565b5b602002602001018181525050848260028110612da457612da361340c565b5b602002015160000151600160028110612dc057612dbf61340c565b5b602002015183600383612dd391906134c4565b81518110612de457612de361340c565b5b602002602001018181525050848260028110612e0357612e0261340c565b5b602002015160200151600060028110612e1f57612e1e61340c565b5b602002015183600483612e3291906134c4565b81518110612e4357612e4261340c565b5b602002602001018181525050848260028110612e6257612e6161340c565b5b602002015160200151600160028110612e7e57612e7d61340c565b5b602002015183600583612e9191906134c4565b81518110612ea257612ea161340c565b5b602002602001018181525050508080612eba906138fa565b915050612c8a565b50612ecb61319d565b6000602082602086026020860160086107d05a03fa90508060008103612eed57fe5b5080612f2e576040517f08c379a0000000000000000000000000000000000000000000000000000000008152600401612f2590613b48565b60405180910390fd5b600082600060018110612f4457612f4361340c565b5b602002015114159650505050505050949350505050565b6000808203612f9f576040517f08c379a0000000000000000000000000000000000000000000000000000000008152600401612f9690613bb4565b60405180910390fd5b60008403612fb0576000905061304c565b60008303612fc1576001905061304c565b60006001905060007f800000000000000000000000000000000000000000000000000000000000000090505b600081111561304657838186161515870a85848509099150836002820486161515870a85848509099150836004820486161515870a85848509099150836008820486161515870a85848509099150601081049050612fed565b81925050505b9392505050565b60008083141580156130655750818314155b8015613072575060008214155b6130b1576040517f08c379a00000000000000000000000000000000000000000000000000000000081526004016130a890613c20565b60405180910390fd5b60008060019050600084905060005b600087146131325786826130d49190613c40565b90508286806130e6576130e5613897565b5b87806130f5576130f4613897565b5b8584098861310391906138c6565b8608809450819550505086878261311a919061346a565b8361312591906138c6565b80985081935050506130c0565b8394505050505092915050565b604051806040016040528060008152602001600081525090565b6040518060600160405280600390602082028036833780820191505090505090565b6040518060800160405280600490602082028036833780820191505090505090565b6040518060200160405280600190602082028036833780820191505090505090565b60008115159050919050565b6131d4816131bf565b82525050565b60006020820190506131ef60008301846131cb565b92915050565b6000604051905090565b600080fd5b600080fd5b6000601f19601f8301169050919050565b7f4e487b7100000000000000000000000000000000000000000000000000000000600052604160045260246000fd5b61325282613209565b810181811067ffffffffffffffff821117156132715761327061321a565b5b80604052505050565b60006132846131f5565b90506132908282613249565b919050565b6000819050919050565b6132a881613295565b81146132b357600080fd5b50565b6000813590506132c58161329f565b92915050565b6000604082840312156132e1576132e0613204565b5b6132eb604061327a565b905060006132fb848285016132b6565b600083015250602061330f848285016132b6565b60208301525092915050565b60008060008060c08587031215613335576133346131ff565b5b6000613343878288016132cb565b9450506040613354878288016132cb565b9350506080613365878288016132b6565b92505060a0613376878288016132b6565b91505092959194509250565b61338b81613295565b82525050565b60006020820190506133a66000830184613382565b92915050565b7f4e487b7100000000000000000000000000000000000000000000000000000000600052602260045260246000fd5b600060028204905060018216806133f357607f821691505b602082108103613406576134056133ac565b5b50919050565b7f4e487b7100000000000000000000000000000000000000000000000000000000600052603260045260246000fd5b7f4e487b7100000000000000000000000000000000000000000000000000000000600052601160045260246000fd5b600061347582613295565b915061348083613295565b9250817fffffffffffffffffffffffffffffffffffffffffffffffffffffffffffffffff04831182151516156134b9576134b861343b565b5b828202905092915050565b60006134cf82613295565b91506134da83613295565b9250827fffffffffffffffffffffffffffffffffffffffffffffffffffffffffffffffff0382111561350f5761350e61343b565b5b828201905092915050565b600082825260208201905092915050565b7f56657269666965722e7665726966794b5a473a205f636f6d6d69746d656e742e60008201527f58206973206f7574206f662072616e6765000000000000000000000000000000602082015250565b600061358760318361351a565b91506135928261352b565b604082019050919050565b600060208201905081810360008301526135b68161357a565b9050919050565b7f56657269666965722e7665726966794b5a473a205f636f6d6d69746d656e742e60008201527f59206973206f7574206f662072616e6765000000000000000000000000000000602082015250565b600061361960318361351a565b9150613624826135bd565b604082019050919050565b600060208201905081810360008301526136488161360c565b9050919050565b7f56657269666965722e7665726966794b5a473a205f70726f6f662e582069732060008201527f6f7574206f662072616e67650000000000000000000000000000000000000000602082015250565b60006136ab602c8361351a565b91506136b68261364f565b604082019050919050565b600060208201905081810360008301526136da8161369e565b9050919050565b7f56657269666965722e7665726966794b5a473a205f70726f6f662e592069732060008201527f6f7574206f662072616e67650000000000000000000000000000000000000000602082015250565b600061373d602c8361351a565b9150613748826136e1565b604082019050919050565b6000602082019050818103600083015261376c81613730565b9050919050565b7f56657269666965722e7665726966794b5a473a205f696e646578206973206f7560008201527f74206f662072616e676500000000000000000000000000000000000000000000602082015250565b60006137cf602a8361351a565b91506137da82613773565b604082019050919050565b600060208201905081810360008301526137fe816137c2565b9050919050565b7f56657269666965722e7665726966794b5a473a205f76616c7565206973206f7560008201527f74206f662072616e676500000000000000000000000000000000000000000000602082015250565b6000613861602a8361351a565b915061386c82613805565b604082019050919050565b6000602082019050818103600083015261389081613854565b9050919050565b7f4e487b7100000000000000000000000000000000000000000000000000000000600052601260045260246000fd5b60006138d182613295565b91506138dc83613295565b9250828210156138ef576138ee61343b565b5b828203905092915050565b600061390582613295565b91507fffffffffffffffffffffffffffffffffffffffffffffffffffffffffffffffff82036139375761393661343b565b5b600182019050919050565b600060ff82169050919050565b600061395a82613942565b915061396583613942565b92508260ff0382111561397b5761397a61343b565b5b828201905092915050565b6000819050919050565b61399981613986565b82525050565b6139a881613942565b82525050565b60006080820190506139c36000830187613990565b6139d0602083018661399f565b6139dd6040830185613990565b6139ea6060830184613990565b95945050505050565b7f70616972696e672d6d756c2d6661696c65640000000000000000000000000000600082015250565b6000613a2960128361351a565b9150613a34826139f3565b602082019050919050565b60006020820190508181036000830152613a5881613a1c565b9050919050565b6000613a6a82613295565b9150613a7583613295565b925082613a8557613a84613897565b5b828206905092915050565b7f70616972696e672d6164642d6661696c65640000000000000000000000000000600082015250565b6000613ac660128361351a565b9150613ad182613a90565b602082019050919050565b60006020820190508181036000830152613af581613ab9565b9050919050565b7f70616972696e672d6f70636f64652d6661696c65640000000000000000000000600082015250565b6000613b3260158361351a565b9150613b3d82613afc565b602082019050919050565b60006020820190508181036000830152613b6181613b25565b9050919050565b7f4d6f64756c7573206973207a65726f0000000000000000000000000000000000600082015250565b6000613b9e600f8361351a565b9150613ba982613b68565b602082019050919050565b60006020820190508181036000830152613bcd81613b91565b9050919050565b7f496e76616c6964206e756d626572000000000000000000000000000000000000600082015250565b6000613c0a600e8361351a565b9150613c1582613bd4565b602082019050919050565b60006020820190508181036000830152613c3981613bfd565b9050919050565b6000613c4b82613295565b9150613c5683613295565b925082613c6657613c65613897565b5b82820490509291505056fea26469706673582212208749fa10e25f4a765f8f04f4f5cab6844f76cfdc0bce8aaf27282f7a65da717e64736f6c634300080d003332303930303432393839393239313030393037333239393238393436393636303134393731363738353539363235313439313330303639323033353638313439323031363933393137393235372c2034333336393130323335363836393631353338323835393936353237323731373734393336373139303538383334353439353338363836303430373438373135323833383132323030393719ec5dc5aa05a220cd210a113352596ebf80d06a6f776b8e0c656e50a5c5567f1e8a7f23fb27f77ea5b5d42f0e2384facdebebd85f026e2a73e94d4690a40a6801",
  "immutableReferences": {},
  "source": "// Modified from https://github.com/appliedzkp/semaphore/blob/master/contracts/sol/verifier.sol\r\n// SPDX-License-Identifier: MIT\r\npragma solidity >=0.4.22 <0.9.0;\r\npragma experimental ABIEncoderV2;\r\nimport \"./Pairing.sol\";\r\n// import \"./PolyCoeff.sol\";\r\nimport { Constants } from \"./Constants.sol\";\r\n// import \"@openzeppelin/contracts/utils/Strings.sol\";\r\n\r\ncontract Verifier is Constants {\r\n\r\n    using Pairing for *;\r\n\r\n    // PolyCoeff polyCoeff;\r\n\r\n    event verifyResult(bool result);\r\n    // description in F below\r\n    uint256[21] Proof = [\r\n        uint256(20435686948508171234472206488737953800505595616105823290561271581793730135986),\r\n        uint256(7613038940582986439878577004424311309737615170791456916446723479068371769225),\r\n        uint256(20900429899291009073299289469660149716785596251491300692035681492016939179257),\r\n        uint256(17015433841169487450406840425175642150965883946544965612916879717959251917877),\r\n        uint256(433691023568696153828599652727177493671905883454953868604074871528381220097),\r\n        uint256(10320531664273889342578906132837836076031009559738199149165995480549188738219),\r\n        uint256(5841514956038981489672186264970094693930045609713312309929445225955171101947),\r\n        uint256(5021024840007099401420413415719005463562614305701472747429400657816854795888),\r\n        uint256(20774065911754029615648528083815650325450840922528127398846513310899898519818),\r\n        uint256(15033194806153309440324576121312701377491848712637707126378339071163915088607),\r\n        uint256(13797601081368067296147105517336555699959400728196376360418452678919689273357),\r\n        uint256(347536244405038501480645670232637364896709701574004323632284243300674648233),\r\n        uint256(14150985670258525975582637074878024272235049272474457475329855381177734047698),\r\n        uint256(2655786006985334435742353147654701867454007390061009682990360208958229883457),\r\n        uint256(19749978915220999581635876327451130211831443864540429941950424972239040718725),\r\n        uint256(18652734379260577017619098828238354228621932558467343220803598526754221068969),\r\n        uint256(19231643171984527412379363884712632725022106910875011856721870145973184299950),\r\n        uint256(11890584382703984881384687349129438589403848436060509080598302278432395889958),\r\n        uint256(19848703903105846067635106277601755727734486581037082434405934553883502968806),\r\n        uint256(7073067203970200196273245091229017314841577127190841947842173598530677375580),\r\n        uint256(11142795172845103846997117758219330284910812886430955732663385421662518242916)\r\n    ];\r\n\r\n    uint256[5] Randoms = [\r\n        uint256(21356640755055926883299664242251323519715676831624930462071588778907420237277),\r\n        uint256(21284924740537517593391635090683107806948436131904811688892120057033464016678),\r\n        uint256(21245863740537517593391635090683107806948436131465498421988152500056051919194), // z\r\n        uint256(21310127601857075097195740179019725106470167450176016701474654076975565675629), // alpha\r\n        uint256(21300179784197405894513072539865320928097398620497813074953097024203243212233) // beta\r\n    ];\r\n    // length of longest u,v,w, i.e. longest length of a,b,c, linear\r\n    uint256 N = 2994;\r\n\r\n    uint256 evalK = uint256(11598511819595573397693757683043215863237090817957830497519701049476846220233);\r\n    uint256 evalS = Proof[20];\r\n\r\n    // SOCC_hscS = [G1Point S_j, uint256 s_j, G1Point W_j]\r\n    uint256[5] SOCC_hscS = [\r\n        uint256(4856595452220518861283513887787149560249872199754148373623768058895650888886),\r\n        uint256(18903793806709064235976701805982270837399009185115750427816521247566249210556),\r\n        uint256(11142795172845103846997117758219330284910812886430955732663385421662518242916),\r\n        uint256(21371202341828297453905088304285070177929072675831707150146249345026206448204),\r\n        uint256(2804295765584777874267821186909392907007222244895837511075392229436674961086)\r\n    ];\r\n    // SOCC_hscW = [uint256 s'_j,G1Point W'_j, G1Point Q_j]\r\n    uint256[5] SOCC_hscW = [\r\n        uint256(10516069979663785554384039720791935537971662430097624533692998141893610132813),\r\n        uint256(4047408704098476939730481302397316844045052246660100325786631118072453155095),\r\n        uint256(3536770324764440576997419732517461268782698510962602892817204324264966117745),\r\n        uint256(14245367996788138561788347307320292816184394224142842975302936827932398609764),\r\n        uint256(4809015920432886449944012129537258787815219963382067822305826740230093200527)\r\n    ];\r\n\r\n    Pairing.G1Point hscQv = Pairing.G1Point(\r\n        uint256(2990558601454446836641627272921201963123578559834602407524792456795005493261),\r\n        uint256(13202662347545347168000079135411531495309137838398006144762638337293564502641)\r\n    );\r\n    Pairing.G1Point hscC = Pairing.G1Point(\r\n        uint256(20354021681082976488982424663336191185782081465046767166624106617637273115698),\r\n        uint256(7434894914590215425794637416957100516507193983165584369402225555559623348194)\r\n    );\r\n\r\n    uint256 u = uint256(8197071660809916300712359474937866146139983659726903111927633346212682272753);\r\n    uint256 v = uint256(18304223670379022123371455395869338667757056554451611927086438308637909615067);\r\n\r\n    // from terminal\r\n    uint256 s_uv = uint256(7791702837224372263152657165191932519240106980588006270334507770946892728366);\r\n\r\n    // from Go\r\n    bytes32 message = ethMessageHash(\"20900429899291009073299289469660149716785596251491300692035681492016939179257, 433691023568696153828599652727177493671905883454953868604074871528381220097\");\r\n    bytes sig = hex\"19ec5dc5aa05a220cd210a113352596ebf80d06a6f776b8e0c656e50a5c5567f1e8a7f23fb27f77ea5b5d42f0e2384facdebebd85f026e2a73e94d4690a40a6801\";\r\n    address addr = 0xE448992FdEaF94784bBD8f432d781C061D907985;\r\n\r\n    // The G2 generator\r\n    // IMPORTANT: why it's here? because the G2Gen() doesn't work in verify() for unknown reason\r\n    Pairing.G2Point g2Generator = Pairing.G2Point({\r\n        X: [ Constants.SRS_G2_X_0[0], Constants.SRS_G2_X_1[0] ],\r\n        Y: [ Constants.SRS_G2_Y_0[0], Constants.SRS_G2_Y_1[0] ]\r\n    });\r\n    // g\r\n    Pairing.G1Point g = Pairing.G1Point(1, 2);\r\n    // xCommit in verify(), I think it's h in SRS\r\n    Pairing.G2Point SRS_G2_1 = Pairing.G2Point({\r\n        X: [ Constants.SRS_G2_X_0[1], Constants.SRS_G2_X_1[1] ],\r\n        Y: [ Constants.SRS_G2_Y_0[1], Constants.SRS_G2_Y_1[1] ]\r\n    });\r\n    // h^\r\n    Pairing.G2Point SRS_G2_2 = Pairing.G2Point({\r\n        X: [ SRS_G2_X_0_Pos[2], SRS_G2_X_1_Pos[2] ],\r\n        Y: [ SRS_G2_Y_0_Pos[2], SRS_G2_Y_1_Pos[2] ]\r\n    });\r\n    uint256 yz = mulmod(Randoms[0], Randoms[1], Pairing.BABYJUB_P);\r\n    // z, z < BABYJUB_P\r\n    uint256 z = uint256(15296790970327023790902573209632219845262752031560971643217337210279580213975);\r\n    // S, each element < BABYJUB_P\r\n    uint256[2] S1 = [Randoms[1], Randoms[1]];\r\n    uint256[2] S2 = [yz,  yz];\r\n    uint256[1] S3 = [Randoms[1]];\r\n    uint256[3] S4 = [Randoms[1], Randoms[1], Randoms[1]];\r\n    uint256[1] S5 = [Randoms[1]];\r\n    uint256[1] S6 = [Randoms[1]];\r\n    uint256[1] S7 = [Randoms[1]];\r\n    uint256[1] S8 = [Randoms[1]];\r\n    // gamma [0] + [1]*z + [2]*z^2 + ...\r\n    uint256[2] gamma1 = [Randoms[1], Randoms[1]];\r\n    uint256[2] gamma2 = [yz,  yz];\r\n    uint256[1] gamma3 = [Randoms[1]];\r\n    uint256[3] gamma4 = [Randoms[1], Randoms[1], Randoms[1]];\r\n    uint256[1] gamma5 = [Randoms[1]];\r\n    uint256[1] gamma6 = [Randoms[1]];\r\n    uint256[1] gamma7 = [Randoms[1]];\r\n    uint256[1] gamma8 = [Randoms[1]];\r\n\r\n\r\n    // Sonic version - Verify a single-point evaluation of a polynominal\r\n    // function verify(\r\n    //     Pairing.G1Point memory _commitment, // F\r\n    //     Pairing.G1Point memory _proof, // W\r\n    //     uint256 _index,  // z\r\n    //     uint256 _value,  // F(z) or v\r\n    //     uint proofIndex\r\n    //     //bool isT\r\n    // ) public view returns (bool) {\r\n    //     // Make sure each parameter is less than the prime q\r\n    //     require(_commitment.X < BABYJUB_P, \"Verifier.verifyKZG: _commitment.X is out of range\");\r\n    //     require(_commitment.Y < BABYJUB_P, \"Verifier.verifyKZG: _commitment.Y is out of range\");\r\n    //     require(_proof.X < BABYJUB_P, \"Verifier.verifyKZG: _proof.X is out of range\");\r\n    //     require(_proof.Y < BABYJUB_P, \"Verifier.verifyKZG: _proof.Y is out of range\");\r\n    //     require(_index < BABYJUB_P, \"Verifier.verifyKZG: _index is out of range\");\r\n    //     require(_value < BABYJUB_P, \"Verifier.verifyKZG: _value is out of range\");\r\n       \r\n    //     Pairing.G1Point memory negProof = Pairing.negate(Pairing.mulScalar(_proof, _index));\r\n    //     Pairing.G1Point memory mulProof = Pairing.plus(Pairing.mulScalar(Constants.G1Gen(), _value), negProof);\r\n    //     Pairing.G1Point memory negCm = Pairing.negate(_commitment);\r\n\r\n    //     return Pairing.pairing(_proof, Constants.SRS_G2_hAlphaX1(proofIndex),\r\n    //                             mulProof, Constants.SRS_G2_hAlphaX0(proofIndex));\r\n    //                             //negCm, Constants.SRS_G2_hAlphaXdMax(proofIndex, isT)\r\n    // }\r\n\r\n    // KZG version - Verify a single-point evaluation of a polynominal\r\n    /*\r\n     * Verifies a single-point evaluation of a polynominal using the KZG\r\n     * commitment scheme.\r\n     *    - p(X) is a polynominal\r\n     *    - _value = p(_index) \r\n     *    - commitment = commit(p)\r\n     *    - proof = genProof(p, _index, _value)\r\n     * Returns true if and only if the following holds, and returns false\r\n     * otherwise:\r\n     *     e(commitment - commit([_value]), G2.g) == e(proof, commit([0, 1]) - zCommit)\r\n     * @param _commitment The KZG polynominal commitment.\r\n     * @param _proof The proof.\r\n     * @param _index The x-value at which to evaluate the polynominal.\r\n     * @param _value The result of the polynominal evaluation.\r\n     */\r\n    function verify(\r\n        Pairing.G1Point memory _commitment, // F\r\n        Pairing.G1Point memory _proof, // \r\n        uint256 _index,  // z\r\n        uint256 _value  // F(z) or v\r\n        //uint proofIndex\r\n    ) public view returns (bool) {\r\n        // Make sure each parameter is less than the prime q\r\n        require(_commitment.X < BABYJUB_P, \"Verifier.verifyKZG: _commitment.X is out of range\");\r\n        require(_commitment.Y < BABYJUB_P, \"Verifier.verifyKZG: _commitment.Y is out of range\");\r\n        require(_proof.X < BABYJUB_P, \"Verifier.verifyKZG: _proof.X is out of range\");\r\n        require(_proof.Y < BABYJUB_P, \"Verifier.verifyKZG: _proof.Y is out of range\");\r\n        require(_index < BABYJUB_P, \"Verifier.verifyKZG: _index is out of range\");\r\n        require(_value < BABYJUB_P, \"Verifier.verifyKZG: _value is out of range\");\r\n        // Check that \r\n        //     e(commitment - aCommit, G2.g) == e(proof, xCommit - zCommit)\r\n        //     e(commitment - aCommit, G2.g) / e(proof, xCommit - zCommit) == 1\r\n        //     e(commitment - aCommit, G2.g) * e(proof, xCommit - zCommit) ^ -1 == 1\r\n        //     e(commitment - aCommit, G2.g) * e(-proof, xCommit - zCommit) == 1\r\n        // where:\r\n        //     aCommit = commit([_value]) = SRS_G1_0 * _value\r\n        //     xCommit = commit([0, 1]) = SRS_G2_1\r\n        //     zCommit = commit([_index]) = SRS_G2_1 * _index\r\n\r\n        // To avoid having to perform an expensive operation in G2 to compute\r\n        // xCommit - zCommit, we instead check the equivalent equation:\r\n        //     e(commitment - aCommit, G2.g) * e(-proof, xCommit) * e(-proof, -zCommit) == 1\r\n        //     e(commitment - aCommit, G2.g) * e(-proof, xCommit) * e(proof, zCommit) == 1\r\n        //     e(commitment - aCommit, G2.g) * e(-proof, xCommit) * e(index * proof, G2.g) == 1\r\n        //     e((index * proof) + (commitment - aCommit), G2.g) * e(-proof, xCommit) == 1\r\n\r\n        // Compute commitment - aCommitment\r\n        Pairing.G1Point memory commitmentMinusA = Pairing.plus(\r\n            _commitment,\r\n            Pairing.negate(\r\n                Pairing.mulScalar(Constants.G1Gen(), _value)\r\n            )\r\n        );\r\n\r\n        // Negate the proof\r\n        Pairing.G1Point memory negProof = Pairing.negate(_proof);\r\n\r\n        // Compute index * proof\r\n        Pairing.G1Point memory indexMulProof = Pairing.mulScalar(_proof, _index);\r\n\r\n        // Return true if and only if\r\n        // e((index * proof) + (commitment - aCommitment), G2.g) * e(-proof, xCommit) == 1\r\n        return Pairing.pairing(\r\n            Pairing.plus(indexMulProof, commitmentMinusA),\r\n            g2Generator, // \r\n            negProof,\r\n            SRS_G2_1\r\n        );\r\n    }\r\n\r\n    // midified sonic verifier\r\n    function verifySonic(\r\n        // uint256[21] memory Proof,\r\n        // uint256[2] memory Randoms\r\n    ) public returns (bool) {\r\n\r\n        // simulate calculating kY\r\n        // uint256 ky = evalKPoly();\r\n        // // // simulate calculating sXY\r\n        // uint256 sx = evalXPoly();\r\n        // uint256 sy = evalXPoly();\r\n\r\n        //uint256 yz = mulmod(Randoms[0], Randoms[1], Pairing.BABYJUB_P);\r\n\r\n        // y^N for halo implementation style\r\n        // uint256 y_n = expMod(Randoms[1], N, BABYJUB_P);\r\n        // t for halo implementation style\r\n        // uint256 t = addmod(mulmod(addmod(Proof[6], Proof[9], Pairing.BABYJUB_P), \r\n        //                           addmod(addmod(Proof[12], \r\n        //                                         Proof[15], Pairing.BABYJUB_P), \r\n        //                                  evalS, Pairing.BABYJUB_P), Pairing.BABYJUB_P),\r\n        //                     mulmod((BABYJUB_P - evalK), y_n, BABYJUB_P),\r\n        //                     BABYJUB_P);\r\n\r\n        uint256 t = addmod(mulmod(addmod(Proof[6], Proof[9], Pairing.BABYJUB_P), \r\n                                  addmod(addmod(Proof[12], \r\n                                                Proof[15], Pairing.BABYJUB_P), \r\n                                         evalS, Pairing.BABYJUB_P), Pairing.BABYJUB_P),\r\n                            (BABYJUB_P - evalK), BABYJUB_P);\r\n\r\n\r\n        bool verifySignature = recover(message, sig) == addr;\r\n        // bool result = verify(Pairing.G1Point(Proof[0], Proof[1]), // aLocal\r\n        //               Pairing.G1Point(Proof[7], Proof[8]),\r\n        //               Randoms[1], \r\n        //               Proof[6]) &&\r\n        //         verify(Pairing.G1Point(Proof[0], Proof[1]), // bLocal\r\n        //               Pairing.G1Point(Proof[13], Proof[14]),\r\n        //               yz,\r\n        //               Proof[12]) &&\r\n        //         verify(Pairing.G1Point(Proof[2], Proof[3]), // aRaw\r\n        //               Pairing.G1Point(Proof[10], Proof[11]),\r\n        //               Randoms[1],\r\n        //               Proof[9]) &&\r\n        //         verify(Pairing.G1Point(Proof[2], Proof[3]), // bRaw\r\n        //               Pairing.G1Point(Proof[16], Proof[17]),\r\n        //               yz,\r\n        //               Proof[15]) &&\r\n        //         verify(Pairing.G1Point(Proof[4], Proof[5]), // t\r\n        //               Pairing.G1Point(Proof[18], Proof[19]),\r\n        //               Randoms[1],\r\n        //               t) &&                               \r\n        //         verify(Pairing.G1Point(Proof[4], Proof[5]), // t\r\n        //               Pairing.G1Point(Proof[18], Proof[19]),\r\n        //               Randoms[1],\r\n        //               t) &&                                            // pcV srsLocal (srsD srsLocal) commitK y (k, wk)\r\n        //         verify(Pairing.G1Point(Proof[4], Proof[5]), // t\r\n        //               Pairing.G1Point(Proof[18], Proof[19]),\r\n        //               Randoms[1],\r\n        //               t) &&                                            // pcV srsLocal (srsD srsLocal) commitC y (c, wc)\r\n        //         verify(Pairing.G1Point(Proof[4], Proof[5]), // t\r\n        //               Pairing.G1Point(Proof[18], Proof[19]),\r\n        //               Randoms[1],\r\n        //               t) &&                                            // pcV srsLocal (srsD srsLocal) commitC yOld (cOld, wcOld)\r\n        //         verify(Pairing.G1Point(Proof[4], Proof[5]), // t\r\n        //               Pairing.G1Point(Proof[18], Proof[19]),\r\n        //               Randoms[1],\r\n        //               t) &&                                            //, pcV srsLocal (srsD srsLocal) commitC yNew (cNew, wcNew)\r\n        //         verify(Pairing.G1Point(Proof[4], Proof[5]), // t\r\n        //               Pairing.G1Point(Proof[18], Proof[19]),\r\n        //               Randoms[1],\r\n        //               t) &&                                            //, pcV srsLocal (srsD srsLocal) commitS z (s, ws)\r\n        //         verify(Pairing.G1Point(Proof[4], Proof[5]), // t\r\n        //               Pairing.G1Point(Proof[18], Proof[19]),\r\n        //               Randoms[1],\r\n        //               t) &&                                            //, pcV srsLocal (srsD srsLocal) commitSOld z (sOld, wsOld)\r\n        //          verify(Pairing.G1Point(Proof[4], Proof[5]), // t\r\n        //               Pairing.G1Point(Proof[18], Proof[19]),\r\n        //               Randoms[1],\r\n        //               t) &&                                           //, pcV srsLocal (srsD srsLocal) commitSNew z (sNew, wsNew)\r\n        //         verifySignature &&\r\n        //         Proof[6] == Proof[7] && // c_old == s_old\r\n        //         Proof[8] == Proof[9] && // c_new == s_new\r\n        //         Proof[10] == Proof[11]; // c == s\r\n\r\n        // temporary code for estimating gas cost, the above is correct version\r\n        bool result = verify(Pairing.G1Point(Proof[0], Proof[1]), // aLocal\r\n                      Pairing.G1Point(Proof[7], Proof[8]),\r\n                      Randoms[1], \r\n                      Proof[6]);\r\n        result = verify(Pairing.G1Point(Proof[0], Proof[1]), // bLocal\r\n                      Pairing.G1Point(Proof[13], Proof[14]),\r\n                      yz,\r\n                      Proof[12]);\r\n        result = verify(Pairing.G1Point(Proof[2], Proof[3]), // aRaw\r\n                      Pairing.G1Point(Proof[10], Proof[11]),\r\n                      Randoms[1],\r\n                      Proof[9]);\r\n        result = verify(Pairing.G1Point(Proof[2], Proof[3]), // bRaw\r\n                      Pairing.G1Point(Proof[16], Proof[17]),\r\n                      yz,\r\n                      Proof[15]);\r\n        result = verify(Pairing.G1Point(Proof[4], Proof[5]), // t\r\n                      Pairing.G1Point(Proof[18], Proof[19]),\r\n                      Randoms[1],\r\n                      t);                              \r\n        result = verify(Pairing.G1Point(Proof[4], Proof[5]), // t\r\n                      Pairing.G1Point(Proof[18], Proof[19]),\r\n                      Randoms[1],\r\n                      t);                                            // pcV srsLocal (srsD srsLocal) commitK y (k, wk)\r\n        result = verify(Pairing.G1Point(Proof[4], Proof[5]), // t\r\n                      Pairing.G1Point(Proof[18], Proof[19]),\r\n                      Randoms[1],\r\n                      t);                                            // pcV srsLocal (srsD srsLocal) commitC y (c, wc)\r\n        result = verify(Pairing.G1Point(Proof[4], Proof[5]), // t\r\n                      Pairing.G1Point(Proof[18], Proof[19]),\r\n                      Randoms[1],\r\n                      t);                                            // pcV srsLocal (srsD srsLocal) commitC yOld (cOld, wcOld)\r\n        result = verify(Pairing.G1Point(Proof[4], Proof[5]), // t\r\n                      Pairing.G1Point(Proof[18], Proof[19]),\r\n                      Randoms[1],\r\n                      t);                                            //, pcV srsLocal (srsD srsLocal) commitC yNew (cNew, wcNew)\r\n        result = verify(Pairing.G1Point(Proof[4], Proof[5]), // t\r\n                      Pairing.G1Point(Proof[18], Proof[19]),\r\n                      Randoms[1],\r\n                      t);                                            //, pcV srsLocal (srsD srsLocal) commitS z (s, ws)\r\n        result = verify(Pairing.G1Point(Proof[4], Proof[5]), // t\r\n                      Pairing.G1Point(Proof[18], Proof[19]),\r\n                      Randoms[1],\r\n                      t);                                            //, pcV srsLocal (srsD srsLocal) commitSOld z (sOld, wsOld)\r\n        result = verify(Pairing.G1Point(Proof[4], Proof[5]), // t\r\n                      Pairing.G1Point(Proof[18], Proof[19]),\r\n                      Randoms[1],\r\n                      t);                                           //, pcV srsLocal (srsD srsLocal) commitSNew z (sNew, wsNew)\r\n        result = verifySignature;\r\n        result = Proof[6] == Proof[7]; // c_old == s_old\r\n        result = Proof[8] == Proof[9]; // c_new == s_new\r\n        result = Proof[10] == Proof[11]; // c == s\r\n        emit verifyResult(result);\r\n        return result;\r\n    }\r\n\r\n    // improvement for batched commitments\r\n    /*\r\n    we check e<g^w[],h^> e<g^w[]g^-z,h> == RHS\r\n     */\r\n    function verifySonicBatched(\r\n        // uint256[21] memory Proof,\r\n        // uint256[2] memory Randoms\r\n    ) public returns (bool) {\r\n\r\n        // simulate calculating kY\r\n        // uint256 ky = evalKPoly();\r\n        // // // simulate calculating sXY\r\n        // uint256 sx = evalXPoly();\r\n        // uint256 sy = evalXPoly();\r\n\r\n        \r\n        // y^N for halo implementation style\r\n        // uint256 y_n = expMod(Randoms[1], N, BABYJUB_P);\r\n\r\n        // t for halo implementation style\r\n        // uint256 t = addmod(mulmod(addmod(Proof[6], Proof[9], Pairing.BABYJUB_P), \r\n        //                           addmod(addmod(Proof[12], \r\n        //                                         Proof[15], Pairing.BABYJUB_P), \r\n        //                                  evalS, Pairing.BABYJUB_P), Pairing.BABYJUB_P),\r\n        //                     mulmod((BABYJUB_P - evalK), y_n, BABYJUB_P),\r\n        //                     BABYJUB_P);\r\n\r\n        // uint256 t = addmod(mulmod(addmod(Proof[6], Proof[9], Pairing.BABYJUB_P), \r\n        //                           addmod(addmod(Proof[12], \r\n        //                                         Proof[15], Pairing.BABYJUB_P), \r\n        //                                  evalS, Pairing.BABYJUB_P), Pairing.BABYJUB_P),\r\n        //                     (BABYJUB_P - evalK), BABYJUB_P);\r\n\r\n\r\n        bool verifySignature = recover(message, sig) == addr;\r\n\r\n        // F\r\n        Pairing.G1Point[8] memory F = [\r\n                                    Pairing.G1Point(Proof[0], Proof[1]),//R0\r\n                                    Pairing.G1Point(Proof[2], Proof[3]), // Rj\r\n                                    Pairing.G1Point(Proof[4], Proof[5]), //T\r\n                                    Pairing.G1Point(Proof[6], Proof[7]), //C\r\n                                    Pairing.G1Point(Proof[8], Proof[9]), //Ck\r\n                                    Pairing.G1Point(Proof[10], Proof[11]), //S\r\n                                    Pairing.G1Point(Proof[12], Proof[13]), //Sold\r\n                                    Pairing.G1Point(Proof[14], Proof[15])  //Snew\r\n                                    ];\r\n        // Z(T / Si)[z]\r\n        uint256 Z1 = z_calculation(1); // i = 1\r\n        uint256 Z2 = z_calculation(2);\r\n        uint256 Z3 = z_calculation(3);\r\n        uint256 Z4 = z_calculation(4);\r\n        uint256 Z5 = z_calculation(5);\r\n        uint256 Z6 = z_calculation(6);\r\n        uint256 Z7 = z_calculation(7);\r\n        uint256 Z8 = z_calculation(8);\r\n\r\n        // the prove, g^p[], g^w[]\r\n        Pairing.G1Point[2] memory pi = [\r\n            G1Gen(),\r\n            G1Gen()\r\n        ];\r\n        // product_result is the first G1 element of the RHS pairing\r\n        // first calculate the uppercase Pi product\r\n        Pairing.G1Point memory product_result = Pairing.mulScalar(Pairing.plus(F[0], \r\n                                                                Pairing.negate(Pairing.mulScalar(g, \r\n                                                                                gamma1[0] + gamma1[1] * Randoms[2]))), Z1);\r\n        product_result = Pairing.plus(product_result, \r\n                                    Pairing.mulScalar(Pairing.plus(F[1], \r\n                                                                Pairing.negate(Pairing.mulScalar(g, \r\n                                                                                gamma2[0] + gamma2[1] * Randoms[2]))), Z2));\r\n        product_result = Pairing.plus(product_result, \r\n                                    Pairing.mulScalar(Pairing.plus(F[2], \r\n                                                                Pairing.negate(Pairing.mulScalar(g, \r\n                                                                                gamma3[0]))), Z3));\r\n        product_result = Pairing.plus(product_result, \r\n                                    Pairing.mulScalar(Pairing.plus(F[3], \r\n                                                                Pairing.negate(Pairing.mulScalar(g, \r\n                                                                                gamma4[0] + gamma4[1] * Randoms[2] + gamma4[2] * Randoms[2]^2))), Z4));\r\n        product_result = Pairing.plus(product_result, \r\n                                    Pairing.mulScalar(Pairing.plus(F[4], \r\n                                                                Pairing.negate(Pairing.mulScalar(g, \r\n                                                                                gamma5[0]))), Z5));\r\n        product_result = Pairing.plus(product_result, \r\n                                    Pairing.mulScalar(Pairing.plus(F[5], \r\n                                                                Pairing.negate(Pairing.mulScalar(g, \r\n                                                                                gamma6[0]))), Z6));\r\n        product_result = Pairing.plus(product_result, \r\n                                    Pairing.mulScalar(Pairing.plus(F[6], \r\n                                                                Pairing.negate(Pairing.mulScalar(g, \r\n                                                                                gamma7[0]))), Z7));\r\n        product_result = Pairing.plus(product_result, \r\n                                    Pairing.mulScalar(Pairing.plus(F[7], \r\n                                                                Pairing.negate(Pairing.mulScalar(g, \r\n                                                                                gamma8[0]))), Z8));\r\n        // then add the first item before the uppercase Pi product\r\n        product_result = Pairing.plus(product_result,\r\n                                    Pairing.negate(Pairing.plus(pi[0],\r\n                                                    Pairing.mulScalar(g,\r\n                                                                    z_calculation(9)))));//zT[z]\r\n\r\n        // check e<g^w[],h^>e<g^w[]g^-z,h> == RHS and other checks\r\n        // bool result = Pairing.pairing_3point(\r\n        //     pi[1],\r\n        //     SRS_G2_2, // h^, see above\r\n        //     Pairing.plus(pi[1], Pairing.negate(Pairing.mulScalar(g, z))),\r\n        //     SRS_G2_1, // h, see above\r\n        //     Pairing.negate(product_result),\r\n        //     SRS_G2_1\r\n        //     )\r\n        //     && verifySignature\r\n        //     && Proof[6] == Proof[7] // c_old == s_old\r\n        //     && Proof[8] == Proof[9] // c_new == s_new\r\n        //     && Proof[10] == Proof[11]; // c == s\r\n\r\n        // temporary code for estimating gas cost, the above is correct version\r\n        // check e<g^w[],h^>e<g^w[]g^-z,h> == RHS and other checks\r\n        bool result = Pairing.pairing_3point(\r\n            pi[1],\r\n            SRS_G2_2, // h^, see above\r\n            Pairing.plus(pi[1], Pairing.negate(Pairing.mulScalar(g, z))),\r\n            SRS_G2_1, // h, see above\r\n            Pairing.negate(product_result),\r\n            SRS_G2_1\r\n            );\r\n        result = verifySignature;\r\n        result = Proof[6] == Proof[7]; // c_old == s_old\r\n        result = Proof[8] == Proof[9]; // c_new == s_new\r\n        result = Proof[10] == Proof[11]; // c == s\r\n        emit verifyResult(result);\r\n        return result;\r\n    }\r\n    \r\n\r\n    function z_calculation (uint256 i)\r\n                            internal view returns (uint256){\r\n        \r\n        uint256 result = 1;\r\n        if (i != 1){\r\n            result = mulmod(mulmod(result, addmod(z, BABYJUB_P - S1[1], BABYJUB_P), BABYJUB_P)\r\n                            , addmod(z, BABYJUB_P - S1[0], BABYJUB_P), BABYJUB_P);\r\n        }\r\n        if (i != 2){\r\n            result = mulmod(mulmod(result, addmod(z, BABYJUB_P - S2[1], BABYJUB_P), BABYJUB_P)\r\n                            , addmod(z, BABYJUB_P - S2[0], BABYJUB_P), BABYJUB_P);\r\n        }\r\n        if (i != 3){\r\n            result = mulmod(result, addmod(z, BABYJUB_P - S3[0], BABYJUB_P), BABYJUB_P);\r\n        }\r\n        if (i != 4){\r\n            result = mulmod(mulmod(mulmod(result, addmod(z, BABYJUB_P - S4[2], BABYJUB_P), BABYJUB_P)\r\n                            , addmod(z, BABYJUB_P - S4[1], BABYJUB_P), BABYJUB_P)\r\n                            , addmod(z, BABYJUB_P - S4[0], BABYJUB_P), BABYJUB_P);\r\n        }\r\n        if (i != 5){\r\n            result = mulmod(result, addmod(z, BABYJUB_P - S5[0], BABYJUB_P), BABYJUB_P);\r\n        }\r\n        if (i != 6){\r\n            result = mulmod(result, addmod(z, BABYJUB_P - S6[0], BABYJUB_P), BABYJUB_P);\r\n        }\r\n        if (i != 7){\r\n            result = mulmod(result, addmod(z, BABYJUB_P - S7[0], BABYJUB_P), BABYJUB_P);\r\n        }\r\n        if (i != 8){\r\n            result = mulmod(result, addmod(z, BABYJUB_P - S8[0], BABYJUB_P), BABYJUB_P);\r\n        }\r\n        return result;\r\n    }\r\n\r\n    // SCC\r\n    // function verifySOCC() public returns (bool) {\r\n\r\n    //     bool verified = verify(Pairing.G1Point(SOCC_hscS[0], SOCC_hscS[1]), // pcV(bp,srs,S_j,d,z_j,(s_j,W_j)\r\n    //                   Pairing.G1Point(SOCC_hscS[3], SOCC_hscS[4]),\r\n    //                   Randoms[1], \r\n    //                   SOCC_hscS[2],\r\n    //                   0, true) &&\r\n    //                   verify(Pairing.G1Point(SOCC_hscS[0], SOCC_hscS[1]), // pcV(bp,srs,S_j,d,u,(s'_j,W'_j))\r\n    //                   Pairing.G1Point(SOCC_hscW[1], SOCC_hscW[2]),\r\n    //                   u, \r\n    //                   SOCC_hscW[0],\r\n    //                   0, true) &&\r\n    //                   verify(hscC,                                      // pcV(bp,srs,C,d,y_j,(s'_j,Q_j)\r\n    //                   Pairing.G1Point(SOCC_hscW[3], SOCC_hscW[4]),\r\n    //                   Randoms[0], \r\n    //                   SOCC_hscW[0],\r\n    //                   0, true) &&\r\n    //                   verify(hscC,                                      // pcV(bp,srs,C,d,v,(s_uv,Q_v))\r\n    //                   hscQv,\r\n    //                   v, \r\n    //                   s_uv,\r\n    //                   0, true);\r\n    //     emit verifyResult(verified);\r\n    //     return verified;\r\n    // }\r\n\r\n    /**\r\n     * @dev Recover signer address from a message by using their signature\r\n     * @param hash bytes32 message, the hash is the signed message. What is recovered is the signer address.\r\n     * @param signature bytes signature, the signature is generated using web3.eth.sign()\r\n     */\r\n    function recover(bytes32 hash, bytes memory signature) internal pure returns (address) {\r\n        bytes32 r;\r\n        bytes32 s;\r\n        uint8 _v;\r\n\r\n        // Check the signature length\r\n        if (signature.length != 65) {\r\n            return (address(0));\r\n        }\r\n\r\n        // Divide the signature in r, s and v variables\r\n        // ecrecover takes the signature parameters, and the only way to get them\r\n        // currently is to use assembly.\r\n        // solium-disable-next-line security/no-inline-assembly\r\n        assembly {\r\n            r := mload(add(signature, 32))\r\n            s := mload(add(signature, 64))\r\n            _v := byte(0, mload(add(signature, 96)))\r\n        }\r\n\r\n        // Version of signature should be 27 or 28, but 0 and 1 are also possible versions\r\n        if (_v < 27) {\r\n            _v += 27;\r\n        }\r\n\r\n        // If the version is correct return the signer address\r\n        if (_v != 27 && _v != 28) {\r\n            return (address(0));\r\n        } else {\r\n            // solium-disable-next-line arg-overflow\r\n            return ecrecover(hash, _v, r, s);\r\n        }\r\n    }\r\n\r\n    /**\r\n    * @dev prefix a bytes32 value with \"\\x19Ethereum Signed Message:\" and hash the result\r\n    */\r\n    function ethMessageHash(string memory rawCommitment) internal pure returns (bytes32) {\r\n        return keccak256(\r\n            abi.encodePacked(\"\\x19Ethereum Signed Message:\\n32\", keccak256(abi.encodePacked(rawCommitment)))\r\n        );\r\n    }\r\n\r\n\r\n    //     /*\r\n    //  * @return The polynominal evaluation of a polynominal with the specified\r\n    //  *         coefficients at the given index.\r\n    //  */\r\n     function evalPoly() public view returns (uint256) {\r\n\r\n        uint baseOrder = 204;\r\n        uint length = 64;\r\n        uint256 _index = Randoms[0];\r\n        uint256 m = Constants.BABYJUB_P;\r\n        uint256 result = 0;\r\n        uint256 powerOfX = 1;\r\n\r\n        for (uint256 i = 0; i < length; i ++) {\r\n            assembly {\r\n                result:= addmod(result, mulmod(powerOfX, i, m), m)\r\n                powerOfX := mulmod(powerOfX, i, m)\r\n            }\r\n        }\r\n        uint256 basePower = invMod(expMod(_index, baseOrder, m), m);\r\n        result = mulmod(basePower, result, m);\r\n\r\n        return result;\r\n    }\r\n\r\n    /// @dev Modular euclidean inverse of a number (mod p).\r\n    /// @param _x The number\r\n    /// @param _pp The modulus\r\n    /// @return q such that x*q = 1 (mod _pp)\r\n    function invMod(uint256 _x, uint256 _pp) internal pure returns (uint256) {\r\n        require(_x != 0 && _x != _pp && _pp != 0, \"Invalid number\");\r\n        uint256 q = 0;\r\n        uint256 newT = 1;\r\n        uint256 r = _pp;\r\n        uint256 t;\r\n        while (_x != 0) {\r\n        t = r / _x;\r\n        (q, newT) = (newT, addmod(q, (_pp - mulmod(t, newT, _pp)), _pp));\r\n        (r, _x) = (_x, r - t * _x);\r\n        }\r\n\r\n        return q;\r\n    }\r\n\r\n    /// @dev Modular exponentiation, b^e % _pp.\r\n    /// Source: https://github.com/androlo/standard-contracts/blob/master/contracts/src/crypto/ECCMath.sol\r\n    /// @param _base base\r\n    /// @param _exp exponent\r\n    /// @param _pp modulus\r\n    /// @return r such that r = b**e (mod _pp)\r\n    function expMod(uint256 _base, uint256 _exp, uint256 _pp) internal pure returns (uint256) {\r\n        require(_pp!=0, \"Modulus is zero\");\r\n\r\n        if (_base == 0)\r\n        return 0;\r\n        if (_exp == 0)\r\n        return 1;\r\n\r\n        uint256 r = 1;\r\n        uint256 bit = 57896044618658097711785492504343953926634992332820282019728792003956564819968; // 2 ^ 255\r\n        assembly {\r\n        for { } gt(bit, 0) { }{\r\n            // a touch of loop unrolling for 20% efficiency gain\r\n            r := mulmod(mulmod(r, r, _pp), exp(_base, iszero(iszero(and(_exp, bit)))), _pp)\r\n            r := mulmod(mulmod(r, r, _pp), exp(_base, iszero(iszero(and(_exp, div(bit, 2))))), _pp)\r\n            r := mulmod(mulmod(r, r, _pp), exp(_base, iszero(iszero(and(_exp, div(bit, 4))))), _pp)\r\n            r := mulmod(mulmod(r, r, _pp), exp(_base, iszero(iszero(and(_exp, div(bit, 8))))), _pp)\r\n            bit := div(bit, 16)\r\n        }\r\n        }\r\n\r\n        return r;\r\n    }\r\n    \r\n\r\n}",
  "sourcePath": "D:\\homework\\sonic\\src\\verifier\\contracts\\Verifier.sol",
  "compiler": {
    "name": "solc",
    "version": "0.8.13+commit.abaa5c0e.Emscripten.clang"
  },
  "schemaVersion": "3.4.8",
  "updatedAt": "2023-01-08T11:03:35.844Z",
  "networkType": "ethereum",
  "devdoc": {
    "kind": "dev",
    "methods": {},
    "version": 1
  },
  "userdoc": {
    "kind": "user",
    "methods": {},
    "version": 1
  }
}