{
  "contractName": "Verifier",
  "abi": [
    {
      "anonymous": false,
      "inputs": [
        {
          "indexed": false,
          "internalType": "bool",
          "name": "result",
          "type": "bool"
        }
      ],
      "name": "verifyResult",
      "type": "event"
    },
    {
      "inputs": [
        {
          "components": [
            {
              "internalType": "uint256",
              "name": "X",
              "type": "uint256"
            },
            {
              "internalType": "uint256",
              "name": "Y",
              "type": "uint256"
            }
          ],
          "internalType": "struct Pairing.G1Point",
          "name": "_commitment",
          "type": "tuple"
        },
        {
          "components": [
            {
              "internalType": "uint256",
              "name": "X",
              "type": "uint256"
            },
            {
              "internalType": "uint256",
              "name": "Y",
              "type": "uint256"
            }
          ],
          "internalType": "struct Pairing.G1Point",
          "name": "_proof",
          "type": "tuple"
        },
        {
          "internalType": "uint256",
          "name": "_index",
          "type": "uint256"
        },
        {
          "internalType": "uint256",
          "name": "_value",
          "type": "uint256"
        },
        {
          "internalType": "uint256",
          "name": "proofIndex",
          "type": "uint256"
        },
        {
          "internalType": "bool",
          "name": "isT",
          "type": "bool"
        }
      ],
      "name": "verify",
      "outputs": [
        {
          "internalType": "bool",
          "name": "",
          "type": "bool"
        }
      ],
      "stateMutability": "view",
      "type": "function",
      "constant": true
    },
    {
      "inputs": [],
      "name": "verifySonic",
      "outputs": [
        {
          "internalType": "bool",
          "name": "",
          "type": "bool"
        }
      ],
      "stateMutability": "nonpayable",
      "type": "function"
    },
    {
      "inputs": [],
      "name": "verifySonicBatched",
      "outputs": [
        {
          "internalType": "bool",
          "name": "",
          "type": "bool"
        }
      ],
      "stateMutability": "nonpayable",
      "type": "function"
    },
    {
      "inputs": [],
      "name": "evalPoly",
      "outputs": [
        {
          "internalType": "uint256",
          "name": "",
          "type": "uint256"
        }
      ],
      "stateMutability": "view",
      "type": "function",
      "constant": true
    }
  ],
  "bytecode": "0x608060405260405180604001604052807f198e9393920d483a7260bfb731fb5d25f1aa493335a9e71297e485b7aef312c281526020017f21a808dad5c50720fb7294745cf4c87812ce0ea76baa7df4e922615d1388f25a81525060009060026200006b92919062001461565b5060405180604001604052807f1800deef121f1e76426a00665e5c4479674322d4f75edadd46debd5cd992f6ed81526020017f04c5e74c85a87f008a2feb4b5c8a1e7f9ba9d8eb40eb02e70139c89fb1c505a98152506001906002620000d392919062001461565b5060405180604001604052807f090689d0585ff075ec9e99ad690c3395bc4b313370b38ef355acdadcd122975b81526020017f204b66d8e1fadc307c35187a6b813be0b46ba1cd720cd1c4ee5f68d13036b4ba81525060029060026200013b92919062001461565b5060405180604001604052807f12c85ea5db8c6deb4aab71808dcb408fe3d1e7690c43d37b4ce6cc0166fa7daa81526020017f2d58022915fc6bc90e036e858fbc98055084ac7aff98ccceb0e3fde64bc1a0848152506003906002620001a392919062001461565b5060405180608001604052807f1a597e49c263d6a226f25fe1e806caac7f15f85b763044e7d3043ba5992dd8d581526020017f228b515a17f28b89920873207477f8c7fc05582debaf3184febf1cfdedc5ce8881526020017f18e9db03472e0863ddf2838cf8880b11083593229561aaf9a11c760bb97a64fa81526020017f0566eed2b6bb584ca75fbe0ca9ffc98eb586c25812617df7e01a2b6d8270f0bf815250600490600462000257929190620014b3565b5060405180608001604052807f208f992ecbeeef3fa5b1c3505c588c7a872e3987797a14052b6f34411c9ea0ae81526020017f12bb1156a9f6b360fcb2614e15d8a3ff07f2c699dc69ca830b20d2df91fe9cd381526020017f15904dc85f8ddf338fe3151d3c146b4083e99dd3f26d87d33dd5d20eb64284a381526020017f20101834550a7d15aa7a685d3f0095b689822cb568dfc9690e0cc58e9826d8fb81525060059060046200030b929190620014b3565b5060405180608001604052807f024248dcf25ea502fb805bcab808906eb944154792151d643ad7b4b0eca6d91381526020017f2b15dc62a5c9e36597914ddbbfde48806a8eabe45c8d3cccf9578ad08e058f9281526020017f20ab132d3e7dd0600d89b397a3bf88e3900434c826b458028981278a619d809481526020017f0a66c012d8ebf11c9a9fc4ccfeeab0ace62b1c1fa744f6c6173f1994e9241db78152506006906004620003bf929190620014b3565b5060405180608001604052807f14c35af32416c899af0b827ef0f1a686393d629317706d8c143cdfd5717c4c5e81526020017f02a4fd764f52470e2fcfff325fb9692f55d6b8b077eefeaa04e07152b4d1fa9481526020017f28505103380e230ea76fa52dc17b1269cfa9076761a1bb971c5b90767de58db081526020017f19ea09d089c848b2dee00082395883e0b405de1da65d4b4aeebd50c84e47349d815250600790600462000473929190620014b3565b50604051806040016040528060405180604001604052807f185c3f6fe300ae4825fbc17232a7ef067d895c6838b58df5d3821b3c5f47a38081526020017f0ec8eed74d6dfed1e4bbac422898cbf6334bb2ea304a443a0b388c8a513b98ea815250815260200160405180604001604052807f2ce0b9172a655debea69f18829f2b0a98ec43a6ce296f603371237011936328181526020017f113e4f1953b68002611afddebc49dc2876e7a4e246061eec0f05ebc6595ff13781525081525060086000820151816000019060026200054c92919062001505565b506020820151816002019060026200056692919062001505565b505050604051806040016040528060405180604001604052807f11a27fdb89b46af22a89049c391fada5cb5ce6f4c9df8fe5ebae5d422b0bcddf81526020017f1ebadb21506ba2b40566be5bdbfe1ead7400477fc516e1ded4461c6759c221f5815250815260200160405180604001604052807f2d204255b7a4116982ce5bcd3bcc3639e3cc82b273a8ffbf404370c38ce5db3f81526020017f18b0e4266a167129aaee0af3b9ab5a3b4d2bcd690de7d94312c23b494f9fd3bb815250815250600c6000820151816000019060026200064192919062001505565b506020820151816002019060026200065b92919062001505565b505050604051806040016040528060405180604001604052807f198e9393920d483a7260bfb731fb5d25f1aa493335a9e71297e485b7aef312c281526020017f1800deef121f1e76426a00665e5c4479674322d4f75edadd46debd5cd992f6ed815250815260200160405180604001604052807f090689d0585ff075ec9e99ad690c3395bc4b313370b38ef355acdadcd122975b81526020017f12c85ea5db8c6deb4aab71808dcb408fe3d1e7690c43d37b4ce6cc0166fa7daa81525081525060106000820151816000019060026200073692919062001505565b506020820151816002019060026200075092919062001505565b505050604051806040016040528060405180604001604052807f198e9393920d483a7260bfb731fb5d25f1aa493335a9e71297e485b7aef312c281526020017f1800deef121f1e76426a00665e5c4479674322d4f75edadd46debd5cd992f6ed815250815260200160405180604001604052807f090689d0585ff075ec9e99ad690c3395bc4b313370b38ef355acdadcd122975b81526020017f12c85ea5db8c6deb4aab71808dcb408fe3d1e7690c43d37b4ce6cc0166fa7daa81525081525060146000820151816000019060026200082b92919062001505565b506020820151816002019060026200084592919062001505565b50505060405180604001604052806040518060400160405280600060018154811062000876576200087562001728565b5b90600052602060002001548152602001600180815481106200089d576200089c62001728565b5b9060005260206000200154815250815260200160405180604001604052806002600181548110620008d357620008d262001728565b5b906000526020600020015481526020016003600181548110620008fb57620008fa62001728565b5b906000526020600020015481525081525060186000820151816000019060026200092792919062001505565b506020820151816002019060026200094192919062001505565b505050604051806102a001604052807f2d2e305d3ab2dc6e0081ffcf4a701f924a1a7296cdc32046c10c0b6f992387b281526020017f10d4d3cca369c48670346ef36c6739e885bb11b52038a89c706aacfb7d72d78981526020017f2d2e305d3ab2dc6e0081ffcf4a701f924a1a7296cdc32046c10c0b6f992387b281526020017f10d4d3cca369c48670346ef36c6739e885bb11b52038a89c706aacfb7d72d78981526020017f2d2e305d3ab2dc6e0081ffcf4a701f924a1a7296cdc32046c10c0b6f992387b281526020017f10d4d3cca369c48670346ef36c6739e885bb11b52038a89c706aacfb7d72d78981526020017f2d2e305d3ab2dc6e0081ffcf4a701f924a1a7296cdc32046c10c0b6f992387b281526020017f10d4d3cca369c48670346ef36c6739e885bb11b52038a89c706aacfb7d72d78981526020017f2d2e305d3ab2dc6e0081ffcf4a701f924a1a7296cdc32046c10c0b6f992387b281526020017f10d4d3cca369c48670346ef36c6739e885bb11b52038a89c706aacfb7d72d78981526020017f2d2e305d3ab2dc6e0081ffcf4a701f924a1a7296cdc32046c10c0b6f992387b281526020017f10d4d3cca369c48670346ef36c6739e885bb11b52038a89c706aacfb7d72d78981526020017f2d2e305d3ab2dc6e0081ffcf4a701f924a1a7296cdc32046c10c0b6f992387b281526020017f10d4d3cca369c48670346ef36c6739e885bb11b52038a89c706aacfb7d72d78981526020017f2d2e305d3ab2dc6e0081ffcf4a701f924a1a7296cdc32046c10c0b6f992387b281526020017f10d4d3cca369c48670346ef36c6739e885bb11b52038a89c706aacfb7d72d78981526020017f2d2e305d3ab2dc6e0081ffcf4a701f924a1a7296cdc32046c10c0b6f992387b281526020017f10d4d3cca369c48670346ef36c6739e885bb11b52038a89c706aacfb7d72d78981526020017f2be1f7e20177ef75851870d314a7fff4c31f0a9590dcadfa7ad98f63d01bffe681526020017f0fa336d3c59c626772a0d93ee1d4144b21e0fea2b000cd4fa60c03f69456025c81526020017f18a2993be8e03e3ec58688e40a0997a30ae6b413ab6156da93218e1ba39fee64815250601c90601562000c7e9291906200154a565b506040518060c001604052807f2f376e28777cfe34cf077eba864c462fd6efbfe4d3f6af17768ef2ed4f829ddd81526020017f2f0ed729a52c3cf5d51e5e6d8e737f79e5d99150f7b9b63f3dd38704f9d8ef2681526020017f2ef8bb94a174a78dfe41d6eed9d719c7d83be3826f1f10504ace98cab243a95a81526020017f2f1d1ad3ba383b2802a9d032e35c633fcb87438ec572dcecf69bdd65d3a29c6d81526020017f2f17797aa9b5b553209d135cdd69146128b9841e82c8b01e3f3a07d1e3714dc981526020017f2f1d1ad3ba383b2802a9d032e35c633fcb87438ec572dcecf69bdd65d3a29c6d815250603190600662000d7e9291906200158f565b507f19a48669ccf72c593144962560f593b667daa2052d1cdcc2500bb3b003c073c9603755601c60146015811062000dbb5762000dba62001728565b5b015460385562000dea6040518060c00160405280609a815260200162005dac609a9139620013e160201b60201c565b60395560405180608001604052806041815260200162005e4660419139603a908051906020019062000e1e929190620015d4565b5073e448992fdeaf94784bbd8f432d781c061d907985603b60006101000a81548173ffffffffffffffffffffffffffffffffffffffff021916908373ffffffffffffffffffffffffffffffffffffffff1602179055506040518060400160405280600181526020016002815250603c600082015181600001556020820151816001015550507f30644e72e131a029b85045b68181585d2833e84879b9709143e1f593f00000018062000ed55762000ed462001757565b5b603160016006811062000eed5762000eec62001728565b5b0154603160006006811062000f075762000f0662001728565b5b015409603e557f21d1ad4787778ebe1fe648796a728cba28fdc1b56fda844fc2f5bf686ba122d7603f556040518060400160405280603160016006811062000f545762000f5362001728565b5b01548152602001603160016006811062000f735762000f7262001728565b5b0154815250604090600262000f8a92919062001505565b506040518060400160405280603e548152602001603e54815250604290600262000fb692919062001505565b506040518060200160405280603160016006811062000fda5762000fd962001728565b5b0154815250604490600162000ff192919062001665565b506040518060600160405280603160016006811062001015576200101462001728565b5b01548152602001603160016006811062001034576200103362001728565b5b01548152602001603160016006811062001053576200105262001728565b5b015481525060459060036200106a929190620016aa565b50604051806020016040528060316001600681106200108e576200108d62001728565b5b01548152506048906001620010a592919062001665565b5060405180602001604052806031600160068110620010c957620010c862001728565b5b01548152506049906001620010e092919062001665565b506040518060200160405280603160016006811062001104576200110362001728565b5b0154815250604a9060016200111b92919062001665565b50604051806020016040528060316001600681106200113f576200113e62001728565b5b0154815250604b9060016200115692919062001665565b50604051806040016040528060316001600681106200117a576200117962001728565b5b01548152602001603160016006811062001199576200119862001728565b5b0154815250604c906002620011b092919062001505565b506040518060400160405280603e548152602001603e54815250604e906002620011dc92919062001505565b50604051806020016040528060316001600681106200120057620011ff62001728565b5b015481525060509060016200121792919062001665565b50604051806060016040528060316001600681106200123b576200123a62001728565b5b0154815260200160316001600681106200125a576200125962001728565b5b01548152602001603160016006811062001279576200127862001728565b5b0154815250605190600362001290929190620016aa565b5060405180602001604052806031600160068110620012b457620012b362001728565b5b01548152506054906001620012cb92919062001665565b5060405180602001604052806031600160068110620012ef57620012ee62001728565b5b015481525060559060016200130692919062001665565b50604051806020016040528060316001600681106200132a576200132962001728565b5b015481525060569060016200134192919062001665565b506040518060200160405280603160016006811062001365576200136462001728565b5b015481525060579060016200137c92919062001665565b506200138d6200143b60201b60201c565b605860008201518160000155602082015181600101555050620013b56200143b60201b60201c565b605a60008201518160000155602082015181600101555050348015620013da57600080fd5b506200192f565b600081604051602001620013f6919062001809565b604051602081830303815290604052805190602001206040516020016200141e9190620018a1565b604051602081830303815290604052805190602001209050919050565b62001445620016ef565b6040518060400160405280600181526020016002815250905090565b828054828255906000526020600020908101928215620014a0579160200282015b828111156200149f57825182559160200191906001019062001482565b5b509050620014af919062001709565b5090565b828054828255906000526020600020908101928215620014f2579160200282015b82811115620014f1578251825591602001919060010190620014d4565b5b50905062001501919062001709565b5090565b826002810192821562001537579160200282015b828111156200153657825182559160200191906001019062001519565b5b50905062001546919062001709565b5090565b82601581019282156200157c579160200282015b828111156200157b5782518255916020019190600101906200155e565b5b5090506200158b919062001709565b5090565b8260068101928215620015c1579160200282015b82811115620015c0578251825591602001919060010190620015a3565b5b509050620015d0919062001709565b5090565b828054620015e290620018fa565b90600052602060002090601f01602090048101928262001606576000855562001652565b82601f106200162157805160ff191683800117855562001652565b8280016001018555821562001652579182015b828111156200165157825182559160200191906001019062001634565b5b50905062001661919062001709565b5090565b826001810192821562001697579160200282015b828111156200169657825182559160200191906001019062001679565b5b509050620016a6919062001709565b5090565b8260038101928215620016dc579160200282015b82811115620016db578251825591602001919060010190620016be565b5b509050620016eb919062001709565b5090565b604051806040016040528060008152602001600081525090565b5b80821115620017245760008160009055506001016200170a565b5090565b7f4e487b7100000000000000000000000000000000000000000000000000000000600052603260045260246000fd5b7f4e487b7100000000000000000000000000000000000000000000000000000000600052601260045260246000fd5b600081519050919050565b600081905092915050565b60005b83811015620017bc5780820151818401526020810190506200179f565b83811115620017cc576000848401525b50505050565b6000620017df8262001786565b620017eb818562001791565b9350620017fd8185602086016200179c565b80840191505092915050565b6000620018178284620017d2565b915081905092915050565b7f19457468657265756d205369676e6564204d6573736167653a0a333200000000600082015250565b60006200185a601c8362001791565b9150620018678262001822565b601c82019050919050565b6000819050919050565b6000819050919050565b6200189b620018958262001872565b6200187c565b82525050565b6000620018ae826200184b565b9150620018bc828462001886565b60208201915081905092915050565b7f4e487b7100000000000000000000000000000000000000000000000000000000600052602260045260246000fd5b600060028204905060018216806200191357607f821691505b602082108103620019295762001928620018cb565b5b50919050565b61446d806200193f6000396000f3fe608060405234801561001057600080fd5b506004361061004c5760003560e01c80632d886354146100515780639c22c9511461006f578063d98966fd1461008d578063ffef4ff4146100bd575b600080fd5b6100596100db565b604051610066919061394d565b60405180910390f35b61007761147b565b604051610084919061394d565b60405180910390f35b6100a760048036038101906100a29190613aba565b611fcd565b6040516100b4919061394d565b60405180910390f35b6100c56122a2565b6040516100d29190613b57565b60405180910390f35b600080603b60009054906101000a900473ffffffffffffffffffffffffffffffffffffffff1673ffffffffffffffffffffffffffffffffffffffff166101ad603954603a805461012a90613ba1565b80601f016020809104026020016040519081016040528092919081815260200182805461015690613ba1565b80156101a35780601f10610178576101008083540402835291602001916101a3565b820191906000526020600020905b81548152906001019060200180831161018657829003601f168201915b505050505061235d565b73ffffffffffffffffffffffffffffffffffffffff1614905060006040518061010001604052806040518060400160405280601c6000601581106101f4576101f3613bd2565b5b01548152602001601c6001601581106102105761020f613bd2565b5b015481525081526020016040518060400160405280601c60026015811061023a57610239613bd2565b5b01548152602001601c60036015811061025657610255613bd2565b5b015481525081526020016040518060400160405280601c6004601581106102805761027f613bd2565b5b01548152602001601c60056015811061029c5761029b613bd2565b5b015481525081526020016040518060400160405280601c6006601581106102c6576102c5613bd2565b5b01548152602001601c6007601581106102e2576102e1613bd2565b5b015481525081526020016040518060400160405280601c60086015811061030c5761030b613bd2565b5b01548152602001601c60096015811061032857610327613bd2565b5b015481525081526020016040518060400160405280601c600a6015811061035257610351613bd2565b5b01548152602001601c600b6015811061036e5761036d613bd2565b5b015481525081526020016040518060400160405280601c600c6015811061039857610397613bd2565b5b01548152602001601c600d601581106103b4576103b3613bd2565b5b015481525081526020016040518060400160405280601c600e601581106103de576103dd613bd2565b5b01548152602001601c600f601581106103fa576103f9613bd2565b5b015481525081525090506000600190506000603160046006811061042157610420613bd2565b5b0154905060007f30644e72e131a029b85045b68181585d2833e84879b9709143e1f593f00000018061045657610455613c01565b5b603160046006811061046b5761046a613bd2565b5b01548309905060007f30644e72e131a029b85045b68181585d2833e84879b9709143e1f593f0000001806104a2576104a1613c01565b5b60316004600681106104b7576104b6613bd2565b5b01548309905060007f30644e72e131a029b85045b68181585d2833e84879b9709143e1f593f0000001806104ee576104ed613c01565b5b603160046006811061050357610502613bd2565b5b01548309905060007f30644e72e131a029b85045b68181585d2833e84879b9709143e1f593f00000018061053a57610539613c01565b5b603160046006811061054f5761054e613bd2565b5b01548309905060007f30644e72e131a029b85045b68181585d2833e84879b9709143e1f593f00000018061058657610585613c01565b5b603160046006811061059b5761059a613bd2565b5b01548309905060007f30644e72e131a029b85045b68181585d2833e84879b9709143e1f593f0000001806105d2576105d1613c01565b5b60316004600681106105e7576105e6613bd2565b5b0154830990507f30644e72e131a029b85045b68181585d2833e84879b9709143e1f593f00000018061061c5761061b613c01565b5b6106266001612430565b890997507f30644e72e131a029b85045b68181585d2833e84879b9709143e1f593f00000018061065957610658613c01565b5b6106636002612430565b880996507f30644e72e131a029b85045b68181585d2833e84879b9709143e1f593f00000018061069657610695613c01565b5b6106a06003612430565b870995507f30644e72e131a029b85045b68181585d2833e84879b9709143e1f593f0000001806106d3576106d2613c01565b5b6106dd6004612430565b860994507f30644e72e131a029b85045b68181585d2833e84879b9709143e1f593f0000001806107105761070f613c01565b5b61071a6005612430565b850993507f30644e72e131a029b85045b68181585d2833e84879b9709143e1f593f00000018061074d5761074c613c01565b5b6107576006612430565b840992507f30644e72e131a029b85045b68181585d2833e84879b9709143e1f593f00000018061078a57610789613c01565b5b6107946007612430565b830991507f30644e72e131a029b85045b68181585d2833e84879b9709143e1f593f0000001806107c7576107c6613c01565b5b6107d16008612430565b8209905060006107f98a6000600881106107ee576107ed613bd2565b5b60200201518a612c5c565b9050610826816108218c60016008811061081657610815613bd2565b5b60200201518b612c5c565b612d34565b90506108538161084e8c60026008811061084357610842613bd2565b5b60200201518a612c5c565b612d34565b90506108808161087b8c6003600881106108705761086f613bd2565b5b602002015189612c5c565b612d34565b90506108ad816108a88c60046008811061089d5761089c613bd2565b5b602002015188612c5c565b612d34565b90506108da816108d58c6005600881106108ca576108c9613bd2565b5b602002015187612c5c565b612d34565b9050610907816109028c6006600881106108f7576108f6613bd2565b5b602002015186612c5c565b612d34565b90506109348161092f8c60076008811061092457610923613bd2565b5b602002015185612c5c565b612d34565b905060007f30644e72e131a029b85045b68181585d2833e84879b9709143e1f593f00000018061096757610966613c01565b5b7f30644e72e131a029b85045b68181585d2833e84879b9709143e1f593f00000018061099657610995613c01565b5b7f30644e72e131a029b85045b68181585d2833e84879b9709143e1f593f0000001806109c5576109c4613c01565b5b60316002600681106109da576109d9613bd2565b5b0154604c6001600281106109f1576109f0613bd2565b5b015409604c600060028110610a0957610a08613bd2565b5b0154087f30644e72e131a029b85045b68181585d2833e84879b9709143e1f593f0000001610a379190613c5f565b8b0990507f30644e72e131a029b85045b68181585d2833e84879b9709143e1f593f000000180610a6a57610a69613c01565b5b7f30644e72e131a029b85045b68181585d2833e84879b9709143e1f593f000000180610a9957610a98613c01565b5b7f30644e72e131a029b85045b68181585d2833e84879b9709143e1f593f000000180610ac857610ac7613c01565b5b7f30644e72e131a029b85045b68181585d2833e84879b9709143e1f593f000000180610af757610af6613c01565b5b6031600260068110610b0c57610b0b613bd2565b5b0154604e600160028110610b2357610b22613bd2565b5b015409604e600060028110610b3b57610b3a613bd2565b5b0154087f30644e72e131a029b85045b68181585d2833e84879b9709143e1f593f0000001610b699190613c5f565b8b09820890507f30644e72e131a029b85045b68181585d2833e84879b9709143e1f593f000000180610b9e57610b9d613c01565b5b7f30644e72e131a029b85045b68181585d2833e84879b9709143e1f593f000000180610bcd57610bcc613c01565b5b6050600060018110610be257610be1613bd2565b5b01547f30644e72e131a029b85045b68181585d2833e84879b9709143e1f593f0000001610c0f9190613c5f565b8a09820890507f30644e72e131a029b85045b68181585d2833e84879b9709143e1f593f000000180610c4457610c43613c01565b5b7f30644e72e131a029b85045b68181585d2833e84879b9709143e1f593f000000180610c7357610c72613c01565b5b7f30644e72e131a029b85045b68181585d2833e84879b9709143e1f593f000000180610ca257610ca1613c01565b5b7f30644e72e131a029b85045b68181585d2833e84879b9709143e1f593f000000180610cd157610cd0613c01565b5b7f30644e72e131a029b85045b68181585d2833e84879b9709143e1f593f000000180610d0057610cff613c01565b5b6031600260068110610d1557610d14613bd2565b5b01546031600260068110610d2c57610d2b613bd2565b5b0154096051600260038110610d4457610d43613bd2565b5b0154097f30644e72e131a029b85045b68181585d2833e84879b9709143e1f593f000000180610d7657610d75613c01565b5b7f30644e72e131a029b85045b68181585d2833e84879b9709143e1f593f000000180610da557610da4613c01565b5b6031600260068110610dba57610db9613bd2565b5b01546051600160038110610dd157610dd0613bd2565b5b0154096051600060038110610de957610de8613bd2565b5b015408087f30644e72e131a029b85045b68181585d2833e84879b9709143e1f593f0000001610e189190613c5f565b8909820890507f30644e72e131a029b85045b68181585d2833e84879b9709143e1f593f000000180610e4d57610e4c613c01565b5b7f30644e72e131a029b85045b68181585d2833e84879b9709143e1f593f000000180610e7c57610e7b613c01565b5b6054600060018110610e9157610e90613bd2565b5b01547f30644e72e131a029b85045b68181585d2833e84879b9709143e1f593f0000001610ebe9190613c5f565b8809820890507f30644e72e131a029b85045b68181585d2833e84879b9709143e1f593f000000180610ef357610ef2613c01565b5b7f30644e72e131a029b85045b68181585d2833e84879b9709143e1f593f000000180610f2257610f21613c01565b5b6055600060018110610f3757610f36613bd2565b5b01547f30644e72e131a029b85045b68181585d2833e84879b9709143e1f593f0000001610f649190613c5f565b8709820890507f30644e72e131a029b85045b68181585d2833e84879b9709143e1f593f000000180610f9957610f98613c01565b5b7f30644e72e131a029b85045b68181585d2833e84879b9709143e1f593f000000180610fc857610fc7613c01565b5b6056600060018110610fdd57610fdc613bd2565b5b01547f30644e72e131a029b85045b68181585d2833e84879b9709143e1f593f000000161100a9190613c5f565b8609820890507f30644e72e131a029b85045b68181585d2833e84879b9709143e1f593f00000018061103f5761103e613c01565b5b7f30644e72e131a029b85045b68181585d2833e84879b9709143e1f593f00000018061106e5761106d613c01565b5b605760006001811061108357611082613bd2565b5b01547f30644e72e131a029b85045b68181585d2833e84879b9709143e1f593f00000016110b09190613c5f565b85098208905060006110e2603c6040518060400160405290816000820154815260200160018201548152505083612c5c565b90506111518161114c611147605860405180604001604052908160008201548152602001600182015481525050611142603c6040518060400160405290816000820154815260200160018201548152505061113d6009612430565b612c5c565b612d34565b612e32565b612d34565b905061119c81611197605a6040518060400160405290816000820154815260200160018201548152505060316002600681106111905761118f613bd2565b5b0154612c5c565b612d34565b90506000611398846018604051806040016040529081600082016002806020026040519081016040528092919082600280156111ed576020028201915b8154815260200190600101908083116111d9575b5050505050815260200160028201600280602002604051908101604052809291908260028015611232576020028201915b81548152602001906001019080831161121e575b50505050508152505084601060405180604001604052908160008201600280602002604051908101604052809291908260028015611285576020028201915b815481526020019060010190808311611271575b50505050508152602001600282016002806020026040519081016040528092919082600280156112ca576020028201915b8154815260200190600101908083116112b6575b5050505050815250506112fc605a60405180604001604052908160008201548152602001600182015481525050612e32565b601460405180604001604052908160008201600280602002604051908101604052809291908260028015611345576020028201915b815481526020019060010190808311611331575b505050505081526020016002820160028060200260405190810160405280929190826002801561138a576020028201915b815481526020019060010190808311611376575b505050505081525050612ef0565b90508d9050601c6007601581106113b2576113b1613bd2565b5b0154601c6006601581106113c9576113c8613bd2565b5b0154149050601c6009601581106113e3576113e2613bd2565b5b0154601c6008601581106113fa576113f9613bd2565b5b0154149050601c600b6015811061141457611413613bd2565b5b0154601c600a6015811061142b5761142a613bd2565b5b01541490507f9ebf19a79884326bf6ddfcf4bd501eb6a52b40414ecd5d8a70514f606810801e8160405161145f919061394d565b60405180910390a1809e50505050505050505050505050505090565b6000807f30644e72e131a029b85045b68181585d2833e84879b9709143e1f593f0000001806114ad576114ac613c01565b5b6037547f30644e72e131a029b85045b68181585d2833e84879b9709143e1f593f00000016114db9190613c5f565b7f30644e72e131a029b85045b68181585d2833e84879b9709143e1f593f00000018061150a57611509613c01565b5b7f30644e72e131a029b85045b68181585d2833e84879b9709143e1f593f00000018061153957611538613c01565b5b6038547f30644e72e131a029b85045b68181585d2833e84879b9709143e1f593f00000018061156b5761156a613c01565b5b601c600f601581106115805761157f613bd2565b5b0154601c600c6015811061159757611596613bd2565b5b015408087f30644e72e131a029b85045b68181585d2833e84879b9709143e1f593f0000001806115ca576115c9613c01565b5b601c6009601581106115df576115de613bd2565b5b0154601c6006601581106115f6576115f5613bd2565b5b015408090890506000603b60009054906101000a900473ffffffffffffffffffffffffffffffffffffffff1673ffffffffffffffffffffffffffffffffffffffff166116ce603954603a805461164b90613ba1565b80601f016020809104026020016040519081016040528092919081815260200182805461167790613ba1565b80156116c45780601f10611699576101008083540402835291602001916116c4565b820191906000526020600020905b8154815290600101906020018083116116a757829003601f168201915b505050505061235d565b73ffffffffffffffffffffffffffffffffffffffff1614905060006117a46040518060400160405280601c60006015811061170c5761170b613bd2565b5b01548152602001601c60016015811061172857611727613bd2565b5b01548152506040518060400160405280601c60076015811061174d5761174c613bd2565b5b01548152602001601c60086015811061176957611768613bd2565b5b0154815250603160016006811061178357611782613bd2565b5b0154601c60066015811061179a57611799613bd2565b5b0154600080611fcd565b905061184d6040518060400160405280601c6000601581106117c9576117c8613bd2565b5b01548152602001601c6001601581106117e5576117e4613bd2565b5b01548152506040518060400160405280601c600d6015811061180a57611809613bd2565b5b01548152602001601c600e6015811061182657611825613bd2565b5b0154815250603e54601c600c6015811061184357611842613bd2565b5b0154600080611fcd565b905061190b6040518060400160405280601c60026015811061187257611871613bd2565b5b01548152602001601c60036015811061188e5761188d613bd2565b5b01548152506040518060400160405280601c600a601581106118b3576118b2613bd2565b5b01548152602001601c600b601581106118cf576118ce613bd2565b5b015481525060316001600681106118e9576118e8613bd2565b5b0154601c600960158110611900576118ff613bd2565b5b015460016000611fcd565b90506119b56040518060400160405280601c6002601581106119305761192f613bd2565b5b01548152602001601c60036015811061194c5761194b613bd2565b5b01548152506040518060400160405280601c60106015811061197157611970613bd2565b5b01548152602001601c60116015811061198d5761198c613bd2565b5b0154815250603e54601c600f601581106119aa576119a9613bd2565b5b015460016000611fcd565b9050611a5d6040518060400160405280601c6004601581106119da576119d9613bd2565b5b01548152602001601c6005601581106119f6576119f5613bd2565b5b01548152506040518060400160405280601c601260158110611a1b57611a1a613bd2565b5b01548152602001601c601360158110611a3757611a36613bd2565b5b01548152506031600160068110611a5157611a50613bd2565b5b01548660006001611fcd565b9050611b056040518060400160405280601c600460158110611a8257611a81613bd2565b5b01548152602001601c600560158110611a9e57611a9d613bd2565b5b01548152506040518060400160405280601c601260158110611ac357611ac2613bd2565b5b01548152602001601c601360158110611adf57611ade613bd2565b5b01548152506031600160068110611af957611af8613bd2565b5b01548660006001611fcd565b9050611bad6040518060400160405280601c600460158110611b2a57611b29613bd2565b5b01548152602001601c600560158110611b4657611b45613bd2565b5b01548152506040518060400160405280601c601260158110611b6b57611b6a613bd2565b5b01548152602001601c601360158110611b8757611b86613bd2565b5b01548152506031600160068110611ba157611ba0613bd2565b5b01548660006001611fcd565b9050611c556040518060400160405280601c600460158110611bd257611bd1613bd2565b5b01548152602001601c600560158110611bee57611bed613bd2565b5b01548152506040518060400160405280601c601260158110611c1357611c12613bd2565b5b01548152602001601c601360158110611c2f57611c2e613bd2565b5b01548152506031600160068110611c4957611c48613bd2565b5b01548660006001611fcd565b9050611cfd6040518060400160405280601c600460158110611c7a57611c79613bd2565b5b01548152602001601c600560158110611c9657611c95613bd2565b5b01548152506040518060400160405280601c601260158110611cbb57611cba613bd2565b5b01548152602001601c601360158110611cd757611cd6613bd2565b5b01548152506031600160068110611cf157611cf0613bd2565b5b01548660006001611fcd565b9050611da56040518060400160405280601c600460158110611d2257611d21613bd2565b5b01548152602001601c600560158110611d3e57611d3d613bd2565b5b01548152506040518060400160405280601c601260158110611d6357611d62613bd2565b5b01548152602001601c601360158110611d7f57611d7e613bd2565b5b01548152506031600160068110611d9957611d98613bd2565b5b01548660006001611fcd565b9050611e4d6040518060400160405280601c600460158110611dca57611dc9613bd2565b5b01548152602001601c600560158110611de657611de5613bd2565b5b01548152506040518060400160405280601c601260158110611e0b57611e0a613bd2565b5b01548152602001601c601360158110611e2757611e26613bd2565b5b01548152506031600160068110611e4157611e40613bd2565b5b01548660006001611fcd565b9050611ef56040518060400160405280601c600460158110611e7257611e71613bd2565b5b01548152602001601c600560158110611e8e57611e8d613bd2565b5b01548152506040518060400160405280601c601260158110611eb357611eb2613bd2565b5b01548152602001601c601360158110611ecf57611ece613bd2565b5b01548152506031600160068110611ee957611ee8613bd2565b5b01548660006001611fcd565b9050819050601c600760158110611f0f57611f0e613bd2565b5b0154601c600660158110611f2657611f25613bd2565b5b0154149050601c600960158110611f4057611f3f613bd2565b5b0154601c600860158110611f5757611f56613bd2565b5b0154149050601c600b60158110611f7157611f70613bd2565b5b0154601c600a60158110611f8857611f87613bd2565b5b01541490507f9ebf19a79884326bf6ddfcf4bd501eb6a52b40414ecd5d8a70514f606810801e81604051611fbc919061394d565b60405180910390a180935050505090565b60007f30644e72e131a029b85045b68181585d2833e84879b9709143e1f593f0000001876000015110612035576040517f08c379a000000000000000000000000000000000000000000000000000000000815260040161202c90613d16565b60405180910390fd5b7f30644e72e131a029b85045b68181585d2833e84879b9709143e1f593f000000187602001511061209b576040517f08c379a000000000000000000000000000000000000000000000000000000000815260040161209290613da8565b60405180910390fd5b7f30644e72e131a029b85045b68181585d2833e84879b9709143e1f593f0000001866000015110612101576040517f08c379a00000000000000000000000000000000000000000000000000000000081526004016120f890613e3a565b60405180910390fd5b7f30644e72e131a029b85045b68181585d2833e84879b9709143e1f593f0000001866020015110612167576040517f08c379a000000000000000000000000000000000000000000000000000000000815260040161215e90613ecc565b60405180910390fd5b7f30644e72e131a029b85045b68181585d2833e84879b9709143e1f593f000000185106121c9576040517f08c379a00000000000000000000000000000000000000000000000000000000081526004016121c090613f5e565b60405180910390fd5b7f30644e72e131a029b85045b68181585d2833e84879b9709143e1f593f0000001841061222b576040517f08c379a000000000000000000000000000000000000000000000000000000000815260040161222290613ff0565b60405180910390fd5b600061223f61223a8888612c5c565b612e32565b9050600061225d612257612251613258565b88612c5c565b83612d34565b9050600061226a8a612e32565b9050612293896122798861327c565b846122838a613370565b8561228e8c8c613494565b612ef0565b93505050509695505050505050565b60008060cc9050600060409050600060316000600681106122c6576122c5613bd2565b5b0154905060007f30644e72e131a029b85045b68181585d2833e84879b9709143e1f593f000000190506000806001905060005b8581101561232357838482840984089250838183099150808061231b90614010565b9150506122f9565b50600061233a612334868987613686565b8561377e565b9050838061234b5761234a613c01565b5b83820992508297505050505050505090565b6000806000806041855114612378576000935050505061242a565b6020850151925060408501519150606085015160001a9050601b8160ff1610156123ac57601b816123a99190614065565b90505b601b8160ff16141580156123c45750601c8160ff1614155b156123d5576000935050505061242a565b600186828585604051600081526020016040526040516123f894939291906140c4565b6020604051602081039080840390855afa15801561241a573d6000803e3d6000fd5b5050506020604051035193505050505b92915050565b600080600190506001831461258d577f30644e72e131a029b85045b68181585d2833e84879b9709143e1f593f00000018061246e5761246d613c01565b5b7f30644e72e131a029b85045b68181585d2833e84879b9709143e1f593f00000018061249d5761249c613c01565b5b60406000600281106124b2576124b1613bd2565b5b01547f30644e72e131a029b85045b68181585d2833e84879b9709143e1f593f00000016124df9190613c5f565b603f54087f30644e72e131a029b85045b68181585d2833e84879b9709143e1f593f00000018061251257612511613c01565b5b7f30644e72e131a029b85045b68181585d2833e84879b9709143e1f593f00000018061254157612540613c01565b5b604060016002811061255657612555613bd2565b5b01547f30644e72e131a029b85045b68181585d2833e84879b9709143e1f593f00000016125839190613c5f565b603f540884090990505b600283146126e3577f30644e72e131a029b85045b68181585d2833e84879b9709143e1f593f0000001806125c4576125c3613c01565b5b7f30644e72e131a029b85045b68181585d2833e84879b9709143e1f593f0000001806125f3576125f2613c01565b5b604260006002811061260857612607613bd2565b5b01547f30644e72e131a029b85045b68181585d2833e84879b9709143e1f593f00000016126359190613c5f565b603f54087f30644e72e131a029b85045b68181585d2833e84879b9709143e1f593f00000018061266857612667613c01565b5b7f30644e72e131a029b85045b68181585d2833e84879b9709143e1f593f00000018061269757612696613c01565b5b60426001600281106126ac576126ab613bd2565b5b01547f30644e72e131a029b85045b68181585d2833e84879b9709143e1f593f00000016126d99190613c5f565b603f540884090990505b60038314612794577f30644e72e131a029b85045b68181585d2833e84879b9709143e1f593f00000018061271a57612719613c01565b5b7f30644e72e131a029b85045b68181585d2833e84879b9709143e1f593f00000018061274957612748613c01565b5b604460006001811061275e5761275d613bd2565b5b01547f30644e72e131a029b85045b68181585d2833e84879b9709143e1f593f000000161278b9190613c5f565b603f5408820990505b6004831461298f577f30644e72e131a029b85045b68181585d2833e84879b9709143e1f593f0000001806127cb576127ca613c01565b5b7f30644e72e131a029b85045b68181585d2833e84879b9709143e1f593f0000001806127fa576127f9613c01565b5b604560006003811061280f5761280e613bd2565b5b01547f30644e72e131a029b85045b68181585d2833e84879b9709143e1f593f000000161283c9190613c5f565b603f54087f30644e72e131a029b85045b68181585d2833e84879b9709143e1f593f00000018061286f5761286e613c01565b5b7f30644e72e131a029b85045b68181585d2833e84879b9709143e1f593f00000018061289e5761289d613c01565b5b60456001600381106128b3576128b2613bd2565b5b01547f30644e72e131a029b85045b68181585d2833e84879b9709143e1f593f00000016128e09190613c5f565b603f54087f30644e72e131a029b85045b68181585d2833e84879b9709143e1f593f00000018061291357612912613c01565b5b7f30644e72e131a029b85045b68181585d2833e84879b9709143e1f593f00000018061294257612941613c01565b5b604560026003811061295757612956613bd2565b5b01547f30644e72e131a029b85045b68181585d2833e84879b9709143e1f593f00000016129849190613c5f565b603f54088609090990505b60058314612a40577f30644e72e131a029b85045b68181585d2833e84879b9709143e1f593f0000001806129c6576129c5613c01565b5b7f30644e72e131a029b85045b68181585d2833e84879b9709143e1f593f0000001806129f5576129f4613c01565b5b6048600060018110612a0a57612a09613bd2565b5b01547f30644e72e131a029b85045b68181585d2833e84879b9709143e1f593f0000001612a379190613c5f565b603f5408820990505b60068314612af1577f30644e72e131a029b85045b68181585d2833e84879b9709143e1f593f000000180612a7757612a76613c01565b5b7f30644e72e131a029b85045b68181585d2833e84879b9709143e1f593f000000180612aa657612aa5613c01565b5b6049600060018110612abb57612aba613bd2565b5b01547f30644e72e131a029b85045b68181585d2833e84879b9709143e1f593f0000001612ae89190613c5f565b603f5408820990505b60078314612ba2577f30644e72e131a029b85045b68181585d2833e84879b9709143e1f593f000000180612b2857612b27613c01565b5b7f30644e72e131a029b85045b68181585d2833e84879b9709143e1f593f000000180612b5757612b56613c01565b5b604a600060018110612b6c57612b6b613bd2565b5b01547f30644e72e131a029b85045b68181585d2833e84879b9709143e1f593f0000001612b999190613c5f565b603f5408820990505b60088314612c53577f30644e72e131a029b85045b68181585d2833e84879b9709143e1f593f000000180612bd957612bd8613c01565b5b7f30644e72e131a029b85045b68181585d2833e84879b9709143e1f593f000000180612c0857612c07613c01565b5b604b600060018110612c1d57612c1c613bd2565b5b01547f30644e72e131a029b85045b68181585d2833e84879b9709143e1f593f0000001612c4a9190613c5f565b603f5408820990505b80915050919050565b612c6461386a565b612c6c613884565b836000015181600060038110612c8557612c84613bd2565b5b602002018181525050836020015181600160038110612ca757612ca6613bd2565b5b6020020181815250508281600260038110612cc557612cc4613bd2565b5b602002018181525050600060608360808460076107d05a03fa90508060008103612ceb57fe5b5080612d2c576040517f08c379a0000000000000000000000000000000000000000000000000000000008152600401612d2390614155565b60405180910390fd5b505092915050565b612d3c61386a565b612d446138a6565b836000015181600060048110612d5d57612d5c613bd2565b5b602002018181525050836020015181600160048110612d7f57612d7e613bd2565b5b602002018181525050826000015181600260048110612da157612da0613bd2565b5b602002018181525050826020015181600360048110612dc357612dc2613bd2565b5b602002018181525050600060608360c08460066107d05a03fa90508060008103612de957fe5b5080612e2a576040517f08c379a0000000000000000000000000000000000000000000000000000000008152600401612e21906141c1565b60405180910390fd5b505092915050565b612e3a61386a565b60008260000151148015612e52575060008260200151145b15612e755760405180604001604052806000815260200160008152509050612eeb565b6040518060400160405280836000015181526020017f30644e72e131a029b85045b68181585d97816a916871ca8d3c208c16d87cfd478460200151612eba91906141e1565b7f30644e72e131a029b85045b68181585d97816a916871ca8d3c208c16d87cfd47612ee59190613c5f565b81525090505b919050565b60008060405180606001604052808981526020018781526020018581525090506000604051806060016040528089815260200187815260200185815250905060006012905060008167ffffffffffffffff811115612f5157612f5061398d565b5b604051908082528060200260200182016040528015612f7f5781602001602082028036833780820191505090505b50905060005b60038110156131bd576000600682612f9d9190614212565b9050858260038110612fb257612fb1613bd2565b5b60200201516000015183600083612fc9919061426c565b81518110612fda57612fd9613bd2565b5b602002602001018181525050858260038110612ff957612ff8613bd2565b5b60200201516020015183600183613010919061426c565b8151811061302157613020613bd2565b5b6020026020010181815250508482600381106130405761303f613bd2565b5b60200201516000015160006002811061305c5761305b613bd2565b5b60200201518360028361306f919061426c565b815181106130805761307f613bd2565b5b60200260200101818152505084826003811061309f5761309e613bd2565b5b6020020151600001516001600281106130bb576130ba613bd2565b5b6020020151836003836130ce919061426c565b815181106130df576130de613bd2565b5b6020026020010181815250508482600381106130fe576130fd613bd2565b5b60200201516020015160006002811061311a57613119613bd2565b5b60200201518360048361312d919061426c565b8151811061313e5761313d613bd2565b5b60200260200101818152505084826003811061315d5761315c613bd2565b5b60200201516020015160016002811061317957613178613bd2565b5b60200201518360058361318c919061426c565b8151811061319d5761319c613bd2565b5b6020026020010181815250505080806131b590614010565b915050612f85565b506131c66138c8565b6000602082602086026020860160086107d05a03fa905080600081036131e857fe5b5080613229576040517f08c379a00000000000000000000000000000000000000000000000000000000081526004016132209061430e565b60405180910390fd5b60008260006001811061323f5761323e613bd2565b5b6020020151141596505050505050509695505050505050565b61326061386a565b6040518060400160405280600181526020016002815250905090565b6132846138ea565b6040518060400160405280604051806040016040528060048660026132a99190614212565b815481106132ba576132b9613bd2565b5b9060005260206000200154815260200160058660026132d99190614212565b815481106132ea576132e9613bd2565b5b90600052602060002001548152508152602001604051806040016040528060068660026133179190614212565b8154811061332857613327613bd2565b5b9060005260206000200154815260200160078660026133479190614212565b8154811061335857613357613bd2565b5b90600052602060002001548152508152509050919050565b6133786138ea565b604051806040016040528060405180604001604052806004600187600261339f9190614212565b6133a9919061426c565b815481106133ba576133b9613bd2565b5b90600052602060002001548152602001600560018760026133db9190614212565b6133e5919061426c565b815481106133f6576133f5613bd2565b5b906000526020600020015481525081526020016040518060400160405280600660018760026134259190614212565b61342f919061426c565b815481106134405761343f613bd2565b5b90600052602060002001548152602001600760018760026134619190614212565b61346b919061426c565b8154811061347c5761347b613bd2565b5b90600052602060002001548152508152509050919050565b61349c6138ea565b8115613540576010604051806040016040529081600082016002806020026040519081016040528092919082600280156134eb576020028201915b8154815260200190600101908083116134d7575b5050505050815260200160028201600280602002604051908101604052809291908260028015613530576020028201915b81548152602001906001019080831161351c575b5050505050815250509050613680565b600083036135e657600c60405180604001604052908160008201600280602002604051908101604052809291908260028015613591576020028201915b81548152602001906001019080831161357d575b50505050508152602001600282016002806020026040519081016040528092919082600280156135d6576020028201915b8154815260200190600101908083116135c2575b5050505050815250509050613680565b60086040518060400160405290816000820160028060200260405190810160405280929190826002801561362f576020028201915b81548152602001906001019080831161361b575b5050505050815260200160028201600280602002604051908101604052809291908260028015613674576020028201915b815481526020019060010190808311613660575b50505050508152505090505b92915050565b60008082036136ca576040517f08c379a00000000000000000000000000000000000000000000000000000000081526004016136c19061437a565b60405180910390fd5b600084036136db5760009050613777565b600083036136ec5760019050613777565b60006001905060007f800000000000000000000000000000000000000000000000000000000000000090505b600081111561377157838186161515870a85848509099150836002820486161515870a85848509099150836004820486161515870a85848509099150836008820486161515870a85848509099150601081049050613718565b81925050505b9392505050565b60008083141580156137905750818314155b801561379d575060008214155b6137dc576040517f08c379a00000000000000000000000000000000000000000000000000000000081526004016137d3906143e6565b60405180910390fd5b60008060019050600084905060005b6000871461385d5786826137ff9190614406565b905082868061381157613810613c01565b5b87806138205761381f613c01565b5b8584098861382e9190613c5f565b860880945081955050508687826138459190614212565b836138509190613c5f565b80985081935050506137eb565b8394505050505092915050565b604051806040016040528060008152602001600081525090565b6040518060600160405280600390602082028036833780820191505090505090565b6040518060800160405280600490602082028036833780820191505090505090565b6040518060200160405280600190602082028036833780820191505090505090565b60405180604001604052806138fd613910565b815260200161390a613910565b81525090565b6040518060400160405280600290602082028036833780820191505090505090565b60008115159050919050565b61394781613932565b82525050565b6000602082019050613962600083018461393e565b92915050565b6000604051905090565b600080fd5b600080fd5b6000601f19601f8301169050919050565b7f4e487b7100000000000000000000000000000000000000000000000000000000600052604160045260246000fd5b6139c58261397c565b810181811067ffffffffffffffff821117156139e4576139e361398d565b5b80604052505050565b60006139f7613968565b9050613a0382826139bc565b919050565b6000819050919050565b613a1b81613a08565b8114613a2657600080fd5b50565b600081359050613a3881613a12565b92915050565b600060408284031215613a5457613a53613977565b5b613a5e60406139ed565b90506000613a6e84828501613a29565b6000830152506020613a8284828501613a29565b60208301525092915050565b613a9781613932565b8114613aa257600080fd5b50565b600081359050613ab481613a8e565b92915050565b6000806000806000806101008789031215613ad857613ad7613972565b5b6000613ae689828a01613a3e565b9650506040613af789828a01613a3e565b9550506080613b0889828a01613a29565b94505060a0613b1989828a01613a29565b93505060c0613b2a89828a01613a29565b92505060e0613b3b89828a01613aa5565b9150509295509295509295565b613b5181613a08565b82525050565b6000602082019050613b6c6000830184613b48565b92915050565b7f4e487b7100000000000000000000000000000000000000000000000000000000600052602260045260246000fd5b60006002820490506001821680613bb957607f821691505b602082108103613bcc57613bcb613b72565b5b50919050565b7f4e487b7100000000000000000000000000000000000000000000000000000000600052603260045260246000fd5b7f4e487b7100000000000000000000000000000000000000000000000000000000600052601260045260246000fd5b7f4e487b7100000000000000000000000000000000000000000000000000000000600052601160045260246000fd5b6000613c6a82613a08565b9150613c7583613a08565b925082821015613c8857613c87613c30565b5b828203905092915050565b600082825260208201905092915050565b7f56657269666965722e7665726966794b5a473a205f636f6d6d69746d656e742e60008201527f58206973206f7574206f662072616e6765000000000000000000000000000000602082015250565b6000613d00603183613c93565b9150613d0b82613ca4565b604082019050919050565b60006020820190508181036000830152613d2f81613cf3565b9050919050565b7f56657269666965722e7665726966794b5a473a205f636f6d6d69746d656e742e60008201527f59206973206f7574206f662072616e6765000000000000000000000000000000602082015250565b6000613d92603183613c93565b9150613d9d82613d36565b604082019050919050565b60006020820190508181036000830152613dc181613d85565b9050919050565b7f56657269666965722e7665726966794b5a473a205f70726f6f662e582069732060008201527f6f7574206f662072616e67650000000000000000000000000000000000000000602082015250565b6000613e24602c83613c93565b9150613e2f82613dc8565b604082019050919050565b60006020820190508181036000830152613e5381613e17565b9050919050565b7f56657269666965722e7665726966794b5a473a205f70726f6f662e592069732060008201527f6f7574206f662072616e67650000000000000000000000000000000000000000602082015250565b6000613eb6602c83613c93565b9150613ec182613e5a565b604082019050919050565b60006020820190508181036000830152613ee581613ea9565b9050919050565b7f56657269666965722e7665726966794b5a473a205f696e646578206973206f7560008201527f74206f662072616e676500000000000000000000000000000000000000000000602082015250565b6000613f48602a83613c93565b9150613f5382613eec565b604082019050919050565b60006020820190508181036000830152613f7781613f3b565b9050919050565b7f56657269666965722e7665726966794b5a473a205f76616c7565206973206f7560008201527f74206f662072616e676500000000000000000000000000000000000000000000602082015250565b6000613fda602a83613c93565b9150613fe582613f7e565b604082019050919050565b6000602082019050818103600083015261400981613fcd565b9050919050565b600061401b82613a08565b91507fffffffffffffffffffffffffffffffffffffffffffffffffffffffffffffffff820361404d5761404c613c30565b5b600182019050919050565b600060ff82169050919050565b600061407082614058565b915061407b83614058565b92508260ff0382111561409157614090613c30565b5b828201905092915050565b6000819050919050565b6140af8161409c565b82525050565b6140be81614058565b82525050565b60006080820190506140d960008301876140a6565b6140e660208301866140b5565b6140f360408301856140a6565b61410060608301846140a6565b95945050505050565b7f70616972696e672d6d756c2d6661696c65640000000000000000000000000000600082015250565b600061413f601283613c93565b915061414a82614109565b602082019050919050565b6000602082019050818103600083015261416e81614132565b9050919050565b7f70616972696e672d6164642d6661696c65640000000000000000000000000000600082015250565b60006141ab601283613c93565b91506141b682614175565b602082019050919050565b600060208201905081810360008301526141da8161419e565b9050919050565b60006141ec82613a08565b91506141f783613a08565b92508261420757614206613c01565b5b828206905092915050565b600061421d82613a08565b915061422883613a08565b9250817fffffffffffffffffffffffffffffffffffffffffffffffffffffffffffffffff048311821515161561426157614260613c30565b5b828202905092915050565b600061427782613a08565b915061428283613a08565b9250827fffffffffffffffffffffffffffffffffffffffffffffffffffffffffffffffff038211156142b7576142b6613c30565b5b828201905092915050565b7f70616972696e672d6f70636f64652d6661696c65640000000000000000000000600082015250565b60006142f8601583613c93565b9150614303826142c2565b602082019050919050565b60006020820190508181036000830152614327816142eb565b9050919050565b7f4d6f64756c7573206973207a65726f0000000000000000000000000000000000600082015250565b6000614364600f83613c93565b915061436f8261432e565b602082019050919050565b6000602082019050818103600083015261439381614357565b9050919050565b7f496e76616c6964206e756d626572000000000000000000000000000000000000600082015250565b60006143d0600e83613c93565b91506143db8261439a565b602082019050919050565b600060208201905081810360008301526143ff816143c3565b9050919050565b600061441182613a08565b915061441c83613a08565b92508261442c5761442b613c01565b5b82820490509291505056fea26469706673582212203685e0647d8eb6fd40decceac466202677e08d95878a51907bfd12a7909b719e64736f6c634300080d003332303930303432393839393239313030393037333239393238393436393636303134393731363738353539363235313439313330303639323033353638313439323031363933393137393235372c2034333336393130323335363836393631353338323835393936353237323731373734393336373139303538383334353439353338363836303430373438373135323833383132323030393719ec5dc5aa05a220cd210a113352596ebf80d06a6f776b8e0c656e50a5c5567f1e8a7f23fb27f77ea5b5d42f0e2384facdebebd85f026e2a73e94d4690a40a6801",
  "immutableReferences": {},
  "source": "// Modified from https://github.com/appliedzkp/semaphore/blob/master/contracts/sol/verifier.sol\r\n// SPDX-License-Identifier: MIT\r\n\r\n// please notice that current code may be temporary code for cost estimation, and right version is annotated\r\n// there's even two version of 'proof', one for batched one not, currently use the batched one\r\n// unannotate the other if run verifySonic\r\n\r\npragma solidity >=0.4.22 <0.9.0;\r\npragma experimental ABIEncoderV2;\r\nimport \"./Pairing.sol\";\r\n// import \"./PolyCoeff.sol\";\r\nimport { Constants } from \"./Constants.sol\";\r\n// import \"@openzeppelin/contracts/utils/Strings.sol\";\r\n\r\ncontract Verifier is Constants {\r\n\r\n    using Pairing for *;\r\n\r\n    // PolyCoeff polyCoeff;\r\n\r\n    event verifyResult(bool result);\r\n    // description in F below\r\n\r\n    // temporarily use this for kzg-commitment version verifier and batched proof\r\n    uint256[21] Proof = [\r\n        uint256(20435686948508171234472206488737953800505595616105823290561271581793730135986),\r\n        uint256(7613038940582986439878577004424311309737615170791456916446723479068371769225),\r\n        uint256(20435686948508171234472206488737953800505595616105823290561271581793730135986),\r\n        uint256(7613038940582986439878577004424311309737615170791456916446723479068371769225),\r\n        uint256(20435686948508171234472206488737953800505595616105823290561271581793730135986),\r\n        uint256(7613038940582986439878577004424311309737615170791456916446723479068371769225),\r\n        uint256(20435686948508171234472206488737953800505595616105823290561271581793730135986),\r\n        uint256(7613038940582986439878577004424311309737615170791456916446723479068371769225),\r\n        uint256(20435686948508171234472206488737953800505595616105823290561271581793730135986),\r\n        uint256(7613038940582986439878577004424311309737615170791456916446723479068371769225),\r\n        uint256(20435686948508171234472206488737953800505595616105823290561271581793730135986),\r\n        uint256(7613038940582986439878577004424311309737615170791456916446723479068371769225),\r\n        uint256(20435686948508171234472206488737953800505595616105823290561271581793730135986),\r\n        uint256(7613038940582986439878577004424311309737615170791456916446723479068371769225),\r\n        uint256(20435686948508171234472206488737953800505595616105823290561271581793730135986),\r\n        uint256(7613038940582986439878577004424311309737615170791456916446723479068371769225),\r\n        uint256(20435686948508171234472206488737953800505595616105823290561271581793730135986),\r\n        uint256(7613038940582986439878577004424311309737615170791456916446723479068371769225),\r\n        uint256(19848703903105846067635106277601755727734486581037082434405934553883502968806),\r\n        uint256(7073067203970200196273245091229017314841577127190841947842173598530677375580),\r\n        uint256(11142795172845103846997117758219330284910812886430955732663385421662518242916)\r\n    ];\r\n\r\n    // temporarily this is for original sonic\r\n    // uint256[21] Proof = [\r\n    //     uint256(20435686948508171234472206488737953800505595616105823290561271581793730135986),\r\n    //     uint256(7613038940582986439878577004424311309737615170791456916446723479068371769225),\r\n    //     uint256(20900429899291009073299289469660149716785596251491300692035681492016939179257),\r\n    //     uint256(17015433841169487450406840425175642150965883946544965612916879717959251917877),\r\n    //     uint256(433691023568696153828599652727177493671905883454953868604074871528381220097),\r\n    //     uint256(10320531664273889342578906132837836076031009559738199149165995480549188738219),\r\n    //     uint256(5841514956038981489672186264970094693930045609713312309929445225955171101947),\r\n    //     uint256(5021024840007099401420413415719005463562614305701472747429400657816854795888),\r\n    //     uint256(20774065911754029615648528083815650325450840922528127398846513310899898519818),\r\n    //     uint256(15033194806153309440324576121312701377491848712637707126378339071163915088607),\r\n    //     uint256(13797601081368067296147105517336555699959400728196376360418452678919689273357),\r\n    //     uint256(347536244405038501480645670232637364896709701574004323632284243300674648233),\r\n    //     uint256(14150985670258525975582637074878024272235049272474457475329855381177734047698),\r\n    //     uint256(2655786006985334435742353147654701867454007390061009682990360208958229883457),\r\n    //     uint256(19749978915220999581635876327451130211831443864540429941950424972239040718725),\r\n    //     uint256(18652734379260577017619098828238354228621932558467343220803598526754221068969),\r\n    //     uint256(19231643171984527412379363884712632725022106910875011856721870145973184299950),\r\n    //     uint256(11890584382703984881384687349129438589403848436060509080598302278432395889958),\r\n    //     uint256(19848703903105846067635106277601755727734486581037082434405934553883502968806),\r\n    //     uint256(7073067203970200196273245091229017314841577127190841947842173598530677375580),\r\n    //     uint256(11142795172845103846997117758219330284910812886430955732663385421662518242916)\r\n    // ];\r\n\r\n    uint256[6] Randoms = [\r\n        uint256(21356640755055926883299664242251323519715676831624930462071588778907420237277),\r\n        uint256(21284924740537517593391635090683107806948436131904811688892120057033464016678),\r\n        uint256(21245863740537517593391635090683107806948436131465498421988152500056051919194), // z\r\n        uint256(21310127601857075097195740179019725106470167450176016701474654076975565675629), // x\r\n        uint256(21300179784197405894513072539865320928097398620497813074953097024203243212233), // beta\r\n        uint256(21310127601857075097195740179019725106470167450176016701474654076975565675629)  // alpha\r\n    ];\r\n    // length of longest u,v,w, i.e. longest length of a,b,c, linear\r\n    // uint256 N = 2994;\r\n\r\n    uint256 evalK = uint256(11598511819595573397693757683043215863237090817957830497519701049476846220233);\r\n    uint256 evalS = Proof[20];\r\n\r\n    // SOCC_hscS = [G1Point S_j, uint256 s_j, G1Point W_j]\r\n    // uint256[5] SOCC_hscS = [\r\n    //     uint256(4856595452220518861283513887787149560249872199754148373623768058895650888886),\r\n    //     uint256(18903793806709064235976701805982270837399009185115750427816521247566249210556),\r\n    //     uint256(11142795172845103846997117758219330284910812886430955732663385421662518242916),\r\n    //     uint256(21371202341828297453905088304285070177929072675831707150146249345026206448204),\r\n    //     uint256(2804295765584777874267821186909392907007222244895837511075392229436674961086)\r\n    // ];\r\n    // SOCC_hscW = [uint256 s'_j,G1Point W'_j, G1Point Q_j]\r\n    // uint256[5] SOCC_hscW = [\r\n    //     uint256(10516069979663785554384039720791935537971662430097624533692998141893610132813),\r\n    //     uint256(4047408704098476939730481302397316844045052246660100325786631118072453155095),\r\n    //     uint256(3536770324764440576997419732517461268782698510962602892817204324264966117745),\r\n    //     uint256(14245367996788138561788347307320292816184394224142842975302936827932398609764),\r\n    //     uint256(4809015920432886449944012129537258787815219963382067822305826740230093200527)\r\n    // ];\r\n\r\n    // Pairing.G1Point hscQv = Pairing.G1Point(\r\n    //     uint256(2990558601454446836641627272921201963123578559834602407524792456795005493261),\r\n    //     uint256(13202662347545347168000079135411531495309137838398006144762638337293564502641)\r\n    // );\r\n    // Pairing.G1Point hscC = Pairing.G1Point(\r\n    //     uint256(20354021681082976488982424663336191185782081465046767166624106617637273115698),\r\n    //     uint256(7434894914590215425794637416957100516507193983165584369402225555559623348194)\r\n    // );\r\n\r\n    // uint256 u = uint256(8197071660809916300712359474937866146139983659726903111927633346212682272753);\r\n    // uint256 v = uint256(18304223670379022123371455395869338667757056554451611927086438308637909615067);\r\n\r\n    // from terminal\r\n    // uint256 s_uv = uint256(7791702837224372263152657165191932519240106980588006270334507770946892728366);\r\n\r\n    // from Go\r\n    bytes32 message = ethMessageHash(\"20900429899291009073299289469660149716785596251491300692035681492016939179257, 433691023568696153828599652727177493671905883454953868604074871528381220097\");\r\n    bytes sig = hex\"19ec5dc5aa05a220cd210a113352596ebf80d06a6f776b8e0c656e50a5c5567f1e8a7f23fb27f77ea5b5d42f0e2384facdebebd85f026e2a73e94d4690a40a6801\";\r\n    address addr = 0xE448992FdEaF94784bBD8f432d781C061D907985;\r\n\r\n    // The G2 generator\r\n    // IMPORTANT: why it's here? because the G2Gen() doesn't work in verify() for unknown reason\r\n    // Pairing.G2Point g2Generator = Pairing.G2Point({\r\n    //     X: [ Constants.SRS_G2_X_0[0], Constants.SRS_G2_X_1[0] ],\r\n    //     Y: [ Constants.SRS_G2_Y_0[0], Constants.SRS_G2_Y_1[0] ]\r\n    // });\r\n    // g\r\n    Pairing.G1Point g = Pairing.G1Point(1, 2);\r\n    \r\n    // h^\r\n    // Pairing.G2Point SRS_G2_2 = Pairing.G2Point({\r\n    //     X: [ SRS_G2_X_0_Pos[2], SRS_G2_X_1_Pos[2] ],\r\n    //     Y: [ SRS_G2_Y_0_Pos[2], SRS_G2_Y_1_Pos[2] ]\r\n    // });\r\n    uint256 yz = mulmod(Randoms[0], Randoms[1], Pairing.BABYJUB_P);\r\n    // z, z < BABYJUB_P\r\n    uint256 z = uint256(15296790970327023790902573209632219845262752031560971643217337210279580213975);\r\n    // S, each element < BABYJUB_P\r\n    uint256[2] S1 = [Randoms[1], Randoms[1]];\r\n    uint256[2] S2 = [yz,  yz];\r\n    uint256[1] S3 = [Randoms[1]];\r\n    uint256[3] S4 = [Randoms[1], Randoms[1], Randoms[1]];\r\n    uint256[1] S5 = [Randoms[1]];\r\n    uint256[1] S6 = [Randoms[1]];\r\n    uint256[1] S7 = [Randoms[1]];\r\n    uint256[1] S8 = [Randoms[1]];\r\n    // gamma [0] + [1]*z + [2]*z^2 + ...\r\n    uint256[2] gamma1 = [Randoms[1], Randoms[1]];\r\n    uint256[2] gamma2 = [yz,  yz];\r\n    uint256[1] gamma3 = [Randoms[1]];\r\n    uint256[3] gamma4 = [Randoms[1], Randoms[1], Randoms[1]];\r\n    uint256[1] gamma5 = [Randoms[1]];\r\n    uint256[1] gamma6 = [Randoms[1]];\r\n    uint256[1] gamma7 = [Randoms[1]];\r\n    uint256[1] gamma8 = [Randoms[1]];\r\n    // the committed prove, g^p[x], g^w[x]\r\n    Pairing.G1Point pi_1 = G1Gen();\r\n    Pairing.G1Point pi_2 = G1Gen();\r\n\r\n    // Sonic version - Verify a single-point evaluation of a polynominal\r\n    function verify(\r\n        Pairing.G1Point memory _commitment, // F\r\n        Pairing.G1Point memory _proof, // W\r\n        uint256 _index,  // z\r\n        uint256 _value,  // F(z) or v\r\n        uint proofIndex,\r\n        bool isT\r\n    ) public view returns (bool) {\r\n        // Make sure each parameter is less than the prime q\r\n        require(_commitment.X < BABYJUB_P, \"Verifier.verifyKZG: _commitment.X is out of range\");\r\n        require(_commitment.Y < BABYJUB_P, \"Verifier.verifyKZG: _commitment.Y is out of range\");\r\n        require(_proof.X < BABYJUB_P, \"Verifier.verifyKZG: _proof.X is out of range\");\r\n        require(_proof.Y < BABYJUB_P, \"Verifier.verifyKZG: _proof.Y is out of range\");\r\n        require(_index < BABYJUB_P, \"Verifier.verifyKZG: _index is out of range\");\r\n        require(_value < BABYJUB_P, \"Verifier.verifyKZG: _value is out of range\");\r\n       \r\n        Pairing.G1Point memory negProof = Pairing.negate(Pairing.mulScalar(_proof, _index));\r\n        Pairing.G1Point memory mulProof = Pairing.plus(Pairing.mulScalar(Constants.G1Gen(), _value), negProof);\r\n        Pairing.G1Point memory negCm = Pairing.negate(_commitment);\r\n\r\n        return Pairing.pairing_3point(_proof, Constants.SRS_G2_hAlphaX1(proofIndex),\r\n                                mulProof, Constants.SRS_G2_hAlphaX0(proofIndex),\r\n                                negCm, Constants.SRS_G2_hAlphaXdMax(proofIndex, isT));\r\n    }\r\n\r\n\r\n\r\n    /*\r\n     * Verifies a single-point evaluation of a polynominal using the KZG\r\n     * commitment scheme.\r\n     *    - p(X) is a polynominal\r\n     *    - _value = p(_index) \r\n     *    - commitment = commit(p)\r\n     *    - proof = genProof(p, _index, _value)\r\n     * Returns true if and only if the following holds, and returns false\r\n     * otherwise:\r\n     *     e(commitment - commit([_value]), G2.g) == e(proof, commit([0, 1]) - zCommit)\r\n     * @param _commitment The KZG polynominal commitment.\r\n     * @param _proof The proof.\r\n     * @param _index The x-value at which to evaluate the polynominal.\r\n     * @param _value The result of the polynominal evaluation.\r\n     */\r\n    // KZG version - Verify a single-point evaluation of a polynominal\r\n\r\n    // function verify(\r\n    //     Pairing.G1Point memory _commitment, // F\r\n    //     Pairing.G1Point memory _proof, // \r\n    //     uint256 _index,  // z\r\n    //     uint256 _value  // F(z) or v\r\n    //     //uint proofIndex\r\n    // ) public view returns (bool) {\r\n    //     // Make sure each parameter is less than the prime q\r\n    //     require(_commitment.X < BABYJUB_P, \"Verifier.verifyKZG: _commitment.X is out of range\");\r\n    //     require(_commitment.Y < BABYJUB_P, \"Verifier.verifyKZG: _commitment.Y is out of range\");\r\n    //     require(_proof.X < BABYJUB_P, \"Verifier.verifyKZG: _proof.X is out of range\");\r\n    //     require(_proof.Y < BABYJUB_P, \"Verifier.verifyKZG: _proof.Y is out of range\");\r\n    //     require(_index < BABYJUB_P, \"Verifier.verifyKZG: _index is out of range\");\r\n    //     require(_value < BABYJUB_P, \"Verifier.verifyKZG: _value is out of range\");\r\n    //     // Check that \r\n    //     //     e(commitment - aCommit, G2.g) == e(proof, xCommit - zCommit)\r\n    //     //     e(commitment - aCommit, G2.g) / e(proof, xCommit - zCommit) == 1\r\n    //     //     e(commitment - aCommit, G2.g) * e(proof, xCommit - zCommit) ^ -1 == 1\r\n    //     //     e(commitment - aCommit, G2.g) * e(-proof, xCommit - zCommit) == 1\r\n    //     // where:\r\n    //     //     aCommit = commit([_value]) = SRS_G1_0 * _value\r\n    //     //     xCommit = commit([0, 1]) = SRS_G2_1\r\n    //     //     zCommit = commit([_index]) = SRS_G2_1 * _index\r\n\r\n    //     // To avoid having to perform an expensive operation in G2 to compute\r\n    //     // xCommit - zCommit, we instead check the equivalent equation:\r\n    //     //     e(commitment - aCommit, G2.g) * e(-proof, xCommit) * e(-proof, -zCommit) == 1\r\n    //     //     e(commitment - aCommit, G2.g) * e(-proof, xCommit) * e(proof, zCommit) == 1\r\n    //     //     e(commitment - aCommit, G2.g) * e(-proof, xCommit) * e(index * proof, G2.g) == 1\r\n    //     //     e((index * proof) + (commitment - aCommit), G2.g) * e(-proof, xCommit) == 1\r\n\r\n    //     // Compute commitment - aCommitment\r\n    //     Pairing.G1Point memory commitmentMinusA = Pairing.plus(\r\n    //         _commitment,\r\n    //         Pairing.negate(\r\n    //             Pairing.mulScalar(Constants.G1Gen(), _value)\r\n    //         )\r\n    //     );\r\n\r\n    //     // Negate the proof\r\n    //     Pairing.G1Point memory negProof = Pairing.negate(_proof);\r\n\r\n    //     // Compute index * proof\r\n    //     Pairing.G1Point memory indexMulProof = Pairing.mulScalar(_proof, _index);\r\n\r\n    //     // Return true if and only if\r\n    //     // e((index * proof) + (commitment - aCommitment), G2.g) * e(-proof, xCommit) == 1\r\n    //     return Pairing.pairing(\r\n    //         Pairing.plus(indexMulProof, commitmentMinusA),\r\n    //         g2Generator,\r\n    //         negProof,\r\n    //         SRS_G2_1 // it's h. original author of kzg commitment code call it 'xCommit' here\r\n    //     );\r\n    // }\r\n\r\n    // modified sonic verifier using KZG commitment\r\n\r\n    // function verifySonic_KZG(\r\n    //     // uint256[21] memory Proof,\r\n    //     // uint256[2] memory Randoms\r\n    // ) public returns (bool) {\r\n\r\n    //     // simulate calculating kY\r\n    //     // uint256 ky = evalKPoly();\r\n    //     // // // simulate calculating sXY\r\n    //     // uint256 sx = evalXPoly();\r\n    //     // uint256 sy = evalXPoly();\r\n\r\n    //     //uint256 yz = mulmod(Randoms[0], Randoms[1], Pairing.BABYJUB_P);\r\n\r\n    //     // y^N for halo implementation style\r\n    //     // uint256 y_n = expMod(Randoms[1], N, BABYJUB_P);\r\n    //     // t for halo implementation style\r\n    //     // uint256 t = addmod(mulmod(addmod(Proof[6], Proof[9], Pairing.BABYJUB_P), \r\n    //     //                           addmod(addmod(Proof[12], \r\n    //     //                                         Proof[15], Pairing.BABYJUB_P), \r\n    //     //                                  evalS, Pairing.BABYJUB_P), Pairing.BABYJUB_P),\r\n    //     //                     mulmod((BABYJUB_P - evalK), y_n, BABYJUB_P),\r\n    //     //                     BABYJUB_P);\r\n\r\n    //     uint256 t = addmod(mulmod(addmod(Proof[6], Proof[9], Pairing.BABYJUB_P), \r\n    //                               addmod(addmod(Proof[12], \r\n    //                                             Proof[15], Pairing.BABYJUB_P), \r\n    //                                      evalS, Pairing.BABYJUB_P), Pairing.BABYJUB_P),\r\n    //                         (BABYJUB_P - evalK), BABYJUB_P);\r\n\r\n\r\n    //     bool verifySignature = recover(message, sig) == addr;\r\n    //     // bool result = verify(Pairing.G1Point(Proof[0], Proof[1]), // aLocal\r\n    //     //               Pairing.G1Point(Proof[7], Proof[8]),\r\n    //     //               Randoms[1], \r\n    //     //               Proof[6]) &&\r\n    //     //         verify(Pairing.G1Point(Proof[0], Proof[1]), // bLocal\r\n    //     //               Pairing.G1Point(Proof[13], Proof[14]),\r\n    //     //               yz,\r\n    //     //               Proof[12]) &&\r\n    //     //         verify(Pairing.G1Point(Proof[2], Proof[3]), // aRaw\r\n    //     //               Pairing.G1Point(Proof[10], Proof[11]),\r\n    //     //               Randoms[1],\r\n    //     //               Proof[9]) &&\r\n    //     //         verify(Pairing.G1Point(Proof[2], Proof[3]), // bRaw\r\n    //     //               Pairing.G1Point(Proof[16], Proof[17]),\r\n    //     //               yz,\r\n    //     //               Proof[15]) &&\r\n    //     //         verify(Pairing.G1Point(Proof[4], Proof[5]), // t\r\n    //     //               Pairing.G1Point(Proof[18], Proof[19]),\r\n    //     //               Randoms[1],\r\n    //     //               t) &&                               \r\n    //     //         verify(Pairing.G1Point(Proof[4], Proof[5]), // t\r\n    //     //               Pairing.G1Point(Proof[18], Proof[19]),\r\n    //     //               Randoms[1],\r\n    //     //               t) &&                                            // pcV srsLocal (srsD srsLocal) commitK y (k, wk)\r\n    //     //         verify(Pairing.G1Point(Proof[4], Proof[5]), // t\r\n    //     //               Pairing.G1Point(Proof[18], Proof[19]),\r\n    //     //               Randoms[1],\r\n    //     //               t) &&                                            // pcV srsLocal (srsD srsLocal) commitC y (c, wc)\r\n    //     //         verify(Pairing.G1Point(Proof[4], Proof[5]), // t\r\n    //     //               Pairing.G1Point(Proof[18], Proof[19]),\r\n    //     //               Randoms[1],\r\n    //     //               t) &&                                            // pcV srsLocal (srsD srsLocal) commitC yOld (cOld, wcOld)\r\n    //     //         verify(Pairing.G1Point(Proof[4], Proof[5]), // t\r\n    //     //               Pairing.G1Point(Proof[18], Proof[19]),\r\n    //     //               Randoms[1],\r\n    //     //               t) &&                                            //, pcV srsLocal (srsD srsLocal) commitC yNew (cNew, wcNew)\r\n    //     //         verify(Pairing.G1Point(Proof[4], Proof[5]), // t\r\n    //     //               Pairing.G1Point(Proof[18], Proof[19]),\r\n    //     //               Randoms[1],\r\n    //     //               t) &&                                            //, pcV srsLocal (srsD srsLocal) commitS z (s, ws)\r\n    //     //         verify(Pairing.G1Point(Proof[4], Proof[5]), // t\r\n    //     //               Pairing.G1Point(Proof[18], Proof[19]),\r\n    //     //               Randoms[1],\r\n    //     //               t) &&                                            //, pcV srsLocal (srsD srsLocal) commitSOld z (sOld, wsOld)\r\n    //     //          verify(Pairing.G1Point(Proof[4], Proof[5]), // t\r\n    //     //               Pairing.G1Point(Proof[18], Proof[19]),\r\n    //     //               Randoms[1],\r\n    //     //               t) &&                                           //, pcV srsLocal (srsD srsLocal) commitSNew z (sNew, wsNew)\r\n    //     //         verifySignature &&\r\n    //     //         Proof[6] == Proof[7] && // c_old == s_old\r\n    //     //         Proof[8] == Proof[9] && // c_new == s_new\r\n    //     //         Proof[10] == Proof[11]; // c == s\r\n\r\n    //     // temporary code for estimating gas cost, the above is correct version\r\n    //     bool result = verify(Pairing.G1Point(Proof[0], Proof[1]), // aLocal\r\n    //                   Pairing.G1Point(Proof[7], Proof[8]),\r\n    //                   Randoms[1], \r\n    //                   Proof[6]);\r\n    //     result = verify(Pairing.G1Point(Proof[0], Proof[1]), // bLocal\r\n    //                   Pairing.G1Point(Proof[13], Proof[14]),\r\n    //                   yz,\r\n    //                   Proof[12]);\r\n    //     result = verify(Pairing.G1Point(Proof[2], Proof[3]), // aRaw\r\n    //                   Pairing.G1Point(Proof[10], Proof[11]),\r\n    //                   Randoms[1],\r\n    //                   Proof[9]);\r\n    //     result = verify(Pairing.G1Point(Proof[2], Proof[3]), // bRaw\r\n    //                   Pairing.G1Point(Proof[16], Proof[17]),\r\n    //                   yz,\r\n    //                   Proof[15]);\r\n    //     result = verify(Pairing.G1Point(Proof[4], Proof[5]), // t\r\n    //                   Pairing.G1Point(Proof[18], Proof[19]),\r\n    //                   Randoms[1],\r\n    //                   t);                              \r\n    //     result = verify(Pairing.G1Point(Proof[4], Proof[5]), // t\r\n    //                   Pairing.G1Point(Proof[18], Proof[19]),\r\n    //                   Randoms[1],\r\n    //                   t);                                            // pcV srsLocal (srsD srsLocal) commitK y (k, wk)\r\n    //     result = verify(Pairing.G1Point(Proof[4], Proof[5]), // t\r\n    //                   Pairing.G1Point(Proof[18], Proof[19]),\r\n    //                   Randoms[1],\r\n    //                   t);                                            // pcV srsLocal (srsD srsLocal) commitC y (c, wc)\r\n    //     result = verify(Pairing.G1Point(Proof[4], Proof[5]), // t\r\n    //                   Pairing.G1Point(Proof[18], Proof[19]),\r\n    //                   Randoms[1],\r\n    //                   t);                                            // pcV srsLocal (srsD srsLocal) commitC yOld (cOld, wcOld)\r\n    //     result = verify(Pairing.G1Point(Proof[4], Proof[5]), // t\r\n    //                   Pairing.G1Point(Proof[18], Proof[19]),\r\n    //                   Randoms[1],\r\n    //                   t);                                            //, pcV srsLocal (srsD srsLocal) commitC yNew (cNew, wcNew)\r\n    //     result = verify(Pairing.G1Point(Proof[4], Proof[5]), // t\r\n    //                   Pairing.G1Point(Proof[18], Proof[19]),\r\n    //                   Randoms[1],\r\n    //                   t);                                            //, pcV srsLocal (srsD srsLocal) commitS z (s, ws)\r\n    //     result = verify(Pairing.G1Point(Proof[4], Proof[5]), // t\r\n    //                   Pairing.G1Point(Proof[18], Proof[19]),\r\n    //                   Randoms[1],\r\n    //                   t);                                            //, pcV srsLocal (srsD srsLocal) commitSOld z (sOld, wsOld)\r\n    //     result = verify(Pairing.G1Point(Proof[4], Proof[5]), // t\r\n    //                   Pairing.G1Point(Proof[18], Proof[19]),\r\n    //                   Randoms[1],\r\n    //                   t);                                           //, pcV srsLocal (srsD srsLocal) commitSNew z (sNew, wsNew)\r\n    //     result = verifySignature;\r\n    //     result = Proof[6] == Proof[7]; // c_old == s_old\r\n    //     result = Proof[8] == Proof[9]; // c_new == s_new\r\n    //     result = Proof[10] == Proof[11]; // c == s\r\n    //     emit verifyResult(result);\r\n    //     return result;\r\n    // }\r\n\r\n    // sonic verifier\r\n\r\n    function verifySonic(\r\n        // uint256[21] memory Proof,\r\n        // uint256[2] memory Randoms\r\n    ) public returns (bool) {\r\n\r\n        // simulate calculating kY\r\n        // uint256 ky = evalKPoly();\r\n        // // // simulate calculating sXY\r\n        // uint256 sx = evalXPoly();\r\n        // uint256 sy = evalXPoly();\r\n\r\n        //uint256 yz = mulmod(Randoms[0], Randoms[1], Pairing.BABYJUB_P);\r\n\r\n        // y^N for halo implementation style\r\n        // uint256 y_n = expMod(Randoms[1], N, BABYJUB_P);\r\n        // t for halo implementation style\r\n        // uint256 t = addmod(mulmod(addmod(Proof[6], Proof[9], Pairing.BABYJUB_P), \r\n        //                           addmod(addmod(Proof[12], \r\n        //                                         Proof[15], Pairing.BABYJUB_P), \r\n        //                                  evalS, Pairing.BABYJUB_P), Pairing.BABYJUB_P),\r\n        //                     mulmod((BABYJUB_P - evalK), y_n, BABYJUB_P),\r\n        //                     BABYJUB_P);\r\n\r\n        uint256 t = addmod(mulmod(addmod(Proof[6], Proof[9], Pairing.BABYJUB_P), \r\n                                  addmod(addmod(Proof[12], \r\n                                                Proof[15], Pairing.BABYJUB_P), \r\n                                         evalS, Pairing.BABYJUB_P), Pairing.BABYJUB_P),\r\n                            (BABYJUB_P - evalK), BABYJUB_P);\r\n\r\n\r\n        bool verifySignature = recover(message, sig) == addr;\r\n        // bool result = verify(Pairing.G1Point(Proof[0], Proof[1]), // aLocal\r\n        //               Pairing.G1Point(Proof[7], Proof[8]),\r\n        //               Randoms[1], \r\n        //               Proof[6],\r\n        //               0, false) &&\r\n        //         verify(Pairing.G1Point(Proof[0], Proof[1]), // bLocal\r\n        //               Pairing.G1Point(Proof[13], Proof[14]),\r\n        //               yz,\r\n        //               Proof[12],\r\n        //               0, false) &&\r\n        //         verify(Pairing.G1Point(Proof[2], Proof[3]), // aRaw\r\n        //               Pairing.G1Point(Proof[10], Proof[11]),\r\n        //               Randoms[1],\r\n        //               Proof[9],\r\n        //               1, false) &&\r\n        //         verify(Pairing.G1Point(Proof[2], Proof[3]), // bRaw\r\n        //               Pairing.G1Point(Proof[16], Proof[17]),\r\n        //               yz,\r\n        //               Proof[15],\r\n        //               1, false) &&\r\n        //         verify(Pairing.G1Point(Proof[4], Proof[5]), // t\r\n        //               Pairing.G1Point(Proof[18], Proof[19]),\r\n        //               Randoms[1],\r\n        //               t,\r\n        //               0, true) &&                               \r\n        //         verify(Pairing.G1Point(Proof[4], Proof[5]), // t\r\n        //               Pairing.G1Point(Proof[18], Proof[19]),\r\n        //               Randoms[1],\r\n        //               t,\r\n        //               0, true) &&                                            // pcV srsLocal (srsD srsLocal) commitK y (k, wk)\r\n        //         verify(Pairing.G1Point(Proof[4], Proof[5]), // t\r\n        //               Pairing.G1Point(Proof[18], Proof[19]),\r\n        //               Randoms[1],\r\n        //               t,\r\n        //               0, true) &&                                            // pcV srsLocal (srsD srsLocal) commitC y (c, wc)\r\n        //         verify(Pairing.G1Point(Proof[4], Proof[5]), // t\r\n        //               Pairing.G1Point(Proof[18], Proof[19]),\r\n        //               Randoms[1],\r\n        //               t,\r\n        //               0, true) &&                                            // pcV srsLocal (srsD srsLocal) commitC yOld (cOld, wcOld)\r\n        //         verify(Pairing.G1Point(Proof[4], Proof[5]), // t\r\n        //               Pairing.G1Point(Proof[18], Proof[19]),\r\n        //               Randoms[1],\r\n        //               t,\r\n        //               0, true) &&                                            //, pcV srsLocal (srsD srsLocal) commitC yNew (cNew, wcNew)\r\n        //         verify(Pairing.G1Point(Proof[4], Proof[5]), // t\r\n        //               Pairing.G1Point(Proof[18], Proof[19]),\r\n        //               Randoms[1],\r\n        //               t,\r\n        //               0, true) &&                                            //, pcV srsLocal (srsD srsLocal) commitS z (s, ws)\r\n        //         verify(Pairing.G1Point(Proof[4], Proof[5]), // t\r\n        //               Pairing.G1Point(Proof[18], Proof[19]),\r\n        //               Randoms[1],\r\n        //               t,\r\n        //               0, true) &&                                            //, pcV srsLocal (srsD srsLocal) commitSOld z (sOld, wsOld)\r\n        //          verify(Pairing.G1Point(Proof[4], Proof[5]), // t\r\n        //               Pairing.G1Point(Proof[18], Proof[19]),\r\n        //               Randoms[1],\r\n        //               t,\r\n        //               0, true) &&                                           //, pcV srsLocal (srsD srsLocal) commitSNew z (sNew, wsNew)\r\n        //         verifySignature &&\r\n        //         Proof[6] == Proof[7] && // c_old == s_old\r\n        //         Proof[8] == Proof[9] && // c_new == s_new\r\n        //         Proof[10] == Proof[11]; // c == s\r\n\r\n        // temporary code for estimating gas cost, the above is correct version\r\n        bool result = verify(Pairing.G1Point(Proof[0], Proof[1]), // aLocal\r\n                      Pairing.G1Point(Proof[7], Proof[8]),\r\n                      Randoms[1], \r\n                      Proof[6],\r\n                      0, false);\r\n        result = verify(Pairing.G1Point(Proof[0], Proof[1]), // bLocal\r\n                      Pairing.G1Point(Proof[13], Proof[14]),\r\n                      yz,\r\n                      Proof[12],\r\n                      0, false);\r\n        result = verify(Pairing.G1Point(Proof[2], Proof[3]), // aRaw\r\n                      Pairing.G1Point(Proof[10], Proof[11]),\r\n                      Randoms[1],\r\n                      Proof[9],\r\n                      1, false);\r\n        result = verify(Pairing.G1Point(Proof[2], Proof[3]), // bRaw\r\n                      Pairing.G1Point(Proof[16], Proof[17]),\r\n                      yz,\r\n                      Proof[15],\r\n                      1, false);\r\n        result = verify(Pairing.G1Point(Proof[4], Proof[5]), // t\r\n                      Pairing.G1Point(Proof[18], Proof[19]),\r\n                      Randoms[1],\r\n                      t,\r\n                      0, true);                               \r\n        result = verify(Pairing.G1Point(Proof[4], Proof[5]), // t\r\n                      Pairing.G1Point(Proof[18], Proof[19]),\r\n                      Randoms[1],\r\n                      t,\r\n                      0, true);                                            // pcV srsLocal (srsD srsLocal) commitK y (k, wk)\r\n        result = verify(Pairing.G1Point(Proof[4], Proof[5]), // t\r\n                      Pairing.G1Point(Proof[18], Proof[19]),\r\n                      Randoms[1],\r\n                      t,\r\n                      0, true);                                            // pcV srsLocal (srsD srsLocal) commitC y (c, wc)\r\n        result = verify(Pairing.G1Point(Proof[4], Proof[5]), // t\r\n                      Pairing.G1Point(Proof[18], Proof[19]),\r\n                      Randoms[1],\r\n                      t,\r\n                      0, true);                                           // pcV srsLocal (srsD srsLocal) commitC yOld (cOld, wcOld)\r\n        result = verify(Pairing.G1Point(Proof[4], Proof[5]), // t\r\n                      Pairing.G1Point(Proof[18], Proof[19]),\r\n                      Randoms[1],\r\n                      t,\r\n                      0, true);                                           //, pcV srsLocal (srsD srsLocal) commitC yNew (cNew, wcNew)\r\n        result = verify(Pairing.G1Point(Proof[4], Proof[5]), // t\r\n                      Pairing.G1Point(Proof[18], Proof[19]),\r\n                      Randoms[1],\r\n                      t,\r\n                      0, true);                                          //, pcV srsLocal (srsD srsLocal) commitS z (s, ws)\r\n        result = verify(Pairing.G1Point(Proof[4], Proof[5]), // t\r\n                      Pairing.G1Point(Proof[18], Proof[19]),\r\n                      Randoms[1],\r\n                      t,\r\n                      0, true);                                           //, pcV srsLocal (srsD srsLocal) commitSOld z (sOld, wsOld)\r\n        result = verify(Pairing.G1Point(Proof[4], Proof[5]), // t\r\n                      Pairing.G1Point(Proof[18], Proof[19]),\r\n                      Randoms[1],\r\n                      t,\r\n                      0, true);                                           //, pcV srsLocal (srsD srsLocal) commitSNew z (sNew, wsNew)\r\n        result = verifySignature;\r\n        result = Proof[6] == Proof[7]; // c_old == s_old\r\n        result = Proof[8] == Proof[9]; // c_new == s_new\r\n        result = Proof[10] == Proof[11]; // c == s\r\n        emit verifyResult(result);\r\n        return result;\r\n    }\r\n\r\n    // add improvement for batched commitments of original KZG\r\n    /*\r\n    we check e<g^w[],h^> e<(g^w[])^-z,h> == RHS\r\n     */\r\n    // function verifySonicBatchedOriginKZG(\r\n    //     // uint256[21] memory Proof,\r\n    //     // uint256[2] memory Randoms\r\n    // ) public returns (bool) {\r\n\r\n    //     // simulate calculating kY\r\n    //     // uint256 ky = evalKPoly();\r\n    //     // // // simulate calculating sXY\r\n    //     // uint256 sx = evalXPoly();\r\n    //     // uint256 sy = evalXPoly();\r\n\r\n        \r\n    //     // y^N for halo implementation style\r\n    //     // uint256 y_n = expMod(Randoms[1], N, BABYJUB_P);\r\n\r\n    //     // t for halo implementation style\r\n    //     // uint256 t = addmod(mulmod(addmod(Proof[6], Proof[9], Pairing.BABYJUB_P), \r\n    //     //                           addmod(addmod(Proof[12], \r\n    //     //                                         Proof[15], Pairing.BABYJUB_P), \r\n    //     //                                  evalS, Pairing.BABYJUB_P), Pairing.BABYJUB_P),\r\n    //     //                     mulmod((BABYJUB_P - evalK), y_n, BABYJUB_P),\r\n    //     //                     BABYJUB_P);\r\n\r\n    //     // uint256 t = addmod(mulmod(addmod(Proof[6], Proof[9], Pairing.BABYJUB_P), \r\n    //     //                           addmod(addmod(Proof[12], \r\n    //     //                                         Proof[15], Pairing.BABYJUB_P), \r\n    //     //                                  evalS, Pairing.BABYJUB_P), Pairing.BABYJUB_P),\r\n    //     //                     (BABYJUB_P - evalK), BABYJUB_P);\r\n\r\n\r\n    //     bool verifySignature = recover(message, sig) == addr;\r\n\r\n    //     // F\r\n    //     Pairing.G1Point[8] memory F = [\r\n    //                                 Pairing.G1Point(Proof[0], Proof[1]),//R0\r\n    //                                 Pairing.G1Point(Proof[2], Proof[3]), // Rj\r\n    //                                 Pairing.G1Point(Proof[4], Proof[5]), //T\r\n    //                                 Pairing.G1Point(Proof[6], Proof[7]), //C\r\n    //                                 Pairing.G1Point(Proof[8], Proof[9]), //Ck\r\n    //                                 Pairing.G1Point(Proof[10], Proof[11]), //S\r\n    //                                 Pairing.G1Point(Proof[12], Proof[13]), //Sold\r\n    //                                 Pairing.G1Point(Proof[14], Proof[15])  //Snew\r\n    //                                 ];\r\n    //     // Z(T / Si)[z] * ^(i-1)\r\n    //     uint256 Z_beta_1 = 1; // i = 1,  etc.\r\n    //     uint256 Z_beta_2 = Randoms[4];\r\n    //     uint256 Z_beta_3 = mulmod(Z_beta_2, Randoms[4], BABYJUB_P);\r\n    //     uint256 Z_beta_4 = mulmod(Z_beta_3, Randoms[4], BABYJUB_P);\r\n    //     uint256 Z_beta_5 = mulmod(Z_beta_4, Randoms[4], BABYJUB_P);\r\n    //     uint256 Z_beta_6 = mulmod(Z_beta_5, Randoms[4], BABYJUB_P);\r\n    //     uint256 Z_beta_7 = mulmod(Z_beta_6, Randoms[4], BABYJUB_P);\r\n    //     uint256 Z_beta_8 = mulmod(Z_beta_7, Randoms[4], BABYJUB_P);\r\n\r\n    //     Z_beta_1 = mulmod(Z_beta_1, z_calculation(1), BABYJUB_P);\r\n    //     Z_beta_2 = mulmod(Z_beta_2, z_calculation(2), BABYJUB_P);\r\n    //     Z_beta_3 = mulmod(Z_beta_3, z_calculation(3), BABYJUB_P);\r\n    //     Z_beta_4 = mulmod(Z_beta_4, z_calculation(4), BABYJUB_P);\r\n    //     Z_beta_5 = mulmod(Z_beta_5, z_calculation(5), BABYJUB_P);\r\n    //     Z_beta_6 = mulmod(Z_beta_6, z_calculation(6), BABYJUB_P);\r\n    //     Z_beta_7 = mulmod(Z_beta_7, z_calculation(7), BABYJUB_P);\r\n    //     Z_beta_8 = mulmod(Z_beta_8, z_calculation(8), BABYJUB_P);\r\n\r\n    //     // the prove, g^p[], g^w[]\r\n    //     Pairing.G1Point[2] memory pi = [\r\n    //         G1Gen(),\r\n    //         G1Gen()\r\n    //     ];\r\n    //     // product_result is the first G1 element of the RHS pairing\r\n    //     // first calculate the uppercase Pi product\r\n    //     Pairing.G1Point memory product_result = Pairing.mulScalar(Pairing.plus(F[0], \r\n    //                                                             Pairing.negate(Pairing.mulScalar(g, \r\n    //                                                                             addmod(gamma1[0], \r\n    //                                                                             mulmod(gamma1[1], Randoms[2], BABYJUB_P), \r\n    //                                                                             BABYJUB_P)))), Z_beta_1);\r\n    //     product_result = Pairing.plus(product_result, \r\n    //                                 Pairing.mulScalar(Pairing.plus(F[1], \r\n    //                                                             Pairing.negate(Pairing.mulScalar(g, \r\n    //                                                                             addmod(gamma2[0], \r\n    //                                                                             mulmod(gamma2[1], Randoms[2], BABYJUB_P), \r\n    //                                                                             BABYJUB_P)))), Z_beta_2));\r\n    //     product_result = Pairing.plus(product_result, \r\n    //                                 Pairing.mulScalar(Pairing.plus(F[2], \r\n    //                                                             Pairing.negate(Pairing.mulScalar(g, \r\n    //                                                                             gamma3[0]))), Z_beta_3));\r\n    //     product_result = Pairing.plus(product_result, \r\n    //                                 Pairing.mulScalar(Pairing.plus(F[3], \r\n    //                                                             Pairing.negate(Pairing.mulScalar(g, \r\n    //                                                                             addmod(addmod(gamma4[0], \r\n    //                                                                             mulmod(gamma4[1], Randoms[2], BABYJUB_P), \r\n    //                                                                             BABYJUB_P),\r\n    //                                                                             mulmod(gamma4[2], \r\n    //                                                                             mulmod(Randoms[2], Randoms[2], \r\n    //                                                                             BABYJUB_P), \r\n    //                                                                             BABYJUB_P),\r\n    //                                                                             BABYJUB_P)\r\n    //                                                                             )))\r\n    //                                                     , Z_beta_4)\r\n    //                                     );\r\n    //     product_result = Pairing.plus(product_result, \r\n    //                                 Pairing.mulScalar(Pairing.plus(F[4], \r\n    //                                                             Pairing.negate(Pairing.mulScalar(g, \r\n    //                                                                             gamma5[0]))), Z_beta_5));\r\n    //     product_result = Pairing.plus(product_result, \r\n    //                                 Pairing.mulScalar(Pairing.plus(F[5], \r\n    //                                                             Pairing.negate(Pairing.mulScalar(g, \r\n    //                                                                             gamma6[0]))), Z_beta_6));\r\n    //     product_result = Pairing.plus(product_result, \r\n    //                                 Pairing.mulScalar(Pairing.plus(F[6], \r\n    //                                                             Pairing.negate(Pairing.mulScalar(g, \r\n    //                                                                             gamma7[0]))), Z_beta_7));\r\n    //     product_result = Pairing.plus(product_result, \r\n    //                                 Pairing.mulScalar(Pairing.plus(F[7], \r\n    //                                                             Pairing.negate(Pairing.mulScalar(g, \r\n    //                                                                             gamma8[0]))), Z_beta_8));\r\n    //     // then add the first item before the uppercase Pi product\r\n    //     product_result = Pairing.plus(product_result,\r\n    //                                 Pairing.negate(Pairing.plus(pi[0],\r\n    //                                                 Pairing.mulScalar(g,\r\n    //                                                                 z_calculation(9)))));//zT[z]\r\n\r\n    //     // check e<g^w[],h^>e<g^w[]g^-z,h> == RHS, then check others\r\n    //     // bool result = Pairing.pairing_3point(\r\n    //     //     pi[1],\r\n    //     //     SRS_G2_2, // h^, see above\r\n    //     //     Pairing.negate(Pairing.mulScalar(pi[1], z)),\r\n    //     //     SRS_G2_1, // h, see above\r\n    //     //     Pairing.negate(product_result),\r\n    //     //     SRS_G2_1\r\n    //     //     )\r\n    //     //     && verifySignature\r\n    //     //     && Proof[6] == Proof[7] // c_old == s_old\r\n    //     //     && Proof[8] == Proof[9] // c_new == s_new\r\n    //     //     && Proof[10] == Proof[11]; // c == s\r\n\r\n    //     // temporary code for estimating gas cost, the above is correct version\r\n    //     // check e<g^w[],h^>e<(g^w[])^-z,h> == RHS, then check others\r\n    //     bool result = Pairing.pairing_3point(\r\n    //         pi[1], // g^w[]\r\n    //         SRS_G2_2, // h^, see above\r\n    //         Pairing.negate(Pairing.mulScalar(pi[1], z)),\r\n    //         SRS_G2_1, // h, see above\r\n    //         Pairing.negate(product_result),\r\n    //         SRS_G2_1\r\n    //         );\r\n    //     result = verifySignature;\r\n    //     result = Proof[6] == Proof[7]; // c_old == s_old\r\n    //     result = Proof[8] == Proof[9]; // c_new == s_new\r\n    //     result = Proof[10] == Proof[11]; // c == s\r\n    //     emit verifyResult(result);\r\n    //     return result;\r\n    // }\r\n\r\n\r\n    // using batched commitments of sonic version of modified KZG\r\n    function verifySonicBatched(\r\n        // uint256[21] memory Proof,\r\n        // uint256[2] memory Randoms\r\n    ) public returns (bool) {\r\n\r\n        // simulate calculating kY\r\n        // uint256 ky = evalKPoly();\r\n        // // // simulate calculating sXY\r\n        // uint256 sx = evalXPoly();\r\n        // uint256 sy = evalXPoly();\r\n\r\n        \r\n        // y^N for halo implementation style\r\n        // uint256 y_n = expMod(Randoms[1], N, BABYJUB_P);\r\n\r\n        // t for halo implementation style\r\n        // uint256 t = addmod(mulmod(addmod(Proof[6], Proof[9], Pairing.BABYJUB_P), \r\n        //                           addmod(addmod(Proof[12], \r\n        //                                         Proof[15], Pairing.BABYJUB_P), \r\n        //                                  evalS, Pairing.BABYJUB_P), Pairing.BABYJUB_P),\r\n        //                     mulmod((BABYJUB_P - evalK), y_n, BABYJUB_P),\r\n        //                     BABYJUB_P);\r\n\r\n        // uint256 t = addmod(mulmod(addmod(Proof[6], Proof[9], Pairing.BABYJUB_P), \r\n        //                           addmod(addmod(Proof[12], \r\n        //                                         Proof[15], Pairing.BABYJUB_P), \r\n        //                                  evalS, Pairing.BABYJUB_P), Pairing.BABYJUB_P),\r\n        //                     (BABYJUB_P - evalK), BABYJUB_P);\r\n\r\n\r\n        bool verifySignature = recover(message, sig) == addr;\r\n\r\n        // F\r\n        Pairing.G1Point[8] memory F = [\r\n                                    Pairing.G1Point(Proof[0], Proof[1]),// R0\r\n                                    Pairing.G1Point(Proof[2], Proof[3]), // Rj\r\n                                    Pairing.G1Point(Proof[4], Proof[5]), // T\r\n                                    Pairing.G1Point(Proof[6], Proof[7]), // C\r\n                                    Pairing.G1Point(Proof[8], Proof[9]), // Ck\r\n                                    Pairing.G1Point(Proof[10], Proof[11]), // S\r\n                                    Pairing.G1Point(Proof[12], Proof[13]), // Sold\r\n                                    Pairing.G1Point(Proof[14], Proof[15])  // Snew\r\n                                    ];\r\n        // Z(T / Si)[z] * ^(i-1)\r\n        uint256 Z_beta_1 = 1; // i = 1,  etc.\r\n        uint256 Z_beta_2 = Randoms[4];\r\n        uint256 Z_beta_3 = mulmod(Z_beta_2, Randoms[4], BABYJUB_P);\r\n        uint256 Z_beta_4 = mulmod(Z_beta_3, Randoms[4], BABYJUB_P);\r\n        uint256 Z_beta_5 = mulmod(Z_beta_4, Randoms[4], BABYJUB_P);\r\n        uint256 Z_beta_6 = mulmod(Z_beta_5, Randoms[4], BABYJUB_P);\r\n        uint256 Z_beta_7 = mulmod(Z_beta_6, Randoms[4], BABYJUB_P);\r\n        uint256 Z_beta_8 = mulmod(Z_beta_7, Randoms[4], BABYJUB_P);\r\n\r\n        Z_beta_1 = mulmod(Z_beta_1, z_calculation(1), BABYJUB_P);\r\n        Z_beta_2 = mulmod(Z_beta_2, z_calculation(2), BABYJUB_P);\r\n        Z_beta_3 = mulmod(Z_beta_3, z_calculation(3), BABYJUB_P);\r\n        Z_beta_4 = mulmod(Z_beta_4, z_calculation(4), BABYJUB_P);\r\n        Z_beta_5 = mulmod(Z_beta_5, z_calculation(5), BABYJUB_P);\r\n        Z_beta_6 = mulmod(Z_beta_6, z_calculation(6), BABYJUB_P);\r\n        Z_beta_7 = mulmod(Z_beta_7, z_calculation(7), BABYJUB_P);\r\n        Z_beta_8 = mulmod(Z_beta_8, z_calculation(8), BABYJUB_P);\r\n\r\n        // H calculation\r\n        Pairing.G1Point memory H = Pairing.mulScalar(F[0], Z_beta_1);\r\n        H = Pairing.plus(H, Pairing.mulScalar(F[1], Z_beta_2));\r\n        H = Pairing.plus(H, Pairing.mulScalar(F[2], Z_beta_3));\r\n        H = Pairing.plus(H, Pairing.mulScalar(F[3], Z_beta_4));\r\n        H = Pairing.plus(H, Pairing.mulScalar(F[4], Z_beta_5));\r\n        H = Pairing.plus(H, Pairing.mulScalar(F[5], Z_beta_6));\r\n        H = Pairing.plus(H, Pairing.mulScalar(F[6], Z_beta_7));\r\n        H = Pairing.plus(H, Pairing.mulScalar(F[7], Z_beta_8));\r\n\r\n        // R calculation\r\n        // first calculate the PI product, and to do this first calculate the power of g after product to reduce gas cost\r\n        uint256 power = mulmod(Z_beta_1, BABYJUB_P - addmod(gamma1[0], \r\n                                                            mulmod(gamma1[1], Randoms[2], BABYJUB_P), \r\n                                                            BABYJUB_P), BABYJUB_P);\r\n        power = addmod(power, mulmod(Z_beta_2, BABYJUB_P - addmod(gamma2[0], mulmod(gamma2[1], Randoms[2], BABYJUB_P), \r\n                                                                BABYJUB_P), BABYJUB_P), BABYJUB_P);\r\n        power = addmod(power, mulmod(Z_beta_3, BABYJUB_P - gamma3[0], BABYJUB_P), BABYJUB_P);\r\n        power = addmod(power, mulmod(Z_beta_4, BABYJUB_P - addmod(addmod(gamma4[0], \r\n                                                                                mulmod(gamma4[1], Randoms[2], BABYJUB_P), \r\n                                                                                BABYJUB_P),\r\n                                                                                mulmod(gamma4[2], \r\n                                                                                mulmod(Randoms[2], Randoms[2], \r\n                                                                                BABYJUB_P), \r\n                                                                BABYJUB_P),\r\n                                                            BABYJUB_P),\r\n                                    BABYJUB_P), BABYJUB_P);\r\n        power = addmod(power, mulmod(Z_beta_5, BABYJUB_P - gamma5[0], BABYJUB_P), BABYJUB_P);\r\n        power = addmod(power, mulmod(Z_beta_6, BABYJUB_P - gamma6[0], BABYJUB_P), BABYJUB_P);\r\n        power = addmod(power, mulmod(Z_beta_7, BABYJUB_P - gamma7[0], BABYJUB_P), BABYJUB_P);\r\n        power = addmod(power, mulmod(Z_beta_8, BABYJUB_P - gamma8[0], BABYJUB_P), BABYJUB_P);\r\n        // calculate the PI product\r\n        Pairing.G1Point memory R = Pairing.mulScalar(g, power);\r\n\r\n        // then add the first item before the uppercase Pi product\r\n        //g^p[x]zT[z]\r\n        R = Pairing.plus(R, Pairing.negate(Pairing.plus(pi_1,\r\n                                                    Pairing.mulScalar(g,\r\n                                                                    z_calculation(9)))));\r\n        //g^zw[x]\r\n        R = Pairing.plus(R, Pairing.mulScalar(pi_2, Randoms[2]));\r\n\r\n\r\n        // check the equation, then check others\r\n        // bool result = Pairing.pairing_3point(\r\n        //     H,\r\n        //     SRS_G2_1, // h, see above\r\n        //     R,\r\n        //     Constants.t_hxdmax,\r\n        //     Pairing.negate(pi[1]),\r\n        //     Constants.t_hxdmaxplusone\r\n        //     )\r\n        //     && verifySignature\r\n        //     && Proof[6] == Proof[7] // c_old == s_old\r\n        //     && Proof[8] == Proof[9] // c_new == s_new\r\n        //     && Proof[10] == Proof[11]; // c == s\r\n\r\n        // former code, used for coding reference of above check\r\n        // check e<g^w[],h^>e<(g^w[])^-z,h> == RHS, then check others\r\n        // bool result = Pairing.pairing_3point(\r\n        //     pi[1],\r\n        //     SRS_G2_2, // h^, see above\r\n        //     Pairing.negate(Pairing.mulScalar(pi[1], z)),\r\n        //     SRS_G2_1, // h, see above\r\n        //     Pairing.negate(product_result),\r\n        //     SRS_G2_1\r\n        //     )\r\n        //     && verifySignature\r\n        //     && Proof[6] == Proof[7] // c_old == s_old\r\n        //     && Proof[8] == Proof[9] // c_new == s_new\r\n        //     && Proof[10] == Proof[11]; // c == s\r\n\r\n        // temporary code for estimating gas cost, the above is correct version\r\n        bool result = Pairing.pairing_3point(\r\n            H,\r\n            Constants.SRS_G2_1, // h, see above\r\n            R,\r\n            Constants.t_hxdmax,\r\n            Pairing.negate(pi_2),\r\n            Constants.t_hxdmaxplusone\r\n            );\r\n            result = verifySignature;\r\n            result = Proof[6] == Proof[7]; // c_old == s_old\r\n            result = Proof[8] == Proof[9]; // c_new == s_new\r\n            result = Proof[10] == Proof[11]; // c == s\r\n\r\n        emit verifyResult(result);\r\n        return result;\r\n    }\r\n    \r\n\r\n    function z_calculation (uint256 i)\r\n                            internal view returns (uint256){\r\n        \r\n        uint256 result = 1;\r\n        if (i != 1){\r\n            result = mulmod(mulmod(result, addmod(z, BABYJUB_P - S1[1], BABYJUB_P), BABYJUB_P)\r\n                            , addmod(z, BABYJUB_P - S1[0], BABYJUB_P), BABYJUB_P);\r\n        }\r\n        if (i != 2){\r\n            result = mulmod(mulmod(result, addmod(z, BABYJUB_P - S2[1], BABYJUB_P), BABYJUB_P)\r\n                            , addmod(z, BABYJUB_P - S2[0], BABYJUB_P), BABYJUB_P);\r\n        }\r\n        if (i != 3){\r\n            result = mulmod(result, addmod(z, BABYJUB_P - S3[0], BABYJUB_P), BABYJUB_P);\r\n        }\r\n        if (i != 4){\r\n            result = mulmod(mulmod(mulmod(result, addmod(z, BABYJUB_P - S4[2], BABYJUB_P), BABYJUB_P)\r\n                            , addmod(z, BABYJUB_P - S4[1], BABYJUB_P), BABYJUB_P)\r\n                            , addmod(z, BABYJUB_P - S4[0], BABYJUB_P), BABYJUB_P);\r\n        }\r\n        if (i != 5){\r\n            result = mulmod(result, addmod(z, BABYJUB_P - S5[0], BABYJUB_P), BABYJUB_P);\r\n        }\r\n        if (i != 6){\r\n            result = mulmod(result, addmod(z, BABYJUB_P - S6[0], BABYJUB_P), BABYJUB_P);\r\n        }\r\n        if (i != 7){\r\n            result = mulmod(result, addmod(z, BABYJUB_P - S7[0], BABYJUB_P), BABYJUB_P);\r\n        }\r\n        if (i != 8){\r\n            result = mulmod(result, addmod(z, BABYJUB_P - S8[0], BABYJUB_P), BABYJUB_P);\r\n        }\r\n        return result;\r\n    }\r\n\r\n    /**\r\n     * @dev Recover signer address from a message by using their signature\r\n     * @param hash bytes32 message, the hash is the signed message. What is recovered is the signer address.\r\n     * @param signature bytes signature, the signature is generated using web3.eth.sign()\r\n     */\r\n    function recover(bytes32 hash, bytes memory signature) internal pure returns (address) {\r\n        bytes32 r;\r\n        bytes32 s;\r\n        uint8 _v;\r\n\r\n        // Check the signature length\r\n        if (signature.length != 65) {\r\n            return (address(0));\r\n        }\r\n\r\n        // Divide the signature in r, s and v variables\r\n        // ecrecover takes the signature parameters, and the only way to get them\r\n        // currently is to use assembly.\r\n        // solium-disable-next-line security/no-inline-assembly\r\n        assembly {\r\n            r := mload(add(signature, 32))\r\n            s := mload(add(signature, 64))\r\n            _v := byte(0, mload(add(signature, 96)))\r\n        }\r\n\r\n        // Version of signature should be 27 or 28, but 0 and 1 are also possible versions\r\n        if (_v < 27) {\r\n            _v += 27;\r\n        }\r\n\r\n        // If the version is correct return the signer address\r\n        if (_v != 27 && _v != 28) {\r\n            return (address(0));\r\n        } else {\r\n            // solium-disable-next-line arg-overflow\r\n            return ecrecover(hash, _v, r, s);\r\n        }\r\n    }\r\n\r\n    /**\r\n    * @dev prefix a bytes32 value with \"\\x19Ethereum Signed Message:\" and hash the result\r\n    */\r\n    function ethMessageHash(string memory rawCommitment) internal pure returns (bytes32) {\r\n        return keccak256(\r\n            abi.encodePacked(\"\\x19Ethereum Signed Message:\\n32\", keccak256(abi.encodePacked(rawCommitment)))\r\n        );\r\n    }\r\n\r\n\r\n    //     /*\r\n    //  * @return The polynominal evaluation of a polynominal with the specified\r\n    //  *         coefficients at the given index.\r\n    //  */\r\n     function evalPoly() public view returns (uint256) {\r\n\r\n        uint baseOrder = 204;\r\n        uint length = 64;\r\n        uint256 _index = Randoms[0];\r\n        uint256 m = Constants.BABYJUB_P;\r\n        uint256 result = 0;\r\n        uint256 powerOfX = 1;\r\n\r\n        for (uint256 i = 0; i < length; i ++) {\r\n            assembly {\r\n                result:= addmod(result, mulmod(powerOfX, i, m), m)\r\n                powerOfX := mulmod(powerOfX, i, m)\r\n            }\r\n        }\r\n        uint256 basePower = invMod(expMod(_index, baseOrder, m), m);\r\n        result = mulmod(basePower, result, m);\r\n\r\n        return result;\r\n    }\r\n\r\n    /// @dev Modular euclidean inverse of a number (mod p).\r\n    /// @param _x The number\r\n    /// @param _pp The modulus\r\n    /// @return q such that x*q = 1 (mod _pp)\r\n    function invMod(uint256 _x, uint256 _pp) internal pure returns (uint256) {\r\n        require(_x != 0 && _x != _pp && _pp != 0, \"Invalid number\");\r\n        uint256 q = 0;\r\n        uint256 newT = 1;\r\n        uint256 r = _pp;\r\n        uint256 t;\r\n        while (_x != 0) {\r\n        t = r / _x;\r\n        (q, newT) = (newT, addmod(q, (_pp - mulmod(t, newT, _pp)), _pp));\r\n        (r, _x) = (_x, r - t * _x);\r\n        }\r\n\r\n        return q;\r\n    }\r\n\r\n    /// @dev Modular exponentiation, b^e % _pp.\r\n    /// Source: https://github.com/androlo/standard-contracts/blob/master/contracts/src/crypto/ECCMath.sol\r\n    /// @param _base base\r\n    /// @param _exp exponent\r\n    /// @param _pp modulus\r\n    /// @return r such that r = b**e (mod _pp)\r\n    function expMod(uint256 _base, uint256 _exp, uint256 _pp) internal pure returns (uint256) {\r\n        require(_pp!=0, \"Modulus is zero\");\r\n\r\n        if (_base == 0)\r\n        return 0;\r\n        if (_exp == 0)\r\n        return 1;\r\n\r\n        uint256 r = 1;\r\n        uint256 bit = 57896044618658097711785492504343953926634992332820282019728792003956564819968; // 2 ^ 255\r\n        assembly {\r\n        for { } gt(bit, 0) { }{\r\n            // a touch of loop unrolling for 20% efficiency gain\r\n            r := mulmod(mulmod(r, r, _pp), exp(_base, iszero(iszero(and(_exp, bit)))), _pp)\r\n            r := mulmod(mulmod(r, r, _pp), exp(_base, iszero(iszero(and(_exp, div(bit, 2))))), _pp)\r\n            r := mulmod(mulmod(r, r, _pp), exp(_base, iszero(iszero(and(_exp, div(bit, 4))))), _pp)\r\n            r := mulmod(mulmod(r, r, _pp), exp(_base, iszero(iszero(and(_exp, div(bit, 8))))), _pp)\r\n            bit := div(bit, 16)\r\n        }\r\n        }\r\n\r\n        return r;\r\n    }\r\n    \r\n\r\n}",
  "sourcePath": "D:\\homework\\sonic\\src\\verifier\\contracts\\Verifier.sol",
  "compiler": {
    "name": "solc",
    "version": "0.8.13+commit.abaa5c0e.Emscripten.clang"
  },
  "schemaVersion": "3.4.8",
  "updatedAt": "2023-02-21T09:14:49.281Z",
  "networkType": "ethereum",
  "devdoc": {
    "kind": "dev",
    "methods": {},
    "version": 1
  },
  "userdoc": {
    "kind": "user",
    "methods": {},
    "version": 1
  }
}