{
  "contractName": "Verifier",
  "abi": [
    {
      "anonymous": false,
      "inputs": [
        {
          "indexed": false,
          "internalType": "bool",
          "name": "result",
          "type": "bool"
        }
      ],
      "name": "verifyResult",
      "type": "event"
    },
    {
      "inputs": [
        {
          "components": [
            {
              "internalType": "uint256",
              "name": "X",
              "type": "uint256"
            },
            {
              "internalType": "uint256",
              "name": "Y",
              "type": "uint256"
            }
          ],
          "internalType": "struct Pairing.G1Point",
          "name": "_commitment",
          "type": "tuple"
        },
        {
          "components": [
            {
              "internalType": "uint256",
              "name": "X",
              "type": "uint256"
            },
            {
              "internalType": "uint256",
              "name": "Y",
              "type": "uint256"
            }
          ],
          "internalType": "struct Pairing.G1Point",
          "name": "_proof",
          "type": "tuple"
        },
        {
          "internalType": "uint256",
          "name": "_index",
          "type": "uint256"
        },
        {
          "internalType": "uint256",
          "name": "_value",
          "type": "uint256"
        }
      ],
      "name": "verify",
      "outputs": [
        {
          "internalType": "bool",
          "name": "",
          "type": "bool"
        }
      ],
      "stateMutability": "view",
      "type": "function",
      "constant": true
    },
    {
      "inputs": [],
      "name": "verifySonic",
      "outputs": [
        {
          "internalType": "bool",
          "name": "",
          "type": "bool"
        }
      ],
      "stateMutability": "nonpayable",
      "type": "function"
    },
    {
      "inputs": [],
      "name": "verifySonicBatched",
      "outputs": [
        {
          "internalType": "bool",
          "name": "",
          "type": "bool"
        }
      ],
      "stateMutability": "nonpayable",
      "type": "function"
    }
  ],
  "bytecode": "0x6080604052604051806040016040528060405180604001604052807f198e9393920d483a7260bfb731fb5d25f1aa493335a9e71297e485b7aef312c281526020017f1800deef121f1e76426a00665e5c4479674322d4f75edadd46debd5cd992f6ed815250815260200160405180604001604052807f090689d0585ff075ec9e99ad690c3395bc4b313370b38ef355acdadcd122975b81526020017f12c85ea5db8c6deb4aab71808dcb408fe3d1e7690c43d37b4ce6cc0166fa7daa81525081525060008082015181600001906002620000db92919062001276565b50602082015181600201906002620000f592919062001276565b505050604051806040016040528060405180604001604052807f198e9393920d483a7260bfb731fb5d25f1aa493335a9e71297e485b7aef312c281526020017f1800deef121f1e76426a00665e5c4479674322d4f75edadd46debd5cd992f6ed815250815260200160405180604001604052807f090689d0585ff075ec9e99ad690c3395bc4b313370b38ef355acdadcd122975b81526020017f12c85ea5db8c6deb4aab71808dcb408fe3d1e7690c43d37b4ce6cc0166fa7daa8152508152506004600082015181600001906002620001d092919062001276565b50602082015181600201906002620001ea92919062001276565b505050604051806040016040528060405180604001604052807f21a808dad5c50720fb7294745cf4c87812ce0ea76baa7df4e922615d1388f25a81526020017f04c5e74c85a87f008a2feb4b5c8a1e7f9ba9d8eb40eb02e70139c89fb1c505a9815250815260200160405180604001604052807f204b66d8e1fadc307c35187a6b813be0b46ba1cd720cd1c4ee5f68d13036b4ba81526020017f2d58022915fc6bc90e036e858fbc98055084ac7aff98ccceb0e3fde64bc1a0848152508152506008600082015181600001906002620002c592919062001276565b50602082015181600201906002620002df92919062001276565b505050604051806040016040528060405180604001604052807f198e9393920d483a7260bfb731fb5d25f1aa493335a9e71297e485b7aef312c281526020017f1800deef121f1e76426a00665e5c4479674322d4f75edadd46debd5cd992f6ed815250815260200160405180604001604052807f090689d0585ff075ec9e99ad690c3395bc4b313370b38ef355acdadcd122975b81526020017f12c85ea5db8c6deb4aab71808dcb408fe3d1e7690c43d37b4ce6cc0166fa7daa815250815250600c600082015181600001906002620003ba92919062001276565b50602082015181600201906002620003d492919062001276565b505050604051806040016040528060405180604001604052807f198e9393920d483a7260bfb731fb5d25f1aa493335a9e71297e485b7aef312c281526020017f1800deef121f1e76426a00665e5c4479674322d4f75edadd46debd5cd992f6ed815250815260200160405180604001604052807f090689d0585ff075ec9e99ad690c3395bc4b313370b38ef355acdadcd122975b81526020017f12c85ea5db8c6deb4aab71808dcb408fe3d1e7690c43d37b4ce6cc0166fa7daa8152508152506010600082015181600001906002620004af92919062001276565b50602082015181600201906002620004c992919062001276565b505050620004f66040518060c00160405280609a815260200162004687609a9139620010f560201b60201c565b6014556040518060800160405280604181526020016200472160419139601590805190602001906200052a929190620012bb565b5073e448992fdeaf94784bbd8f432d781c061d907985601660006101000a81548173ffffffffffffffffffffffffffffffffffffffff021916908373ffffffffffffffffffffffffffffffffffffffff1602179055507f2d2e305d3ab2dc6e0081ffcf4a701f924a1a7296cdc32046c10c0b6f992387b26017557f30644e72e131a029b85045b68181585d2833e84879b9709143e1f593f000000180620005d657620005d5620013ca565b5b601954601a54096018557f2f0ed729a52c3cf5d51e5e6d8e737f79e5d99150f7b9b63f3dd38704f9d8ef266019557f2f376e28777cfe34cf077eba864c462fd6efbfe4d3f6af17768ef2ed4f829ddd601a557f2f17797aa9b5b553209d135cdd69146128b9841e82c8b01e3f3a07d1e3714dc9601b556040518060200160405280601954815250601c9060016200066f9291906200134c565b506040518060200160405280601954815250601d906001620006939291906200134c565b5060405180604001604052806019548152602001601854815250601e906002620006bf92919062001276565b5060405180602001604052806019548152506020906001620006e39291906200134c565b506040518060200160405280601a548152506021906001620007079291906200134c565b5060405180604001604052806019548152602001600181525060229060026200073292919062001276565b506040518060200160405280601a548152506024906001620007569291906200134c565b50604051806020016040528060195481525060259060016200077a9291906200134c565b50604051806020016040528060195481525060269060016200079e9291906200134c565b50604051806040016040528060195481526020016018548152506027906002620007ca92919062001276565b5060405180602001604052806019548152506029906001620007ee9291906200134c565b506040518060200160405280601954815250602a906001620008129291906200134c565b50604051806040016040528060195481526020016001815250602b9060026200083d92919062001276565b506040518060200160405280601954815250602d906001620008619291906200134c565b50620008726200114f60201b60201c565b602e600082015181600001556020820151816001015550506200089a6200114f60201b60201c565b6030600082015181600001556020820151816001015550506015603255620008ee6019546032547f30644e72e131a029b85045b68181585d2833e84879b9709143e1f593f00000016200117560201b60201c565b6033557f2d2e305d3ab2dc6e0081ffcf4a701f924a1a7296cdc32046c10c0b6f992387b26034557f10d4d3cca369c48670346ef36c6739e885bb11b52038a89c706aacfb7d72d7896035557f2d2e305d3ab2dc6e0081ffcf4a701f924a1a7296cdc32046c10c0b6f992387b26036557f19a48669ccf72c593144962560f593b667daa2052d1cdcc2500bb3b003c073c96037557f2d2e305d3ab2dc6e0081ffcf4a701f924a1a7296cdc32046c10c0b6f992387b26038557f10d4d3cca369c48670346ef36c6739e885bb11b52038a89c706aacfb7d72d7896039557f2d2e305d3ab2dc6e0081ffcf4a701f924a1a7296cdc32046c10c0b6f992387b2603a557f10d4d3cca369c48670346ef36c6739e885bb11b52038a89c706aacfb7d72d789603b5560405180604001604052807f2d2e305d3ab2dc6e0081ffcf4a701f924a1a7296cdc32046c10c0b6f992387b281526020017f10d4d3cca369c48670346ef36c6739e885bb11b52038a89c706aacfb7d72d789815250603c6000820151816000015560208201518160010155505060405180604001604052807f2d2e305d3ab2dc6e0081ffcf4a701f924a1a7296cdc32046c10c0b6f992387b281526020017f10d4d3cca369c48670346ef36c6739e885bb11b52038a89c706aacfb7d72d789815250603e6000820151816000015560208201518160010155505060405180604001604052807f2d2e305d3ab2dc6e0081ffcf4a701f924a1a7296cdc32046c10c0b6f992387b281526020017f10d4d3cca369c48670346ef36c6739e885bb11b52038a89c706aacfb7d72d78981525060406000820151816000015560208201518160010155505060405180604001604052807f2d2e305d3ab2dc6e0081ffcf4a701f924a1a7296cdc32046c10c0b6f992387b281526020017f10d4d3cca369c48670346ef36c6739e885bb11b52038a89c706aacfb7d72d78981525060426000820151816000015560208201518160010155505060405180604001604052807f2d2e305d3ab2dc6e0081ffcf4a701f924a1a7296cdc32046c10c0b6f992387b281526020017f10d4d3cca369c48670346ef36c6739e885bb11b52038a89c706aacfb7d72d78981525060446000820151816000015560208201518160010155505060405180604001604052807f2d2e305d3ab2dc6e0081ffcf4a701f924a1a7296cdc32046c10c0b6f992387b281526020017f10d4d3cca369c48670346ef36c6739e885bb11b52038a89c706aacfb7d72d78981525060466000820151816000015560208201518160010155505060405180604001604052807f2d2e305d3ab2dc6e0081ffcf4a701f924a1a7296cdc32046c10c0b6f992387b281526020017f10d4d3cca369c48670346ef36c6739e885bb11b52038a89c706aacfb7d72d78981525060486000820151816000015560208201518160010155505060405180604001604052807f2d2e305d3ab2dc6e0081ffcf4a701f924a1a7296cdc32046c10c0b6f992387b281526020017f10d4d3cca369c48670346ef36c6739e885bb11b52038a89c706aacfb7d72d789815250604a6000820151816000015560208201518160010155505060405180604001604052807f2d2e305d3ab2dc6e0081ffcf4a701f924a1a7296cdc32046c10c0b6f992387b281526020017f10d4d3cca369c48670346ef36c6739e885bb11b52038a89c706aacfb7d72d789815250604c6000820151816000015560208201518160010155505060405180604001604052807f2d2e305d3ab2dc6e0081ffcf4a701f924a1a7296cdc32046c10c0b6f992387b281526020017f10d4d3cca369c48670346ef36c6739e885bb11b52038a89c706aacfb7d72d789815250604e6000820151816000015560208201518160010155505060405180604001604052807f2d2e305d3ab2dc6e0081ffcf4a701f924a1a7296cdc32046c10c0b6f992387b281526020017f10d4d3cca369c48670346ef36c6739e885bb11b52038a89c706aacfb7d72d78981525060506000820151816000015560208201518160010155505060405180604001604052807f2d2e305d3ab2dc6e0081ffcf4a701f924a1a7296cdc32046c10c0b6f992387b281526020017f10d4d3cca369c48670346ef36c6739e885bb11b52038a89c706aacfb7d72d78981525060526000820151816000015560208201518160010155505060405180604001604052807f2d2e305d3ab2dc6e0081ffcf4a701f924a1a7296cdc32046c10c0b6f992387b281526020017f10d4d3cca369c48670346ef36c6739e885bb11b52038a89c706aacfb7d72d78981525060546000820151816000015560208201518160010155505060405180604001604052807f2d2e305d3ab2dc6e0081ffcf4a701f924a1a7296cdc32046c10c0b6f992387b281526020017f10d4d3cca369c48670346ef36c6739e885bb11b52038a89c706aacfb7d72d78981525060566000820151816000015560208201518160010155505060405180604001604052807f2d2e305d3ab2dc6e0081ffcf4a701f924a1a7296cdc32046c10c0b6f992387b281526020017f10d4d3cca369c48670346ef36c6739e885bb11b52038a89c706aacfb7d72d78981525060586000820151816000015560208201518160010155505060405180604001604052807f2d2e305d3ab2dc6e0081ffcf4a701f924a1a7296cdc32046c10c0b6f992387b281526020017f10d4d3cca369c48670346ef36c6739e885bb11b52038a89c706aacfb7d72d789815250605a60008201518160000155602082015181600101555050348015620010ee57600080fd5b5062001625565b6000816040516020016200110a91906200147c565b6040516020818303038152906040528051906020012060405160200162001132919062001514565b604051602081830303815290604052805190602001209050919050565b6200115962001391565b6040518060400160405280600181526020016002815250905090565b6000808203620011bc576040517f08c379a0000000000000000000000000000000000000000000000000000000008152600401620011b3906200159f565b60405180910390fd5b60008403620011cf57600090506200126f565b60008303620011e257600190506200126f565b60006001905060007f800000000000000000000000000000000000000000000000000000000000000090505b60008111156200126957838186161515870a85848509099150836002820486161515870a85848509099150836004820486161515870a85848509099150836008820486161515870a858485090991506010810490506200120e565b81925050505b9392505050565b8260028101928215620012a8579160200282015b82811115620012a75782518255916020019190600101906200128a565b5b509050620012b79190620013ab565b5090565b828054620012c990620015f0565b90600052602060002090601f016020900481019282620012ed576000855562001339565b82601f106200130857805160ff191683800117855562001339565b8280016001018555821562001339579182015b82811115620013385782518255916020019190600101906200131b565b5b509050620013489190620013ab565b5090565b82600181019282156200137e579160200282015b828111156200137d57825182559160200191906001019062001360565b5b5090506200138d9190620013ab565b5090565b604051806040016040528060008152602001600081525090565b5b80821115620013c6576000816000905550600101620013ac565b5090565b7f4e487b7100000000000000000000000000000000000000000000000000000000600052601260045260246000fd5b600081519050919050565b600081905092915050565b60005b838110156200142f57808201518184015260208101905062001412565b838111156200143f576000848401525b50505050565b60006200145282620013f9565b6200145e818562001404565b9350620014708185602086016200140f565b80840191505092915050565b60006200148a828462001445565b915081905092915050565b7f19457468657265756d205369676e6564204d6573736167653a0a333200000000600082015250565b6000620014cd601c8362001404565b9150620014da8262001495565b601c82019050919050565b6000819050919050565b6000819050919050565b6200150e6200150882620014e5565b620014ef565b82525050565b60006200152182620014be565b91506200152f8284620014f9565b60208201915081905092915050565b600082825260208201905092915050565b7f4d6f64756c7573206973207a65726f0000000000000000000000000000000000600082015250565b600062001587600f836200153e565b915062001594826200154f565b602082019050919050565b60006020820190508181036000830152620015ba8162001578565b9050919050565b7f4e487b7100000000000000000000000000000000000000000000000000000000600052602260045260246000fd5b600060028204905060018216806200160957607f821691505b6020821081036200161f576200161e620015c1565b5b50919050565b61305280620016356000396000f3fe608060405234801561001057600080fd5b50600436106100415760003560e01c80632d88635414610046578063903ae890146100645780639c22c95114610094575b600080fd5b61004e6100b2565b60405161005b91906126b8565b60405180910390f35b61007e600480360381019061007991906127f9565b610f3e565b60405161008b91906126b8565b60405180910390f35b61009c6113ac565b6040516100a991906126b8565b60405180910390f35b600080600190506000601b54905060007f30644e72e131a029b85045b68181585d2833e84879b9709143e1f593f0000001806100f1576100f0612860565b5b601b548309905060007f30644e72e131a029b85045b68181585d2833e84879b9709143e1f593f00000018061012957610128612860565b5b601b548309905060007f30644e72e131a029b85045b68181585d2833e84879b9709143e1f593f00000018061016157610160612860565b5b601b548309905060007f30644e72e131a029b85045b68181585d2833e84879b9709143e1f593f00000018061019957610198612860565b5b601b548309905060007f30644e72e131a029b85045b68181585d2833e84879b9709143e1f593f0000001806101d1576101d0612860565b5b601b54830990507f30644e72e131a029b85045b68181585d2833e84879b9709143e1f593f00000018061020757610206612860565b5b61021160016118f9565b880996507f30644e72e131a029b85045b68181585d2833e84879b9709143e1f593f00000018061024457610243612860565b5b61024e60026118f9565b870995507f30644e72e131a029b85045b68181585d2833e84879b9709143e1f593f00000018061028157610280612860565b5b61028b60036118f9565b860994507f30644e72e131a029b85045b68181585d2833e84879b9709143e1f593f0000001806102be576102bd612860565b5b6102c860046118f9565b850993507f30644e72e131a029b85045b68181585d2833e84879b9709143e1f593f0000001806102fb576102fa612860565b5b61030560056118f9565b840992507f30644e72e131a029b85045b68181585d2833e84879b9709143e1f593f00000018061033857610337612860565b5b61034260066118f9565b830991507f30644e72e131a029b85045b68181585d2833e84879b9709143e1f593f00000018061037557610374612860565b5b61037f60076118f9565b8209905060006103af603c6040518060400160405290816000820154815260200160018201548152505089611f2a565b90506103e4816103df603e604051806040016040529081600082015481526020016001820154815250508a611f2a565b612002565b905061041881610413604080518060400160405290816000820154815260200160018201548152505089611f2a565b612002565b905061044d8161044860426040518060400160405290816000820154815260200160018201548152505088611f2a565b612002565b90506104828161047d60446040518060400160405290816000820154815260200160018201548152505087611f2a565b612002565b90506104b7816104b260466040518060400160405290816000820154815260200160018201548152505086611f2a565b612002565b90506104ec816104e760486040518060400160405290816000820154815260200160018201548152505085611f2a565b612002565b905060007f30644e72e131a029b85045b68181585d2833e84879b9709143e1f593f00000018061051f5761051e612860565b5b60256000600181106105345761053361288f565b5b01547f30644e72e131a029b85045b68181585d2833e84879b9709143e1f593f000000161056191906128ed565b8a0990507f30644e72e131a029b85045b68181585d2833e84879b9709143e1f593f00000018061059457610593612860565b5b60266000600181106105a9576105a861288f565b5b01547f30644e72e131a029b85045b68181585d2833e84879b9709143e1f593f00000016105d691906128ed565b890990507f30644e72e131a029b85045b68181585d2833e84879b9709143e1f593f00000018061060957610608612860565b5b7f30644e72e131a029b85045b68181585d2833e84879b9709143e1f593f00000018061063857610637612860565b5b7f30644e72e131a029b85045b68181585d2833e84879b9709143e1f593f00000018061066757610666612860565b5b7f30644e72e131a029b85045b68181585d2833e84879b9709143e1f593f00000018061069657610695612860565b5b60195460276001600281106106ae576106ad61288f565b5b01540960276000600281106106c6576106c561288f565b5b0154087f30644e72e131a029b85045b68181585d2833e84879b9709143e1f593f00000016106f491906128ed565b8909820890507f30644e72e131a029b85045b68181585d2833e84879b9709143e1f593f00000018061072957610728612860565b5b7f30644e72e131a029b85045b68181585d2833e84879b9709143e1f593f00000018061075857610757612860565b5b602960006001811061076d5761076c61288f565b5b01547f30644e72e131a029b85045b68181585d2833e84879b9709143e1f593f000000161079a91906128ed565b8809820890507f30644e72e131a029b85045b68181585d2833e84879b9709143e1f593f0000001806107cf576107ce612860565b5b7f30644e72e131a029b85045b68181585d2833e84879b9709143e1f593f0000001806107fe576107fd612860565b5b602a6000600181106108135761081261288f565b5b01547f30644e72e131a029b85045b68181585d2833e84879b9709143e1f593f000000161084091906128ed565b8709820890507f30644e72e131a029b85045b68181585d2833e84879b9709143e1f593f00000018061087557610874612860565b5b7f30644e72e131a029b85045b68181585d2833e84879b9709143e1f593f0000001806108a4576108a3612860565b5b7f30644e72e131a029b85045b68181585d2833e84879b9709143e1f593f0000001806108d3576108d2612860565b5b7f30644e72e131a029b85045b68181585d2833e84879b9709143e1f593f00000018061090257610901612860565b5b601954602b60016002811061091a5761091961288f565b5b015409602b6000600281106109325761093161288f565b5b0154087f30644e72e131a029b85045b68181585d2833e84879b9709143e1f593f000000161096091906128ed565b8609820890507f30644e72e131a029b85045b68181585d2833e84879b9709143e1f593f00000018061099557610994612860565b5b7f30644e72e131a029b85045b68181585d2833e84879b9709143e1f593f0000001806109c4576109c3612860565b5b602d6000600181106109d9576109d861288f565b5b01547f30644e72e131a029b85045b68181585d2833e84879b9709143e1f593f0000001610a0691906128ed565b8509820890506000610a1f610a19612100565b83611f2a565b9050610a7581610a70610a6b602e60405180604001604052908160008201548152602001600182015481525050610a66610a57612100565b610a6160096118f9565b611f2a565b612002565b612124565b612002565b9050610aac81610aa7603060405180604001604052908160008201548152602001600182015481525050601954611f2a565b612002565b90506000610cc784600860405180604001604052908160008201600280602002604051908101604052809291908260028015610afd576020028201915b815481526020019060010190808311610ae9575b5050505050815260200160028201600280602002604051908101604052809291908260028015610b42576020028201915b815481526020019060010190808311610b2e575b5050505050815250506040805180604001604052908160008201548152602001600182015481525050600060405180604001604052908160008201600280602002604051908101604052809291908260028015610bb4576020028201915b815481526020019060010190808311610ba0575b5050505050815260200160028201600280602002604051908101604052809291908260028015610bf9576020028201915b815481526020019060010190808311610be5575b505050505081525050610c2b603060405180604001604052908160008201548152602001600182015481525050612124565b600460405180604001604052908160008201600280602002604051908101604052809291908260028015610c74576020028201915b815481526020019060010190808311610c60575b5050505050815260200160028201600280602002604051908101604052809291908260028015610cb9576020028201915b815481526020019060010190808311610ca5575b5050505050815250506121e2565b9050601660009054906101000a900473ffffffffffffffffffffffffffffffffffffffff1673ffffffffffffffffffffffffffffffffffffffff16610d9860145460158054610d1590612950565b80601f0160208091040260200160405190810160405280929190818152602001828054610d4190612950565b8015610d8e5780601f10610d6357610100808354040283529160200191610d8e565b820191906000526020600020905b815481529060010190602001808311610d7157829003601f168201915b505050505061254a565b73ffffffffffffffffffffffffffffffffffffffff161490507f30644e72e131a029b85045b68181585d2833e84879b9709143e1f593f000000180610de057610ddf612860565b5b7f30644e72e131a029b85045b68181585d2833e84879b9709143e1f593f000000180610e0f57610e0e612860565b5b60335460175409603554086034541490507f30644e72e131a029b85045b68181585d2833e84879b9709143e1f593f000000180610e4f57610e4e612860565b5b6037547f30644e72e131a029b85045b68181585d2833e84879b9709143e1f593f0000001610e7d91906128ed565b7f30644e72e131a029b85045b68181585d2833e84879b9709143e1f593f000000180610eac57610eab612860565b5b7f30644e72e131a029b85045b68181585d2833e84879b9709143e1f593f000000180610edb57610eda612860565b5b603854603954086034540908603654149050603b54603a541490507f9ebf19a79884326bf6ddfcf4bd501eb6a52b40414ecd5d8a70514f606810801e81604051610f2591906126b8565b60405180910390a1809b50505050505050505050505090565b60007f30644e72e131a029b85045b68181585d2833e84879b9709143e1f593f0000001856000015110610fa6576040517f08c379a0000000000000000000000000000000000000000000000000000000008152600401610f9d90612a04565b60405180910390fd5b7f30644e72e131a029b85045b68181585d2833e84879b9709143e1f593f000000185602001511061100c576040517f08c379a000000000000000000000000000000000000000000000000000000000815260040161100390612a96565b60405180910390fd5b7f30644e72e131a029b85045b68181585d2833e84879b9709143e1f593f0000001846000015110611072576040517f08c379a000000000000000000000000000000000000000000000000000000000815260040161106990612b28565b60405180910390fd5b7f30644e72e131a029b85045b68181585d2833e84879b9709143e1f593f00000018460200151106110d8576040517f08c379a00000000000000000000000000000000000000000000000000000000081526004016110cf90612bba565b60405180910390fd5b7f30644e72e131a029b85045b68181585d2833e84879b9709143e1f593f0000001831061113a576040517f08c379a000000000000000000000000000000000000000000000000000000000815260040161113190612c4c565b60405180910390fd5b7f30644e72e131a029b85045b68181585d2833e84879b9709143e1f593f0000001821061119c576040517f08c379a000000000000000000000000000000000000000000000000000000000815260040161119390612cde565b60405180910390fd5b60006111b06111ab8686611f2a565b612124565b905060006111ce6111c86111c2612100565b86611f2a565b83612002565b90506113a08660106040518060400160405290816000820160028060200260405190810160405280929190826002801561121d576020028201915b815481526020019060010190808311611209575b5050505050815260200160028201600280602002604051908101604052809291908260028015611262576020028201915b81548152602001906001019080831161124e575b50505050508152505083600c604051806040016040529081600082016002806020026040519081016040528092919082600280156112b5576020028201915b8154815260200190600101908083116112a1575b50505050508152602001600282016002806020026040519081016040528092919082600280156112fa576020028201915b8154815260200190600101908083116112e6575b5050505050815250508b60006040518060400160405290816000820160028060200260405190810160405280929190826002801561134d576020028201915b815481526020019060010190808311611339575b5050505050815260200160028201600280602002604051908101604052809291908260028015611392576020028201915b81548152602001906001019080831161137e575b5050505050815250506121e2565b92505050949350505050565b6000806113ff603c60405180604001604052908160008201548152602001600182015481525050604a60405180604001604052908160008201548152602001600182015481525050601954601754610f3e565b9050611451603e60405180604001604052908160008201548152602001600182015481525050604c60405180604001604052908160008201548152602001600182015481525050601954603554610f3e565b90506114a26040805180604001604052908160008201548152602001600182015481525050604e60405180604001604052908160008201548152602001600182015481525050601954603454610f3e565b90506114f36040805180604001604052908160008201548152602001600182015481525050605060405180604001604052908160008201548152602001600182015481525050601854603954610f3e565b9050611545604260405180604001604052908160008201548152602001600182015481525050605260405180604001604052908160008201548152602001600182015481525050601954603654610f3e565b9050611597604460405180604001604052908160008201548152602001600182015481525050605460405180604001604052908160008201548152602001600182015481525050601a54603754610f3e565b90506115e9604660405180604001604052908160008201548152602001600182015481525050605660405180604001604052908160008201548152602001600182015481525050601954603854610f3e565b905061163a6046604051806040016040529081600082015481526020016001820154815250506058604051806040016040529081600082015481526020016001820154815250506001603a54610f3e565b905061168c604860405180604001604052908160008201548152602001600182015481525050605a60405180604001604052908160008201548152602001600182015481525050601a54603b54610f3e565b9050601660009054906101000a900473ffffffffffffffffffffffffffffffffffffffff1673ffffffffffffffffffffffffffffffffffffffff1661175d601454601580546116da90612950565b80601f016020809104026020016040519081016040528092919081815260200182805461170690612950565b80156117535780601f1061172857610100808354040283529160200191611753565b820191906000526020600020905b81548152906001019060200180831161173657829003601f168201915b505050505061254a565b73ffffffffffffffffffffffffffffffffffffffff161490507f30644e72e131a029b85045b68181585d2833e84879b9709143e1f593f0000001806117a5576117a4612860565b5b7f30644e72e131a029b85045b68181585d2833e84879b9709143e1f593f0000001806117d4576117d3612860565b5b60335460175409603554086034541490507f30644e72e131a029b85045b68181585d2833e84879b9709143e1f593f00000018061181457611813612860565b5b6037547f30644e72e131a029b85045b68181585d2833e84879b9709143e1f593f000000161184291906128ed565b7f30644e72e131a029b85045b68181585d2833e84879b9709143e1f593f00000018061187157611870612860565b5b7f30644e72e131a029b85045b68181585d2833e84879b9709143e1f593f0000001806118a05761189f612860565b5b603854603954086034540908603654149050603b54603a541490507f9ebf19a79884326bf6ddfcf4bd501eb6a52b40414ecd5d8a70514f606810801e816040516118ea91906126b8565b60405180910390a18091505090565b60008060019050600183146119b1577f30644e72e131a029b85045b68181585d2833e84879b9709143e1f593f00000018061193757611936612860565b5b7f30644e72e131a029b85045b68181585d2833e84879b9709143e1f593f00000018061196657611965612860565b5b601c60006001811061197b5761197a61288f565b5b01547f30644e72e131a029b85045b68181585d2833e84879b9709143e1f593f00000016119a891906128ed565b60195408820990505b60028314611a62577f30644e72e131a029b85045b68181585d2833e84879b9709143e1f593f0000001806119e8576119e7612860565b5b7f30644e72e131a029b85045b68181585d2833e84879b9709143e1f593f000000180611a1757611a16612860565b5b601d600060018110611a2c57611a2b61288f565b5b01547f30644e72e131a029b85045b68181585d2833e84879b9709143e1f593f0000001611a5991906128ed565b60195408820990505b60038314611bb8577f30644e72e131a029b85045b68181585d2833e84879b9709143e1f593f000000180611a9957611a98612860565b5b7f30644e72e131a029b85045b68181585d2833e84879b9709143e1f593f000000180611ac857611ac7612860565b5b601e600060028110611add57611adc61288f565b5b01547f30644e72e131a029b85045b68181585d2833e84879b9709143e1f593f0000001611b0a91906128ed565b601954087f30644e72e131a029b85045b68181585d2833e84879b9709143e1f593f000000180611b3d57611b3c612860565b5b7f30644e72e131a029b85045b68181585d2833e84879b9709143e1f593f000000180611b6c57611b6b612860565b5b601e600160028110611b8157611b8061288f565b5b01547f30644e72e131a029b85045b68181585d2833e84879b9709143e1f593f0000001611bae91906128ed565b6019540884090990505b60048314611c69577f30644e72e131a029b85045b68181585d2833e84879b9709143e1f593f000000180611bef57611bee612860565b5b7f30644e72e131a029b85045b68181585d2833e84879b9709143e1f593f000000180611c1e57611c1d612860565b5b6020600060018110611c3357611c3261288f565b5b01547f30644e72e131a029b85045b68181585d2833e84879b9709143e1f593f0000001611c6091906128ed565b60195408820990505b60058314611d1a577f30644e72e131a029b85045b68181585d2833e84879b9709143e1f593f000000180611ca057611c9f612860565b5b7f30644e72e131a029b85045b68181585d2833e84879b9709143e1f593f000000180611ccf57611cce612860565b5b6021600060018110611ce457611ce361288f565b5b01547f30644e72e131a029b85045b68181585d2833e84879b9709143e1f593f0000001611d1191906128ed565b60195408820990505b60068314611e70577f30644e72e131a029b85045b68181585d2833e84879b9709143e1f593f000000180611d5157611d50612860565b5b7f30644e72e131a029b85045b68181585d2833e84879b9709143e1f593f000000180611d8057611d7f612860565b5b6022600060028110611d9557611d9461288f565b5b01547f30644e72e131a029b85045b68181585d2833e84879b9709143e1f593f0000001611dc291906128ed565b601954087f30644e72e131a029b85045b68181585d2833e84879b9709143e1f593f000000180611df557611df4612860565b5b7f30644e72e131a029b85045b68181585d2833e84879b9709143e1f593f000000180611e2457611e23612860565b5b6022600160028110611e3957611e3861288f565b5b01547f30644e72e131a029b85045b68181585d2833e84879b9709143e1f593f0000001611e6691906128ed565b6019540884090990505b60078314611f21577f30644e72e131a029b85045b68181585d2833e84879b9709143e1f593f000000180611ea757611ea6612860565b5b7f30644e72e131a029b85045b68181585d2833e84879b9709143e1f593f000000180611ed657611ed5612860565b5b6024600060018110611eeb57611eea61288f565b5b01547f30644e72e131a029b85045b68181585d2833e84879b9709143e1f593f0000001611f1891906128ed565b60195408820990505b80915050919050565b611f3261261d565b611f3a612637565b836000015181600060038110611f5357611f5261288f565b5b602002018181525050836020015181600160038110611f7557611f7461288f565b5b6020020181815250508281600260038110611f9357611f9261288f565b5b602002018181525050600060608360808460076107d05a03fa90508060008103611fb957fe5b5080611ffa576040517f08c379a0000000000000000000000000000000000000000000000000000000008152600401611ff190612d4a565b60405180910390fd5b505092915050565b61200a61261d565b612012612659565b83600001518160006004811061202b5761202a61288f565b5b60200201818152505083602001518160016004811061204d5761204c61288f565b5b60200201818152505082600001518160026004811061206f5761206e61288f565b5b6020020181815250508260200151816003600481106120915761209061288f565b5b602002018181525050600060608360c08460066107d05a03fa905080600081036120b757fe5b50806120f8576040517f08c379a00000000000000000000000000000000000000000000000000000000081526004016120ef90612db6565b60405180910390fd5b505092915050565b61210861261d565b6040518060400160405280600181526020016002815250905090565b61212c61261d565b60008260000151148015612144575060008260200151145b1561216757604051806040016040528060008152602001600081525090506121dd565b6040518060400160405280836000015181526020017f30644e72e131a029b85045b68181585d97816a916871ca8d3c208c16d87cfd4784602001516121ac9190612dd6565b7f30644e72e131a029b85045b68181585d97816a916871ca8d3c208c16d87cfd476121d791906128ed565b81525090505b919050565b60008060405180606001604052808981526020018781526020018581525090506000604051806060016040528089815260200187815260200185815250905060006012905060008167ffffffffffffffff811115612243576122426126f8565b5b6040519080825280602002602001820160405280156122715781602001602082028036833780820191505090505b50905060005b60038110156124af57600060068261228f9190612e07565b90508582600381106122a4576122a361288f565b5b602002015160000151836000836122bb9190612e61565b815181106122cc576122cb61288f565b5b6020026020010181815250508582600381106122eb576122ea61288f565b5b602002015160200151836001836123029190612e61565b815181106123135761231261288f565b5b6020026020010181815250508482600381106123325761233161288f565b5b60200201516000015160006002811061234e5761234d61288f565b5b6020020151836002836123619190612e61565b815181106123725761237161288f565b5b6020026020010181815250508482600381106123915761239061288f565b5b6020020151600001516001600281106123ad576123ac61288f565b5b6020020151836003836123c09190612e61565b815181106123d1576123d061288f565b5b6020026020010181815250508482600381106123f0576123ef61288f565b5b60200201516020015160006002811061240c5761240b61288f565b5b60200201518360048361241f9190612e61565b815181106124305761242f61288f565b5b60200260200101818152505084826003811061244f5761244e61288f565b5b60200201516020015160016002811061246b5761246a61288f565b5b60200201518360058361247e9190612e61565b8151811061248f5761248e61288f565b5b6020026020010181815250505080806124a790612eb7565b915050612277565b506124b861267b565b6000602082602086026020860160086107d05a03fa905080600081036124da57fe5b508061251b576040517f08c379a000000000000000000000000000000000000000000000000000000000815260040161251290612f4b565b60405180910390fd5b6000826000600181106125315761253061288f565b5b6020020151141596505050505050509695505050505050565b60008060008060418551146125655760009350505050612617565b6020850151925060408501519150606085015160001a9050601b8160ff16101561259957601b816125969190612f78565b90505b601b8160ff16141580156125b15750601c8160ff1614155b156125c25760009350505050612617565b600186828585604051600081526020016040526040516125e59493929190612fd7565b6020604051602081039080840390855afa158015612607573d6000803e3d6000fd5b5050506020604051035193505050505b92915050565b604051806040016040528060008152602001600081525090565b6040518060600160405280600390602082028036833780820191505090505090565b6040518060800160405280600490602082028036833780820191505090505090565b6040518060200160405280600190602082028036833780820191505090505090565b60008115159050919050565b6126b28161269d565b82525050565b60006020820190506126cd60008301846126a9565b92915050565b6000604051905090565b600080fd5b600080fd5b6000601f19601f8301169050919050565b7f4e487b7100000000000000000000000000000000000000000000000000000000600052604160045260246000fd5b612730826126e7565b810181811067ffffffffffffffff8211171561274f5761274e6126f8565b5b80604052505050565b60006127626126d3565b905061276e8282612727565b919050565b6000819050919050565b61278681612773565b811461279157600080fd5b50565b6000813590506127a38161277d565b92915050565b6000604082840312156127bf576127be6126e2565b5b6127c96040612758565b905060006127d984828501612794565b60008301525060206127ed84828501612794565b60208301525092915050565b60008060008060c08587031215612813576128126126dd565b5b6000612821878288016127a9565b9450506040612832878288016127a9565b935050608061284387828801612794565b92505060a061285487828801612794565b91505092959194509250565b7f4e487b7100000000000000000000000000000000000000000000000000000000600052601260045260246000fd5b7f4e487b7100000000000000000000000000000000000000000000000000000000600052603260045260246000fd5b7f4e487b7100000000000000000000000000000000000000000000000000000000600052601160045260246000fd5b60006128f882612773565b915061290383612773565b925082821015612916576129156128be565b5b828203905092915050565b7f4e487b7100000000000000000000000000000000000000000000000000000000600052602260045260246000fd5b6000600282049050600182168061296857607f821691505b60208210810361297b5761297a612921565b5b50919050565b600082825260208201905092915050565b7f56657269666965722e7665726966794b5a473a205f636f6d6d69746d656e742e60008201527f58206973206f7574206f662072616e6765000000000000000000000000000000602082015250565b60006129ee603183612981565b91506129f982612992565b604082019050919050565b60006020820190508181036000830152612a1d816129e1565b9050919050565b7f56657269666965722e7665726966794b5a473a205f636f6d6d69746d656e742e60008201527f59206973206f7574206f662072616e6765000000000000000000000000000000602082015250565b6000612a80603183612981565b9150612a8b82612a24565b604082019050919050565b60006020820190508181036000830152612aaf81612a73565b9050919050565b7f56657269666965722e7665726966794b5a473a205f70726f6f662e582069732060008201527f6f7574206f662072616e67650000000000000000000000000000000000000000602082015250565b6000612b12602c83612981565b9150612b1d82612ab6565b604082019050919050565b60006020820190508181036000830152612b4181612b05565b9050919050565b7f56657269666965722e7665726966794b5a473a205f70726f6f662e592069732060008201527f6f7574206f662072616e67650000000000000000000000000000000000000000602082015250565b6000612ba4602c83612981565b9150612baf82612b48565b604082019050919050565b60006020820190508181036000830152612bd381612b97565b9050919050565b7f56657269666965722e7665726966794b5a473a205f696e646578206973206f7560008201527f74206f662072616e676500000000000000000000000000000000000000000000602082015250565b6000612c36602a83612981565b9150612c4182612bda565b604082019050919050565b60006020820190508181036000830152612c6581612c29565b9050919050565b7f56657269666965722e7665726966794b5a473a205f76616c7565206973206f7560008201527f74206f662072616e676500000000000000000000000000000000000000000000602082015250565b6000612cc8602a83612981565b9150612cd382612c6c565b604082019050919050565b60006020820190508181036000830152612cf781612cbb565b9050919050565b7f70616972696e672d6d756c2d6661696c65640000000000000000000000000000600082015250565b6000612d34601283612981565b9150612d3f82612cfe565b602082019050919050565b60006020820190508181036000830152612d6381612d27565b9050919050565b7f70616972696e672d6164642d6661696c65640000000000000000000000000000600082015250565b6000612da0601283612981565b9150612dab82612d6a565b602082019050919050565b60006020820190508181036000830152612dcf81612d93565b9050919050565b6000612de182612773565b9150612dec83612773565b925082612dfc57612dfb612860565b5b828206905092915050565b6000612e1282612773565b9150612e1d83612773565b9250817fffffffffffffffffffffffffffffffffffffffffffffffffffffffffffffffff0483118215151615612e5657612e556128be565b5b828202905092915050565b6000612e6c82612773565b9150612e7783612773565b9250827fffffffffffffffffffffffffffffffffffffffffffffffffffffffffffffffff03821115612eac57612eab6128be565b5b828201905092915050565b6000612ec282612773565b91507fffffffffffffffffffffffffffffffffffffffffffffffffffffffffffffffff8203612ef457612ef36128be565b5b600182019050919050565b7f70616972696e672d6f70636f64652d6661696c65640000000000000000000000600082015250565b6000612f35601583612981565b9150612f4082612eff565b602082019050919050565b60006020820190508181036000830152612f6481612f28565b9050919050565b600060ff82169050919050565b6000612f8382612f6b565b9150612f8e83612f6b565b92508260ff03821115612fa457612fa36128be565b5b828201905092915050565b6000819050919050565b612fc281612faf565b82525050565b612fd181612f6b565b82525050565b6000608082019050612fec6000830187612fb9565b612ff96020830186612fc8565b6130066040830185612fb9565b6130136060830184612fb9565b9594505050505056fea2646970667358221220703684aa989e75f4e86bc023d9617cc75f2ee8308b10d2fc5ffb34312c4c730c64736f6c634300080d003332303930303432393839393239313030393037333239393238393436393636303134393731363738353539363235313439313330303639323033353638313439323031363933393137393235372c2034333336393130323335363836393631353338323835393936353237323731373734393336373139303538383334353439353338363836303430373438373135323833383132323030393719ec5dc5aa05a220cd210a113352596ebf80d06a6f776b8e0c656e50a5c5567f1e8a7f23fb27f77ea5b5d42f0e2384facdebebd85f026e2a73e94d4690a40a6801",
  "immutableReferences": {},
  "source": "// Modified from https://github.com/appliedzkp/semaphore/blob/master/contracts/sol/verifier.sol\r\n// SPDX-License-Identifier: MIT\r\n\r\n// please notice that current code may be temporary code for cost estimation, and right version is annotated\r\n// for original sonic, unannotate sonic proofs\r\n\r\npragma solidity >=0.4.22 <0.9.0;\r\npragma experimental ABIEncoderV2;\r\nimport \"./Pairing.sol\";\r\n// import \"./PolyCoeff.sol\";\r\nimport { Constants } from \"./Constants.sol\";\r\n// import \"@openzeppelin/contracts/utils/Strings.sol\";\r\n\r\ncontract Verifier is Constants {\r\n\r\n    using Pairing for *;\r\n\r\n    event verifyResult(bool result);\r\n\r\n    // ECDSA signature\r\n    bytes32 message = ethMessageHash(\"20900429899291009073299289469660149716785596251491300692035681492016939179257, 433691023568696153828599652727177493671905883454953868604074871528381220097\");\r\n    bytes sig = hex\"19ec5dc5aa05a220cd210a113352596ebf80d06a6f776b8e0c656e50a5c5567f1e8a7f23fb27f77ea5b5d42f0e2384facdebebd85f026e2a73e94d4690a40a6801\";\r\n    address addr = 0xE448992FdEaF94784bBD8f432d781C061D907985;\r\n\r\n    // d_j when j=1\r\n    uint256 d = uint256(20435686948508171234472206488737953800505595616105823290561271581793730135986);\r\n    uint256 yz = mulmod(y, z, Pairing.BABYJUB_P);\r\n    uint256 z = uint256(21284924740537517593391635090683107806948436131904811688892120057033464016678);\r\n    uint256 y = uint256(21356640755055926883299664242251323519715676831624930462071588778907420237277);\r\n    uint256 beta = uint256(21300179784197405894513072539865320928097398620497813074953097024203243212233);\r\n    // S\r\n    uint256[1] S1 = [z];\r\n    uint256[1] S2 = [z];\r\n    uint256[2] S3 = [z, yz];\r\n    uint256[1] S4 = [z];\r\n    uint256[1] S5 = [y];\r\n    uint256[2] S6 = [z, 1];\r\n    uint256[1] S7 = [y];\r\n    // gamma(z) = gamma[0] + gamma[1]*z + gamma[2]*z^2 + ...\r\n    uint256[1] gamma1 = [z];\r\n    uint256[1] gamma2 = [z];\r\n    uint256[2] gamma3 = [z, yz];\r\n    uint256[1] gamma4 = [z];\r\n    uint256[1] gamma5 = [z];\r\n    uint256[2] gamma6 = [z, 1];\r\n    uint256[1] gamma7 = [z];\r\n    // the committed prove, g^p[x], g^w[x]\r\n    Pairing.G1Point pi_1 = G1Gen();\r\n    Pairing.G1Point pi_2 = G1Gen();\r\n\r\n    // number of constraints?\r\n    uint256 N = 21;\r\n    uint256 z_n = expMod(z, N, BABYJUB_P);\r\n\r\n    // other prover submitted variables\r\n    uint256 r_1 = uint256(20435686948508171234472206488737953800505595616105823290561271581793730135986);\r\n    uint256 r_tilde = uint256(7613038940582986439878577004424311309737615170791456916446723479068371769225);\r\n    uint256 t = uint256(20435686948508171234472206488737953800505595616105823290561271581793730135986);\r\n    uint256 k = uint256(11598511819595573397693757683043215863237090817957830497519701049476846220233);\r\n    uint256 s_tilde = uint256(20435686948508171234472206488737953800505595616105823290561271581793730135986);\r\n    uint256 r_2 = uint256(7613038940582986439878577004424311309737615170791456916446723479068371769225);\r\n    uint256 s_1_tilde = uint256(20435686948508171234472206488737953800505595616105823290561271581793730135986);\r\n    uint256 s_2_tilde = uint256(7613038940582986439878577004424311309737615170791456916446723479068371769225);\r\n\r\n    // poly commitments, Fs\r\n    Pairing.G1Point D = Pairing.G1Point(uint256(20435686948508171234472206488737953800505595616105823290561271581793730135986),\r\n        uint256(7613038940582986439878577004424311309737615170791456916446723479068371769225));\r\n    Pairing.G1Point R_tilde = Pairing.G1Point(uint256(20435686948508171234472206488737953800505595616105823290561271581793730135986),\r\n        uint256(7613038940582986439878577004424311309737615170791456916446723479068371769225));\r\n    Pairing.G1Point R = Pairing.G1Point(uint256(20435686948508171234472206488737953800505595616105823290561271581793730135986),\r\n        uint256(7613038940582986439878577004424311309737615170791456916446723479068371769225));\r\n    Pairing.G1Point T = Pairing.G1Point(uint256(20435686948508171234472206488737953800505595616105823290561271581793730135986),\r\n        uint256(7613038940582986439878577004424311309737615170791456916446723479068371769225));\r\n    Pairing.G1Point K = Pairing.G1Point(uint256(20435686948508171234472206488737953800505595616105823290561271581793730135986),\r\n        uint256(7613038940582986439878577004424311309737615170791456916446723479068371769225));\r\n    Pairing.G1Point S_x = Pairing.G1Point(uint256(20435686948508171234472206488737953800505595616105823290561271581793730135986),\r\n        uint256(7613038940582986439878577004424311309737615170791456916446723479068371769225));\r\n    Pairing.G1Point S_y = Pairing.G1Point(uint256(20435686948508171234472206488737953800505595616105823290561271581793730135986),\r\n        uint256(7613038940582986439878577004424311309737615170791456916446723479068371769225));\r\n    // for original sonic, unannotate sonic proofs\r\n    // Sonic proofs\r\n    // D_j when j=1\r\n    Pairing.G1Point pi_D = Pairing.G1Point(uint256(20435686948508171234472206488737953800505595616105823290561271581793730135986),\r\n        uint256(7613038940582986439878577004424311309737615170791456916446723479068371769225));\r\n    Pairing.G1Point pi_R_tilde = Pairing.G1Point(uint256(20435686948508171234472206488737953800505595616105823290561271581793730135986),\r\n        uint256(7613038940582986439878577004424311309737615170791456916446723479068371769225));\r\n    Pairing.G1Point pi_R1 = Pairing.G1Point(uint256(20435686948508171234472206488737953800505595616105823290561271581793730135986),\r\n        uint256(7613038940582986439878577004424311309737615170791456916446723479068371769225));\r\n    Pairing.G1Point pi_R2 = Pairing.G1Point(uint256(20435686948508171234472206488737953800505595616105823290561271581793730135986),\r\n        uint256(7613038940582986439878577004424311309737615170791456916446723479068371769225));\r\n    Pairing.G1Point pi_T = Pairing.G1Point(uint256(20435686948508171234472206488737953800505595616105823290561271581793730135986),\r\n        uint256(7613038940582986439878577004424311309737615170791456916446723479068371769225));\r\n    Pairing.G1Point pi_K = Pairing.G1Point(uint256(20435686948508171234472206488737953800505595616105823290561271581793730135986),\r\n        uint256(7613038940582986439878577004424311309737615170791456916446723479068371769225));\r\n    Pairing.G1Point pi_S_x1 = Pairing.G1Point(uint256(20435686948508171234472206488737953800505595616105823290561271581793730135986),\r\n        uint256(7613038940582986439878577004424311309737615170791456916446723479068371769225));\r\n    Pairing.G1Point pi_S_x2 = Pairing.G1Point(uint256(20435686948508171234472206488737953800505595616105823290561271581793730135986),\r\n        uint256(7613038940582986439878577004424311309737615170791456916446723479068371769225));\r\n    Pairing.G1Point pi_S_y = Pairing.G1Point(uint256(20435686948508171234472206488737953800505595616105823290561271581793730135986),\r\n        uint256(7613038940582986439878577004424311309737615170791456916446723479068371769225));\r\n\r\n\r\n\r\n    // formerly used variables:\r\n\r\n    // temporarily this is for original sonic\r\n    // uint256[21] Proof = [\r\n    //     uint256(20435686948508171234472206488737953800505595616105823290561271581793730135986),\r\n    //     uint256(7613038940582986439878577004424311309737615170791456916446723479068371769225),\r\n    //     uint256(20900429899291009073299289469660149716785596251491300692035681492016939179257),\r\n    //     uint256(17015433841169487450406840425175642150965883946544965612916879717959251917877),\r\n    //     uint256(433691023568696153828599652727177493671905883454953868604074871528381220097),\r\n    //     uint256(10320531664273889342578906132837836076031009559738199149165995480549188738219),\r\n    //     uint256(5841514956038981489672186264970094693930045609713312309929445225955171101947),\r\n    //     uint256(5021024840007099401420413415719005463562614305701472747429400657816854795888),\r\n    //     uint256(20774065911754029615648528083815650325450840922528127398846513310899898519818),\r\n    //     uint256(15033194806153309440324576121312701377491848712637707126378339071163915088607),\r\n    //     uint256(13797601081368067296147105517336555699959400728196376360418452678919689273357),\r\n    //     uint256(347536244405038501480645670232637364896709701574004323632284243300674648233),\r\n    //     uint256(14150985670258525975582637074878024272235049272474457475329855381177734047698),\r\n    //     uint256(2655786006985334435742353147654701867454007390061009682990360208958229883457),\r\n    //     uint256(19749978915220999581635876327451130211831443864540429941950424972239040718725),\r\n    //     uint256(18652734379260577017619098828238354228621932558467343220803598526754221068969),\r\n    //     uint256(19231643171984527412379363884712632725022106910875011856721870145973184299950),\r\n    //     uint256(11890584382703984881384687349129438589403848436060509080598302278432395889958),\r\n    //     uint256(19848703903105846067635106277601755727734486581037082434405934553883502968806),\r\n    //     uint256(7073067203970200196273245091229017314841577127190841947842173598530677375580),\r\n    //     uint256(11142795172845103846997117758219330284910812886430955732663385421662518242916)\r\n    // ];\r\n\r\n    // length of longest u,v,w, i.e. longest length of a,b,c, linear to poly. current 32: 2994\r\n\r\n    // SOCC_hscS = [G1Point S_j, uint256 s_j, G1Point W_j]\r\n    // uint256[5] SOCC_hscS = [\r\n    //     uint256(4856595452220518861283513887787149560249872199754148373623768058895650888886),\r\n    //     uint256(18903793806709064235976701805982270837399009185115750427816521247566249210556),\r\n    //     uint256(11142795172845103846997117758219330284910812886430955732663385421662518242916),\r\n    //     uint256(21371202341828297453905088304285070177929072675831707150146249345026206448204),\r\n    //     uint256(2804295765584777874267821186909392907007222244895837511075392229436674961086)\r\n    // ];\r\n    // SOCC_hscW = [uint256 s'_j,G1Point W'_j, G1Point Q_j]\r\n    // uint256[5] SOCC_hscW = [\r\n    //     uint256(10516069979663785554384039720791935537971662430097624533692998141893610132813),\r\n    //     uint256(4047408704098476939730481302397316844045052246660100325786631118072453155095),\r\n    //     uint256(3536770324764440576997419732517461268782698510962602892817204324264966117745),\r\n    //     uint256(14245367996788138561788347307320292816184394224142842975302936827932398609764),\r\n    //     uint256(4809015920432886449944012129537258787815219963382067822305826740230093200527)\r\n    // ];\r\n\r\n    // Pairing.G1Point hscQv = Pairing.G1Point(\r\n    //     uint256(2990558601454446836641627272921201963123578559834602407524792456795005493261),\r\n    //     uint256(13202662347545347168000079135411531495309137838398006144762638337293564502641)\r\n    // );\r\n    // Pairing.G1Point hscC = Pairing.G1Point(\r\n    //     uint256(20354021681082976488982424663336191185782081465046767166624106617637273115698),\r\n    //     uint256(7434894914590215425794637416957100516507193983165584369402225555559623348194)\r\n    // );\r\n\r\n    // uint256 u = uint256(8197071660809916300712359474937866146139983659726903111927633346212682272753);\r\n    // uint256 v = uint256(18304223670379022123371455395869338667757056554451611927086438308637909615067);\r\n\r\n    // from terminal\r\n    // uint256 s_uv = uint256(7791702837224372263152657165191932519240106980588006270334507770946892728366);\r\n\r\n    // The G2 generator\r\n    // why it's here? because the G2Gen() doesn't work in verify() for unknown reason\r\n    // Pairing.G2Point g2Generator = Pairing.G2Point({\r\n    //     X: [ Constants.SRS_G2_X_0[0], Constants.SRS_G2_X_1[0] ],\r\n    //     Y: [ Constants.SRS_G2_Y_0[0], Constants.SRS_G2_Y_1[0] ]\r\n    // });\r\n    // g\r\n    // Pairing.G1Point g = Pairing.G1Point(1, 2);\r\n    \r\n    // h^\r\n    // Pairing.G2Point SRS_G2_2 = Pairing.G2Point({\r\n    //     X: [ SRS_G2_X_0_Pos[2], SRS_G2_X_1_Pos[2] ],\r\n    //     Y: [ SRS_G2_Y_0_Pos[2], SRS_G2_Y_1_Pos[2] ]\r\n    // });\r\n\r\n    // Sonic version - Verify a single-point evaluation of a polynominal\r\n    function verify(\r\n        Pairing.G1Point memory _commitment, // F\r\n        Pairing.G1Point memory _proof, // W\r\n        uint256 _index,  // z\r\n        uint256 _value  // F(z) or v\r\n        // uint proofIndex,\r\n        // bool isT\r\n    ) public view returns (bool) {\r\n        // Make sure each parameter is less than the prime q\r\n        require(_commitment.X < BABYJUB_P, \"Verifier.verifyKZG: _commitment.X is out of range\");\r\n        require(_commitment.Y < BABYJUB_P, \"Verifier.verifyKZG: _commitment.Y is out of range\");\r\n        require(_proof.X < BABYJUB_P, \"Verifier.verifyKZG: _proof.X is out of range\");\r\n        require(_proof.Y < BABYJUB_P, \"Verifier.verifyKZG: _proof.Y is out of range\");\r\n        require(_index < BABYJUB_P, \"Verifier.verifyKZG: _index is out of range\");\r\n        require(_value < BABYJUB_P, \"Verifier.verifyKZG: _value is out of range\");\r\n       \r\n        Pairing.G1Point memory negProof = Pairing.negate(Pairing.mulScalar(_proof, _index));\r\n        Pairing.G1Point memory mulProof = Pairing.plus(Pairing.mulScalar(Constants.G1Gen(), _value), negProof);\r\n\r\n        return Pairing.pairing_3point(_proof, Constants.SRS_G2_hAlphaX1,\r\n                                mulProof, Constants.SRS_G2_hAlphaX0,\r\n                                _commitment, Constants.t_hxdmax);\r\n    }\r\n\r\n\r\n\r\n    /*\r\n     * Verifies a single-point evaluation of a polynominal using the KZG\r\n     * commitment scheme.\r\n     *    - p(X) is a polynominal\r\n     *    - _value = p(_index) \r\n     *    - commitment = commit(p)\r\n     *    - proof = genProof(p, _index, _value)\r\n     * Returns true if and only if the following holds, and returns false\r\n     * otherwise:\r\n     *     e(commitment - commit([_value]), G2.g) == e(proof, commit([0, 1]) - zCommit)\r\n     * @param _commitment The KZG polynominal commitment.\r\n     * @param _proof The proof.\r\n     * @param _index The x-value at which to evaluate the polynominal.\r\n     * @param _value The result of the polynominal evaluation.\r\n     */\r\n    // KZG version - Verify a single-point evaluation of a polynominal\r\n\r\n    // function verify(\r\n    //     Pairing.G1Point memory _commitment, // F\r\n    //     Pairing.G1Point memory _proof, // \r\n    //     uint256 _index,  // z\r\n    //     uint256 _value  // F(z) or v\r\n    //     //uint proofIndex\r\n    // ) public view returns (bool) {\r\n    //     // Make sure each parameter is less than the prime q\r\n    //     require(_commitment.X < BABYJUB_P, \"Verifier.verifyKZG: _commitment.X is out of range\");\r\n    //     require(_commitment.Y < BABYJUB_P, \"Verifier.verifyKZG: _commitment.Y is out of range\");\r\n    //     require(_proof.X < BABYJUB_P, \"Verifier.verifyKZG: _proof.X is out of range\");\r\n    //     require(_proof.Y < BABYJUB_P, \"Verifier.verifyKZG: _proof.Y is out of range\");\r\n    //     require(_index < BABYJUB_P, \"Verifier.verifyKZG: _index is out of range\");\r\n    //     require(_value < BABYJUB_P, \"Verifier.verifyKZG: _value is out of range\");\r\n    //     // Check that \r\n    //     //     e(commitment - aCommit, G2.g) == e(proof, xCommit - zCommit)\r\n    //     //     e(commitment - aCommit, G2.g) / e(proof, xCommit - zCommit) == 1\r\n    //     //     e(commitment - aCommit, G2.g) * e(proof, xCommit - zCommit) ^ -1 == 1\r\n    //     //     e(commitment - aCommit, G2.g) * e(-proof, xCommit - zCommit) == 1\r\n    //     // where:\r\n    //     //     aCommit = commit([_value]) = SRS_G1_0 * _value\r\n    //     //     xCommit = commit([0, 1]) = SRS_G2_1\r\n    //     //     zCommit = commit([_index]) = SRS_G2_1 * _index\r\n\r\n    //     // To avoid having to perform an expensive operation in G2 to compute\r\n    //     // xCommit - zCommit, we instead check the equivalent equation:\r\n    //     //     e(commitment - aCommit, G2.g) * e(-proof, xCommit) * e(-proof, -zCommit) == 1\r\n    //     //     e(commitment - aCommit, G2.g) * e(-proof, xCommit) * e(proof, zCommit) == 1\r\n    //     //     e(commitment - aCommit, G2.g) * e(-proof, xCommit) * e(index * proof, G2.g) == 1\r\n    //     //     e((index * proof) + (commitment - aCommit), G2.g) * e(-proof, xCommit) == 1\r\n\r\n    //     // Compute commitment - aCommitment\r\n    //     Pairing.G1Point memory commitmentMinusA = Pairing.plus(\r\n    //         _commitment,\r\n    //         Pairing.negate(\r\n    //             Pairing.mulScalar(Constants.G1Gen(), _value)\r\n    //         )\r\n    //     );\r\n\r\n    //     // Negate the proof\r\n    //     Pairing.G1Point memory negProof = Pairing.negate(_proof);\r\n\r\n    //     // Compute index * proof\r\n    //     Pairing.G1Point memory indexMulProof = Pairing.mulScalar(_proof, _index);\r\n\r\n    //     // Return true if and only if\r\n    //     // e((index * proof) + (commitment - aCommitment), G2.g) * e(-proof, xCommit) == 1\r\n    //     return Pairing.pairing(\r\n    //         Pairing.plus(indexMulProof, commitmentMinusA),\r\n    //         g2Generator,\r\n    //         negProof,\r\n    //         SRS_G2_1 // it's h. original author of kzg commitment code call it 'xCommit' here\r\n    //     );\r\n    // }\r\n\r\n    // modified sonic verifier using KZG commitment\r\n\r\n    // function verifySonic_KZG(\r\n    //     // uint256[21] memory Proof,\r\n    //     // uint256[2] memory Randoms\r\n    // ) public returns (bool) {\r\n\r\n    //     // simulate calculating kY\r\n    //     // uint256 ky = evalKPoly();\r\n    //     // // // simulate calculating sXY\r\n    //     // uint256 sx = evalXPoly();\r\n    //     // uint256 sy = evalXPoly();\r\n\r\n    //     //uint256 yz = mulmod(y, z, Pairing.BABYJUB_P);\r\n\r\n    //     // y^N for halo implementation style\r\n    //     // uint256 y_n = expMod(z, N, BABYJUB_P);\r\n    //     // t for halo implementation style\r\n    //     // uint256 t = addmod(mulmod(addmod(Proof[6], Proof[9], Pairing.BABYJUB_P), \r\n    //     //                           addmod(addmod(Proof[12], \r\n    //     //                                         Proof[15], Pairing.BABYJUB_P), \r\n    //     //                                  evalS, Pairing.BABYJUB_P), Pairing.BABYJUB_P),\r\n    //     //                     mulmod((BABYJUB_P - evalK), y_n, BABYJUB_P),\r\n    //     //                     BABYJUB_P);\r\n\r\n    //     uint256 t = addmod(mulmod(addmod(Proof[6], Proof[9], Pairing.BABYJUB_P), \r\n    //                               addmod(addmod(Proof[12], \r\n    //                                             Proof[15], Pairing.BABYJUB_P), \r\n    //                                      evalS, Pairing.BABYJUB_P), Pairing.BABYJUB_P),\r\n    //                         (BABYJUB_P - evalK), BABYJUB_P);\r\n\r\n\r\n    //     bool verifySignature = recover(message, sig) == addr;\r\n    //     // bool result = verify(Pairing.G1Point(Proof[0], Proof[1]), // aLocal\r\n    //     //               Pairing.G1Point(Proof[7], Proof[8]),\r\n    //     //               z, \r\n    //     //               Proof[6]) &&\r\n    //     //         verify(Pairing.G1Point(Proof[0], Proof[1]), // bLocal\r\n    //     //               Pairing.G1Point(Proof[13], Proof[14]),\r\n    //     //               yz,\r\n    //     //               Proof[12]) &&\r\n    //     //         verify(Pairing.G1Point(Proof[2], Proof[3]), // aRaw\r\n    //     //               Pairing.G1Point(Proof[10], Proof[11]),\r\n    //     //               z,\r\n    //     //               Proof[9]) &&\r\n    //     //         verify(Pairing.G1Point(Proof[2], Proof[3]), // bRaw\r\n    //     //               Pairing.G1Point(Proof[16], Proof[17]),\r\n    //     //               yz,\r\n    //     //               Proof[15]) &&\r\n    //     //         verify(Pairing.G1Point(Proof[4], Proof[5]), // t\r\n    //     //               Pairing.G1Point(Proof[18], Proof[19]),\r\n    //     //               z,\r\n    //     //               t) &&                               \r\n    //     //         verify(Pairing.G1Point(Proof[4], Proof[5]), // t\r\n    //     //               Pairing.G1Point(Proof[18], Proof[19]),\r\n    //     //               z,\r\n    //     //               t) &&                                            // pcV srsLocal (srsD srsLocal) commitK y (k, wk)\r\n    //     //         verify(Pairing.G1Point(Proof[4], Proof[5]), // t\r\n    //     //               Pairing.G1Point(Proof[18], Proof[19]),\r\n    //     //               z,\r\n    //     //               t) &&                                            // pcV srsLocal (srsD srsLocal) commitC y (c, wc)\r\n    //     //         verify(Pairing.G1Point(Proof[4], Proof[5]), // t\r\n    //     //               Pairing.G1Point(Proof[18], Proof[19]),\r\n    //     //               z,\r\n    //     //               t) &&                                            // pcV srsLocal (srsD srsLocal) commitC yOld (cOld, wcOld)\r\n    //     //         verify(Pairing.G1Point(Proof[4], Proof[5]), // t\r\n    //     //               Pairing.G1Point(Proof[18], Proof[19]),\r\n    //     //               z,\r\n    //     //               t) &&                                            //, pcV srsLocal (srsD srsLocal) commitC yNew (cNew, wcNew)\r\n    //     //         verify(Pairing.G1Point(Proof[4], Proof[5]), // t\r\n    //     //               Pairing.G1Point(Proof[18], Proof[19]),\r\n    //     //               z,\r\n    //     //               t) &&                                            //, pcV srsLocal (srsD srsLocal) commitS z (s, ws)\r\n    //     //         verify(Pairing.G1Point(Proof[4], Proof[5]), // t\r\n    //     //               Pairing.G1Point(Proof[18], Proof[19]),\r\n    //     //               z,\r\n    //     //               t) &&                                            //, pcV srsLocal (srsD srsLocal) commitSOld z (sOld, wsOld)\r\n    //     //          verify(Pairing.G1Point(Proof[4], Proof[5]), // t\r\n    //     //               Pairing.G1Point(Proof[18], Proof[19]),\r\n    //     //               z,\r\n    //     //               t) &&                                           //, pcV srsLocal (srsD srsLocal) commitSNew z (sNew, wsNew)\r\n    //     //         verifySignature &&\r\n    //     //         Proof[6] == Proof[7] && // c_old == s_old\r\n    //     //         Proof[8] == Proof[9] && // c_new == s_new\r\n    //     //         Proof[10] == Proof[11]; // c == s\r\n\r\n    //     // temporary code for estimating gas cost, the above is correct version\r\n    //     bool result = verify(Pairing.G1Point(Proof[0], Proof[1]), // aLocal\r\n    //                   Pairing.G1Point(Proof[7], Proof[8]),\r\n    //                   z, \r\n    //                   Proof[6]);\r\n    //     result = verify(Pairing.G1Point(Proof[0], Proof[1]), // bLocal\r\n    //                   Pairing.G1Point(Proof[13], Proof[14]),\r\n    //                   yz,\r\n    //                   Proof[12]);\r\n    //     result = verify(Pairing.G1Point(Proof[2], Proof[3]), // aRaw\r\n    //                   Pairing.G1Point(Proof[10], Proof[11]),\r\n    //                   z,\r\n    //                   Proof[9]);\r\n    //     result = verify(Pairing.G1Point(Proof[2], Proof[3]), // bRaw\r\n    //                   Pairing.G1Point(Proof[16], Proof[17]),\r\n    //                   yz,\r\n    //                   Proof[15]);\r\n    //     result = verify(Pairing.G1Point(Proof[4], Proof[5]), // t\r\n    //                   Pairing.G1Point(Proof[18], Proof[19]),\r\n    //                   z,\r\n    //                   t);                              \r\n    //     result = verify(Pairing.G1Point(Proof[4], Proof[5]), // t\r\n    //                   Pairing.G1Point(Proof[18], Proof[19]),\r\n    //                   z,\r\n    //                   t);                                            // pcV srsLocal (srsD srsLocal) commitK y (k, wk)\r\n    //     result = verify(Pairing.G1Point(Proof[4], Proof[5]), // t\r\n    //                   Pairing.G1Point(Proof[18], Proof[19]),\r\n    //                   z,\r\n    //                   t);                                            // pcV srsLocal (srsD srsLocal) commitC y (c, wc)\r\n    //     result = verify(Pairing.G1Point(Proof[4], Proof[5]), // t\r\n    //                   Pairing.G1Point(Proof[18], Proof[19]),\r\n    //                   z,\r\n    //                   t);                                            // pcV srsLocal (srsD srsLocal) commitC yOld (cOld, wcOld)\r\n    //     result = verify(Pairing.G1Point(Proof[4], Proof[5]), // t\r\n    //                   Pairing.G1Point(Proof[18], Proof[19]),\r\n    //                   z,\r\n    //                   t);                                            //, pcV srsLocal (srsD srsLocal) commitC yNew (cNew, wcNew)\r\n    //     result = verify(Pairing.G1Point(Proof[4], Proof[5]), // t\r\n    //                   Pairing.G1Point(Proof[18], Proof[19]),\r\n    //                   z,\r\n    //                   t);                                            //, pcV srsLocal (srsD srsLocal) commitS z (s, ws)\r\n    //     result = verify(Pairing.G1Point(Proof[4], Proof[5]), // t\r\n    //                   Pairing.G1Point(Proof[18], Proof[19]),\r\n    //                   z,\r\n    //                   t);                                            //, pcV srsLocal (srsD srsLocal) commitSOld z (sOld, wsOld)\r\n    //     result = verify(Pairing.G1Point(Proof[4], Proof[5]), // t\r\n    //                   Pairing.G1Point(Proof[18], Proof[19]),\r\n    //                   z,\r\n    //                   t);                                           //, pcV srsLocal (srsD srsLocal) commitSNew z (sNew, wsNew)\r\n    //     result = verifySignature;\r\n    //     result = Proof[6] == Proof[7]; // c_old == s_old\r\n    //     result = Proof[8] == Proof[9]; // c_new == s_new\r\n    //     result = Proof[10] == Proof[11]; // c == s\r\n    //     emit verifyResult(result);\r\n    //     return result;\r\n    // }\r\n\r\n    // sonic verifier\r\n\r\n    function verifySonic(\r\n        // uint256[21] memory Proof,\r\n        // uint256[2] memory Randoms\r\n    ) public returns (bool) {\r\n\r\n        // simulate calculating kY\r\n        // uint256 ky = evalKPoly();\r\n        // // // simulate calculating sXY\r\n        // uint256 sx = evalXPoly();\r\n        // uint256 sy = evalXPoly();\r\n\r\n        // uint256 yz = mulmod(y, z, Pairing.BABYJUB_P);\r\n\r\n        // y^N for halo implementation style\r\n        // uint256 y_n = expMod(z, N, BABYJUB_P);\r\n        // t for halo implementation style\r\n        // uint256 t = addmod(mulmod(addmod(Proof[6], Proof[9], Pairing.BABYJUB_P), \r\n        //                           addmod(addmod(Proof[12], \r\n        //                                         Proof[15], Pairing.BABYJUB_P), \r\n        //                                  evalS, Pairing.BABYJUB_P), Pairing.BABYJUB_P),\r\n        //                     mulmod((BABYJUB_P - evalK), y_n, BABYJUB_P),\r\n        //                     BABYJUB_P);\r\n\r\n\r\n\r\n        // bool result = verify(Pairing.G1Point(Proof[0], Proof[1]), // aLocal\r\n        //               Pairing.G1Point(Proof[7], Proof[8]),\r\n        //               z, \r\n        //               Proof[6]) &&\r\n        //         verify(Pairing.G1Point(Proof[0], Proof[1]), // bLocal\r\n        //               Pairing.G1Point(Proof[13], Proof[14]),\r\n        //               yz,\r\n        //               Proof[12]) &&\r\n        //         verify(Pairing.G1Point(Proof[2], Proof[3]), // aRaw\r\n        //               Pairing.G1Point(Proof[10], Proof[11]),\r\n        //               z,\r\n        //               Proof[9]) &&\r\n        //         verify(Pairing.G1Point(Proof[2], Proof[3]), // bRaw\r\n        //               Pairing.G1Point(Proof[16], Proof[17]),\r\n        //               yz,\r\n        //               Proof[15]) &&\r\n        //         verify(Pairing.G1Point(Proof[4], Proof[5]), // t\r\n        //               Pairing.G1Point(Proof[18], Proof[19]),\r\n        //               z,\r\n        //               t,\r\n        //               0, true) &&                               \r\n        //         verify(Pairing.G1Point(Proof[4], Proof[5]), // t\r\n        //               Pairing.G1Point(Proof[18], Proof[19]),\r\n        //               z,\r\n        //               t,\r\n        //               0, true) &&                                            // pcV srsLocal (srsD srsLocal) commitK y (k, wk)\r\n        //         verify(Pairing.G1Point(Proof[4], Proof[5]), // t\r\n        //               Pairing.G1Point(Proof[18], Proof[19]),\r\n        //               z,\r\n        //               t,\r\n        //               0, true) &&                                            // pcV srsLocal (srsD srsLocal) commitC y (c, wc)\r\n        //         verify(Pairing.G1Point(Proof[4], Proof[5]), // t\r\n        //               Pairing.G1Point(Proof[18], Proof[19]),\r\n        //               z,\r\n        //               t,\r\n        //               0, true) &&                                            // pcV srsLocal (srsD srsLocal) commitC yOld (cOld, wcOld)\r\n        //         verify(Pairing.G1Point(Proof[4], Proof[5]), // t\r\n        //               Pairing.G1Point(Proof[18], Proof[19]),\r\n        //               z,\r\n        //               t,\r\n        //               0, true) &&                                            //, pcV srsLocal (srsD srsLocal) commitC yNew (cNew, wcNew)\r\n        //         verify(Pairing.G1Point(Proof[4], Proof[5]), // t\r\n        //               Pairing.G1Point(Proof[18], Proof[19]),\r\n        //               z,\r\n        //               t,\r\n        //               0, true) &&                                            //, pcV srsLocal (srsD srsLocal) commitS z (s, ws)\r\n        //         verify(Pairing.G1Point(Proof[4], Proof[5]), // t\r\n        //               Pairing.G1Point(Proof[18], Proof[19]),\r\n        //               z,\r\n        //               t,\r\n        //               0, true) &&                                            //, pcV srsLocal (srsD srsLocal) commitSOld z (sOld, wsOld)\r\n        //          verify(Pairing.G1Point(Proof[4], Proof[5]), // t\r\n        //               Pairing.G1Point(Proof[18], Proof[19]),\r\n        //               z,\r\n        //               t,\r\n        //               0, true) &&                                           //, pcV srsLocal (srsD srsLocal) commitSNew z (sNew, wsNew)\r\n        //         verifySignature &&\r\n        //         Proof[6] == Proof[7] && // c_old == s_old\r\n        //         Proof[8] == Proof[9] && // c_new == s_new\r\n        //         Proof[10] == Proof[11]; // c == s\r\n\r\n        // temporary code for estimating gas cost, the above is correct version\r\n        bool result = verify(D,\r\n                      pi_D,\r\n                      z, \r\n                      d);\r\n        result = verify(R_tilde,\r\n                      pi_R_tilde,\r\n                      z,\r\n                      r_tilde);\r\n        result = verify(R,\r\n                      pi_R1,\r\n                      z,\r\n                      r_1);\r\n        result = verify(R,\r\n                      pi_R2,\r\n                      yz,\r\n                      r_2);\r\n        result = verify(T,\r\n                      pi_T,\r\n                      z,\r\n                      t);\r\n        result = verify(K,\r\n                      pi_K,\r\n                      y,\r\n                      k);\r\n        result = verify(S_x,\r\n                      pi_S_x1,\r\n                      z,\r\n                      s_tilde);\r\n        result = verify(S_x,\r\n                      pi_S_x2,\r\n                      1,\r\n                      s_1_tilde);\r\n        result = verify(S_y,\r\n                      pi_S_y,\r\n                      y,\r\n                      s_2_tilde);\r\n        result = recover(message, sig) == addr; //verifySignature\r\n        result = r_1 == addmod(r_tilde, mulmod(d, z_n, BABYJUB_P), BABYJUB_P);\r\n        result = t == addmod(mulmod(r_1, \r\n                                  addmod(r_2,\r\n                                         s_tilde, BABYJUB_P), BABYJUB_P),\r\n                            (BABYJUB_P - k), BABYJUB_P);\r\n        result = s_1_tilde == s_2_tilde;\r\n        emit verifyResult(result);\r\n        return result;\r\n    }\r\n\r\n    // add improvement for batched commitments of original KZG\r\n    /*\r\n    we check e<g^w[],h^> e<(g^w[])^-z,h> == RHS\r\n     */\r\n    // function verifySonicBatchedOriginKZG(\r\n    //     // uint256[21] memory Proof,\r\n    //     // uint256[2] memory Randoms\r\n    // ) public returns (bool) {\r\n\r\n    //     // simulate calculating kY\r\n    //     // uint256 ky = evalKPoly();\r\n    //     // // // simulate calculating sXY\r\n    //     // uint256 sx = evalXPoly();\r\n    //     // uint256 sy = evalXPoly();\r\n\r\n        \r\n    //     // y^N for halo implementation style\r\n    //     // uint256 y_n = expMod(z, N, BABYJUB_P);\r\n\r\n    //     // t for halo implementation style\r\n    //     // uint256 t = addmod(mulmod(addmod(Proof[6], Proof[9], Pairing.BABYJUB_P), \r\n    //     //                           addmod(addmod(Proof[12], \r\n    //     //                                         Proof[15], Pairing.BABYJUB_P), \r\n    //     //                                  evalS, Pairing.BABYJUB_P), Pairing.BABYJUB_P),\r\n    //     //                     mulmod((BABYJUB_P - evalK), y_n, BABYJUB_P),\r\n    //     //                     BABYJUB_P);\r\n\r\n    //     // uint256 t = addmod(mulmod(addmod(Proof[6], Proof[9], Pairing.BABYJUB_P), \r\n    //     //                           addmod(addmod(Proof[12], \r\n    //     //                                         Proof[15], Pairing.BABYJUB_P), \r\n    //     //                                  evalS, Pairing.BABYJUB_P), Pairing.BABYJUB_P),\r\n    //     //                     (BABYJUB_P - evalK), BABYJUB_P);\r\n\r\n\r\n    //     bool verifySignature = recover(message, sig) == addr;\r\n\r\n    //     // F\r\n    //     Pairing.G1Point[8] memory F = [\r\n    //                                 Pairing.G1Point(Proof[0], Proof[1]),//R0\r\n    //                                 Pairing.G1Point(Proof[2], Proof[3]), // Rj\r\n    //                                 Pairing.G1Point(Proof[4], Proof[5]), //T\r\n    //                                 Pairing.G1Point(Proof[6], Proof[7]), //C\r\n    //                                 Pairing.G1Point(Proof[8], Proof[9]), //Ck\r\n    //                                 Pairing.G1Point(Proof[10], Proof[11]), //S\r\n    //                                 Pairing.G1Point(Proof[12], Proof[13]), //Sold\r\n    //                                 Pairing.G1Point(Proof[14], Proof[15])  //Snew\r\n    //                                 ];\r\n    //     // Z(T / Si)[z] * ^(i-1)\r\n    //     uint256 Z_beta_1 = 1; // i = 1,  etc.\r\n    //     uint256 Z_beta_2 = beta;\r\n    //     uint256 Z_beta_3 = mulmod(Z_beta_2, beta, BABYJUB_P);\r\n    //     uint256 Z_beta_4 = mulmod(Z_beta_3, beta, BABYJUB_P);\r\n    //     uint256 Z_beta_5 = mulmod(Z_beta_4, beta, BABYJUB_P);\r\n    //     uint256 Z_beta_6 = mulmod(Z_beta_5, beta, BABYJUB_P);\r\n    //     uint256 Z_beta_7 = mulmod(Z_beta_6, beta, BABYJUB_P);\r\n    //     uint256 Z_beta_8 = mulmod(Z_beta_7, beta, BABYJUB_P);\r\n\r\n    //     Z_beta_1 = mulmod(Z_beta_1, z_calculation(1), BABYJUB_P);\r\n    //     Z_beta_2 = mulmod(Z_beta_2, z_calculation(2), BABYJUB_P);\r\n    //     Z_beta_3 = mulmod(Z_beta_3, z_calculation(3), BABYJUB_P);\r\n    //     Z_beta_4 = mulmod(Z_beta_4, z_calculation(4), BABYJUB_P);\r\n    //     Z_beta_5 = mulmod(Z_beta_5, z_calculation(5), BABYJUB_P);\r\n    //     Z_beta_6 = mulmod(Z_beta_6, z_calculation(6), BABYJUB_P);\r\n    //     Z_beta_7 = mulmod(Z_beta_7, z_calculation(7), BABYJUB_P);\r\n    //     Z_beta_8 = mulmod(Z_beta_8, z_calculation(8), BABYJUB_P);\r\n\r\n    //     // the prove, g^p[], g^w[]\r\n    //     Pairing.G1Point[2] memory pi = [\r\n    //         G1Gen(),\r\n    //         G1Gen()\r\n    //     ];\r\n    //     // product_result is the first G1 element of the RHS pairing\r\n    //     // first calculate the uppercase Pi product\r\n    //     Pairing.G1Point memory product_result = Pairing.mulScalar(Pairing.plus(D, \r\n    //                                                             Pairing.negate(Pairing.mulScalar(g, \r\n    //                                                                             addmod(gamma1[0], \r\n    //                                                                             mulmod(gamma1[1], z, BABYJUB_P), \r\n    //                                                                             BABYJUB_P)))), Z_beta_1);\r\n    //     product_result = Pairing.plus(product_result, \r\n    //                                 Pairing.mulScalar(Pairing.plus(R_tilde, \r\n    //                                                             Pairing.negate(Pairing.mulScalar(g, \r\n    //                                                                             addmod(gamma2[0], \r\n    //                                                                             mulmod(gamma2[1], z, BABYJUB_P), \r\n    //                                                                             BABYJUB_P)))), Z_beta_2));\r\n    //     product_result = Pairing.plus(product_result, \r\n    //                                 Pairing.mulScalar(Pairing.plus(R, \r\n    //                                                             Pairing.negate(Pairing.mulScalar(g, \r\n    //                                                                             gamma3[0]))), Z_beta_3));\r\n    //     product_result = Pairing.plus(product_result, \r\n    //                                 Pairing.mulScalar(Pairing.plus(T, \r\n    //                                                             Pairing.negate(Pairing.mulScalar(g, \r\n    //                                                                             addmod(addmod(gamma4[0], \r\n    //                                                                             mulmod(gamma4[1], z, BABYJUB_P), \r\n    //                                                                             BABYJUB_P),\r\n    //                                                                             mulmod(gamma4[2], \r\n    //                                                                             mulmod(z, z, \r\n    //                                                                             BABYJUB_P), \r\n    //                                                                             BABYJUB_P),\r\n    //                                                                             BABYJUB_P)\r\n    //                                                                             )))\r\n    //                                                     , Z_beta_4)\r\n    //                                     );\r\n    //     product_result = Pairing.plus(product_result, \r\n    //                                 Pairing.mulScalar(Pairing.plus(K, \r\n    //                                                             Pairing.negate(Pairing.mulScalar(g, \r\n    //                                                                             gamma5[0]))), Z_beta_5));\r\n    //     product_result = Pairing.plus(product_result, \r\n    //                                 Pairing.mulScalar(Pairing.plus(S_x, \r\n    //                                                             Pairing.negate(Pairing.mulScalar(g, \r\n    //                                                                             gamma6[0]))), Z_beta_6));\r\n    //     product_result = Pairing.plus(product_result, \r\n    //                                 Pairing.mulScalar(Pairing.plus(S_y, \r\n    //                                                             Pairing.negate(Pairing.mulScalar(g, \r\n    //                                                                             gamma7[0]))), Z_beta_7));\r\n    //     product_result = Pairing.plus(product_result, \r\n    //                                 Pairing.mulScalar(Pairing.plus(F[7], \r\n    //                                                             Pairing.negate(Pairing.mulScalar(g, \r\n    //                                                                             gamma8[0]))), Z_beta_8));\r\n    //     // then add the first item before the uppercase Pi product\r\n    //     product_result = Pairing.plus(product_result,\r\n    //                                 Pairing.negate(Pairing.plus(pi[0],\r\n    //                                                 Pairing.mulScalar(g,\r\n    //                                                                 z_calculation(9)))));//zT[z]\r\n\r\n    //     // check e<g^w[],h^>e<g^w[]g^-z,h> == RHS, then check others\r\n    //     // bool result = Pairing.pairing_3point(\r\n    //     //     pi[1],\r\n    //     //     SRS_G2_2, // h^, see above\r\n    //     //     Pairing.negate(Pairing.mulScalar(pi[1], z)),\r\n    //     //     SRS_G2_1, // h, see above\r\n    //     //     Pairing.negate(product_result),\r\n    //     //     SRS_G2_1\r\n    //     //     )\r\n    //     //     && verifySignature\r\n    //     //     && Proof[6] == Proof[7] // c_old == s_old\r\n    //     //     && Proof[8] == Proof[9] // c_new == s_new\r\n    //     //     && Proof[10] == Proof[11]; // c == s\r\n\r\n    //     // temporary code for estimating gas cost, the above is correct version\r\n    //     // check e<g^w[],h^>e<(g^w[])^-z,h> == RHS, then check others\r\n    //     bool result = Pairing.pairing_3point(\r\n    //         pi[1], // g^w[]\r\n    //         SRS_G2_2, // h^, see above\r\n    //         Pairing.negate(Pairing.mulScalar(pi[1], z)),\r\n    //         SRS_G2_1, // h, see above\r\n    //         Pairing.negate(product_result),\r\n    //         SRS_G2_1\r\n    //         );\r\n    //     result = verifySignature;\r\n    //     result = Proof[6] == Proof[7]; // c_old == s_old\r\n    //     result = Proof[8] == Proof[9]; // c_new == s_new\r\n    //     result = Proof[10] == Proof[11]; // c == s\r\n    //     emit verifyResult(result);\r\n    //     return result;\r\n    // }\r\n\r\n\r\n    // using batched commitments of sonic version of modified KZG\r\n    function verifySonicBatched(\r\n        // uint256[21] memory Proof,\r\n        // uint256[2] memory Randoms\r\n    ) public returns (bool) {\r\n\r\n        // simulate calculating kY\r\n        // uint256 ky = evalKPoly();\r\n        // // // simulate calculating sXY\r\n        // uint256 sx = evalXPoly();\r\n        // uint256 sy = evalXPoly();\r\n\r\n        \r\n        // y^N for halo implementation style\r\n        // uint256 y_n = expMod(z, N, BABYJUB_P);\r\n\r\n        // t for halo implementation style\r\n        // uint256 t = addmod(mulmod(addmod(Proof[6], Proof[9], Pairing.BABYJUB_P), \r\n        //                           addmod(addmod(Proof[12], \r\n        //                                         Proof[15], Pairing.BABYJUB_P), \r\n        //                                  evalS, Pairing.BABYJUB_P), Pairing.BABYJUB_P),\r\n        //                     mulmod((BABYJUB_P - evalK), y_n, BABYJUB_P),\r\n        //                     BABYJUB_P);\r\n\r\n        // uint256 t = addmod(mulmod(addmod(Proof[6], Proof[9], Pairing.BABYJUB_P), \r\n        //                           addmod(addmod(Proof[12], \r\n        //                                         Proof[15], Pairing.BABYJUB_P), \r\n        //                                  evalS, Pairing.BABYJUB_P), Pairing.BABYJUB_P),\r\n        //                     (BABYJUB_P - evalK), BABYJUB_P);\r\n\r\n        // Z(T / Si)[z] * ^(i-1)\r\n        uint256 Z_beta_1 = 1; // i = 1,  etc.\r\n        uint256 Z_beta_2 = beta;\r\n        uint256 Z_beta_3 = mulmod(Z_beta_2, beta, BABYJUB_P);\r\n        uint256 Z_beta_4 = mulmod(Z_beta_3, beta, BABYJUB_P);\r\n        uint256 Z_beta_5 = mulmod(Z_beta_4, beta, BABYJUB_P);\r\n        uint256 Z_beta_6 = mulmod(Z_beta_5, beta, BABYJUB_P);\r\n        uint256 Z_beta_7 = mulmod(Z_beta_6, beta, BABYJUB_P);\r\n\r\n        Z_beta_1 = mulmod(Z_beta_1, z_calculation(1), BABYJUB_P);\r\n        Z_beta_2 = mulmod(Z_beta_2, z_calculation(2), BABYJUB_P);\r\n        Z_beta_3 = mulmod(Z_beta_3, z_calculation(3), BABYJUB_P);\r\n        Z_beta_4 = mulmod(Z_beta_4, z_calculation(4), BABYJUB_P);\r\n        Z_beta_5 = mulmod(Z_beta_5, z_calculation(5), BABYJUB_P);\r\n        Z_beta_6 = mulmod(Z_beta_6, z_calculation(6), BABYJUB_P);\r\n        Z_beta_7 = mulmod(Z_beta_7, z_calculation(7), BABYJUB_P);\r\n\r\n        // H calculation\r\n        Pairing.G1Point memory H = Pairing.mulScalar(D, Z_beta_1);\r\n        H = Pairing.plus(H, Pairing.mulScalar(R_tilde, Z_beta_2));\r\n        H = Pairing.plus(H, Pairing.mulScalar(R, Z_beta_3));\r\n        H = Pairing.plus(H, Pairing.mulScalar(T, Z_beta_4));\r\n        H = Pairing.plus(H, Pairing.mulScalar(K, Z_beta_5));\r\n        H = Pairing.plus(H, Pairing.mulScalar(S_x, Z_beta_6));\r\n        H = Pairing.plus(H, Pairing.mulScalar(S_y, Z_beta_7));\r\n\r\n        // R calculation, denoted  RR because already have a R for one Fcommitment\r\n        // first calculate the PI product, and to do this first calculate the power of g after product to reduce gas cost\r\n        uint256 power = mulmod(Z_beta_1, BABYJUB_P - gamma1[0], BABYJUB_P);\r\n        power = mulmod(Z_beta_2, BABYJUB_P - gamma2[0], BABYJUB_P);\r\n        power = addmod(power, mulmod(Z_beta_3, BABYJUB_P - addmod(gamma3[0], mulmod(gamma3[1], z, BABYJUB_P), \r\n                                                                BABYJUB_P), BABYJUB_P), BABYJUB_P);\r\n        power = addmod(power, mulmod(Z_beta_4, BABYJUB_P - gamma4[0], BABYJUB_P), BABYJUB_P);\r\n        // power = addmod(power, mulmod(Z_beta_4, BABYJUB_P - addmod(addmod(gamma4[0], \r\n        //                                                                         mulmod(gamma4[1], z, BABYJUB_P), \r\n        //                                                                         BABYJUB_P),\r\n        //                                                                         mulmod(gamma4[2], \r\n        //                                                                         mulmod(z, z, \r\n        //                                                                         BABYJUB_P), \r\n        //                                                         BABYJUB_P),\r\n        //                                                     BABYJUB_P),\r\n        //                             BABYJUB_P), BABYJUB_P);\r\n        power = addmod(power, mulmod(Z_beta_5, BABYJUB_P - gamma5[0], BABYJUB_P), BABYJUB_P);\r\n        power = addmod(power, mulmod(Z_beta_6, BABYJUB_P - addmod(gamma6[0], mulmod(gamma6[1], z, BABYJUB_P), \r\n                                                                BABYJUB_P), BABYJUB_P), BABYJUB_P);\r\n        power = addmod(power, mulmod(Z_beta_7, BABYJUB_P - gamma7[0], BABYJUB_P), BABYJUB_P);\r\n        // calculate the PI product\r\n        Pairing.G1Point memory RR = Pairing.mulScalar(Constants.G1Gen(), power);\r\n\r\n        // then add the first item before the uppercase Pi product\r\n        //g^p[x]zT[z]\r\n        RR = Pairing.plus(RR, Pairing.negate(Pairing.plus(pi_1,\r\n                                                    Pairing.mulScalar(Constants.G1Gen(),\r\n                                                                    z_calculation(9)))));\r\n        //g^zw[x]\r\n        RR = Pairing.plus(RR, Pairing.mulScalar(pi_2, z));\r\n\r\n\r\n        // check the equation, then check others\r\n        // bool result = Pairing.pairing_3point(\r\n        //     H,\r\n        //     SRS_G2_1, // h, see above\r\n        //     R,\r\n        //     Constants.t_hxdmax,\r\n        //     Pairing.negate(pi[1]),\r\n        //     Constants.t_hxdmaxplusone\r\n        //     )\r\n        //     && recover(message, sig) == addr\r\n        //     && Proof[6] == Proof[7] // c_old == s_old\r\n        //     && Proof[8] == Proof[9] // c_new == s_new\r\n        //     && Proof[10] == Proof[11]; // c == s\r\n\r\n        // former code, used for coding reference of above check\r\n        // check e<g^w[],h^>e<(g^w[])^-z,h> == RHS, then check others\r\n        // bool result = Pairing.pairing_3point(\r\n        //     pi[1],\r\n        //     SRS_G2_2, // h^, see above\r\n        //     Pairing.negate(Pairing.mulScalar(pi[1], z)),\r\n        //     SRS_G2_1, // h, see above\r\n        //     Pairing.negate(product_result),\r\n        //     SRS_G2_1\r\n        //     )\r\n        //     && verifySignature\r\n        //     && Proof[6] == Proof[7] // c_old == s_old\r\n        //     && Proof[8] == Proof[9] // c_new == s_new\r\n        //     && Proof[10] == Proof[11]; // c == s\r\n\r\n        // temporary code for estimating gas cost, the above is correct version\r\n        bool result = Pairing.pairing_3point(\r\n            H,\r\n            Constants.SRS_G2_1, // h, see above\r\n            R,\r\n            Constants.t_hxdmax,\r\n            Pairing.negate(pi_2),\r\n            Constants.t_hxdmaxplusone\r\n            );\r\n        result = recover(message, sig) == addr; //verifySignature\r\n        result = r_1 == addmod(r_tilde, mulmod(d, z_n, BABYJUB_P), BABYJUB_P);\r\n        result = t == addmod(mulmod(r_1, \r\n                                  addmod(r_2,\r\n                                         s_tilde, BABYJUB_P), BABYJUB_P),\r\n                            (BABYJUB_P - k), BABYJUB_P);\r\n        result = s_1_tilde == s_2_tilde;\r\n\r\n        emit verifyResult(result);\r\n        return result;\r\n    }\r\n    \r\n\r\n    function z_calculation (uint256 i)\r\n                            internal view returns (uint256){\r\n        \r\n        uint256 result = 1;\r\n        if (i != 1){\r\n            result = mulmod(result, addmod(z, BABYJUB_P - S1[0], BABYJUB_P), BABYJUB_P);\r\n        }\r\n        if (i != 2){\r\n            result = mulmod(result, addmod(z, BABYJUB_P - S2[0], BABYJUB_P), BABYJUB_P);\r\n        }\r\n        if (i != 3){\r\n            result = mulmod(mulmod(result, addmod(z, BABYJUB_P - S3[1], BABYJUB_P), BABYJUB_P)\r\n                            , addmod(z, BABYJUB_P - S3[0], BABYJUB_P), BABYJUB_P);\r\n        }\r\n        if (i != 4){\r\n            result = mulmod(result, addmod(z, BABYJUB_P - S4[0], BABYJUB_P), BABYJUB_P);\r\n            // result = mulmod(mulmod(mulmod(result, addmod(z, BABYJUB_P - S4[2], BABYJUB_P), BABYJUB_P)\r\n            //                 , addmod(z, BABYJUB_P - S4[1], BABYJUB_P), BABYJUB_P)\r\n            //                 , addmod(z, BABYJUB_P - S4[0], BABYJUB_P), BABYJUB_P);\r\n        }\r\n        if (i != 5){\r\n            result = mulmod(result, addmod(z, BABYJUB_P - S5[0], BABYJUB_P), BABYJUB_P);\r\n        }\r\n        if (i != 6){\r\n            result = mulmod(mulmod(result, addmod(z, BABYJUB_P - S6[1], BABYJUB_P), BABYJUB_P)\r\n                            , addmod(z, BABYJUB_P - S6[0], BABYJUB_P), BABYJUB_P);\r\n        }\r\n        if (i != 7){\r\n            result = mulmod(result, addmod(z, BABYJUB_P - S7[0], BABYJUB_P), BABYJUB_P);\r\n        }\r\n        return result;\r\n    }\r\n\r\n    /**\r\n     * @dev Recover signer address from a message by using their signature\r\n     * @param hash bytes32 message, the hash is the signed message. What is recovered is the signer address.\r\n     * @param signature bytes signature, the signature is generated using web3.eth.sign()\r\n     */\r\n    function recover(bytes32 hash, bytes memory signature) internal pure returns (address) {\r\n        bytes32 r;\r\n        bytes32 s;\r\n        uint8 _v;\r\n\r\n        // Check the signature length\r\n        if (signature.length != 65) {\r\n            return (address(0));\r\n        }\r\n\r\n        // Divide the signature in r, s and v variables\r\n        // ecrecover takes the signature parameters, and the only way to get them\r\n        // currently is to use assembly.\r\n        // solium-disable-next-line security/no-inline-assembly\r\n        assembly {\r\n            r := mload(add(signature, 32))\r\n            s := mload(add(signature, 64))\r\n            _v := byte(0, mload(add(signature, 96)))\r\n        }\r\n\r\n        // Version of signature should be 27 or 28, but 0 and 1 are also possible versions\r\n        if (_v < 27) {\r\n            _v += 27;\r\n        }\r\n\r\n        // If the version is correct return the signer address\r\n        if (_v != 27 && _v != 28) {\r\n            return (address(0));\r\n        } else {\r\n            // solium-disable-next-line arg-overflow\r\n            return ecrecover(hash, _v, r, s);\r\n        }\r\n    }\r\n\r\n    /**\r\n    * @dev prefix a bytes32 value with \"\\x19Ethereum Signed Message:\" and hash the result\r\n    */\r\n    function ethMessageHash(string memory rawCommitment) internal pure returns (bytes32) {\r\n        return keccak256(\r\n            abi.encodePacked(\"\\x19Ethereum Signed Message:\\n32\", keccak256(abi.encodePacked(rawCommitment)))\r\n        );\r\n    }\r\n\r\n\r\n    //     /*\r\n    //  * @return The polynominal evaluation of a polynominal with the specified\r\n    //  *         coefficients at the given index.\r\n    //  */\r\n    //  function evalPoly() public view returns (uint256) {\r\n\r\n    //     uint baseOrder = 204;\r\n    //     uint length = 64;\r\n    //     uint256 _index = y;\r\n    //     uint256 m = Constants.BABYJUB_P;\r\n    //     uint256 result = 0;\r\n    //     uint256 powerOfX = 1;\r\n\r\n    //     for (uint256 i = 0; i < length; i ++) {\r\n    //         assembly {\r\n    //             result:= addmod(result, mulmod(powerOfX, i, m), m)\r\n    //             powerOfX := mulmod(powerOfX, i, m)\r\n    //         }\r\n    //     }\r\n    //     uint256 basePower = invMod(expMod(_index, baseOrder, m), m);\r\n    //     result = mulmod(basePower, result, m);\r\n\r\n    //     return result;\r\n    // }\r\n\r\n    /// @dev Modular euclidean inverse of a number (mod p).\r\n    /// @param _x The number\r\n    /// @param _pp The modulus\r\n    /// @return q such that x*q = 1 (mod _pp)\r\n    // function invMod(uint256 _x, uint256 _pp) internal pure returns (uint256) {\r\n    //     require(_x != 0 && _x != _pp && _pp != 0, \"Invalid number\");\r\n    //     uint256 q = 0;\r\n    //     uint256 newT = 1;\r\n    //     uint256 r = _pp;\r\n    //     uint256 t;\r\n    //     while (_x != 0) {\r\n    //     t = r / _x;\r\n    //     (q, newT) = (newT, addmod(q, (_pp - mulmod(t, newT, _pp)), _pp));\r\n    //     (r, _x) = (_x, r - t * _x);\r\n    //     }\r\n\r\n    //     return q;\r\n    // }\r\n\r\n    /// @dev Modular exponentiation, b^e % _pp.\r\n    /// Source: https://github.com/androlo/standard-contracts/blob/master/contracts/src/crypto/ECCMath.sol\r\n    /// @param _base base\r\n    /// @param _exp exponent\r\n    /// @param _pp modulus\r\n    /// @return r such that r = b**e (mod _pp)\r\n    function expMod(uint256 _base, uint256 _exp, uint256 _pp) internal pure returns (uint256) {\r\n        require(_pp!=0, \"Modulus is zero\");\r\n\r\n        if (_base == 0)\r\n        return 0;\r\n        if (_exp == 0)\r\n        return 1;\r\n\r\n        uint256 r = 1;\r\n        uint256 bit = 57896044618658097711785492504343953926634992332820282019728792003956564819968; // 2 ^ 255\r\n        assembly {\r\n        for { } gt(bit, 0) { }{\r\n            // a touch of loop unrolling for 20% efficiency gain\r\n            r := mulmod(mulmod(r, r, _pp), exp(_base, iszero(iszero(and(_exp, bit)))), _pp)\r\n            r := mulmod(mulmod(r, r, _pp), exp(_base, iszero(iszero(and(_exp, div(bit, 2))))), _pp)\r\n            r := mulmod(mulmod(r, r, _pp), exp(_base, iszero(iszero(and(_exp, div(bit, 4))))), _pp)\r\n            r := mulmod(mulmod(r, r, _pp), exp(_base, iszero(iszero(and(_exp, div(bit, 8))))), _pp)\r\n            bit := div(bit, 16)\r\n        }\r\n        }\r\n\r\n        return r;\r\n    }\r\n    \r\n\r\n}",
  "sourcePath": "D:\\homework\\sonic\\src\\verifier\\contracts\\Verifier.sol",
  "compiler": {
    "name": "solc",
    "version": "0.8.13+commit.abaa5c0e.Emscripten.clang"
  },
  "schemaVersion": "3.4.8",
  "updatedAt": "2023-02-23T00:59:23.355Z",
  "networkType": "ethereum",
  "devdoc": {
    "kind": "dev",
    "methods": {},
    "version": 1
  },
  "userdoc": {
    "kind": "user",
    "methods": {},
    "version": 1
  }
}