{
  "contractName": "Verifier",
  "abi": [
    {
      "anonymous": false,
      "inputs": [
        {
          "indexed": false,
          "internalType": "bool",
          "name": "result",
          "type": "bool"
        }
      ],
      "name": "verifyResult",
      "type": "event"
    },
    {
      "inputs": [
        {
          "components": [
            {
              "internalType": "uint256",
              "name": "X",
              "type": "uint256"
            },
            {
              "internalType": "uint256",
              "name": "Y",
              "type": "uint256"
            }
          ],
          "internalType": "struct Pairing.G1Point",
          "name": "_commitment",
          "type": "tuple"
        },
        {
          "components": [
            {
              "internalType": "uint256",
              "name": "X",
              "type": "uint256"
            },
            {
              "internalType": "uint256",
              "name": "Y",
              "type": "uint256"
            }
          ],
          "internalType": "struct Pairing.G1Point",
          "name": "_proof",
          "type": "tuple"
        },
        {
          "internalType": "uint256",
          "name": "_index",
          "type": "uint256"
        },
        {
          "internalType": "uint256",
          "name": "_value",
          "type": "uint256"
        }
      ],
      "name": "verify",
      "outputs": [
        {
          "internalType": "bool",
          "name": "",
          "type": "bool"
        }
      ],
      "stateMutability": "view",
      "type": "function",
      "constant": true
    },
    {
      "inputs": [],
      "name": "verifySonic",
      "outputs": [
        {
          "internalType": "bool",
          "name": "",
          "type": "bool"
        }
      ],
      "stateMutability": "nonpayable",
      "type": "function"
    },
    {
      "inputs": [],
      "name": "evalPoly",
      "outputs": [
        {
          "internalType": "uint256",
          "name": "",
          "type": "uint256"
        }
      ],
      "stateMutability": "view",
      "type": "function",
      "constant": true
    }
  ],
  "bytecode": "0x608060405260405180604001604052807f198e9393920d483a7260bfb731fb5d25f1aa493335a9e71297e485b7aef312c281526020017f21a808dad5c50720fb7294745cf4c87812ce0ea76baa7df4e922615d1388f25a81525060009060026200006b9291906200114e565b5060405180604001604052807f1800deef121f1e76426a00665e5c4479674322d4f75edadd46debd5cd992f6ed81526020017f04c5e74c85a87f008a2feb4b5c8a1e7f9ba9d8eb40eb02e70139c89fb1c505a98152506001906002620000d39291906200114e565b5060405180604001604052807f090689d0585ff075ec9e99ad690c3395bc4b313370b38ef355acdadcd122975b81526020017f204b66d8e1fadc307c35187a6b813be0b46ba1cd720cd1c4ee5f68d13036b4ba81525060029060026200013b9291906200114e565b5060405180604001604052807f12c85ea5db8c6deb4aab71808dcb408fe3d1e7690c43d37b4ce6cc0166fa7daa81526020017f2d58022915fc6bc90e036e858fbc98055084ac7aff98ccceb0e3fde64bc1a0848152506003906002620001a39291906200114e565b5060405180608001604052807f1a597e49c263d6a226f25fe1e806caac7f15f85b763044e7d3043ba5992dd8d581526020017f228b515a17f28b89920873207477f8c7fc05582debaf3184febf1cfdedc5ce8881526020017f18e9db03472e0863ddf2838cf8880b11083593229561aaf9a11c760bb97a64fa81526020017f0566eed2b6bb584ca75fbe0ca9ffc98eb586c25812617df7e01a2b6d8270f0bf815250600490600462000257929190620011a0565b5060405180608001604052807f208f992ecbeeef3fa5b1c3505c588c7a872e3987797a14052b6f34411c9ea0ae81526020017f12bb1156a9f6b360fcb2614e15d8a3ff07f2c699dc69ca830b20d2df91fe9cd381526020017f15904dc85f8ddf338fe3151d3c146b4083e99dd3f26d87d33dd5d20eb64284a381526020017f20101834550a7d15aa7a685d3f0095b689822cb568dfc9690e0cc58e9826d8fb81525060059060046200030b929190620011a0565b5060405180608001604052807f024248dcf25ea502fb805bcab808906eb944154792151d643ad7b4b0eca6d91381526020017f2b15dc62a5c9e36597914ddbbfde48806a8eabe45c8d3cccf9578ad08e058f9281526020017f20ab132d3e7dd0600d89b397a3bf88e3900434c826b458028981278a619d809481526020017f0a66c012d8ebf11c9a9fc4ccfeeab0ace62b1c1fa744f6c6173f1994e9241db78152506006906004620003bf929190620011a0565b5060405180608001604052807f14c35af32416c899af0b827ef0f1a686393d629317706d8c143cdfd5717c4c5e81526020017f02a4fd764f52470e2fcfff325fb9692f55d6b8b077eefeaa04e07152b4d1fa9481526020017f28505103380e230ea76fa52dc17b1269cfa9076761a1bb971c5b90767de58db081526020017f19ea09d089c848b2dee00082395883e0b405de1da65d4b4aeebd50c84e47349d815250600790600462000473929190620011a0565b50604051806040016040528060405180604001604052807f185c3f6fe300ae4825fbc17232a7ef067d895c6838b58df5d3821b3c5f47a38081526020017f0ec8eed74d6dfed1e4bbac422898cbf6334bb2ea304a443a0b388c8a513b98ea815250815260200160405180604001604052807f2ce0b9172a655debea69f18829f2b0a98ec43a6ce296f603371237011936328181526020017f113e4f1953b68002611afddebc49dc2876e7a4e246061eec0f05ebc6595ff13781525081525060086000820151816000019060026200054c929190620011f2565b5060208201518160020190600262000566929190620011f2565b505050604051806040016040528060405180604001604052807f11a27fdb89b46af22a89049c391fada5cb5ce6f4c9df8fe5ebae5d422b0bcddf81526020017f1ebadb21506ba2b40566be5bdbfe1ead7400477fc516e1ded4461c6759c221f5815250815260200160405180604001604052807f2d204255b7a4116982ce5bcd3bcc3639e3cc82b273a8ffbf404370c38ce5db3f81526020017f18b0e4266a167129aaee0af3b9ab5a3b4d2bcd690de7d94312c23b494f9fd3bb815250815250600c60008201518160000190600262000641929190620011f2565b506020820151816002019060026200065b929190620011f2565b505050604051806040016040528060405180604001604052807f198e9393920d483a7260bfb731fb5d25f1aa493335a9e71297e485b7aef312c281526020017f1800deef121f1e76426a00665e5c4479674322d4f75edadd46debd5cd992f6ed815250815260200160405180604001604052807f090689d0585ff075ec9e99ad690c3395bc4b313370b38ef355acdadcd122975b81526020017f12c85ea5db8c6deb4aab71808dcb408fe3d1e7690c43d37b4ce6cc0166fa7daa815250815250601060008201518160000190600262000736929190620011f2565b5060208201518160020190600262000750929190620011f2565b505050604051806102a001604052807f2d2e305d3ab2dc6e0081ffcf4a701f924a1a7296cdc32046c10c0b6f992387b281526020017f10d4d3cca369c48670346ef36c6739e885bb11b52038a89c706aacfb7d72d78981526020017f2e35395f5838af48130dca441dda40ea378236a7259002822b87101d02189cf981526020017f259e64ee9a51992b6a66d97b27e9071b120bd0677b1e58f9373725493d0dfc3581526020017ef575de1f064343e871771cb242eaaf6812e4568c2bb7e6673e876c7464050181526020017f16d136c3465f30dfece26e1c3f94d1b9f6b90caa57245be3440ee15730c89cab81526020017f0cea2e280aefedbce8fd0e4abaf7e4575dc8fe4a4268a61d8dd063507fc5ecfb81526020017f0b19cca2316e1f6d3490971e1707cf7f8a8542f1ebb784b0f95ae933e191167081526020017f2dedb4628bf08f798ce6d93603b6ed8cac8942ae15ac5468e21b057a6001910a81526020017f213c7c9a650878edd5e1c73acd8868f2b83acff59c7fe0708c4006b8fe24b2df81526020017f1e812a5bf519614265594c3c12f2c881d46929dbaeabe2353ecd4288b7ab000d81526020017ec4b2d3c0dadfd5209c926bf4f936931a6d2c04fa9608cb278d855dbd3f38a981526020017f1f492c8edd37499078a6576275a4f46fe77a79ae3034b524e22eae2459c8a7d281526020017f05df1f21eb91f54ce9ebc45963392c05646ab94d5285f23f62d004e9742caa4181526020017f2baa1788aecf01e0f174e1dec4e4a1a6bb12e04f5a664c73110341089fa4a78581526020017f293d12d2ddee8106ee524edceb5b09802836c0009574f2a42db542c83d1612a981526020017f2a84b96b69dba240b21032b810c85532ac40b61d6b890cc3757309d83d0703ae81526020017f1a49d50f46a39f0fde8d3e1d95771d29bbb9eb7c9baab30cfb7867a50cd00d2681526020017f2be1f7e20177ef75851870d314a7fff4c31f0a9590dcadfa7ad98f63d01bffe681526020017f0fa336d3c59c626772a0d93ee1d4144b21e0fea2b000cd4fa60c03f69456025c81526020017f18a2993be8e03e3ec58688e40a0997a30ae6b413ab6156da93218e1ba39fee64815250601490601562000a8b92919062001237565b50604051806040016040528060405180604001604052806000808154811062000ab95762000ab862001371565b5b90600052602060002001548152602001600160008154811062000ae15762000ae062001371565b5b906000526020600020015481525081526020016040518060400160405280600260008154811062000b175762000b1662001371565b5b90600052602060002001548152602001600360008154811062000b3f5762000b3e62001371565b5b9060005260206000200154815250815250602960008201518160000190600262000b6b929190620011f2565b5060208201518160020190600262000b85929190620011f2565b50505060405180604001604052806040518060400160405280600060018154811062000bb65762000bb562001371565b5b906000526020600020015481526020016001808154811062000bdd5762000bdc62001371565b5b906000526020600020015481525081526020016040518060400160405280600260018154811062000c135762000c1262001371565b5b90600052602060002001548152602001600360018154811062000c3b5762000c3a62001371565b5b9060005260206000200154815250815250602d60008201518160000190600262000c67929190620011f2565b5060208201518160020190600262000c81929190620011f2565b50505060405180604001604052807f2f376e28777cfe34cf077eba864c462fd6efbfe4d3f6af17768ef2ed4f829ddd81526020017f2f0ed729a52c3cf5d51e5e6d8e737f79e5d99150f7b9b63f3dd38704f9d8ef26815250603190600262000ceb929190620011f2565b50610bb26033557f19a48669ccf72c593144962560f593b667daa2052d1cdcc2500bb3b003c073c96034556014806015811062000d2d5762000d2c62001371565b5b01546035556040518060a001604052807f0abcbc513a4f12ef3d24aedcb8005305a64e9914941d63de78e83c7ce9559cb681526020017f29cb2b0a977afdb5e3c2fead88d2b26d1b699c1b7a6693262c371d3263f232bc81526020017f18a2993be8e03e3ec58688e40a0997a30ae6b413ab6156da93218e1ba39fee6481526020017f2f3fabffbd2bca7bc61901b09b4f45c78a3748a2e40ced61b93883605553ba4c81526020017f06332cd70541f1f5958e148a641305cb34193b8a595c46613dc0fff11c226ebe815250603690600562000e0b9291906200127c565b506040518060a001604052807f173fe27a7f0c60540d8d600c5850189dd4bb8d7f3c007a385606cd2c6181554d81526020017f08f2c08c988b82b1e72491c92c1888d988b28dbdf5969bca17d439211e0e491781526020017f07d1bdb66bfe5e8ea65931d35586ff1c40ce91a19e82bf032ce19b1ef5f0597181526020017f1f7e97b1ecc7c35f2e9ee3393ea5d101018c8ab489dc82d6678931cd13a0656481526020017f0aa1ce7a4ee86b4d125985c4fbef9eb81ff6397e9ee5b638cd6c5f7f3f1edc8f815250603b90600562000ee59291906200127c565b5060405180604001604052807f069c989f95c67f2eadad54192ee90365dfd843dd18cd104449c2cd0f6135a00d81526020017f1d30712bd9824a34faf8681c2f97adc1305a2faf1b39d4edf30d23aa5d73e27181525060406000820151816000015560208201518160010155505060405180604001604052807f2cfff7d01b631c28468be5bf2d727199af5fad36b826df7816f54952caf49c3281526020017f1070005b7818ade38c833c325a22173c6abf1df16c09a6634c989af7701ecfe28152506042600082015181600001556020820151816001015550507f121f60ce38117f295e9818dfcb4dc742f01502a468e608ef94852d629c400ff16044557f2877d2ce379fc3bf527374243a7169b5101750073677141bca5b7ea0248e81db6045557f1139f290e1b15f50b86c3fa6c4961c7e69c7b36bf05d9dc9791958e93c06082e604655620010566040518060c00160405280609a815260200162003a67609a9139620010f460201b60201c565b60475560405180608001604052806041815260200162003b0160419139604890805190602001906200108a929190620012c1565b5073e448992fdeaf94784bbd8f432d781c061d907985604960006101000a81548173ffffffffffffffffffffffffffffffffffffffff021916908373ffffffffffffffffffffffffffffffffffffffff160217905550348015620010ed57600080fd5b5062001549565b60008160405160200162001109919062001423565b60405160208183030381529060405280519060200120604051602001620011319190620014bb565b604051602081830303815290604052805190602001209050919050565b8280548282559060005260206000209081019282156200118d579160200282015b828111156200118c5782518255916020019190600101906200116f565b5b5090506200119c919062001352565b5090565b828054828255906000526020600020908101928215620011df579160200282015b82811115620011de578251825591602001919060010190620011c1565b5b509050620011ee919062001352565b5090565b826002810192821562001224579160200282015b828111156200122357825182559160200191906001019062001206565b5b50905062001233919062001352565b5090565b826015810192821562001269579160200282015b82811115620012685782518255916020019190600101906200124b565b5b50905062001278919062001352565b5090565b8260058101928215620012ae579160200282015b82811115620012ad57825182559160200191906001019062001290565b5b509050620012bd919062001352565b5090565b828054620012cf9062001514565b90600052602060002090601f016020900481019282620012f357600085556200133f565b82601f106200130e57805160ff19168380011785556200133f565b828001600101855582156200133f579182015b828111156200133e57825182559160200191906001019062001321565b5b5090506200134e919062001352565b5090565b5b808211156200136d57600081600090555060010162001353565b5090565b7f4e487b7100000000000000000000000000000000000000000000000000000000600052603260045260246000fd5b600081519050919050565b600081905092915050565b60005b83811015620013d6578082015181840152602081019050620013b9565b83811115620013e6576000848401525b50505050565b6000620013f982620013a0565b620014058185620013ab565b935062001417818560208601620013b6565b80840191505092915050565b6000620014318284620013ec565b915081905092915050565b7f19457468657265756d205369676e6564204d6573736167653a0a333200000000600082015250565b600062001474601c83620013ab565b915062001481826200143c565b601c82019050919050565b6000819050919050565b6000819050919050565b620014b5620014af826200148c565b62001496565b82525050565b6000620014c88262001465565b9150620014d68284620014a0565b60208201915081905092915050565b7f4e487b7100000000000000000000000000000000000000000000000000000000600052602260045260246000fd5b600060028204905060018216806200152d57607f821691505b602082108103620015435762001542620014e5565b5b50919050565b61250e80620015596000396000f3fe608060405234801561001057600080fd5b50600436106100415760003560e01c8063903ae890146100465780639c22c95114610076578063ffef4ff414610094575b600080fd5b610060600480360381019061005b9190611b4c565b6100b2565b60405161006d9190611bce565b60405180910390f35b61007e61049f565b60405161008b9190611bce565b60405180910390f35b61009c611022565b6040516100a99190611bf8565b60405180910390f35b60007f30644e72e131a029b85045b68181585d2833e84879b9709143e1f593f000000185600001511061011a576040517f08c379a000000000000000000000000000000000000000000000000000000000815260040161011190611c96565b60405180910390fd5b7f30644e72e131a029b85045b68181585d2833e84879b9709143e1f593f0000001856020015110610180576040517f08c379a000000000000000000000000000000000000000000000000000000000815260040161017790611d28565b60405180910390fd5b7f30644e72e131a029b85045b68181585d2833e84879b9709143e1f593f00000018460000151106101e6576040517f08c379a00000000000000000000000000000000000000000000000000000000081526004016101dd90611dba565b60405180910390fd5b7f30644e72e131a029b85045b68181585d2833e84879b9709143e1f593f000000184602001511061024c576040517f08c379a000000000000000000000000000000000000000000000000000000000815260040161024390611e4c565b60405180910390fd5b7f30644e72e131a029b85045b68181585d2833e84879b9709143e1f593f000000183106102ae576040517f08c379a00000000000000000000000000000000000000000000000000000000081526004016102a590611ede565b60405180910390fd5b7f30644e72e131a029b85045b68181585d2833e84879b9709143e1f593f00000018210610310576040517f08c379a000000000000000000000000000000000000000000000000000000000815260040161030790611f70565b60405180910390fd5b60006103348661032f61032a6103246110dd565b87611101565b6111d9565b611297565b90506000610341866111d9565b9050600061034f8787611101565b905061049261035e8285611297565b6029604051806040016040529081600082016002806020026040519081016040528092919082600280156103a7576020028201915b815481526020019060010190808311610393575b50505050508152602001600282016002806020026040519081016040528092919082600280156103ec576020028201915b8154815260200190600101908083116103d8575b50505050508152505084602d6040518060400160405290816000820160028060200260405190810160405280929190826002801561043f576020028201915b81548152602001906001019080831161042b575b5050505050815260200160028201600280602002604051908101604052809291908260028015610484576020028201915b815481526020019060010190808311610470575b505050505081525050611395565b9350505050949350505050565b6000807f30644e72e131a029b85045b68181585d2833e84879b9709143e1f593f0000001806104d1576104d0611f90565b5b60316001600281106104e6576104e5611fbf565b5b015460316000600281106104fd576104fc611fbf565b5b015409905060007f30644e72e131a029b85045b68181585d2833e84879b9709143e1f593f00000018061053357610532611f90565b5b6034547f30644e72e131a029b85045b68181585d2833e84879b9709143e1f593f0000001610561919061201d565b7f30644e72e131a029b85045b68181585d2833e84879b9709143e1f593f0000001806105905761058f611f90565b5b7f30644e72e131a029b85045b68181585d2833e84879b9709143e1f593f0000001806105bf576105be611f90565b5b6035547f30644e72e131a029b85045b68181585d2833e84879b9709143e1f593f0000001806105f1576105f0611f90565b5b6014600f6015811061060657610605611fbf565b5b01546014600c6015811061061d5761061c611fbf565b5b015408087f30644e72e131a029b85045b68181585d2833e84879b9709143e1f593f0000001806106505761064f611f90565b5b601460096015811061066557610664611fbf565b5b0154601460066015811061067c5761067b611fbf565b5b015408090890506000604960009054906101000a900473ffffffffffffffffffffffffffffffffffffffff1673ffffffffffffffffffffffffffffffffffffffff16610754604754604880546106d190612080565b80601f01602080910402602001604051908101604052809291908181526020018280546106fd90612080565b801561074a5780601f1061071f5761010080835404028352916020019161074a565b820191906000526020600020905b81548152906001019060200180831161072d57829003601f168201915b50505050506116ef565b73ffffffffffffffffffffffffffffffffffffffff1614905060006108276040518060400160405280601460006015811061079257610791611fbf565b5b0154815260200160146001601581106107ae576107ad611fbf565b5b0154815250604051806040016040528060146007601581106107d3576107d2611fbf565b5b0154815260200160146008601581106107ef576107ee611fbf565b5b0154815250603160016002811061080957610808611fbf565b5b015460146006601581106108205761081f611fbf565b5b01546100b2565b90506108cb6040518060400160405280601460006015811061084c5761084b611fbf565b5b01548152602001601460016015811061086857610867611fbf565b5b015481525060405180604001604052806014600d6015811061088d5761088c611fbf565b5b015481526020016014600e601581106108a9576108a8611fbf565b5b0154815250866014600c601581106108c4576108c3611fbf565b5b01546100b2565b9050610985604051806040016040528060146002601581106108f0576108ef611fbf565b5b01548152602001601460036015811061090c5761090b611fbf565b5b015481525060405180604001604052806014600a6015811061093157610930611fbf565b5b015481526020016014600b6015811061094d5761094c611fbf565b5b0154815250603160016002811061096757610966611fbf565b5b0154601460096015811061097e5761097d611fbf565b5b01546100b2565b9050610a29604051806040016040528060146002601581106109aa576109a9611fbf565b5b0154815260200160146003601581106109c6576109c5611fbf565b5b0154815250604051806040016040528060146010601581106109eb576109ea611fbf565b5b015481526020016014601160158110610a0757610a06611fbf565b5b0154815250866014600f60158110610a2257610a21611fbf565b5b01546100b2565b9050610acd60405180604001604052806014600460158110610a4e57610a4d611fbf565b5b015481526020016014600560158110610a6a57610a69611fbf565b5b015481525060405180604001604052806014601260158110610a8f57610a8e611fbf565b5b015481526020016014601360158110610aab57610aaa611fbf565b5b01548152506031600160028110610ac557610ac4611fbf565b5b0154866100b2565b9050610b7160405180604001604052806014600460158110610af257610af1611fbf565b5b015481526020016014600560158110610b0e57610b0d611fbf565b5b015481525060405180604001604052806014601260158110610b3357610b32611fbf565b5b015481526020016014601360158110610b4f57610b4e611fbf565b5b01548152506031600160028110610b6957610b68611fbf565b5b0154866100b2565b9050610c1560405180604001604052806014600460158110610b9657610b95611fbf565b5b015481526020016014600560158110610bb257610bb1611fbf565b5b015481525060405180604001604052806014601260158110610bd757610bd6611fbf565b5b015481526020016014601360158110610bf357610bf2611fbf565b5b01548152506031600160028110610c0d57610c0c611fbf565b5b0154866100b2565b9050610cb960405180604001604052806014600460158110610c3a57610c39611fbf565b5b015481526020016014600560158110610c5657610c55611fbf565b5b015481525060405180604001604052806014601260158110610c7b57610c7a611fbf565b5b015481526020016014601360158110610c9757610c96611fbf565b5b01548152506031600160028110610cb157610cb0611fbf565b5b0154866100b2565b9050610d5d60405180604001604052806014600460158110610cde57610cdd611fbf565b5b015481526020016014600560158110610cfa57610cf9611fbf565b5b015481525060405180604001604052806014601260158110610d1f57610d1e611fbf565b5b015481526020016014601360158110610d3b57610d3a611fbf565b5b01548152506031600160028110610d5557610d54611fbf565b5b0154866100b2565b9050610e0160405180604001604052806014600460158110610d8257610d81611fbf565b5b015481526020016014600560158110610d9e57610d9d611fbf565b5b015481525060405180604001604052806014601260158110610dc357610dc2611fbf565b5b015481526020016014601360158110610ddf57610dde611fbf565b5b01548152506031600160028110610df957610df8611fbf565b5b0154866100b2565b9050610ea560405180604001604052806014600460158110610e2657610e25611fbf565b5b015481526020016014600560158110610e4257610e41611fbf565b5b015481525060405180604001604052806014601260158110610e6757610e66611fbf565b5b015481526020016014601360158110610e8357610e82611fbf565b5b01548152506031600160028110610e9d57610e9c611fbf565b5b0154866100b2565b9050610f4960405180604001604052806014600460158110610eca57610ec9611fbf565b5b015481526020016014600560158110610ee657610ee5611fbf565b5b015481525060405180604001604052806014601260158110610f0b57610f0a611fbf565b5b015481526020016014601360158110610f2757610f26611fbf565b5b01548152506031600160028110610f4157610f40611fbf565b5b0154866100b2565b90508190506014600760158110610f6357610f62611fbf565b5b01546014600660158110610f7a57610f79611fbf565b5b01541490506014600960158110610f9457610f93611fbf565b5b01546014600860158110610fab57610faa611fbf565b5b01541490506014600b60158110610fc557610fc4611fbf565b5b01546014600a60158110610fdc57610fdb611fbf565b5b01541490507f9ebf19a79884326bf6ddfcf4bd501eb6a52b40414ecd5d8a70514f606810801e816040516110109190611bce565b60405180910390a18094505050505090565b60008060cc90506000604090506000603160006002811061104657611045611fbf565b5b0154905060007f30644e72e131a029b85045b68181585d2833e84879b9709143e1f593f000000190506000806001905060005b858110156110a357838482840984089250838183099150808061109b906120b1565b915050611079565b5060006110ba6110b48689876117c2565b856118ba565b905083806110cb576110ca611f90565b5b83820992508297505050505050505090565b6110e56119a6565b6040518060400160405280600181526020016002815250905090565b6111096119a6565b6111116119c0565b83600001518160006003811061112a57611129611fbf565b5b60200201818152505083602001518160016003811061114c5761114b611fbf565b5b602002018181525050828160026003811061116a57611169611fbf565b5b602002018181525050600060608360808460076107d05a03fa9050806000810361119057fe5b50806111d1576040517f08c379a00000000000000000000000000000000000000000000000000000000081526004016111c890612145565b60405180910390fd5b505092915050565b6111e16119a6565b600082600001511480156111f9575060008260200151145b1561121c5760405180604001604052806000815260200160008152509050611292565b6040518060400160405280836000015181526020017f30644e72e131a029b85045b68181585d97816a916871ca8d3c208c16d87cfd4784602001516112619190612165565b7f30644e72e131a029b85045b68181585d97816a916871ca8d3c208c16d87cfd4761128c919061201d565b81525090505b919050565b61129f6119a6565b6112a76119e2565b8360000151816000600481106112c0576112bf611fbf565b5b6020020181815250508360200151816001600481106112e2576112e1611fbf565b5b60200201818152505082600001518160026004811061130457611303611fbf565b5b60200201818152505082602001518160036004811061132657611325611fbf565b5b602002018181525050600060608360c08460066107d05a03fa9050806000810361134c57fe5b508061138d576040517f08c379a0000000000000000000000000000000000000000000000000000000008152600401611384906121e2565b60405180910390fd5b505092915050565b6000806040518060400160405280878152602001858152509050600060405180604001604052808781526020018581525090506000600c905060008167ffffffffffffffff8111156113ea576113e9611a4b565b5b6040519080825280602002602001820160405280156114185781602001602082028036833780820191505090505b50905060005b60028110156116565760006006826114369190612202565b905085826002811061144b5761144a611fbf565b5b60200201516000015183600083611462919061225c565b8151811061147357611472611fbf565b5b60200260200101818152505085826002811061149257611491611fbf565b5b602002015160200151836001836114a9919061225c565b815181106114ba576114b9611fbf565b5b6020026020010181815250508482600281106114d9576114d8611fbf565b5b6020020151600001516000600281106114f5576114f4611fbf565b5b602002015183600283611508919061225c565b8151811061151957611518611fbf565b5b60200260200101818152505084826002811061153857611537611fbf565b5b60200201516000015160016002811061155457611553611fbf565b5b602002015183600383611567919061225c565b8151811061157857611577611fbf565b5b60200260200101818152505084826002811061159757611596611fbf565b5b6020020151602001516000600281106115b3576115b2611fbf565b5b6020020151836004836115c6919061225c565b815181106115d7576115d6611fbf565b5b6020026020010181815250508482600281106115f6576115f5611fbf565b5b60200201516020015160016002811061161257611611611fbf565b5b602002015183600583611625919061225c565b8151811061163657611635611fbf565b5b60200260200101818152505050808061164e906120b1565b91505061141e565b5061165f611a04565b6000602082602086026020860160086107d05a03fa9050806000810361168157fe5b50806116c2576040517f08c379a00000000000000000000000000000000000000000000000000000000081526004016116b9906122fe565b60405180910390fd5b6000826000600181106116d8576116d7611fbf565b5b602002015114159650505050505050949350505050565b600080600080604185511461170a57600093505050506117bc565b6020850151925060408501519150606085015160001a9050601b8160ff16101561173e57601b8161173b919061232b565b90505b601b8160ff16141580156117565750601c8160ff1614155b1561176757600093505050506117bc565b6001868285856040516000815260200160405260405161178a949392919061238a565b6020604051602081039080840390855afa1580156117ac573d6000803e3d6000fd5b5050506020604051035193505050505b92915050565b6000808203611806576040517f08c379a00000000000000000000000000000000000000000000000000000000081526004016117fd9061241b565b60405180910390fd5b6000840361181757600090506118b3565b6000830361182857600190506118b3565b60006001905060007f800000000000000000000000000000000000000000000000000000000000000090505b60008111156118ad57838186161515870a85848509099150836002820486161515870a85848509099150836004820486161515870a85848509099150836008820486161515870a85848509099150601081049050611854565b81925050505b9392505050565b60008083141580156118cc5750818314155b80156118d9575060008214155b611918576040517f08c379a000000000000000000000000000000000000000000000000000000000815260040161190f90612487565b60405180910390fd5b60008060019050600084905060005b6000871461199957868261193b91906124a7565b905082868061194d5761194c611f90565b5b878061195c5761195b611f90565b5b8584098861196a919061201d565b860880945081955050508687826119819190612202565b8361198c919061201d565b8098508193505050611927565b8394505050505092915050565b604051806040016040528060008152602001600081525090565b6040518060600160405280600390602082028036833780820191505090505090565b6040518060800160405280600490602082028036833780820191505090505090565b6040518060200160405280600190602082028036833780820191505090505090565b6000604051905090565b600080fd5b600080fd5b6000601f19601f8301169050919050565b7f4e487b7100000000000000000000000000000000000000000000000000000000600052604160045260246000fd5b611a8382611a3a565b810181811067ffffffffffffffff82111715611aa257611aa1611a4b565b5b80604052505050565b6000611ab5611a26565b9050611ac18282611a7a565b919050565b6000819050919050565b611ad981611ac6565b8114611ae457600080fd5b50565b600081359050611af681611ad0565b92915050565b600060408284031215611b1257611b11611a35565b5b611b1c6040611aab565b90506000611b2c84828501611ae7565b6000830152506020611b4084828501611ae7565b60208301525092915050565b60008060008060c08587031215611b6657611b65611a30565b5b6000611b7487828801611afc565b9450506040611b8587828801611afc565b9350506080611b9687828801611ae7565b92505060a0611ba787828801611ae7565b91505092959194509250565b60008115159050919050565b611bc881611bb3565b82525050565b6000602082019050611be36000830184611bbf565b92915050565b611bf281611ac6565b82525050565b6000602082019050611c0d6000830184611be9565b92915050565b600082825260208201905092915050565b7f56657269666965722e7665726966794b5a473a205f636f6d6d69746d656e742e60008201527f58206973206f7574206f662072616e6765000000000000000000000000000000602082015250565b6000611c80603183611c13565b9150611c8b82611c24565b604082019050919050565b60006020820190508181036000830152611caf81611c73565b9050919050565b7f56657269666965722e7665726966794b5a473a205f636f6d6d69746d656e742e60008201527f59206973206f7574206f662072616e6765000000000000000000000000000000602082015250565b6000611d12603183611c13565b9150611d1d82611cb6565b604082019050919050565b60006020820190508181036000830152611d4181611d05565b9050919050565b7f56657269666965722e7665726966794b5a473a205f70726f6f662e582069732060008201527f6f7574206f662072616e67650000000000000000000000000000000000000000602082015250565b6000611da4602c83611c13565b9150611daf82611d48565b604082019050919050565b60006020820190508181036000830152611dd381611d97565b9050919050565b7f56657269666965722e7665726966794b5a473a205f70726f6f662e592069732060008201527f6f7574206f662072616e67650000000000000000000000000000000000000000602082015250565b6000611e36602c83611c13565b9150611e4182611dda565b604082019050919050565b60006020820190508181036000830152611e6581611e29565b9050919050565b7f56657269666965722e7665726966794b5a473a205f696e646578206973206f7560008201527f74206f662072616e676500000000000000000000000000000000000000000000602082015250565b6000611ec8602a83611c13565b9150611ed382611e6c565b604082019050919050565b60006020820190508181036000830152611ef781611ebb565b9050919050565b7f56657269666965722e7665726966794b5a473a205f76616c7565206973206f7560008201527f74206f662072616e676500000000000000000000000000000000000000000000602082015250565b6000611f5a602a83611c13565b9150611f6582611efe565b604082019050919050565b60006020820190508181036000830152611f8981611f4d565b9050919050565b7f4e487b7100000000000000000000000000000000000000000000000000000000600052601260045260246000fd5b7f4e487b7100000000000000000000000000000000000000000000000000000000600052603260045260246000fd5b7f4e487b7100000000000000000000000000000000000000000000000000000000600052601160045260246000fd5b600061202882611ac6565b915061203383611ac6565b92508282101561204657612045611fee565b5b828203905092915050565b7f4e487b7100000000000000000000000000000000000000000000000000000000600052602260045260246000fd5b6000600282049050600182168061209857607f821691505b6020821081036120ab576120aa612051565b5b50919050565b60006120bc82611ac6565b91507fffffffffffffffffffffffffffffffffffffffffffffffffffffffffffffffff82036120ee576120ed611fee565b5b600182019050919050565b7f70616972696e672d6d756c2d6661696c65640000000000000000000000000000600082015250565b600061212f601283611c13565b915061213a826120f9565b602082019050919050565b6000602082019050818103600083015261215e81612122565b9050919050565b600061217082611ac6565b915061217b83611ac6565b92508261218b5761218a611f90565b5b828206905092915050565b7f70616972696e672d6164642d6661696c65640000000000000000000000000000600082015250565b60006121cc601283611c13565b91506121d782612196565b602082019050919050565b600060208201905081810360008301526121fb816121bf565b9050919050565b600061220d82611ac6565b915061221883611ac6565b9250817fffffffffffffffffffffffffffffffffffffffffffffffffffffffffffffffff048311821515161561225157612250611fee565b5b828202905092915050565b600061226782611ac6565b915061227283611ac6565b9250827fffffffffffffffffffffffffffffffffffffffffffffffffffffffffffffffff038211156122a7576122a6611fee565b5b828201905092915050565b7f70616972696e672d6f70636f64652d6661696c65640000000000000000000000600082015250565b60006122e8601583611c13565b91506122f3826122b2565b602082019050919050565b60006020820190508181036000830152612317816122db565b9050919050565b600060ff82169050919050565b60006123368261231e565b91506123418361231e565b92508260ff0382111561235757612356611fee565b5b828201905092915050565b6000819050919050565b61237581612362565b82525050565b6123848161231e565b82525050565b600060808201905061239f600083018761236c565b6123ac602083018661237b565b6123b9604083018561236c565b6123c6606083018461236c565b95945050505050565b7f4d6f64756c7573206973207a65726f0000000000000000000000000000000000600082015250565b6000612405600f83611c13565b9150612410826123cf565b602082019050919050565b60006020820190508181036000830152612434816123f8565b9050919050565b7f496e76616c6964206e756d626572000000000000000000000000000000000000600082015250565b6000612471600e83611c13565b915061247c8261243b565b602082019050919050565b600060208201905081810360008301526124a081612464565b9050919050565b60006124b282611ac6565b91506124bd83611ac6565b9250826124cd576124cc611f90565b5b82820490509291505056fea2646970667358221220c260ae494af5292513a0f9adeb7c86f2d3aa89bdfc1c3f5046a961377c7493f264736f6c634300080d003332303930303432393839393239313030393037333239393238393436393636303134393731363738353539363235313439313330303639323033353638313439323031363933393137393235372c2034333336393130323335363836393631353338323835393936353237323731373734393336373139303538383334353439353338363836303430373438373135323833383132323030393719ec5dc5aa05a220cd210a113352596ebf80d06a6f776b8e0c656e50a5c5567f1e8a7f23fb27f77ea5b5d42f0e2384facdebebd85f026e2a73e94d4690a40a6801",
  "immutableReferences": {},
  "source": "// Modified from https://github.com/appliedzkp/semaphore/blob/master/contracts/sol/verifier.sol\r\n// SPDX-License-Identifier: MIT\r\npragma solidity >=0.4.22 <0.9.0;\r\npragma experimental ABIEncoderV2;\r\nimport \"./Pairing.sol\";\r\n// import \"./PolyCoeff.sol\";\r\nimport { Constants } from \"./Constants.sol\";\r\n// import \"@openzeppelin/contracts/utils/Strings.sol\";\r\n\r\ncontract Verifier is Constants {\r\n\r\n    using Pairing for *;\r\n\r\n    // PolyCoeff polyCoeff;\r\n\r\n    event verifyResult(bool result);\r\n\r\n    uint256[21] Proof = [\r\n        uint256(20435686948508171234472206488737953800505595616105823290561271581793730135986),\r\n        uint256(7613038940582986439878577004424311309737615170791456916446723479068371769225),\r\n        uint256(20900429899291009073299289469660149716785596251491300692035681492016939179257),\r\n        uint256(17015433841169487450406840425175642150965883946544965612916879717959251917877),\r\n        uint256(433691023568696153828599652727177493671905883454953868604074871528381220097),\r\n        uint256(10320531664273889342578906132837836076031009559738199149165995480549188738219),\r\n        uint256(5841514956038981489672186264970094693930045609713312309929445225955171101947),\r\n        uint256(5021024840007099401420413415719005463562614305701472747429400657816854795888),\r\n        uint256(20774065911754029615648528083815650325450840922528127398846513310899898519818),\r\n        uint256(15033194806153309440324576121312701377491848712637707126378339071163915088607),\r\n        uint256(13797601081368067296147105517336555699959400728196376360418452678919689273357),\r\n        uint256(347536244405038501480645670232637364896709701574004323632284243300674648233),\r\n        uint256(14150985670258525975582637074878024272235049272474457475329855381177734047698),\r\n        uint256(2655786006985334435742353147654701867454007390061009682990360208958229883457),\r\n        uint256(19749978915220999581635876327451130211831443864540429941950424972239040718725),\r\n        uint256(18652734379260577017619098828238354228621932558467343220803598526754221068969),\r\n        uint256(19231643171984527412379363884712632725022106910875011856721870145973184299950),\r\n        uint256(11890584382703984881384687349129438589403848436060509080598302278432395889958),\r\n        uint256(19848703903105846067635106277601755727734486581037082434405934553883502968806),\r\n        uint256(7073067203970200196273245091229017314841577127190841947842173598530677375580),\r\n        uint256(11142795172845103846997117758219330284910812886430955732663385421662518242916)\r\n    ];\r\n\r\n    // The G2 generator\r\n    Pairing.G2Point g2Generator = Pairing.G2Point({\r\n        X: [ Constants.SRS_G2_X_0[0], Constants.SRS_G2_X_1[0] ],\r\n        Y: [ Constants.SRS_G2_Y_0[0], Constants.SRS_G2_Y_1[0] ]\r\n\r\n    });\r\n\r\n    Pairing.G2Point SRS_G2_1 = Pairing.G2Point({\r\n        X: [ Constants.SRS_G2_X_0[1], Constants.SRS_G2_X_1[1] ],\r\n        Y: [ Constants.SRS_G2_Y_0[1], Constants.SRS_G2_Y_1[1] ]\r\n    });\r\n\r\n    uint256[2] Randoms = [\r\n        uint256(21356640755055926883299664242251323519715676831624930462071588778907420237277),\r\n        uint256(21284924740537517593391635090683107806948436131904811688892120057033464016678)\r\n    ];\r\n    // length of longest u,v,w, i.e. longest length of a,b,c, linear\r\n    uint256 N = 2994;\r\n\r\n    uint256 evalK = uint256(11598511819595573397693757683043215863237090817957830497519701049476846220233);\r\n    uint256 evalS = Proof[20];\r\n\r\n    // SOCC_hscS = [G1Point S_j, uint256 s_j, G1Point W_j]\r\n    uint256[5] SOCC_hscS = [\r\n        uint256(4856595452220518861283513887787149560249872199754148373623768058895650888886),\r\n        uint256(18903793806709064235976701805982270837399009185115750427816521247566249210556),\r\n        uint256(11142795172845103846997117758219330284910812886430955732663385421662518242916),\r\n        uint256(21371202341828297453905088304285070177929072675831707150146249345026206448204),\r\n        uint256(2804295765584777874267821186909392907007222244895837511075392229436674961086)\r\n    ];\r\n    // SOCC_hscW = [uint256 s'_j,G1Point W'_j, G1Point Q_j]\r\n    uint256[5] SOCC_hscW = [\r\n        uint256(10516069979663785554384039720791935537971662430097624533692998141893610132813),\r\n        uint256(4047408704098476939730481302397316844045052246660100325786631118072453155095),\r\n        uint256(3536770324764440576997419732517461268782698510962602892817204324264966117745),\r\n        uint256(14245367996788138561788347307320292816184394224142842975302936827932398609764),\r\n        uint256(4809015920432886449944012129537258787815219963382067822305826740230093200527)\r\n    ];\r\n\r\n    Pairing.G1Point hscQv = Pairing.G1Point(\r\n        uint256(2990558601454446836641627272921201963123578559834602407524792456795005493261),\r\n        uint256(13202662347545347168000079135411531495309137838398006144762638337293564502641)\r\n    );\r\n    Pairing.G1Point hscC = Pairing.G1Point(\r\n        uint256(20354021681082976488982424663336191185782081465046767166624106617637273115698),\r\n        uint256(7434894914590215425794637416957100516507193983165584369402225555559623348194)\r\n    );\r\n\r\n    uint256 u = uint256(8197071660809916300712359474937866146139983659726903111927633346212682272753);\r\n    uint256 v = uint256(18304223670379022123371455395869338667757056554451611927086438308637909615067);\r\n\r\n    // from terminal\r\n    uint256 s_uv = uint256(7791702837224372263152657165191932519240106980588006270334507770946892728366);\r\n\r\n    // from Go\r\n    bytes32 message = ethMessageHash(\"20900429899291009073299289469660149716785596251491300692035681492016939179257, 433691023568696153828599652727177493671905883454953868604074871528381220097\");\r\n    bytes sig = hex\"19ec5dc5aa05a220cd210a113352596ebf80d06a6f776b8e0c656e50a5c5567f1e8a7f23fb27f77ea5b5d42f0e2384facdebebd85f026e2a73e94d4690a40a6801\";\r\n    address addr = 0xE448992FdEaF94784bBD8f432d781C061D907985;\r\n\r\n\r\n    // Sonic version - Verify a single-point evaluation of a polynominal\r\n    // function verify(\r\n    //     Pairing.G1Point memory _commitment, // F\r\n    //     Pairing.G1Point memory _proof, // W\r\n    //     uint256 _index,  // z\r\n    //     uint256 _value,  // F(z) or v\r\n    //     uint proofIndex\r\n    //     //bool isT\r\n    // ) public view returns (bool) {\r\n    //     // Make sure each parameter is less than the prime q\r\n    //     require(_commitment.X < BABYJUB_P, \"Verifier.verifyKZG: _commitment.X is out of range\");\r\n    //     require(_commitment.Y < BABYJUB_P, \"Verifier.verifyKZG: _commitment.Y is out of range\");\r\n    //     require(_proof.X < BABYJUB_P, \"Verifier.verifyKZG: _proof.X is out of range\");\r\n    //     require(_proof.Y < BABYJUB_P, \"Verifier.verifyKZG: _proof.Y is out of range\");\r\n    //     require(_index < BABYJUB_P, \"Verifier.verifyKZG: _index is out of range\");\r\n    //     require(_value < BABYJUB_P, \"Verifier.verifyKZG: _value is out of range\");\r\n       \r\n    //     Pairing.G1Point memory negProof = Pairing.negate(Pairing.mulScalar(_proof, _index));\r\n    //     Pairing.G1Point memory mulProof = Pairing.plus(Pairing.mulScalar(Constants.G1Gen(), _value), negProof);\r\n    //     Pairing.G1Point memory negCm = Pairing.negate(_commitment);\r\n\r\n    //     return Pairing.pairing(_proof, Constants.SRS_G2_hAlphaX1(proofIndex),\r\n    //                             mulProof, Constants.SRS_G2_hAlphaX0(proofIndex));\r\n    //                             //negCm, Constants.SRS_G2_hAlphaXdMax(proofIndex, isT)\r\n    // }\r\n\r\n    // KZG version - Verify a single-point evaluation of a polynominal\r\n    /*\r\n     * Verifies a single-point evaluation of a polynominal using the KZG\r\n     * commitment scheme.\r\n     *    - p(X) is a polynominal\r\n     *    - _value = p(_index) \r\n     *    - commitment = commit(p)\r\n     *    - proof = genProof(p, _index, _value)\r\n     * Returns true if and only if the following holds, and returns false\r\n     * otherwise:\r\n     *     e(commitment - commit([_value]), G2.g) == e(proof, commit([0, 1]) - zCommit)\r\n     * @param _commitment The KZG polynominal commitment.\r\n     * @param _proof The proof.\r\n     * @param _index The x-value at which to evaluate the polynominal.\r\n     * @param _value The result of the polynominal evaluation.\r\n     */\r\n    function verify(\r\n        Pairing.G1Point memory _commitment, // F\r\n        Pairing.G1Point memory _proof, // \r\n        uint256 _index,  // z\r\n        uint256 _value  // F(z) or v\r\n        //uint proofIndex\r\n    ) public view returns (bool) {\r\n        // Make sure each parameter is less than the prime q\r\n        require(_commitment.X < BABYJUB_P, \"Verifier.verifyKZG: _commitment.X is out of range\");\r\n        require(_commitment.Y < BABYJUB_P, \"Verifier.verifyKZG: _commitment.Y is out of range\");\r\n        require(_proof.X < BABYJUB_P, \"Verifier.verifyKZG: _proof.X is out of range\");\r\n        require(_proof.Y < BABYJUB_P, \"Verifier.verifyKZG: _proof.Y is out of range\");\r\n        require(_index < BABYJUB_P, \"Verifier.verifyKZG: _index is out of range\");\r\n        require(_value < BABYJUB_P, \"Verifier.verifyKZG: _value is out of range\");\r\n\r\n        // Compute commitment - aCommitment\r\n        Pairing.G1Point memory commitmentMinusA = Pairing.plus(\r\n            _commitment,\r\n            Pairing.negate(\r\n                Pairing.mulScalar(Constants.G1Gen(), _value)\r\n            )\r\n        );\r\n\r\n        // Negate the proof\r\n        Pairing.G1Point memory negProof = Pairing.negate(_proof);\r\n\r\n        // Compute index * proof\r\n        Pairing.G1Point memory indexMulProof = Pairing.mulScalar(_proof, _index);\r\n\r\n        // Return true if and only if\r\n        // e((index * proof) + (commitment - aCommitment), G2.g) * e(-proof, xCommit) == 1\r\n        return Pairing.pairing(\r\n            Pairing.plus(indexMulProof, commitmentMinusA),\r\n            g2Generator,\r\n            negProof,\r\n            SRS_G2_1\r\n        );\r\n    }\r\n\r\n\r\n    function verifySonic(\r\n        // uint256[21] memory Proof,\r\n        // uint256[2] memory Randoms\r\n    ) public returns (bool) {\r\n\r\n        // simulate calculating kY\r\n        // uint256 ky = evalKPoly();\r\n        // // // simulate calculating sXY\r\n        // uint256 sx = evalXPoly();\r\n        // uint256 sy = evalXPoly();\r\n\r\n        uint256 yz = mulmod(Randoms[0], Randoms[1], Pairing.BABYJUB_P);\r\n        // y^N for halo implementation style\r\n        // uint256 y_n = expMod(Randoms[1], N, BABYJUB_P);\r\n        // t for halo implementation style\r\n        // uint256 t = addmod(mulmod(addmod(Proof[6], Proof[9], Pairing.BABYJUB_P), \r\n        //                           addmod(addmod(Proof[12], \r\n        //                                         Proof[15], Pairing.BABYJUB_P), \r\n        //                                  evalS, Pairing.BABYJUB_P), Pairing.BABYJUB_P),\r\n        //                     mulmod((BABYJUB_P - evalK), y_n, BABYJUB_P),\r\n        //                     BABYJUB_P);\r\n\r\n        uint256 t = addmod(mulmod(addmod(Proof[6], Proof[9], Pairing.BABYJUB_P), \r\n                                  addmod(addmod(Proof[12], \r\n                                                Proof[15], Pairing.BABYJUB_P), \r\n                                         evalS, Pairing.BABYJUB_P), Pairing.BABYJUB_P),\r\n                            (BABYJUB_P - evalK), BABYJUB_P);\r\n\r\n\r\n        bool verifySignature = recover(message, sig) == addr;\r\n        // bool result = verify(Pairing.G1Point(Proof[0], Proof[1]), // aLocal\r\n        //               Pairing.G1Point(Proof[7], Proof[8]),\r\n        //               Randoms[1], \r\n        //               Proof[6]) &&\r\n        //         verify(Pairing.G1Point(Proof[0], Proof[1]), // bLocal\r\n        //               Pairing.G1Point(Proof[13], Proof[14]),\r\n        //               yz,\r\n        //               Proof[12]) &&\r\n        //         verify(Pairing.G1Point(Proof[2], Proof[3]), // aRaw\r\n        //               Pairing.G1Point(Proof[10], Proof[11]),\r\n        //               Randoms[1],\r\n        //               Proof[9]) &&\r\n        //         verify(Pairing.G1Point(Proof[2], Proof[3]), // bRaw\r\n        //               Pairing.G1Point(Proof[16], Proof[17]),\r\n        //               yz,\r\n        //               Proof[15]) &&\r\n        //         verify(Pairing.G1Point(Proof[4], Proof[5]), // t\r\n        //               Pairing.G1Point(Proof[18], Proof[19]),\r\n        //               Randoms[1],\r\n        //               t) &&                               \r\n        //         verify(Pairing.G1Point(Proof[4], Proof[5]), // t\r\n        //               Pairing.G1Point(Proof[18], Proof[19]),\r\n        //               Randoms[1],\r\n        //               t) &&                                            // pcV srsLocal (srsD srsLocal) commitK y (k, wk)\r\n        //         verify(Pairing.G1Point(Proof[4], Proof[5]), // t\r\n        //               Pairing.G1Point(Proof[18], Proof[19]),\r\n        //               Randoms[1],\r\n        //               t) &&                                            // pcV srsLocal (srsD srsLocal) commitC y (c, wc)\r\n        //         verify(Pairing.G1Point(Proof[4], Proof[5]), // t\r\n        //               Pairing.G1Point(Proof[18], Proof[19]),\r\n        //               Randoms[1],\r\n        //               t) &&                                            // pcV srsLocal (srsD srsLocal) commitC yOld (cOld, wcOld)\r\n        //         verify(Pairing.G1Point(Proof[4], Proof[5]), // t\r\n        //               Pairing.G1Point(Proof[18], Proof[19]),\r\n        //               Randoms[1],\r\n        //               t) &&                                            //, pcV srsLocal (srsD srsLocal) commitC yNew (cNew, wcNew)\r\n        //         verify(Pairing.G1Point(Proof[4], Proof[5]), // t\r\n        //               Pairing.G1Point(Proof[18], Proof[19]),\r\n        //               Randoms[1],\r\n        //               t) &&                                            //, pcV srsLocal (srsD srsLocal) commitS z (s, ws)\r\n        //         verify(Pairing.G1Point(Proof[4], Proof[5]), // t\r\n        //               Pairing.G1Point(Proof[18], Proof[19]),\r\n        //               Randoms[1],\r\n        //               t) &&                                            //, pcV srsLocal (srsD srsLocal) commitSOld z (sOld, wsOld)\r\n        //          verify(Pairing.G1Point(Proof[4], Proof[5]), // t\r\n        //               Pairing.G1Point(Proof[18], Proof[19]),\r\n        //               Randoms[1],\r\n        //               t) &&                                           //, pcV srsLocal (srsD srsLocal) commitSNew z (sNew, wsNew)\r\n        //         verifySignature &&\r\n        //         Proof[6] == Proof[7] && // c_old == s_old\r\n        //         Proof[8] == Proof[9] && // c_new == s_new\r\n        //         Proof[10] == Proof[11]; // c == s\r\n\r\n        // estimate gas cost\r\n        bool result = verify(Pairing.G1Point(Proof[0], Proof[1]), // aLocal\r\n                      Pairing.G1Point(Proof[7], Proof[8]),\r\n                      Randoms[1], \r\n                      Proof[6]);\r\n        result = verify(Pairing.G1Point(Proof[0], Proof[1]), // bLocal\r\n                      Pairing.G1Point(Proof[13], Proof[14]),\r\n                      yz,\r\n                      Proof[12]);\r\n        result = verify(Pairing.G1Point(Proof[2], Proof[3]), // aRaw\r\n                      Pairing.G1Point(Proof[10], Proof[11]),\r\n                      Randoms[1],\r\n                      Proof[9]);\r\n        result = verify(Pairing.G1Point(Proof[2], Proof[3]), // bRaw\r\n                      Pairing.G1Point(Proof[16], Proof[17]),\r\n                      yz,\r\n                      Proof[15]);\r\n        result = verify(Pairing.G1Point(Proof[4], Proof[5]), // t\r\n                      Pairing.G1Point(Proof[18], Proof[19]),\r\n                      Randoms[1],\r\n                      t);                              \r\n        result = verify(Pairing.G1Point(Proof[4], Proof[5]), // t\r\n                      Pairing.G1Point(Proof[18], Proof[19]),\r\n                      Randoms[1],\r\n                      t);                                            // pcV srsLocal (srsD srsLocal) commitK y (k, wk)\r\n        result = verify(Pairing.G1Point(Proof[4], Proof[5]), // t\r\n                      Pairing.G1Point(Proof[18], Proof[19]),\r\n                      Randoms[1],\r\n                      t);                                            // pcV srsLocal (srsD srsLocal) commitC y (c, wc)\r\n        result = verify(Pairing.G1Point(Proof[4], Proof[5]), // t\r\n                      Pairing.G1Point(Proof[18], Proof[19]),\r\n                      Randoms[1],\r\n                      t);                                            // pcV srsLocal (srsD srsLocal) commitC yOld (cOld, wcOld)\r\n        result = verify(Pairing.G1Point(Proof[4], Proof[5]), // t\r\n                      Pairing.G1Point(Proof[18], Proof[19]),\r\n                      Randoms[1],\r\n                      t);                                            //, pcV srsLocal (srsD srsLocal) commitC yNew (cNew, wcNew)\r\n        result = verify(Pairing.G1Point(Proof[4], Proof[5]), // t\r\n                      Pairing.G1Point(Proof[18], Proof[19]),\r\n                      Randoms[1],\r\n                      t);                                            //, pcV srsLocal (srsD srsLocal) commitS z (s, ws)\r\n        result = verify(Pairing.G1Point(Proof[4], Proof[5]), // t\r\n                      Pairing.G1Point(Proof[18], Proof[19]),\r\n                      Randoms[1],\r\n                      t);                                            //, pcV srsLocal (srsD srsLocal) commitSOld z (sOld, wsOld)\r\n        result = verify(Pairing.G1Point(Proof[4], Proof[5]), // t\r\n                      Pairing.G1Point(Proof[18], Proof[19]),\r\n                      Randoms[1],\r\n                      t);                                           //, pcV srsLocal (srsD srsLocal) commitSNew z (sNew, wsNew)\r\n        result = verifySignature;\r\n        result = Proof[6] == Proof[7]; // c_old == s_old\r\n        result = Proof[8] == Proof[9]; // c_new == s_new\r\n        result = Proof[10] == Proof[11]; // c == s\r\n        emit verifyResult(result);\r\n        return result;\r\n    }\r\n    // SCC\r\n    // function verifySOCC() public returns (bool) {\r\n\r\n    //     bool verified = verify(Pairing.G1Point(SOCC_hscS[0], SOCC_hscS[1]), // pcV(bp,srs,S_j,d,z_j,(s_j,W_j)\r\n    //                   Pairing.G1Point(SOCC_hscS[3], SOCC_hscS[4]),\r\n    //                   Randoms[1], \r\n    //                   SOCC_hscS[2],\r\n    //                   0, true) &&\r\n    //                   verify(Pairing.G1Point(SOCC_hscS[0], SOCC_hscS[1]), // pcV(bp,srs,S_j,d,u,(s'_j,W'_j))\r\n    //                   Pairing.G1Point(SOCC_hscW[1], SOCC_hscW[2]),\r\n    //                   u, \r\n    //                   SOCC_hscW[0],\r\n    //                   0, true) &&\r\n    //                   verify(hscC,                                      // pcV(bp,srs,C,d,y_j,(s'_j,Q_j)\r\n    //                   Pairing.G1Point(SOCC_hscW[3], SOCC_hscW[4]),\r\n    //                   Randoms[0], \r\n    //                   SOCC_hscW[0],\r\n    //                   0, true) &&\r\n    //                   verify(hscC,                                      // pcV(bp,srs,C,d,v,(s_uv,Q_v))\r\n    //                   hscQv,\r\n    //                   v, \r\n    //                   s_uv,\r\n    //                   0, true);\r\n    //     emit verifyResult(verified);\r\n    //     return verified;\r\n    // }\r\n\r\n    /**\r\n     * @dev Recover signer address from a message by using their signature\r\n     * @param hash bytes32 message, the hash is the signed message. What is recovered is the signer address.\r\n     * @param signature bytes signature, the signature is generated using web3.eth.sign()\r\n     */\r\n    function recover(bytes32 hash, bytes memory signature) internal pure returns (address) {\r\n        bytes32 r;\r\n        bytes32 s;\r\n        uint8 _v;\r\n\r\n        // Check the signature length\r\n        if (signature.length != 65) {\r\n            return (address(0));\r\n        }\r\n\r\n        // Divide the signature in r, s and v variables\r\n        // ecrecover takes the signature parameters, and the only way to get them\r\n        // currently is to use assembly.\r\n        // solium-disable-next-line security/no-inline-assembly\r\n        assembly {\r\n            r := mload(add(signature, 32))\r\n            s := mload(add(signature, 64))\r\n            _v := byte(0, mload(add(signature, 96)))\r\n        }\r\n\r\n        // Version of signature should be 27 or 28, but 0 and 1 are also possible versions\r\n        if (_v < 27) {\r\n            _v += 27;\r\n        }\r\n\r\n        // If the version is correct return the signer address\r\n        if (_v != 27 && _v != 28) {\r\n            return (address(0));\r\n        } else {\r\n            // solium-disable-next-line arg-overflow\r\n            return ecrecover(hash, _v, r, s);\r\n        }\r\n    }\r\n\r\n    /**\r\n    * @dev prefix a bytes32 value with \"\\x19Ethereum Signed Message:\" and hash the result\r\n    */\r\n    function ethMessageHash(string memory rawCommitment) internal pure returns (bytes32) {\r\n        return keccak256(\r\n            abi.encodePacked(\"\\x19Ethereum Signed Message:\\n32\", keccak256(abi.encodePacked(rawCommitment)))\r\n        );\r\n    }\r\n\r\n\r\n    //     /*\r\n    //  * @return The polynominal evaluation of a polynominal with the specified\r\n    //  *         coefficients at the given index.\r\n    //  */\r\n     function evalPoly() public view returns (uint256) {\r\n\r\n        uint baseOrder = 204;\r\n        uint length = 64;\r\n        uint256 _index = Randoms[0];\r\n        uint256 m = Constants.BABYJUB_P;\r\n        uint256 result = 0;\r\n        uint256 powerOfX = 1;\r\n\r\n        for (uint256 i = 0; i < length; i ++) {\r\n            assembly {\r\n                result:= addmod(result, mulmod(powerOfX, i, m), m)\r\n                powerOfX := mulmod(powerOfX, i, m)\r\n            }\r\n        }\r\n        uint256 basePower = invMod(expMod(_index, baseOrder, m), m);\r\n        result = mulmod(basePower, result, m);\r\n\r\n        return result;\r\n    }\r\n\r\n    /// @dev Modular euclidean inverse of a number (mod p).\r\n    /// @param _x The number\r\n    /// @param _pp The modulus\r\n    /// @return q such that x*q = 1 (mod _pp)\r\n    function invMod(uint256 _x, uint256 _pp) internal pure returns (uint256) {\r\n        require(_x != 0 && _x != _pp && _pp != 0, \"Invalid number\");\r\n        uint256 q = 0;\r\n        uint256 newT = 1;\r\n        uint256 r = _pp;\r\n        uint256 t;\r\n        while (_x != 0) {\r\n        t = r / _x;\r\n        (q, newT) = (newT, addmod(q, (_pp - mulmod(t, newT, _pp)), _pp));\r\n        (r, _x) = (_x, r - t * _x);\r\n        }\r\n\r\n        return q;\r\n    }\r\n\r\n    /// @dev Modular exponentiation, b^e % _pp.\r\n    /// Source: https://github.com/androlo/standard-contracts/blob/master/contracts/src/crypto/ECCMath.sol\r\n    /// @param _base base\r\n    /// @param _exp exponent\r\n    /// @param _pp modulus\r\n    /// @return r such that r = b**e (mod _pp)\r\n    function expMod(uint256 _base, uint256 _exp, uint256 _pp) internal pure returns (uint256) {\r\n        require(_pp!=0, \"Modulus is zero\");\r\n\r\n        if (_base == 0)\r\n        return 0;\r\n        if (_exp == 0)\r\n        return 1;\r\n\r\n        uint256 r = 1;\r\n        uint256 bit = 57896044618658097711785492504343953926634992332820282019728792003956564819968; // 2 ^ 255\r\n        assembly {\r\n        for { } gt(bit, 0) { }{\r\n            // a touch of loop unrolling for 20% efficiency gain\r\n            r := mulmod(mulmod(r, r, _pp), exp(_base, iszero(iszero(and(_exp, bit)))), _pp)\r\n            r := mulmod(mulmod(r, r, _pp), exp(_base, iszero(iszero(and(_exp, div(bit, 2))))), _pp)\r\n            r := mulmod(mulmod(r, r, _pp), exp(_base, iszero(iszero(and(_exp, div(bit, 4))))), _pp)\r\n            r := mulmod(mulmod(r, r, _pp), exp(_base, iszero(iszero(and(_exp, div(bit, 8))))), _pp)\r\n            bit := div(bit, 16)\r\n        }\r\n        }\r\n\r\n        return r;\r\n    }\r\n    \r\n\r\n}",
  "sourcePath": "D:\\homework\\sonic\\src\\verifier\\contracts\\Verifier.sol",
  "compiler": {
    "name": "solc",
    "version": "0.8.13+commit.abaa5c0e.Emscripten.clang"
  },
  "schemaVersion": "3.4.8",
  "updatedAt": "2022-12-25T22:09:57.863Z",
  "networkType": "ethereum",
  "devdoc": {
    "kind": "dev",
    "methods": {},
    "version": 1
  },
  "userdoc": {
    "kind": "user",
    "methods": {},
    "version": 1
  }
}