{
  "contractName": "Verifier",
  "abi": [
    {
      "anonymous": false,
      "inputs": [
        {
          "indexed": false,
          "internalType": "bool",
          "name": "result",
          "type": "bool"
        }
      ],
      "name": "verifyResult",
      "type": "event"
    },
    {
      "inputs": [
        {
          "components": [
            {
              "internalType": "uint256",
              "name": "X",
              "type": "uint256"
            },
            {
              "internalType": "uint256",
              "name": "Y",
              "type": "uint256"
            }
          ],
          "internalType": "struct Pairing.G1Point",
          "name": "_commitment",
          "type": "tuple"
        },
        {
          "components": [
            {
              "internalType": "uint256",
              "name": "X",
              "type": "uint256"
            },
            {
              "internalType": "uint256",
              "name": "Y",
              "type": "uint256"
            }
          ],
          "internalType": "struct Pairing.G1Point",
          "name": "_proof",
          "type": "tuple"
        },
        {
          "internalType": "uint256",
          "name": "_index",
          "type": "uint256"
        },
        {
          "internalType": "uint256",
          "name": "_value",
          "type": "uint256"
        },
        {
          "internalType": "uint256",
          "name": "proofIndex",
          "type": "uint256"
        },
        {
          "internalType": "bool",
          "name": "isT",
          "type": "bool"
        }
      ],
      "name": "verify",
      "outputs": [
        {
          "internalType": "bool",
          "name": "",
          "type": "bool"
        }
      ],
      "stateMutability": "view",
      "type": "function",
      "constant": true
    },
    {
      "inputs": [],
      "name": "verifySonic",
      "outputs": [
        {
          "internalType": "bool",
          "name": "",
          "type": "bool"
        }
      ],
      "stateMutability": "nonpayable",
      "type": "function"
    },
    {
      "inputs": [],
      "name": "verifySonicBatched",
      "outputs": [
        {
          "internalType": "bool",
          "name": "",
          "type": "bool"
        }
      ],
      "stateMutability": "nonpayable",
      "type": "function"
    },
    {
      "inputs": [],
      "name": "evalPoly",
      "outputs": [
        {
          "internalType": "uint256",
          "name": "",
          "type": "uint256"
        }
      ],
      "stateMutability": "view",
      "type": "function",
      "constant": true
    }
  ],
  "bytecode": "0x608060405260405180604001604052807f198e9393920d483a7260bfb731fb5d25f1aa493335a9e71297e485b7aef312c281526020017f21a808dad5c50720fb7294745cf4c87812ce0ea76baa7df4e922615d1388f25a81525060009060026200006b929190620018de565b5060405180604001604052807f1800deef121f1e76426a00665e5c4479674322d4f75edadd46debd5cd992f6ed81526020017f04c5e74c85a87f008a2feb4b5c8a1e7f9ba9d8eb40eb02e70139c89fb1c505a98152506001906002620000d3929190620018de565b5060405180604001604052807f090689d0585ff075ec9e99ad690c3395bc4b313370b38ef355acdadcd122975b81526020017f204b66d8e1fadc307c35187a6b813be0b46ba1cd720cd1c4ee5f68d13036b4ba81525060029060026200013b929190620018de565b5060405180604001604052807f12c85ea5db8c6deb4aab71808dcb408fe3d1e7690c43d37b4ce6cc0166fa7daa81526020017f2d58022915fc6bc90e036e858fbc98055084ac7aff98ccceb0e3fde64bc1a0848152506003906002620001a3929190620018de565b5060405180608001604052807f1a597e49c263d6a226f25fe1e806caac7f15f85b763044e7d3043ba5992dd8d581526020017f228b515a17f28b89920873207477f8c7fc05582debaf3184febf1cfdedc5ce8881526020017f18e9db03472e0863ddf2838cf8880b11083593229561aaf9a11c760bb97a64fa81526020017f0566eed2b6bb584ca75fbe0ca9ffc98eb586c25812617df7e01a2b6d8270f0bf81525060049060046200025792919062001930565b5060405180608001604052807f208f992ecbeeef3fa5b1c3505c588c7a872e3987797a14052b6f34411c9ea0ae81526020017f12bb1156a9f6b360fcb2614e15d8a3ff07f2c699dc69ca830b20d2df91fe9cd381526020017f15904dc85f8ddf338fe3151d3c146b4083e99dd3f26d87d33dd5d20eb64284a381526020017f20101834550a7d15aa7a685d3f0095b689822cb568dfc9690e0cc58e9826d8fb81525060059060046200030b92919062001930565b5060405180608001604052807f024248dcf25ea502fb805bcab808906eb944154792151d643ad7b4b0eca6d91381526020017f2b15dc62a5c9e36597914ddbbfde48806a8eabe45c8d3cccf9578ad08e058f9281526020017f20ab132d3e7dd0600d89b397a3bf88e3900434c826b458028981278a619d809481526020017f0a66c012d8ebf11c9a9fc4ccfeeab0ace62b1c1fa744f6c6173f1994e9241db78152506006906004620003bf92919062001930565b5060405180608001604052807f14c35af32416c899af0b827ef0f1a686393d629317706d8c143cdfd5717c4c5e81526020017f02a4fd764f52470e2fcfff325fb9692f55d6b8b077eefeaa04e07152b4d1fa9481526020017f28505103380e230ea76fa52dc17b1269cfa9076761a1bb971c5b90767de58db081526020017f19ea09d089c848b2dee00082395883e0b405de1da65d4b4aeebd50c84e47349d81525060079060046200047392919062001930565b50604051806040016040528060405180604001604052807f185c3f6fe300ae4825fbc17232a7ef067d895c6838b58df5d3821b3c5f47a38081526020017f0ec8eed74d6dfed1e4bbac422898cbf6334bb2ea304a443a0b388c8a513b98ea815250815260200160405180604001604052807f2ce0b9172a655debea69f18829f2b0a98ec43a6ce296f603371237011936328181526020017f113e4f1953b68002611afddebc49dc2876e7a4e246061eec0f05ebc6595ff13781525081525060086000820151816000019060026200054c92919062001982565b506020820151816002019060026200056692919062001982565b505050604051806040016040528060405180604001604052807f11a27fdb89b46af22a89049c391fada5cb5ce6f4c9df8fe5ebae5d422b0bcddf81526020017f1ebadb21506ba2b40566be5bdbfe1ead7400477fc516e1ded4461c6759c221f5815250815260200160405180604001604052807f2d204255b7a4116982ce5bcd3bcc3639e3cc82b273a8ffbf404370c38ce5db3f81526020017f18b0e4266a167129aaee0af3b9ab5a3b4d2bcd690de7d94312c23b494f9fd3bb815250815250600c6000820151816000019060026200064192919062001982565b506020820151816002019060026200065b92919062001982565b505050604051806040016040528060405180604001604052807f198e9393920d483a7260bfb731fb5d25f1aa493335a9e71297e485b7aef312c281526020017f1800deef121f1e76426a00665e5c4479674322d4f75edadd46debd5cd992f6ed815250815260200160405180604001604052807f090689d0585ff075ec9e99ad690c3395bc4b313370b38ef355acdadcd122975b81526020017f12c85ea5db8c6deb4aab71808dcb408fe3d1e7690c43d37b4ce6cc0166fa7daa81525081525060106000820151816000019060026200073692919062001982565b506020820151816002019060026200075092919062001982565b505050604051806040016040528060405180604001604052807f198e9393920d483a7260bfb731fb5d25f1aa493335a9e71297e485b7aef312c281526020017f1800deef121f1e76426a00665e5c4479674322d4f75edadd46debd5cd992f6ed815250815260200160405180604001604052807f090689d0585ff075ec9e99ad690c3395bc4b313370b38ef355acdadcd122975b81526020017f12c85ea5db8c6deb4aab71808dcb408fe3d1e7690c43d37b4ce6cc0166fa7daa81525081525060146000820151816000019060026200082b92919062001982565b506020820151816002019060026200084592919062001982565b505050604051806102a001604052807f2d2e305d3ab2dc6e0081ffcf4a701f924a1a7296cdc32046c10c0b6f992387b281526020017f10d4d3cca369c48670346ef36c6739e885bb11b52038a89c706aacfb7d72d78981526020017f2d2e305d3ab2dc6e0081ffcf4a701f924a1a7296cdc32046c10c0b6f992387b281526020017f10d4d3cca369c48670346ef36c6739e885bb11b52038a89c706aacfb7d72d78981526020017f2d2e305d3ab2dc6e0081ffcf4a701f924a1a7296cdc32046c10c0b6f992387b281526020017f10d4d3cca369c48670346ef36c6739e885bb11b52038a89c706aacfb7d72d78981526020017f2d2e305d3ab2dc6e0081ffcf4a701f924a1a7296cdc32046c10c0b6f992387b281526020017f10d4d3cca369c48670346ef36c6739e885bb11b52038a89c706aacfb7d72d78981526020017f2d2e305d3ab2dc6e0081ffcf4a701f924a1a7296cdc32046c10c0b6f992387b281526020017f10d4d3cca369c48670346ef36c6739e885bb11b52038a89c706aacfb7d72d78981526020017f2d2e305d3ab2dc6e0081ffcf4a701f924a1a7296cdc32046c10c0b6f992387b281526020017f10d4d3cca369c48670346ef36c6739e885bb11b52038a89c706aacfb7d72d78981526020017f2d2e305d3ab2dc6e0081ffcf4a701f924a1a7296cdc32046c10c0b6f992387b281526020017f10d4d3cca369c48670346ef36c6739e885bb11b52038a89c706aacfb7d72d78981526020017f2d2e305d3ab2dc6e0081ffcf4a701f924a1a7296cdc32046c10c0b6f992387b281526020017f10d4d3cca369c48670346ef36c6739e885bb11b52038a89c706aacfb7d72d78981526020017f2d2e305d3ab2dc6e0081ffcf4a701f924a1a7296cdc32046c10c0b6f992387b281526020017f10d4d3cca369c48670346ef36c6739e885bb11b52038a89c706aacfb7d72d78981526020017f2be1f7e20177ef75851870d314a7fff4c31f0a9590dcadfa7ad98f63d01bffe681526020017f0fa336d3c59c626772a0d93ee1d4144b21e0fea2b000cd4fa60c03f69456025c81526020017f18a2993be8e03e3ec58688e40a0997a30ae6b413ab6156da93218e1ba39fee64815250601890601562000b82929190620019c7565b506040518060c001604052807f2f376e28777cfe34cf077eba864c462fd6efbfe4d3f6af17768ef2ed4f829ddd81526020017f2f0ed729a52c3cf5d51e5e6d8e737f79e5d99150f7b9b63f3dd38704f9d8ef2681526020017f2ef8bb94a174a78dfe41d6eed9d719c7d83be3826f1f10504ace98cab243a95a81526020017f2f1d1ad3ba383b2802a9d032e35c633fcb87438ec572dcecf69bdd65d3a29c6d81526020017f2f17797aa9b5b553209d135cdd69146128b9841e82c8b01e3f3a07d1e3714dc981526020017f2f1d1ad3ba383b2802a9d032e35c633fcb87438ec572dcecf69bdd65d3a29c6d815250602d90600662000c8292919062001a0c565b507f19a48669ccf72c593144962560f593b667daa2052d1cdcc2500bb3b003c073c9603355601860146015811062000cbf5762000cbe62001bd0565b5b01546034556040518060a001604052807f0abcbc513a4f12ef3d24aedcb8005305a64e9914941d63de78e83c7ce9559cb681526020017f29cb2b0a977afdb5e3c2fead88d2b26d1b699c1b7a6693262c371d3263f232bc81526020017f18a2993be8e03e3ec58688e40a0997a30ae6b413ab6156da93218e1ba39fee6481526020017f2f3fabffbd2bca7bc61901b09b4f45c78a3748a2e40ced61b93883605553ba4c81526020017f06332cd70541f1f5958e148a641305cb34193b8a595c46613dc0fff11c226ebe815250603590600562000d9d92919062001a51565b506040518060a001604052807f173fe27a7f0c60540d8d600c5850189dd4bb8d7f3c007a385606cd2c6181554d81526020017f08f2c08c988b82b1e72491c92c1888d988b28dbdf5969bca17d439211e0e491781526020017f07d1bdb66bfe5e8ea65931d35586ff1c40ce91a19e82bf032ce19b1ef5f0597181526020017f1f7e97b1ecc7c35f2e9ee3393ea5d101018c8ab489dc82d6678931cd13a0656481526020017f0aa1ce7a4ee86b4d125985c4fbef9eb81ff6397e9ee5b638cd6c5f7f3f1edc8f815250603a90600562000e7792919062001a51565b5060405180604001604052807f069c989f95c67f2eadad54192ee90365dfd843dd18cd104449c2cd0f6135a00d81526020017f1d30712bd9824a34faf8681c2f97adc1305a2faf1b39d4edf30d23aa5d73e271815250603f6000820151816000015560208201518160010155505060405180604001604052807f2cfff7d01b631c28468be5bf2d727199af5fad36b826df7816f54952caf49c3281526020017f1070005b7818ade38c833c325a22173c6abf1df16c09a6634c989af7701ecfe28152506041600082015181600001556020820151816001015550507f121f60ce38117f295e9818dfcb4dc742f01502a468e608ef94852d629c400ff16043557f2877d2ce379fc3bf527374243a7169b5101750073677141bca5b7ea0248e81db6044557f1139f290e1b15f50b86c3fa6c4961c7e69c7b36bf05d9dc9791958e93c06082e60455562000fe86040518060c00160405280609a81526020016200600d609a91396200188460201b60201c565b604655604051806080016040528060418152602001620060a760419139604790805190602001906200101c92919062001a96565b5073e448992fdeaf94784bbd8f432d781c061d907985604860006101000a81548173ffffffffffffffffffffffffffffffffffffffff021916908373ffffffffffffffffffffffffffffffffffffffff16021790555060405180604001604052806040518060400160405280600080815481106200109f576200109e62001bd0565b5b906000526020600020015481526020016001600081548110620010c757620010c662001bd0565b5b9060005260206000200154815250815260200160405180604001604052806002600081548110620010fd57620010fc62001bd0565b5b90600052602060002001548152602001600360008154811062001125576200112462001bd0565b5b906000526020600020015481525081525060496000820151816000019060026200115192919062001982565b506020820151816002019060026200116b92919062001982565b5050506040518060400160405280600181526020016002815250604d60008201518160000155602082015181600101555050604051806040016040528060405180604001604052806000600181548110620011cb57620011ca62001bd0565b5b9060005260206000200154815260200160018081548110620011f257620011f162001bd0565b5b906000526020600020015481525081526020016040518060400160405280600260018154811062001228576200122762001bd0565b5b90600052602060002001548152602001600360018154811062001250576200124f62001bd0565b5b9060005260206000200154815250815250604f6000820151816000019060026200127c92919062001982565b506020820151816002019060026200129692919062001982565b505050604051806040016040528060405180604001604052806004600281548110620012c757620012c662001bd0565b5b906000526020600020015481526020016005600281548110620012ef57620012ee62001bd0565b5b906000526020600020015481525081526020016040518060400160405280600660028154811062001325576200132462001bd0565b5b9060005260206000200154815260200160076002815481106200134d576200134c62001bd0565b5b906000526020600020015481525081525060536000820151816000019060026200137992919062001982565b506020820151816002019060026200139392919062001982565b5050507f30644e72e131a029b85045b68181585d2833e84879b9709143e1f593f000000180620013c857620013c762001bff565b5b602d600160068110620013e057620013df62001bd0565b5b0154602d600060068110620013fa57620013f962001bd0565b5b0154096057557f21d1ad4787778ebe1fe648796a728cba28fdc1b56fda844fc2f5bf686ba122d76058556040518060400160405280602d60016006811062001447576200144662001bd0565b5b01548152602001602d60016006811062001466576200146562001bd0565b5b015481525060599060026200147d92919062001982565b5060405180604001604052806057548152602001605754815250605b906002620014a992919062001982565b506040518060200160405280602d600160068110620014cd57620014cc62001bd0565b5b0154815250605d906001620014e492919062001b27565b506040518060600160405280602d60016006811062001508576200150762001bd0565b5b01548152602001602d60016006811062001527576200152662001bd0565b5b01548152602001602d60016006811062001546576200154562001bd0565b5b0154815250605e9060036200155d92919062001b6c565b506040518060200160405280602d60016006811062001581576200158062001bd0565b5b015481525060619060016200159892919062001b27565b506040518060200160405280602d600160068110620015bc57620015bb62001bd0565b5b01548152506062906001620015d392919062001b27565b506040518060200160405280602d600160068110620015f757620015f662001bd0565b5b015481525060639060016200160e92919062001b27565b506040518060200160405280602d60016006811062001632576200163162001bd0565b5b015481525060649060016200164992919062001b27565b506040518060400160405280602d6001600681106200166d576200166c62001bd0565b5b01548152602001602d6001600681106200168c576200168b62001bd0565b5b01548152506065906002620016a392919062001982565b50604051806040016040528060575481526020016057548152506067906002620016cf92919062001982565b506040518060200160405280602d600160068110620016f357620016f262001bd0565b5b015481525060699060016200170a92919062001b27565b506040518060600160405280602d6001600681106200172e576200172d62001bd0565b5b01548152602001602d6001600681106200174d576200174c62001bd0565b5b01548152602001602d6001600681106200176c576200176b62001bd0565b5b0154815250606a9060036200178392919062001b6c565b506040518060200160405280602d600160068110620017a757620017a662001bd0565b5b0154815250606d906001620017be92919062001b27565b506040518060200160405280602d600160068110620017e257620017e162001bd0565b5b0154815250606e906001620017f992919062001b27565b506040518060200160405280602d6001600681106200181d576200181c62001bd0565b5b0154815250606f9060016200183492919062001b27565b506040518060200160405280602d60016006811062001858576200185762001bd0565b5b015481525060709060016200186f92919062001b27565b503480156200187d57600080fd5b5062001dd7565b60008160405160200162001899919062001cb1565b60405160208183030381529060405280519060200120604051602001620018c1919062001d49565b604051602081830303815290604052805190602001209050919050565b8280548282559060005260206000209081019282156200191d579160200282015b828111156200191c578251825591602001919060010190620018ff565b5b5090506200192c919062001bb1565b5090565b8280548282559060005260206000209081019282156200196f579160200282015b828111156200196e57825182559160200191906001019062001951565b5b5090506200197e919062001bb1565b5090565b8260028101928215620019b4579160200282015b82811115620019b357825182559160200191906001019062001996565b5b509050620019c3919062001bb1565b5090565b8260158101928215620019f9579160200282015b82811115620019f8578251825591602001919060010190620019db565b5b50905062001a08919062001bb1565b5090565b826006810192821562001a3e579160200282015b8281111562001a3d57825182559160200191906001019062001a20565b5b50905062001a4d919062001bb1565b5090565b826005810192821562001a83579160200282015b8281111562001a8257825182559160200191906001019062001a65565b5b50905062001a92919062001bb1565b5090565b82805462001aa49062001da2565b90600052602060002090601f01602090048101928262001ac8576000855562001b14565b82601f1062001ae357805160ff191683800117855562001b14565b8280016001018555821562001b14579182015b8281111562001b1357825182559160200191906001019062001af6565b5b50905062001b23919062001bb1565b5090565b826001810192821562001b59579160200282015b8281111562001b5857825182559160200191906001019062001b3b565b5b50905062001b68919062001bb1565b5090565b826003810192821562001b9e579160200282015b8281111562001b9d57825182559160200191906001019062001b80565b5b50905062001bad919062001bb1565b5090565b5b8082111562001bcc57600081600090555060010162001bb2565b5090565b7f4e487b7100000000000000000000000000000000000000000000000000000000600052603260045260246000fd5b7f4e487b7100000000000000000000000000000000000000000000000000000000600052601260045260246000fd5b600081519050919050565b600081905092915050565b60005b8381101562001c6457808201518184015260208101905062001c47565b8381111562001c74576000848401525b50505050565b600062001c878262001c2e565b62001c93818562001c39565b935062001ca581856020860162001c44565b80840191505092915050565b600062001cbf828462001c7a565b915081905092915050565b7f19457468657265756d205369676e6564204d6573736167653a0a333200000000600082015250565b600062001d02601c8362001c39565b915062001d0f8262001cca565b601c82019050919050565b6000819050919050565b6000819050919050565b62001d4362001d3d8262001d1a565b62001d24565b82525050565b600062001d568262001cf3565b915062001d64828462001d2e565b60208201915081905092915050565b7f4e487b7100000000000000000000000000000000000000000000000000000000600052602260045260246000fd5b6000600282049050600182168062001dbb57607f821691505b60208210810362001dd15762001dd062001d73565b5b50919050565b6142268062001de76000396000f3fe608060405234801561001057600080fd5b506004361061004c5760003560e01c80632d886354146100515780639c22c9511461006f578063d98966fd1461008d578063ffef4ff4146100bd575b600080fd5b6100596100db565b6040516100669190613706565b60405180910390f35b610077611234565b6040516100849190613706565b60405180910390f35b6100a760048036038101906100a29190613873565b611d86565b6040516100b49190613706565b60405180910390f35b6100c561205b565b6040516100d29190613910565b60405180910390f35b600080604860009054906101000a900473ffffffffffffffffffffffffffffffffffffffff1673ffffffffffffffffffffffffffffffffffffffff166101ad6046546047805461012a9061395a565b80601f01602080910402602001604051908101604052809291908181526020018280546101569061395a565b80156101a35780601f10610178576101008083540402835291602001916101a3565b820191906000526020600020905b81548152906001019060200180831161018657829003601f168201915b5050505050612116565b73ffffffffffffffffffffffffffffffffffffffff161490506000604051806101000160405280604051806040016040528060186000601581106101f4576101f361398b565b5b0154815260200160186001601581106102105761020f61398b565b5b015481525081526020016040518060400160405280601860026015811061023a5761023961398b565b5b0154815260200160186003601581106102565761025561398b565b5b01548152508152602001604051806040016040528060186004601581106102805761027f61398b565b5b01548152602001601860056015811061029c5761029b61398b565b5b01548152508152602001604051806040016040528060186006601581106102c6576102c561398b565b5b0154815260200160186007601581106102e2576102e161398b565b5b015481525081526020016040518060400160405280601860086015811061030c5761030b61398b565b5b0154815260200160186009601581106103285761032761398b565b5b0154815250815260200160405180604001604052806018600a601581106103525761035161398b565b5b015481526020016018600b6015811061036e5761036d61398b565b5b0154815250815260200160405180604001604052806018600c601581106103985761039761398b565b5b015481526020016018600d601581106103b4576103b361398b565b5b0154815250815260200160405180604001604052806018600e601581106103de576103dd61398b565b5b015481526020016018600f601581106103fa576103f961398b565b5b015481525081525090506000600190506000602d6004600681106104215761042061398b565b5b0154905060007f30644e72e131a029b85045b68181585d2833e84879b9709143e1f593f000000180610456576104556139ba565b5b602d60046006811061046b5761046a61398b565b5b01548309905060007f30644e72e131a029b85045b68181585d2833e84879b9709143e1f593f0000001806104a2576104a16139ba565b5b602d6004600681106104b7576104b661398b565b5b01548309905060007f30644e72e131a029b85045b68181585d2833e84879b9709143e1f593f0000001806104ee576104ed6139ba565b5b602d6004600681106105035761050261398b565b5b01548309905060007f30644e72e131a029b85045b68181585d2833e84879b9709143e1f593f00000018061053a576105396139ba565b5b602d60046006811061054f5761054e61398b565b5b01548309905060007f30644e72e131a029b85045b68181585d2833e84879b9709143e1f593f000000180610586576105856139ba565b5b602d60046006811061059b5761059a61398b565b5b01548309905060007f30644e72e131a029b85045b68181585d2833e84879b9709143e1f593f0000001806105d2576105d16139ba565b5b602d6004600681106105e7576105e661398b565b5b0154830990507f30644e72e131a029b85045b68181585d2833e84879b9709143e1f593f00000018061061c5761061b6139ba565b5b61062660016121e9565b890997507f30644e72e131a029b85045b68181585d2833e84879b9709143e1f593f000000180610659576106586139ba565b5b61066360026121e9565b880996507f30644e72e131a029b85045b68181585d2833e84879b9709143e1f593f000000180610696576106956139ba565b5b6106a060036121e9565b870995507f30644e72e131a029b85045b68181585d2833e84879b9709143e1f593f0000001806106d3576106d26139ba565b5b6106dd60046121e9565b860994507f30644e72e131a029b85045b68181585d2833e84879b9709143e1f593f0000001806107105761070f6139ba565b5b61071a60056121e9565b850993507f30644e72e131a029b85045b68181585d2833e84879b9709143e1f593f00000018061074d5761074c6139ba565b5b61075760066121e9565b840992507f30644e72e131a029b85045b68181585d2833e84879b9709143e1f593f00000018061078a576107896139ba565b5b61079460076121e9565b830991507f30644e72e131a029b85045b68181585d2833e84879b9709143e1f593f0000001806107c7576107c66139ba565b5b6107d160086121e9565b82099050600060405180604001604052806107ea612a15565b81526020016107f7612a15565b815250905060006108208b6000600881106108155761081461398b565b5b60200201518b612a39565b905061084d816108488d60016008811061083d5761083c61398b565b5b60200201518c612a39565b612b11565b905061087a816108758d60026008811061086a5761086961398b565b5b60200201518b612a39565b612b11565b90506108a7816108a28d6003600881106108975761089661398b565b5b60200201518a612a39565b612b11565b90506108d4816108cf8d6004600881106108c4576108c361398b565b5b602002015189612a39565b612b11565b9050610901816108fc8d6005600881106108f1576108f061398b565b5b602002015188612a39565b612b11565b905061092e816109298d60066008811061091e5761091d61398b565b5b602002015187612a39565b612b11565b905061095b816109568d60076008811061094b5761094a61398b565b5b602002015186612a39565b612b11565b90506000610a3e610a38610a33604d604051806040016040529081600082015481526020016001820154815250507f30644e72e131a029b85045b68181585d2833e84879b9709143e1f593f0000001806109b8576109b76139ba565b5b7f30644e72e131a029b85045b68181585d2833e84879b9709143e1f593f0000001806109e7576109e66139ba565b5b602d6002600681106109fc576109fb61398b565b5b01546065600160028110610a1357610a1261398b565b5b0154096065600060028110610a2b57610a2a61398b565b5b015408612a39565b612c0f565b8c612a39565b9050610b2881610b23610b1d610b18604d604051806040016040529081600082015481526020016001820154815250507f30644e72e131a029b85045b68181585d2833e84879b9709143e1f593f000000180610a9d57610a9c6139ba565b5b7f30644e72e131a029b85045b68181585d2833e84879b9709143e1f593f000000180610acc57610acb6139ba565b5b602d600260068110610ae157610ae061398b565b5b01546067600160028110610af857610af761398b565b5b0154096067600060028110610b1057610b0f61398b565b5b015408612a39565b612c0f565b8d612a39565b612b11565b9050610b8481610b7f610b79610b74604d604051806040016040529081600082015481526020016001820154815250506069600060018110610b6d57610b6c61398b565b5b0154612a39565b612c0f565b8c612a39565b612b11565b9050610d4381610d3e610d38610d33604d604051806040016040529081600082015481526020016001820154815250507f30644e72e131a029b85045b68181585d2833e84879b9709143e1f593f000000180610be357610be26139ba565b5b7f30644e72e131a029b85045b68181585d2833e84879b9709143e1f593f000000180610c1257610c116139ba565b5b7f30644e72e131a029b85045b68181585d2833e84879b9709143e1f593f000000180610c4157610c406139ba565b5b602d600260068110610c5657610c5561398b565b5b0154602d600260068110610c6d57610c6c61398b565b5b015409606a600260038110610c8557610c8461398b565b5b0154097f30644e72e131a029b85045b68181585d2833e84879b9709143e1f593f000000180610cb757610cb66139ba565b5b7f30644e72e131a029b85045b68181585d2833e84879b9709143e1f593f000000180610ce657610ce56139ba565b5b602d600260068110610cfb57610cfa61398b565b5b0154606a600160038110610d1257610d1161398b565b5b015409606a600060038110610d2a57610d2961398b565b5b01540808612a39565b612c0f565b8b612a39565b612b11565b9050610d9f81610d9a610d94610d8f604d60405180604001604052908160008201548152602001600182015481525050606d600060018110610d8857610d8761398b565b5b0154612a39565b612c0f565b8a612a39565b612b11565b9050610dfb81610df6610df0610deb604d60405180604001604052908160008201548152602001600182015481525050606e600060018110610de457610de361398b565b5b0154612a39565b612c0f565b89612a39565b612b11565b9050610e5781610e52610e4c610e47604d60405180604001604052908160008201548152602001600182015481525050606f600060018110610e4057610e3f61398b565b5b0154612a39565b612c0f565b88612a39565b612b11565b9050610eb381610eae610ea8610ea3604d604051806040016040529081600082015481526020016001820154815250506070600060018110610e9c57610e9b61398b565b5b0154612a39565b612c0f565b87612a39565b612b11565b9050610f1a81610f15610f1086600060028110610ed357610ed261398b565b5b6020020151610f0b604d60405180604001604052908160008201548152602001600182015481525050610f0660096121e9565b612a39565b612b11565b612c0f565b612b11565b9050610f5d81610f5885600160028110610f3757610f3661398b565b5b6020020151602d600260068110610f5157610f5061398b565b5b0154612a39565b612b11565b9050600061115183604f60405180604001604052908160008201600280602002604051908101604052809291908260028015610fae576020028201915b815481526020019060010190808311610f9a575b5050505050815260200160028201600280602002604051908101604052809291908260028015610ff3576020028201915b815481526020019060010190808311610fdf575b50505050508152505084601060405180604001604052908160008201600280602002604051908101604052809291908260028015611046576020028201915b815481526020019060010190808311611032575b505050505081526020016002820160028060200260405190810160405280929190826002801561108b576020028201915b815481526020019060010190808311611077575b5050505050815250506110b5896001600281106110ab576110aa61398b565b5b6020020151612c0f565b6014604051806040016040529081600082016002806020026040519081016040528092919082600280156110fe576020028201915b8154815260200190600101908083116110ea575b5050505050815260200160028201600280602002604051908101604052809291908260028015611143576020028201915b81548152602001906001019080831161112f575b505050505081525050612ccd565b90508d9050601860076015811061116b5761116a61398b565b5b015460186006601581106111825761118161398b565b5b0154149050601860096015811061119c5761119b61398b565b5b015460186008601581106111b3576111b261398b565b5b01541490506018600b601581106111cd576111cc61398b565b5b01546018600a601581106111e4576111e361398b565b5b01541490507f9ebf19a79884326bf6ddfcf4bd501eb6a52b40414ecd5d8a70514f606810801e816040516112189190613706565b60405180910390a1809e50505050505050505050505050505090565b6000807f30644e72e131a029b85045b68181585d2833e84879b9709143e1f593f000000180611266576112656139ba565b5b6033547f30644e72e131a029b85045b68181585d2833e84879b9709143e1f593f00000016112949190613a18565b7f30644e72e131a029b85045b68181585d2833e84879b9709143e1f593f0000001806112c3576112c26139ba565b5b7f30644e72e131a029b85045b68181585d2833e84879b9709143e1f593f0000001806112f2576112f16139ba565b5b6034547f30644e72e131a029b85045b68181585d2833e84879b9709143e1f593f000000180611324576113236139ba565b5b6018600f601581106113395761133861398b565b5b01546018600c601581106113505761134f61398b565b5b015408087f30644e72e131a029b85045b68181585d2833e84879b9709143e1f593f000000180611383576113826139ba565b5b60186009601581106113985761139761398b565b5b015460186006601581106113af576113ae61398b565b5b015408090890506000604860009054906101000a900473ffffffffffffffffffffffffffffffffffffffff1673ffffffffffffffffffffffffffffffffffffffff16611487604654604780546114049061395a565b80601f01602080910402602001604051908101604052809291908181526020018280546114309061395a565b801561147d5780601f106114525761010080835404028352916020019161147d565b820191906000526020600020905b81548152906001019060200180831161146057829003601f168201915b5050505050612116565b73ffffffffffffffffffffffffffffffffffffffff16149050600061155d604051806040016040528060186000601581106114c5576114c461398b565b5b0154815260200160186001601581106114e1576114e061398b565b5b0154815250604051806040016040528060186007601581106115065761150561398b565b5b0154815260200160186008601581106115225761152161398b565b5b0154815250602d60016006811061153c5761153b61398b565b5b015460186006601581106115535761155261398b565b5b0154600080611d86565b9050611606604051806040016040528060186000601581106115825761158161398b565b5b01548152602001601860016015811061159e5761159d61398b565b5b015481525060405180604001604052806018600d601581106115c3576115c261398b565b5b015481526020016018600e601581106115df576115de61398b565b5b01548152506057546018600c601581106115fc576115fb61398b565b5b0154600080611d86565b90506116c46040518060400160405280601860026015811061162b5761162a61398b565b5b0154815260200160186003601581106116475761164661398b565b5b015481525060405180604001604052806018600a6015811061166c5761166b61398b565b5b015481526020016018600b601581106116885761168761398b565b5b0154815250602d6001600681106116a2576116a161398b565b5b015460186009601581106116b9576116b861398b565b5b015460016000611d86565b905061176e604051806040016040528060186002601581106116e9576116e861398b565b5b0154815260200160186003601581106117055761170461398b565b5b01548152506040518060400160405280601860106015811061172a5761172961398b565b5b0154815260200160186011601581106117465761174561398b565b5b01548152506057546018600f601581106117635761176261398b565b5b015460016000611d86565b9050611816604051806040016040528060186004601581106117935761179261398b565b5b0154815260200160186005601581106117af576117ae61398b565b5b0154815250604051806040016040528060186012601581106117d4576117d361398b565b5b0154815260200160186013601581106117f0576117ef61398b565b5b0154815250602d60016006811061180a5761180961398b565b5b01548660006001611d86565b90506118be6040518060400160405280601860046015811061183b5761183a61398b565b5b0154815260200160186005601581106118575761185661398b565b5b01548152506040518060400160405280601860126015811061187c5761187b61398b565b5b0154815260200160186013601581106118985761189761398b565b5b0154815250602d6001600681106118b2576118b161398b565b5b01548660006001611d86565b9050611966604051806040016040528060186004601581106118e3576118e261398b565b5b0154815260200160186005601581106118ff576118fe61398b565b5b0154815250604051806040016040528060186012601581106119245761192361398b565b5b0154815260200160186013601581106119405761193f61398b565b5b0154815250602d60016006811061195a5761195961398b565b5b01548660006001611d86565b9050611a0e6040518060400160405280601860046015811061198b5761198a61398b565b5b0154815260200160186005601581106119a7576119a661398b565b5b0154815250604051806040016040528060186012601581106119cc576119cb61398b565b5b0154815260200160186013601581106119e8576119e761398b565b5b0154815250602d600160068110611a0257611a0161398b565b5b01548660006001611d86565b9050611ab660405180604001604052806018600460158110611a3357611a3261398b565b5b015481526020016018600560158110611a4f57611a4e61398b565b5b015481525060405180604001604052806018601260158110611a7457611a7361398b565b5b015481526020016018601360158110611a9057611a8f61398b565b5b0154815250602d600160068110611aaa57611aa961398b565b5b01548660006001611d86565b9050611b5e60405180604001604052806018600460158110611adb57611ada61398b565b5b015481526020016018600560158110611af757611af661398b565b5b015481525060405180604001604052806018601260158110611b1c57611b1b61398b565b5b015481526020016018601360158110611b3857611b3761398b565b5b0154815250602d600160068110611b5257611b5161398b565b5b01548660006001611d86565b9050611c0660405180604001604052806018600460158110611b8357611b8261398b565b5b015481526020016018600560158110611b9f57611b9e61398b565b5b015481525060405180604001604052806018601260158110611bc457611bc361398b565b5b015481526020016018601360158110611be057611bdf61398b565b5b0154815250602d600160068110611bfa57611bf961398b565b5b01548660006001611d86565b9050611cae60405180604001604052806018600460158110611c2b57611c2a61398b565b5b015481526020016018600560158110611c4757611c4661398b565b5b015481525060405180604001604052806018601260158110611c6c57611c6b61398b565b5b015481526020016018601360158110611c8857611c8761398b565b5b0154815250602d600160068110611ca257611ca161398b565b5b01548660006001611d86565b90508190506018600760158110611cc857611cc761398b565b5b01546018600660158110611cdf57611cde61398b565b5b01541490506018600960158110611cf957611cf861398b565b5b01546018600860158110611d1057611d0f61398b565b5b01541490506018600b60158110611d2a57611d2961398b565b5b01546018600a60158110611d4157611d4061398b565b5b01541490507f9ebf19a79884326bf6ddfcf4bd501eb6a52b40414ecd5d8a70514f606810801e81604051611d759190613706565b60405180910390a180935050505090565b60007f30644e72e131a029b85045b68181585d2833e84879b9709143e1f593f0000001876000015110611dee576040517f08c379a0000000000000000000000000000000000000000000000000000000008152600401611de590613acf565b60405180910390fd5b7f30644e72e131a029b85045b68181585d2833e84879b9709143e1f593f0000001876020015110611e54576040517f08c379a0000000000000000000000000000000000000000000000000000000008152600401611e4b90613b61565b60405180910390fd5b7f30644e72e131a029b85045b68181585d2833e84879b9709143e1f593f0000001866000015110611eba576040517f08c379a0000000000000000000000000000000000000000000000000000000008152600401611eb190613bf3565b60405180910390fd5b7f30644e72e131a029b85045b68181585d2833e84879b9709143e1f593f0000001866020015110611f20576040517f08c379a0000000000000000000000000000000000000000000000000000000008152600401611f1790613c85565b60405180910390fd5b7f30644e72e131a029b85045b68181585d2833e84879b9709143e1f593f00000018510611f82576040517f08c379a0000000000000000000000000000000000000000000000000000000008152600401611f7990613d17565b60405180910390fd5b7f30644e72e131a029b85045b68181585d2833e84879b9709143e1f593f00000018410611fe4576040517f08c379a0000000000000000000000000000000000000000000000000000000008152600401611fdb90613da9565b60405180910390fd5b6000611ff8611ff38888612a39565b612c0f565b9050600061201661201061200a612a15565b88612a39565b83612b11565b905060006120238a612c0f565b905061204c8961203288613035565b8461203c8a613129565b856120478c8c61324d565b612ccd565b93505050509695505050505050565b60008060cc90506000604090506000602d60006006811061207f5761207e61398b565b5b0154905060007f30644e72e131a029b85045b68181585d2833e84879b9709143e1f593f000000190506000806001905060005b858110156120dc5783848284098408925083818309915080806120d490613dc9565b9150506120b2565b5060006120f36120ed86898761343f565b85613537565b90508380612104576121036139ba565b5b83820992508297505050505050505090565b600080600080604185511461213157600093505050506121e3565b6020850151925060408501519150606085015160001a9050601b8160ff16101561216557601b816121629190613e1e565b90505b601b8160ff161415801561217d5750601c8160ff1614155b1561218e57600093505050506121e3565b600186828585604051600081526020016040526040516121b19493929190613e7d565b6020604051602081039080840390855afa1580156121d3573d6000803e3d6000fd5b5050506020604051035193505050505b92915050565b6000806001905060018314612346577f30644e72e131a029b85045b68181585d2833e84879b9709143e1f593f000000180612227576122266139ba565b5b7f30644e72e131a029b85045b68181585d2833e84879b9709143e1f593f000000180612256576122556139ba565b5b605960006002811061226b5761226a61398b565b5b01547f30644e72e131a029b85045b68181585d2833e84879b9709143e1f593f00000016122989190613a18565b605854087f30644e72e131a029b85045b68181585d2833e84879b9709143e1f593f0000001806122cb576122ca6139ba565b5b7f30644e72e131a029b85045b68181585d2833e84879b9709143e1f593f0000001806122fa576122f96139ba565b5b605960016002811061230f5761230e61398b565b5b01547f30644e72e131a029b85045b68181585d2833e84879b9709143e1f593f000000161233c9190613a18565b6058540884090990505b6002831461249c577f30644e72e131a029b85045b68181585d2833e84879b9709143e1f593f00000018061237d5761237c6139ba565b5b7f30644e72e131a029b85045b68181585d2833e84879b9709143e1f593f0000001806123ac576123ab6139ba565b5b605b6000600281106123c1576123c061398b565b5b01547f30644e72e131a029b85045b68181585d2833e84879b9709143e1f593f00000016123ee9190613a18565b605854087f30644e72e131a029b85045b68181585d2833e84879b9709143e1f593f000000180612421576124206139ba565b5b7f30644e72e131a029b85045b68181585d2833e84879b9709143e1f593f0000001806124505761244f6139ba565b5b605b6001600281106124655761246461398b565b5b01547f30644e72e131a029b85045b68181585d2833e84879b9709143e1f593f00000016124929190613a18565b6058540884090990505b6003831461254d577f30644e72e131a029b85045b68181585d2833e84879b9709143e1f593f0000001806124d3576124d26139ba565b5b7f30644e72e131a029b85045b68181585d2833e84879b9709143e1f593f000000180612502576125016139ba565b5b605d6000600181106125175761251661398b565b5b01547f30644e72e131a029b85045b68181585d2833e84879b9709143e1f593f00000016125449190613a18565b60585408820990505b60048314612748577f30644e72e131a029b85045b68181585d2833e84879b9709143e1f593f000000180612584576125836139ba565b5b7f30644e72e131a029b85045b68181585d2833e84879b9709143e1f593f0000001806125b3576125b26139ba565b5b605e6000600381106125c8576125c761398b565b5b01547f30644e72e131a029b85045b68181585d2833e84879b9709143e1f593f00000016125f59190613a18565b605854087f30644e72e131a029b85045b68181585d2833e84879b9709143e1f593f000000180612628576126276139ba565b5b7f30644e72e131a029b85045b68181585d2833e84879b9709143e1f593f000000180612657576126566139ba565b5b605e60016003811061266c5761266b61398b565b5b01547f30644e72e131a029b85045b68181585d2833e84879b9709143e1f593f00000016126999190613a18565b605854087f30644e72e131a029b85045b68181585d2833e84879b9709143e1f593f0000001806126cc576126cb6139ba565b5b7f30644e72e131a029b85045b68181585d2833e84879b9709143e1f593f0000001806126fb576126fa6139ba565b5b605e6002600381106127105761270f61398b565b5b01547f30644e72e131a029b85045b68181585d2833e84879b9709143e1f593f000000161273d9190613a18565b605854088609090990505b600583146127f9577f30644e72e131a029b85045b68181585d2833e84879b9709143e1f593f00000018061277f5761277e6139ba565b5b7f30644e72e131a029b85045b68181585d2833e84879b9709143e1f593f0000001806127ae576127ad6139ba565b5b60616000600181106127c3576127c261398b565b5b01547f30644e72e131a029b85045b68181585d2833e84879b9709143e1f593f00000016127f09190613a18565b60585408820990505b600683146128aa577f30644e72e131a029b85045b68181585d2833e84879b9709143e1f593f0000001806128305761282f6139ba565b5b7f30644e72e131a029b85045b68181585d2833e84879b9709143e1f593f00000018061285f5761285e6139ba565b5b60626000600181106128745761287361398b565b5b01547f30644e72e131a029b85045b68181585d2833e84879b9709143e1f593f00000016128a19190613a18565b60585408820990505b6007831461295b577f30644e72e131a029b85045b68181585d2833e84879b9709143e1f593f0000001806128e1576128e06139ba565b5b7f30644e72e131a029b85045b68181585d2833e84879b9709143e1f593f0000001806129105761290f6139ba565b5b60636000600181106129255761292461398b565b5b01547f30644e72e131a029b85045b68181585d2833e84879b9709143e1f593f00000016129529190613a18565b60585408820990505b60088314612a0c577f30644e72e131a029b85045b68181585d2833e84879b9709143e1f593f000000180612992576129916139ba565b5b7f30644e72e131a029b85045b68181585d2833e84879b9709143e1f593f0000001806129c1576129c06139ba565b5b60646000600181106129d6576129d561398b565b5b01547f30644e72e131a029b85045b68181585d2833e84879b9709143e1f593f0000001612a039190613a18565b60585408820990505b80915050919050565b612a1d613623565b6040518060400160405280600181526020016002815250905090565b612a41613623565b612a4961363d565b836000015181600060038110612a6257612a6161398b565b5b602002018181525050836020015181600160038110612a8457612a8361398b565b5b6020020181815250508281600260038110612aa257612aa161398b565b5b602002018181525050600060608360808460076107d05a03fa90508060008103612ac857fe5b5080612b09576040517f08c379a0000000000000000000000000000000000000000000000000000000008152600401612b0090613f0e565b60405180910390fd5b505092915050565b612b19613623565b612b2161365f565b836000015181600060048110612b3a57612b3961398b565b5b602002018181525050836020015181600160048110612b5c57612b5b61398b565b5b602002018181525050826000015181600260048110612b7e57612b7d61398b565b5b602002018181525050826020015181600360048110612ba057612b9f61398b565b5b602002018181525050600060608360c08460066107d05a03fa90508060008103612bc657fe5b5080612c07576040517f08c379a0000000000000000000000000000000000000000000000000000000008152600401612bfe90613f7a565b60405180910390fd5b505092915050565b612c17613623565b60008260000151148015612c2f575060008260200151145b15612c525760405180604001604052806000815260200160008152509050612cc8565b6040518060400160405280836000015181526020017f30644e72e131a029b85045b68181585d97816a916871ca8d3c208c16d87cfd478460200151612c979190613f9a565b7f30644e72e131a029b85045b68181585d97816a916871ca8d3c208c16d87cfd47612cc29190613a18565b81525090505b919050565b60008060405180606001604052808981526020018781526020018581525090506000604051806060016040528089815260200187815260200185815250905060006012905060008167ffffffffffffffff811115612d2e57612d2d613746565b5b604051908082528060200260200182016040528015612d5c5781602001602082028036833780820191505090505b50905060005b6003811015612f9a576000600682612d7a9190613fcb565b9050858260038110612d8f57612d8e61398b565b5b60200201516000015183600083612da69190614025565b81518110612db757612db661398b565b5b602002602001018181525050858260038110612dd657612dd561398b565b5b60200201516020015183600183612ded9190614025565b81518110612dfe57612dfd61398b565b5b602002602001018181525050848260038110612e1d57612e1c61398b565b5b602002015160000151600060028110612e3957612e3861398b565b5b602002015183600283612e4c9190614025565b81518110612e5d57612e5c61398b565b5b602002602001018181525050848260038110612e7c57612e7b61398b565b5b602002015160000151600160028110612e9857612e9761398b565b5b602002015183600383612eab9190614025565b81518110612ebc57612ebb61398b565b5b602002602001018181525050848260038110612edb57612eda61398b565b5b602002015160200151600060028110612ef757612ef661398b565b5b602002015183600483612f0a9190614025565b81518110612f1b57612f1a61398b565b5b602002602001018181525050848260038110612f3a57612f3961398b565b5b602002015160200151600160028110612f5657612f5561398b565b5b602002015183600583612f699190614025565b81518110612f7a57612f7961398b565b5b602002602001018181525050508080612f9290613dc9565b915050612d62565b50612fa3613681565b6000602082602086026020860160086107d05a03fa90508060008103612fc557fe5b5080613006576040517f08c379a0000000000000000000000000000000000000000000000000000000008152600401612ffd906140c7565b60405180910390fd5b60008260006001811061301c5761301b61398b565b5b6020020151141596505050505050509695505050505050565b61303d6136a3565b6040518060400160405280604051806040016040528060048660026130629190613fcb565b815481106130735761307261398b565b5b9060005260206000200154815260200160058660026130929190613fcb565b815481106130a3576130a261398b565b5b90600052602060002001548152508152602001604051806040016040528060068660026130d09190613fcb565b815481106130e1576130e061398b565b5b9060005260206000200154815260200160078660026131009190613fcb565b815481106131115761311061398b565b5b90600052602060002001548152508152509050919050565b6131316136a3565b60405180604001604052806040518060400160405280600460018760026131589190613fcb565b6131629190614025565b815481106131735761317261398b565b5b90600052602060002001548152602001600560018760026131949190613fcb565b61319e9190614025565b815481106131af576131ae61398b565b5b906000526020600020015481525081526020016040518060400160405280600660018760026131de9190613fcb565b6131e89190614025565b815481106131f9576131f861398b565b5b906000526020600020015481526020016007600187600261321a9190613fcb565b6132249190614025565b815481106132355761323461398b565b5b90600052602060002001548152508152509050919050565b6132556136a3565b81156132f9576010604051806040016040529081600082016002806020026040519081016040528092919082600280156132a4576020028201915b815481526020019060010190808311613290575b50505050508152602001600282016002806020026040519081016040528092919082600280156132e9576020028201915b8154815260200190600101908083116132d5575b5050505050815250509050613439565b6000830361339f57600c6040518060400160405290816000820160028060200260405190810160405280929190826002801561334a576020028201915b815481526020019060010190808311613336575b505050505081526020016002820160028060200260405190810160405280929190826002801561338f576020028201915b81548152602001906001019080831161337b575b5050505050815250509050613439565b6008604051806040016040529081600082016002806020026040519081016040528092919082600280156133e8576020028201915b8154815260200190600101908083116133d4575b505050505081526020016002820160028060200260405190810160405280929190826002801561342d576020028201915b815481526020019060010190808311613419575b50505050508152505090505b92915050565b6000808203613483576040517f08c379a000000000000000000000000000000000000000000000000000000000815260040161347a90614133565b60405180910390fd5b600084036134945760009050613530565b600083036134a55760019050613530565b60006001905060007f800000000000000000000000000000000000000000000000000000000000000090505b600081111561352a57838186161515870a85848509099150836002820486161515870a85848509099150836004820486161515870a85848509099150836008820486161515870a858485090991506010810490506134d1565b81925050505b9392505050565b60008083141580156135495750818314155b8015613556575060008214155b613595576040517f08c379a000000000000000000000000000000000000000000000000000000000815260040161358c9061419f565b60405180910390fd5b60008060019050600084905060005b600087146136165786826135b891906141bf565b90508286806135ca576135c96139ba565b5b87806135d9576135d86139ba565b5b858409886135e79190613a18565b860880945081955050508687826135fe9190613fcb565b836136099190613a18565b80985081935050506135a4565b8394505050505092915050565b604051806040016040528060008152602001600081525090565b6040518060600160405280600390602082028036833780820191505090505090565b6040518060800160405280600490602082028036833780820191505090505090565b6040518060200160405280600190602082028036833780820191505090505090565b60405180604001604052806136b66136c9565b81526020016136c36136c9565b81525090565b6040518060400160405280600290602082028036833780820191505090505090565b60008115159050919050565b613700816136eb565b82525050565b600060208201905061371b60008301846136f7565b92915050565b6000604051905090565b600080fd5b600080fd5b6000601f19601f8301169050919050565b7f4e487b7100000000000000000000000000000000000000000000000000000000600052604160045260246000fd5b61377e82613735565b810181811067ffffffffffffffff8211171561379d5761379c613746565b5b80604052505050565b60006137b0613721565b90506137bc8282613775565b919050565b6000819050919050565b6137d4816137c1565b81146137df57600080fd5b50565b6000813590506137f1816137cb565b92915050565b60006040828403121561380d5761380c613730565b5b61381760406137a6565b90506000613827848285016137e2565b600083015250602061383b848285016137e2565b60208301525092915050565b613850816136eb565b811461385b57600080fd5b50565b60008135905061386d81613847565b92915050565b60008060008060008061010087890312156138915761389061372b565b5b600061389f89828a016137f7565b96505060406138b089828a016137f7565b95505060806138c189828a016137e2565b94505060a06138d289828a016137e2565b93505060c06138e389828a016137e2565b92505060e06138f489828a0161385e565b9150509295509295509295565b61390a816137c1565b82525050565b60006020820190506139256000830184613901565b92915050565b7f4e487b7100000000000000000000000000000000000000000000000000000000600052602260045260246000fd5b6000600282049050600182168061397257607f821691505b6020821081036139855761398461392b565b5b50919050565b7f4e487b7100000000000000000000000000000000000000000000000000000000600052603260045260246000fd5b7f4e487b7100000000000000000000000000000000000000000000000000000000600052601260045260246000fd5b7f4e487b7100000000000000000000000000000000000000000000000000000000600052601160045260246000fd5b6000613a23826137c1565b9150613a2e836137c1565b925082821015613a4157613a406139e9565b5b828203905092915050565b600082825260208201905092915050565b7f56657269666965722e7665726966794b5a473a205f636f6d6d69746d656e742e60008201527f58206973206f7574206f662072616e6765000000000000000000000000000000602082015250565b6000613ab9603183613a4c565b9150613ac482613a5d565b604082019050919050565b60006020820190508181036000830152613ae881613aac565b9050919050565b7f56657269666965722e7665726966794b5a473a205f636f6d6d69746d656e742e60008201527f59206973206f7574206f662072616e6765000000000000000000000000000000602082015250565b6000613b4b603183613a4c565b9150613b5682613aef565b604082019050919050565b60006020820190508181036000830152613b7a81613b3e565b9050919050565b7f56657269666965722e7665726966794b5a473a205f70726f6f662e582069732060008201527f6f7574206f662072616e67650000000000000000000000000000000000000000602082015250565b6000613bdd602c83613a4c565b9150613be882613b81565b604082019050919050565b60006020820190508181036000830152613c0c81613bd0565b9050919050565b7f56657269666965722e7665726966794b5a473a205f70726f6f662e592069732060008201527f6f7574206f662072616e67650000000000000000000000000000000000000000602082015250565b6000613c6f602c83613a4c565b9150613c7a82613c13565b604082019050919050565b60006020820190508181036000830152613c9e81613c62565b9050919050565b7f56657269666965722e7665726966794b5a473a205f696e646578206973206f7560008201527f74206f662072616e676500000000000000000000000000000000000000000000602082015250565b6000613d01602a83613a4c565b9150613d0c82613ca5565b604082019050919050565b60006020820190508181036000830152613d3081613cf4565b9050919050565b7f56657269666965722e7665726966794b5a473a205f76616c7565206973206f7560008201527f74206f662072616e676500000000000000000000000000000000000000000000602082015250565b6000613d93602a83613a4c565b9150613d9e82613d37565b604082019050919050565b60006020820190508181036000830152613dc281613d86565b9050919050565b6000613dd4826137c1565b91507fffffffffffffffffffffffffffffffffffffffffffffffffffffffffffffffff8203613e0657613e056139e9565b5b600182019050919050565b600060ff82169050919050565b6000613e2982613e11565b9150613e3483613e11565b92508260ff03821115613e4a57613e496139e9565b5b828201905092915050565b6000819050919050565b613e6881613e55565b82525050565b613e7781613e11565b82525050565b6000608082019050613e926000830187613e5f565b613e9f6020830186613e6e565b613eac6040830185613e5f565b613eb96060830184613e5f565b95945050505050565b7f70616972696e672d6d756c2d6661696c65640000000000000000000000000000600082015250565b6000613ef8601283613a4c565b9150613f0382613ec2565b602082019050919050565b60006020820190508181036000830152613f2781613eeb565b9050919050565b7f70616972696e672d6164642d6661696c65640000000000000000000000000000600082015250565b6000613f64601283613a4c565b9150613f6f82613f2e565b602082019050919050565b60006020820190508181036000830152613f9381613f57565b9050919050565b6000613fa5826137c1565b9150613fb0836137c1565b925082613fc057613fbf6139ba565b5b828206905092915050565b6000613fd6826137c1565b9150613fe1836137c1565b9250817fffffffffffffffffffffffffffffffffffffffffffffffffffffffffffffffff048311821515161561401a576140196139e9565b5b828202905092915050565b6000614030826137c1565b915061403b836137c1565b9250827fffffffffffffffffffffffffffffffffffffffffffffffffffffffffffffffff038211156140705761406f6139e9565b5b828201905092915050565b7f70616972696e672d6f70636f64652d6661696c65640000000000000000000000600082015250565b60006140b1601583613a4c565b91506140bc8261407b565b602082019050919050565b600060208201905081810360008301526140e0816140a4565b9050919050565b7f4d6f64756c7573206973207a65726f0000000000000000000000000000000000600082015250565b600061411d600f83613a4c565b9150614128826140e7565b602082019050919050565b6000602082019050818103600083015261414c81614110565b9050919050565b7f496e76616c6964206e756d626572000000000000000000000000000000000000600082015250565b6000614189600e83613a4c565b915061419482614153565b602082019050919050565b600060208201905081810360008301526141b88161417c565b9050919050565b60006141ca826137c1565b91506141d5836137c1565b9250826141e5576141e46139ba565b5b82820490509291505056fea26469706673582212207b8c34abebe0ba65a1166c2bb86ce58566609801bffb875cd782fb56e6ad19e664736f6c634300080d003332303930303432393839393239313030393037333239393238393436393636303134393731363738353539363235313439313330303639323033353638313439323031363933393137393235372c2034333336393130323335363836393631353338323835393936353237323731373734393336373139303538383334353439353338363836303430373438373135323833383132323030393719ec5dc5aa05a220cd210a113352596ebf80d06a6f776b8e0c656e50a5c5567f1e8a7f23fb27f77ea5b5d42f0e2384facdebebd85f026e2a73e94d4690a40a6801",
  "immutableReferences": {},
  "source": "// Modified from https://github.com/appliedzkp/semaphore/blob/master/contracts/sol/verifier.sol\r\n// SPDX-License-Identifier: MIT\r\n\r\n// please notice that current code may be temporary code for cost estimation, and right version is annotated\r\n// there's even two version of 'proof', one for batched one not, currently use the batched one\r\n// unannotate the other if run verifySonic\r\n\r\npragma solidity >=0.4.22 <0.9.0;\r\npragma experimental ABIEncoderV2;\r\nimport \"./Pairing.sol\";\r\n// import \"./PolyCoeff.sol\";\r\nimport { Constants } from \"./Constants.sol\";\r\n// import \"@openzeppelin/contracts/utils/Strings.sol\";\r\n\r\ncontract Verifier is Constants {\r\n\r\n    using Pairing for *;\r\n\r\n    // PolyCoeff polyCoeff;\r\n\r\n    event verifyResult(bool result);\r\n    // description in F below\r\n\r\n    // temporarily use this for kzg-commitment version verifier and batched proof\r\n    uint256[21] Proof = [\r\n        uint256(20435686948508171234472206488737953800505595616105823290561271581793730135986),\r\n        uint256(7613038940582986439878577004424311309737615170791456916446723479068371769225),\r\n        uint256(20435686948508171234472206488737953800505595616105823290561271581793730135986),\r\n        uint256(7613038940582986439878577004424311309737615170791456916446723479068371769225),\r\n        uint256(20435686948508171234472206488737953800505595616105823290561271581793730135986),\r\n        uint256(7613038940582986439878577004424311309737615170791456916446723479068371769225),\r\n        uint256(20435686948508171234472206488737953800505595616105823290561271581793730135986),\r\n        uint256(7613038940582986439878577004424311309737615170791456916446723479068371769225),\r\n        uint256(20435686948508171234472206488737953800505595616105823290561271581793730135986),\r\n        uint256(7613038940582986439878577004424311309737615170791456916446723479068371769225),\r\n        uint256(20435686948508171234472206488737953800505595616105823290561271581793730135986),\r\n        uint256(7613038940582986439878577004424311309737615170791456916446723479068371769225),\r\n        uint256(20435686948508171234472206488737953800505595616105823290561271581793730135986),\r\n        uint256(7613038940582986439878577004424311309737615170791456916446723479068371769225),\r\n        uint256(20435686948508171234472206488737953800505595616105823290561271581793730135986),\r\n        uint256(7613038940582986439878577004424311309737615170791456916446723479068371769225),\r\n        uint256(20435686948508171234472206488737953800505595616105823290561271581793730135986),\r\n        uint256(7613038940582986439878577004424311309737615170791456916446723479068371769225),\r\n        uint256(19848703903105846067635106277601755727734486581037082434405934553883502968806),\r\n        uint256(7073067203970200196273245091229017314841577127190841947842173598530677375580),\r\n        uint256(11142795172845103846997117758219330284910812886430955732663385421662518242916)\r\n    ];\r\n\r\n    // temporarily this is for original sonic\r\n    // uint256[21] Proof = [\r\n    //     uint256(20435686948508171234472206488737953800505595616105823290561271581793730135986),\r\n    //     uint256(7613038940582986439878577004424311309737615170791456916446723479068371769225),\r\n    //     uint256(20900429899291009073299289469660149716785596251491300692035681492016939179257),\r\n    //     uint256(17015433841169487450406840425175642150965883946544965612916879717959251917877),\r\n    //     uint256(433691023568696153828599652727177493671905883454953868604074871528381220097),\r\n    //     uint256(10320531664273889342578906132837836076031009559738199149165995480549188738219),\r\n    //     uint256(5841514956038981489672186264970094693930045609713312309929445225955171101947),\r\n    //     uint256(5021024840007099401420413415719005463562614305701472747429400657816854795888),\r\n    //     uint256(20774065911754029615648528083815650325450840922528127398846513310899898519818),\r\n    //     uint256(15033194806153309440324576121312701377491848712637707126378339071163915088607),\r\n    //     uint256(13797601081368067296147105517336555699959400728196376360418452678919689273357),\r\n    //     uint256(347536244405038501480645670232637364896709701574004323632284243300674648233),\r\n    //     uint256(14150985670258525975582637074878024272235049272474457475329855381177734047698),\r\n    //     uint256(2655786006985334435742353147654701867454007390061009682990360208958229883457),\r\n    //     uint256(19749978915220999581635876327451130211831443864540429941950424972239040718725),\r\n    //     uint256(18652734379260577017619098828238354228621932558467343220803598526754221068969),\r\n    //     uint256(19231643171984527412379363884712632725022106910875011856721870145973184299950),\r\n    //     uint256(11890584382703984881384687349129438589403848436060509080598302278432395889958),\r\n    //     uint256(19848703903105846067635106277601755727734486581037082434405934553883502968806),\r\n    //     uint256(7073067203970200196273245091229017314841577127190841947842173598530677375580),\r\n    //     uint256(11142795172845103846997117758219330284910812886430955732663385421662518242916)\r\n    // ];\r\n\r\n    uint256[6] Randoms = [\r\n        uint256(21356640755055926883299664242251323519715676831624930462071588778907420237277),\r\n        uint256(21284924740537517593391635090683107806948436131904811688892120057033464016678),\r\n        uint256(21245863740537517593391635090683107806948436131465498421988152500056051919194), // z\r\n        uint256(21310127601857075097195740179019725106470167450176016701474654076975565675629), // x\r\n        uint256(21300179784197405894513072539865320928097398620497813074953097024203243212233), // beta\r\n        uint256(21310127601857075097195740179019725106470167450176016701474654076975565675629)  // alpha\r\n    ];\r\n    // length of longest u,v,w, i.e. longest length of a,b,c, linear\r\n    // uint256 N = 2994;\r\n\r\n    uint256 evalK = uint256(11598511819595573397693757683043215863237090817957830497519701049476846220233);\r\n    uint256 evalS = Proof[20];\r\n\r\n    // SOCC_hscS = [G1Point S_j, uint256 s_j, G1Point W_j]\r\n    uint256[5] SOCC_hscS = [\r\n        uint256(4856595452220518861283513887787149560249872199754148373623768058895650888886),\r\n        uint256(18903793806709064235976701805982270837399009185115750427816521247566249210556),\r\n        uint256(11142795172845103846997117758219330284910812886430955732663385421662518242916),\r\n        uint256(21371202341828297453905088304285070177929072675831707150146249345026206448204),\r\n        uint256(2804295765584777874267821186909392907007222244895837511075392229436674961086)\r\n    ];\r\n    // SOCC_hscW = [uint256 s'_j,G1Point W'_j, G1Point Q_j]\r\n    uint256[5] SOCC_hscW = [\r\n        uint256(10516069979663785554384039720791935537971662430097624533692998141893610132813),\r\n        uint256(4047408704098476939730481302397316844045052246660100325786631118072453155095),\r\n        uint256(3536770324764440576997419732517461268782698510962602892817204324264966117745),\r\n        uint256(14245367996788138561788347307320292816184394224142842975302936827932398609764),\r\n        uint256(4809015920432886449944012129537258787815219963382067822305826740230093200527)\r\n    ];\r\n\r\n    Pairing.G1Point hscQv = Pairing.G1Point(\r\n        uint256(2990558601454446836641627272921201963123578559834602407524792456795005493261),\r\n        uint256(13202662347545347168000079135411531495309137838398006144762638337293564502641)\r\n    );\r\n    Pairing.G1Point hscC = Pairing.G1Point(\r\n        uint256(20354021681082976488982424663336191185782081465046767166624106617637273115698),\r\n        uint256(7434894914590215425794637416957100516507193983165584369402225555559623348194)\r\n    );\r\n\r\n    uint256 u = uint256(8197071660809916300712359474937866146139983659726903111927633346212682272753);\r\n    uint256 v = uint256(18304223670379022123371455395869338667757056554451611927086438308637909615067);\r\n\r\n    // from terminal\r\n    uint256 s_uv = uint256(7791702837224372263152657165191932519240106980588006270334507770946892728366);\r\n\r\n    // from Go\r\n    bytes32 message = ethMessageHash(\"20900429899291009073299289469660149716785596251491300692035681492016939179257, 433691023568696153828599652727177493671905883454953868604074871528381220097\");\r\n    bytes sig = hex\"19ec5dc5aa05a220cd210a113352596ebf80d06a6f776b8e0c656e50a5c5567f1e8a7f23fb27f77ea5b5d42f0e2384facdebebd85f026e2a73e94d4690a40a6801\";\r\n    address addr = 0xE448992FdEaF94784bBD8f432d781C061D907985;\r\n\r\n    // The G2 generator\r\n    // IMPORTANT: why it's here? because the G2Gen() doesn't work in verify() for unknown reason\r\n    Pairing.G2Point g2Generator = Pairing.G2Point({\r\n        X: [ Constants.SRS_G2_X_0[0], Constants.SRS_G2_X_1[0] ],\r\n        Y: [ Constants.SRS_G2_Y_0[0], Constants.SRS_G2_Y_1[0] ]\r\n    });\r\n    // g\r\n    Pairing.G1Point g = Pairing.G1Point(1, 2);\r\n    // I think it's h in SRS\r\n    Pairing.G2Point SRS_G2_1 = Pairing.G2Point({\r\n        X: [ Constants.SRS_G2_X_0[1], Constants.SRS_G2_X_1[1] ],\r\n        Y: [ Constants.SRS_G2_Y_0[1], Constants.SRS_G2_Y_1[1] ]\r\n    });\r\n    // h^\r\n    Pairing.G2Point SRS_G2_2 = Pairing.G2Point({\r\n        X: [ SRS_G2_X_0_Pos[2], SRS_G2_X_1_Pos[2] ],\r\n        Y: [ SRS_G2_Y_0_Pos[2], SRS_G2_Y_1_Pos[2] ]\r\n    });\r\n    uint256 yz = mulmod(Randoms[0], Randoms[1], Pairing.BABYJUB_P);\r\n    // z, z < BABYJUB_P\r\n    uint256 z = uint256(15296790970327023790902573209632219845262752031560971643217337210279580213975);\r\n    // S, each element < BABYJUB_P\r\n    uint256[2] S1 = [Randoms[1], Randoms[1]];\r\n    uint256[2] S2 = [yz,  yz];\r\n    uint256[1] S3 = [Randoms[1]];\r\n    uint256[3] S4 = [Randoms[1], Randoms[1], Randoms[1]];\r\n    uint256[1] S5 = [Randoms[1]];\r\n    uint256[1] S6 = [Randoms[1]];\r\n    uint256[1] S7 = [Randoms[1]];\r\n    uint256[1] S8 = [Randoms[1]];\r\n    // gamma [0] + [1]*z + [2]*z^2 + ...\r\n    uint256[2] gamma1 = [Randoms[1], Randoms[1]];\r\n    uint256[2] gamma2 = [yz,  yz];\r\n    uint256[1] gamma3 = [Randoms[1]];\r\n    uint256[3] gamma4 = [Randoms[1], Randoms[1], Randoms[1]];\r\n    uint256[1] gamma5 = [Randoms[1]];\r\n    uint256[1] gamma6 = [Randoms[1]];\r\n    uint256[1] gamma7 = [Randoms[1]];\r\n    uint256[1] gamma8 = [Randoms[1]];\r\n\r\n\r\n    // Sonic version - Verify a single-point evaluation of a polynominal\r\n    function verify(\r\n        Pairing.G1Point memory _commitment, // F\r\n        Pairing.G1Point memory _proof, // W\r\n        uint256 _index,  // z\r\n        uint256 _value,  // F(z) or v\r\n        uint proofIndex,\r\n        bool isT\r\n    ) public view returns (bool) {\r\n        // Make sure each parameter is less than the prime q\r\n        require(_commitment.X < BABYJUB_P, \"Verifier.verifyKZG: _commitment.X is out of range\");\r\n        require(_commitment.Y < BABYJUB_P, \"Verifier.verifyKZG: _commitment.Y is out of range\");\r\n        require(_proof.X < BABYJUB_P, \"Verifier.verifyKZG: _proof.X is out of range\");\r\n        require(_proof.Y < BABYJUB_P, \"Verifier.verifyKZG: _proof.Y is out of range\");\r\n        require(_index < BABYJUB_P, \"Verifier.verifyKZG: _index is out of range\");\r\n        require(_value < BABYJUB_P, \"Verifier.verifyKZG: _value is out of range\");\r\n       \r\n        Pairing.G1Point memory negProof = Pairing.negate(Pairing.mulScalar(_proof, _index));\r\n        Pairing.G1Point memory mulProof = Pairing.plus(Pairing.mulScalar(Constants.G1Gen(), _value), negProof);\r\n        Pairing.G1Point memory negCm = Pairing.negate(_commitment);\r\n\r\n        return Pairing.pairing_3point(_proof, Constants.SRS_G2_hAlphaX1(proofIndex),\r\n                                mulProof, Constants.SRS_G2_hAlphaX0(proofIndex),\r\n                                negCm, Constants.SRS_G2_hAlphaXdMax(proofIndex, isT));\r\n    }\r\n\r\n\r\n\r\n    /*\r\n     * Verifies a single-point evaluation of a polynominal using the KZG\r\n     * commitment scheme.\r\n     *    - p(X) is a polynominal\r\n     *    - _value = p(_index) \r\n     *    - commitment = commit(p)\r\n     *    - proof = genProof(p, _index, _value)\r\n     * Returns true if and only if the following holds, and returns false\r\n     * otherwise:\r\n     *     e(commitment - commit([_value]), G2.g) == e(proof, commit([0, 1]) - zCommit)\r\n     * @param _commitment The KZG polynominal commitment.\r\n     * @param _proof The proof.\r\n     * @param _index The x-value at which to evaluate the polynominal.\r\n     * @param _value The result of the polynominal evaluation.\r\n     */\r\n    // KZG version - Verify a single-point evaluation of a polynominal\r\n\r\n    // function verify(\r\n    //     Pairing.G1Point memory _commitment, // F\r\n    //     Pairing.G1Point memory _proof, // \r\n    //     uint256 _index,  // z\r\n    //     uint256 _value  // F(z) or v\r\n    //     //uint proofIndex\r\n    // ) public view returns (bool) {\r\n    //     // Make sure each parameter is less than the prime q\r\n    //     require(_commitment.X < BABYJUB_P, \"Verifier.verifyKZG: _commitment.X is out of range\");\r\n    //     require(_commitment.Y < BABYJUB_P, \"Verifier.verifyKZG: _commitment.Y is out of range\");\r\n    //     require(_proof.X < BABYJUB_P, \"Verifier.verifyKZG: _proof.X is out of range\");\r\n    //     require(_proof.Y < BABYJUB_P, \"Verifier.verifyKZG: _proof.Y is out of range\");\r\n    //     require(_index < BABYJUB_P, \"Verifier.verifyKZG: _index is out of range\");\r\n    //     require(_value < BABYJUB_P, \"Verifier.verifyKZG: _value is out of range\");\r\n    //     // Check that \r\n    //     //     e(commitment - aCommit, G2.g) == e(proof, xCommit - zCommit)\r\n    //     //     e(commitment - aCommit, G2.g) / e(proof, xCommit - zCommit) == 1\r\n    //     //     e(commitment - aCommit, G2.g) * e(proof, xCommit - zCommit) ^ -1 == 1\r\n    //     //     e(commitment - aCommit, G2.g) * e(-proof, xCommit - zCommit) == 1\r\n    //     // where:\r\n    //     //     aCommit = commit([_value]) = SRS_G1_0 * _value\r\n    //     //     xCommit = commit([0, 1]) = SRS_G2_1\r\n    //     //     zCommit = commit([_index]) = SRS_G2_1 * _index\r\n\r\n    //     // To avoid having to perform an expensive operation in G2 to compute\r\n    //     // xCommit - zCommit, we instead check the equivalent equation:\r\n    //     //     e(commitment - aCommit, G2.g) * e(-proof, xCommit) * e(-proof, -zCommit) == 1\r\n    //     //     e(commitment - aCommit, G2.g) * e(-proof, xCommit) * e(proof, zCommit) == 1\r\n    //     //     e(commitment - aCommit, G2.g) * e(-proof, xCommit) * e(index * proof, G2.g) == 1\r\n    //     //     e((index * proof) + (commitment - aCommit), G2.g) * e(-proof, xCommit) == 1\r\n\r\n    //     // Compute commitment - aCommitment\r\n    //     Pairing.G1Point memory commitmentMinusA = Pairing.plus(\r\n    //         _commitment,\r\n    //         Pairing.negate(\r\n    //             Pairing.mulScalar(Constants.G1Gen(), _value)\r\n    //         )\r\n    //     );\r\n\r\n    //     // Negate the proof\r\n    //     Pairing.G1Point memory negProof = Pairing.negate(_proof);\r\n\r\n    //     // Compute index * proof\r\n    //     Pairing.G1Point memory indexMulProof = Pairing.mulScalar(_proof, _index);\r\n\r\n    //     // Return true if and only if\r\n    //     // e((index * proof) + (commitment - aCommitment), G2.g) * e(-proof, xCommit) == 1\r\n    //     return Pairing.pairing(\r\n    //         Pairing.plus(indexMulProof, commitmentMinusA),\r\n    //         g2Generator,\r\n    //         negProof,\r\n    //         SRS_G2_1 // it's h. original author of kzg commitment code call it 'xCommit' here\r\n    //     );\r\n    // }\r\n\r\n    // modified sonic verifier using KZG commitment\r\n\r\n    // function verifySonic_KZG(\r\n    //     // uint256[21] memory Proof,\r\n    //     // uint256[2] memory Randoms\r\n    // ) public returns (bool) {\r\n\r\n    //     // simulate calculating kY\r\n    //     // uint256 ky = evalKPoly();\r\n    //     // // // simulate calculating sXY\r\n    //     // uint256 sx = evalXPoly();\r\n    //     // uint256 sy = evalXPoly();\r\n\r\n    //     //uint256 yz = mulmod(Randoms[0], Randoms[1], Pairing.BABYJUB_P);\r\n\r\n    //     // y^N for halo implementation style\r\n    //     // uint256 y_n = expMod(Randoms[1], N, BABYJUB_P);\r\n    //     // t for halo implementation style\r\n    //     // uint256 t = addmod(mulmod(addmod(Proof[6], Proof[9], Pairing.BABYJUB_P), \r\n    //     //                           addmod(addmod(Proof[12], \r\n    //     //                                         Proof[15], Pairing.BABYJUB_P), \r\n    //     //                                  evalS, Pairing.BABYJUB_P), Pairing.BABYJUB_P),\r\n    //     //                     mulmod((BABYJUB_P - evalK), y_n, BABYJUB_P),\r\n    //     //                     BABYJUB_P);\r\n\r\n    //     uint256 t = addmod(mulmod(addmod(Proof[6], Proof[9], Pairing.BABYJUB_P), \r\n    //                               addmod(addmod(Proof[12], \r\n    //                                             Proof[15], Pairing.BABYJUB_P), \r\n    //                                      evalS, Pairing.BABYJUB_P), Pairing.BABYJUB_P),\r\n    //                         (BABYJUB_P - evalK), BABYJUB_P);\r\n\r\n\r\n    //     bool verifySignature = recover(message, sig) == addr;\r\n    //     // bool result = verify(Pairing.G1Point(Proof[0], Proof[1]), // aLocal\r\n    //     //               Pairing.G1Point(Proof[7], Proof[8]),\r\n    //     //               Randoms[1], \r\n    //     //               Proof[6]) &&\r\n    //     //         verify(Pairing.G1Point(Proof[0], Proof[1]), // bLocal\r\n    //     //               Pairing.G1Point(Proof[13], Proof[14]),\r\n    //     //               yz,\r\n    //     //               Proof[12]) &&\r\n    //     //         verify(Pairing.G1Point(Proof[2], Proof[3]), // aRaw\r\n    //     //               Pairing.G1Point(Proof[10], Proof[11]),\r\n    //     //               Randoms[1],\r\n    //     //               Proof[9]) &&\r\n    //     //         verify(Pairing.G1Point(Proof[2], Proof[3]), // bRaw\r\n    //     //               Pairing.G1Point(Proof[16], Proof[17]),\r\n    //     //               yz,\r\n    //     //               Proof[15]) &&\r\n    //     //         verify(Pairing.G1Point(Proof[4], Proof[5]), // t\r\n    //     //               Pairing.G1Point(Proof[18], Proof[19]),\r\n    //     //               Randoms[1],\r\n    //     //               t) &&                               \r\n    //     //         verify(Pairing.G1Point(Proof[4], Proof[5]), // t\r\n    //     //               Pairing.G1Point(Proof[18], Proof[19]),\r\n    //     //               Randoms[1],\r\n    //     //               t) &&                                            // pcV srsLocal (srsD srsLocal) commitK y (k, wk)\r\n    //     //         verify(Pairing.G1Point(Proof[4], Proof[5]), // t\r\n    //     //               Pairing.G1Point(Proof[18], Proof[19]),\r\n    //     //               Randoms[1],\r\n    //     //               t) &&                                            // pcV srsLocal (srsD srsLocal) commitC y (c, wc)\r\n    //     //         verify(Pairing.G1Point(Proof[4], Proof[5]), // t\r\n    //     //               Pairing.G1Point(Proof[18], Proof[19]),\r\n    //     //               Randoms[1],\r\n    //     //               t) &&                                            // pcV srsLocal (srsD srsLocal) commitC yOld (cOld, wcOld)\r\n    //     //         verify(Pairing.G1Point(Proof[4], Proof[5]), // t\r\n    //     //               Pairing.G1Point(Proof[18], Proof[19]),\r\n    //     //               Randoms[1],\r\n    //     //               t) &&                                            //, pcV srsLocal (srsD srsLocal) commitC yNew (cNew, wcNew)\r\n    //     //         verify(Pairing.G1Point(Proof[4], Proof[5]), // t\r\n    //     //               Pairing.G1Point(Proof[18], Proof[19]),\r\n    //     //               Randoms[1],\r\n    //     //               t) &&                                            //, pcV srsLocal (srsD srsLocal) commitS z (s, ws)\r\n    //     //         verify(Pairing.G1Point(Proof[4], Proof[5]), // t\r\n    //     //               Pairing.G1Point(Proof[18], Proof[19]),\r\n    //     //               Randoms[1],\r\n    //     //               t) &&                                            //, pcV srsLocal (srsD srsLocal) commitSOld z (sOld, wsOld)\r\n    //     //          verify(Pairing.G1Point(Proof[4], Proof[5]), // t\r\n    //     //               Pairing.G1Point(Proof[18], Proof[19]),\r\n    //     //               Randoms[1],\r\n    //     //               t) &&                                           //, pcV srsLocal (srsD srsLocal) commitSNew z (sNew, wsNew)\r\n    //     //         verifySignature &&\r\n    //     //         Proof[6] == Proof[7] && // c_old == s_old\r\n    //     //         Proof[8] == Proof[9] && // c_new == s_new\r\n    //     //         Proof[10] == Proof[11]; // c == s\r\n\r\n    //     // temporary code for estimating gas cost, the above is correct version\r\n    //     bool result = verify(Pairing.G1Point(Proof[0], Proof[1]), // aLocal\r\n    //                   Pairing.G1Point(Proof[7], Proof[8]),\r\n    //                   Randoms[1], \r\n    //                   Proof[6]);\r\n    //     result = verify(Pairing.G1Point(Proof[0], Proof[1]), // bLocal\r\n    //                   Pairing.G1Point(Proof[13], Proof[14]),\r\n    //                   yz,\r\n    //                   Proof[12]);\r\n    //     result = verify(Pairing.G1Point(Proof[2], Proof[3]), // aRaw\r\n    //                   Pairing.G1Point(Proof[10], Proof[11]),\r\n    //                   Randoms[1],\r\n    //                   Proof[9]);\r\n    //     result = verify(Pairing.G1Point(Proof[2], Proof[3]), // bRaw\r\n    //                   Pairing.G1Point(Proof[16], Proof[17]),\r\n    //                   yz,\r\n    //                   Proof[15]);\r\n    //     result = verify(Pairing.G1Point(Proof[4], Proof[5]), // t\r\n    //                   Pairing.G1Point(Proof[18], Proof[19]),\r\n    //                   Randoms[1],\r\n    //                   t);                              \r\n    //     result = verify(Pairing.G1Point(Proof[4], Proof[5]), // t\r\n    //                   Pairing.G1Point(Proof[18], Proof[19]),\r\n    //                   Randoms[1],\r\n    //                   t);                                            // pcV srsLocal (srsD srsLocal) commitK y (k, wk)\r\n    //     result = verify(Pairing.G1Point(Proof[4], Proof[5]), // t\r\n    //                   Pairing.G1Point(Proof[18], Proof[19]),\r\n    //                   Randoms[1],\r\n    //                   t);                                            // pcV srsLocal (srsD srsLocal) commitC y (c, wc)\r\n    //     result = verify(Pairing.G1Point(Proof[4], Proof[5]), // t\r\n    //                   Pairing.G1Point(Proof[18], Proof[19]),\r\n    //                   Randoms[1],\r\n    //                   t);                                            // pcV srsLocal (srsD srsLocal) commitC yOld (cOld, wcOld)\r\n    //     result = verify(Pairing.G1Point(Proof[4], Proof[5]), // t\r\n    //                   Pairing.G1Point(Proof[18], Proof[19]),\r\n    //                   Randoms[1],\r\n    //                   t);                                            //, pcV srsLocal (srsD srsLocal) commitC yNew (cNew, wcNew)\r\n    //     result = verify(Pairing.G1Point(Proof[4], Proof[5]), // t\r\n    //                   Pairing.G1Point(Proof[18], Proof[19]),\r\n    //                   Randoms[1],\r\n    //                   t);                                            //, pcV srsLocal (srsD srsLocal) commitS z (s, ws)\r\n    //     result = verify(Pairing.G1Point(Proof[4], Proof[5]), // t\r\n    //                   Pairing.G1Point(Proof[18], Proof[19]),\r\n    //                   Randoms[1],\r\n    //                   t);                                            //, pcV srsLocal (srsD srsLocal) commitSOld z (sOld, wsOld)\r\n    //     result = verify(Pairing.G1Point(Proof[4], Proof[5]), // t\r\n    //                   Pairing.G1Point(Proof[18], Proof[19]),\r\n    //                   Randoms[1],\r\n    //                   t);                                           //, pcV srsLocal (srsD srsLocal) commitSNew z (sNew, wsNew)\r\n    //     result = verifySignature;\r\n    //     result = Proof[6] == Proof[7]; // c_old == s_old\r\n    //     result = Proof[8] == Proof[9]; // c_new == s_new\r\n    //     result = Proof[10] == Proof[11]; // c == s\r\n    //     emit verifyResult(result);\r\n    //     return result;\r\n    // }\r\n\r\n    // sonic verifier\r\n\r\n    function verifySonic(\r\n        // uint256[21] memory Proof,\r\n        // uint256[2] memory Randoms\r\n    ) public returns (bool) {\r\n\r\n        // simulate calculating kY\r\n        // uint256 ky = evalKPoly();\r\n        // // // simulate calculating sXY\r\n        // uint256 sx = evalXPoly();\r\n        // uint256 sy = evalXPoly();\r\n\r\n        //uint256 yz = mulmod(Randoms[0], Randoms[1], Pairing.BABYJUB_P);\r\n\r\n        // y^N for halo implementation style\r\n        // uint256 y_n = expMod(Randoms[1], N, BABYJUB_P);\r\n        // t for halo implementation style\r\n        // uint256 t = addmod(mulmod(addmod(Proof[6], Proof[9], Pairing.BABYJUB_P), \r\n        //                           addmod(addmod(Proof[12], \r\n        //                                         Proof[15], Pairing.BABYJUB_P), \r\n        //                                  evalS, Pairing.BABYJUB_P), Pairing.BABYJUB_P),\r\n        //                     mulmod((BABYJUB_P - evalK), y_n, BABYJUB_P),\r\n        //                     BABYJUB_P);\r\n\r\n        uint256 t = addmod(mulmod(addmod(Proof[6], Proof[9], Pairing.BABYJUB_P), \r\n                                  addmod(addmod(Proof[12], \r\n                                                Proof[15], Pairing.BABYJUB_P), \r\n                                         evalS, Pairing.BABYJUB_P), Pairing.BABYJUB_P),\r\n                            (BABYJUB_P - evalK), BABYJUB_P);\r\n\r\n\r\n        bool verifySignature = recover(message, sig) == addr;\r\n        // bool result = verify(Pairing.G1Point(Proof[0], Proof[1]), // aLocal\r\n        //               Pairing.G1Point(Proof[7], Proof[8]),\r\n        //               Randoms[1], \r\n        //               Proof[6],\r\n        //               0, false) &&\r\n        //         verify(Pairing.G1Point(Proof[0], Proof[1]), // bLocal\r\n        //               Pairing.G1Point(Proof[13], Proof[14]),\r\n        //               yz,\r\n        //               Proof[12],\r\n        //               0, false) &&\r\n        //         verify(Pairing.G1Point(Proof[2], Proof[3]), // aRaw\r\n        //               Pairing.G1Point(Proof[10], Proof[11]),\r\n        //               Randoms[1],\r\n        //               Proof[9],\r\n        //               1, false) &&\r\n        //         verify(Pairing.G1Point(Proof[2], Proof[3]), // bRaw\r\n        //               Pairing.G1Point(Proof[16], Proof[17]),\r\n        //               yz,\r\n        //               Proof[15],\r\n        //               1, false) &&\r\n        //         verify(Pairing.G1Point(Proof[4], Proof[5]), // t\r\n        //               Pairing.G1Point(Proof[18], Proof[19]),\r\n        //               Randoms[1],\r\n        //               t,\r\n        //               0, true) &&                               \r\n        //         verify(Pairing.G1Point(Proof[4], Proof[5]), // t\r\n        //               Pairing.G1Point(Proof[18], Proof[19]),\r\n        //               Randoms[1],\r\n        //               t,\r\n        //               0, true) &&                                            // pcV srsLocal (srsD srsLocal) commitK y (k, wk)\r\n        //         verify(Pairing.G1Point(Proof[4], Proof[5]), // t\r\n        //               Pairing.G1Point(Proof[18], Proof[19]),\r\n        //               Randoms[1],\r\n        //               t,\r\n        //               0, true) &&                                            // pcV srsLocal (srsD srsLocal) commitC y (c, wc)\r\n        //         verify(Pairing.G1Point(Proof[4], Proof[5]), // t\r\n        //               Pairing.G1Point(Proof[18], Proof[19]),\r\n        //               Randoms[1],\r\n        //               t,\r\n        //               0, true) &&                                            // pcV srsLocal (srsD srsLocal) commitC yOld (cOld, wcOld)\r\n        //         verify(Pairing.G1Point(Proof[4], Proof[5]), // t\r\n        //               Pairing.G1Point(Proof[18], Proof[19]),\r\n        //               Randoms[1],\r\n        //               t,\r\n        //               0, true) &&                                            //, pcV srsLocal (srsD srsLocal) commitC yNew (cNew, wcNew)\r\n        //         verify(Pairing.G1Point(Proof[4], Proof[5]), // t\r\n        //               Pairing.G1Point(Proof[18], Proof[19]),\r\n        //               Randoms[1],\r\n        //               t,\r\n        //               0, true) &&                                            //, pcV srsLocal (srsD srsLocal) commitS z (s, ws)\r\n        //         verify(Pairing.G1Point(Proof[4], Proof[5]), // t\r\n        //               Pairing.G1Point(Proof[18], Proof[19]),\r\n        //               Randoms[1],\r\n        //               t,\r\n        //               0, true) &&                                            //, pcV srsLocal (srsD srsLocal) commitSOld z (sOld, wsOld)\r\n        //          verify(Pairing.G1Point(Proof[4], Proof[5]), // t\r\n        //               Pairing.G1Point(Proof[18], Proof[19]),\r\n        //               Randoms[1],\r\n        //               t,\r\n        //               0, true) &&                                           //, pcV srsLocal (srsD srsLocal) commitSNew z (sNew, wsNew)\r\n        //         verifySignature &&\r\n        //         Proof[6] == Proof[7] && // c_old == s_old\r\n        //         Proof[8] == Proof[9] && // c_new == s_new\r\n        //         Proof[10] == Proof[11]; // c == s\r\n\r\n        // temporary code for estimating gas cost, the above is correct version\r\n        bool result = verify(Pairing.G1Point(Proof[0], Proof[1]), // aLocal\r\n                      Pairing.G1Point(Proof[7], Proof[8]),\r\n                      Randoms[1], \r\n                      Proof[6],\r\n                      0, false);\r\n        result = verify(Pairing.G1Point(Proof[0], Proof[1]), // bLocal\r\n                      Pairing.G1Point(Proof[13], Proof[14]),\r\n                      yz,\r\n                      Proof[12],\r\n                      0, false);\r\n        result = verify(Pairing.G1Point(Proof[2], Proof[3]), // aRaw\r\n                      Pairing.G1Point(Proof[10], Proof[11]),\r\n                      Randoms[1],\r\n                      Proof[9],\r\n                      1, false);\r\n        result = verify(Pairing.G1Point(Proof[2], Proof[3]), // bRaw\r\n                      Pairing.G1Point(Proof[16], Proof[17]),\r\n                      yz,\r\n                      Proof[15],\r\n                      1, false);\r\n        result = verify(Pairing.G1Point(Proof[4], Proof[5]), // t\r\n                      Pairing.G1Point(Proof[18], Proof[19]),\r\n                      Randoms[1],\r\n                      t,\r\n                      0, true);                               \r\n        result = verify(Pairing.G1Point(Proof[4], Proof[5]), // t\r\n                      Pairing.G1Point(Proof[18], Proof[19]),\r\n                      Randoms[1],\r\n                      t,\r\n                      0, true);                                            // pcV srsLocal (srsD srsLocal) commitK y (k, wk)\r\n        result = verify(Pairing.G1Point(Proof[4], Proof[5]), // t\r\n                      Pairing.G1Point(Proof[18], Proof[19]),\r\n                      Randoms[1],\r\n                      t,\r\n                      0, true);                                            // pcV srsLocal (srsD srsLocal) commitC y (c, wc)\r\n        result = verify(Pairing.G1Point(Proof[4], Proof[5]), // t\r\n                      Pairing.G1Point(Proof[18], Proof[19]),\r\n                      Randoms[1],\r\n                      t,\r\n                      0, true);                                           // pcV srsLocal (srsD srsLocal) commitC yOld (cOld, wcOld)\r\n        result = verify(Pairing.G1Point(Proof[4], Proof[5]), // t\r\n                      Pairing.G1Point(Proof[18], Proof[19]),\r\n                      Randoms[1],\r\n                      t,\r\n                      0, true);                                           //, pcV srsLocal (srsD srsLocal) commitC yNew (cNew, wcNew)\r\n        result = verify(Pairing.G1Point(Proof[4], Proof[5]), // t\r\n                      Pairing.G1Point(Proof[18], Proof[19]),\r\n                      Randoms[1],\r\n                      t,\r\n                      0, true);                                          //, pcV srsLocal (srsD srsLocal) commitS z (s, ws)\r\n        result = verify(Pairing.G1Point(Proof[4], Proof[5]), // t\r\n                      Pairing.G1Point(Proof[18], Proof[19]),\r\n                      Randoms[1],\r\n                      t,\r\n                      0, true);                                           //, pcV srsLocal (srsD srsLocal) commitSOld z (sOld, wsOld)\r\n        result = verify(Pairing.G1Point(Proof[4], Proof[5]), // t\r\n                      Pairing.G1Point(Proof[18], Proof[19]),\r\n                      Randoms[1],\r\n                      t,\r\n                      0, true);                                           //, pcV srsLocal (srsD srsLocal) commitSNew z (sNew, wsNew)\r\n        result = verifySignature;\r\n        result = Proof[6] == Proof[7]; // c_old == s_old\r\n        result = Proof[8] == Proof[9]; // c_new == s_new\r\n        result = Proof[10] == Proof[11]; // c == s\r\n        emit verifyResult(result);\r\n        return result;\r\n    }\r\n\r\n    // add improvement for batched commitments of original KZG\r\n    /*\r\n    we check e<g^w[],h^> e<(g^w[])^-z,h> == RHS\r\n     */\r\n    // function verifySonicBatchedOriginKZG(\r\n    //     // uint256[21] memory Proof,\r\n    //     // uint256[2] memory Randoms\r\n    // ) public returns (bool) {\r\n\r\n    //     // simulate calculating kY\r\n    //     // uint256 ky = evalKPoly();\r\n    //     // // // simulate calculating sXY\r\n    //     // uint256 sx = evalXPoly();\r\n    //     // uint256 sy = evalXPoly();\r\n\r\n        \r\n    //     // y^N for halo implementation style\r\n    //     // uint256 y_n = expMod(Randoms[1], N, BABYJUB_P);\r\n\r\n    //     // t for halo implementation style\r\n    //     // uint256 t = addmod(mulmod(addmod(Proof[6], Proof[9], Pairing.BABYJUB_P), \r\n    //     //                           addmod(addmod(Proof[12], \r\n    //     //                                         Proof[15], Pairing.BABYJUB_P), \r\n    //     //                                  evalS, Pairing.BABYJUB_P), Pairing.BABYJUB_P),\r\n    //     //                     mulmod((BABYJUB_P - evalK), y_n, BABYJUB_P),\r\n    //     //                     BABYJUB_P);\r\n\r\n    //     // uint256 t = addmod(mulmod(addmod(Proof[6], Proof[9], Pairing.BABYJUB_P), \r\n    //     //                           addmod(addmod(Proof[12], \r\n    //     //                                         Proof[15], Pairing.BABYJUB_P), \r\n    //     //                                  evalS, Pairing.BABYJUB_P), Pairing.BABYJUB_P),\r\n    //     //                     (BABYJUB_P - evalK), BABYJUB_P);\r\n\r\n\r\n    //     bool verifySignature = recover(message, sig) == addr;\r\n\r\n    //     // F\r\n    //     Pairing.G1Point[8] memory F = [\r\n    //                                 Pairing.G1Point(Proof[0], Proof[1]),//R0\r\n    //                                 Pairing.G1Point(Proof[2], Proof[3]), // Rj\r\n    //                                 Pairing.G1Point(Proof[4], Proof[5]), //T\r\n    //                                 Pairing.G1Point(Proof[6], Proof[7]), //C\r\n    //                                 Pairing.G1Point(Proof[8], Proof[9]), //Ck\r\n    //                                 Pairing.G1Point(Proof[10], Proof[11]), //S\r\n    //                                 Pairing.G1Point(Proof[12], Proof[13]), //Sold\r\n    //                                 Pairing.G1Point(Proof[14], Proof[15])  //Snew\r\n    //                                 ];\r\n    //     // Z(T / Si)[z] * ^(i-1)\r\n    //     uint256 Z_beta_1 = 1; // i = 1,  etc.\r\n    //     uint256 Z_beta_2 = Randoms[4];\r\n    //     uint256 Z_beta_3 = mulmod(Z_beta_2, Randoms[4], BABYJUB_P);\r\n    //     uint256 Z_beta_4 = mulmod(Z_beta_3, Randoms[4], BABYJUB_P);\r\n    //     uint256 Z_beta_5 = mulmod(Z_beta_4, Randoms[4], BABYJUB_P);\r\n    //     uint256 Z_beta_6 = mulmod(Z_beta_5, Randoms[4], BABYJUB_P);\r\n    //     uint256 Z_beta_7 = mulmod(Z_beta_6, Randoms[4], BABYJUB_P);\r\n    //     uint256 Z_beta_8 = mulmod(Z_beta_7, Randoms[4], BABYJUB_P);\r\n\r\n    //     Z_beta_1 = mulmod(Z_beta_1, z_calculation(1), BABYJUB_P);\r\n    //     Z_beta_2 = mulmod(Z_beta_2, z_calculation(2), BABYJUB_P);\r\n    //     Z_beta_3 = mulmod(Z_beta_3, z_calculation(3), BABYJUB_P);\r\n    //     Z_beta_4 = mulmod(Z_beta_4, z_calculation(4), BABYJUB_P);\r\n    //     Z_beta_5 = mulmod(Z_beta_5, z_calculation(5), BABYJUB_P);\r\n    //     Z_beta_6 = mulmod(Z_beta_6, z_calculation(6), BABYJUB_P);\r\n    //     Z_beta_7 = mulmod(Z_beta_7, z_calculation(7), BABYJUB_P);\r\n    //     Z_beta_8 = mulmod(Z_beta_8, z_calculation(8), BABYJUB_P);\r\n\r\n    //     // the prove, g^p[], g^w[]\r\n    //     Pairing.G1Point[2] memory pi = [\r\n    //         G1Gen(),\r\n    //         G1Gen()\r\n    //     ];\r\n    //     // product_result is the first G1 element of the RHS pairing\r\n    //     // first calculate the uppercase Pi product\r\n    //     Pairing.G1Point memory product_result = Pairing.mulScalar(Pairing.plus(F[0], \r\n    //                                                             Pairing.negate(Pairing.mulScalar(g, \r\n    //                                                                             addmod(gamma1[0], \r\n    //                                                                             mulmod(gamma1[1], Randoms[2], BABYJUB_P), \r\n    //                                                                             BABYJUB_P)))), Z_beta_1);\r\n    //     product_result = Pairing.plus(product_result, \r\n    //                                 Pairing.mulScalar(Pairing.plus(F[1], \r\n    //                                                             Pairing.negate(Pairing.mulScalar(g, \r\n    //                                                                             addmod(gamma2[0], \r\n    //                                                                             mulmod(gamma2[1], Randoms[2], BABYJUB_P), \r\n    //                                                                             BABYJUB_P)))), Z_beta_2));\r\n    //     product_result = Pairing.plus(product_result, \r\n    //                                 Pairing.mulScalar(Pairing.plus(F[2], \r\n    //                                                             Pairing.negate(Pairing.mulScalar(g, \r\n    //                                                                             gamma3[0]))), Z_beta_3));\r\n    //     product_result = Pairing.plus(product_result, \r\n    //                                 Pairing.mulScalar(Pairing.plus(F[3], \r\n    //                                                             Pairing.negate(Pairing.mulScalar(g, \r\n    //                                                                             addmod(addmod(gamma4[0], \r\n    //                                                                             mulmod(gamma4[1], Randoms[2], BABYJUB_P), \r\n    //                                                                             BABYJUB_P),\r\n    //                                                                             mulmod(gamma4[2], \r\n    //                                                                             mulmod(Randoms[2], Randoms[2], \r\n    //                                                                             BABYJUB_P), \r\n    //                                                                             BABYJUB_P),\r\n    //                                                                             BABYJUB_P)\r\n    //                                                                             )))\r\n    //                                                     , Z_beta_4)\r\n    //                                     );\r\n    //     product_result = Pairing.plus(product_result, \r\n    //                                 Pairing.mulScalar(Pairing.plus(F[4], \r\n    //                                                             Pairing.negate(Pairing.mulScalar(g, \r\n    //                                                                             gamma5[0]))), Z_beta_5));\r\n    //     product_result = Pairing.plus(product_result, \r\n    //                                 Pairing.mulScalar(Pairing.plus(F[5], \r\n    //                                                             Pairing.negate(Pairing.mulScalar(g, \r\n    //                                                                             gamma6[0]))), Z_beta_6));\r\n    //     product_result = Pairing.plus(product_result, \r\n    //                                 Pairing.mulScalar(Pairing.plus(F[6], \r\n    //                                                             Pairing.negate(Pairing.mulScalar(g, \r\n    //                                                                             gamma7[0]))), Z_beta_7));\r\n    //     product_result = Pairing.plus(product_result, \r\n    //                                 Pairing.mulScalar(Pairing.plus(F[7], \r\n    //                                                             Pairing.negate(Pairing.mulScalar(g, \r\n    //                                                                             gamma8[0]))), Z_beta_8));\r\n    //     // then add the first item before the uppercase Pi product\r\n    //     product_result = Pairing.plus(product_result,\r\n    //                                 Pairing.negate(Pairing.plus(pi[0],\r\n    //                                                 Pairing.mulScalar(g,\r\n    //                                                                 z_calculation(9)))));//zT[z]\r\n\r\n    //     // check e<g^w[],h^>e<g^w[]g^-z,h> == RHS, then check others\r\n    //     // bool result = Pairing.pairing_3point(\r\n    //     //     pi[1],\r\n    //     //     SRS_G2_2, // h^, see above\r\n    //     //     Pairing.negate(Pairing.mulScalar(pi[1], z)),\r\n    //     //     SRS_G2_1, // h, see above\r\n    //     //     Pairing.negate(product_result),\r\n    //     //     SRS_G2_1\r\n    //     //     )\r\n    //     //     && verifySignature\r\n    //     //     && Proof[6] == Proof[7] // c_old == s_old\r\n    //     //     && Proof[8] == Proof[9] // c_new == s_new\r\n    //     //     && Proof[10] == Proof[11]; // c == s\r\n\r\n    //     // temporary code for estimating gas cost, the above is correct version\r\n    //     // check e<g^w[],h^>e<(g^w[])^-z,h> == RHS, then check others\r\n    //     bool result = Pairing.pairing_3point(\r\n    //         pi[1], // g^w[]\r\n    //         SRS_G2_2, // h^, see above\r\n    //         Pairing.negate(Pairing.mulScalar(pi[1], z)),\r\n    //         SRS_G2_1, // h, see above\r\n    //         Pairing.negate(product_result),\r\n    //         SRS_G2_1\r\n    //         );\r\n    //     result = verifySignature;\r\n    //     result = Proof[6] == Proof[7]; // c_old == s_old\r\n    //     result = Proof[8] == Proof[9]; // c_new == s_new\r\n    //     result = Proof[10] == Proof[11]; // c == s\r\n    //     emit verifyResult(result);\r\n    //     return result;\r\n    // }\r\n\r\n\r\n    // using batched commitments of sonic version of modified KZG\r\n    function verifySonicBatched(\r\n        // uint256[21] memory Proof,\r\n        // uint256[2] memory Randoms\r\n    ) public returns (bool) {\r\n\r\n        // simulate calculating kY\r\n        // uint256 ky = evalKPoly();\r\n        // // // simulate calculating sXY\r\n        // uint256 sx = evalXPoly();\r\n        // uint256 sy = evalXPoly();\r\n\r\n        \r\n        // y^N for halo implementation style\r\n        // uint256 y_n = expMod(Randoms[1], N, BABYJUB_P);\r\n\r\n        // t for halo implementation style\r\n        // uint256 t = addmod(mulmod(addmod(Proof[6], Proof[9], Pairing.BABYJUB_P), \r\n        //                           addmod(addmod(Proof[12], \r\n        //                                         Proof[15], Pairing.BABYJUB_P), \r\n        //                                  evalS, Pairing.BABYJUB_P), Pairing.BABYJUB_P),\r\n        //                     mulmod((BABYJUB_P - evalK), y_n, BABYJUB_P),\r\n        //                     BABYJUB_P);\r\n\r\n        // uint256 t = addmod(mulmod(addmod(Proof[6], Proof[9], Pairing.BABYJUB_P), \r\n        //                           addmod(addmod(Proof[12], \r\n        //                                         Proof[15], Pairing.BABYJUB_P), \r\n        //                                  evalS, Pairing.BABYJUB_P), Pairing.BABYJUB_P),\r\n        //                     (BABYJUB_P - evalK), BABYJUB_P);\r\n\r\n\r\n        bool verifySignature = recover(message, sig) == addr;\r\n\r\n        // F\r\n        Pairing.G1Point[8] memory F = [\r\n                                    Pairing.G1Point(Proof[0], Proof[1]),// R0\r\n                                    Pairing.G1Point(Proof[2], Proof[3]), // Rj\r\n                                    Pairing.G1Point(Proof[4], Proof[5]), // T\r\n                                    Pairing.G1Point(Proof[6], Proof[7]), // C\r\n                                    Pairing.G1Point(Proof[8], Proof[9]), // Ck\r\n                                    Pairing.G1Point(Proof[10], Proof[11]), // S\r\n                                    Pairing.G1Point(Proof[12], Proof[13]), // Sold\r\n                                    Pairing.G1Point(Proof[14], Proof[15])  // Snew\r\n                                    ];\r\n        // Z(T / Si)[z] * ^(i-1)\r\n        uint256 Z_beta_1 = 1; // i = 1,  etc.\r\n        uint256 Z_beta_2 = Randoms[4];\r\n        uint256 Z_beta_3 = mulmod(Z_beta_2, Randoms[4], BABYJUB_P);\r\n        uint256 Z_beta_4 = mulmod(Z_beta_3, Randoms[4], BABYJUB_P);\r\n        uint256 Z_beta_5 = mulmod(Z_beta_4, Randoms[4], BABYJUB_P);\r\n        uint256 Z_beta_6 = mulmod(Z_beta_5, Randoms[4], BABYJUB_P);\r\n        uint256 Z_beta_7 = mulmod(Z_beta_6, Randoms[4], BABYJUB_P);\r\n        uint256 Z_beta_8 = mulmod(Z_beta_7, Randoms[4], BABYJUB_P);\r\n\r\n        Z_beta_1 = mulmod(Z_beta_1, z_calculation(1), BABYJUB_P);\r\n        Z_beta_2 = mulmod(Z_beta_2, z_calculation(2), BABYJUB_P);\r\n        Z_beta_3 = mulmod(Z_beta_3, z_calculation(3), BABYJUB_P);\r\n        Z_beta_4 = mulmod(Z_beta_4, z_calculation(4), BABYJUB_P);\r\n        Z_beta_5 = mulmod(Z_beta_5, z_calculation(5), BABYJUB_P);\r\n        Z_beta_6 = mulmod(Z_beta_6, z_calculation(6), BABYJUB_P);\r\n        Z_beta_7 = mulmod(Z_beta_7, z_calculation(7), BABYJUB_P);\r\n        Z_beta_8 = mulmod(Z_beta_8, z_calculation(8), BABYJUB_P);\r\n\r\n        // the committed prove, g^p[x], g^w[x]\r\n        Pairing.G1Point[2] memory pi = [\r\n            G1Gen(),\r\n            G1Gen()\r\n        ];\r\n        // H\r\n        Pairing.G1Point memory H = Pairing.mulScalar(F[0], Z_beta_1);\r\n        H = Pairing.plus(H, Pairing.mulScalar(F[1], Z_beta_2));\r\n        H = Pairing.plus(H, Pairing.mulScalar(F[2], Z_beta_3));\r\n        H = Pairing.plus(H, Pairing.mulScalar(F[3], Z_beta_4));\r\n        H = Pairing.plus(H, Pairing.mulScalar(F[4], Z_beta_5));\r\n        H = Pairing.plus(H, Pairing.mulScalar(F[5], Z_beta_6));\r\n        H = Pairing.plus(H, Pairing.mulScalar(F[6], Z_beta_7));\r\n        H = Pairing.plus(H, Pairing.mulScalar(F[7], Z_beta_8));\r\n\r\n        // R\r\n        // first calculate PI\r\n        Pairing.G1Point memory R = Pairing.mulScalar(Pairing.negate(Pairing.mulScalar(g, \r\n                                                                                addmod(gamma1[0], \r\n                                                                                mulmod(gamma1[1], Randoms[2], BABYJUB_P), \r\n                                                                                BABYJUB_P))), Z_beta_1);\r\n        R = Pairing.plus(R, Pairing.mulScalar(Pairing.negate(Pairing.mulScalar(g, \r\n                                                                                addmod(gamma2[0], \r\n                                                                                mulmod(gamma2[1], Randoms[2], BABYJUB_P), \r\n                                                                                BABYJUB_P))), Z_beta_2));\r\n        R = Pairing.plus(R, Pairing.mulScalar(Pairing.negate(Pairing.mulScalar(g, \r\n                                                                                gamma3[0])), Z_beta_3));\r\n        R = Pairing.plus(R, Pairing.mulScalar(Pairing.negate(Pairing.mulScalar(g, \r\n                                                                                addmod(addmod(gamma4[0], \r\n                                                                                mulmod(gamma4[1], Randoms[2], BABYJUB_P), \r\n                                                                                BABYJUB_P),\r\n                                                                                mulmod(gamma4[2], \r\n                                                                                mulmod(Randoms[2], Randoms[2], \r\n                                                                                BABYJUB_P), \r\n                                                                                BABYJUB_P),\r\n                                                                                BABYJUB_P)\r\n                                                                                ))\r\n                                                        , Z_beta_4));\r\n        R = Pairing.plus(R, Pairing.mulScalar(Pairing.negate(Pairing.mulScalar(g, \r\n                                                                                gamma5[0])), Z_beta_5));\r\n        R = Pairing.plus(R, Pairing.mulScalar(Pairing.negate(Pairing.mulScalar(g, \r\n                                                                                gamma6[0])), Z_beta_6));\r\n        R = Pairing.plus(R, Pairing.mulScalar(Pairing.negate(Pairing.mulScalar(g, \r\n                                                                                gamma7[0])), Z_beta_7));\r\n        R = Pairing.plus(R, Pairing.mulScalar(Pairing.negate(Pairing.mulScalar(g, \r\n                                                                                gamma8[0])), Z_beta_8));\r\n        // then add the first item before the uppercase Pi product\r\n        //g^p[x]zT[z]\r\n        R = Pairing.plus(R, Pairing.negate(Pairing.plus(pi[0],\r\n                                                    Pairing.mulScalar(g,\r\n                                                                    z_calculation(9)))));\r\n        //g^zw[x]\r\n        R = Pairing.plus(R, Pairing.mulScalar(pi[1], Randoms[2]));\r\n\r\n        // check the equation, then check others\r\n        // bool result = Pairing.pairing_3point(\r\n        //     H,\r\n        //     SRS_G2_1, // h, see above\r\n        //     R,\r\n        //     Constants.t_hxdmax,\r\n        //     Pairing.negate(pi[1]),\r\n        //     Constants.t_hxdmaxplusone\r\n        //     )\r\n        //     && verifySignature\r\n        //     && Proof[6] == Proof[7] // c_old == s_old\r\n        //     && Proof[8] == Proof[9] // c_new == s_new\r\n        //     && Proof[10] == Proof[11]; // c == s\r\n\r\n        // former code, used for coding reference of above check\r\n        // check e<g^w[],h^>e<(g^w[])^-z,h> == RHS, then check others\r\n        // bool result = Pairing.pairing_3point(\r\n        //     pi[1],\r\n        //     SRS_G2_2, // h^, see above\r\n        //     Pairing.negate(Pairing.mulScalar(pi[1], z)),\r\n        //     SRS_G2_1, // h, see above\r\n        //     Pairing.negate(product_result),\r\n        //     SRS_G2_1\r\n        //     )\r\n        //     && verifySignature\r\n        //     && Proof[6] == Proof[7] // c_old == s_old\r\n        //     && Proof[8] == Proof[9] // c_new == s_new\r\n        //     && Proof[10] == Proof[11]; // c == s\r\n\r\n        // temporary code for estimating gas cost, the above is correct version\r\n        bool result = Pairing.pairing_3point(\r\n            H,\r\n            SRS_G2_1, // h, see above\r\n            R,\r\n            Constants.t_hxdmax,\r\n            Pairing.negate(pi[1]),\r\n            Constants.t_hxdmaxplusone\r\n            );\r\n            result = verifySignature;\r\n            result = Proof[6] == Proof[7]; // c_old == s_old\r\n            result = Proof[8] == Proof[9]; // c_new == s_new\r\n            result = Proof[10] == Proof[11]; // c == s\r\n\r\n        emit verifyResult(result);\r\n        return result;\r\n    }\r\n    \r\n\r\n    function z_calculation (uint256 i)\r\n                            internal view returns (uint256){\r\n        \r\n        uint256 result = 1;\r\n        if (i != 1){\r\n            result = mulmod(mulmod(result, addmod(z, BABYJUB_P - S1[1], BABYJUB_P), BABYJUB_P)\r\n                            , addmod(z, BABYJUB_P - S1[0], BABYJUB_P), BABYJUB_P);\r\n        }\r\n        if (i != 2){\r\n            result = mulmod(mulmod(result, addmod(z, BABYJUB_P - S2[1], BABYJUB_P), BABYJUB_P)\r\n                            , addmod(z, BABYJUB_P - S2[0], BABYJUB_P), BABYJUB_P);\r\n        }\r\n        if (i != 3){\r\n            result = mulmod(result, addmod(z, BABYJUB_P - S3[0], BABYJUB_P), BABYJUB_P);\r\n        }\r\n        if (i != 4){\r\n            result = mulmod(mulmod(mulmod(result, addmod(z, BABYJUB_P - S4[2], BABYJUB_P), BABYJUB_P)\r\n                            , addmod(z, BABYJUB_P - S4[1], BABYJUB_P), BABYJUB_P)\r\n                            , addmod(z, BABYJUB_P - S4[0], BABYJUB_P), BABYJUB_P);\r\n        }\r\n        if (i != 5){\r\n            result = mulmod(result, addmod(z, BABYJUB_P - S5[0], BABYJUB_P), BABYJUB_P);\r\n        }\r\n        if (i != 6){\r\n            result = mulmod(result, addmod(z, BABYJUB_P - S6[0], BABYJUB_P), BABYJUB_P);\r\n        }\r\n        if (i != 7){\r\n            result = mulmod(result, addmod(z, BABYJUB_P - S7[0], BABYJUB_P), BABYJUB_P);\r\n        }\r\n        if (i != 8){\r\n            result = mulmod(result, addmod(z, BABYJUB_P - S8[0], BABYJUB_P), BABYJUB_P);\r\n        }\r\n        return result;\r\n    }\r\n\r\n    // SCC\r\n    // function verifySOCC() public returns (bool) {\r\n\r\n    //     bool verified = verify(Pairing.G1Point(SOCC_hscS[0], SOCC_hscS[1]), // pcV(bp,srs,S_j,d,z_j,(s_j,W_j)\r\n    //                   Pairing.G1Point(SOCC_hscS[3], SOCC_hscS[4]),\r\n    //                   Randoms[1], \r\n    //                   SOCC_hscS[2],\r\n    //                   0, true) &&\r\n    //                   verify(Pairing.G1Point(SOCC_hscS[0], SOCC_hscS[1]), // pcV(bp,srs,S_j,d,u,(s'_j,W'_j))\r\n    //                   Pairing.G1Point(SOCC_hscW[1], SOCC_hscW[2]),\r\n    //                   u, \r\n    //                   SOCC_hscW[0],\r\n    //                   0, true) &&\r\n    //                   verify(hscC,                                      // pcV(bp,srs,C,d,y_j,(s'_j,Q_j)\r\n    //                   Pairing.G1Point(SOCC_hscW[3], SOCC_hscW[4]),\r\n    //                   Randoms[0], \r\n    //                   SOCC_hscW[0],\r\n    //                   0, true) &&\r\n    //                   verify(hscC,                                      // pcV(bp,srs,C,d,v,(s_uv,Q_v))\r\n    //                   hscQv,\r\n    //                   v, \r\n    //                   s_uv,\r\n    //                   0, true);\r\n    //     emit verifyResult(verified);\r\n    //     return verified;\r\n    // }\r\n\r\n    /**\r\n     * @dev Recover signer address from a message by using their signature\r\n     * @param hash bytes32 message, the hash is the signed message. What is recovered is the signer address.\r\n     * @param signature bytes signature, the signature is generated using web3.eth.sign()\r\n     */\r\n    function recover(bytes32 hash, bytes memory signature) internal pure returns (address) {\r\n        bytes32 r;\r\n        bytes32 s;\r\n        uint8 _v;\r\n\r\n        // Check the signature length\r\n        if (signature.length != 65) {\r\n            return (address(0));\r\n        }\r\n\r\n        // Divide the signature in r, s and v variables\r\n        // ecrecover takes the signature parameters, and the only way to get them\r\n        // currently is to use assembly.\r\n        // solium-disable-next-line security/no-inline-assembly\r\n        assembly {\r\n            r := mload(add(signature, 32))\r\n            s := mload(add(signature, 64))\r\n            _v := byte(0, mload(add(signature, 96)))\r\n        }\r\n\r\n        // Version of signature should be 27 or 28, but 0 and 1 are also possible versions\r\n        if (_v < 27) {\r\n            _v += 27;\r\n        }\r\n\r\n        // If the version is correct return the signer address\r\n        if (_v != 27 && _v != 28) {\r\n            return (address(0));\r\n        } else {\r\n            // solium-disable-next-line arg-overflow\r\n            return ecrecover(hash, _v, r, s);\r\n        }\r\n    }\r\n\r\n    /**\r\n    * @dev prefix a bytes32 value with \"\\x19Ethereum Signed Message:\" and hash the result\r\n    */\r\n    function ethMessageHash(string memory rawCommitment) internal pure returns (bytes32) {\r\n        return keccak256(\r\n            abi.encodePacked(\"\\x19Ethereum Signed Message:\\n32\", keccak256(abi.encodePacked(rawCommitment)))\r\n        );\r\n    }\r\n\r\n\r\n    //     /*\r\n    //  * @return The polynominal evaluation of a polynominal with the specified\r\n    //  *         coefficients at the given index.\r\n    //  */\r\n     function evalPoly() public view returns (uint256) {\r\n\r\n        uint baseOrder = 204;\r\n        uint length = 64;\r\n        uint256 _index = Randoms[0];\r\n        uint256 m = Constants.BABYJUB_P;\r\n        uint256 result = 0;\r\n        uint256 powerOfX = 1;\r\n\r\n        for (uint256 i = 0; i < length; i ++) {\r\n            assembly {\r\n                result:= addmod(result, mulmod(powerOfX, i, m), m)\r\n                powerOfX := mulmod(powerOfX, i, m)\r\n            }\r\n        }\r\n        uint256 basePower = invMod(expMod(_index, baseOrder, m), m);\r\n        result = mulmod(basePower, result, m);\r\n\r\n        return result;\r\n    }\r\n\r\n    /// @dev Modular euclidean inverse of a number (mod p).\r\n    /// @param _x The number\r\n    /// @param _pp The modulus\r\n    /// @return q such that x*q = 1 (mod _pp)\r\n    function invMod(uint256 _x, uint256 _pp) internal pure returns (uint256) {\r\n        require(_x != 0 && _x != _pp && _pp != 0, \"Invalid number\");\r\n        uint256 q = 0;\r\n        uint256 newT = 1;\r\n        uint256 r = _pp;\r\n        uint256 t;\r\n        while (_x != 0) {\r\n        t = r / _x;\r\n        (q, newT) = (newT, addmod(q, (_pp - mulmod(t, newT, _pp)), _pp));\r\n        (r, _x) = (_x, r - t * _x);\r\n        }\r\n\r\n        return q;\r\n    }\r\n\r\n    /// @dev Modular exponentiation, b^e % _pp.\r\n    /// Source: https://github.com/androlo/standard-contracts/blob/master/contracts/src/crypto/ECCMath.sol\r\n    /// @param _base base\r\n    /// @param _exp exponent\r\n    /// @param _pp modulus\r\n    /// @return r such that r = b**e (mod _pp)\r\n    function expMod(uint256 _base, uint256 _exp, uint256 _pp) internal pure returns (uint256) {\r\n        require(_pp!=0, \"Modulus is zero\");\r\n\r\n        if (_base == 0)\r\n        return 0;\r\n        if (_exp == 0)\r\n        return 1;\r\n\r\n        uint256 r = 1;\r\n        uint256 bit = 57896044618658097711785492504343953926634992332820282019728792003956564819968; // 2 ^ 255\r\n        assembly {\r\n        for { } gt(bit, 0) { }{\r\n            // a touch of loop unrolling for 20% efficiency gain\r\n            r := mulmod(mulmod(r, r, _pp), exp(_base, iszero(iszero(and(_exp, bit)))), _pp)\r\n            r := mulmod(mulmod(r, r, _pp), exp(_base, iszero(iszero(and(_exp, div(bit, 2))))), _pp)\r\n            r := mulmod(mulmod(r, r, _pp), exp(_base, iszero(iszero(and(_exp, div(bit, 4))))), _pp)\r\n            r := mulmod(mulmod(r, r, _pp), exp(_base, iszero(iszero(and(_exp, div(bit, 8))))), _pp)\r\n            bit := div(bit, 16)\r\n        }\r\n        }\r\n\r\n        return r;\r\n    }\r\n    \r\n\r\n}",
  "sourcePath": "D:\\homework\\sonic\\src\\verifier\\contracts\\Verifier.sol",
  "compiler": {
    "name": "solc",
    "version": "0.8.13+commit.abaa5c0e.Emscripten.clang"
  },
  "schemaVersion": "3.4.8",
  "updatedAt": "2023-02-18T17:15:09.980Z",
  "networkType": "ethereum",
  "devdoc": {
    "kind": "dev",
    "methods": {},
    "version": 1
  },
  "userdoc": {
    "kind": "user",
    "methods": {},
    "version": 1
  }
}