{
  "contractName": "Verifier",
  "abi": [
    {
      "anonymous": false,
      "inputs": [
        {
          "indexed": false,
          "internalType": "bool",
          "name": "result",
          "type": "bool"
        }
      ],
      "name": "verifyResult",
      "type": "event"
    },
    {
      "inputs": [
        {
          "components": [
            {
              "internalType": "uint256",
              "name": "X",
              "type": "uint256"
            },
            {
              "internalType": "uint256",
              "name": "Y",
              "type": "uint256"
            }
          ],
          "internalType": "struct Pairing.G1Point",
          "name": "_commitment",
          "type": "tuple"
        },
        {
          "components": [
            {
              "internalType": "uint256",
              "name": "X",
              "type": "uint256"
            },
            {
              "internalType": "uint256",
              "name": "Y",
              "type": "uint256"
            }
          ],
          "internalType": "struct Pairing.G1Point",
          "name": "_proof",
          "type": "tuple"
        },
        {
          "internalType": "uint256",
          "name": "_index",
          "type": "uint256"
        },
        {
          "internalType": "uint256",
          "name": "_value",
          "type": "uint256"
        },
        {
          "internalType": "uint256",
          "name": "proofIndex",
          "type": "uint256"
        },
        {
          "internalType": "bool",
          "name": "isT",
          "type": "bool"
        }
      ],
      "name": "verify",
      "outputs": [
        {
          "internalType": "bool",
          "name": "",
          "type": "bool"
        }
      ],
      "stateMutability": "view",
      "type": "function",
      "constant": true
    },
    {
      "inputs": [],
      "name": "verifySonic",
      "outputs": [
        {
          "internalType": "bool",
          "name": "",
          "type": "bool"
        }
      ],
      "stateMutability": "nonpayable",
      "type": "function"
    },
    {
      "inputs": [],
      "name": "verifySOCC",
      "outputs": [
        {
          "internalType": "bool",
          "name": "",
          "type": "bool"
        }
      ],
      "stateMutability": "nonpayable",
      "type": "function"
    }
  ],
  "bytecode": "0x608060405260405180608001604052807f1a597e49c263d6a226f25fe1e806caac7f15f85b763044e7d3043ba5992dd8d581526020017f228b515a17f28b89920873207477f8c7fc05582debaf3184febf1cfdedc5ce8881526020017f18e9db03472e0863ddf2838cf8880b11083593229561aaf9a11c760bb97a64fa81526020017f0566eed2b6bb584ca75fbe0ca9ffc98eb586c25812617df7e01a2b6d8270f0bf8152506000906004620000b792919062000db1565b5060405180608001604052807f208f992ecbeeef3fa5b1c3505c588c7a872e3987797a14052b6f34411c9ea0ae81526020017f12bb1156a9f6b360fcb2614e15d8a3ff07f2c699dc69ca830b20d2df91fe9cd381526020017f15904dc85f8ddf338fe3151d3c146b4083e99dd3f26d87d33dd5d20eb64284a381526020017f20101834550a7d15aa7a685d3f0095b689822cb568dfc9690e0cc58e9826d8fb81525060019060046200016b92919062000db1565b5060405180608001604052807f024248dcf25ea502fb805bcab808906eb944154792151d643ad7b4b0eca6d91381526020017f2b15dc62a5c9e36597914ddbbfde48806a8eabe45c8d3cccf9578ad08e058f9281526020017f20ab132d3e7dd0600d89b397a3bf88e3900434c826b458028981278a619d809481526020017f0a66c012d8ebf11c9a9fc4ccfeeab0ace62b1c1fa744f6c6173f1994e9241db781525060029060046200021f92919062000db1565b5060405180608001604052807f14c35af32416c899af0b827ef0f1a686393d629317706d8c143cdfd5717c4c5e81526020017f02a4fd764f52470e2fcfff325fb9692f55d6b8b077eefeaa04e07152b4d1fa9481526020017f28505103380e230ea76fa52dc17b1269cfa9076761a1bb971c5b90767de58db081526020017f19ea09d089c848b2dee00082395883e0b405de1da65d4b4aeebd50c84e47349d8152506003906004620002d392919062000db1565b50604051806040016040528060405180604001604052807f185c3f6fe300ae4825fbc17232a7ef067d895c6838b58df5d3821b3c5f47a38081526020017f0ec8eed74d6dfed1e4bbac422898cbf6334bb2ea304a443a0b388c8a513b98ea815250815260200160405180604001604052807f2ce0b9172a655debea69f18829f2b0a98ec43a6ce296f603371237011936328181526020017f113e4f1953b68002611afddebc49dc2876e7a4e246061eec0f05ebc6595ff1378152508152506004600082015181600001906002620003ac92919062000e03565b50602082015181600201906002620003c692919062000e03565b505050604051806040016040528060405180604001604052807f11a27fdb89b46af22a89049c391fada5cb5ce6f4c9df8fe5ebae5d422b0bcddf81526020017f1ebadb21506ba2b40566be5bdbfe1ead7400477fc516e1ded4461c6759c221f5815250815260200160405180604001604052807f2d204255b7a4116982ce5bcd3bcc3639e3cc82b273a8ffbf404370c38ce5db3f81526020017f18b0e4266a167129aaee0af3b9ab5a3b4d2bcd690de7d94312c23b494f9fd3bb8152508152506008600082015181600001906002620004a192919062000e03565b50602082015181600201906002620004bb92919062000e03565b505050604051806040016040528060405180604001604052807f198e9393920d483a7260bfb731fb5d25f1aa493335a9e71297e485b7aef312c281526020017f1800deef121f1e76426a00665e5c4479674322d4f75edadd46debd5cd992f6ed815250815260200160405180604001604052807f090689d0585ff075ec9e99ad690c3395bc4b313370b38ef355acdadcd122975b81526020017f12c85ea5db8c6deb4aab71808dcb408fe3d1e7690c43d37b4ce6cc0166fa7daa815250815250600c6000820151816000019060026200059692919062000e03565b50602082015181600201906002620005b092919062000e03565b505050604051806102a001604052807f2d2e305d3ab2dc6e0081ffcf4a701f924a1a7296cdc32046c10c0b6f992387b281526020017f10d4d3cca369c48670346ef36c6739e885bb11b52038a89c706aacfb7d72d78981526020017f2e35395f5838af48130dca441dda40ea378236a7259002822b87101d02189cf981526020017f259e64ee9a51992b6a66d97b27e9071b120bd0677b1e58f9373725493d0dfc3581526020017ef575de1f064343e871771cb242eaaf6812e4568c2bb7e6673e876c7464050181526020017f16d136c3465f30dfece26e1c3f94d1b9f6b90caa57245be3440ee15730c89cab81526020017f0cea2e280aefedbce8fd0e4abaf7e4575dc8fe4a4268a61d8dd063507fc5ecfb81526020017f0b19cca2316e1f6d3490971e1707cf7f8a8542f1ebb784b0f95ae933e191167081526020017f2dedb4628bf08f798ce6d93603b6ed8cac8942ae15ac5468e21b057a6001910a81526020017f213c7c9a650878edd5e1c73acd8868f2b83acff59c7fe0708c4006b8fe24b2df81526020017f1e812a5bf519614265594c3c12f2c881d46929dbaeabe2353ecd4288b7ab000d81526020017ec4b2d3c0dadfd5209c926bf4f936931a6d2c04fa9608cb278d855dbd3f38a981526020017f1f492c8edd37499078a6576275a4f46fe77a79ae3034b524e22eae2459c8a7d281526020017f05df1f21eb91f54ce9ebc45963392c05646ab94d5285f23f62d004e9742caa4181526020017f2baa1788aecf01e0f174e1dec4e4a1a6bb12e04f5a664c73110341089fa4a78581526020017f293d12d2ddee8106ee524edceb5b09802836c0009574f2a42db542c83d1612a981526020017f2a84b96b69dba240b21032b810c85532ac40b61d6b890cc3757309d83d0703ae81526020017f1a49d50f46a39f0fde8d3e1d95771d29bbb9eb7c9baab30cfb7867a50cd00d2681526020017f2be1f7e20177ef75851870d314a7fff4c31f0a9590dcadfa7ad98f63d01bffe681526020017f0fa336d3c59c626772a0d93ee1d4144b21e0fea2b000cd4fa60c03f69456025c81526020017f18a2993be8e03e3ec58688e40a0997a30ae6b413ab6156da93218e1ba39fee648152506010906015620008eb92919062000e48565b5060405180604001604052807f2f376e28777cfe34cf077eba864c462fd6efbfe4d3f6af17768ef2ed4f829ddd81526020017f2f0ed729a52c3cf5d51e5e6d8e737f79e5d99150f7b9b63f3dd38704f9d8ef2681525060259060026200095392919062000e03565b507f19a48669ccf72c593144962560f593b667daa2052d1cdcc2500bb3b003c073c9602755601060146015811062000990576200098f62000f82565b5b01546028556040518060a001604052807f0abcbc513a4f12ef3d24aedcb8005305a64e9914941d63de78e83c7ce9559cb681526020017f29cb2b0a977afdb5e3c2fead88d2b26d1b699c1b7a6693262c371d3263f232bc81526020017f18a2993be8e03e3ec58688e40a0997a30ae6b413ab6156da93218e1ba39fee6481526020017f2f3fabffbd2bca7bc61901b09b4f45c78a3748a2e40ced61b93883605553ba4c81526020017f06332cd70541f1f5958e148a641305cb34193b8a595c46613dc0fff11c226ebe815250602990600562000a6e92919062000e8d565b506040518060a001604052807f173fe27a7f0c60540d8d600c5850189dd4bb8d7f3c007a385606cd2c6181554d81526020017f08f2c08c988b82b1e72491c92c1888d988b28dbdf5969bca17d439211e0e491781526020017f07d1bdb66bfe5e8ea65931d35586ff1c40ce91a19e82bf032ce19b1ef5f0597181526020017f1f7e97b1ecc7c35f2e9ee3393ea5d101018c8ab489dc82d6678931cd13a0656481526020017f0aa1ce7a4ee86b4d125985c4fbef9eb81ff6397e9ee5b638cd6c5f7f3f1edc8f815250602e90600562000b4892919062000e8d565b5060405180604001604052807f069c989f95c67f2eadad54192ee90365dfd843dd18cd104449c2cd0f6135a00d81526020017f1d30712bd9824a34faf8681c2f97adc1305a2faf1b39d4edf30d23aa5d73e27181525060336000820151816000015560208201518160010155505060405180604001604052807f2cfff7d01b631c28468be5bf2d727199af5fad36b826df7816f54952caf49c3281526020017f1070005b7818ade38c833c325a22173c6abf1df16c09a6634c989af7701ecfe28152506035600082015181600001556020820151816001015550507f121f60ce38117f295e9818dfcb4dc742f01502a468e608ef94852d629c400ff16037557f2877d2ce379fc3bf527374243a7169b5101750073677141bca5b7ea0248e81db6038557f1139f290e1b15f50b86c3fa6c4961c7e69c7b36bf05d9dc9791958e93c06082e60395562000cb96040518060c00160405280609a8152602001620038ef609a913962000d5760201b60201c565b603a556040518060800160405280604181526020016200398960419139603b908051906020019062000ced92919062000ed2565b5073e448992fdeaf94784bbd8f432d781c061d907985603c60006101000a81548173ffffffffffffffffffffffffffffffffffffffff021916908373ffffffffffffffffffffffffffffffffffffffff16021790555034801562000d5057600080fd5b506200115a565b60008160405160200162000d6c919062001034565b6040516020818303038152906040528051906020012060405160200162000d949190620010cc565b604051602081830303815290604052805190602001209050919050565b82805482825590600052602060002090810192821562000df0579160200282015b8281111562000def57825182559160200191906001019062000dd2565b5b50905062000dff919062000f63565b5090565b826002810192821562000e35579160200282015b8281111562000e3457825182559160200191906001019062000e17565b5b50905062000e44919062000f63565b5090565b826015810192821562000e7a579160200282015b8281111562000e7957825182559160200191906001019062000e5c565b5b50905062000e89919062000f63565b5090565b826005810192821562000ebf579160200282015b8281111562000ebe57825182559160200191906001019062000ea1565b5b50905062000ece919062000f63565b5090565b82805462000ee09062001125565b90600052602060002090601f01602090048101928262000f04576000855562000f50565b82601f1062000f1f57805160ff191683800117855562000f50565b8280016001018555821562000f50579182015b8281111562000f4f57825182559160200191906001019062000f32565b5b50905062000f5f919062000f63565b5090565b5b8082111562000f7e57600081600090555060010162000f64565b5090565b7f4e487b7100000000000000000000000000000000000000000000000000000000600052603260045260246000fd5b600081519050919050565b600081905092915050565b60005b8381101562000fe757808201518184015260208101905062000fca565b8381111562000ff7576000848401525b50505050565b60006200100a8262000fb1565b62001016818562000fbc565b93506200102881856020860162000fc7565b80840191505092915050565b600062001042828462000ffd565b915081905092915050565b7f19457468657265756d205369676e6564204d6573736167653a0a333200000000600082015250565b600062001085601c8362000fbc565b915062001092826200104d565b601c82019050919050565b6000819050919050565b6000819050919050565b620010c6620010c0826200109d565b620010a7565b82525050565b6000620010d98262001076565b9150620010e78284620010b1565b60208201915081905092915050565b7f4e487b7100000000000000000000000000000000000000000000000000000000600052602260045260246000fd5b600060028204905060018216806200113e57607f821691505b602082108103620011545762001153620010f6565b5b50919050565b612785806200116a6000396000f3fe608060405234801561001057600080fd5b50600436106100415760003560e01c80638f156d71146100465780639c22c95114610064578063d98966fd14610082575b600080fd5b61004e6100b2565b60405161005b9190611d98565b60405180910390f35b61006c610361565b6040516100799190611d98565b60405180910390f35b61009c60048036038101906100979190611f05565b610ed6565b6040516100a99190611d98565b60405180910390f35b600080610171604051806040016040528060296000600581106100d8576100d7611f93565b5b0154815260200160296001600581106100f4576100f3611f93565b5b01548152506040518060400160405280602960036005811061011957610118611f93565b5b01548152602001602960046005811061013557610134611f93565b5b0154815250602560016002811061014f5761014e611f93565b5b0154602960026005811061016657610165611f93565b5b015460006001610ed6565b801561022157506102206040518060400160405280602960006005811061019b5761019a611f93565b5b0154815260200160296001600581106101b7576101b6611f93565b5b01548152506040518060400160405280602e6001600581106101dc576101db611f93565b5b01548152602001602e6002600581106101f8576101f7611f93565b5b0154815250603754602e60006005811061021557610214611f93565b5b015460006001610ed6565b5b80156102c557506102c46035604051806040016040529081600082015481526020016001820154815250506040518060400160405280602e60036005811061026c5761026b611f93565b5b01548152602001602e60046005811061028857610287611f93565b5b015481525060256000600281106102a2576102a1611f93565b5b0154602e6000600581106102b9576102b8611f93565b5b015460006001610ed6565b5b8015610321575061032060356040518060400160405290816000820154815260200160018201548152505060336040518060400160405290816000820154815260200160018201548152505060385460395460006001610ed6565b5b90507f9ebf19a79884326bf6ddfcf4bd501eb6a52b40414ecd5d8a70514f606810801e816040516103529190611d98565b60405180910390a18091505090565b6000807f30644e72e131a029b85045b68181585d2833e84879b9709143e1f593f00000018061039357610392611fc2565b5b60256001600281106103a8576103a7611f93565b5b015460256000600281106103bf576103be611f93565b5b015409905060007f30644e72e131a029b85045b68181585d2833e84879b9709143e1f593f0000001806103f5576103f4611fc2565b5b6027547f30644e72e131a029b85045b68181585d2833e84879b9709143e1f593f00000016104239190612020565b7f30644e72e131a029b85045b68181585d2833e84879b9709143e1f593f00000018061045257610451611fc2565b5b7f30644e72e131a029b85045b68181585d2833e84879b9709143e1f593f00000018061048157610480611fc2565b5b6028547f30644e72e131a029b85045b68181585d2833e84879b9709143e1f593f0000001806104b3576104b2611fc2565b5b6010600f601581106104c8576104c7611f93565b5b01546010600c601581106104df576104de611f93565b5b015408087f30644e72e131a029b85045b68181585d2833e84879b9709143e1f593f00000018061051257610511611fc2565b5b601060096015811061052757610526611f93565b5b0154601060066015811061053e5761053d611f93565b5b015408090890506000603c60009054906101000a900473ffffffffffffffffffffffffffffffffffffffff1673ffffffffffffffffffffffffffffffffffffffff16610616603a54603b805461059390612083565b80601f01602080910402602001604051908101604052809291908181526020018280546105bf90612083565b801561060c5780601f106105e15761010080835404028352916020019161060c565b820191906000526020600020905b8154815290600101906020018083116105ef57829003601f168201915b50505050506111ab565b73ffffffffffffffffffffffffffffffffffffffff1614905060006106ec6040518060400160405280601060006015811061065457610653611f93565b5b0154815260200160106001601581106106705761066f611f93565b5b01548152506040518060400160405280601060076015811061069557610694611f93565b5b0154815260200160106008601581106106b1576106b0611f93565b5b015481525060256001600281106106cb576106ca611f93565b5b015460106006601581106106e2576106e1611f93565b5b0154600080610ed6565b801561079957506107986040518060400160405280601060006015811061071657610715611f93565b5b01548152602001601060016015811061073257610731611f93565b5b015481525060405180604001604052806010600d6015811061075757610756611f93565b5b015481526020016010600e6015811061077357610772611f93565b5b0154815250866010600c6015811061078e5761078d611f93565b5b0154600080610ed6565b5b801561085d575061085c604051806040016040528060106002601581106107c3576107c2611f93565b5b0154815260200160106003601581106107df576107de611f93565b5b015481525060405180604001604052806010600a6015811061080457610803611f93565b5b015481526020016010600b601581106108205761081f611f93565b5b0154815250602560016002811061083a57610839611f93565b5b0154601060096015811061085157610850611f93565b5b015460016000610ed6565b5b801561090a57506109096040518060400160405280601060026015811061088757610886611f93565b5b0154815260200160106003601581106108a3576108a2611f93565b5b01548152506040518060400160405280601080601581106108c7576108c6611f93565b5b0154815260200160106011601581106108e3576108e2611f93565b5b0154815250866010600f601581106108fe576108fd611f93565b5b015460016000610ed6565b5b80156109b857506109b76040518060400160405280601060046015811061093457610933611f93565b5b0154815260200160106005601581106109505761094f611f93565b5b01548152506040518060400160405280601060126015811061097557610974611f93565b5b01548152602001601060136015811061099157610990611f93565b5b015481525060256001600281106109ab576109aa611f93565b5b01548660006001610ed6565b5b8015610a665750610a65604051806040016040528060106004601581106109e2576109e1611f93565b5b0154815260200160106005601581106109fe576109fd611f93565b5b015481525060405180604001604052806010601260158110610a2357610a22611f93565b5b015481526020016010601360158110610a3f57610a3e611f93565b5b01548152506025600160028110610a5957610a58611f93565b5b01548660006001610ed6565b5b8015610b145750610b1360405180604001604052806010600460158110610a9057610a8f611f93565b5b015481526020016010600560158110610aac57610aab611f93565b5b015481525060405180604001604052806010601260158110610ad157610ad0611f93565b5b015481526020016010601360158110610aed57610aec611f93565b5b01548152506025600160028110610b0757610b06611f93565b5b01548660006001610ed6565b5b8015610bc25750610bc160405180604001604052806010600460158110610b3e57610b3d611f93565b5b015481526020016010600560158110610b5a57610b59611f93565b5b015481525060405180604001604052806010601260158110610b7f57610b7e611f93565b5b015481526020016010601360158110610b9b57610b9a611f93565b5b01548152506025600160028110610bb557610bb4611f93565b5b01548660006001610ed6565b5b8015610c705750610c6f60405180604001604052806010600460158110610bec57610beb611f93565b5b015481526020016010600560158110610c0857610c07611f93565b5b015481525060405180604001604052806010601260158110610c2d57610c2c611f93565b5b015481526020016010601360158110610c4957610c48611f93565b5b01548152506025600160028110610c6357610c62611f93565b5b01548660006001610ed6565b5b8015610d1e5750610d1d60405180604001604052806010600460158110610c9a57610c99611f93565b5b015481526020016010600560158110610cb657610cb5611f93565b5b015481525060405180604001604052806010601260158110610cdb57610cda611f93565b5b015481526020016010601360158110610cf757610cf6611f93565b5b01548152506025600160028110610d1157610d10611f93565b5b01548660006001610ed6565b5b8015610dcc5750610dcb60405180604001604052806010600460158110610d4857610d47611f93565b5b015481526020016010600560158110610d6457610d63611f93565b5b015481525060405180604001604052806010601260158110610d8957610d88611f93565b5b015481526020016010601360158110610da557610da4611f93565b5b01548152506025600160028110610dbf57610dbe611f93565b5b01548660006001610ed6565b5b8015610e7a5750610e7960405180604001604052806010600460158110610df657610df5611f93565b5b015481526020016010600560158110610e1257610e11611f93565b5b015481525060405180604001604052806010601260158110610e3757610e36611f93565b5b015481526020016010601360158110610e5357610e52611f93565b5b01548152506025600160028110610e6d57610e6c611f93565b5b01548660006001610ed6565b5b8015610e8a5750610e896100b2565b5b8015610e935750815b90507f9ebf19a79884326bf6ddfcf4bd501eb6a52b40414ecd5d8a70514f606810801e81604051610ec49190611d98565b60405180910390a18094505050505090565b60007f30644e72e131a029b85045b68181585d2833e84879b9709143e1f593f0000001876000015110610f3e576040517f08c379a0000000000000000000000000000000000000000000000000000000008152600401610f3590612137565b60405180910390fd5b7f30644e72e131a029b85045b68181585d2833e84879b9709143e1f593f0000001876020015110610fa4576040517f08c379a0000000000000000000000000000000000000000000000000000000008152600401610f9b906121c9565b60405180910390fd5b7f30644e72e131a029b85045b68181585d2833e84879b9709143e1f593f000000186600001511061100a576040517f08c379a00000000000000000000000000000000000000000000000000000000081526004016110019061225b565b60405180910390fd5b7f30644e72e131a029b85045b68181585d2833e84879b9709143e1f593f0000001866020015110611070576040517f08c379a0000000000000000000000000000000000000000000000000000000008152600401611067906122ed565b60405180910390fd5b7f30644e72e131a029b85045b68181585d2833e84879b9709143e1f593f000000185106110d2576040517f08c379a00000000000000000000000000000000000000000000000000000000081526004016110c99061237f565b60405180910390fd5b7f30644e72e131a029b85045b68181585d2833e84879b9709143e1f593f00000018410611134576040517f08c379a000000000000000000000000000000000000000000000000000000000815260040161112b90612411565b60405180910390fd5b6000611148611143888861127e565b611356565b9050600061116661116061115a611414565b8861127e565b83611438565b905060006111738a611356565b905061119c8961118288611536565b8461118c8a61162a565b856111978c8c61174d565b61193f565b93505050509695505050505050565b60008060008060418551146111c65760009350505050611278565b6020850151925060408501519150606085015160001a9050601b8160ff1610156111fa57601b816111f7919061243e565b90505b601b8160ff16141580156112125750601c8160ff1614155b156112235760009350505050611278565b60018682858560405160008152602001604052604051611246949392919061249d565b6020604051602081039080840390855afa158015611268573d6000803e3d6000fd5b5050506020604051035193505050505b92915050565b611286611cb5565b61128e611ccf565b8360000151816000600381106112a7576112a6611f93565b5b6020020181815250508360200151816001600381106112c9576112c8611f93565b5b60200201818152505082816002600381106112e7576112e6611f93565b5b602002018181525050600060608360808460076107d05a03fa9050806000810361130d57fe5b508061134e576040517f08c379a00000000000000000000000000000000000000000000000000000000081526004016113459061252e565b60405180910390fd5b505092915050565b61135e611cb5565b60008260000151148015611376575060008260200151145b15611399576040518060400160405280600081526020016000815250905061140f565b6040518060400160405280836000015181526020017f30644e72e131a029b85045b68181585d97816a916871ca8d3c208c16d87cfd4784602001516113de919061254e565b7f30644e72e131a029b85045b68181585d97816a916871ca8d3c208c16d87cfd476114099190612020565b81525090505b919050565b61141c611cb5565b6040518060400160405280600181526020016002815250905090565b611440611cb5565b611448611cf1565b83600001518160006004811061146157611460611f93565b5b60200201818152505083602001518160016004811061148357611482611f93565b5b6020020181815250508260000151816002600481106114a5576114a4611f93565b5b6020020181815250508260200151816003600481106114c7576114c6611f93565b5b602002018181525050600060608360c08460066107d05a03fa905080600081036114ed57fe5b508061152e576040517f08c379a0000000000000000000000000000000000000000000000000000000008152600401611525906125cb565b60405180910390fd5b505092915050565b61153e611d13565b60405180604001604052806040518060400160405280600086600261156391906125eb565b8154811061157457611573611f93565b5b90600052602060002001548152602001600186600261159391906125eb565b815481106115a4576115a3611f93565b5b90600052602060002001548152508152602001604051806040016040528060028660026115d191906125eb565b815481106115e2576115e1611f93565b5b90600052602060002001548152602001600386600261160191906125eb565b8154811061161257611611611f93565b5b90600052602060002001548152508152509050919050565b611632611d13565b604051806040016040528060405180604001604052806000600187600261165991906125eb565b6116639190612645565b8154811061167457611673611f93565b5b9060005260206000200154815260200160018087600261169491906125eb565b61169e9190612645565b815481106116af576116ae611f93565b5b906000526020600020015481525081526020016040518060400160405280600260018760026116de91906125eb565b6116e89190612645565b815481106116f9576116f8611f93565b5b906000526020600020015481526020016003600187600261171a91906125eb565b6117249190612645565b8154811061173557611734611f93565b5b90600052602060002001548152508152509050919050565b611755611d13565b81156117f957600c604051806040016040529081600082016002806020026040519081016040528092919082600280156117a4576020028201915b815481526020019060010190808311611790575b50505050508152602001600282016002806020026040519081016040528092919082600280156117e9576020028201915b8154815260200190600101908083116117d5575b5050505050815250509050611939565b6000830361189f5760086040518060400160405290816000820160028060200260405190810160405280929190826002801561184a576020028201915b815481526020019060010190808311611836575b505050505081526020016002820160028060200260405190810160405280929190826002801561188f576020028201915b81548152602001906001019080831161187b575b5050505050815250509050611939565b6004604051806040016040529081600082016002806020026040519081016040528092919082600280156118e8576020028201915b8154815260200190600101908083116118d4575b505050505081526020016002820160028060200260405190810160405280929190826002801561192d576020028201915b815481526020019060010190808311611919575b50505050508152505090505b92915050565b60008060405180606001604052808981526020018781526020018581525090506000604051806060016040528089815260200187815260200185815250905060006012905060008167ffffffffffffffff8111156119a05761199f611dd8565b5b6040519080825280602002602001820160405280156119ce5781602001602082028036833780820191505090505b50905060005b6003811015611c0c5760006006826119ec91906125eb565b9050858260038110611a0157611a00611f93565b5b60200201516000015183600083611a189190612645565b81518110611a2957611a28611f93565b5b602002602001018181525050858260038110611a4857611a47611f93565b5b60200201516020015183600183611a5f9190612645565b81518110611a7057611a6f611f93565b5b602002602001018181525050848260038110611a8f57611a8e611f93565b5b602002015160000151600060028110611aab57611aaa611f93565b5b602002015183600283611abe9190612645565b81518110611acf57611ace611f93565b5b602002602001018181525050848260038110611aee57611aed611f93565b5b602002015160000151600160028110611b0a57611b09611f93565b5b602002015183600383611b1d9190612645565b81518110611b2e57611b2d611f93565b5b602002602001018181525050848260038110611b4d57611b4c611f93565b5b602002015160200151600060028110611b6957611b68611f93565b5b602002015183600483611b7c9190612645565b81518110611b8d57611b8c611f93565b5b602002602001018181525050848260038110611bac57611bab611f93565b5b602002015160200151600160028110611bc857611bc7611f93565b5b602002015183600583611bdb9190612645565b81518110611bec57611beb611f93565b5b602002602001018181525050508080611c049061269b565b9150506119d4565b50611c15611d39565b600080602085611c2591906125eb565b9050602083826020870160086107d05a03fa91508160008103611c4457fe5b5081611c85576040517f08c379a0000000000000000000000000000000000000000000000000000000008152600401611c7c9061272f565b60405180910390fd5b600083600060018110611c9b57611c9a611f93565b5b602002015114159750505050505050509695505050505050565b604051806040016040528060008152602001600081525090565b6040518060600160405280600390602082028036833780820191505090505090565b6040518060800160405280600490602082028036833780820191505090505090565b6040518060400160405280611d26611d5b565b8152602001611d33611d5b565b81525090565b6040518060200160405280600190602082028036833780820191505090505090565b6040518060400160405280600290602082028036833780820191505090505090565b60008115159050919050565b611d9281611d7d565b82525050565b6000602082019050611dad6000830184611d89565b92915050565b6000604051905090565b600080fd5b600080fd5b6000601f19601f8301169050919050565b7f4e487b7100000000000000000000000000000000000000000000000000000000600052604160045260246000fd5b611e1082611dc7565b810181811067ffffffffffffffff82111715611e2f57611e2e611dd8565b5b80604052505050565b6000611e42611db3565b9050611e4e8282611e07565b919050565b6000819050919050565b611e6681611e53565b8114611e7157600080fd5b50565b600081359050611e8381611e5d565b92915050565b600060408284031215611e9f57611e9e611dc2565b5b611ea96040611e38565b90506000611eb984828501611e74565b6000830152506020611ecd84828501611e74565b60208301525092915050565b611ee281611d7d565b8114611eed57600080fd5b50565b600081359050611eff81611ed9565b92915050565b6000806000806000806101008789031215611f2357611f22611dbd565b5b6000611f3189828a01611e89565b9650506040611f4289828a01611e89565b9550506080611f5389828a01611e74565b94505060a0611f6489828a01611e74565b93505060c0611f7589828a01611e74565b92505060e0611f8689828a01611ef0565b9150509295509295509295565b7f4e487b7100000000000000000000000000000000000000000000000000000000600052603260045260246000fd5b7f4e487b7100000000000000000000000000000000000000000000000000000000600052601260045260246000fd5b7f4e487b7100000000000000000000000000000000000000000000000000000000600052601160045260246000fd5b600061202b82611e53565b915061203683611e53565b92508282101561204957612048611ff1565b5b828203905092915050565b7f4e487b7100000000000000000000000000000000000000000000000000000000600052602260045260246000fd5b6000600282049050600182168061209b57607f821691505b6020821081036120ae576120ad612054565b5b50919050565b600082825260208201905092915050565b7f56657269666965722e7665726966794b5a473a205f636f6d6d69746d656e742e60008201527f58206973206f7574206f662072616e6765000000000000000000000000000000602082015250565b60006121216031836120b4565b915061212c826120c5565b604082019050919050565b6000602082019050818103600083015261215081612114565b9050919050565b7f56657269666965722e7665726966794b5a473a205f636f6d6d69746d656e742e60008201527f59206973206f7574206f662072616e6765000000000000000000000000000000602082015250565b60006121b36031836120b4565b91506121be82612157565b604082019050919050565b600060208201905081810360008301526121e2816121a6565b9050919050565b7f56657269666965722e7665726966794b5a473a205f70726f6f662e582069732060008201527f6f7574206f662072616e67650000000000000000000000000000000000000000602082015250565b6000612245602c836120b4565b9150612250826121e9565b604082019050919050565b6000602082019050818103600083015261227481612238565b9050919050565b7f56657269666965722e7665726966794b5a473a205f70726f6f662e592069732060008201527f6f7574206f662072616e67650000000000000000000000000000000000000000602082015250565b60006122d7602c836120b4565b91506122e28261227b565b604082019050919050565b60006020820190508181036000830152612306816122ca565b9050919050565b7f56657269666965722e7665726966794b5a473a205f696e646578206973206f7560008201527f74206f662072616e676500000000000000000000000000000000000000000000602082015250565b6000612369602a836120b4565b91506123748261230d565b604082019050919050565b600060208201905081810360008301526123988161235c565b9050919050565b7f56657269666965722e7665726966794b5a473a205f76616c7565206973206f7560008201527f74206f662072616e676500000000000000000000000000000000000000000000602082015250565b60006123fb602a836120b4565b91506124068261239f565b604082019050919050565b6000602082019050818103600083015261242a816123ee565b9050919050565b600060ff82169050919050565b600061244982612431565b915061245483612431565b92508260ff0382111561246a57612469611ff1565b5b828201905092915050565b6000819050919050565b61248881612475565b82525050565b61249781612431565b82525050565b60006080820190506124b2600083018761247f565b6124bf602083018661248e565b6124cc604083018561247f565b6124d9606083018461247f565b95945050505050565b7f70616972696e672d6d756c2d6661696c65640000000000000000000000000000600082015250565b60006125186012836120b4565b9150612523826124e2565b602082019050919050565b600060208201905081810360008301526125478161250b565b9050919050565b600061255982611e53565b915061256483611e53565b92508261257457612573611fc2565b5b828206905092915050565b7f70616972696e672d6164642d6661696c65640000000000000000000000000000600082015250565b60006125b56012836120b4565b91506125c08261257f565b602082019050919050565b600060208201905081810360008301526125e4816125a8565b9050919050565b60006125f682611e53565b915061260183611e53565b9250817fffffffffffffffffffffffffffffffffffffffffffffffffffffffffffffffff048311821515161561263a57612639611ff1565b5b828202905092915050565b600061265082611e53565b915061265b83611e53565b9250827fffffffffffffffffffffffffffffffffffffffffffffffffffffffffffffffff038211156126905761268f611ff1565b5b828201905092915050565b60006126a682611e53565b91507fffffffffffffffffffffffffffffffffffffffffffffffffffffffffffffffff82036126d8576126d7611ff1565b5b600182019050919050565b7f70616972696e672d6f70636f64652d6661696c65640000000000000000000000600082015250565b60006127196015836120b4565b9150612724826126e3565b602082019050919050565b600060208201905081810360008301526127488161270c565b905091905056fea264697066735822122032f40f319d6660bb155d7fc5212478177d72363e63790586b2ec785a8e172c8764736f6c634300080d003332303930303432393839393239313030393037333239393238393436393636303134393731363738353539363235313439313330303639323033353638313439323031363933393137393235372c2034333336393130323335363836393631353338323835393936353237323731373734393336373139303538383334353439353338363836303430373438373135323833383132323030393719ec5dc5aa05a220cd210a113352596ebf80d06a6f776b8e0c656e50a5c5567f1e8a7f23fb27f77ea5b5d42f0e2384facdebebd85f026e2a73e94d4690a40a6801",
  "immutableReferences": {},
  "source": "// Modified from https://github.com/appliedzkp/semaphore/blob/master/contracts/sol/verifier.sol\n// SPDX-License-Identifier: MIT\npragma solidity >=0.4.22 <0.9.0;\npragma experimental ABIEncoderV2;\nimport \"./Pairing.sol\";\n// import \"./PolyCoeff.sol\";\nimport { Constants } from \"./Constants.sol\";\n// import \"@openzeppelin/contracts/utils/Strings.sol\";\n\ncontract Verifier is Constants {\n\n    using Pairing for *;\n\n    // PolyCoeff polyCoeff;\n\n    event verifyResult(bool result);\n\n        uint256[21] Proof = [\n        uint256(20435686948508171234472206488737953800505595616105823290561271581793730135986),\n        uint256(7613038940582986439878577004424311309737615170791456916446723479068371769225),\n        uint256(20900429899291009073299289469660149716785596251491300692035681492016939179257),\n        uint256(17015433841169487450406840425175642150965883946544965612916879717959251917877),\n        uint256(433691023568696153828599652727177493671905883454953868604074871528381220097),\n        uint256(10320531664273889342578906132837836076031009559738199149165995480549188738219),\n        uint256(5841514956038981489672186264970094693930045609713312309929445225955171101947),\n        uint256(5021024840007099401420413415719005463562614305701472747429400657816854795888),\n        uint256(20774065911754029615648528083815650325450840922528127398846513310899898519818),\n        uint256(15033194806153309440324576121312701377491848712637707126378339071163915088607),\n        uint256(13797601081368067296147105517336555699959400728196376360418452678919689273357),\n        uint256(347536244405038501480645670232637364896709701574004323632284243300674648233),\n        uint256(14150985670258525975582637074878024272235049272474457475329855381177734047698),\n        uint256(2655786006985334435742353147654701867454007390061009682990360208958229883457),\n        uint256(19749978915220999581635876327451130211831443864540429941950424972239040718725),\n        uint256(18652734379260577017619098828238354228621932558467343220803598526754221068969),\n        uint256(19231643171984527412379363884712632725022106910875011856721870145973184299950),\n        uint256(11890584382703984881384687349129438589403848436060509080598302278432395889958),\n        uint256(19848703903105846067635106277601755727734486581037082434405934553883502968806),\n        uint256(7073067203970200196273245091229017314841577127190841947842173598530677375580),\n        uint256(11142795172845103846997117758219330284910812886430955732663385421662518242916)\n    ];\n\n    uint256[2] Randoms = [\n        uint256(21356640755055926883299664242251323519715676831624930462071588778907420237277),\n        uint256(21284924740537517593391635090683107806948436131904811688892120057033464016678)\n    ];\n\n    uint256 evalK = uint256(11598511819595573397693757683043215863237090817957830497519701049476846220233);\n    uint256 evalS = Proof[20];\n\n    // SOCC_hscS = [G1Point S_j, uint256 s_j, G1Point W_j]\n    uint256[5] SOCC_hscS = [\n        uint256(4856595452220518861283513887787149560249872199754148373623768058895650888886),\n        uint256(18903793806709064235976701805982270837399009185115750427816521247566249210556),\n        uint256(11142795172845103846997117758219330284910812886430955732663385421662518242916),\n        uint256(21371202341828297453905088304285070177929072675831707150146249345026206448204),\n        uint256(2804295765584777874267821186909392907007222244895837511075392229436674961086)\n    ];\n    // SOCC_hscW = [uint256 s'_j,G1Point W'_j, G1Point Q_j]\n    uint256[5] SOCC_hscW = [\n        uint256(10516069979663785554384039720791935537971662430097624533692998141893610132813),\n        uint256(4047408704098476939730481302397316844045052246660100325786631118072453155095),\n        uint256(3536770324764440576997419732517461268782698510962602892817204324264966117745),\n        uint256(14245367996788138561788347307320292816184394224142842975302936827932398609764),\n        uint256(4809015920432886449944012129537258787815219963382067822305826740230093200527)\n    ];\n\n    Pairing.G1Point hscQv = Pairing.G1Point(\n        uint256(2990558601454446836641627272921201963123578559834602407524792456795005493261),\n        uint256(13202662347545347168000079135411531495309137838398006144762638337293564502641)\n    );\n    Pairing.G1Point hscC = Pairing.G1Point(\n        uint256(20354021681082976488982424663336191185782081465046767166624106617637273115698),\n        uint256(7434894914590215425794637416957100516507193983165584369402225555559623348194)\n    );\n\n    uint256 u = uint256(8197071660809916300712359474937866146139983659726903111927633346212682272753);\n    uint256 v = uint256(18304223670379022123371455395869338667757056554451611927086438308637909615067);\n\n    // from terminal\n    uint256 s_uv = uint256(7791702837224372263152657165191932519240106980588006270334507770946892728366);\n\n    // from Go\n    bytes32 message = ethMessageHash(\"20900429899291009073299289469660149716785596251491300692035681492016939179257, 433691023568696153828599652727177493671905883454953868604074871528381220097\");\n    bytes sig = hex\"19ec5dc5aa05a220cd210a113352596ebf80d06a6f776b8e0c656e50a5c5567f1e8a7f23fb27f77ea5b5d42f0e2384facdebebd85f026e2a73e94d4690a40a6801\";\n    address addr = 0xE448992FdEaF94784bBD8f432d781C061D907985;\n\n\n\n    function verify(\n        Pairing.G1Point memory _commitment, // F\n        Pairing.G1Point memory _proof, // W\n        uint256 _index,  // z\n        uint256 _value,  // F(z) or v\n        uint proofIndex,\n        bool isT\n    ) public view returns (bool) {\n        // Make sure each parameter is less than the prime q\n        require(_commitment.X < BABYJUB_P, \"Verifier.verifyKZG: _commitment.X is out of range\");\n        require(_commitment.Y < BABYJUB_P, \"Verifier.verifyKZG: _commitment.Y is out of range\");\n        require(_proof.X < BABYJUB_P, \"Verifier.verifyKZG: _proof.X is out of range\");\n        require(_proof.Y < BABYJUB_P, \"Verifier.verifyKZG: _proof.Y is out of range\");\n        require(_index < BABYJUB_P, \"Verifier.verifyKZG: _index is out of range\");\n        require(_value < BABYJUB_P, \"Verifier.verifyKZG: _value is out of range\");\n       \n        Pairing.G1Point memory negProof = Pairing.negate(Pairing.mulScalar(_proof, _index));\n        Pairing.G1Point memory mulProof = Pairing.plus(Pairing.mulScalar(Constants.G1Gen(), _value), negProof);\n        Pairing.G1Point memory negCm = Pairing.negate(_commitment);\n\n        return Pairing.pairing(_proof, Constants.SRS_G2_hAlphaX1(proofIndex),\n                                mulProof, Constants.SRS_G2_hAlphaX0(proofIndex),\n                                negCm, Constants.SRS_G2_hAlphaXdMax(proofIndex, isT));\n        // return false;\n    }\n\n    function verifySonic(\n        // uint256[21] memory Proof,\n        // uint256[2] memory Randoms\n    ) public returns (bool) {\n\n        // simulate calculating kY\n        // uint256 ky = evalKPoly();\n        // // // simulate calculating sXY\n        // uint256 sx = evalXPoly();\n        // uint256 sy = evalXPoly();\n\n        uint256 yz = mulmod(Randoms[0], Randoms[1], Pairing.BABYJUB_P);\n        uint256 t = addmod(mulmod(addmod(Proof[6], Proof[9], Pairing.BABYJUB_P), \n                                  addmod(addmod(Proof[12], \n                                                Proof[15], Pairing.BABYJUB_P), \n                                         evalS, Pairing.BABYJUB_P), Pairing.BABYJUB_P),\n                            Pairing.BABYJUB_P - evalK, Pairing.BABYJUB_P);\n\n        bool verifySignature = recover(message, sig) == addr;\n        bool result = verify(Pairing.G1Point(Proof[0], Proof[1]), // aLocal\n                      Pairing.G1Point(Proof[7], Proof[8]),\n                      Randoms[1], \n                      Proof[6],\n                      0, false) &&\n                verify(Pairing.G1Point(Proof[0], Proof[1]), // bLocal\n                      Pairing.G1Point(Proof[13], Proof[14]),\n                      yz,\n                      Proof[12],\n                      0, false) &&\n                verify(Pairing.G1Point(Proof[2], Proof[3]), // aRaw\n                      Pairing.G1Point(Proof[10], Proof[11]),\n                      Randoms[1],\n                      Proof[9],\n                      1, false) &&\n                verify(Pairing.G1Point(Proof[2], Proof[3]), // bRaw\n                      Pairing.G1Point(Proof[16], Proof[17]),\n                      yz,\n                      Proof[15],\n                      1, false) &&\n                verify(Pairing.G1Point(Proof[4], Proof[5]), // t\n                      Pairing.G1Point(Proof[18], Proof[19]),\n                      Randoms[1],\n                      t,\n                      0, true) &&                               \n                verify(Pairing.G1Point(Proof[4], Proof[5]), // t\n                      Pairing.G1Point(Proof[18], Proof[19]),\n                      Randoms[1],\n                      t,\n                      0, true) &&                                            // pcV srsLocal (srsD srsLocal) commitK y (k, wk)\n                verify(Pairing.G1Point(Proof[4], Proof[5]), // t\n                      Pairing.G1Point(Proof[18], Proof[19]),\n                      Randoms[1],\n                      t,\n                      0, true) &&                                            // pcV srsLocal (srsD srsLocal) commitC y (c, wc)\n                verify(Pairing.G1Point(Proof[4], Proof[5]), // t\n                      Pairing.G1Point(Proof[18], Proof[19]),\n                      Randoms[1],\n                      t,\n                      0, true) &&                                            // pcV srsLocal (srsD srsLocal) commitC yOld (cOld, wcOld)\n                verify(Pairing.G1Point(Proof[4], Proof[5]), // t\n                      Pairing.G1Point(Proof[18], Proof[19]),\n                      Randoms[1],\n                      t,\n                      0, true) &&                                            //, pcV srsLocal (srsD srsLocal) commitC yNew (cNew, wcNew)\n                verify(Pairing.G1Point(Proof[4], Proof[5]), // t\n                      Pairing.G1Point(Proof[18], Proof[19]),\n                      Randoms[1],\n                      t,\n                      0, true) &&                                            //, pcV srsLocal (srsD srsLocal) commitS z (s, ws)\n                verify(Pairing.G1Point(Proof[4], Proof[5]), // t\n                      Pairing.G1Point(Proof[18], Proof[19]),\n                      Randoms[1],\n                      t,\n                      0, true) &&                                            //, pcV srsLocal (srsD srsLocal) commitSOld z (sOld, wsOld)\n                 verify(Pairing.G1Point(Proof[4], Proof[5]), // t\n                      Pairing.G1Point(Proof[18], Proof[19]),\n                      Randoms[1],\n                      t,\n                      0, true) &&                                           //, pcV srsLocal (srsD srsLocal) commitSNew z (sNew, wsNew)\n                verifySOCC() && verifySignature;\n        // bool result = true;\n        emit verifyResult(result);\n        return result;\n    }\n\n    function verifySOCC() public returns (bool) {\n\n        bool verified = verify(Pairing.G1Point(SOCC_hscS[0], SOCC_hscS[1]), // pcV(bp,srs,S_j,d,z_j,(s_j,W_j)\n                      Pairing.G1Point(SOCC_hscS[3], SOCC_hscS[4]),\n                      Randoms[1], \n                      SOCC_hscS[2],\n                      0, true) &&\n                      verify(Pairing.G1Point(SOCC_hscS[0], SOCC_hscS[1]), // pcV(bp,srs,S_j,d,u,(s'_j,W'_j))\n                      Pairing.G1Point(SOCC_hscW[1], SOCC_hscW[2]),\n                      u, \n                      SOCC_hscW[0],\n                      0, true) &&\n                      verify(hscC,                                      // pcV(bp,srs,C,d,y_j,(s'_j,Q_j)\n                      Pairing.G1Point(SOCC_hscW[3], SOCC_hscW[4]),\n                      Randoms[0], \n                      SOCC_hscW[0],\n                      0, true) &&\n                      verify(hscC,                                      // pcV(bp,srs,C,d,v,(s_uv,Q_v))\n                      hscQv,\n                      v, \n                      s_uv,\n                      0, true);\n        emit verifyResult(verified);\n        return verified;\n    }\n\n    /**\n     * @dev Recover signer address from a message by using their signature\n     * @param hash bytes32 message, the hash is the signed message. What is recovered is the signer address.\n     * @param signature bytes signature, the signature is generated using web3.eth.sign()\n     */\n    function recover(bytes32 hash, bytes memory signature) internal pure returns (address) {\n        bytes32 r;\n        bytes32 s;\n        uint8 _v;\n\n        // Check the signature length\n        if (signature.length != 65) {\n            return (address(0));\n        }\n\n        // Divide the signature in r, s and v variables\n        // ecrecover takes the signature parameters, and the only way to get them\n        // currently is to use assembly.\n        // solium-disable-next-line security/no-inline-assembly\n        assembly {\n            r := mload(add(signature, 32))\n            s := mload(add(signature, 64))\n            _v := byte(0, mload(add(signature, 96)))\n        }\n\n        // Version of signature should be 27 or 28, but 0 and 1 are also possible versions\n        if (_v < 27) {\n            _v += 27;\n        }\n\n        // If the version is correct return the signer address\n        if (_v != 27 && _v != 28) {\n            return (address(0));\n        } else {\n            // solium-disable-next-line arg-overflow\n            return ecrecover(hash, _v, r, s);\n        }\n    }\n\n    /**\n    * @dev prefix a bytes32 value with \"\\x19Ethereum Signed Message:\" and hash the result\n    */\n    function ethMessageHash(string memory rawCommitment) internal pure returns (bytes32) {\n        return keccak256(\n            abi.encodePacked(\"\\x19Ethereum Signed Message:\\n32\", keccak256(abi.encodePacked(rawCommitment)))\n        );\n    }\n\n\n    // /*\n    //  * @return The polynominal evaluation of a polynominal with the specified\n    //  *         coefficients at the given index.\n    //  */\n    //  function evalKPoly() public returns (uint256) {\n\n    //     uint baseOrder = 204;\n    //     uint256[100] memory _coefficients = [\n    //                 uint256(0),\n    //                 uint256(0),\n    //                 uint256(0),\n    //                 uint256(0),\n    //                 uint256(0),\n    //                 uint256(0),\n    //                 uint256(0),\n    //                 uint256(0),\n    //                 uint256(0),\n    //                 uint256(0),\n    //                 uint256(1),\n    //                 uint256(1),\n    //                 uint256(0),\n    //                 uint256(0),\n    //                 uint256(1),\n    //                 uint256(1),\n    //                 uint256(1),\n    //                 uint256(1),\n    //                 uint256(1),\n    //                 uint256(1),\n    //                 uint256(1),\n    //                 uint256(1),\n    //                 uint256(1),\n    //                 uint256(1),\n    //                 uint256(1),\n    //                 uint256(1),\n    //                 uint256(1),\n    //                 uint256(1),\n    //                 uint256(1),\n    //                 uint256(1),\n    //                 uint256(1),\n    //                 uint256(1),\n    //                 uint256(1),\n    //                 uint256(1),\n    //                 uint256(1),\n    //                 uint256(1),\n    //                 uint256(1),\n    //                 uint256(1),\n    //                 uint256(1),\n    //                 uint256(1),\n    //                 uint256(1),\n    //                 uint256(1),\n    //                 uint256(1),\n    //                 uint256(1),\n    //                 uint256(1),\n    //                 uint256(1),\n    //                 uint256(1),\n    //                 uint256(1),\n    //                 uint256(0),\n    //                 uint256(0),\n    //                 uint256(1),\n    //                 uint256(1),\n    //                 uint256(1),\n    //                 uint256(1),\n    //                 uint256(1),\n    //                 uint256(1),\n    //                 uint256(1),\n    //                 uint256(1),\n    //                 uint256(1),\n    //                 uint256(1),\n    //                 uint256(1),\n    //                 uint256(1),\n    //                 uint256(1),\n    //                 uint256(1),\n    //                 uint256(1),\n    //                 uint256(1),\n    //                 uint256(0),\n    //                 uint256(0),\n    //                 uint256(1),\n    //                 uint256(1),\n    //                 uint256(1),\n    //                 uint256(0),\n    //                 uint256(0),\n    //                 uint256(0),\n    //                 uint256(0),\n    //                 uint256(0),\n    //                 uint256(0),\n    //                 uint256(0),\n    //                 uint256(0),\n    //                 uint256(0),\n    //                 uint256(0),\n    //                 uint256(0),\n    //                 uint256(0),\n    //                 uint256(0),\n    //                 uint256(0),\n    //                 uint256(0),\n    //                 uint256(0),\n    //                 uint256(0),\n    //                 uint256(0),\n    //                 uint256(0),\n    //                 uint256(0),\n    //                 uint256(0),\n    //                 uint256(0),\n    //                 uint256(0),\n    //                 uint256(0),\n    //                 uint256(0),\n    //                 uint256(0),\n    //                 uint256(0),\n    //                 uint256(0),\n    //                 uint256(0)\n    //     ];\n    //     uint256 _index = Randoms[0];\n\n    //     uint256 m = Constants.BABYJUB_P;\n    //     uint256 result = 0;\n    //     uint256 powerOfX = _index;\n\n    //     for (uint256 i = 0; i < _coefficients.length; i ++) {\n    //         uint256 coeff = _coefficients[i];\n    //         assembly {\n    //             result:= addmod(result, mulmod(powerOfX, coeff, m), m)\n    //             powerOfX := mulmod(powerOfX, _index, m)\n    //         }\n    //     }\n    //     uint256 basePower = expMod(_index, baseOrder, m);\n    //     result = mulmod(basePower, result, m);\n\n    //     return result;\n    // }\n\n    //     /*\n    //  * @return The polynominal evaluation of a polynominal with the specified\n    //  *         coefficients at the given index.\n    //  */\n    //  function evalXPoly() public returns (uint256) {\n\n    //     uint baseOrder = 204;\n    //     uint256 _index = Randoms[0];\n    //     uint256[100] memory _coefficients = [\n    //             uint256(21888242871839275222246405745257275088548364400416034343698204186575808495616),\n    //             uint256(21888242871839275222246405745257275088548364400416034343698204186575808495616),\n    //             uint256(21888242871839275222246405745257275088548364400416034343698204186575808495616),\n    //             uint256(21888242871839275222246405745257275088548364400416034343698204186575808495616),\n    //             uint256(21888242871839275222246405745257275088548364400416034343698204186575808495616),\n    //             uint256(21888242871839275222246405745257275088548364400416034343698204186575808495616),\n    //             uint256(21888242871839275222246405745257275088548364400416034343698204186575808495616),\n    //             uint256(21888242871839275222246405745257275088548364400416034343698204186575808495616),\n    //             uint256(21888242871839275222246405745257275088548364400416034343698204186575808495616),\n    //             uint256(21888242871839275222246405745257275088548364400416034343698204186575808495616),\n    //             uint256(21888242871839275222246405745257275088548364400416034343698204186575808495616),\n    //             uint256(21888242871839275222246405745257275088548364400416034343698204186575808495616),\n    //             uint256(21888242871839275222246405745257275088548364400416034343698204186575808495616),\n    //             uint256(21888242871839275222246405745257275088548364400416034343698204186575808495616),\n    //             uint256(21888242871839275222246405745257275088548364400416034343698204186575808495616),\n    //             uint256(21888242871839275222246405745257275088548364400416034343698204186575808495616),\n    //             uint256(21888242871839275222246405745257275088548364400416034343698204186575808495616),\n    //             uint256(21888242871839275222246405745257275088548364400416034343698204186575808495616),\n    //             uint256(21888242871839275222246405745257275088548364400416034343698204186575808495616),\n    //             uint256(21888242871839275222246405745257275088548364400416034343698204186575808495616),\n    //             uint256(21888242871839275222246405745257275088548364400416034343698204186575808495616),\n    //             uint256(21888242871839275222246405745257275088548364400416034343698204186575808495616),\n    //             uint256(21888242871839275222246405745257275088548364400416034343698204186575808495616),\n    //             uint256(21888242871839275222246405745257275088548364400416034343698204186575808495616),\n    //             uint256(21888242871839275222246405745257275088548364400416034343698204186575808495616),\n    //             uint256(21888242871839275222246405745257275088548364400416034343698204186575808495616),\n    //             uint256(21888242871839275222246405745257275088548364400416034343698204186575808495616),\n    //             uint256(21888242871839275222246405745257275088548364400416034343698204186575808495616),\n    //             uint256(21888242871839275222246405745257275088548364400416034343698204186575808495616),\n    //             uint256(21888242871839275222246405745257275088548364400416034343698204186575808495616),\n    //             uint256(21888242871839275222246405745257275088548364400416034343698204186575808495616),\n    //             uint256(21888242871839275222246405745257275088548364400416034343698204186575808495616),\n    //             uint256(21888242871839275222246405745257275088548364400416034343698204186575808495616),\n    //             uint256(21888242871839275222246405745257275088548364400416034343698204186575808495616),\n    //             uint256(21888242871839275222246405745257275088548364400416034343698204186575808495616),\n    //             uint256(21888242871839275222246405745257275088548364400416034343698204186575808495616),\n    //             uint256(21888242871839275222246405745257275088548364400416034343698204186575808495616),\n    //             uint256(21888242871839275222246405745257275088548364400416034343698204186575808495616),\n    //             uint256(21888242871839275222246405745257275088548364400416034343698204186575808495616),\n    //             uint256(21888242871839275222246405745257275088548364400416034343698204186575808495616),\n    //             uint256(21888242871839275222246405745257275088548364400416034343698204186575808495616),\n    //             uint256(21888242871839275222246405745257275088548364400416034343698204186575808495616),\n    //             uint256(21888242871839275222246405745257275088548364400416034343698204186575808495616),\n    //             uint256(21888242871839275222246405745257275088548364400416034343698204186575808495616),\n    //             uint256(21888242871839275222246405745257275088548364400416034343698204186575808495616),\n    //             uint256(21888242871839275222246405745257275088548364400416034343698204186575808495616),\n    //             uint256(21888242871839275222246405745257275088548364400416034343698204186575808495616),\n    //             uint256(21888242871839275222246405745257275088548364400416034343698204186575808495616),\n    //             uint256(21888242871839275222246405745257275088548364400416034343698204186575808495616),\n    //             uint256(21888242871839275222246405745257275088548364400416034343698204186575808495616),\n    //             uint256(21888242871839275222246405745257275088548364400416034343698204186575808495616),\n    //             uint256(21888242871839275222246405745257275088548364400416034343698204186575808495616),\n    //             uint256(21888242871839275222246405745257275088548364400416034343698204186575808495616),\n    //             uint256(21888242871839275222246405745257275088548364400416034343698204186575808495616),\n    //             uint256(21888242871839275222246405745257275088548364400416034343698204186575808495616),\n    //             uint256(21888242871839275222246405745257275088548364400416034343698204186575808495616),\n    //             uint256(21888242871839275222246405745257275088548364400416034343698204186575808495616),\n    //             uint256(21888242871839275222246405745257275088548364400416034343698204186575808495616),\n    //             uint256(21888242871839275222246405745257275088548364400416034343698204186575808495616),\n    //             uint256(21888242871839275222246405745257275088548364400416034343698204186575808495616),\n    //             uint256(21888242871839275222246405745257275088548364400416034343698204186575808495616),\n    //             uint256(21888242871839275222246405745257275088548364400416034343698204186575808495616),\n    //             uint256(21888242871839275222246405745257275088548364400416034343698204186575808495616),\n    //             uint256(21888242871839275222246405745257275088548364400416034343698204186575808495616),\n    //             uint256(21888242871839275222246405745257275088548364400416034343698204186575808495616),\n    //             uint256(21888242871839275222246405745257275088548364400416034343698204186575808495616),\n    //             uint256(21888242871839275222246405745257275088548364400416034343698204186575808495616),\n    //             uint256(21888242871839275222246405745257275088548364400416034343698204186575808495616),\n    //             uint256(21888242871839275222246405745257275088548364400416034343698204186575808495616),\n    //             uint256(21888242871839275222246405745257275088548364400416034343698204186575808495616),\n    //             uint256(21888242871839275222246405745257275088548364400416034343698204186575808495616),\n    //             uint256(21888242871839275222246405745257275088548364400416034343698204186575808495616),\n    //             uint256(21888242871839275222246405745257275088548364400416034343698204186575808495616),\n    //             uint256(21888242871839275222246405745257275088548364400416034343698204186575808495616),\n    //             uint256(21888242871839275222246405745257275088548364400416034343698204186575808495616),\n    //             uint256(21888242871839275222246405745257275088548364400416034343698204186575808495616),\n    //             uint256(21888242871839275222246405745257275088548364400416034343698204186575808495616),\n    //             uint256(21888242871839275222246405745257275088548364400416034343698204186575808495616),\n    //             uint256(21888242871839275222246405745257275088548364400416034343698204186575808495616),\n    //             uint256(21888242871839275222246405745257275088548364400416034343698204186575808495616),\n    //             uint256(21888242871839275222246405745257275088548364400416034343698204186575808495616),\n    //             uint256(21888242871839275222246405745257275088548364400416034343698204186575808495616),\n    //             uint256(21888242871839275222246405745257275088548364400416034343698204186575808495616),\n    //             uint256(21888242871839275222246405745257275088548364400416034343698204186575808495616),\n    //             uint256(21888242871839275222246405745257275088548364400416034343698204186575808495616),\n    //             uint256(21888242871839275222246405745257275088548364400416034343698204186575808495616),\n    //             uint256(21888242871839275222246405745257275088548364400416034343698204186575808495616),\n    //             uint256(21888242871839275222246405745257275088548364400416034343698204186575808495616),\n    //             uint256(21888242871839275222246405745257275088548364400416034343698204186575808495616),\n    //             uint256(21888242871839275222246405745257275088548364400416034343698204186575808495616),\n    //             uint256(21888242871839275222246405745257275088548364400416034343698204186575808495616),\n    //             uint256(21888242871839275222246405745257275088548364400416034343698204186575808495616),\n    //             uint256(21888242871839275222246405745257275088548364400416034343698204186575808495616),\n    //             uint256(21888242871839275222246405745257275088548364400416034343698204186575808495616),\n    //             uint256(21888242871839275222246405745257275088548364400416034343698204186575808495616),\n    //             uint256(21888242871839275222246405745257275088548364400416034343698204186575808495616),\n    //             uint256(21888242871839275222246405745257275088548364400416034343698204186575808495616),\n    //             uint256(21888242871839275222246405745257275088548364400416034343698204186575808495616),\n    //             uint256(21888242871839275222246405745257275088548364400416034343698204186575808495616),\n    //             uint256(21888242871839275222246405745257275088548364400416034343698204186575808495616)\n    //     ];\n    //     uint256 m = Constants.BABYJUB_P;\n    //     uint256 result = 0;\n    //     uint256 powerOfX = 1;\n\n    //     for (uint256 i = 0; i < _coefficients.length; i ++) {\n    //         uint256 coeff = _coefficients[i];\n    //         assembly {\n    //             result:= addmod(result, mulmod(powerOfX, coeff, m), m)\n    //             powerOfX := mulmod(powerOfX, _index, m)\n    //         }\n    //     }\n    //     uint256 basePower = invMod(expMod(_index, baseOrder, m), m);\n    //     result = mulmod(basePower, result, m);\n\n    //     return result;\n    // }\n\n    /// @dev Modular euclidean inverse of a number (mod p).\n    /// @param _x The number\n    /// @param _pp The modulus\n    /// @return q such that x*q = 1 (mod _pp)\n    function invMod(uint256 _x, uint256 _pp) internal pure returns (uint256) {\n        require(_x != 0 && _x != _pp && _pp != 0, \"Invalid number\");\n        uint256 q = 0;\n        uint256 newT = 1;\n        uint256 r = _pp;\n        uint256 t;\n        while (_x != 0) {\n        t = r / _x;\n        (q, newT) = (newT, addmod(q, (_pp - mulmod(t, newT, _pp)), _pp));\n        (r, _x) = (_x, r - t * _x);\n        }\n\n        return q;\n    }\n\n    /// @dev Modular exponentiation, b^e % _pp.\n    /// Source: https://github.com/androlo/standard-contracts/blob/master/contracts/src/crypto/ECCMath.sol\n    /// @param _base base\n    /// @param _exp exponent\n    /// @param _pp modulus\n    /// @return r such that r = b**e (mod _pp)\n    function expMod(uint256 _base, uint256 _exp, uint256 _pp) internal pure returns (uint256) {\n        require(_pp!=0, \"Modulus is zero\");\n\n        if (_base == 0)\n        return 0;\n        if (_exp == 0)\n        return 1;\n\n        uint256 r = 1;\n        uint256 bit = 57896044618658097711785492504343953926634992332820282019728792003956564819968;\n        assembly {\n        for { } gt(bit, 0) { }{\n            r := mulmod(mulmod(r, r, _pp), exp(_base, iszero(iszero(and(_exp, bit)))), _pp)\n            r := mulmod(mulmod(r, r, _pp), exp(_base, iszero(iszero(and(_exp, div(bit, 2))))), _pp)\n            r := mulmod(mulmod(r, r, _pp), exp(_base, iszero(iszero(and(_exp, div(bit, 4))))), _pp)\n            r := mulmod(mulmod(r, r, _pp), exp(_base, iszero(iszero(and(_exp, div(bit, 8))))), _pp)\n            bit := div(bit, 16)\n        }\n        }\n\n        return r;\n    }\n\n}",
  "sourcePath": "/Users/mac/Desktop/codings/ethereum/sonic/src/verifier/contracts/Verifier.sol",
  "compiler": {
    "name": "solc",
    "version": "0.8.13+commit.abaa5c0e.Emscripten.clang"
  },
  "schemaVersion": "3.4.7",
  "updatedAt": "2022-11-07T17:29:58.115Z",
  "networkType": "ethereum",
  "devdoc": {
    "kind": "dev",
    "methods": {},
    "version": 1
  },
  "userdoc": {
    "kind": "user",
    "methods": {},
    "version": 1
  }
}