{
  "contractName": "Verifier",
  "abi": [
    {
      "anonymous": false,
      "inputs": [
        {
          "indexed": false,
          "internalType": "bool",
          "name": "result",
          "type": "bool"
        }
      ],
      "name": "verifyResult",
      "type": "event"
    },
    {
      "inputs": [
        {
          "components": [
            {
              "internalType": "bytes32",
              "name": "message",
              "type": "bytes32"
            },
            {
              "internalType": "bytes",
              "name": "sig",
              "type": "bytes"
            },
            {
              "internalType": "address",
              "name": "addr",
              "type": "address"
            },
            {
              "internalType": "uint256[1]",
              "name": "gamma1",
              "type": "uint256[1]"
            },
            {
              "internalType": "uint256[1]",
              "name": "gamma2",
              "type": "uint256[1]"
            },
            {
              "internalType": "uint256[2]",
              "name": "gamma3",
              "type": "uint256[2]"
            },
            {
              "internalType": "uint256[1]",
              "name": "gamma4",
              "type": "uint256[1]"
            },
            {
              "internalType": "uint256[1]",
              "name": "gamma5",
              "type": "uint256[1]"
            },
            {
              "internalType": "uint256[2]",
              "name": "gamma6",
              "type": "uint256[2]"
            },
            {
              "internalType": "uint256[1]",
              "name": "gamma7",
              "type": "uint256[1]"
            },
            {
              "components": [
                {
                  "internalType": "uint256",
                  "name": "X",
                  "type": "uint256"
                },
                {
                  "internalType": "uint256",
                  "name": "Y",
                  "type": "uint256"
                }
              ],
              "internalType": "struct Pairing.G1Point",
              "name": "pi_1",
              "type": "tuple"
            },
            {
              "components": [
                {
                  "internalType": "uint256",
                  "name": "X",
                  "type": "uint256"
                },
                {
                  "internalType": "uint256",
                  "name": "Y",
                  "type": "uint256"
                }
              ],
              "internalType": "struct Pairing.G1Point",
              "name": "pi_2",
              "type": "tuple"
            },
            {
              "internalType": "uint256",
              "name": "r_1",
              "type": "uint256"
            },
            {
              "internalType": "uint256",
              "name": "r_tilde",
              "type": "uint256"
            },
            {
              "internalType": "uint256",
              "name": "t",
              "type": "uint256"
            },
            {
              "internalType": "uint256",
              "name": "k",
              "type": "uint256"
            },
            {
              "internalType": "uint256",
              "name": "s_tilde",
              "type": "uint256"
            },
            {
              "internalType": "uint256",
              "name": "r_2",
              "type": "uint256"
            },
            {
              "internalType": "uint256",
              "name": "s_1_tilde",
              "type": "uint256"
            },
            {
              "internalType": "uint256",
              "name": "s_2_tilde",
              "type": "uint256"
            },
            {
              "components": [
                {
                  "internalType": "uint256",
                  "name": "X",
                  "type": "uint256"
                },
                {
                  "internalType": "uint256",
                  "name": "Y",
                  "type": "uint256"
                }
              ],
              "internalType": "struct Pairing.G1Point",
              "name": "D",
              "type": "tuple"
            },
            {
              "components": [
                {
                  "internalType": "uint256",
                  "name": "X",
                  "type": "uint256"
                },
                {
                  "internalType": "uint256",
                  "name": "Y",
                  "type": "uint256"
                }
              ],
              "internalType": "struct Pairing.G1Point",
              "name": "R_tilde",
              "type": "tuple"
            },
            {
              "components": [
                {
                  "internalType": "uint256",
                  "name": "X",
                  "type": "uint256"
                },
                {
                  "internalType": "uint256",
                  "name": "Y",
                  "type": "uint256"
                }
              ],
              "internalType": "struct Pairing.G1Point",
              "name": "R",
              "type": "tuple"
            },
            {
              "components": [
                {
                  "internalType": "uint256",
                  "name": "X",
                  "type": "uint256"
                },
                {
                  "internalType": "uint256",
                  "name": "Y",
                  "type": "uint256"
                }
              ],
              "internalType": "struct Pairing.G1Point",
              "name": "T",
              "type": "tuple"
            },
            {
              "components": [
                {
                  "internalType": "uint256",
                  "name": "X",
                  "type": "uint256"
                },
                {
                  "internalType": "uint256",
                  "name": "Y",
                  "type": "uint256"
                }
              ],
              "internalType": "struct Pairing.G1Point",
              "name": "K",
              "type": "tuple"
            },
            {
              "components": [
                {
                  "internalType": "uint256",
                  "name": "X",
                  "type": "uint256"
                },
                {
                  "internalType": "uint256",
                  "name": "Y",
                  "type": "uint256"
                }
              ],
              "internalType": "struct Pairing.G1Point",
              "name": "S_x",
              "type": "tuple"
            },
            {
              "components": [
                {
                  "internalType": "uint256",
                  "name": "X",
                  "type": "uint256"
                },
                {
                  "internalType": "uint256",
                  "name": "Y",
                  "type": "uint256"
                }
              ],
              "internalType": "struct Pairing.G1Point",
              "name": "S_y",
              "type": "tuple"
            }
          ],
          "internalType": "struct Verifier.UserCommitments",
          "name": "cm",
          "type": "tuple"
        }
      ],
      "name": "verifySonicBatchedImpl",
      "outputs": [
        {
          "internalType": "bool",
          "name": "",
          "type": "bool"
        }
      ],
      "stateMutability": "nonpayable",
      "type": "function"
    }
  ],
  "bytecode": "0x6080604052604051806040016040528060405180604001604052807f198e9393920d483a7260bfb731fb5d25f1aa493335a9e71297e485b7aef312c281526020017f1800deef121f1e76426a00665e5c4479674322d4f75edadd46debd5cd992f6ed815250815260200160405180604001604052807f090689d0585ff075ec9e99ad690c3395bc4b313370b38ef355acdadcd122975b81526020017f12c85ea5db8c6deb4aab71808dcb408fe3d1e7690c43d37b4ce6cc0166fa7daa81525081525060008082015181600001906002620000db92919062000502565b50602082015181600201906002620000f592919062000502565b505050604051806040016040528060405180604001604052807f198e9393920d483a7260bfb731fb5d25f1aa493335a9e71297e485b7aef312c281526020017f1800deef121f1e76426a00665e5c4479674322d4f75edadd46debd5cd992f6ed815250815260200160405180604001604052807f090689d0585ff075ec9e99ad690c3395bc4b313370b38ef355acdadcd122975b81526020017f12c85ea5db8c6deb4aab71808dcb408fe3d1e7690c43d37b4ce6cc0166fa7daa8152508152506004600082015181600001906002620001d092919062000502565b50602082015181600201906002620001ea92919062000502565b505050604051806040016040528060405180604001604052807f21a808dad5c50720fb7294745cf4c87812ce0ea76baa7df4e922615d1388f25a81526020017f04c5e74c85a87f008a2feb4b5c8a1e7f9ba9d8eb40eb02e70139c89fb1c505a9815250815260200160405180604001604052807f204b66d8e1fadc307c35187a6b813be0b46ba1cd720cd1c4ee5f68d13036b4ba81526020017f2d58022915fc6bc90e036e858fbc98055084ac7aff98ccceb0e3fde64bc1a0848152508152506008600082015181600001906002620002c592919062000502565b50602082015181600201906002620002df92919062000502565b5050507f2d2e305d3ab2dc6e0081ffcf4a701f924a1a7296cdc32046c10c0b6f992387b2600c557f30644e72e131a029b85045b68181585d2833e84879b9709143e1f593f00000018062000338576200033762000566565b5b600e54600f5409600d557f2f0ed729a52c3cf5d51e5e6d8e737f79e5d99150f7b9b63f3dd38704f9d8ef26600e557f2f376e28777cfe34cf077eba864c462fd6efbfe4d3f6af17768ef2ed4f829ddd600f557f2f17797aa9b5b553209d135cdd69146128b9841e82c8b01e3f3a07d1e3714dc96010556015601155620003ea600e546011547f30644e72e131a029b85045b68181585d2833e84879b9709143e1f593f00000016200040160201b60201c565b601255348015620003fa57600080fd5b5062000618565b600080820362000448576040517f08c379a00000000000000000000000000000000000000000000000000000000081526004016200043f90620005f6565b60405180910390fd5b600084036200045b5760009050620004fb565b600083036200046e5760019050620004fb565b60006001905060007f800000000000000000000000000000000000000000000000000000000000000090505b6000811115620004f557838186161515870a85848509099150836002820486161515870a85848509099150836004820486161515870a85848509099150836008820486161515870a858485090991506010810490506200049a565b81925050505b9392505050565b826002810192821562000534579160200282015b828111156200053357825182559160200191906001019062000516565b5b50905062000543919062000547565b5090565b5b808211156200056257600081600090555060010162000548565b5090565b7f4e487b7100000000000000000000000000000000000000000000000000000000600052601260045260246000fd5b600082825260208201905092915050565b7f4d6f64756c7573206973207a65726f0000000000000000000000000000000000600082015250565b6000620005de600f8362000595565b9150620005eb82620005a6565b602082019050919050565b600060208201905081810360008301526200061181620005cf565b9050919050565b61275f80620006286000396000f3fe608060405234801561001057600080fd5b506004361061002b5760003560e01c80634a25162914610030575b600080fd5b61004a600480360381019061004591906122c4565b610060565b6040516100579190612328565b60405180910390f35b600061006a611bae565b7f30644e72e131a029b85045b68181585d2833e84879b9709143e1f593f00000018061009957610098612343565b5b6100a36001610dee565b6001098160000181815250507f30644e72e131a029b85045b68181585d2833e84879b9709143e1f593f0000001806100de576100dd612343565b5b6100e86002610dee565b601054098160200181815250507f30644e72e131a029b85045b68181585d2833e84879b9709143e1f593f00000018061012457610123612343565b5b61012e6003610dee565b7f30644e72e131a029b85045b68181585d2833e84879b9709143e1f593f00000018061015d5761015c612343565b5b601054846020015109098160400181815250507f30644e72e131a029b85045b68181585d2833e84879b9709143e1f593f00000018061019f5761019e612343565b5b6101a96004610dee565b7f30644e72e131a029b85045b68181585d2833e84879b9709143e1f593f0000001806101d8576101d7612343565b5b6010548460400151090981606001818152505060007f30644e72e131a029b85045b68181585d2833e84879b9709143e1f593f00000018061021c5761021b612343565b5b6102266005610dee565b7f30644e72e131a029b85045b68181585d2833e84879b9709143e1f593f00000018061025557610254612343565b5b60105485606001510909905060007f30644e72e131a029b85045b68181585d2833e84879b9709143e1f593f00000018061029257610291612343565b5b61029c6006610dee565b7f30644e72e131a029b85045b68181585d2833e84879b9709143e1f593f0000001806102cb576102ca612343565b5b601054850909905060007f30644e72e131a029b85045b68181585d2833e84879b9709143e1f593f00000018061030457610303612343565b5b61030e6007610dee565b7f30644e72e131a029b85045b68181585d2833e84879b9709143e1f593f00000018061033d5761033c612343565b5b6010548509099050600061039061037861036089610280015188600001516114df565b6103738a6102a0015189602001516114df565b6115b7565b61038b896102c0015188604001516114df565b6115b7565b90506103ae816103a9896102e0015188606001516114df565b6115b7565b90506103c8816103c3896103000151876114df565b6115b7565b90506103e2816103dd896103200151866114df565b6115b7565b90506103fc816103f7896103400151856114df565b6115b7565b905060007f30644e72e131a029b85045b68181585d2833e84879b9709143e1f593f00000018061042f5761042e612343565b5b886060015160006001811061044757610446612372565b5b60200201517f30644e72e131a029b85045b68181585d2833e84879b9709143e1f593f000000161047791906123d0565b87600001510990507f30644e72e131a029b85045b68181585d2833e84879b9709143e1f593f0000001806104ae576104ad612343565b5b7f30644e72e131a029b85045b68181585d2833e84879b9709143e1f593f0000001806104dd576104dc612343565b5b89608001516000600181106104f5576104f4612372565b5b60200201517f30644e72e131a029b85045b68181585d2833e84879b9709143e1f593f000000161052591906123d0565b886020015109820890507f30644e72e131a029b85045b68181585d2833e84879b9709143e1f593f00000018061055e5761055d612343565b5b7f30644e72e131a029b85045b68181585d2833e84879b9709143e1f593f00000018061058d5761058c612343565b5b7f30644e72e131a029b85045b68181585d2833e84879b9709143e1f593f0000001806105bc576105bb612343565b5b7f30644e72e131a029b85045b68181585d2833e84879b9709143e1f593f0000001806105eb576105ea612343565b5b600e548c60a0015160016002811061060657610605612372565b5b6020020151098b60a0015160006002811061062457610623612372565b5b6020020151087f30644e72e131a029b85045b68181585d2833e84879b9709143e1f593f000000161065591906123d0565b886040015109820890507f30644e72e131a029b85045b68181585d2833e84879b9709143e1f593f00000018061068e5761068d612343565b5b7f30644e72e131a029b85045b68181585d2833e84879b9709143e1f593f0000001806106bd576106bc612343565b5b8960c001516000600181106106d5576106d4612372565b5b60200201517f30644e72e131a029b85045b68181585d2833e84879b9709143e1f593f000000161070591906123d0565b886060015109820890507f30644e72e131a029b85045b68181585d2833e84879b9709143e1f593f00000018061073e5761073d612343565b5b7f30644e72e131a029b85045b68181585d2833e84879b9709143e1f593f00000018061076d5761076c612343565b5b8960e0015160006001811061078557610784612372565b5b60200201517f30644e72e131a029b85045b68181585d2833e84879b9709143e1f593f00000016107b591906123d0565b8709820890507f30644e72e131a029b85045b68181585d2833e84879b9709143e1f593f0000001806107ea576107e9612343565b5b7f30644e72e131a029b85045b68181585d2833e84879b9709143e1f593f00000018061081957610818612343565b5b7f30644e72e131a029b85045b68181585d2833e84879b9709143e1f593f00000018061084857610847612343565b5b7f30644e72e131a029b85045b68181585d2833e84879b9709143e1f593f00000018061087757610876612343565b5b600e548c610100015160016002811061089357610892612372565b5b6020020151098b61010001516000600281106108b2576108b1612372565b5b6020020151087f30644e72e131a029b85045b68181585d2833e84879b9709143e1f593f00000016108e391906123d0565b8609820890507f30644e72e131a029b85045b68181585d2833e84879b9709143e1f593f00000018061091857610917612343565b5b7f30644e72e131a029b85045b68181585d2833e84879b9709143e1f593f00000018061094757610946612343565b5b8961012001516000600181106109605761095f612372565b5b60200201517f30644e72e131a029b85045b68181585d2833e84879b9709143e1f593f000000161099091906123d0565b85098208905060006109b86040518060400160405280600181526020016002815250836114df565b9050610a02816109fd6109f88c61014001516109f360405180604001604052806001815260200160028152506109ee6009610dee565b6114df565b6115b7565b6116b5565b6115b7565b9050610a1e81610a198b6101600151600e546114df565b6115b7565b90506000610bff84600860405180604001604052908160008201600280602002604051908101604052809291908260028015610a6f576020028201915b815481526020019060010190808311610a5b575b5050505050815260200160028201600280602002604051908101604052809291908260028015610ab4576020028201915b815481526020019060010190808311610aa0575b50505050508152505084600060405180604001604052908160008201600280602002604051908101604052809291908260028015610b07576020028201915b815481526020019060010190808311610af3575b5050505050815260200160028201600280602002604051908101604052809291908260028015610b4c576020028201915b815481526020019060010190808311610b38575b505050505081525050610b638f61016001516116b5565b600460405180604001604052908160008201600280602002604051908101604052809291908260028015610bac576020028201915b815481526020019060010190808311610b98575b5050505050815260200160028201600280602002604051908101604052809291908260028015610bf1576020028201915b815481526020019060010190808311610bdd575b505050505081525050611773565b9050896040015173ffffffffffffffffffffffffffffffffffffffff16610c2e8b600001518c60200151611adb565b73ffffffffffffffffffffffffffffffffffffffff161490507f30644e72e131a029b85045b68181585d2833e84879b9709143e1f593f000000180610c7657610c75612343565b5b7f30644e72e131a029b85045b68181585d2833e84879b9709143e1f593f000000180610ca557610ca4612343565b5b601254600c54098b6101a00151088a61018001511490507f30644e72e131a029b85045b68181585d2833e84879b9709143e1f593f000000180610ceb57610cea612343565b5b8a6101e001517f30644e72e131a029b85045b68181585d2833e84879b9709143e1f593f0000001610d1c91906123d0565b7f30644e72e131a029b85045b68181585d2833e84879b9709143e1f593f000000180610d4b57610d4a612343565b5b7f30644e72e131a029b85045b68181585d2833e84879b9709143e1f593f000000180610d7a57610d79612343565b5b8d61020001518e6102200151088d610180015109088a6101c001511490508961026001518a61024001511490507f9ebf19a79884326bf6ddfcf4bd501eb6a52b40414ecd5d8a70514f606810801e81604051610dd69190612328565b60405180910390a18098505050505050505050919050565b6000806001905060018314610eb8577f30644e72e131a029b85045b68181585d2833e84879b9709143e1f593f000000180610e2c57610e2b612343565b5b7f30644e72e131a029b85045b68181585d2833e84879b9709143e1f593f000000180610e5b57610e5a612343565b5b6040518060200160405280600e54815250600060018110610e7f57610e7e612372565b5b60200201517f30644e72e131a029b85045b68181585d2833e84879b9709143e1f593f0000001610eaf91906123d0565b600e5408820990505b60028314610f7b577f30644e72e131a029b85045b68181585d2833e84879b9709143e1f593f000000180610eef57610eee612343565b5b7f30644e72e131a029b85045b68181585d2833e84879b9709143e1f593f000000180610f1e57610f1d612343565b5b6040518060200160405280600e54815250600060018110610f4257610f41612372565b5b60200201517f30644e72e131a029b85045b68181585d2833e84879b9709143e1f593f0000001610f7291906123d0565b600e5408820990505b60038314611105577f30644e72e131a029b85045b68181585d2833e84879b9709143e1f593f000000180610fb257610fb1612343565b5b7f30644e72e131a029b85045b68181585d2833e84879b9709143e1f593f000000180610fe157610fe0612343565b5b6040518060400160405280600e548152602001600d5481525060006002811061100d5761100c612372565b5b60200201517f30644e72e131a029b85045b68181585d2833e84879b9709143e1f593f000000161103d91906123d0565b600e54087f30644e72e131a029b85045b68181585d2833e84879b9709143e1f593f0000001806110705761106f612343565b5b7f30644e72e131a029b85045b68181585d2833e84879b9709143e1f593f00000018061109f5761109e612343565b5b6040518060400160405280600e548152602001600d548152506001600281106110cb576110ca612372565b5b60200201517f30644e72e131a029b85045b68181585d2833e84879b9709143e1f593f00000016110fb91906123d0565b600e540884090990505b600483146111c8577f30644e72e131a029b85045b68181585d2833e84879b9709143e1f593f00000018061113c5761113b612343565b5b7f30644e72e131a029b85045b68181585d2833e84879b9709143e1f593f00000018061116b5761116a612343565b5b6040518060200160405280600e5481525060006001811061118f5761118e612372565b5b60200201517f30644e72e131a029b85045b68181585d2833e84879b9709143e1f593f00000016111bf91906123d0565b600e5408820990505b6005831461128b577f30644e72e131a029b85045b68181585d2833e84879b9709143e1f593f0000001806111ff576111fe612343565b5b7f30644e72e131a029b85045b68181585d2833e84879b9709143e1f593f00000018061122e5761122d612343565b5b6040518060200160405280600f5481525060006001811061125257611251612372565b5b60200201517f30644e72e131a029b85045b68181585d2833e84879b9709143e1f593f000000161128291906123d0565b600e5408820990505b60068314611413577f30644e72e131a029b85045b68181585d2833e84879b9709143e1f593f0000001806112c2576112c1612343565b5b7f30644e72e131a029b85045b68181585d2833e84879b9709143e1f593f0000001806112f1576112f0612343565b5b6040518060400160405280600e548152602001600181525060006002811061131c5761131b612372565b5b60200201517f30644e72e131a029b85045b68181585d2833e84879b9709143e1f593f000000161134c91906123d0565b600e54087f30644e72e131a029b85045b68181585d2833e84879b9709143e1f593f00000018061137f5761137e612343565b5b7f30644e72e131a029b85045b68181585d2833e84879b9709143e1f593f0000001806113ae576113ad612343565b5b6040518060400160405280600e54815260200160018152506001600281106113d9576113d8612372565b5b60200201517f30644e72e131a029b85045b68181585d2833e84879b9709143e1f593f000000161140991906123d0565b600e540884090990505b600783146114d6577f30644e72e131a029b85045b68181585d2833e84879b9709143e1f593f00000018061144a57611449612343565b5b7f30644e72e131a029b85045b68181585d2833e84879b9709143e1f593f00000018061147957611478612343565b5b6040518060200160405280600f5481525060006001811061149d5761149c612372565b5b60200201517f30644e72e131a029b85045b68181585d2833e84879b9709143e1f593f00000016114cd91906123d0565b600e5408820990505b80915050919050565b6114e7611bd6565b6114ef611bf0565b83600001518160006003811061150857611507612372565b5b60200201818152505083602001518160016003811061152a57611529612372565b5b602002018181525050828160026003811061154857611547612372565b5b602002018181525050600060608360808460076107d05a03fa9050806000810361156e57fe5b50806115af576040517f08c379a00000000000000000000000000000000000000000000000000000000081526004016115a690612461565b60405180910390fd5b505092915050565b6115bf611bd6565b6115c7611c12565b8360000151816000600481106115e0576115df612372565b5b60200201818152505083602001518160016004811061160257611601612372565b5b60200201818152505082600001518160026004811061162457611623612372565b5b60200201818152505082602001518160036004811061164657611645612372565b5b602002018181525050600060608360c08460066107d05a03fa9050806000810361166c57fe5b50806116ad576040517f08c379a00000000000000000000000000000000000000000000000000000000081526004016116a4906124cd565b60405180910390fd5b505092915050565b6116bd611bd6565b600082600001511480156116d5575060008260200151145b156116f8576040518060400160405280600081526020016000815250905061176e565b6040518060400160405280836000015181526020017f30644e72e131a029b85045b68181585d97816a916871ca8d3c208c16d87cfd47846020015161173d91906124ed565b7f30644e72e131a029b85045b68181585d97816a916871ca8d3c208c16d87cfd4761176891906123d0565b81525090505b919050565b60008060405180606001604052808981526020018781526020018581525090506000604051806060016040528089815260200187815260200185815250905060006012905060008167ffffffffffffffff8111156117d4576117d3611c80565b5b6040519080825280602002602001820160405280156118025781602001602082028036833780820191505090505b50905060005b6003811015611a40576000600682611820919061251e565b905085826003811061183557611834612372565b5b6020020151600001518360008361184c9190612578565b8151811061185d5761185c612372565b5b60200260200101818152505085826003811061187c5761187b612372565b5b602002015160200151836001836118939190612578565b815181106118a4576118a3612372565b5b6020026020010181815250508482600381106118c3576118c2612372565b5b6020020151600001516000600281106118df576118de612372565b5b6020020151836002836118f29190612578565b8151811061190357611902612372565b5b60200260200101818152505084826003811061192257611921612372565b5b60200201516000015160016002811061193e5761193d612372565b5b6020020151836003836119519190612578565b8151811061196257611961612372565b5b60200260200101818152505084826003811061198157611980612372565b5b60200201516020015160006002811061199d5761199c612372565b5b6020020151836004836119b09190612578565b815181106119c1576119c0612372565b5b6020026020010181815250508482600381106119e0576119df612372565b5b6020020151602001516001600281106119fc576119fb612372565b5b602002015183600583611a0f9190612578565b81518110611a2057611a1f612372565b5b602002602001018181525050508080611a38906125ce565b915050611808565b50611a49611c34565b6000602082602086026020860160086107d05a03fa90508060008103611a6b57fe5b5080611aac576040517f08c379a0000000000000000000000000000000000000000000000000000000008152600401611aa390612662565b60405180910390fd5b600082600060018110611ac257611ac1612372565b5b6020020151141596505050505050509695505050505050565b6000806000806041855114611af65760009350505050611ba8565b6020850151925060408501519150606085015160001a9050601b8160ff161015611b2a57601b81611b27919061268f565b90505b601b8160ff1614158015611b425750601c8160ff1614155b15611b535760009350505050611ba8565b60018682858560405160008152602001604052604051611b7694939291906126e4565b6020604051602081039080840390855afa158015611b98573d6000803e3d6000fd5b5050506020604051035193505050505b92915050565b6040518060800160405280600081526020016000815260200160008152602001600081525090565b604051806040016040528060008152602001600081525090565b6040518060600160405280600390602082028036833780820191505090505090565b6040518060800160405280600490602082028036833780820191505090505090565b6040518060200160405280600190602082028036833780820191505090505090565b6000604051905090565b600080fd5b600080fd5b600080fd5b6000601f19601f8301169050919050565b7f4e487b7100000000000000000000000000000000000000000000000000000000600052604160045260246000fd5b611cb882611c6f565b810181811067ffffffffffffffff82111715611cd757611cd6611c80565b5b80604052505050565b6000611cea611c56565b9050611cf68282611caf565b919050565b600080fd5b6000819050919050565b611d1381611d00565b8114611d1e57600080fd5b50565b600081359050611d3081611d0a565b92915050565b600080fd5b600080fd5b600067ffffffffffffffff821115611d5b57611d5a611c80565b5b611d6482611c6f565b9050602081019050919050565b82818337600083830152505050565b6000611d93611d8e84611d40565b611ce0565b905082815260208101848484011115611daf57611dae611d3b565b5b611dba848285611d71565b509392505050565b600082601f830112611dd757611dd6611d36565b5b8135611de7848260208601611d80565b91505092915050565b600073ffffffffffffffffffffffffffffffffffffffff82169050919050565b6000611e1b82611df0565b9050919050565b611e2b81611e10565b8114611e3657600080fd5b50565b600081359050611e4881611e22565b92915050565b600067ffffffffffffffff821115611e6957611e68611c80565b5b602082029050919050565b600080fd5b6000819050919050565b611e8c81611e79565b8114611e9757600080fd5b50565b600081359050611ea981611e83565b92915050565b6000611ec2611ebd84611e4e565b611ce0565b90508060208402830185811115611edc57611edb611e74565b5b835b81811015611f055780611ef18882611e9a565b845260208401935050602081019050611ede565b5050509392505050565b600082601f830112611f2457611f23611d36565b5b6001611f31848285611eaf565b91505092915050565b600067ffffffffffffffff821115611f5557611f54611c80565b5b602082029050919050565b6000611f73611f6e84611f3a565b611ce0565b90508060208402830185811115611f8d57611f8c611e74565b5b835b81811015611fb65780611fa28882611e9a565b845260208401935050602081019050611f8f565b5050509392505050565b600082601f830112611fd557611fd4611d36565b5b6002611fe2848285611f60565b91505092915050565b60006040828403121561200157612000611c6a565b5b61200b6040611ce0565b9050600061201b84828501611e9a565b600083015250602061202f84828501611e9a565b60208301525092915050565b60006104c0828403121561205257612051611c6a565b5b61205d610360611ce0565b9050600061206d84828501611d21565b600083015250602082013567ffffffffffffffff81111561209157612090611cfb565b5b61209d84828501611dc2565b60208301525060406120b184828501611e39565b60408301525060606120c584828501611f0f565b60608301525060806120d984828501611f0f565b60808301525060a06120ed84828501611fc0565b60a08301525060e061210184828501611f0f565b60c08301525061010061211684828501611f0f565b60e08301525061012061212b84828501611fc0565b6101008301525061016061214184828501611f0f565b6101208301525061018061215784828501611feb565b610140830152506101c061216d84828501611feb565b6101608301525061020061218384828501611e9a565b6101808301525061022061219984828501611e9a565b6101a0830152506102406121af84828501611e9a565b6101c0830152506102606121c584828501611e9a565b6101e0830152506102806121db84828501611e9a565b610200830152506102a06121f184828501611e9a565b610220830152506102c061220784828501611e9a565b610240830152506102e061221d84828501611e9a565b6102608301525061030061223384828501611feb565b6102808301525061034061224984828501611feb565b6102a08301525061038061225f84828501611feb565b6102c0830152506103c061227584828501611feb565b6102e08301525061040061228b84828501611feb565b610300830152506104406122a184828501611feb565b610320830152506104806122b784828501611feb565b6103408301525092915050565b6000602082840312156122da576122d9611c60565b5b600082013567ffffffffffffffff8111156122f8576122f7611c65565b5b6123048482850161203b565b91505092915050565b60008115159050919050565b6123228161230d565b82525050565b600060208201905061233d6000830184612319565b92915050565b7f4e487b7100000000000000000000000000000000000000000000000000000000600052601260045260246000fd5b7f4e487b7100000000000000000000000000000000000000000000000000000000600052603260045260246000fd5b7f4e487b7100000000000000000000000000000000000000000000000000000000600052601160045260246000fd5b60006123db82611e79565b91506123e683611e79565b9250828210156123f9576123f86123a1565b5b828203905092915050565b600082825260208201905092915050565b7f70616972696e672d6d756c2d6661696c65640000000000000000000000000000600082015250565b600061244b601283612404565b915061245682612415565b602082019050919050565b6000602082019050818103600083015261247a8161243e565b9050919050565b7f70616972696e672d6164642d6661696c65640000000000000000000000000000600082015250565b60006124b7601283612404565b91506124c282612481565b602082019050919050565b600060208201905081810360008301526124e6816124aa565b9050919050565b60006124f882611e79565b915061250383611e79565b92508261251357612512612343565b5b828206905092915050565b600061252982611e79565b915061253483611e79565b9250817fffffffffffffffffffffffffffffffffffffffffffffffffffffffffffffffff048311821515161561256d5761256c6123a1565b5b828202905092915050565b600061258382611e79565b915061258e83611e79565b9250827fffffffffffffffffffffffffffffffffffffffffffffffffffffffffffffffff038211156125c3576125c26123a1565b5b828201905092915050565b60006125d982611e79565b91507fffffffffffffffffffffffffffffffffffffffffffffffffffffffffffffffff820361260b5761260a6123a1565b5b600182019050919050565b7f70616972696e672d6f70636f64652d6661696c65640000000000000000000000600082015250565b600061264c601583612404565b915061265782612616565b602082019050919050565b6000602082019050818103600083015261267b8161263f565b9050919050565b600060ff82169050919050565b600061269a82612682565b91506126a583612682565b92508260ff038211156126bb576126ba6123a1565b5b828201905092915050565b6126cf81611d00565b82525050565b6126de81612682565b82525050565b60006080820190506126f960008301876126c6565b61270660208301866126d5565b61271360408301856126c6565b61272060608301846126c6565b9594505050505056fea264697066735822122017a62017309f4687558c201e8a5879c5ba62d737923e338a3c07add5c525a2ce64736f6c634300080d0033",
  "immutableReferences": {},
  "source": "// Modified from https://github.com/appliedzkp/semaphore/blob/master/contracts/sol/verifier.sol\r\n// SPDX-License-Identifier: MIT\r\n\r\n// please notice that current code may be temporary code for cost estimation, and right version is annotated\r\n\r\npragma solidity >=0.4.22 <0.9.0;\r\npragma experimental ABIEncoderV2;\r\nimport \"./Pairing.sol\";\r\n// import \"./PolyCoeff.sol\";\r\nimport { Constants } from \"./Constants.sol\";\r\n// import \"@openzeppelin/contracts/utils/Strings.sol\";\r\n\r\ncontract Verifier is Constants {\r\n\r\n    using Pairing for *;\r\n\r\n    event verifyResult(bool result);\r\n\r\n    // d_j when j=1\r\n    uint256 d = uint256(20435686948508171234472206488737953800505595616105823290561271581793730135986);\r\n    uint256 yz = mulmod(y, z, BABYJUB_P);\r\n    uint256 z = uint256(21284924740537517593391635090683107806948436131904811688892120057033464016678);\r\n    uint256 y = uint256(21356640755055926883299664242251323519715676831624930462071588778907420237277);\r\n    uint256 beta = uint256(21300179784197405894513072539865320928097398620497813074953097024203243212233);\r\n\r\n    // number of constraints?\r\n    uint256 N = 21;\r\n    uint256 z_n = expMod(z, N, BABYJUB_P);\r\n\r\n    struct UserCommitments{\r\n\r\n        // ECDSA signature\r\n        bytes32 message;\r\n        bytes sig;\r\n        address addr;\r\n\r\n        // d_j when j=1\r\n\r\n        // S\r\n\r\n        // gamma(z) = gamma[0] + gamma[1]*z + gamma[2]*z^2 + ...\r\n        uint256[1] gamma1;\r\n        uint256[1] gamma2;\r\n        uint256[2] gamma3;\r\n        uint256[1] gamma4;\r\n        uint256[1] gamma5;\r\n        uint256[2] gamma6;\r\n        uint256[1] gamma7;\r\n        // the committed prove, g^p[x], g^w[x]\r\n        Pairing.G1Point pi_1;\r\n        Pairing.G1Point pi_2;\r\n\r\n\r\n        // other prover submitted variables\r\n        uint256 r_1;\r\n        uint256 r_tilde;\r\n        uint256 t;\r\n        uint256 k;\r\n        uint256 s_tilde;\r\n        uint256 r_2;\r\n        uint256 s_1_tilde;\r\n        uint256 s_2_tilde;\r\n\r\n        // poly commitments, Fs\r\n        Pairing.G1Point D;\r\n        Pairing.G1Point R_tilde;\r\n        Pairing.G1Point R;\r\n        Pairing.G1Point T;\r\n        Pairing.G1Point K;\r\n        Pairing.G1Point S_x;\r\n        Pairing.G1Point S_y;\r\n    }\r\n    // too many local variables, so create a struct\r\n    struct verification_variables{\r\n        // Z(T / Si)[z] * ^(i-1)\r\n        uint256 Z_beta_1; // i = 1,  etc.\r\n        uint256 Z_beta_2;\r\n        uint256 Z_beta_3;\r\n        uint256 Z_beta_4;\r\n        // uint256 Z_beta_5;\r\n        // uint256 Z_beta_6;\r\n        // uint256 Z_beta_7;\r\n\r\n        // H calculation\r\n        // Pairing.G1Point H;\r\n\r\n        // R calculation, denoted RR because already have a R for one Fcommitment\r\n        // first calculate the PI product, and to do this first calculate the power of g after product to reduce gas cost\r\n        // calculate the PI product\r\n        // Pairing.G1Point RR;\r\n\r\n        // check the equation, then check others\r\n        // bool result;\r\n    }\r\n\r\n    // Sonic proofs\r\n    // D_j when j=1\r\n    // Pairing.G1Point pi_D = Pairing.G1Point(uint256(20435686948508171234472206488737953800505595616105823290561271581793730135986),\r\n    //     uint256(7613038940582986439878577004424311309737615170791456916446723479068371769225));\r\n    // Pairing.G1Point pi_R_tilde = Pairing.G1Point(uint256(20435686948508171234472206488737953800505595616105823290561271581793730135986),\r\n    //     uint256(7613038940582986439878577004424311309737615170791456916446723479068371769225));\r\n    // Pairing.G1Point pi_R1 = Pairing.G1Point(uint256(20435686948508171234472206488737953800505595616105823290561271581793730135986),\r\n    //     uint256(7613038940582986439878577004424311309737615170791456916446723479068371769225));\r\n    // Pairing.G1Point pi_R2 = Pairing.G1Point(uint256(20435686948508171234472206488737953800505595616105823290561271581793730135986),\r\n    //     uint256(7613038940582986439878577004424311309737615170791456916446723479068371769225));\r\n    // Pairing.G1Point pi_T = Pairing.G1Point(uint256(20435686948508171234472206488737953800505595616105823290561271581793730135986),\r\n    //     uint256(7613038940582986439878577004424311309737615170791456916446723479068371769225));\r\n    // Pairing.G1Point pi_K = Pairing.G1Point(uint256(20435686948508171234472206488737953800505595616105823290561271581793730135986),\r\n    //     uint256(7613038940582986439878577004424311309737615170791456916446723479068371769225));\r\n    // Pairing.G1Point pi_S_x1 = Pairing.G1Point(uint256(20435686948508171234472206488737953800505595616105823290561271581793730135986),\r\n    //     uint256(7613038940582986439878577004424311309737615170791456916446723479068371769225));\r\n    // Pairing.G1Point pi_S_x2 = Pairing.G1Point(uint256(20435686948508171234472206488737953800505595616105823290561271581793730135986),\r\n    //     uint256(7613038940582986439878577004424311309737615170791456916446723479068371769225));\r\n    // Pairing.G1Point pi_S_y = Pairing.G1Point(uint256(20435686948508171234472206488737953800505595616105823290561271581793730135986),\r\n    //     uint256(7613038940582986439878577004424311309737615170791456916446723479068371769225));\r\n    // uint256 r_1 = uint256(20435686948508171234472206488737953800505595616105823290561271581793730135986);\r\n    // uint256 r_tilde = uint256(7613038940582986439878577004424311309737615170791456916446723479068371769225);\r\n    // uint256 t = uint256(20435686948508171234472206488737953800505595616105823290561271581793730135986);\r\n    // uint256 k = uint256(11598511819595573397693757683043215863237090817957830497519701049476846220233);\r\n    // uint256 s_tilde = uint256(20435686948508171234472206488737953800505595616105823290561271581793730135986);\r\n    // uint256 r_2 = uint256(7613038940582986439878577004424311309737615170791456916446723479068371769225);\r\n    // uint256 s_1_tilde = uint256(20435686948508171234472206488737953800505595616105823290561271581793730135986);\r\n    // uint256 s_2_tilde = uint256(7613038940582986439878577004424311309737615170791456916446723479068371769225);\r\n    // // poly commitments, Fs\r\n    // Pairing.G1Point D = Pairing.G1Point(uint256(20435686948508171234472206488737953800505595616105823290561271581793730135986),\r\n    //     uint256(7613038940582986439878577004424311309737615170791456916446723479068371769225));\r\n    // Pairing.G1Point R_tilde = Pairing.G1Point(uint256(20435686948508171234472206488737953800505595616105823290561271581793730135986),\r\n    //     uint256(7613038940582986439878577004424311309737615170791456916446723479068371769225));\r\n    // Pairing.G1Point R = Pairing.G1Point(uint256(20435686948508171234472206488737953800505595616105823290561271581793730135986),\r\n    //     uint256(7613038940582986439878577004424311309737615170791456916446723479068371769225));\r\n    // Pairing.G1Point T = Pairing.G1Point(uint256(20435686948508171234472206488737953800505595616105823290561271581793730135986),\r\n    //     uint256(7613038940582986439878577004424311309737615170791456916446723479068371769225));\r\n    // Pairing.G1Point K = Pairing.G1Point(uint256(20435686948508171234472206488737953800505595616105823290561271581793730135986),\r\n    //     uint256(7613038940582986439878577004424311309737615170791456916446723479068371769225));\r\n    // Pairing.G1Point S_x = Pairing.G1Point(uint256(20435686948508171234472206488737953800505595616105823290561271581793730135986),\r\n    //     uint256(7613038940582986439878577004424311309737615170791456916446723479068371769225));\r\n    // Pairing.G1Point S_y = Pairing.G1Point(uint256(20435686948508171234472206488737953800505595616105823290561271581793730135986),\r\n    //     uint256(7613038940582986439878577004424311309737615170791456916446723479068371769225));\r\n    // bytes32 message = ethMessageHash(\"20900429899291009073299289469660149716785596251491300692035681492016939179257, 433691023568696153828599652727177493671905883454953868604074871528381220097\");\r\n    // bytes sig = hex\"19ec5dc5aa05a220cd210a113352596ebf80d06a6f776b8e0c656e50a5c5567f1e8a7f23fb27f77ea5b5d42f0e2384facdebebd85f026e2a73e94d4690a40a6801\";\r\n    // address addr = 0xE448992FdEaF94784bBD8f432d781C061D907985;\r\n\r\n    // formerly used variables:\r\n\r\n    // temporarily this is for original sonic\r\n    // uint256[21] Proof = [\r\n    //     uint256(20435686948508171234472206488737953800505595616105823290561271581793730135986),\r\n    //     uint256(7613038940582986439878577004424311309737615170791456916446723479068371769225),\r\n    //     uint256(20900429899291009073299289469660149716785596251491300692035681492016939179257),\r\n    //     uint256(17015433841169487450406840425175642150965883946544965612916879717959251917877),\r\n    //     uint256(433691023568696153828599652727177493671905883454953868604074871528381220097),\r\n    //     uint256(10320531664273889342578906132837836076031009559738199149165995480549188738219),\r\n    //     uint256(5841514956038981489672186264970094693930045609713312309929445225955171101947),\r\n    //     uint256(5021024840007099401420413415719005463562614305701472747429400657816854795888),\r\n    //     uint256(20774065911754029615648528083815650325450840922528127398846513310899898519818),\r\n    //     uint256(15033194806153309440324576121312701377491848712637707126378339071163915088607),\r\n    //     uint256(13797601081368067296147105517336555699959400728196376360418452678919689273357),\r\n    //     uint256(347536244405038501480645670232637364896709701574004323632284243300674648233),\r\n    //     uint256(14150985670258525975582637074878024272235049272474457475329855381177734047698),\r\n    //     uint256(2655786006985334435742353147654701867454007390061009682990360208958229883457),\r\n    //     uint256(19749978915220999581635876327451130211831443864540429941950424972239040718725),\r\n    //     uint256(18652734379260577017619098828238354228621932558467343220803598526754221068969),\r\n    //     uint256(19231643171984527412379363884712632725022106910875011856721870145973184299950),\r\n    //     uint256(11890584382703984881384687349129438589403848436060509080598302278432395889958),\r\n    //     uint256(19848703903105846067635106277601755727734486581037082434405934553883502968806),\r\n    //     uint256(7073067203970200196273245091229017314841577127190841947842173598530677375580),\r\n    //     uint256(11142795172845103846997117758219330284910812886430955732663385421662518242916)\r\n    // ];\r\n\r\n    // length of longest u,v,w, i.e. longest length of a,b,c, linear to poly. current 32: 2994\r\n\r\n    // SOCC_hscS = [G1Point S_j, uint256 s_j, G1Point W_j]\r\n    // uint256[5] SOCC_hscS = [\r\n    //     uint256(4856595452220518861283513887787149560249872199754148373623768058895650888886),\r\n    //     uint256(18903793806709064235976701805982270837399009185115750427816521247566249210556),\r\n    //     uint256(11142795172845103846997117758219330284910812886430955732663385421662518242916),\r\n    //     uint256(21371202341828297453905088304285070177929072675831707150146249345026206448204),\r\n    //     uint256(2804295765584777874267821186909392907007222244895837511075392229436674961086)\r\n    // ];\r\n    // SOCC_hscW = [uint256 s'_j,G1Point W'_j, G1Point Q_j]\r\n    // uint256[5] SOCC_hscW = [\r\n    //     uint256(10516069979663785554384039720791935537971662430097624533692998141893610132813),\r\n    //     uint256(4047408704098476939730481302397316844045052246660100325786631118072453155095),\r\n    //     uint256(3536770324764440576997419732517461268782698510962602892817204324264966117745),\r\n    //     uint256(14245367996788138561788347307320292816184394224142842975302936827932398609764),\r\n    //     uint256(4809015920432886449944012129537258787815219963382067822305826740230093200527)\r\n    // ];\r\n\r\n    // Pairing.G1Point hscQv = Pairing.G1Point(\r\n    //     uint256(2990558601454446836641627272921201963123578559834602407524792456795005493261),\r\n    //     uint256(13202662347545347168000079135411531495309137838398006144762638337293564502641)\r\n    // );\r\n    // Pairing.G1Point hscC = Pairing.G1Point(\r\n    //     uint256(20354021681082976488982424663336191185782081465046767166624106617637273115698),\r\n    //     uint256(7434894914590215425794637416957100516507193983165584369402225555559623348194)\r\n    // );\r\n\r\n    // uint256 u = uint256(8197071660809916300712359474937866146139983659726903111927633346212682272753);\r\n    // uint256 v = uint256(18304223670379022123371455395869338667757056554451611927086438308637909615067);\r\n\r\n    // from terminal\r\n    // uint256 s_uv = uint256(7791702837224372263152657165191932519240106980588006270334507770946892728366);\r\n\r\n    // The G2 generator\r\n    // why it's here? because the G2Gen() doesn't work in verify() for unknown reason\r\n    // Pairing.G2Point g2Generator = Pairing.G2Point({\r\n    //     X: [ Constants.SRS_G2_X_0[0], Constants.SRS_G2_X_1[0] ],\r\n    //     Y: [ Constants.SRS_G2_Y_0[0], Constants.SRS_G2_Y_1[0] ]\r\n    // });\r\n    // g\r\n    // Pairing.G1Point g = Pairing.G1Point(1, 2);\r\n    \r\n    // h^\r\n    // Pairing.G2Point SRS_G2_2 = Pairing.G2Point({\r\n    //     X: [ SRS_G2_X_0_Pos[2], SRS_G2_X_1_Pos[2] ],\r\n    //     Y: [ SRS_G2_Y_0_Pos[2], SRS_G2_Y_1_Pos[2] ]\r\n    // });\r\n\r\n    // Sonic version - Verify a single-point evaluation of a polynominal\r\n    // function verify(\r\n    //     Pairing.G1Point memory _commitment, // F\r\n    //     Pairing.G1Point memory _proof, // W\r\n    //     uint256 _index,  // z\r\n    //     uint256 _value  // F(z) or v\r\n    //     // uint proofIndex,\r\n    //     // bool isT\r\n    // ) public view returns (bool) {\r\n    //     // Make sure each parameter is less than the prime q\r\n    //     require(_commitment.X < BABYJUB_P, \"Verifier.verifyKZG: _commitment.X is out of range\");\r\n    //     require(_commitment.Y < BABYJUB_P, \"Verifier.verifyKZG: _commitment.Y is out of range\");\r\n    //     require(_proof.X < BABYJUB_P, \"Verifier.verifyKZG: _proof.X is out of range\");\r\n    //     require(_proof.Y < BABYJUB_P, \"Verifier.verifyKZG: _proof.Y is out of range\");\r\n    //     require(_index < BABYJUB_P, \"Verifier.verifyKZG: _index is out of range\");\r\n    //     require(_value < BABYJUB_P, \"Verifier.verifyKZG: _value is out of range\");\r\n       \r\n    //     Pairing.G1Point memory negProof = Pairing.negate(Pairing.mulScalar(_proof, _index));\r\n    //     Pairing.G1Point memory mulProof = Pairing.plus(Pairing.mulScalar(G1Gen(), _value), negProof);\r\n\r\n    //     return Pairing.pairing_3point(_proof, Constants.SRS_G2_hAlphaX1,\r\n    //                             mulProof, Constants.SRS_G2_hAlphaX0,\r\n    //                             _commitment, Constants.t_hxdmax);\r\n    // }\r\n\r\n\r\n\r\n    /*\r\n     * Verifies a single-point evaluation of a polynominal using the KZG\r\n     * commitment scheme.\r\n     *    - p(X) is a polynominal\r\n     *    - _value = p(_index) \r\n     *    - commitment = commit(p)\r\n     *    - proof = genProof(p, _index, _value)\r\n     * Returns true if and only if the following holds, and returns false\r\n     * otherwise:\r\n     *     e(commitment - commit([_value]), G2.g) == e(proof, commit([0, 1]) - zCommit)\r\n     * @param _commitment The KZG polynominal commitment.\r\n     * @param _proof The proof.\r\n     * @param _index The x-value at which to evaluate the polynominal.\r\n     * @param _value The result of the polynominal evaluation.\r\n     */\r\n    //   - Verify a single-point evaluation of a polynominal\r\n\r\n    // function verify(\r\n    //     Pairing.G1Point memory _commitment, // F\r\n    //     Pairing.G1Point memory _proof, // \r\n    //     uint256 _index,  // z\r\n    //     uint256 _value  // F(z) or v\r\n    //     //uint proofIndex\r\n    // ) public view returns (bool) {\r\n    //     // Make sure each parameter is less than the prime q\r\n    //     require(_commitment.X < BABYJUB_P, \"Verifier.verifyKZG: _commitment.X is out of range\");\r\n    //     require(_commitment.Y < BABYJUB_P, \"Verifier.verifyKZG: _commitment.Y is out of range\");\r\n    //     require(_proof.X < BABYJUB_P, \"Verifier.verifyKZG: _proof.X is out of range\");\r\n    //     require(_proof.Y < BABYJUB_P, \"Verifier.verifyKZG: _proof.Y is out of range\");\r\n    //     require(_index < BABYJUB_P, \"Verifier.verifyKZG: _index is out of range\");\r\n    //     require(_value < BABYJUB_P, \"Verifier.verifyKZG: _value is out of range\");\r\n    //     // Check that \r\n    //     //     e(commitment - aCommit, G2.g) == e(proof, xCommit - zCommit)\r\n    //     //     e(commitment - aCommit, G2.g) / e(proof, xCommit - zCommit) == 1\r\n    //     //     e(commitment - aCommit, G2.g) * e(proof, xCommit - zCommit) ^ -1 == 1\r\n    //     //     e(commitment - aCommit, G2.g) * e(-proof, xCommit - zCommit) == 1\r\n    //     // where:\r\n    //     //     aCommit = commit([_value]) = SRS_G1_0 * _value\r\n    //     //     xCommit = commit([0, 1]) = SRS_G2_1\r\n    //     //     zCommit = commit([_index]) = SRS_G2_1 * _index\r\n\r\n    //     // To avoid having to perform an expensive operation in G2 to compute\r\n    //     // xCommit - zCommit, we instead check the equivalent equation:\r\n    //     //     e(commitment - aCommit, G2.g) * e(-proof, xCommit) * e(-proof, -zCommit) == 1\r\n    //     //     e(commitment - aCommit, G2.g) * e(-proof, xCommit) * e(proof, zCommit) == 1\r\n    //     //     e(commitment - aCommit, G2.g) * e(-proof, xCommit) * e(index * proof, G2.g) == 1\r\n    //     //     e((index * proof) + (commitment - aCommit), G2.g) * e(-proof, xCommit) == 1\r\n\r\n    //     // Compute commitment - aCommitment\r\n    //     Pairing.G1Point memory commitmentMinusA = Pairing.plus(\r\n    //         _commitment,\r\n    //         Pairing.negate(\r\n    //             Pairing.mulScalar(Constants.Pairing.G1Point(1, 2), _value)\r\n    //         )\r\n    //     );\r\n\r\n    //     // Negate the proof\r\n    //     Pairing.G1Point memory negProof = Pairing.negate(_proof);\r\n\r\n    //     // Compute index * proof\r\n    //     Pairing.G1Point memory indexMulProof = Pairing.mulScalar(_proof, _index);\r\n\r\n    //     // Return true if and only if\r\n    //     // e((index * proof) + (commitment - aCommitment), G2.g) * e(-proof, xCommit) == 1\r\n    //     return Pairing.pairing(\r\n    //         Pairing.plus(indexMulProof, commitmentMinusA),\r\n    //         g2Generator,\r\n    //         negProof,\r\n    //         SRS_G2_1 // it's h. original author of kzg commitment code call it 'xCommit' here\r\n    //     );\r\n    // }\r\n\r\n    // modified sonic verifier using KZG commitment\r\n\r\n    // function verifySonic_KZG(\r\n    //     // uint256[21] memory Proof,\r\n    //     // uint256[2] memory Randoms\r\n    // ) public returns (bool) {\r\n\r\n    //     // simulate calculating kY\r\n    //     // uint256 ky = evalKPoly();\r\n    //     // // // simulate calculating sXY\r\n    //     // uint256 sx = evalXPoly();\r\n    //     // uint256 sy = evalXPoly();\r\n\r\n    //     //uint256 yz = mulmod(y, z, BABYJUB_P);\r\n\r\n    //     // y^N for halo implementation style\r\n    //     // uint256 y_n = expMod(z, N, BABYJUB_P);\r\n    //     // t for halo implementation style\r\n    //     // uint256 t = addmod(mulmod(addmod(Proof[6], Proof[9], BABYJUB_P), \r\n    //     //                           addmod(addmod(Proof[12], \r\n    //     //                                         Proof[15], BABYJUB_P), \r\n    //     //                                  evalS, BABYJUB_P), BABYJUB_P),\r\n    //     //                     mulmod((BABYJUB_P - evalK), y_n, BABYJUB_P),\r\n    //     //                     BABYJUB_P);\r\n\r\n    //     uint256 t = addmod(mulmod(addmod(Proof[6], Proof[9], BABYJUB_P), \r\n    //                               addmod(addmod(Proof[12], \r\n    //                                             Proof[15], BABYJUB_P), \r\n    //                                      evalS, BABYJUB_P), BABYJUB_P),\r\n    //                         (BABYJUB_P - evalK), BABYJUB_P);\r\n\r\n\r\n    //     bool verifySignature = recover(message, sig) == addr;\r\n    //     // bool result = verify(Pairing.G1Point(Proof[0], Proof[1]), // aLocal\r\n    //     //               Pairing.G1Point(Proof[7], Proof[8]),\r\n    //     //               z, \r\n    //     //               Proof[6]) &&\r\n    //     //         verify(Pairing.G1Point(Proof[0], Proof[1]), // bLocal\r\n    //     //               Pairing.G1Point(Proof[13], Proof[14]),\r\n    //     //               yz,\r\n    //     //               Proof[12]) &&\r\n    //     //         verify(Pairing.G1Point(Proof[2], Proof[3]), // aRaw\r\n    //     //               Pairing.G1Point(Proof[10], Proof[11]),\r\n    //     //               z,\r\n    //     //               Proof[9]) &&\r\n    //     //         verify(Pairing.G1Point(Proof[2], Proof[3]), // bRaw\r\n    //     //               Pairing.G1Point(Proof[16], Proof[17]),\r\n    //     //               yz,\r\n    //     //               Proof[15]) &&\r\n    //     //         verify(Pairing.G1Point(Proof[4], Proof[5]), // t\r\n    //     //               Pairing.G1Point(Proof[18], Proof[19]),\r\n    //     //               z,\r\n    //     //               t) &&                               \r\n    //     //         verify(Pairing.G1Point(Proof[4], Proof[5]), // t\r\n    //     //               Pairing.G1Point(Proof[18], Proof[19]),\r\n    //     //               z,\r\n    //     //               t) &&                                            // pcV srsLocal (srsD srsLocal) commitK y (k, wk)\r\n    //     //         verify(Pairing.G1Point(Proof[4], Proof[5]), // t\r\n    //     //               Pairing.G1Point(Proof[18], Proof[19]),\r\n    //     //               z,\r\n    //     //               t) &&                                            // pcV srsLocal (srsD srsLocal) commitC y (c, wc)\r\n    //     //         verify(Pairing.G1Point(Proof[4], Proof[5]), // t\r\n    //     //               Pairing.G1Point(Proof[18], Proof[19]),\r\n    //     //               z,\r\n    //     //               t) &&                                            // pcV srsLocal (srsD srsLocal) commitC yOld (cOld, wcOld)\r\n    //     //         verify(Pairing.G1Point(Proof[4], Proof[5]), // t\r\n    //     //               Pairing.G1Point(Proof[18], Proof[19]),\r\n    //     //               z,\r\n    //     //               t) &&                                            //, pcV srsLocal (srsD srsLocal) commitC yNew (cNew, wcNew)\r\n    //     //         verify(Pairing.G1Point(Proof[4], Proof[5]), // t\r\n    //     //               Pairing.G1Point(Proof[18], Proof[19]),\r\n    //     //               z,\r\n    //     //               t) &&                                            //, pcV srsLocal (srsD srsLocal) commitS z (s, ws)\r\n    //     //         verify(Pairing.G1Point(Proof[4], Proof[5]), // t\r\n    //     //               Pairing.G1Point(Proof[18], Proof[19]),\r\n    //     //               z,\r\n    //     //               t) &&                                            //, pcV srsLocal (srsD srsLocal) commitSOld z (sOld, wsOld)\r\n    //     //          verify(Pairing.G1Point(Proof[4], Proof[5]), // t\r\n    //     //               Pairing.G1Point(Proof[18], Proof[19]),\r\n    //     //               z,\r\n    //     //               t) &&                                           //, pcV srsLocal (srsD srsLocal) commitSNew z (sNew, wsNew)\r\n    //     //         verifySignature &&\r\n    //     //         Proof[6] == Proof[7] && // c_old == s_old\r\n    //     //         Proof[8] == Proof[9] && // c_new == s_new\r\n    //     //         Proof[10] == Proof[11]; // c == s\r\n\r\n    //     // temporary code for estimating gas cost, the above is correct version\r\n    //     bool result = verify(Pairing.G1Point(Proof[0], Proof[1]), // aLocal\r\n    //                   Pairing.G1Point(Proof[7], Proof[8]),\r\n    //                   z, \r\n    //                   Proof[6]);\r\n    //     result = verify(Pairing.G1Point(Proof[0], Proof[1]), // bLocal\r\n    //                   Pairing.G1Point(Proof[13], Proof[14]),\r\n    //                   yz,\r\n    //                   Proof[12]);\r\n    //     result = verify(Pairing.G1Point(Proof[2], Proof[3]), // aRaw\r\n    //                   Pairing.G1Point(Proof[10], Proof[11]),\r\n    //                   z,\r\n    //                   Proof[9]);\r\n    //     result = verify(Pairing.G1Point(Proof[2], Proof[3]), // bRaw\r\n    //                   Pairing.G1Point(Proof[16], Proof[17]),\r\n    //                   yz,\r\n    //                   Proof[15]);\r\n    //     result = verify(Pairing.G1Point(Proof[4], Proof[5]), // t\r\n    //                   Pairing.G1Point(Proof[18], Proof[19]),\r\n    //                   z,\r\n    //                   t);                              \r\n    //     result = verify(Pairing.G1Point(Proof[4], Proof[5]), // t\r\n    //                   Pairing.G1Point(Proof[18], Proof[19]),\r\n    //                   z,\r\n    //                   t);                                            // pcV srsLocal (srsD srsLocal) commitK y (k, wk)\r\n    //     result = verify(Pairing.G1Point(Proof[4], Proof[5]), // t\r\n    //                   Pairing.G1Point(Proof[18], Proof[19]),\r\n    //                   z,\r\n    //                   t);                                            // pcV srsLocal (srsD srsLocal) commitC y (c, wc)\r\n    //     result = verify(Pairing.G1Point(Proof[4], Proof[5]), // t\r\n    //                   Pairing.G1Point(Proof[18], Proof[19]),\r\n    //                   z,\r\n    //                   t);                                            // pcV srsLocal (srsD srsLocal) commitC yOld (cOld, wcOld)\r\n    //     result = verify(Pairing.G1Point(Proof[4], Proof[5]), // t\r\n    //                   Pairing.G1Point(Proof[18], Proof[19]),\r\n    //                   z,\r\n    //                   t);                                            //, pcV srsLocal (srsD srsLocal) commitC yNew (cNew, wcNew)\r\n    //     result = verify(Pairing.G1Point(Proof[4], Proof[5]), // t\r\n    //                   Pairing.G1Point(Proof[18], Proof[19]),\r\n    //                   z,\r\n    //                   t);                                            //, pcV srsLocal (srsD srsLocal) commitS z (s, ws)\r\n    //     result = verify(Pairing.G1Point(Proof[4], Proof[5]), // t\r\n    //                   Pairing.G1Point(Proof[18], Proof[19]),\r\n    //                   z,\r\n    //                   t);                                            //, pcV srsLocal (srsD srsLocal) commitSOld z (sOld, wsOld)\r\n    //     result = verify(Pairing.G1Point(Proof[4], Proof[5]), // t\r\n    //                   Pairing.G1Point(Proof[18], Proof[19]),\r\n    //                   z,\r\n    //                   t);                                           //, pcV srsLocal (srsD srsLocal) commitSNew z (sNew, wsNew)\r\n    //     result = verifySignature;\r\n    //     result = Proof[6] == Proof[7]; // c_old == s_old\r\n    //     result = Proof[8] == Proof[9]; // c_new == s_new\r\n    //     result = Proof[10] == Proof[11]; // c == s\r\n    //     emit verifyResult(result);\r\n    //     return result;\r\n    // }\r\n\r\n    // sonic verifier\r\n\r\n    // function verifySonic(\r\n    //     // uint256[21] memory Proof,\r\n    //     // uint256[2] memory Randoms\r\n    // ) public returns (bool) {\r\n\r\n    //     // simulate calculating kY\r\n    //     // uint256 ky = evalKPoly();\r\n    //     // // // simulate calculating sXY\r\n    //     // uint256 sx = evalXPoly();\r\n    //     // uint256 sy = evalXPoly();\r\n\r\n    //     // uint256 yz = mulmod(y, z, BABYJUB_P);\r\n\r\n    //     // y^N for halo implementation style\r\n    //     // uint256 y_n = expMod(z, N, BABYJUB_P);\r\n    //     // t for halo implementation style\r\n    //     // uint256 t = addmod(mulmod(addmod(Proof[6], Proof[9], BABYJUB_P), \r\n    //     //                           addmod(addmod(Proof[12], \r\n    //     //                                         Proof[15], BABYJUB_P), \r\n    //     //                                  evalS, BABYJUB_P), BABYJUB_P),\r\n    //     //                     mulmod((BABYJUB_P - evalK), y_n, BABYJUB_P),\r\n    //     //                     BABYJUB_P);\r\n\r\n\r\n\r\n    //     // bool result = verify(D,\r\n    //     //               pi_D,\r\n    //     //               z, \r\n    //     //               d)\r\n    //     //     && verify(R_tilde,\r\n    //     //               pi_R_tilde,\r\n    //     //               z,\r\n    //     //               r_tilde)\r\n    //     //     && verify(R,\r\n    //     //               pi_R1,\r\n    //     //               z,\r\n    //     //               r_1)\r\n    //     //     && = verify(R,\r\n    //     //               pi_R2,\r\n    //     //               yz,\r\n    //     //               r_2)\r\n    //     //     && verify(T,\r\n    //     //               pi_T,\r\n    //     //               z,\r\n    //     //               t)\r\n    //     //     && verify(K,\r\n    //     //               pi_K,\r\n    //     //               y,\r\n    //     //               k)\r\n    //     //     && verify(S_x,\r\n    //     //               pi_S_x1,\r\n    //     //               z,\r\n    //     //               s_tilde)\r\n    //     //     && verify(S_x,\r\n    //     //               pi_S_x2,\r\n    //     //               1,\r\n    //     //               s_1_tilde)\r\n    //     //     && verify(S_y,\r\n    //     //               pi_S_y,\r\n    //     //               y,\r\n    //     //               s_2_tilde)\r\n    //     //     && recover(message, sig) == addr //verifySignature\r\n    //     //     && r_1 == addmod(r_tilde, mulmod(d, z_n, BABYJUB_P), BABYJUB_P)\r\n    //     //     && t == addmod(mulmod(r_1, \r\n    //     //                           addmod(r_2,\r\n    //     //                                  s_tilde, BABYJUB_P), BABYJUB_P),\r\n    //     //                     (BABYJUB_P - k), BABYJUB_P)\r\n    //     //     && s_1_tilde == s_2_tilde;\r\n\r\n    //     // temporary code for estimating gas cost, the above is correct version\r\n    //     bool result = verify(D,\r\n    //                   pi_D,\r\n    //                   z, \r\n    //                   d);\r\n    //     result = verify(R_tilde,\r\n    //                   pi_R_tilde,\r\n    //                   z,\r\n    //                   r_tilde);\r\n    //     result = verify(R,\r\n    //                   pi_R1,\r\n    //                   z,\r\n    //                   r_1);\r\n    //     result = verify(R,\r\n    //                   pi_R2,\r\n    //                   yz,\r\n    //                   r_2);\r\n    //     result = verify(T,\r\n    //                   pi_T,\r\n    //                   z,\r\n    //                   t);\r\n    //     result = verify(K,\r\n    //                   pi_K,\r\n    //                   y,\r\n    //                   k);\r\n    //     result = verify(S_x,\r\n    //                   pi_S_x1,\r\n    //                   z,\r\n    //                   s_tilde);\r\n    //     result = verify(S_x,\r\n    //                   pi_S_x2,\r\n    //                   1,\r\n    //                   s_1_tilde);\r\n    //     result = verify(S_y,\r\n    //                   pi_S_y,\r\n    //                   y,\r\n    //                   s_2_tilde);\r\n    //     result = recover(message, sig) == addr; //verifySignature\r\n    //     result = r_1 == addmod(r_tilde, mulmod(d, z_n, BABYJUB_P), BABYJUB_P);\r\n    //     result = t == addmod(mulmod(r_1, \r\n    //                               addmod(r_2,\r\n    //                                      s_tilde, BABYJUB_P), BABYJUB_P),\r\n    //                         (BABYJUB_P - k), BABYJUB_P);\r\n    //     result = s_1_tilde == s_2_tilde;\r\n\r\n    //     emit verifyResult(result);\r\n    //     return result;\r\n    // }\r\n\r\n    // add improvement for batched commitments of original KZG\r\n    /*\r\n    we check e<g^w[],h^> e<(g^w[])^-z,h> == RHS\r\n     */\r\n    // function verifySonicBatchedOriginKZG(\r\n    //     // uint256[21] memory Proof,\r\n    //     // uint256[2] memory Randoms\r\n    // ) public returns (bool) {\r\n\r\n    //     // simulate calculating kY\r\n    //     // uint256 ky = evalKPoly();\r\n    //     // // // simulate calculating sXY\r\n    //     // uint256 sx = evalXPoly();\r\n    //     // uint256 sy = evalXPoly();\r\n\r\n        \r\n    //     // y^N for halo implementation style\r\n    //     // uint256 y_n = expMod(z, N, BABYJUB_P);\r\n\r\n    //     // t for halo implementation style\r\n    //     // uint256 t = addmod(mulmod(addmod(Proof[6], Proof[9], BABYJUB_P), \r\n    //     //                           addmod(addmod(Proof[12], \r\n    //     //                                         Proof[15], BABYJUB_P), \r\n    //     //                                  evalS, BABYJUB_P), BABYJUB_P),\r\n    //     //                     mulmod((BABYJUB_P - evalK), y_n, BABYJUB_P),\r\n    //     //                     BABYJUB_P);\r\n\r\n    //     // uint256 t = addmod(mulmod(addmod(Proof[6], Proof[9], BABYJUB_P), \r\n    //     //                           addmod(addmod(Proof[12], \r\n    //     //                                         Proof[15], BABYJUB_P), \r\n    //     //                                  evalS, BABYJUB_P), BABYJUB_P),\r\n    //     //                     (BABYJUB_P - evalK), BABYJUB_P);\r\n\r\n\r\n    //     bool verifySignature = recover(message, sig) == addr;\r\n\r\n    //     // F\r\n    //     Pairing.G1Point[8] memory F = [\r\n    //                                 Pairing.G1Point(Proof[0], Proof[1]),//R0\r\n    //                                 Pairing.G1Point(Proof[2], Proof[3]), // Rj\r\n    //                                 Pairing.G1Point(Proof[4], Proof[5]), //T\r\n    //                                 Pairing.G1Point(Proof[6], Proof[7]), //C\r\n    //                                 Pairing.G1Point(Proof[8], Proof[9]), //Ck\r\n    //                                 Pairing.G1Point(Proof[10], Proof[11]), //S\r\n    //                                 Pairing.G1Point(Proof[12], Proof[13]), //Sold\r\n    //                                 Pairing.G1Point(Proof[14], Proof[15])  //Snew\r\n    //                                 ];\r\n    //     // Z(T / Si)[z] * ^(i-1)\r\n    //     uint256 Z_beta_1 = 1; // i = 1,  etc.\r\n    //     uint256 Z_beta_2 = beta;\r\n    //     uint256 Z_beta_3 = mulmod(Z_beta_2, beta, BABYJUB_P);\r\n    //     uint256 Z_beta_4 = mulmod(Z_beta_3, beta, BABYJUB_P);\r\n    //     uint256 Z_beta_5 = mulmod(Z_beta_4, beta, BABYJUB_P);\r\n    //     uint256 Z_beta_6 = mulmod(Z_beta_5, beta, BABYJUB_P);\r\n    //     uint256 Z_beta_7 = mulmod(Z_beta_6, beta, BABYJUB_P);\r\n    //     uint256 Z_beta_8 = mulmod(Z_beta_7, beta, BABYJUB_P);\r\n\r\n    //     Z_beta_1 = mulmod(Z_beta_1, z_calculation(1), BABYJUB_P);\r\n    //     Z_beta_2 = mulmod(Z_beta_2, z_calculation(2), BABYJUB_P);\r\n    //     Z_beta_3 = mulmod(Z_beta_3, z_calculation(3), BABYJUB_P);\r\n    //     Z_beta_4 = mulmod(Z_beta_4, z_calculation(4), BABYJUB_P);\r\n    //     Z_beta_5 = mulmod(Z_beta_5, z_calculation(5), BABYJUB_P);\r\n    //     Z_beta_6 = mulmod(Z_beta_6, z_calculation(6), BABYJUB_P);\r\n    //     Z_beta_7 = mulmod(Z_beta_7, z_calculation(7), BABYJUB_P);\r\n    //     Z_beta_8 = mulmod(Z_beta_8, z_calculation(8), BABYJUB_P);\r\n\r\n    //     // the prove, g^p[], g^w[]\r\n    //     Pairing.G1Point[2] memory pi = [\r\n    //         Pairing.G1Point(1, 2),\r\n    //         Pairing.G1Point(1, 2)\r\n    //     ];\r\n    //     // product_result is the first G1 element of the RHS pairing\r\n    //     // first calculate the uppercase Pi product\r\n    //     Pairing.G1Point memory product_result = Pairing.mulScalar(Pairing.plus(D, \r\n    //                                                             Pairing.negate(Pairing.mulScalar(g, \r\n    //                                                                             addmod(gamma1[0], \r\n    //                                                                             mulmod(gamma1[1], z, BABYJUB_P), \r\n    //                                                                             BABYJUB_P)))), Z_beta_1);\r\n    //     product_result = Pairing.plus(product_result, \r\n    //                                 Pairing.mulScalar(Pairing.plus(R_tilde, \r\n    //                                                             Pairing.negate(Pairing.mulScalar(g, \r\n    //                                                                             addmod(gamma2[0], \r\n    //                                                                             mulmod(gamma2[1], z, BABYJUB_P), \r\n    //                                                                             BABYJUB_P)))), Z_beta_2));\r\n    //     product_result = Pairing.plus(product_result, \r\n    //                                 Pairing.mulScalar(Pairing.plus(R, \r\n    //                                                             Pairing.negate(Pairing.mulScalar(g, \r\n    //                                                                             gamma3[0]))), Z_beta_3));\r\n    //     product_result = Pairing.plus(product_result, \r\n    //                                 Pairing.mulScalar(Pairing.plus(T, \r\n    //                                                             Pairing.negate(Pairing.mulScalar(g, \r\n    //                                                                             addmod(addmod(gamma4[0], \r\n    //                                                                             mulmod(gamma4[1], z, BABYJUB_P), \r\n    //                                                                             BABYJUB_P),\r\n    //                                                                             mulmod(gamma4[2], \r\n    //                                                                             mulmod(z, z, \r\n    //                                                                             BABYJUB_P), \r\n    //                                                                             BABYJUB_P),\r\n    //                                                                             BABYJUB_P)\r\n    //                                                                             )))\r\n    //                                                     , Z_beta_4)\r\n    //                                     );\r\n    //     product_result = Pairing.plus(product_result, \r\n    //                                 Pairing.mulScalar(Pairing.plus(K, \r\n    //                                                             Pairing.negate(Pairing.mulScalar(g, \r\n    //                                                                             gamma5[0]))), Z_beta_5));\r\n    //     product_result = Pairing.plus(product_result, \r\n    //                                 Pairing.mulScalar(Pairing.plus(S_x, \r\n    //                                                             Pairing.negate(Pairing.mulScalar(g, \r\n    //                                                                             gamma6[0]))), Z_beta_6));\r\n    //     product_result = Pairing.plus(product_result, \r\n    //                                 Pairing.mulScalar(Pairing.plus(S_y, \r\n    //                                                             Pairing.negate(Pairing.mulScalar(g, \r\n    //                                                                             gamma7[0]))), Z_beta_7));\r\n    //     product_result = Pairing.plus(product_result, \r\n    //                                 Pairing.mulScalar(Pairing.plus(F[7], \r\n    //                                                             Pairing.negate(Pairing.mulScalar(g, \r\n    //                                                                             gamma8[0]))), Z_beta_8));\r\n    //     // then add the first item before the uppercase Pi product\r\n    //     product_result = Pairing.plus(product_result,\r\n    //                                 Pairing.negate(Pairing.plus(pi[0],\r\n    //                                                 Pairing.mulScalar(g,\r\n    //                                                                 z_calculation(9)))));//zT[z]\r\n\r\n    //     // check e<g^w[],h^>e<g^w[]g^-z,h> == RHS, then check others\r\n    //     // bool result = Pairing.pairing_3point(\r\n    //     //     pi[1],\r\n    //     //     SRS_G2_2, // h^, see above\r\n    //     //     Pairing.negate(Pairing.mulScalar(pi[1], z)),\r\n    //     //     SRS_G2_1, // h, see above\r\n    //     //     Pairing.negate(product_result),\r\n    //     //     SRS_G2_1\r\n    //     //     )\r\n    //     //     && verifySignature\r\n    //     //     && Proof[6] == Proof[7] // c_old == s_old\r\n    //     //     && Proof[8] == Proof[9] // c_new == s_new\r\n    //     //     && Proof[10] == Proof[11]; // c == s\r\n\r\n    //     // temporary code for estimating gas cost, the above is correct version\r\n    //     // check e<g^w[],h^>e<(g^w[])^-z,h> == RHS, then check others\r\n    //     bool result = Pairing.pairing_3point(\r\n    //         pi[1], // g^w[]\r\n    //         SRS_G2_2, // h^, see above\r\n    //         Pairing.negate(Pairing.mulScalar(pi[1], z)),\r\n    //         SRS_G2_1, // h, see above\r\n    //         Pairing.negate(product_result),\r\n    //         SRS_G2_1\r\n    //         );\r\n    //     result = verifySignature;\r\n    //     result = Proof[6] == Proof[7]; // c_old == s_old\r\n    //     result = Proof[8] == Proof[9]; // c_new == s_new\r\n    //     result = Proof[10] == Proof[11]; // c == s\r\n    //     emit verifyResult(result);\r\n    //     return result;\r\n    // }\r\n\r\n\r\n    // using batched commitments of sonic version of modified KZG\r\n    // used for test convenience only\r\n    // function verifySonicBatched(\r\n    // ) public{\r\n        \r\n    //     // for reference:\r\n        \r\n    //     // // ECDSA signature\r\n    //     // bytes32 message = ethMessageHash(\"20900429899291009073299289469660149716785596251491300692035681492016939179257, 433691023568696153828599652727177493671905883454953868604074871528381220097\");\r\n    //     // bytes sig = hex\"19ec5dc5aa05a220cd210a113352596ebf80d06a6f776b8e0c656e50a5c5567f1e8a7f23fb27f77ea5b5d42f0e2384facdebebd85f026e2a73e94d4690a40a6801\";\r\n    //     // address addr = 0xE448992FdEaF94784bBD8f432d781C061D907985;\r\n\r\n    //     // // d_j when j=1\r\n    //     // uint256 d = uint256(20435686948508171234472206488737953800505595616105823290561271581793730135986);\r\n    //     // uint256 yz = mulmod(y, z, BABYJUB_P);\r\n    //     // uint256 z = uint256(21284924740537517593391635090683107806948436131904811688892120057033464016678);\r\n    //     // uint256 y = uint256(21356640755055926883299664242251323519715676831624930462071588778907420237277);\r\n    //     // uint256 beta = uint256(21300179784197405894513072539865320928097398620497813074953097024203243212233);\r\n    //     // // S\r\n    //     // uint256[1] S1 = [z];\r\n    //     // uint256[1] S2 = [z];\r\n    //     // uint256[2] S3 = [z, yz];\r\n    //     // uint256[1] S4 = [z];\r\n    //     // uint256[1] S5 = [y];\r\n    //     // uint256[2] S6 = [z, 1];\r\n    //     // uint256[1] S7 = [y];\r\n    //     // // gamma(z) = gamma[0] + gamma[1]*z + gamma[2]*z^2 + ...\r\n    //     // uint256[1] gamma1 = [z];\r\n    //     // uint256[1] gamma2 = [z];\r\n    //     // uint256[2] gamma3 = [z, yz];\r\n    //     // uint256[1] gamma4 = [z];\r\n    //     // uint256[1] gamma5 = [z];\r\n    //     // uint256[2] gamma6 = [z, 1];\r\n    //     // uint256[1] gamma7 = [z];\r\n    //     // // the committed prove, g^p[x], g^w[x]\r\n    //     // Pairing.G1Point pi_1 = Pairing.G1Point(1, 2);\r\n    //     // Pairing.G1Point pi_2 = Pairing.G1Point(1, 2);\r\n\r\n    //     // // number of constraints?\r\n    //     // uint256 N = 21;\r\n    //     // uint256 z_n = expMod(z, N, BABYJUB_P);\r\n\r\n    //     // // other prover submitted variables\r\n    //     // uint256 r_1 = uint256(20435686948508171234472206488737953800505595616105823290561271581793730135986);\r\n    //     // uint256 r_tilde = uint256(7613038940582986439878577004424311309737615170791456916446723479068371769225);\r\n    //     // uint256 t = uint256(20435686948508171234472206488737953800505595616105823290561271581793730135986);\r\n    //     // uint256 k = uint256(11598511819595573397693757683043215863237090817957830497519701049476846220233);\r\n    //     // uint256 s_tilde = uint256(20435686948508171234472206488737953800505595616105823290561271581793730135986);\r\n    //     // uint256 r_2 = uint256(7613038940582986439878577004424311309737615170791456916446723479068371769225);\r\n    //     // uint256 s_1_tilde = uint256(20435686948508171234472206488737953800505595616105823290561271581793730135986);\r\n    //     // uint256 s_2_tilde = uint256(7613038940582986439878577004424311309737615170791456916446723479068371769225);\r\n\r\n    //     // // poly commitments, Fs\r\n    //     // Pairing.G1Point D = Pairing.G1Point(uint256(20435686948508171234472206488737953800505595616105823290561271581793730135986),\r\n    //     //     uint256(7613038940582986439878577004424311309737615170791456916446723479068371769225));\r\n    //     // Pairing.G1Point R_tilde = Pairing.G1Point(uint256(20435686948508171234472206488737953800505595616105823290561271581793730135986),\r\n    //     //     uint256(7613038940582986439878577004424311309737615170791456916446723479068371769225));\r\n    //     // Pairing.G1Point R = Pairing.G1Point(uint256(20435686948508171234472206488737953800505595616105823290561271581793730135986),\r\n    //     //     uint256(7613038940582986439878577004424311309737615170791456916446723479068371769225));\r\n    //     // Pairing.G1Point T = Pairing.G1Point(uint256(20435686948508171234472206488737953800505595616105823290561271581793730135986),\r\n    //     //     uint256(7613038940582986439878577004424311309737615170791456916446723479068371769225));\r\n    //     // Pairing.G1Point K = Pairing.G1Point(uint256(20435686948508171234472206488737953800505595616105823290561271581793730135986),\r\n    //     //     uint256(7613038940582986439878577004424311309737615170791456916446723479068371769225));\r\n    //     // Pairing.G1Point S_x = Pairing.G1Point(uint256(20435686948508171234472206488737953800505595616105823290561271581793730135986),\r\n    //     //     uint256(7613038940582986439878577004424311309737615170791456916446723479068371769225));\r\n    //     // Pairing.G1Point S_y = Pairing.G1Point(uint256(20435686948508171234472206488737953800505595616105823290561271581793730135986),\r\n    //     //     uint256(7613038940582986439878577004424311309737615170791456916446723479068371769225));\r\n\r\n    //     verifySonicBatchedImpl(UserCommitments(\r\n\r\n    //         // ECDSA signature\r\n    //         ethMessageHash(\"20900429899291009073299289469660149716785596251491300692035681492016939179257, 433691023568696153828599652727177493671905883454953868604074871528381220097\"),\r\n    //         hex\"19ec5dc5aa05a220cd210a113352596ebf80d06a6f776b8e0c656e50a5c5567f1e8a7f23fb27f77ea5b5d42f0e2384facdebebd85f026e2a73e94d4690a40a6801\",\r\n    //         0xE448992FdEaF94784bBD8f432d781C061D907985,\r\n\r\n    //         // d_j when j=1\r\n\r\n\r\n    //         // gamma(z) = gamma[0] + gamma[1]*z + gamma[2]*z^2 + ...\r\n    //         [z],\r\n    //         [z],\r\n    //         [z, yz],\r\n    //         [z],\r\n    //         [z],\r\n    //         [z, 1],\r\n    //         [z],\r\n    //         // the committed prove, g^p[x], g^w[x]\r\n    //         Pairing.G1Point(1, 2),\r\n    //         Pairing.G1Point(1, 2),\r\n\r\n\r\n    //         // other prover submitted variables\r\n    //         uint256(20435686948508171234472206488737953800505595616105823290561271581793730135986),\r\n    //         uint256(7613038940582986439878577004424311309737615170791456916446723479068371769225),\r\n    //         uint256(20435686948508171234472206488737953800505595616105823290561271581793730135986),\r\n    //         uint256(11598511819595573397693757683043215863237090817957830497519701049476846220233),\r\n    //         uint256(20435686948508171234472206488737953800505595616105823290561271581793730135986),\r\n    //         uint256(7613038940582986439878577004424311309737615170791456916446723479068371769225),\r\n    //         uint256(20435686948508171234472206488737953800505595616105823290561271581793730135986),\r\n    //         uint256(7613038940582986439878577004424311309737615170791456916446723479068371769225),\r\n\r\n    //         // poly commitments, Fs\r\n    //         Pairing.G1Point(uint256(20435686948508171234472206488737953800505595616105823290561271581793730135986),\r\n    //             uint256(7613038940582986439878577004424311309737615170791456916446723479068371769225)),\r\n    //         Pairing.G1Point(uint256(20435686948508171234472206488737953800505595616105823290561271581793730135986),\r\n    //             uint256(7613038940582986439878577004424311309737615170791456916446723479068371769225)),\r\n    //         Pairing.G1Point(uint256(20435686948508171234472206488737953800505595616105823290561271581793730135986),\r\n    //             uint256(7613038940582986439878577004424311309737615170791456916446723479068371769225)),\r\n    //         Pairing.G1Point(uint256(20435686948508171234472206488737953800505595616105823290561271581793730135986),\r\n    //             uint256(7613038940582986439878577004424311309737615170791456916446723479068371769225)),\r\n    //         Pairing.G1Point(uint256(20435686948508171234472206488737953800505595616105823290561271581793730135986),\r\n    //             uint256(7613038940582986439878577004424311309737615170791456916446723479068371769225)),\r\n    //         Pairing.G1Point(uint256(20435686948508171234472206488737953800505595616105823290561271581793730135986),\r\n    //             uint256(7613038940582986439878577004424311309737615170791456916446723479068371769225)),\r\n    //         Pairing.G1Point(uint256(20435686948508171234472206488737953800505595616105823290561271581793730135986),\r\n    //             uint256(7613038940582986439878577004424311309737615170791456916446723479068371769225))\r\n    //     ));\r\n    // }\r\n\r\n    function verifySonicBatchedImpl(\r\n        UserCommitments memory cm\r\n    ) public returns (bool) {\r\n\r\n        // simulate calculating kY\r\n        // uint256 ky = evalKPoly();\r\n        // // // simulate calculating sXY\r\n        // uint256 sx = evalXPoly();\r\n        // uint256 sy = evalXPoly();\r\n\r\n        \r\n        // y^N for halo implementation style\r\n        // uint256 y_n = expMod(z, N, BABYJUB_P);\r\n\r\n        // t for halo implementation style\r\n        // uint256 t = addmod(mulmod(addmod(Proof[6], Proof[9], BABYJUB_P), \r\n        //                           addmod(addmod(Proof[12], \r\n        //                                         Proof[15], BABYJUB_P), \r\n        //                                  evalS, BABYJUB_P), BABYJUB_P),\r\n        //                     mulmod((BABYJUB_P - evalK), y_n, BABYJUB_P),\r\n        //                     BABYJUB_P);\r\n\r\n        // uint256 t = addmod(mulmod(addmod(Proof[6], Proof[9], BABYJUB_P), \r\n        //                           addmod(addmod(Proof[12], \r\n        //                                         Proof[15], BABYJUB_P), \r\n        //                                  evalS, BABYJUB_P), BABYJUB_P),\r\n        //                     (BABYJUB_P - evalK), BABYJUB_P);\r\n        verification_variables memory vars;\r\n        // Z(T / Si)[z] * ^(i-1)\r\n        vars.Z_beta_1 = mulmod(1, z_calculation(1), BABYJUB_P); // i = 1,  etc.\r\n        vars.Z_beta_2 = mulmod(beta, z_calculation(2), BABYJUB_P);\r\n        vars.Z_beta_3 = mulmod(mulmod(vars.Z_beta_2, beta, BABYJUB_P), z_calculation(3), BABYJUB_P);\r\n        vars.Z_beta_4 = mulmod(mulmod(vars.Z_beta_3, beta, BABYJUB_P), z_calculation(4), BABYJUB_P);\r\n        uint256 Z_beta_5 = mulmod(mulmod(vars.Z_beta_4, beta, BABYJUB_P), z_calculation(5), BABYJUB_P);\r\n        uint256 Z_beta_6 = mulmod(mulmod(Z_beta_5, beta, BABYJUB_P), z_calculation(6), BABYJUB_P);\r\n        uint256 Z_beta_7 = mulmod(mulmod(Z_beta_6, beta, BABYJUB_P), z_calculation(7), BABYJUB_P);\r\n        \r\n        // H calculation\r\n        Pairing.G1Point memory H = Pairing.plus(Pairing.plus(Pairing.mulScalar(cm.D, vars.Z_beta_1), Pairing.mulScalar(cm.R_tilde, vars.Z_beta_2)), Pairing.mulScalar(cm.R, vars.Z_beta_3));\r\n        H = Pairing.plus(H, Pairing.mulScalar(cm.T, vars.Z_beta_4));\r\n        H = Pairing.plus(H, Pairing.mulScalar(cm.K, Z_beta_5));\r\n        H = Pairing.plus(H, Pairing.mulScalar(cm.S_x, Z_beta_6));\r\n        H = Pairing.plus(H, Pairing.mulScalar(cm.S_y, Z_beta_7));\r\n\r\n        // R calculation, denoted  RR because already have a R for one Fcommitment\r\n        // first calculate the PI product, and to do this first calculate the power of g after product to reduce gas cost\r\n        uint256 power = mulmod(vars.Z_beta_1, BABYJUB_P - cm.gamma1[0], BABYJUB_P);\r\n        power = addmod(power, mulmod(vars.Z_beta_2, BABYJUB_P - cm.gamma2[0], BABYJUB_P), BABYJUB_P);\r\n        power = addmod(power, mulmod(vars.Z_beta_3, BABYJUB_P - addmod(cm.gamma3[0], mulmod(cm.gamma3[1], z, BABYJUB_P), \r\n                                                                BABYJUB_P), BABYJUB_P), BABYJUB_P);\r\n        power = addmod(power, mulmod(vars.Z_beta_4, BABYJUB_P - cm.gamma4[0], BABYJUB_P), BABYJUB_P);\r\n        // power = addmod(power, mulmod(Z_beta_4, BABYJUB_P - addmod(addmod(gamma4[0], \r\n        //                                                                         mulmod(gamma4[1], z, BABYJUB_P), \r\n        //                                                                         BABYJUB_P),\r\n        //                                                                         mulmod(gamma4[2], \r\n        //                                                                         mulmod(z, z, \r\n        //                                                                         BABYJUB_P), \r\n        //                                                         BABYJUB_P),\r\n        //                                                     BABYJUB_P),\r\n        //                             BABYJUB_P), BABYJUB_P);\r\n        power = addmod(power, mulmod(Z_beta_5, BABYJUB_P - cm.gamma5[0], BABYJUB_P), BABYJUB_P);\r\n        power = addmod(power, mulmod(Z_beta_6, BABYJUB_P - addmod(cm.gamma6[0], mulmod(cm.gamma6[1], z, BABYJUB_P), \r\n                                                                BABYJUB_P), BABYJUB_P), BABYJUB_P);\r\n        power = addmod(power, mulmod(Z_beta_7, BABYJUB_P - cm.gamma7[0], BABYJUB_P), BABYJUB_P);\r\n        // calculate the PI product\r\n        Pairing.G1Point memory RR = Pairing.mulScalar(Pairing.G1Point(1, 2), power);\r\n\r\n        // then add the first item before the uppercase Pi product\r\n        //g^p[x]zT[z]\r\n        RR = Pairing.plus(RR, Pairing.negate(Pairing.plus(cm.pi_1,\r\n                                                        Pairing.mulScalar(Pairing.G1Point(1, 2),\r\n                                                                        z_calculation(9)))));\r\n        //g^zw[x]\r\n        RR = Pairing.plus(RR, Pairing.mulScalar(cm.pi_2, z));\r\n        \r\n        // check the equation, then check others\r\n        // bool result = Pairing.pairing_3point(\r\n        //     H,\r\n        //     Constants.SRS_G2_1, // h, see above\r\n        //     R,\r\n        //     Constants.t_hxdmax,\r\n        //     Pairing.negate(pi_2),\r\n        //     Constants.t_hxdmaxplusone\r\n        //     )\r\n        //     && recover(message, sig) == addr //verifySignature\r\n        //     && r_1 == addmod(r_tilde, mulmod(d, z_n, BABYJUB_P), BABYJUB_P)\r\n        //     && t == addmod(mulmod(r_1, \r\n        //                           addmod(r_2,\r\n        //                                  s_tilde, BABYJUB_P), BABYJUB_P),\r\n        //                     (BABYJUB_P - k), BABYJUB_P)\r\n        //     && s_1_tilde == s_2_tilde;\r\n\r\n        // temporary code for estimating gas cost, the above is correct version\r\n        bool result = Pairing.pairing_3point(\r\n            H,\r\n            Constants.SRS_G2_1,\r\n            RR,\r\n            Constants.t_hxdmax,\r\n            Pairing.negate(cm.pi_2),\r\n            Constants.t_hxdmaxplusone\r\n            );\r\n        result = recover(cm.message, cm.sig) == cm.addr; //verifySignature\r\n        result = cm.r_1 == addmod(cm.r_tilde, mulmod(d, z_n, BABYJUB_P), BABYJUB_P);\r\n        result = cm.t == addmod(mulmod(cm.r_1, \r\n                                  addmod(cm.r_2,\r\n                                         cm.s_tilde, BABYJUB_P), BABYJUB_P),\r\n                            (BABYJUB_P - cm.k), BABYJUB_P);\r\n        result = cm.s_1_tilde == cm.s_2_tilde;\r\n\r\n        emit verifyResult(result);\r\n        return result;\r\n    }\r\n    \r\n\r\n    function z_calculation (uint256 i)\r\n                            internal view returns (uint256){\r\n        \r\n        uint256 result = 1;\r\n        if (i != 1){\r\n            result = mulmod(result, addmod(z, BABYJUB_P - [z][0], BABYJUB_P), BABYJUB_P);\r\n        }\r\n        if (i != 2){\r\n            result = mulmod(result, addmod(z, BABYJUB_P - [z][0], BABYJUB_P), BABYJUB_P);\r\n        }\r\n        if (i != 3){\r\n            result = mulmod(mulmod(result, addmod(z, BABYJUB_P - [z, yz][1], BABYJUB_P), BABYJUB_P)\r\n                            , addmod(z, BABYJUB_P - [z, yz][0], BABYJUB_P), BABYJUB_P);\r\n        }\r\n        if (i != 4){\r\n            result = mulmod(result, addmod(z, BABYJUB_P - [z][0], BABYJUB_P), BABYJUB_P);\r\n            // result = mulmod(mulmod(mulmod(result, addmod(z, BABYJUB_P - [z][2], BABYJUB_P), BABYJUB_P)\r\n            //                 , addmod(z, BABYJUB_P - [z][1], BABYJUB_P), BABYJUB_P)\r\n            //                 , addmod(z, BABYJUB_P - [z][0], BABYJUB_P), BABYJUB_P);\r\n        }\r\n        if (i != 5){\r\n            result = mulmod(result, addmod(z, BABYJUB_P - [y][0], BABYJUB_P), BABYJUB_P);\r\n        }\r\n        if (i != 6){\r\n            result = mulmod(mulmod(result, addmod(z, BABYJUB_P - [z, 1][1], BABYJUB_P), BABYJUB_P)\r\n                            , addmod(z, BABYJUB_P - [z, 1][0], BABYJUB_P), BABYJUB_P);\r\n        }\r\n        if (i != 7){\r\n            result = mulmod(result, addmod(z, BABYJUB_P - [y][0], BABYJUB_P), BABYJUB_P);\r\n        }\r\n        return result;\r\n    }\r\n\r\n    /**\r\n     * @dev Recover signer address from a message by using their signature\r\n     * @param hash bytes32 message, the hash is the signed message. What is recovered is the signer address.\r\n     * @param signature bytes signature, the signature is generated using web3.eth.sign()\r\n     */\r\n    function recover(bytes32 hash, bytes memory signature) internal pure returns (address) {\r\n        bytes32 r;\r\n        bytes32 s;\r\n        uint8 _v;\r\n\r\n        // Check the signature length\r\n        if (signature.length != 65) {\r\n            return (address(0));\r\n        }\r\n\r\n        // Divide the signature in r, s and v variables\r\n        // ecrecover takes the signature parameters, and the only way to get them\r\n        // currently is to use assembly.\r\n        // solium-disable-next-line security/no-inline-assembly\r\n        assembly {\r\n            r := mload(add(signature, 32))\r\n            s := mload(add(signature, 64))\r\n            _v := byte(0, mload(add(signature, 96)))\r\n        }\r\n\r\n        // Version of signature should be 27 or 28, but 0 and 1 are also possible versions\r\n        if (_v < 27) {\r\n            _v += 27;\r\n        }\r\n\r\n        // If the version is correct return the signer address\r\n        if (_v != 27 && _v != 28) {\r\n            return (address(0));\r\n        } else {\r\n            // solium-disable-next-line arg-overflow\r\n            return ecrecover(hash, _v, r, s);\r\n        }\r\n    }\r\n\r\n    /**\r\n    * @dev prefix a bytes32 value with \"\\x19Ethereum Signed Message:\" and hash the result\r\n    */\r\n    function ethMessageHash(string memory rawCommitment) internal pure returns (bytes32) {\r\n        return keccak256(\r\n            abi.encodePacked(\"\\x19Ethereum Signed Message:\\n32\", keccak256(abi.encodePacked(rawCommitment)))\r\n        );\r\n    }\r\n\r\n\r\n    //     /*\r\n    //  * @return The polynominal evaluation of a polynominal with the specified\r\n    //  *         coefficients at the given index.\r\n    //  */\r\n    //  function evalPoly() public view returns (uint256) {\r\n\r\n    //     uint baseOrder = 204;\r\n    //     uint length = 64;\r\n    //     uint256 _index = y;\r\n    //     uint256 m = Constants.BABYJUB_P;\r\n    //     uint256 result = 0;\r\n    //     uint256 powerOfX = 1;\r\n\r\n    //     for (uint256 i = 0; i < length; i ++) {\r\n    //         assembly {\r\n    //             result:= addmod(result, mulmod(powerOfX, i, m), m)\r\n    //             powerOfX := mulmod(powerOfX, i, m)\r\n    //         }\r\n    //     }\r\n    //     uint256 basePower = invMod(expMod(_index, baseOrder, m), m);\r\n    //     result = mulmod(basePower, result, m);\r\n\r\n    //     return result;\r\n    // }\r\n\r\n    /// @dev Modular euclidean inverse of a number (mod p).\r\n    /// @param _x The number\r\n    /// @param _pp The modulus\r\n    /// @return q such that x*q = 1 (mod _pp)\r\n    // function invMod(uint256 _x, uint256 _pp) internal pure returns (uint256) {\r\n    //     require(_x != 0 && _x != _pp && _pp != 0, \"Invalid number\");\r\n    //     uint256 q = 0;\r\n    //     uint256 newT = 1;\r\n    //     uint256 r = _pp;\r\n    //     uint256 t;\r\n    //     while (_x != 0) {\r\n    //     t = r / _x;\r\n    //     (q, newT) = (newT, addmod(q, (_pp - mulmod(t, newT, _pp)), _pp));\r\n    //     (r, _x) = (_x, r - t * _x);\r\n    //     }\r\n\r\n    //     return q;\r\n    // }\r\n\r\n    /// @dev Modular exponentiation, b^e % _pp.\r\n    /// Source: https://github.com/androlo/standard-contracts/blob/master/contracts/src/crypto/ECCMath.sol\r\n    /// @param _base base\r\n    /// @param _exp exponent\r\n    /// @param _pp modulus\r\n    /// @return r such that r = b**e (mod _pp)\r\n    function expMod(uint256 _base, uint256 _exp, uint256 _pp) internal pure returns (uint256) {\r\n        require(_pp!=0, \"Modulus is zero\");\r\n\r\n        if (_base == 0)\r\n        return 0;\r\n        if (_exp == 0)\r\n        return 1;\r\n\r\n        uint256 r = 1;\r\n        uint256 bit = 57896044618658097711785492504343953926634992332820282019728792003956564819968; // 2 ^ 255\r\n        assembly {\r\n        for { } gt(bit, 0) { }{\r\n            // a touch of loop unrolling for 20% efficiency gain\r\n            r := mulmod(mulmod(r, r, _pp), exp(_base, iszero(iszero(and(_exp, bit)))), _pp)\r\n            r := mulmod(mulmod(r, r, _pp), exp(_base, iszero(iszero(and(_exp, div(bit, 2))))), _pp)\r\n            r := mulmod(mulmod(r, r, _pp), exp(_base, iszero(iszero(and(_exp, div(bit, 4))))), _pp)\r\n            r := mulmod(mulmod(r, r, _pp), exp(_base, iszero(iszero(and(_exp, div(bit, 8))))), _pp)\r\n            bit := div(bit, 16)\r\n        }\r\n        }\r\n\r\n        return r;\r\n    }\r\n    \r\n\r\n}",
  "sourcePath": "D:\\homework\\sonic\\src\\verifier\\contracts\\Verifier.sol",
  "compiler": {
    "name": "solc",
    "version": "0.8.13+commit.abaa5c0e.Emscripten.clang"
  },
  "schemaVersion": "3.4.8",
  "updatedAt": "2023-02-26T09:41:07.430Z",
  "networkType": "ethereum",
  "devdoc": {
    "kind": "dev",
    "methods": {},
    "version": 1
  },
  "userdoc": {
    "kind": "user",
    "methods": {},
    "version": 1
  }
}