{
  "contractName": "Verifier",
  "abi": [
    {
      "anonymous": false,
      "inputs": [
        {
          "indexed": false,
          "internalType": "bool",
          "name": "result",
          "type": "bool"
        }
      ],
      "name": "verifyResult",
      "type": "event"
    },
    {
      "inputs": [
        {
          "components": [
            {
              "internalType": "uint256",
              "name": "X",
              "type": "uint256"
            },
            {
              "internalType": "uint256",
              "name": "Y",
              "type": "uint256"
            }
          ],
          "internalType": "struct Pairing.G1Point",
          "name": "_commitment",
          "type": "tuple"
        },
        {
          "components": [
            {
              "internalType": "uint256",
              "name": "X",
              "type": "uint256"
            },
            {
              "internalType": "uint256",
              "name": "Y",
              "type": "uint256"
            }
          ],
          "internalType": "struct Pairing.G1Point",
          "name": "_proof",
          "type": "tuple"
        },
        {
          "internalType": "uint256",
          "name": "_index",
          "type": "uint256"
        },
        {
          "internalType": "uint256",
          "name": "_value",
          "type": "uint256"
        },
        {
          "internalType": "uint256",
          "name": "proofIndex",
          "type": "uint256"
        }
      ],
      "name": "verify",
      "outputs": [
        {
          "internalType": "bool",
          "name": "",
          "type": "bool"
        }
      ],
      "stateMutability": "view",
      "type": "function",
      "constant": true
    },
    {
      "inputs": [],
      "name": "verifySonic",
      "outputs": [
        {
          "internalType": "bool",
          "name": "",
          "type": "bool"
        }
      ],
      "stateMutability": "nonpayable",
      "type": "function"
    },
    {
      "inputs": [],
      "name": "evalPoly",
      "outputs": [
        {
          "internalType": "uint256",
          "name": "",
          "type": "uint256"
        }
      ],
      "stateMutability": "view",
      "type": "function",
      "constant": true
    }
  ],
  "bytecode": "0x608060405260405180608001604052807f1a597e49c263d6a226f25fe1e806caac7f15f85b763044e7d3043ba5992dd8d581526020017f228b515a17f28b89920873207477f8c7fc05582debaf3184febf1cfdedc5ce8881526020017f18e9db03472e0863ddf2838cf8880b11083593229561aaf9a11c760bb97a64fa81526020017f0566eed2b6bb584ca75fbe0ca9ffc98eb586c25812617df7e01a2b6d8270f0bf8152506000906004620000b792919062000db7565b5060405180608001604052807f208f992ecbeeef3fa5b1c3505c588c7a872e3987797a14052b6f34411c9ea0ae81526020017f12bb1156a9f6b360fcb2614e15d8a3ff07f2c699dc69ca830b20d2df91fe9cd381526020017f15904dc85f8ddf338fe3151d3c146b4083e99dd3f26d87d33dd5d20eb64284a381526020017f20101834550a7d15aa7a685d3f0095b689822cb568dfc9690e0cc58e9826d8fb81525060019060046200016b92919062000db7565b5060405180608001604052807f024248dcf25ea502fb805bcab808906eb944154792151d643ad7b4b0eca6d91381526020017f2b15dc62a5c9e36597914ddbbfde48806a8eabe45c8d3cccf9578ad08e058f9281526020017f20ab132d3e7dd0600d89b397a3bf88e3900434c826b458028981278a619d809481526020017f0a66c012d8ebf11c9a9fc4ccfeeab0ace62b1c1fa744f6c6173f1994e9241db781525060029060046200021f92919062000db7565b5060405180608001604052807f14c35af32416c899af0b827ef0f1a686393d629317706d8c143cdfd5717c4c5e81526020017f02a4fd764f52470e2fcfff325fb9692f55d6b8b077eefeaa04e07152b4d1fa9481526020017f28505103380e230ea76fa52dc17b1269cfa9076761a1bb971c5b90767de58db081526020017f19ea09d089c848b2dee00082395883e0b405de1da65d4b4aeebd50c84e47349d8152506003906004620002d392919062000db7565b50604051806040016040528060405180604001604052807f185c3f6fe300ae4825fbc17232a7ef067d895c6838b58df5d3821b3c5f47a38081526020017f0ec8eed74d6dfed1e4bbac422898cbf6334bb2ea304a443a0b388c8a513b98ea815250815260200160405180604001604052807f2ce0b9172a655debea69f18829f2b0a98ec43a6ce296f603371237011936328181526020017f113e4f1953b68002611afddebc49dc2876e7a4e246061eec0f05ebc6595ff1378152508152506004600082015181600001906002620003ac92919062000e09565b50602082015181600201906002620003c692919062000e09565b505050604051806040016040528060405180604001604052807f11a27fdb89b46af22a89049c391fada5cb5ce6f4c9df8fe5ebae5d422b0bcddf81526020017f1ebadb21506ba2b40566be5bdbfe1ead7400477fc516e1ded4461c6759c221f5815250815260200160405180604001604052807f2d204255b7a4116982ce5bcd3bcc3639e3cc82b273a8ffbf404370c38ce5db3f81526020017f18b0e4266a167129aaee0af3b9ab5a3b4d2bcd690de7d94312c23b494f9fd3bb8152508152506008600082015181600001906002620004a192919062000e09565b50602082015181600201906002620004bb92919062000e09565b505050604051806040016040528060405180604001604052807f198e9393920d483a7260bfb731fb5d25f1aa493335a9e71297e485b7aef312c281526020017f1800deef121f1e76426a00665e5c4479674322d4f75edadd46debd5cd992f6ed815250815260200160405180604001604052807f090689d0585ff075ec9e99ad690c3395bc4b313370b38ef355acdadcd122975b81526020017f12c85ea5db8c6deb4aab71808dcb408fe3d1e7690c43d37b4ce6cc0166fa7daa815250815250600c6000820151816000019060026200059692919062000e09565b50602082015181600201906002620005b092919062000e09565b505050604051806102a001604052807f2d2e305d3ab2dc6e0081ffcf4a701f924a1a7296cdc32046c10c0b6f992387b281526020017f10d4d3cca369c48670346ef36c6739e885bb11b52038a89c706aacfb7d72d78981526020017f2e35395f5838af48130dca441dda40ea378236a7259002822b87101d02189cf981526020017f259e64ee9a51992b6a66d97b27e9071b120bd0677b1e58f9373725493d0dfc3581526020017ef575de1f064343e871771cb242eaaf6812e4568c2bb7e6673e876c7464050181526020017f16d136c3465f30dfece26e1c3f94d1b9f6b90caa57245be3440ee15730c89cab81526020017f0cea2e280aefedbce8fd0e4abaf7e4575dc8fe4a4268a61d8dd063507fc5ecfb81526020017f0b19cca2316e1f6d3490971e1707cf7f8a8542f1ebb784b0f95ae933e191167081526020017f2dedb4628bf08f798ce6d93603b6ed8cac8942ae15ac5468e21b057a6001910a81526020017f213c7c9a650878edd5e1c73acd8868f2b83acff59c7fe0708c4006b8fe24b2df81526020017f1e812a5bf519614265594c3c12f2c881d46929dbaeabe2353ecd4288b7ab000d81526020017ec4b2d3c0dadfd5209c926bf4f936931a6d2c04fa9608cb278d855dbd3f38a981526020017f1f492c8edd37499078a6576275a4f46fe77a79ae3034b524e22eae2459c8a7d281526020017f05df1f21eb91f54ce9ebc45963392c05646ab94d5285f23f62d004e9742caa4181526020017f2baa1788aecf01e0f174e1dec4e4a1a6bb12e04f5a664c73110341089fa4a78581526020017f293d12d2ddee8106ee524edceb5b09802836c0009574f2a42db542c83d1612a981526020017f2a84b96b69dba240b21032b810c85532ac40b61d6b890cc3757309d83d0703ae81526020017f1a49d50f46a39f0fde8d3e1d95771d29bbb9eb7c9baab30cfb7867a50cd00d2681526020017f2be1f7e20177ef75851870d314a7fff4c31f0a9590dcadfa7ad98f63d01bffe681526020017f0fa336d3c59c626772a0d93ee1d4144b21e0fea2b000cd4fa60c03f69456025c81526020017f18a2993be8e03e3ec58688e40a0997a30ae6b413ab6156da93218e1ba39fee648152506010906015620008eb92919062000e4e565b5060405180604001604052807f2f376e28777cfe34cf077eba864c462fd6efbfe4d3f6af17768ef2ed4f829ddd81526020017f2f0ed729a52c3cf5d51e5e6d8e737f79e5d99150f7b9b63f3dd38704f9d8ef2681525060259060026200095392919062000e09565b50610bb26027557f19a48669ccf72c593144962560f593b667daa2052d1cdcc2500bb3b003c073c9602855601060146015811062000996576200099562000f88565b5b01546029556040518060a001604052807f0abcbc513a4f12ef3d24aedcb8005305a64e9914941d63de78e83c7ce9559cb681526020017f29cb2b0a977afdb5e3c2fead88d2b26d1b699c1b7a6693262c371d3263f232bc81526020017f18a2993be8e03e3ec58688e40a0997a30ae6b413ab6156da93218e1ba39fee6481526020017f2f3fabffbd2bca7bc61901b09b4f45c78a3748a2e40ced61b93883605553ba4c81526020017f06332cd70541f1f5958e148a641305cb34193b8a595c46613dc0fff11c226ebe815250602a90600562000a7492919062000e93565b506040518060a001604052807f173fe27a7f0c60540d8d600c5850189dd4bb8d7f3c007a385606cd2c6181554d81526020017f08f2c08c988b82b1e72491c92c1888d988b28dbdf5969bca17d439211e0e491781526020017f07d1bdb66bfe5e8ea65931d35586ff1c40ce91a19e82bf032ce19b1ef5f0597181526020017f1f7e97b1ecc7c35f2e9ee3393ea5d101018c8ab489dc82d6678931cd13a0656481526020017f0aa1ce7a4ee86b4d125985c4fbef9eb81ff6397e9ee5b638cd6c5f7f3f1edc8f815250602f90600562000b4e92919062000e93565b5060405180604001604052807f069c989f95c67f2eadad54192ee90365dfd843dd18cd104449c2cd0f6135a00d81526020017f1d30712bd9824a34faf8681c2f97adc1305a2faf1b39d4edf30d23aa5d73e27181525060346000820151816000015560208201518160010155505060405180604001604052807f2cfff7d01b631c28468be5bf2d727199af5fad36b826df7816f54952caf49c3281526020017f1070005b7818ade38c833c325a22173c6abf1df16c09a6634c989af7701ecfe28152506036600082015181600001556020820151816001015550507f121f60ce38117f295e9818dfcb4dc742f01502a468e608ef94852d629c400ff16038557f2877d2ce379fc3bf527374243a7169b5101750073677141bca5b7ea0248e81db6039557f1139f290e1b15f50b86c3fa6c4961c7e69c7b36bf05d9dc9791958e93c06082e603a5562000cbf6040518060c00160405280609a81526020016200382a609a913962000d5d60201b60201c565b603b55604051806080016040528060418152602001620038c460419139603c908051906020019062000cf392919062000ed8565b5073e448992fdeaf94784bbd8f432d781c061d907985603d60006101000a81548173ffffffffffffffffffffffffffffffffffffffff021916908373ffffffffffffffffffffffffffffffffffffffff16021790555034801562000d5657600080fd5b5062001160565b60008160405160200162000d7291906200103a565b6040516020818303038152906040528051906020012060405160200162000d9a9190620010d2565b604051602081830303815290604052805190602001209050919050565b82805482825590600052602060002090810192821562000df6579160200282015b8281111562000df557825182559160200191906001019062000dd8565b5b50905062000e05919062000f69565b5090565b826002810192821562000e3b579160200282015b8281111562000e3a57825182559160200191906001019062000e1d565b5b50905062000e4a919062000f69565b5090565b826015810192821562000e80579160200282015b8281111562000e7f57825182559160200191906001019062000e62565b5b50905062000e8f919062000f69565b5090565b826005810192821562000ec5579160200282015b8281111562000ec457825182559160200191906001019062000ea7565b5b50905062000ed4919062000f69565b5090565b82805462000ee6906200112b565b90600052602060002090601f01602090048101928262000f0a576000855562000f56565b82601f1062000f2557805160ff191683800117855562000f56565b8280016001018555821562000f56579182015b8281111562000f5557825182559160200191906001019062000f38565b5b50905062000f65919062000f69565b5090565b5b8082111562000f8457600081600090555060010162000f6a565b5090565b7f4e487b7100000000000000000000000000000000000000000000000000000000600052603260045260246000fd5b600081519050919050565b600081905092915050565b60005b8381101562000fed57808201518184015260208101905062000fd0565b8381111562000ffd576000848401525b50505050565b6000620010108262000fb7565b6200101c818562000fc2565b93506200102e81856020860162000fcd565b80840191505092915050565b600062001048828462001003565b915081905092915050565b7f19457468657265756d205369676e6564204d6573736167653a0a333200000000600082015250565b60006200108b601c8362000fc2565b9150620010988262001053565b601c82019050919050565b6000819050919050565b6000819050919050565b620010cc620010c682620010a3565b620010ad565b82525050565b6000620010df826200107c565b9150620010ed8284620010b7565b60208201915081905092915050565b7f4e487b7100000000000000000000000000000000000000000000000000000000600052602260045260246000fd5b600060028204905060018216806200114457607f821691505b6020821081036200115a5762001159620010fc565b5b50919050565b6126ba80620011706000396000f3fe608060405234801561001057600080fd5b50600436106100415760003560e01c80635b94136b146100465780639c22c95114610076578063ffef4ff414610094575b600080fd5b610060600480360381019061005b9190611ce4565b6100b2565b60405161006d9190611d7a565b60405180910390f35b61007e610383565b60405161008b9190611d7a565b60405180910390f35b61009c610f77565b6040516100a99190611da4565b60405180910390f35b60007f30644e72e131a029b85045b68181585d2833e84879b9709143e1f593f000000186600001511061011a576040517f08c379a000000000000000000000000000000000000000000000000000000000815260040161011190611e42565b60405180910390fd5b7f30644e72e131a029b85045b68181585d2833e84879b9709143e1f593f0000001866020015110610180576040517f08c379a000000000000000000000000000000000000000000000000000000000815260040161017790611ed4565b60405180910390fd5b7f30644e72e131a029b85045b68181585d2833e84879b9709143e1f593f00000018560000151106101e6576040517f08c379a00000000000000000000000000000000000000000000000000000000081526004016101dd90611f66565b60405180910390fd5b7f30644e72e131a029b85045b68181585d2833e84879b9709143e1f593f000000185602001511061024c576040517f08c379a000000000000000000000000000000000000000000000000000000000815260040161024390611ff8565b60405180910390fd5b7f30644e72e131a029b85045b68181585d2833e84879b9709143e1f593f000000184106102ae576040517f08c379a00000000000000000000000000000000000000000000000000000000081526004016102a59061208a565b60405180910390fd5b7f30644e72e131a029b85045b68181585d2833e84879b9709143e1f593f00000018310610310576040517f08c379a00000000000000000000000000000000000000000000000000000000081526004016103079061211c565b60405180910390fd5b60006103348761032f61032a610324611032565b88611056565b61112e565b6111ec565b905060006103418761112e565b9050600061034f8888611056565b905061037561035e82856111ec565b6103666112ea565b84610370896113b4565b6114d7565b935050505095945050505050565b6000807f30644e72e131a029b85045b68181585d2833e84879b9709143e1f593f0000001806103b5576103b461213c565b5b60256001600281106103ca576103c961216b565b5b015460256000600281106103e1576103e061216b565b5b015409905060007f30644e72e131a029b85045b68181585d2833e84879b9709143e1f593f0000001806104175761041661213c565b5b6028547f30644e72e131a029b85045b68181585d2833e84879b9709143e1f593f000000161044591906121c9565b7f30644e72e131a029b85045b68181585d2833e84879b9709143e1f593f0000001806104745761047361213c565b5b7f30644e72e131a029b85045b68181585d2833e84879b9709143e1f593f0000001806104a3576104a261213c565b5b6029547f30644e72e131a029b85045b68181585d2833e84879b9709143e1f593f0000001806104d5576104d461213c565b5b6010600f601581106104ea576104e961216b565b5b01546010600c601581106105015761050061216b565b5b015408087f30644e72e131a029b85045b68181585d2833e84879b9709143e1f593f0000001806105345761053361213c565b5b60106009601581106105495761054861216b565b5b015460106006601581106105605761055f61216b565b5b015408090890506000603d60009054906101000a900473ffffffffffffffffffffffffffffffffffffffff1673ffffffffffffffffffffffffffffffffffffffff16610638603b54603c80546105b59061222c565b80601f01602080910402602001604051908101604052809291908181526020018280546105e19061222c565b801561062e5780601f106106035761010080835404028352916020019161062e565b820191906000526020600020905b81548152906001019060200180831161061157829003601f168201915b505050505061183f565b73ffffffffffffffffffffffffffffffffffffffff16149050600061070d604051806040016040528060106000601581106106765761067561216b565b5b0154815260200160106001601581106106925761069161216b565b5b0154815250604051806040016040528060106007601581106106b7576106b661216b565b5b0154815260200160106008601581106106d3576106d261216b565b5b015481525060256001600281106106ed576106ec61216b565b5b015460106006601581106107045761070361216b565b5b015460006100b2565b80156107b957506107b8604051806040016040528060106000601581106107375761073661216b565b5b0154815260200160106001601581106107535761075261216b565b5b015481525060405180604001604052806010600d601581106107785761077761216b565b5b015481526020016010600e601581106107945761079361216b565b5b0154815250866010600c601581106107af576107ae61216b565b5b015460006100b2565b5b801561087b575061087a604051806040016040528060106002601581106107e3576107e261216b565b5b0154815260200160106003601581106107ff576107fe61216b565b5b015481525060405180604001604052806010600a601581106108245761082361216b565b5b015481526020016010600b601581106108405761083f61216b565b5b0154815250602560016002811061085a5761085961216b565b5b015460106009601581106108715761087061216b565b5b015460016100b2565b5b80156109265750610925604051806040016040528060106002601581106108a5576108a461216b565b5b0154815260200160106003601581106108c1576108c061216b565b5b01548152506040518060400160405280601080601581106108e5576108e461216b565b5b0154815260200160106011601581106109015761090061216b565b5b0154815250866010600f6015811061091c5761091b61216b565b5b015460016100b2565b5b80156109d257506109d1604051806040016040528060106004601581106109505761094f61216b565b5b01548152602001601060056015811061096c5761096b61216b565b5b0154815250604051806040016040528060106012601581106109915761099061216b565b5b0154815260200160106013601581106109ad576109ac61216b565b5b015481525060256001600281106109c7576109c661216b565b5b01548660006100b2565b5b8015610a7e5750610a7d604051806040016040528060106004601581106109fc576109fb61216b565b5b015481526020016010600560158110610a1857610a1761216b565b5b015481525060405180604001604052806010601260158110610a3d57610a3c61216b565b5b015481526020016010601360158110610a5957610a5861216b565b5b01548152506025600160028110610a7357610a7261216b565b5b01548660006100b2565b5b8015610b2a5750610b2960405180604001604052806010600460158110610aa857610aa761216b565b5b015481526020016010600560158110610ac457610ac361216b565b5b015481525060405180604001604052806010601260158110610ae957610ae861216b565b5b015481526020016010601360158110610b0557610b0461216b565b5b01548152506025600160028110610b1f57610b1e61216b565b5b01548660006100b2565b5b8015610bd65750610bd560405180604001604052806010600460158110610b5457610b5361216b565b5b015481526020016010600560158110610b7057610b6f61216b565b5b015481525060405180604001604052806010601260158110610b9557610b9461216b565b5b015481526020016010601360158110610bb157610bb061216b565b5b01548152506025600160028110610bcb57610bca61216b565b5b01548660006100b2565b5b8015610c825750610c8160405180604001604052806010600460158110610c0057610bff61216b565b5b015481526020016010600560158110610c1c57610c1b61216b565b5b015481525060405180604001604052806010601260158110610c4157610c4061216b565b5b015481526020016010601360158110610c5d57610c5c61216b565b5b01548152506025600160028110610c7757610c7661216b565b5b01548660006100b2565b5b8015610d2e5750610d2d60405180604001604052806010600460158110610cac57610cab61216b565b5b015481526020016010600560158110610cc857610cc761216b565b5b015481525060405180604001604052806010601260158110610ced57610cec61216b565b5b015481526020016010601360158110610d0957610d0861216b565b5b01548152506025600160028110610d2357610d2261216b565b5b01548660006100b2565b5b8015610dda5750610dd960405180604001604052806010600460158110610d5857610d5761216b565b5b015481526020016010600560158110610d7457610d7361216b565b5b015481525060405180604001604052806010601260158110610d9957610d9861216b565b5b015481526020016010601360158110610db557610db461216b565b5b01548152506025600160028110610dcf57610dce61216b565b5b01548660006100b2565b5b8015610e865750610e8560405180604001604052806010600460158110610e0457610e0361216b565b5b015481526020016010600560158110610e2057610e1f61216b565b5b015481525060405180604001604052806010601260158110610e4557610e4461216b565b5b015481526020016010601360158110610e6157610e6061216b565b5b01548152506025600160028110610e7b57610e7a61216b565b5b01548660006100b2565b5b8015610e8f5750815b8015610ec657506010600760158110610eab57610eaa61216b565b5b01546010600660158110610ec257610ec161216b565b5b0154145b8015610efd57506010600960158110610ee257610ee161216b565b5b01546010600860158110610ef957610ef861216b565b5b0154145b8015610f3457506010600b60158110610f1957610f1861216b565b5b01546010600a60158110610f3057610f2f61216b565b5b0154145b90507f9ebf19a79884326bf6ddfcf4bd501eb6a52b40414ecd5d8a70514f606810801e81604051610f659190611d7a565b60405180910390a18094505050505090565b60008060cc905060006040905060006025600060028110610f9b57610f9a61216b565b5b0154905060007f30644e72e131a029b85045b68181585d2833e84879b9709143e1f593f000000190506000806001905060005b85811015610ff8578384828409840892508381830991508080610ff09061225d565b915050610fce565b50600061100f611009868987611912565b85611a0a565b905083806110205761101f61213c565b5b83820992508297505050505050505090565b61103a611af6565b6040518060400160405280600181526020016002815250905090565b61105e611af6565b611066611b10565b83600001518160006003811061107f5761107e61216b565b5b6020020181815250508360200151816001600381106110a1576110a061216b565b5b60200201818152505082816002600381106110bf576110be61216b565b5b602002018181525050600060608360808460076107d05a03fa905080600081036110e557fe5b5080611126576040517f08c379a000000000000000000000000000000000000000000000000000000000815260040161111d906122f1565b60405180910390fd5b505092915050565b611136611af6565b6000826000015114801561114e575060008260200151145b1561117157604051806040016040528060008152602001600081525090506111e7565b6040518060400160405280836000015181526020017f30644e72e131a029b85045b68181585d97816a916871ca8d3c208c16d87cfd4784602001516111b69190612311565b7f30644e72e131a029b85045b68181585d97816a916871ca8d3c208c16d87cfd476111e191906121c9565b81525090505b919050565b6111f4611af6565b6111fc611b32565b8360000151816000600481106112155761121461216b565b5b6020020181815250508360200151816001600481106112375761123661216b565b5b6020020181815250508260000151816002600481106112595761125861216b565b5b60200201818152505082602001518160036004811061127b5761127a61216b565b5b602002018181525050600060608360c08460066107d05a03fa905080600081036112a157fe5b50806112e2576040517f08c379a00000000000000000000000000000000000000000000000000000000081526004016112d99061238e565b60405180910390fd5b505092915050565b6112f2611b54565b604051806040016040528060405180604001604052807f1800deef121f1e76426a00665e5c4479674322d4f75edadd46debd5cd992f6ed81526020017f198e9393920d483a7260bfb731fb5d25f1aa493335a9e71297e485b7aef312c2815250815260200160405180604001604052807f12c85ea5db8c6deb4aab71808dcb408fe3d1e7690c43d37b4ce6cc0166fa7daa81526020017f090689d0585ff075ec9e99ad690c3395bc4b313370b38ef355acdadcd122975b815250815250905090565b6113bc611b54565b60405180604001604052806040518060400160405280600060018760026113e391906123ae565b6113ed9190612408565b815481106113fe576113fd61216b565b5b9060005260206000200154815260200160018087600261141e91906123ae565b6114289190612408565b815481106114395761143861216b565b5b9060005260206000200154815250815260200160405180604001604052806002600187600261146891906123ae565b6114729190612408565b815481106114835761148261216b565b5b90600052602060002001548152602001600360018760026114a491906123ae565b6114ae9190612408565b815481106114bf576114be61216b565b5b90600052602060002001548152508152509050919050565b6000806040518060400160405280878152602001858152509050600060405180604001604052808781526020018581525090506000600c905060008167ffffffffffffffff81111561152c5761152b611be3565b5b60405190808252806020026020018201604052801561155a5781602001602082028036833780820191505090505b50905060005b600281101561179857600060068261157891906123ae565b905085826002811061158d5761158c61216b565b5b602002015160000151836000836115a49190612408565b815181106115b5576115b461216b565b5b6020026020010181815250508582600281106115d4576115d361216b565b5b602002015160200151836001836115eb9190612408565b815181106115fc576115fb61216b565b5b60200260200101818152505084826002811061161b5761161a61216b565b5b6020020151600001516000600281106116375761163661216b565b5b60200201518360028361164a9190612408565b8151811061165b5761165a61216b565b5b60200260200101818152505084826002811061167a5761167961216b565b5b6020020151600001516001600281106116965761169561216b565b5b6020020151836003836116a99190612408565b815181106116ba576116b961216b565b5b6020026020010181815250508482600281106116d9576116d861216b565b5b6020020151602001516000600281106116f5576116f461216b565b5b6020020151836004836117089190612408565b815181106117195761171861216b565b5b6020026020010181815250508482600281106117385761173761216b565b5b6020020151602001516001600281106117545761175361216b565b5b6020020151836005836117679190612408565b815181106117785761177761216b565b5b6020026020010181815250505080806117909061225d565b915050611560565b506117a1611b7a565b6000806020856117b191906123ae565b9050602083826020870160086107d05a03fa915081600081036117d057fe5b5081611811576040517f08c379a0000000000000000000000000000000000000000000000000000000008152600401611808906124aa565b60405180910390fd5b6000836000600181106118275761182661216b565b5b60200201511415975050505050505050949350505050565b600080600080604185511461185a576000935050505061190c565b6020850151925060408501519150606085015160001a9050601b8160ff16101561188e57601b8161188b91906124d7565b90505b601b8160ff16141580156118a65750601c8160ff1614155b156118b7576000935050505061190c565b600186828585604051600081526020016040526040516118da9493929190612536565b6020604051602081039080840390855afa1580156118fc573d6000803e3d6000fd5b5050506020604051035193505050505b92915050565b6000808203611956576040517f08c379a000000000000000000000000000000000000000000000000000000000815260040161194d906125c7565b60405180910390fd5b600084036119675760009050611a03565b600083036119785760019050611a03565b60006001905060007f800000000000000000000000000000000000000000000000000000000000000090505b60008111156119fd57838186161515870a85848509099150836002820486161515870a85848509099150836004820486161515870a85848509099150836008820486161515870a858485090991506010810490506119a4565b81925050505b9392505050565b6000808314158015611a1c5750818314155b8015611a29575060008214155b611a68576040517f08c379a0000000000000000000000000000000000000000000000000000000008152600401611a5f90612633565b60405180910390fd5b60008060019050600084905060005b60008714611ae9578682611a8b9190612653565b9050828680611a9d57611a9c61213c565b5b8780611aac57611aab61213c565b5b85840988611aba91906121c9565b86088094508195505050868782611ad191906123ae565b83611adc91906121c9565b8098508193505050611a77565b8394505050505092915050565b604051806040016040528060008152602001600081525090565b6040518060600160405280600390602082028036833780820191505090505090565b6040518060800160405280600490602082028036833780820191505090505090565b6040518060400160405280611b67611b9c565b8152602001611b74611b9c565b81525090565b6040518060200160405280600190602082028036833780820191505090505090565b6040518060400160405280600290602082028036833780820191505090505090565b6000604051905090565b600080fd5b600080fd5b6000601f19601f8301169050919050565b7f4e487b7100000000000000000000000000000000000000000000000000000000600052604160045260246000fd5b611c1b82611bd2565b810181811067ffffffffffffffff82111715611c3a57611c39611be3565b5b80604052505050565b6000611c4d611bbe565b9050611c598282611c12565b919050565b6000819050919050565b611c7181611c5e565b8114611c7c57600080fd5b50565b600081359050611c8e81611c68565b92915050565b600060408284031215611caa57611ca9611bcd565b5b611cb46040611c43565b90506000611cc484828501611c7f565b6000830152506020611cd884828501611c7f565b60208301525092915050565b600080600080600060e08688031215611d0057611cff611bc8565b5b6000611d0e88828901611c94565b9550506040611d1f88828901611c94565b9450506080611d3088828901611c7f565b93505060a0611d4188828901611c7f565b92505060c0611d5288828901611c7f565b9150509295509295909350565b60008115159050919050565b611d7481611d5f565b82525050565b6000602082019050611d8f6000830184611d6b565b92915050565b611d9e81611c5e565b82525050565b6000602082019050611db96000830184611d95565b92915050565b600082825260208201905092915050565b7f56657269666965722e7665726966794b5a473a205f636f6d6d69746d656e742e60008201527f58206973206f7574206f662072616e6765000000000000000000000000000000602082015250565b6000611e2c603183611dbf565b9150611e3782611dd0565b604082019050919050565b60006020820190508181036000830152611e5b81611e1f565b9050919050565b7f56657269666965722e7665726966794b5a473a205f636f6d6d69746d656e742e60008201527f59206973206f7574206f662072616e6765000000000000000000000000000000602082015250565b6000611ebe603183611dbf565b9150611ec982611e62565b604082019050919050565b60006020820190508181036000830152611eed81611eb1565b9050919050565b7f56657269666965722e7665726966794b5a473a205f70726f6f662e582069732060008201527f6f7574206f662072616e67650000000000000000000000000000000000000000602082015250565b6000611f50602c83611dbf565b9150611f5b82611ef4565b604082019050919050565b60006020820190508181036000830152611f7f81611f43565b9050919050565b7f56657269666965722e7665726966794b5a473a205f70726f6f662e592069732060008201527f6f7574206f662072616e67650000000000000000000000000000000000000000602082015250565b6000611fe2602c83611dbf565b9150611fed82611f86565b604082019050919050565b6000602082019050818103600083015261201181611fd5565b9050919050565b7f56657269666965722e7665726966794b5a473a205f696e646578206973206f7560008201527f74206f662072616e676500000000000000000000000000000000000000000000602082015250565b6000612074602a83611dbf565b915061207f82612018565b604082019050919050565b600060208201905081810360008301526120a381612067565b9050919050565b7f56657269666965722e7665726966794b5a473a205f76616c7565206973206f7560008201527f74206f662072616e676500000000000000000000000000000000000000000000602082015250565b6000612106602a83611dbf565b9150612111826120aa565b604082019050919050565b60006020820190508181036000830152612135816120f9565b9050919050565b7f4e487b7100000000000000000000000000000000000000000000000000000000600052601260045260246000fd5b7f4e487b7100000000000000000000000000000000000000000000000000000000600052603260045260246000fd5b7f4e487b7100000000000000000000000000000000000000000000000000000000600052601160045260246000fd5b60006121d482611c5e565b91506121df83611c5e565b9250828210156121f2576121f161219a565b5b828203905092915050565b7f4e487b7100000000000000000000000000000000000000000000000000000000600052602260045260246000fd5b6000600282049050600182168061224457607f821691505b602082108103612257576122566121fd565b5b50919050565b600061226882611c5e565b91507fffffffffffffffffffffffffffffffffffffffffffffffffffffffffffffffff820361229a5761229961219a565b5b600182019050919050565b7f70616972696e672d6d756c2d6661696c65640000000000000000000000000000600082015250565b60006122db601283611dbf565b91506122e6826122a5565b602082019050919050565b6000602082019050818103600083015261230a816122ce565b9050919050565b600061231c82611c5e565b915061232783611c5e565b9250826123375761233661213c565b5b828206905092915050565b7f70616972696e672d6164642d6661696c65640000000000000000000000000000600082015250565b6000612378601283611dbf565b915061238382612342565b602082019050919050565b600060208201905081810360008301526123a78161236b565b9050919050565b60006123b982611c5e565b91506123c483611c5e565b9250817fffffffffffffffffffffffffffffffffffffffffffffffffffffffffffffffff04831182151516156123fd576123fc61219a565b5b828202905092915050565b600061241382611c5e565b915061241e83611c5e565b9250827fffffffffffffffffffffffffffffffffffffffffffffffffffffffffffffffff038211156124535761245261219a565b5b828201905092915050565b7f70616972696e672d6f70636f64652d6661696c65640000000000000000000000600082015250565b6000612494601583611dbf565b915061249f8261245e565b602082019050919050565b600060208201905081810360008301526124c381612487565b9050919050565b600060ff82169050919050565b60006124e2826124ca565b91506124ed836124ca565b92508260ff038211156125035761250261219a565b5b828201905092915050565b6000819050919050565b6125218161250e565b82525050565b612530816124ca565b82525050565b600060808201905061254b6000830187612518565b6125586020830186612527565b6125656040830185612518565b6125726060830184612518565b95945050505050565b7f4d6f64756c7573206973207a65726f0000000000000000000000000000000000600082015250565b60006125b1600f83611dbf565b91506125bc8261257b565b602082019050919050565b600060208201905081810360008301526125e0816125a4565b9050919050565b7f496e76616c6964206e756d626572000000000000000000000000000000000000600082015250565b600061261d600e83611dbf565b9150612628826125e7565b602082019050919050565b6000602082019050818103600083015261264c81612610565b9050919050565b600061265e82611c5e565b915061266983611c5e565b9250826126795761267861213c565b5b82820490509291505056fea2646970667358221220ccaa35dec55b86cdc0648f75dc505ec0aee83bf1ceb7a3bacdf9f25dc6ace38f64736f6c634300080d003332303930303432393839393239313030393037333239393238393436393636303134393731363738353539363235313439313330303639323033353638313439323031363933393137393235372c2034333336393130323335363836393631353338323835393936353237323731373734393336373139303538383334353439353338363836303430373438373135323833383132323030393719ec5dc5aa05a220cd210a113352596ebf80d06a6f776b8e0c656e50a5c5567f1e8a7f23fb27f77ea5b5d42f0e2384facdebebd85f026e2a73e94d4690a40a6801",
  "immutableReferences": {},
  "source": "// Modified from https://github.com/appliedzkp/semaphore/blob/master/contracts/sol/verifier.sol\r\n// SPDX-License-Identifier: MIT\r\npragma solidity >=0.4.22 <0.9.0;\r\npragma experimental ABIEncoderV2;\r\nimport \"./Pairing.sol\";\r\n// import \"./PolyCoeff.sol\";\r\nimport { Constants } from \"./Constants.sol\";\r\n// import \"@openzeppelin/contracts/utils/Strings.sol\";\r\n\r\ncontract Verifier is Constants {\r\n\r\n    using Pairing for *;\r\n\r\n    // PolyCoeff polyCoeff;\r\n\r\n    event verifyResult(bool result);\r\n\r\n    uint256[21] Proof = [\r\n        uint256(20435686948508171234472206488737953800505595616105823290561271581793730135986),\r\n        uint256(7613038940582986439878577004424311309737615170791456916446723479068371769225),\r\n        uint256(20900429899291009073299289469660149716785596251491300692035681492016939179257),\r\n        uint256(17015433841169487450406840425175642150965883946544965612916879717959251917877),\r\n        uint256(433691023568696153828599652727177493671905883454953868604074871528381220097),\r\n        uint256(10320531664273889342578906132837836076031009559738199149165995480549188738219),\r\n        uint256(5841514956038981489672186264970094693930045609713312309929445225955171101947),\r\n        uint256(5021024840007099401420413415719005463562614305701472747429400657816854795888),\r\n        uint256(20774065911754029615648528083815650325450840922528127398846513310899898519818),\r\n        uint256(15033194806153309440324576121312701377491848712637707126378339071163915088607),\r\n        uint256(13797601081368067296147105517336555699959400728196376360418452678919689273357),\r\n        uint256(347536244405038501480645670232637364896709701574004323632284243300674648233),\r\n        uint256(14150985670258525975582637074878024272235049272474457475329855381177734047698),\r\n        uint256(2655786006985334435742353147654701867454007390061009682990360208958229883457),\r\n        uint256(19749978915220999581635876327451130211831443864540429941950424972239040718725),\r\n        uint256(18652734379260577017619098828238354228621932558467343220803598526754221068969),\r\n        uint256(19231643171984527412379363884712632725022106910875011856721870145973184299950),\r\n        uint256(11890584382703984881384687349129438589403848436060509080598302278432395889958),\r\n        uint256(19848703903105846067635106277601755727734486581037082434405934553883502968806),\r\n        uint256(7073067203970200196273245091229017314841577127190841947842173598530677375580),\r\n        uint256(11142795172845103846997117758219330284910812886430955732663385421662518242916)\r\n    ];\r\n\r\n    uint256[2] Randoms = [\r\n        uint256(21356640755055926883299664242251323519715676831624930462071588778907420237277),\r\n        uint256(21284924740537517593391635090683107806948436131904811688892120057033464016678)\r\n    ];\r\n    // length of longest u,v,w, i.e. longest length of a,b,c, linear\r\n    uint256 N = 2994;\r\n\r\n    uint256 evalK = uint256(11598511819595573397693757683043215863237090817957830497519701049476846220233);\r\n    uint256 evalS = Proof[20];\r\n\r\n    // SOCC_hscS = [G1Point S_j, uint256 s_j, G1Point W_j]\r\n    uint256[5] SOCC_hscS = [\r\n        uint256(4856595452220518861283513887787149560249872199754148373623768058895650888886),\r\n        uint256(18903793806709064235976701805982270837399009185115750427816521247566249210556),\r\n        uint256(11142795172845103846997117758219330284910812886430955732663385421662518242916),\r\n        uint256(21371202341828297453905088304285070177929072675831707150146249345026206448204),\r\n        uint256(2804295765584777874267821186909392907007222244895837511075392229436674961086)\r\n    ];\r\n    // SOCC_hscW = [uint256 s'_j,G1Point W'_j, G1Point Q_j]\r\n    uint256[5] SOCC_hscW = [\r\n        uint256(10516069979663785554384039720791935537971662430097624533692998141893610132813),\r\n        uint256(4047408704098476939730481302397316844045052246660100325786631118072453155095),\r\n        uint256(3536770324764440576997419732517461268782698510962602892817204324264966117745),\r\n        uint256(14245367996788138561788347307320292816184394224142842975302936827932398609764),\r\n        uint256(4809015920432886449944012129537258787815219963382067822305826740230093200527)\r\n    ];\r\n\r\n    Pairing.G1Point hscQv = Pairing.G1Point(\r\n        uint256(2990558601454446836641627272921201963123578559834602407524792456795005493261),\r\n        uint256(13202662347545347168000079135411531495309137838398006144762638337293564502641)\r\n    );\r\n    Pairing.G1Point hscC = Pairing.G1Point(\r\n        uint256(20354021681082976488982424663336191185782081465046767166624106617637273115698),\r\n        uint256(7434894914590215425794637416957100516507193983165584369402225555559623348194)\r\n    );\r\n\r\n    uint256 u = uint256(8197071660809916300712359474937866146139983659726903111927633346212682272753);\r\n    uint256 v = uint256(18304223670379022123371455395869338667757056554451611927086438308637909615067);\r\n\r\n    // from terminal\r\n    uint256 s_uv = uint256(7791702837224372263152657165191932519240106980588006270334507770946892728366);\r\n\r\n    // from Go\r\n    bytes32 message = ethMessageHash(\"20900429899291009073299289469660149716785596251491300692035681492016939179257, 433691023568696153828599652727177493671905883454953868604074871528381220097\");\r\n    bytes sig = hex\"19ec5dc5aa05a220cd210a113352596ebf80d06a6f776b8e0c656e50a5c5567f1e8a7f23fb27f77ea5b5d42f0e2384facdebebd85f026e2a73e94d4690a40a6801\";\r\n    address addr = 0xE448992FdEaF94784bBD8f432d781C061D907985;\r\n\r\n\r\n    // Sonic version - Verify a single-point evaluation of a polynominal\r\n    // function verify(\r\n    //     Pairing.G1Point memory _commitment, // F\r\n    //     Pairing.G1Point memory _proof, // W\r\n    //     uint256 _index,  // z\r\n    //     uint256 _value,  // F(z) or v\r\n    //     uint proofIndex,\r\n    //     bool isT\r\n    // ) public view returns (bool) {\r\n    //     // Make sure each parameter is less than the prime q\r\n    //     require(_commitment.X < BABYJUB_P, \"Verifier.verifyKZG: _commitment.X is out of range\");\r\n    //     require(_commitment.Y < BABYJUB_P, \"Verifier.verifyKZG: _commitment.Y is out of range\");\r\n    //     require(_proof.X < BABYJUB_P, \"Verifier.verifyKZG: _proof.X is out of range\");\r\n    //     require(_proof.Y < BABYJUB_P, \"Verifier.verifyKZG: _proof.Y is out of range\");\r\n    //     require(_index < BABYJUB_P, \"Verifier.verifyKZG: _index is out of range\");\r\n    //     require(_value < BABYJUB_P, \"Verifier.verifyKZG: _value is out of range\");\r\n       \r\n    //     Pairing.G1Point memory negProof = Pairing.negate(Pairing.mulScalar(_proof, _index));\r\n    //     Pairing.G1Point memory mulProof = Pairing.plus(Pairing.mulScalar(Constants.G1Gen(), _value), negProof);\r\n    //     Pairing.G1Point memory negCm = Pairing.negate(_commitment);\r\n\r\n    //     return Pairing.pairing(_proof, Constants.SRS_G2_hAlphaX1(proofIndex),\r\n    //                             mulProof, Constants.SRS_G2_hAlphaX0(proofIndex),\r\n    //                             negCm, Constants.SRS_G2_hAlphaXdMax(proofIndex, isT));\r\n    // }\r\n\r\n    // KZG version - Verify a single-point evaluation of a polynominal\r\n    /*\r\n     * Verifies a single-point evaluation of a polynominal using the KZG\r\n     * commitment scheme.\r\n     *    - p(X) is a polynominal\r\n     *    - _value = p(_index) \r\n     *    - commitment = commit(p)\r\n     *    - proof = genProof(p, _index, _value)\r\n     * Returns true if and only if the following holds, and returns false\r\n     * otherwise:\r\n     *     e(commitment - commit([_value]), G2.g) == e(proof, commit([0, 1]) - zCommit)\r\n     * @param _commitment The KZG polynominal commitment.\r\n     * @param _proof The proof.\r\n     * @param _index The x-value at which to evaluate the polynominal.\r\n     * @param _value The result of the polynominal evaluation.\r\n     */\r\n    function verify(\r\n        Pairing.G1Point memory _commitment, // F\r\n        Pairing.G1Point memory _proof, // \r\n        uint256 _index,  // z\r\n        uint256 _value,  // F(z) or v\r\n        uint proofIndex\r\n    ) public view returns (bool) {\r\n        // Make sure each parameter is less than the prime q\r\n        require(_commitment.X < BABYJUB_P, \"Verifier.verifyKZG: _commitment.X is out of range\");\r\n        require(_commitment.Y < BABYJUB_P, \"Verifier.verifyKZG: _commitment.Y is out of range\");\r\n        require(_proof.X < BABYJUB_P, \"Verifier.verifyKZG: _proof.X is out of range\");\r\n        require(_proof.Y < BABYJUB_P, \"Verifier.verifyKZG: _proof.Y is out of range\");\r\n        require(_index < BABYJUB_P, \"Verifier.verifyKZG: _index is out of range\");\r\n        require(_value < BABYJUB_P, \"Verifier.verifyKZG: _value is out of range\");\r\n\r\n        // Compute commitment - aCommitment\r\n        Pairing.G1Point memory commitmentMinusA = Pairing.plus(\r\n            _commitment,\r\n            Pairing.negate(\r\n                Pairing.mulScalar(Constants.G1Gen(), _value)\r\n            )\r\n        );\r\n\r\n        // Negate the proof\r\n        Pairing.G1Point memory negProof = Pairing.negate(_proof);\r\n\r\n        // Compute index * proof\r\n        Pairing.G1Point memory indexMulProof = Pairing.mulScalar(_proof, _index);\r\n\r\n        // Return true if and only if\r\n        // e((index * proof) + (commitment - aCommitment), G2.g) * e(-proof, xCommit) == 1\r\n        return Pairing.pairing(\r\n            Pairing.plus(indexMulProof, commitmentMinusA),\r\n            Constants.G2Gen(),\r\n            negProof,\r\n            Constants.SRS_G2_hAlphaX0(proofIndex)\r\n        );\r\n    }\r\n\r\n\r\n    function verifySonic(\r\n        // uint256[21] memory Proof,\r\n        // uint256[2] memory Randoms\r\n    ) public returns (bool) {\r\n\r\n        // simulate calculating kY\r\n        // uint256 ky = evalKPoly();\r\n        // // // simulate calculating sXY\r\n        // uint256 sx = evalXPoly();\r\n        // uint256 sy = evalXPoly();\r\n\r\n        uint256 yz = mulmod(Randoms[0], Randoms[1], Pairing.BABYJUB_P);\r\n        // y^N for halo implementation style\r\n        // uint256 y_n = expMod(Randoms[1], N, BABYJUB_P);\r\n        // t for halo implementation style\r\n        // uint256 t = addmod(mulmod(addmod(Proof[6], Proof[9], Pairing.BABYJUB_P), \r\n        //                           addmod(addmod(Proof[12], \r\n        //                                         Proof[15], Pairing.BABYJUB_P), \r\n        //                                  evalS, Pairing.BABYJUB_P), Pairing.BABYJUB_P),\r\n        //                     mulmod((BABYJUB_P - evalK), y_n, BABYJUB_P),\r\n        //                     BABYJUB_P);\r\n\r\n        uint256 t = addmod(mulmod(addmod(Proof[6], Proof[9], Pairing.BABYJUB_P), \r\n                                  addmod(addmod(Proof[12], \r\n                                                Proof[15], Pairing.BABYJUB_P), \r\n                                         evalS, Pairing.BABYJUB_P), Pairing.BABYJUB_P),\r\n                            (BABYJUB_P - evalK), BABYJUB_P);\r\n\r\n\r\n        bool verifySignature = recover(message, sig) == addr;\r\n        bool result = verify(Pairing.G1Point(Proof[0], Proof[1]), // aLocal\r\n                      Pairing.G1Point(Proof[7], Proof[8]),\r\n                      Randoms[1], \r\n                      Proof[6],\r\n                      0) &&\r\n                verify(Pairing.G1Point(Proof[0], Proof[1]), // bLocal\r\n                      Pairing.G1Point(Proof[13], Proof[14]),\r\n                      yz,\r\n                      Proof[12],\r\n                      0) &&\r\n                verify(Pairing.G1Point(Proof[2], Proof[3]), // aRaw\r\n                      Pairing.G1Point(Proof[10], Proof[11]),\r\n                      Randoms[1],\r\n                      Proof[9],\r\n                      1) &&\r\n                verify(Pairing.G1Point(Proof[2], Proof[3]), // bRaw\r\n                      Pairing.G1Point(Proof[16], Proof[17]),\r\n                      yz,\r\n                      Proof[15],\r\n                      1) &&\r\n                verify(Pairing.G1Point(Proof[4], Proof[5]), // t\r\n                      Pairing.G1Point(Proof[18], Proof[19]),\r\n                      Randoms[1],\r\n                      t,\r\n                      0) &&                               \r\n                verify(Pairing.G1Point(Proof[4], Proof[5]), // t\r\n                      Pairing.G1Point(Proof[18], Proof[19]),\r\n                      Randoms[1],\r\n                      t,\r\n                      0) &&                                            // pcV srsLocal (srsD srsLocal) commitK y (k, wk)\r\n                verify(Pairing.G1Point(Proof[4], Proof[5]), // t\r\n                      Pairing.G1Point(Proof[18], Proof[19]),\r\n                      Randoms[1],\r\n                      t,\r\n                      0) &&                                            // pcV srsLocal (srsD srsLocal) commitC y (c, wc)\r\n                verify(Pairing.G1Point(Proof[4], Proof[5]), // t\r\n                      Pairing.G1Point(Proof[18], Proof[19]),\r\n                      Randoms[1],\r\n                      t,\r\n                      0) &&                                            // pcV srsLocal (srsD srsLocal) commitC yOld (cOld, wcOld)\r\n                verify(Pairing.G1Point(Proof[4], Proof[5]), // t\r\n                      Pairing.G1Point(Proof[18], Proof[19]),\r\n                      Randoms[1],\r\n                      t,\r\n                      0) &&                                            //, pcV srsLocal (srsD srsLocal) commitC yNew (cNew, wcNew)\r\n                verify(Pairing.G1Point(Proof[4], Proof[5]), // t\r\n                      Pairing.G1Point(Proof[18], Proof[19]),\r\n                      Randoms[1],\r\n                      t,\r\n                      0) &&                                            //, pcV srsLocal (srsD srsLocal) commitS z (s, ws)\r\n                verify(Pairing.G1Point(Proof[4], Proof[5]), // t\r\n                      Pairing.G1Point(Proof[18], Proof[19]),\r\n                      Randoms[1],\r\n                      t,\r\n                      0) &&                                            //, pcV srsLocal (srsD srsLocal) commitSOld z (sOld, wsOld)\r\n                 verify(Pairing.G1Point(Proof[4], Proof[5]), // t\r\n                      Pairing.G1Point(Proof[18], Proof[19]),\r\n                      Randoms[1],\r\n                      t,\r\n                      0) &&                                           //, pcV srsLocal (srsD srsLocal) commitSNew z (sNew, wsNew)\r\n                verifySignature &&\r\n                Proof[6] == Proof[7] && // c_old == s_old\r\n                Proof[8] == Proof[9] && // c_new == s_new\r\n                Proof[10] == Proof[11]; // c == s\r\n        emit verifyResult(result);\r\n        return result;\r\n    }\r\n    // SCC\r\n    // function verifySOCC() public returns (bool) {\r\n\r\n    //     bool verified = verify(Pairing.G1Point(SOCC_hscS[0], SOCC_hscS[1]), // pcV(bp,srs,S_j,d,z_j,(s_j,W_j)\r\n    //                   Pairing.G1Point(SOCC_hscS[3], SOCC_hscS[4]),\r\n    //                   Randoms[1], \r\n    //                   SOCC_hscS[2],\r\n    //                   0, true) &&\r\n    //                   verify(Pairing.G1Point(SOCC_hscS[0], SOCC_hscS[1]), // pcV(bp,srs,S_j,d,u,(s'_j,W'_j))\r\n    //                   Pairing.G1Point(SOCC_hscW[1], SOCC_hscW[2]),\r\n    //                   u, \r\n    //                   SOCC_hscW[0],\r\n    //                   0, true) &&\r\n    //                   verify(hscC,                                      // pcV(bp,srs,C,d,y_j,(s'_j,Q_j)\r\n    //                   Pairing.G1Point(SOCC_hscW[3], SOCC_hscW[4]),\r\n    //                   Randoms[0], \r\n    //                   SOCC_hscW[0],\r\n    //                   0, true) &&\r\n    //                   verify(hscC,                                      // pcV(bp,srs,C,d,v,(s_uv,Q_v))\r\n    //                   hscQv,\r\n    //                   v, \r\n    //                   s_uv,\r\n    //                   0, true);\r\n    //     emit verifyResult(verified);\r\n    //     return verified;\r\n    // }\r\n\r\n    /**\r\n     * @dev Recover signer address from a message by using their signature\r\n     * @param hash bytes32 message, the hash is the signed message. What is recovered is the signer address.\r\n     * @param signature bytes signature, the signature is generated using web3.eth.sign()\r\n     */\r\n    function recover(bytes32 hash, bytes memory signature) internal pure returns (address) {\r\n        bytes32 r;\r\n        bytes32 s;\r\n        uint8 _v;\r\n\r\n        // Check the signature length\r\n        if (signature.length != 65) {\r\n            return (address(0));\r\n        }\r\n\r\n        // Divide the signature in r, s and v variables\r\n        // ecrecover takes the signature parameters, and the only way to get them\r\n        // currently is to use assembly.\r\n        // solium-disable-next-line security/no-inline-assembly\r\n        assembly {\r\n            r := mload(add(signature, 32))\r\n            s := mload(add(signature, 64))\r\n            _v := byte(0, mload(add(signature, 96)))\r\n        }\r\n\r\n        // Version of signature should be 27 or 28, but 0 and 1 are also possible versions\r\n        if (_v < 27) {\r\n            _v += 27;\r\n        }\r\n\r\n        // If the version is correct return the signer address\r\n        if (_v != 27 && _v != 28) {\r\n            return (address(0));\r\n        } else {\r\n            // solium-disable-next-line arg-overflow\r\n            return ecrecover(hash, _v, r, s);\r\n        }\r\n    }\r\n\r\n    /**\r\n    * @dev prefix a bytes32 value with \"\\x19Ethereum Signed Message:\" and hash the result\r\n    */\r\n    function ethMessageHash(string memory rawCommitment) internal pure returns (bytes32) {\r\n        return keccak256(\r\n            abi.encodePacked(\"\\x19Ethereum Signed Message:\\n32\", keccak256(abi.encodePacked(rawCommitment)))\r\n        );\r\n    }\r\n\r\n\r\n    //     /*\r\n    //  * @return The polynominal evaluation of a polynominal with the specified\r\n    //  *         coefficients at the given index.\r\n    //  */\r\n     function evalPoly() public view returns (uint256) {\r\n\r\n        uint baseOrder = 204;\r\n        uint length = 64;\r\n        uint256 _index = Randoms[0];\r\n        uint256 m = Constants.BABYJUB_P;\r\n        uint256 result = 0;\r\n        uint256 powerOfX = 1;\r\n\r\n        for (uint256 i = 0; i < length; i ++) {\r\n            assembly {\r\n                result:= addmod(result, mulmod(powerOfX, i, m), m)\r\n                powerOfX := mulmod(powerOfX, i, m)\r\n            }\r\n        }\r\n        uint256 basePower = invMod(expMod(_index, baseOrder, m), m);\r\n        result = mulmod(basePower, result, m);\r\n\r\n        return result;\r\n    }\r\n\r\n    /// @dev Modular euclidean inverse of a number (mod p).\r\n    /// @param _x The number\r\n    /// @param _pp The modulus\r\n    /// @return q such that x*q = 1 (mod _pp)\r\n    function invMod(uint256 _x, uint256 _pp) internal pure returns (uint256) {\r\n        require(_x != 0 && _x != _pp && _pp != 0, \"Invalid number\");\r\n        uint256 q = 0;\r\n        uint256 newT = 1;\r\n        uint256 r = _pp;\r\n        uint256 t;\r\n        while (_x != 0) {\r\n        t = r / _x;\r\n        (q, newT) = (newT, addmod(q, (_pp - mulmod(t, newT, _pp)), _pp));\r\n        (r, _x) = (_x, r - t * _x);\r\n        }\r\n\r\n        return q;\r\n    }\r\n\r\n    /// @dev Modular exponentiation, b^e % _pp.\r\n    /// Source: https://github.com/androlo/standard-contracts/blob/master/contracts/src/crypto/ECCMath.sol\r\n    /// @param _base base\r\n    /// @param _exp exponent\r\n    /// @param _pp modulus\r\n    /// @return r such that r = b**e (mod _pp)\r\n    function expMod(uint256 _base, uint256 _exp, uint256 _pp) internal pure returns (uint256) {\r\n        require(_pp!=0, \"Modulus is zero\");\r\n\r\n        if (_base == 0)\r\n        return 0;\r\n        if (_exp == 0)\r\n        return 1;\r\n\r\n        uint256 r = 1;\r\n        uint256 bit = 57896044618658097711785492504343953926634992332820282019728792003956564819968; // 2 ^ 255\r\n        assembly {\r\n        for { } gt(bit, 0) { }{\r\n            // a touch of loop unrolling for 20% efficiency gain\r\n            r := mulmod(mulmod(r, r, _pp), exp(_base, iszero(iszero(and(_exp, bit)))), _pp)\r\n            r := mulmod(mulmod(r, r, _pp), exp(_base, iszero(iszero(and(_exp, div(bit, 2))))), _pp)\r\n            r := mulmod(mulmod(r, r, _pp), exp(_base, iszero(iszero(and(_exp, div(bit, 4))))), _pp)\r\n            r := mulmod(mulmod(r, r, _pp), exp(_base, iszero(iszero(and(_exp, div(bit, 8))))), _pp)\r\n            bit := div(bit, 16)\r\n        }\r\n        }\r\n\r\n        return r;\r\n    }\r\n    \r\n\r\n}",
  "sourcePath": "D:\\homework\\sonic\\src\\verifier\\contracts\\Verifier.sol",
  "compiler": {
    "name": "solc",
    "version": "0.8.13+commit.abaa5c0e.Emscripten.clang"
  },
  "schemaVersion": "3.4.8",
  "updatedAt": "2022-12-22T11:13:34.827Z",
  "networkType": "ethereum",
  "devdoc": {
    "kind": "dev",
    "methods": {},
    "version": 1
  },
  "userdoc": {
    "kind": "user",
    "methods": {},
    "version": 1
  }
}