{
  "contractName": "Verifier",
  "abi": [
    {
      "anonymous": false,
      "inputs": [
        {
          "indexed": false,
          "internalType": "bool",
          "name": "result",
          "type": "bool"
        }
      ],
      "name": "verifyResult",
      "type": "event"
    },
    {
      "inputs": [
        {
          "components": [
            {
              "internalType": "uint256",
              "name": "X",
              "type": "uint256"
            },
            {
              "internalType": "uint256",
              "name": "Y",
              "type": "uint256"
            }
          ],
          "internalType": "struct Pairing.G1Point",
          "name": "_commitment",
          "type": "tuple"
        },
        {
          "components": [
            {
              "internalType": "uint256",
              "name": "X",
              "type": "uint256"
            },
            {
              "internalType": "uint256",
              "name": "Y",
              "type": "uint256"
            }
          ],
          "internalType": "struct Pairing.G1Point",
          "name": "_proof",
          "type": "tuple"
        },
        {
          "internalType": "uint256",
          "name": "_index",
          "type": "uint256"
        },
        {
          "internalType": "uint256",
          "name": "_value",
          "type": "uint256"
        },
        {
          "internalType": "uint256",
          "name": "proofIndex",
          "type": "uint256"
        },
        {
          "internalType": "bool",
          "name": "isT",
          "type": "bool"
        }
      ],
      "name": "verify",
      "outputs": [
        {
          "internalType": "bool",
          "name": "",
          "type": "bool"
        }
      ],
      "stateMutability": "view",
      "type": "function",
      "constant": true
    },
    {
      "inputs": [],
      "name": "verifySonic",
      "outputs": [
        {
          "internalType": "bool",
          "name": "",
          "type": "bool"
        }
      ],
      "stateMutability": "nonpayable",
      "type": "function"
    },
    {
      "inputs": [],
      "name": "verifySOCC",
      "outputs": [
        {
          "internalType": "bool",
          "name": "",
          "type": "bool"
        }
      ],
      "stateMutability": "nonpayable",
      "type": "function"
    },
    {
      "inputs": [],
      "name": "evalPoly",
      "outputs": [
        {
          "internalType": "uint256",
          "name": "",
          "type": "uint256"
        }
      ],
      "stateMutability": "view",
      "type": "function",
      "constant": true
    }
  ],
  "bytecode": "0x608060405260405180608001604052807f1a597e49c263d6a226f25fe1e806caac7f15f85b763044e7d3043ba5992dd8d581526020017f228b515a17f28b89920873207477f8c7fc05582debaf3184febf1cfdedc5ce8881526020017f18e9db03472e0863ddf2838cf8880b11083593229561aaf9a11c760bb97a64fa81526020017f0566eed2b6bb584ca75fbe0ca9ffc98eb586c25812617df7e01a2b6d8270f0bf8152506000906004620000b792919062000db1565b5060405180608001604052807f208f992ecbeeef3fa5b1c3505c588c7a872e3987797a14052b6f34411c9ea0ae81526020017f12bb1156a9f6b360fcb2614e15d8a3ff07f2c699dc69ca830b20d2df91fe9cd381526020017f15904dc85f8ddf338fe3151d3c146b4083e99dd3f26d87d33dd5d20eb64284a381526020017f20101834550a7d15aa7a685d3f0095b689822cb568dfc9690e0cc58e9826d8fb81525060019060046200016b92919062000db1565b5060405180608001604052807f024248dcf25ea502fb805bcab808906eb944154792151d643ad7b4b0eca6d91381526020017f2b15dc62a5c9e36597914ddbbfde48806a8eabe45c8d3cccf9578ad08e058f9281526020017f20ab132d3e7dd0600d89b397a3bf88e3900434c826b458028981278a619d809481526020017f0a66c012d8ebf11c9a9fc4ccfeeab0ace62b1c1fa744f6c6173f1994e9241db781525060029060046200021f92919062000db1565b5060405180608001604052807f14c35af32416c899af0b827ef0f1a686393d629317706d8c143cdfd5717c4c5e81526020017f02a4fd764f52470e2fcfff325fb9692f55d6b8b077eefeaa04e07152b4d1fa9481526020017f28505103380e230ea76fa52dc17b1269cfa9076761a1bb971c5b90767de58db081526020017f19ea09d089c848b2dee00082395883e0b405de1da65d4b4aeebd50c84e47349d8152506003906004620002d392919062000db1565b50604051806040016040528060405180604001604052807f185c3f6fe300ae4825fbc17232a7ef067d895c6838b58df5d3821b3c5f47a38081526020017f0ec8eed74d6dfed1e4bbac422898cbf6334bb2ea304a443a0b388c8a513b98ea815250815260200160405180604001604052807f2ce0b9172a655debea69f18829f2b0a98ec43a6ce296f603371237011936328181526020017f113e4f1953b68002611afddebc49dc2876e7a4e246061eec0f05ebc6595ff1378152508152506004600082015181600001906002620003ac92919062000e03565b50602082015181600201906002620003c692919062000e03565b505050604051806040016040528060405180604001604052807f11a27fdb89b46af22a89049c391fada5cb5ce6f4c9df8fe5ebae5d422b0bcddf81526020017f1ebadb21506ba2b40566be5bdbfe1ead7400477fc516e1ded4461c6759c221f5815250815260200160405180604001604052807f2d204255b7a4116982ce5bcd3bcc3639e3cc82b273a8ffbf404370c38ce5db3f81526020017f18b0e4266a167129aaee0af3b9ab5a3b4d2bcd690de7d94312c23b494f9fd3bb8152508152506008600082015181600001906002620004a192919062000e03565b50602082015181600201906002620004bb92919062000e03565b505050604051806040016040528060405180604001604052807f198e9393920d483a7260bfb731fb5d25f1aa493335a9e71297e485b7aef312c281526020017f1800deef121f1e76426a00665e5c4479674322d4f75edadd46debd5cd992f6ed815250815260200160405180604001604052807f090689d0585ff075ec9e99ad690c3395bc4b313370b38ef355acdadcd122975b81526020017f12c85ea5db8c6deb4aab71808dcb408fe3d1e7690c43d37b4ce6cc0166fa7daa815250815250600c6000820151816000019060026200059692919062000e03565b50602082015181600201906002620005b092919062000e03565b505050604051806102a001604052807f2d2e305d3ab2dc6e0081ffcf4a701f924a1a7296cdc32046c10c0b6f992387b281526020017f10d4d3cca369c48670346ef36c6739e885bb11b52038a89c706aacfb7d72d78981526020017f2e35395f5838af48130dca441dda40ea378236a7259002822b87101d02189cf981526020017f259e64ee9a51992b6a66d97b27e9071b120bd0677b1e58f9373725493d0dfc3581526020017ef575de1f064343e871771cb242eaaf6812e4568c2bb7e6673e876c7464050181526020017f16d136c3465f30dfece26e1c3f94d1b9f6b90caa57245be3440ee15730c89cab81526020017f0cea2e280aefedbce8fd0e4abaf7e4575dc8fe4a4268a61d8dd063507fc5ecfb81526020017f0b19cca2316e1f6d3490971e1707cf7f8a8542f1ebb784b0f95ae933e191167081526020017f2dedb4628bf08f798ce6d93603b6ed8cac8942ae15ac5468e21b057a6001910a81526020017f213c7c9a650878edd5e1c73acd8868f2b83acff59c7fe0708c4006b8fe24b2df81526020017f1e812a5bf519614265594c3c12f2c881d46929dbaeabe2353ecd4288b7ab000d81526020017ec4b2d3c0dadfd5209c926bf4f936931a6d2c04fa9608cb278d855dbd3f38a981526020017f1f492c8edd37499078a6576275a4f46fe77a79ae3034b524e22eae2459c8a7d281526020017f05df1f21eb91f54ce9ebc45963392c05646ab94d5285f23f62d004e9742caa4181526020017f2baa1788aecf01e0f174e1dec4e4a1a6bb12e04f5a664c73110341089fa4a78581526020017f293d12d2ddee8106ee524edceb5b09802836c0009574f2a42db542c83d1612a981526020017f2a84b96b69dba240b21032b810c85532ac40b61d6b890cc3757309d83d0703ae81526020017f1a49d50f46a39f0fde8d3e1d95771d29bbb9eb7c9baab30cfb7867a50cd00d2681526020017f2be1f7e20177ef75851870d314a7fff4c31f0a9590dcadfa7ad98f63d01bffe681526020017f0fa336d3c59c626772a0d93ee1d4144b21e0fea2b000cd4fa60c03f69456025c81526020017f18a2993be8e03e3ec58688e40a0997a30ae6b413ab6156da93218e1ba39fee648152506010906015620008eb92919062000e48565b5060405180604001604052807f2f376e28777cfe34cf077eba864c462fd6efbfe4d3f6af17768ef2ed4f829ddd81526020017f2f0ed729a52c3cf5d51e5e6d8e737f79e5d99150f7b9b63f3dd38704f9d8ef2681525060259060026200095392919062000e03565b507f19a48669ccf72c593144962560f593b667daa2052d1cdcc2500bb3b003c073c9602755601060146015811062000990576200098f62000f82565b5b01546028556040518060a001604052807f0abcbc513a4f12ef3d24aedcb8005305a64e9914941d63de78e83c7ce9559cb681526020017f29cb2b0a977afdb5e3c2fead88d2b26d1b699c1b7a6693262c371d3263f232bc81526020017f18a2993be8e03e3ec58688e40a0997a30ae6b413ab6156da93218e1ba39fee6481526020017f2f3fabffbd2bca7bc61901b09b4f45c78a3748a2e40ced61b93883605553ba4c81526020017f06332cd70541f1f5958e148a641305cb34193b8a595c46613dc0fff11c226ebe815250602990600562000a6e92919062000e8d565b506040518060a001604052807f173fe27a7f0c60540d8d600c5850189dd4bb8d7f3c007a385606cd2c6181554d81526020017f08f2c08c988b82b1e72491c92c1888d988b28dbdf5969bca17d439211e0e491781526020017f07d1bdb66bfe5e8ea65931d35586ff1c40ce91a19e82bf032ce19b1ef5f0597181526020017f1f7e97b1ecc7c35f2e9ee3393ea5d101018c8ab489dc82d6678931cd13a0656481526020017f0aa1ce7a4ee86b4d125985c4fbef9eb81ff6397e9ee5b638cd6c5f7f3f1edc8f815250602e90600562000b4892919062000e8d565b5060405180604001604052807f069c989f95c67f2eadad54192ee90365dfd843dd18cd104449c2cd0f6135a00d81526020017f1d30712bd9824a34faf8681c2f97adc1305a2faf1b39d4edf30d23aa5d73e27181525060336000820151816000015560208201518160010155505060405180604001604052807f2cfff7d01b631c28468be5bf2d727199af5fad36b826df7816f54952caf49c3281526020017f1070005b7818ade38c833c325a22173c6abf1df16c09a6634c989af7701ecfe28152506035600082015181600001556020820151816001015550507f121f60ce38117f295e9818dfcb4dc742f01502a468e608ef94852d629c400ff16037557f2877d2ce379fc3bf527374243a7169b5101750073677141bca5b7ea0248e81db6038557f1139f290e1b15f50b86c3fa6c4961c7e69c7b36bf05d9dc9791958e93c06082e60395562000cb96040518060c00160405280609a815260200162003adf609a913962000d5760201b60201c565b603a5560405180608001604052806041815260200162003b7960419139603b908051906020019062000ced92919062000ed2565b5073e448992fdeaf94784bbd8f432d781c061d907985603c60006101000a81548173ffffffffffffffffffffffffffffffffffffffff021916908373ffffffffffffffffffffffffffffffffffffffff16021790555034801562000d5057600080fd5b506200115a565b60008160405160200162000d6c919062001034565b6040516020818303038152906040528051906020012060405160200162000d949190620010cc565b604051602081830303815290604052805190602001209050919050565b82805482825590600052602060002090810192821562000df0579160200282015b8281111562000def57825182559160200191906001019062000dd2565b5b50905062000dff919062000f63565b5090565b826002810192821562000e35579160200282015b8281111562000e3457825182559160200191906001019062000e17565b5b50905062000e44919062000f63565b5090565b826015810192821562000e7a579160200282015b8281111562000e7957825182559160200191906001019062000e5c565b5b50905062000e89919062000f63565b5090565b826005810192821562000ebf579160200282015b8281111562000ebe57825182559160200191906001019062000ea1565b5b50905062000ece919062000f63565b5090565b82805462000ee09062001125565b90600052602060002090601f01602090048101928262000f04576000855562000f50565b82601f1062000f1f57805160ff191683800117855562000f50565b8280016001018555821562000f50579182015b8281111562000f4f57825182559160200191906001019062000f32565b5b50905062000f5f919062000f63565b5090565b5b8082111562000f7e57600081600090555060010162000f64565b5090565b7f4e487b7100000000000000000000000000000000000000000000000000000000600052603260045260246000fd5b600081519050919050565b600081905092915050565b60005b8381101562000fe757808201518184015260208101905062000fca565b8381111562000ff7576000848401525b50505050565b60006200100a8262000fb1565b62001016818562000fbc565b93506200102881856020860162000fc7565b80840191505092915050565b600062001042828462000ffd565b915081905092915050565b7f19457468657265756d205369676e6564204d6573736167653a0a333200000000600082015250565b600062001085601c8362000fbc565b915062001092826200104d565b601c82019050919050565b6000819050919050565b6000819050919050565b620010c6620010c0826200109d565b620010a7565b82525050565b6000620010d98262001076565b9150620010e78284620010b1565b60208201915081905092915050565b7f4e487b7100000000000000000000000000000000000000000000000000000000600052602260045260246000fd5b600060028204905060018216806200113e57607f821691505b602082108103620011545762001153620010f6565b5b50919050565b612975806200116a6000396000f3fe608060405234801561001057600080fd5b506004361061004c5760003560e01c80638f156d71146100515780639c22c9511461006f578063d98966fd1461008d578063ffef4ff4146100bd575b600080fd5b6100596100db565b6040516100669190611e55565b60405180910390f35b61007761038a565b6040516100849190611e55565b60405180910390f35b6100a760048036038101906100a29190611fc2565b610eff565b6040516100b49190611e55565b60405180910390f35b6100c56111c9565b6040516100d2919061205f565b60405180910390f35b60008061019a604051806040016040528060296000600581106101015761010061207a565b5b01548152602001602960016005811061011d5761011c61207a565b5b0154815250604051806040016040528060296003600581106101425761014161207a565b5b01548152602001602960046005811061015e5761015d61207a565b5b015481525060256001600281106101785761017761207a565b5b0154602960026005811061018f5761018e61207a565b5b015460006001610eff565b801561024a5750610249604051806040016040528060296000600581106101c4576101c361207a565b5b0154815260200160296001600581106101e0576101df61207a565b5b01548152506040518060400160405280602e6001600581106102055761020461207a565b5b01548152602001602e6002600581106102215761022061207a565b5b0154815250603754602e60006005811061023e5761023d61207a565b5b015460006001610eff565b5b80156102ee57506102ed6035604051806040016040529081600082015481526020016001820154815250506040518060400160405280602e6003600581106102955761029461207a565b5b01548152602001602e6004600581106102b1576102b061207a565b5b015481525060256000600281106102cb576102ca61207a565b5b0154602e6000600581106102e2576102e161207a565b5b015460006001610eff565b5b801561034a575061034960356040518060400160405290816000820154815260200160018201548152505060336040518060400160405290816000820154815260200160018201548152505060385460395460006001610eff565b5b90507f9ebf19a79884326bf6ddfcf4bd501eb6a52b40414ecd5d8a70514f606810801e8160405161037b9190611e55565b60405180910390a18091505090565b6000807f30644e72e131a029b85045b68181585d2833e84879b9709143e1f593f0000001806103bc576103bb6120a9565b5b60256001600281106103d1576103d061207a565b5b015460256000600281106103e8576103e761207a565b5b015409905060007f30644e72e131a029b85045b68181585d2833e84879b9709143e1f593f00000018061041e5761041d6120a9565b5b6027547f30644e72e131a029b85045b68181585d2833e84879b9709143e1f593f000000161044c9190612107565b7f30644e72e131a029b85045b68181585d2833e84879b9709143e1f593f00000018061047b5761047a6120a9565b5b7f30644e72e131a029b85045b68181585d2833e84879b9709143e1f593f0000001806104aa576104a96120a9565b5b6028547f30644e72e131a029b85045b68181585d2833e84879b9709143e1f593f0000001806104dc576104db6120a9565b5b6010600f601581106104f1576104f061207a565b5b01546010600c601581106105085761050761207a565b5b015408087f30644e72e131a029b85045b68181585d2833e84879b9709143e1f593f00000018061053b5761053a6120a9565b5b60106009601581106105505761054f61207a565b5b015460106006601581106105675761056661207a565b5b015408090890506000603c60009054906101000a900473ffffffffffffffffffffffffffffffffffffffff1673ffffffffffffffffffffffffffffffffffffffff1661063f603a54603b80546105bc9061216a565b80601f01602080910402602001604051908101604052809291908181526020018280546105e89061216a565b80156106355780601f1061060a57610100808354040283529160200191610635565b820191906000526020600020905b81548152906001019060200180831161061857829003601f168201915b5050505050611284565b73ffffffffffffffffffffffffffffffffffffffff1614905060006107156040518060400160405280601060006015811061067d5761067c61207a565b5b0154815260200160106001601581106106995761069861207a565b5b0154815250604051806040016040528060106007601581106106be576106bd61207a565b5b0154815260200160106008601581106106da576106d961207a565b5b015481525060256001600281106106f4576106f361207a565b5b0154601060066015811061070b5761070a61207a565b5b0154600080610eff565b80156107c257506107c16040518060400160405280601060006015811061073f5761073e61207a565b5b01548152602001601060016015811061075b5761075a61207a565b5b015481525060405180604001604052806010600d601581106107805761077f61207a565b5b015481526020016010600e6015811061079c5761079b61207a565b5b0154815250866010600c601581106107b7576107b661207a565b5b0154600080610eff565b5b80156108865750610885604051806040016040528060106002601581106107ec576107eb61207a565b5b0154815260200160106003601581106108085761080761207a565b5b015481525060405180604001604052806010600a6015811061082d5761082c61207a565b5b015481526020016010600b601581106108495761084861207a565b5b015481525060256001600281106108635761086261207a565b5b0154601060096015811061087a5761087961207a565b5b015460016000610eff565b5b80156109335750610932604051806040016040528060106002601581106108b0576108af61207a565b5b0154815260200160106003601581106108cc576108cb61207a565b5b01548152506040518060400160405280601080601581106108f0576108ef61207a565b5b01548152602001601060116015811061090c5761090b61207a565b5b0154815250866010600f601581106109275761092661207a565b5b015460016000610eff565b5b80156109e157506109e06040518060400160405280601060046015811061095d5761095c61207a565b5b0154815260200160106005601581106109795761097861207a565b5b01548152506040518060400160405280601060126015811061099e5761099d61207a565b5b0154815260200160106013601581106109ba576109b961207a565b5b015481525060256001600281106109d4576109d361207a565b5b01548660006001610eff565b5b8015610a8f5750610a8e60405180604001604052806010600460158110610a0b57610a0a61207a565b5b015481526020016010600560158110610a2757610a2661207a565b5b015481525060405180604001604052806010601260158110610a4c57610a4b61207a565b5b015481526020016010601360158110610a6857610a6761207a565b5b01548152506025600160028110610a8257610a8161207a565b5b01548660006001610eff565b5b8015610b3d5750610b3c60405180604001604052806010600460158110610ab957610ab861207a565b5b015481526020016010600560158110610ad557610ad461207a565b5b015481525060405180604001604052806010601260158110610afa57610af961207a565b5b015481526020016010601360158110610b1657610b1561207a565b5b01548152506025600160028110610b3057610b2f61207a565b5b01548660006001610eff565b5b8015610beb5750610bea60405180604001604052806010600460158110610b6757610b6661207a565b5b015481526020016010600560158110610b8357610b8261207a565b5b015481525060405180604001604052806010601260158110610ba857610ba761207a565b5b015481526020016010601360158110610bc457610bc361207a565b5b01548152506025600160028110610bde57610bdd61207a565b5b01548660006001610eff565b5b8015610c995750610c9860405180604001604052806010600460158110610c1557610c1461207a565b5b015481526020016010600560158110610c3157610c3061207a565b5b015481525060405180604001604052806010601260158110610c5657610c5561207a565b5b015481526020016010601360158110610c7257610c7161207a565b5b01548152506025600160028110610c8c57610c8b61207a565b5b01548660006001610eff565b5b8015610d475750610d4660405180604001604052806010600460158110610cc357610cc261207a565b5b015481526020016010600560158110610cdf57610cde61207a565b5b015481525060405180604001604052806010601260158110610d0457610d0361207a565b5b015481526020016010601360158110610d2057610d1f61207a565b5b01548152506025600160028110610d3a57610d3961207a565b5b01548660006001610eff565b5b8015610df55750610df460405180604001604052806010600460158110610d7157610d7061207a565b5b015481526020016010600560158110610d8d57610d8c61207a565b5b015481525060405180604001604052806010601260158110610db257610db161207a565b5b015481526020016010601360158110610dce57610dcd61207a565b5b01548152506025600160028110610de857610de761207a565b5b01548660006001610eff565b5b8015610ea35750610ea260405180604001604052806010600460158110610e1f57610e1e61207a565b5b015481526020016010600560158110610e3b57610e3a61207a565b5b015481525060405180604001604052806010601260158110610e6057610e5f61207a565b5b015481526020016010601360158110610e7c57610e7b61207a565b5b01548152506025600160028110610e9657610e9561207a565b5b01548660006001610eff565b5b8015610eb35750610eb26100db565b5b8015610ebc5750815b90507f9ebf19a79884326bf6ddfcf4bd501eb6a52b40414ecd5d8a70514f606810801e81604051610eed9190611e55565b60405180910390a18094505050505090565b60007f30644e72e131a029b85045b68181585d2833e84879b9709143e1f593f0000001876000015110610f67576040517f08c379a0000000000000000000000000000000000000000000000000000000008152600401610f5e9061221e565b60405180910390fd5b7f30644e72e131a029b85045b68181585d2833e84879b9709143e1f593f0000001876020015110610fcd576040517f08c379a0000000000000000000000000000000000000000000000000000000008152600401610fc4906122b0565b60405180910390fd5b7f30644e72e131a029b85045b68181585d2833e84879b9709143e1f593f0000001866000015110611033576040517f08c379a000000000000000000000000000000000000000000000000000000000815260040161102a90612342565b60405180910390fd5b7f30644e72e131a029b85045b68181585d2833e84879b9709143e1f593f0000001866020015110611099576040517f08c379a0000000000000000000000000000000000000000000000000000000008152600401611090906123d4565b60405180910390fd5b7f30644e72e131a029b85045b68181585d2833e84879b9709143e1f593f000000185106110fb576040517f08c379a00000000000000000000000000000000000000000000000000000000081526004016110f290612466565b60405180910390fd5b7f30644e72e131a029b85045b68181585d2833e84879b9709143e1f593f0000001841061115d576040517f08c379a0000000000000000000000000000000000000000000000000000000008152600401611154906124f8565b60405180910390fd5b600061117161116c8888611357565b61142f565b9050600061118f6111896111836114ed565b88611357565b83611511565b9050600061119c8a61142f565b90506111ba896111ab8861160f565b846111b58a611703565b611826565b93505050509695505050505050565b60008060cc9050600060409050600060256000600281106111ed576111ec61207a565b5b0154905060007f30644e72e131a029b85045b68181585d2833e84879b9709143e1f593f000000190506000806001905060005b8581101561124a57838482840984089250838183099150808061124290612518565b915050611220565b50600061126161125b868987611b8e565b85611c86565b90508380611272576112716120a9565b5b83820992508297505050505050505090565b600080600080604185511461129f5760009350505050611351565b6020850151925060408501519150606085015160001a9050601b8160ff1610156112d357601b816112d0919061256d565b90505b601b8160ff16141580156112eb5750601c8160ff1614155b156112fc5760009350505050611351565b6001868285856040516000815260200160405260405161131f94939291906125cc565b6020604051602081039080840390855afa158015611341573d6000803e3d6000fd5b5050506020604051035193505050505b92915050565b61135f611d72565b611367611d8c565b8360000151816000600381106113805761137f61207a565b5b6020020181815250508360200151816001600381106113a2576113a161207a565b5b60200201818152505082816002600381106113c0576113bf61207a565b5b602002018181525050600060608360808460076107d05a03fa905080600081036113e657fe5b5080611427576040517f08c379a000000000000000000000000000000000000000000000000000000000815260040161141e9061265d565b60405180910390fd5b505092915050565b611437611d72565b6000826000015114801561144f575060008260200151145b1561147257604051806040016040528060008152602001600081525090506114e8565b6040518060400160405280836000015181526020017f30644e72e131a029b85045b68181585d97816a916871ca8d3c208c16d87cfd4784602001516114b7919061267d565b7f30644e72e131a029b85045b68181585d97816a916871ca8d3c208c16d87cfd476114e29190612107565b81525090505b919050565b6114f5611d72565b6040518060400160405280600181526020016002815250905090565b611519611d72565b611521611dae565b83600001518160006004811061153a5761153961207a565b5b60200201818152505083602001518160016004811061155c5761155b61207a565b5b60200201818152505082600001518160026004811061157e5761157d61207a565b5b6020020181815250508260200151816003600481106115a05761159f61207a565b5b602002018181525050600060608360c08460066107d05a03fa905080600081036115c657fe5b5080611607576040517f08c379a00000000000000000000000000000000000000000000000000000000081526004016115fe906126fa565b60405180910390fd5b505092915050565b611617611dd0565b60405180604001604052806040518060400160405280600086600261163c919061271a565b8154811061164d5761164c61207a565b5b90600052602060002001548152602001600186600261166c919061271a565b8154811061167d5761167c61207a565b5b90600052602060002001548152508152602001604051806040016040528060028660026116aa919061271a565b815481106116bb576116ba61207a565b5b9060005260206000200154815260200160038660026116da919061271a565b815481106116eb576116ea61207a565b5b90600052602060002001548152508152509050919050565b61170b611dd0565b6040518060400160405280604051806040016040528060006001876002611732919061271a565b61173c9190612774565b8154811061174d5761174c61207a565b5b9060005260206000200154815260200160018087600261176d919061271a565b6117779190612774565b815481106117885761178761207a565b5b906000526020600020015481525081526020016040518060400160405280600260018760026117b7919061271a565b6117c19190612774565b815481106117d2576117d161207a565b5b90600052602060002001548152602001600360018760026117f3919061271a565b6117fd9190612774565b8154811061180e5761180d61207a565b5b90600052602060002001548152508152509050919050565b6000806040518060400160405280878152602001858152509050600060405180604001604052808781526020018581525090506000600c905060008167ffffffffffffffff81111561187b5761187a611e95565b5b6040519080825280602002602001820160405280156118a95781602001602082028036833780820191505090505b50905060005b6002811015611ae75760006006826118c7919061271a565b90508582600281106118dc576118db61207a565b5b602002015160000151836000836118f39190612774565b815181106119045761190361207a565b5b6020026020010181815250508582600281106119235761192261207a565b5b6020020151602001518360018361193a9190612774565b8151811061194b5761194a61207a565b5b60200260200101818152505084826002811061196a5761196961207a565b5b6020020151600001516000600281106119865761198561207a565b5b6020020151836002836119999190612774565b815181106119aa576119a961207a565b5b6020026020010181815250508482600281106119c9576119c861207a565b5b6020020151600001516001600281106119e5576119e461207a565b5b6020020151836003836119f89190612774565b81518110611a0957611a0861207a565b5b602002602001018181525050848260028110611a2857611a2761207a565b5b602002015160200151600060028110611a4457611a4361207a565b5b602002015183600483611a579190612774565b81518110611a6857611a6761207a565b5b602002602001018181525050848260028110611a8757611a8661207a565b5b602002015160200151600160028110611aa357611aa261207a565b5b602002015183600583611ab69190612774565b81518110611ac757611ac661207a565b5b602002602001018181525050508080611adf90612518565b9150506118af565b50611af0611df6565b600080602085611b00919061271a565b9050602083826020870160086107d05a03fa91508160008103611b1f57fe5b5081611b60576040517f08c379a0000000000000000000000000000000000000000000000000000000008152600401611b5790612816565b60405180910390fd5b600083600060018110611b7657611b7561207a565b5b60200201511415975050505050505050949350505050565b6000808203611bd2576040517f08c379a0000000000000000000000000000000000000000000000000000000008152600401611bc990612882565b60405180910390fd5b60008403611be35760009050611c7f565b60008303611bf45760019050611c7f565b60006001905060007f800000000000000000000000000000000000000000000000000000000000000090505b6000811115611c7957838186161515870a85848509099150836002820486161515870a85848509099150836004820486161515870a85848509099150836008820486161515870a85848509099150601081049050611c20565b81925050505b9392505050565b6000808314158015611c985750818314155b8015611ca5575060008214155b611ce4576040517f08c379a0000000000000000000000000000000000000000000000000000000008152600401611cdb906128ee565b60405180910390fd5b60008060019050600084905060005b60008714611d65578682611d07919061290e565b9050828680611d1957611d186120a9565b5b8780611d2857611d276120a9565b5b85840988611d369190612107565b86088094508195505050868782611d4d919061271a565b83611d589190612107565b8098508193505050611cf3565b8394505050505092915050565b604051806040016040528060008152602001600081525090565b6040518060600160405280600390602082028036833780820191505090505090565b6040518060800160405280600490602082028036833780820191505090505090565b6040518060400160405280611de3611e18565b8152602001611df0611e18565b81525090565b6040518060200160405280600190602082028036833780820191505090505090565b6040518060400160405280600290602082028036833780820191505090505090565b60008115159050919050565b611e4f81611e3a565b82525050565b6000602082019050611e6a6000830184611e46565b92915050565b6000604051905090565b600080fd5b600080fd5b6000601f19601f8301169050919050565b7f4e487b7100000000000000000000000000000000000000000000000000000000600052604160045260246000fd5b611ecd82611e84565b810181811067ffffffffffffffff82111715611eec57611eeb611e95565b5b80604052505050565b6000611eff611e70565b9050611f0b8282611ec4565b919050565b6000819050919050565b611f2381611f10565b8114611f2e57600080fd5b50565b600081359050611f4081611f1a565b92915050565b600060408284031215611f5c57611f5b611e7f565b5b611f666040611ef5565b90506000611f7684828501611f31565b6000830152506020611f8a84828501611f31565b60208301525092915050565b611f9f81611e3a565b8114611faa57600080fd5b50565b600081359050611fbc81611f96565b92915050565b6000806000806000806101008789031215611fe057611fdf611e7a565b5b6000611fee89828a01611f46565b9650506040611fff89828a01611f46565b955050608061201089828a01611f31565b94505060a061202189828a01611f31565b93505060c061203289828a01611f31565b92505060e061204389828a01611fad565b9150509295509295509295565b61205981611f10565b82525050565b60006020820190506120746000830184612050565b92915050565b7f4e487b7100000000000000000000000000000000000000000000000000000000600052603260045260246000fd5b7f4e487b7100000000000000000000000000000000000000000000000000000000600052601260045260246000fd5b7f4e487b7100000000000000000000000000000000000000000000000000000000600052601160045260246000fd5b600061211282611f10565b915061211d83611f10565b9250828210156121305761212f6120d8565b5b828203905092915050565b7f4e487b7100000000000000000000000000000000000000000000000000000000600052602260045260246000fd5b6000600282049050600182168061218257607f821691505b6020821081036121955761219461213b565b5b50919050565b600082825260208201905092915050565b7f56657269666965722e7665726966794b5a473a205f636f6d6d69746d656e742e60008201527f58206973206f7574206f662072616e6765000000000000000000000000000000602082015250565b600061220860318361219b565b9150612213826121ac565b604082019050919050565b60006020820190508181036000830152612237816121fb565b9050919050565b7f56657269666965722e7665726966794b5a473a205f636f6d6d69746d656e742e60008201527f59206973206f7574206f662072616e6765000000000000000000000000000000602082015250565b600061229a60318361219b565b91506122a58261223e565b604082019050919050565b600060208201905081810360008301526122c98161228d565b9050919050565b7f56657269666965722e7665726966794b5a473a205f70726f6f662e582069732060008201527f6f7574206f662072616e67650000000000000000000000000000000000000000602082015250565b600061232c602c8361219b565b9150612337826122d0565b604082019050919050565b6000602082019050818103600083015261235b8161231f565b9050919050565b7f56657269666965722e7665726966794b5a473a205f70726f6f662e592069732060008201527f6f7574206f662072616e67650000000000000000000000000000000000000000602082015250565b60006123be602c8361219b565b91506123c982612362565b604082019050919050565b600060208201905081810360008301526123ed816123b1565b9050919050565b7f56657269666965722e7665726966794b5a473a205f696e646578206973206f7560008201527f74206f662072616e676500000000000000000000000000000000000000000000602082015250565b6000612450602a8361219b565b915061245b826123f4565b604082019050919050565b6000602082019050818103600083015261247f81612443565b9050919050565b7f56657269666965722e7665726966794b5a473a205f76616c7565206973206f7560008201527f74206f662072616e676500000000000000000000000000000000000000000000602082015250565b60006124e2602a8361219b565b91506124ed82612486565b604082019050919050565b60006020820190508181036000830152612511816124d5565b9050919050565b600061252382611f10565b91507fffffffffffffffffffffffffffffffffffffffffffffffffffffffffffffffff8203612555576125546120d8565b5b600182019050919050565b600060ff82169050919050565b600061257882612560565b915061258383612560565b92508260ff03821115612599576125986120d8565b5b828201905092915050565b6000819050919050565b6125b7816125a4565b82525050565b6125c681612560565b82525050565b60006080820190506125e160008301876125ae565b6125ee60208301866125bd565b6125fb60408301856125ae565b61260860608301846125ae565b95945050505050565b7f70616972696e672d6d756c2d6661696c65640000000000000000000000000000600082015250565b600061264760128361219b565b915061265282612611565b602082019050919050565b600060208201905081810360008301526126768161263a565b9050919050565b600061268882611f10565b915061269383611f10565b9250826126a3576126a26120a9565b5b828206905092915050565b7f70616972696e672d6164642d6661696c65640000000000000000000000000000600082015250565b60006126e460128361219b565b91506126ef826126ae565b602082019050919050565b60006020820190508181036000830152612713816126d7565b9050919050565b600061272582611f10565b915061273083611f10565b9250817fffffffffffffffffffffffffffffffffffffffffffffffffffffffffffffffff0483118215151615612769576127686120d8565b5b828202905092915050565b600061277f82611f10565b915061278a83611f10565b9250827fffffffffffffffffffffffffffffffffffffffffffffffffffffffffffffffff038211156127bf576127be6120d8565b5b828201905092915050565b7f70616972696e672d6f70636f64652d6661696c65640000000000000000000000600082015250565b600061280060158361219b565b915061280b826127ca565b602082019050919050565b6000602082019050818103600083015261282f816127f3565b9050919050565b7f4d6f64756c7573206973207a65726f0000000000000000000000000000000000600082015250565b600061286c600f8361219b565b915061287782612836565b602082019050919050565b6000602082019050818103600083015261289b8161285f565b9050919050565b7f496e76616c6964206e756d626572000000000000000000000000000000000000600082015250565b60006128d8600e8361219b565b91506128e3826128a2565b602082019050919050565b60006020820190508181036000830152612907816128cb565b9050919050565b600061291982611f10565b915061292483611f10565b925082612934576129336120a9565b5b82820490509291505056fea2646970667358221220e491b18d863e9e8690945a73116667008c03da5c17d2379fcb8f24ed403af3bd64736f6c634300080d003332303930303432393839393239313030393037333239393238393436393636303134393731363738353539363235313439313330303639323033353638313439323031363933393137393235372c2034333336393130323335363836393631353338323835393936353237323731373734393336373139303538383334353439353338363836303430373438373135323833383132323030393719ec5dc5aa05a220cd210a113352596ebf80d06a6f776b8e0c656e50a5c5567f1e8a7f23fb27f77ea5b5d42f0e2384facdebebd85f026e2a73e94d4690a40a6801",
  "immutableReferences": {},
  "source": "// Modified from https://github.com/appliedzkp/semaphore/blob/master/contracts/sol/verifier.sol\n// SPDX-License-Identifier: MIT\npragma solidity >=0.4.22 <0.9.0;\npragma experimental ABIEncoderV2;\nimport \"./Pairing.sol\";\n// import \"./PolyCoeff.sol\";\nimport { Constants } from \"./Constants.sol\";\n// import \"@openzeppelin/contracts/utils/Strings.sol\";\n\ncontract Verifier is Constants {\n\n    using Pairing for *;\n\n    // PolyCoeff polyCoeff;\n\n    event verifyResult(bool result);\n\n        uint256[21] Proof = [\n        uint256(20435686948508171234472206488737953800505595616105823290561271581793730135986),\n        uint256(7613038940582986439878577004424311309737615170791456916446723479068371769225),\n        uint256(20900429899291009073299289469660149716785596251491300692035681492016939179257),\n        uint256(17015433841169487450406840425175642150965883946544965612916879717959251917877),\n        uint256(433691023568696153828599652727177493671905883454953868604074871528381220097),\n        uint256(10320531664273889342578906132837836076031009559738199149165995480549188738219),\n        uint256(5841514956038981489672186264970094693930045609713312309929445225955171101947),\n        uint256(5021024840007099401420413415719005463562614305701472747429400657816854795888),\n        uint256(20774065911754029615648528083815650325450840922528127398846513310899898519818),\n        uint256(15033194806153309440324576121312701377491848712637707126378339071163915088607),\n        uint256(13797601081368067296147105517336555699959400728196376360418452678919689273357),\n        uint256(347536244405038501480645670232637364896709701574004323632284243300674648233),\n        uint256(14150985670258525975582637074878024272235049272474457475329855381177734047698),\n        uint256(2655786006985334435742353147654701867454007390061009682990360208958229883457),\n        uint256(19749978915220999581635876327451130211831443864540429941950424972239040718725),\n        uint256(18652734379260577017619098828238354228621932558467343220803598526754221068969),\n        uint256(19231643171984527412379363884712632725022106910875011856721870145973184299950),\n        uint256(11890584382703984881384687349129438589403848436060509080598302278432395889958),\n        uint256(19848703903105846067635106277601755727734486581037082434405934553883502968806),\n        uint256(7073067203970200196273245091229017314841577127190841947842173598530677375580),\n        uint256(11142795172845103846997117758219330284910812886430955732663385421662518242916)\n    ];\n\n    uint256[2] Randoms = [\n        uint256(21356640755055926883299664242251323519715676831624930462071588778907420237277),\n        uint256(21284924740537517593391635090683107806948436131904811688892120057033464016678)\n    ];\n\n    uint256 evalK = uint256(11598511819595573397693757683043215863237090817957830497519701049476846220233);\n    uint256 evalS = Proof[20];\n\n    // SOCC_hscS = [G1Point S_j, uint256 s_j, G1Point W_j]\n    uint256[5] SOCC_hscS = [\n        uint256(4856595452220518861283513887787149560249872199754148373623768058895650888886),\n        uint256(18903793806709064235976701805982270837399009185115750427816521247566249210556),\n        uint256(11142795172845103846997117758219330284910812886430955732663385421662518242916),\n        uint256(21371202341828297453905088304285070177929072675831707150146249345026206448204),\n        uint256(2804295765584777874267821186909392907007222244895837511075392229436674961086)\n    ];\n    // SOCC_hscW = [uint256 s'_j,G1Point W'_j, G1Point Q_j]\n    uint256[5] SOCC_hscW = [\n        uint256(10516069979663785554384039720791935537971662430097624533692998141893610132813),\n        uint256(4047408704098476939730481302397316844045052246660100325786631118072453155095),\n        uint256(3536770324764440576997419732517461268782698510962602892817204324264966117745),\n        uint256(14245367996788138561788347307320292816184394224142842975302936827932398609764),\n        uint256(4809015920432886449944012129537258787815219963382067822305826740230093200527)\n    ];\n\n    Pairing.G1Point hscQv = Pairing.G1Point(\n        uint256(2990558601454446836641627272921201963123578559834602407524792456795005493261),\n        uint256(13202662347545347168000079135411531495309137838398006144762638337293564502641)\n    );\n    Pairing.G1Point hscC = Pairing.G1Point(\n        uint256(20354021681082976488982424663336191185782081465046767166624106617637273115698),\n        uint256(7434894914590215425794637416957100516507193983165584369402225555559623348194)\n    );\n\n    uint256 u = uint256(8197071660809916300712359474937866146139983659726903111927633346212682272753);\n    uint256 v = uint256(18304223670379022123371455395869338667757056554451611927086438308637909615067);\n\n    // from terminal\n    uint256 s_uv = uint256(7791702837224372263152657165191932519240106980588006270334507770946892728366);\n\n    // from Go\n    bytes32 message = ethMessageHash(\"20900429899291009073299289469660149716785596251491300692035681492016939179257, 433691023568696153828599652727177493671905883454953868604074871528381220097\");\n    bytes sig = hex\"19ec5dc5aa05a220cd210a113352596ebf80d06a6f776b8e0c656e50a5c5567f1e8a7f23fb27f77ea5b5d42f0e2384facdebebd85f026e2a73e94d4690a40a6801\";\n    address addr = 0xE448992FdEaF94784bBD8f432d781C061D907985;\n\n\n\n    function verify(\n        Pairing.G1Point memory _commitment, // F\n        Pairing.G1Point memory _proof, // W\n        uint256 _index,  // z\n        uint256 _value,  // F(z) or v\n        uint proofIndex,\n        bool isT\n    ) public view returns (bool) {\n        // Make sure each parameter is less than the prime q\n        require(_commitment.X < BABYJUB_P, \"Verifier.verifyKZG: _commitment.X is out of range\");\n        require(_commitment.Y < BABYJUB_P, \"Verifier.verifyKZG: _commitment.Y is out of range\");\n        require(_proof.X < BABYJUB_P, \"Verifier.verifyKZG: _proof.X is out of range\");\n        require(_proof.Y < BABYJUB_P, \"Verifier.verifyKZG: _proof.Y is out of range\");\n        require(_index < BABYJUB_P, \"Verifier.verifyKZG: _index is out of range\");\n        require(_value < BABYJUB_P, \"Verifier.verifyKZG: _value is out of range\");\n       \n        Pairing.G1Point memory negProof = Pairing.negate(Pairing.mulScalar(_proof, _index));\n        Pairing.G1Point memory mulProof = Pairing.plus(Pairing.mulScalar(Constants.G1Gen(), _value), negProof);\n        Pairing.G1Point memory negCm = Pairing.negate(_commitment);\n\n        return Pairing.pairing(_proof, Constants.SRS_G2_hAlphaX1(proofIndex),\n                                mulProof, Constants.SRS_G2_hAlphaX0(proofIndex));\n        // return false;\n    }\n\n    function verifySonic(\n        // uint256[21] memory Proof,\n        // uint256[2] memory Randoms\n    ) public returns (bool) {\n\n        // simulate calculating kY\n        // uint256 ky = evalKPoly();\n        // // // simulate calculating sXY\n        // uint256 sx = evalXPoly();\n        // uint256 sy = evalXPoly();\n\n        uint256 yz = mulmod(Randoms[0], Randoms[1], Pairing.BABYJUB_P);\n        uint256 t = addmod(mulmod(addmod(Proof[6], Proof[9], Pairing.BABYJUB_P), \n                                  addmod(addmod(Proof[12], \n                                                Proof[15], Pairing.BABYJUB_P), \n                                         evalS, Pairing.BABYJUB_P), Pairing.BABYJUB_P),\n                            Pairing.BABYJUB_P - evalK, Pairing.BABYJUB_P);\n\n        bool verifySignature = recover(message, sig) == addr;\n        bool result = verify(Pairing.G1Point(Proof[0], Proof[1]), // aLocal\n                      Pairing.G1Point(Proof[7], Proof[8]),\n                      Randoms[1], \n                      Proof[6],\n                      0, false) &&\n                verify(Pairing.G1Point(Proof[0], Proof[1]), // bLocal\n                      Pairing.G1Point(Proof[13], Proof[14]),\n                      yz,\n                      Proof[12],\n                      0, false) &&\n                verify(Pairing.G1Point(Proof[2], Proof[3]), // aRaw\n                      Pairing.G1Point(Proof[10], Proof[11]),\n                      Randoms[1],\n                      Proof[9],\n                      1, false) &&\n                verify(Pairing.G1Point(Proof[2], Proof[3]), // bRaw\n                      Pairing.G1Point(Proof[16], Proof[17]),\n                      yz,\n                      Proof[15],\n                      1, false) &&\n                verify(Pairing.G1Point(Proof[4], Proof[5]), // t\n                      Pairing.G1Point(Proof[18], Proof[19]),\n                      Randoms[1],\n                      t,\n                      0, true) &&                               \n                verify(Pairing.G1Point(Proof[4], Proof[5]), // t\n                      Pairing.G1Point(Proof[18], Proof[19]),\n                      Randoms[1],\n                      t,\n                      0, true) &&                                            // pcV srsLocal (srsD srsLocal) commitK y (k, wk)\n                verify(Pairing.G1Point(Proof[4], Proof[5]), // t\n                      Pairing.G1Point(Proof[18], Proof[19]),\n                      Randoms[1],\n                      t,\n                      0, true) &&                                            // pcV srsLocal (srsD srsLocal) commitC y (c, wc)\n                verify(Pairing.G1Point(Proof[4], Proof[5]), // t\n                      Pairing.G1Point(Proof[18], Proof[19]),\n                      Randoms[1],\n                      t,\n                      0, true) &&                                            // pcV srsLocal (srsD srsLocal) commitC yOld (cOld, wcOld)\n                verify(Pairing.G1Point(Proof[4], Proof[5]), // t\n                      Pairing.G1Point(Proof[18], Proof[19]),\n                      Randoms[1],\n                      t,\n                      0, true) &&                                            //, pcV srsLocal (srsD srsLocal) commitC yNew (cNew, wcNew)\n                verify(Pairing.G1Point(Proof[4], Proof[5]), // t\n                      Pairing.G1Point(Proof[18], Proof[19]),\n                      Randoms[1],\n                      t,\n                      0, true) &&                                            //, pcV srsLocal (srsD srsLocal) commitS z (s, ws)\n                verify(Pairing.G1Point(Proof[4], Proof[5]), // t\n                      Pairing.G1Point(Proof[18], Proof[19]),\n                      Randoms[1],\n                      t,\n                      0, true) &&                                            //, pcV srsLocal (srsD srsLocal) commitSOld z (sOld, wsOld)\n                 verify(Pairing.G1Point(Proof[4], Proof[5]), // t\n                      Pairing.G1Point(Proof[18], Proof[19]),\n                      Randoms[1],\n                      t,\n                      0, true) &&                                           //, pcV srsLocal (srsD srsLocal) commitSNew z (sNew, wsNew)\n                verifySOCC() && verifySignature;\n        // bool result = true;\n        emit verifyResult(result);\n        return result;\n    }\n\n    function verifySOCC() public returns (bool) {\n\n        bool verified = verify(Pairing.G1Point(SOCC_hscS[0], SOCC_hscS[1]), // pcV(bp,srs,S_j,d,z_j,(s_j,W_j)\n                      Pairing.G1Point(SOCC_hscS[3], SOCC_hscS[4]),\n                      Randoms[1], \n                      SOCC_hscS[2],\n                      0, true) &&\n                      verify(Pairing.G1Point(SOCC_hscS[0], SOCC_hscS[1]), // pcV(bp,srs,S_j,d,u,(s'_j,W'_j))\n                      Pairing.G1Point(SOCC_hscW[1], SOCC_hscW[2]),\n                      u, \n                      SOCC_hscW[0],\n                      0, true) &&\n                      verify(hscC,                                      // pcV(bp,srs,C,d,y_j,(s'_j,Q_j)\n                      Pairing.G1Point(SOCC_hscW[3], SOCC_hscW[4]),\n                      Randoms[0], \n                      SOCC_hscW[0],\n                      0, true) &&\n                      verify(hscC,                                      // pcV(bp,srs,C,d,v,(s_uv,Q_v))\n                      hscQv,\n                      v, \n                      s_uv,\n                      0, true);\n        emit verifyResult(verified);\n        return verified;\n    }\n\n    /**\n     * @dev Recover signer address from a message by using their signature\n     * @param hash bytes32 message, the hash is the signed message. What is recovered is the signer address.\n     * @param signature bytes signature, the signature is generated using web3.eth.sign()\n     */\n    function recover(bytes32 hash, bytes memory signature) internal pure returns (address) {\n        bytes32 r;\n        bytes32 s;\n        uint8 _v;\n\n        // Check the signature length\n        if (signature.length != 65) {\n            return (address(0));\n        }\n\n        // Divide the signature in r, s and v variables\n        // ecrecover takes the signature parameters, and the only way to get them\n        // currently is to use assembly.\n        // solium-disable-next-line security/no-inline-assembly\n        assembly {\n            r := mload(add(signature, 32))\n            s := mload(add(signature, 64))\n            _v := byte(0, mload(add(signature, 96)))\n        }\n\n        // Version of signature should be 27 or 28, but 0 and 1 are also possible versions\n        if (_v < 27) {\n            _v += 27;\n        }\n\n        // If the version is correct return the signer address\n        if (_v != 27 && _v != 28) {\n            return (address(0));\n        } else {\n            // solium-disable-next-line arg-overflow\n            return ecrecover(hash, _v, r, s);\n        }\n    }\n\n    /**\n    * @dev prefix a bytes32 value with \"\\x19Ethereum Signed Message:\" and hash the result\n    */\n    function ethMessageHash(string memory rawCommitment) internal pure returns (bytes32) {\n        return keccak256(\n            abi.encodePacked(\"\\x19Ethereum Signed Message:\\n32\", keccak256(abi.encodePacked(rawCommitment)))\n        );\n    }\n\n\n    //     /*\n    //  * @return The polynominal evaluation of a polynominal with the specified\n    //  *         coefficients at the given index.\n    //  */\n     function evalPoly() public view returns (uint256) {\n\n        uint baseOrder = 204;\n        uint length = 64;\n        uint256 _index = Randoms[0];\n        uint256 m = Constants.BABYJUB_P;\n        uint256 result = 0;\n        uint256 powerOfX = 1;\n\n        for (uint256 i = 0; i < length; i ++) {\n            assembly {\n                result:= addmod(result, mulmod(powerOfX, i, m), m)\n                powerOfX := mulmod(powerOfX, i, m)\n            }\n        }\n        uint256 basePower = invMod(expMod(_index, baseOrder, m), m);\n        result = mulmod(basePower, result, m);\n\n        return result;\n    }\n\n    /// @dev Modular euclidean inverse of a number (mod p).\n    /// @param _x The number\n    /// @param _pp The modulus\n    /// @return q such that x*q = 1 (mod _pp)\n    function invMod(uint256 _x, uint256 _pp) internal pure returns (uint256) {\n        require(_x != 0 && _x != _pp && _pp != 0, \"Invalid number\");\n        uint256 q = 0;\n        uint256 newT = 1;\n        uint256 r = _pp;\n        uint256 t;\n        while (_x != 0) {\n        t = r / _x;\n        (q, newT) = (newT, addmod(q, (_pp - mulmod(t, newT, _pp)), _pp));\n        (r, _x) = (_x, r - t * _x);\n        }\n\n        return q;\n    }\n\n    /// @dev Modular exponentiation, b^e % _pp.\n    /// Source: https://github.com/androlo/standard-contracts/blob/master/contracts/src/crypto/ECCMath.sol\n    /// @param _base base\n    /// @param _exp exponent\n    /// @param _pp modulus\n    /// @return r such that r = b**e (mod _pp)\n    function expMod(uint256 _base, uint256 _exp, uint256 _pp) internal pure returns (uint256) {\n        require(_pp!=0, \"Modulus is zero\");\n\n        if (_base == 0)\n        return 0;\n        if (_exp == 0)\n        return 1;\n\n        uint256 r = 1;\n        uint256 bit = 57896044618658097711785492504343953926634992332820282019728792003956564819968;\n        assembly {\n        for { } gt(bit, 0) { }{\n            r := mulmod(mulmod(r, r, _pp), exp(_base, iszero(iszero(and(_exp, bit)))), _pp)\n            r := mulmod(mulmod(r, r, _pp), exp(_base, iszero(iszero(and(_exp, div(bit, 2))))), _pp)\n            r := mulmod(mulmod(r, r, _pp), exp(_base, iszero(iszero(and(_exp, div(bit, 4))))), _pp)\n            r := mulmod(mulmod(r, r, _pp), exp(_base, iszero(iszero(and(_exp, div(bit, 8))))), _pp)\n            bit := div(bit, 16)\n        }\n        }\n\n        return r;\n    }\n\n}",
  "sourcePath": "/Users/mac/Desktop/codings/ethereum/sonic/src/verifier/contracts/Verifier.sol",
  "compiler": {
    "name": "solc",
    "version": "0.8.13+commit.abaa5c0e.Emscripten.clang"
  },
  "schemaVersion": "3.4.7",
  "updatedAt": "2022-12-24T05:07:18.155Z",
  "networkType": "ethereum",
  "devdoc": {
    "kind": "dev",
    "methods": {},
    "version": 1
  },
  "userdoc": {
    "kind": "user",
    "methods": {},
    "version": 1
  }
}