{
  "contractName": "Verifier",
  "abi": [
    {
      "inputs": [
        {
          "components": [
            {
              "internalType": "uint256",
              "name": "X",
              "type": "uint256"
            },
            {
              "internalType": "uint256",
              "name": "Y",
              "type": "uint256"
            }
          ],
          "internalType": "struct Pairing.G1Point",
          "name": "_commitment",
          "type": "tuple"
        },
        {
          "components": [
            {
              "internalType": "uint256",
              "name": "X",
              "type": "uint256"
            },
            {
              "internalType": "uint256",
              "name": "Y",
              "type": "uint256"
            }
          ],
          "internalType": "struct Pairing.G1Point",
          "name": "_proof",
          "type": "tuple"
        },
        {
          "internalType": "uint256",
          "name": "_index",
          "type": "uint256"
        },
        {
          "internalType": "uint256",
          "name": "_value",
          "type": "uint256"
        }
      ],
      "name": "verify",
      "outputs": [
        {
          "internalType": "bool",
          "name": "",
          "type": "bool"
        }
      ],
      "stateMutability": "view",
      "type": "function"
    },
    {
      "inputs": [
        {
          "internalType": "uint256[]",
          "name": "coefficients",
          "type": "uint256[]"
        }
      ],
      "name": "commit",
      "outputs": [
        {
          "components": [
            {
              "internalType": "uint256",
              "name": "X",
              "type": "uint256"
            },
            {
              "internalType": "uint256",
              "name": "Y",
              "type": "uint256"
            }
          ],
          "internalType": "struct Pairing.G1Point",
          "name": "",
          "type": "tuple"
        }
      ],
      "stateMutability": "view",
      "type": "function"
    },
    {
      "inputs": [
        {
          "internalType": "uint256[]",
          "name": "_coefficients",
          "type": "uint256[]"
        },
        {
          "internalType": "uint256",
          "name": "_index",
          "type": "uint256"
        }
      ],
      "name": "evalPolyAt",
      "outputs": [
        {
          "internalType": "uint256",
          "name": "",
          "type": "uint256"
        }
      ],
      "stateMutability": "pure",
      "type": "function"
    }
  ],
  "bytecode": "0x6080604052604051806132200160405280600181526020017f25d32c471c8cd1ab9ac9b4118d040166f75ad9e4f36526b09fc0b7d1002bc85181526020017e774ec3c1f9fd9290a6308730af1510078221577db601e07e3d1491d8aeee5981526020017f1834ac41126e85944d3ef78a3ae646c05588c5fe8c071d2c219b7a979f8fefb281526020017f27cf077fdcca9f532e4f3ebebea5802e32ba26e3c2608997b7da68477a0511fa81526020017f2a803adfb16ff0a1626182de70260d5253057f99c5814e156248c41fd1a82c2c81526020017f08286ac2663f7033582867102d7a220334852864b8aa57f46925d8298d2b876081526020017e012b19f9e588f733f5de2024b325ec9d561249c6e012a5106c4cb3d8348f3d81526020017f25616e4e6bb3d50faeb7a2cba8824f238cbf5a8a426e95fb89468ddb4c43a7a381526020017f0c9aaf474f8acde6fb3722fb72c3a94ab92a9ae09f5ebaf4ec437b143328c71681526020017f11444a6e183ad29a91e299f6631b2e475f2f7f88536179586477f2aa223c5ed181526020017f24aa33ee8bdd9d7edc7eaa59277d6f6a3c4a8379b17b512a5385eccb9f3d5d7a81526020017f07c7dccf0d21d534b05db7b2344de6beb97ab1d4ce996e075629159c9285691081526020017f0e04fb318ea413e12d4076e15c5c72334b39412000ac86467294ddea138959cb81526020017f2f27b0e31c93e1cf238a02084509bc41d2ef877bec1fdea7010dd73d7bc5c4d581526020017f2ce0003ad774f55e471f8d7aec2a258c67eefae10c9060290bcf1ba9ef6b690481526020017f28f5273e2d128da199db806154c0e976ade4ad7e15572612e564e9ecc3ba952481526020017f0c9ced130b5e4959c2b077577470c65b596bb559a231da17e7f292b6ca8b6f4a81526020017f2c904adf836e9adc5601f14a8e7697a0ec7361cc8601c0e91ebec9d076d56db081526020017f10dc998603e16b813eaacf7911cf016dee3b8f9f8019fc6b2f03fba3ed6205a481526020017f05007b1a04b79272c537d8bc3e8d90265f5e2518aa48d8f53d5db59b5e91e9db81526020017f27d551024b3b66c49e82c5dcff866c6d64396c52e71a6ebe514b61df4740985a81526020017f1efdb1ba8c0d284e2fd5811f204b37a41f7dfa9fee4e21a8effbda05921eb44881526020017f0df299bebcd9fb1319000284e569390c21301dfa52d3a634ab8bb4298cd0d5e881526020017f0eebe19a48a95f44762d00947a27e430aeac6925711b6837ffa743a6d17afe8f81526020017f1becc33329796bcb665016bc13d99e98d5fd5aed8c7460b6024c240a53eecda281526020017f2494b8c228b51ce57f9ab4b38ad7dfdd94ac598a6302413a25971838a459106481526020017f19834a5871f37c8264adcb9ff2d542c6e4b500f303039fdad87b2694a72fba1381526020017e671c3b8c0f4a7bbb5ab23b9b92df5b336c8509dbc109b41be03b3fd753148381526020017f191055719378d74130d792dae4d0c85c182eeb2c937ce23e36593e29b8a977a281526020017f010dffd3d222f9e84baa252c54704f3f1e01203d7eb769cb927e16039523535381526020017f0f02d863b61d53488b7f37033f306c8371ca58fc031294db0d4141320055e82f81526020017f2c0d0c9d78f10b6cb74721d7b543c9f5c6138ed98ce04854095266903e3c5cd681526020017f0fa99bdb7abed7c66cde61d3a01fec35c6cb89991a3c17d9c9f217511fa0914681526020017f2060f4aa8204474a1c92bb3f3d441a39037ef987f99c07bbcd5eb94d9457c5b381526020017f2894e703deca72aa064b4db7075ee5ffc7bd95cb1ad832c9ab8a6b8fc484c5da81526020017f2f4d80d57d62470b36a534d41f2f98ef55fe9cc03c9e89303046e4f8ae494c7381526020017f2d4447026410ece5e1d31f4eded28e3f90b00785d2c311e5295001bb55b8714b81526020017f03a03db14ad5cc7cc74acc2f399d33ebe2a705cbc7649aafd7d8cb268506feba81526020017f25520685f259273fb399c3412de6ab15309c758eb323b0ca7bdce0eff806f1ca81526020017f213949306631bbc50002a1e449f2679ccac85017d6af22a88c9cb4070b401e7981526020017f0d2ffebeefb7368caf834ba7761351c10f57d7872a4ff554d3a15fac8f2ae25981526020017f16efdbea2068756da5142985f45dcfe13e6ff704c98100acd49b12460f70a0f381526020017f06d18e579b9b50b69ae9795831f7d656a5f43e43233d5fac00cabba841aab87b81526020017e306aca03f16a6c146f5200788a54c37662fbf731e714ad90ef67f0fd08652d81526020017f0bf2a509a92b10146357eb617b489818322928f488e73d3c44bd28f6abf6fafe81526020017f1225b027e043721f3dc918509878b562df857f0b64f9f90c8deace2f347cbe6281526020017f0ee47b7fff836caca60310d3034bf37972cd8889bee807014152ee6321294bac81526020017f2e03a9671d2b4373527ff39c9d4020cb76780a377c3f3a6ea992479b57abd36581526020017e70f815cf949d945dba54cd4efbc8651cacdc7d05fd09f9dd39e5595f31849081526020017f161f157f2e900b88143370b98cb3b51f1ee464a858d047ac6d3126c6ddfee3b381526020017f20c36605aee53e17544187cf81d15658753280346c3b163620910ddbb6bad4f681526020017f20bc218c7461e04d823ab12446946c7deee6f2d964f71347d02dfbcd70e9a4a781526020017f1bc8c3ca1353cdec270001198636e02b2fee68cda6504c5d5d97f6c4a05afd7181526020017f206844a7dc622374efda70fbdf354a3f08ddc6ec9950ec47161b84a70845ac5381526020017f01f073b9ab4e7a23a84eddd70e6b1b21e85507d617f7f401f4dedb478dae16fd81526020017f298f21619f8c2963ee645946afb336159ac0ad474bda74a136fd2a012d80490a81526020017f252699e95f10de28b3599207ad4ffcb36e15be0feea6b11a8cf67cd33fad601181526020017f20808f24b85b7cae023bbc6a38022648a5d745343b6d3bb3835f42f64368e1ec81526020017f2711e7a16f9c7102f946097fba5356343618c787b0c7cf6fff25fee99174ba6b81526020017f17748b4f7b249a5c2002163169fa245dd86c113ce481debb5fce1b52d4e774e881526020017e2ae11e89ff5e69bb937bae8da7fc418012f70acd120f5d262e5067f40c45e481526020017f13f736300bf9c95b43ecdb5a2a7dd14bb0d6761b88c0c0793cf1206bbe73592481526020017f29706171a8c8b948273fd906c52515dca92000776cce773257f4f3cdaea7a9d781526020017f142cd8eed56adaeb240aff53c8fa83333d31926a47daab2ac611b4fa791b050481526020017f10ac061409add5e575cb3418afbaf51ac441deb719493c7b27fa00cbede6c8f281526020017f2880ff257d22530d79c49601f4f9aa251d53f8b3812c859bb91f6857335617ca81526020017f09157842849189e51e0be01c01654587250533405bcb642746e562b18c92d59b81526020017f3014d77487ad3411340159236dc1c5983d017d8de39cba68cec54f1d65d000fb81526020017f1daf981c7e63b9d78c1100ae867458bcb54c9dfecfaf5ba2e667c12dc18813de81526020017f302b95f4f69de90cae4cc49949d5c1cf05b54ef5783606b4c287e94338e2846881526020017f0b7ec4bf2e1707c5c1d09b11a963bdd3c936e9bf73b6245f7d2e0fed3d50de0981526020017f0d8e8281340f7806212e9b08602092134635c712c82c3e25f38bed5b02b38f2181526020017f177760437d828e8f8c48e9cf09f51c0495254d84837ba71debd7b0842ce124e681526020017f153691a925b352312922d90471db52f5810c17cf50564e170bc036fe9013d6fe81526020017f0c3bce57cdac15ef29809f46d031d36779b8b3a0937600ba15e14a7ad8446dd981526020017f14e58336fb02b01ab15ec0b12b85459b282713e3230e50cc477ac1195741dae081526020017f2d05c1423cf8a9069f1e6c3d64aeee25feaf6c399cce8a06935775ef2b531aa181526020017f181450298cedc27f1343488b0f96deedcf57952455e295d89f02065a5e8714c881526020017f289e3d3e37ed7cfb4f5bef069f1dd08b883f216b4d9398433e310233f1b03aa881526020017f0a81501202a36fb1042089744a88692eeef7b5994928cec98b0eb1a1cdc3694b81526020017e9ff1bdac31f8aa80a484dd82b415ac5675248c9715fa045667c683ee7ad2c981526020017f0b95c16751d4314e8eaa4b811505faee9e935046657470747b9b1926aec366f881526020017f2bf2b5e166f58c6a9e8013331a3779c6feb30e1d18b28cd1a978b058af544f5e81526020017f0ce6e36426e862beffc45801c47363c31c3216e466420038970505c893a0669a81526020017f2af9b78cfd183f9168fcaf92fac16e9f8657a659d4caad8b7b819137c35d1b2481526020017f23a29e804b30f67e9c86d36eb316f90fd6b882647e31a10b047734c015f6ec1b81526020017f1e197915e8e8ff7be246a5fdb4a2e7f30a01808445270f466769ac3655b7ef6981526020017f22bfd46047486a4d87a25e972e0c223c1d05bfb1b76fd48757b771bd733c3a0681526020017f042abd7723855eafcc16951991b5a02d036f7a8d34ed2b37283c07696cd2166281526020017f1e7382d3142845481259071c3a59c29cbb9b00864f38ff5eae4ddd0acb6d64aa81526020017f2972919779c940a0c85dd8baa5ff3d7aa2a4b22308a040013bb7098e97d41b3d81526020017f1f06f26896f55aada08b721a14120b22a11909e35ecd92d6a931cb92f6420df781526020017f1a20bdd5a03c9db303e63db031d4836e94dcfa46e6530b4b56a4d3b3a1057b2c81526020017f0f0aed5f0a2bc7a102514e2b365f98f4a86c5eab083713d29bab27650d41bec581526020017f1e1db050b18a8a2c37e9f99d5f0b3a33db4c4ddf323440de54ff01d1e223f77881526020017f0b674e29cfb7271e66891d414236affd1bbd761fc5365d050d2b6d126147ab8781526020017eb72f8d1b7a610d48d3343ba6b482181257c49c210a0fbf5e1cdbf1a60bba2281526020017f02c8259ced54a9c688533e9b9eaeb569eaf751542e79ac60103f32bf1bcef10d81526020017f1957289d707f1dd7da2590b3fbb63375258e6579ddf0362fb091147f9f8c0bb481526020017f2482ff06533fdb2cf811e99f5b2140c77e5c40ff38b30bd258989700c18dba4781526020017f04b7a22dcbc30980805dde100db2f3e678119c2f0665a721bb69b64d7fe6564f81526020017f06260d69925f0d14f0f1bd55dda36f022fce39e0afb9c86762ff15f4c2dd600481526020017f22ddfc6c7977b8e378856053c9937a9058bdbb5e973e85bd6d0f4747a352475a81526020017f0998b88aac4ef0061c06fefbf4f662673b2e4baf08e0eb5dfa46266275ffe75181526020017f0cca8a08923ceab7ea9b96f31026d79da5af91746ab364d078d04cff86cd1eb581526020017f0b9fda63186122072fcbe350ec9d9a0577e73c4444f3a2a5cd61c5b688a5e13481526020017f20ce5c6439cdeee0d28209d12da8afc7f380751d2607727e577648c96d11b31181526020017f1534989e1359b044692cef79ce2754c048c5744e603a6cdc4d4f55a21fd15c7881526020017f135b35b75405d7a8df408d1b08e3945987d57bb7e86e128449c221a0c9ecbdcf81526020017f28bad1d6f47c3e136cba4adc41b86ea562b37daf34c718f8dc3b780fb7bd1bde81526020017f2cd272c9e7f925189b044e625816a4b7259c11d54d3ca14c3ec764e4b3f9f82c81526020017f13b8eb8506882d8f579fd3ea72dffd2d057db2c9831bf71f17218365f54c913c81526020017f1fb1702f9f6750097dc7d277ab4434b35096f18e505efc7798bf8d31d64a991d81526020017f02e6d0f462c028a3d589853e4311b88decc827d00ba27046629784a41dcf115d81526020017f0c986c7f438a6b6b9baaee09202dad5050a8f12876c19e8c638581195c3b9da181526020017f0b448e6a0e8498622d3a041117ee90d0d60163a162fe3fe4f32901d804b93c8681526020017f2e45ff0c27a2312a9a732db46c9d7bba6b692cec54cf18a41ea4b0569e15a76281526020017f0c3be1d8c225c32709ddc5f803676be015f59187ba77082671dfff63d7f2322181526020017f018acad18f8227f152100b6fc571d30ba13766f7903c5a2afc41f9c6053d9a9881526020017f0f12f3eb43faee8485b3cdce2c6992c4616eb07de11c58b540baa7ae2ee60a9a81526020017f1af6cab73719c97fae323f2f3c0a29aac8ceeba1681783ca1b3cac839e3a76e481526020017f13b8db33468e5575c74544c7ea9a5eb1c5f53ed73e7644945c667c0a40874aa281526020017f05199f7bad658d468fb4c260f76e2d4fb311cb8ca893d41817f9f450486a139081526020017f1de9cab1024013dbdffe72bf173964d331b4accc30f76e259ab24c4cfe9cb31581526020017f293dd14050c199b62a4067bb297f6e72bb420b65dd309037f50449d027a7c3ae81526020017f0e22a2a7da9766d967b098dded4edd7dfcafc7c036e8717af2606b33cf3658be81526020017f189fddd04750d4b1c23461bae4eaeb59b81b5c1ff3e799ba944506fbd21ddb4881526020017f2254e5f155f086a1542a4630f9a6e0550f4bfdcdd6de5f5302bb0a988eab1e4481526020017f0a1c79304dda03fbada71645fa8f74d742727b2c271caf053e0a9274830c721d81526020017f2f6c2c0345ab0f368be1520a8514677f88acae68f46b55549400691ba793753481526020017f1852bf4fbdb8be546319c2f18c373d157fbcee856986fa01152122b75720c33681526020017f1b6a3d96cdea3c76c83e5d65e5006f9499d856892fb1dcd0f9f5565bf26fbd3981526020017f136f685b3cb93957758af45ab4c565b41dd5e88e500ad4c56fe7c28e2857f5f881526020017f299852cef38875efff7c8a5d18a78112816f373a951e94a4e04db1a740d37cad81526020017f042abfe9af72fdf39f7f0cd1736bfd19ea61fddfd6f703f75c810e47fafee09281526020017f019937a477ceb92a505f81d08eed6bc7deee408890e0461fe51f17a87d26066281526020017f0ab86c1a5d2ab4032371cbf340b9653e0fcd212d9c89fed2e25f53fc0fa2747081526020017f1f67f8141c5f2ff47b46bdc7df6f725502f621b866e0714cda8a46cc9e2852d981526020017f2cfbb8cb640ffa3892b1c58e21efbf1d89ea048e7e7be1218824bc697e02882081526020017f0a762952d67cc3705ad306b78e9fd685b7c55a5741ceef96a6832a58fe63c67a81526020017f0677c784f7fc11ecf490018bdcd43919bce8a16c6a407f95fbf8341450683d4281526020017f23a7acd84958ad282d24d7481f7c18392fee5cbc532323d48d0d19aeeff9d93481526020017f0ed3788d491d997f127fb28484978129c9ee7bcc2818b20586ab018360aeb91581526020017f029b378b1de8c0a8c3c69860a7a634497943dd410177a3289b9fdbd777c603da81526020017f095f9693f5a28d86822363bdf17aad8f84e122f9031fdb9b6a5e4e64379f983581526020017f0d84d6ba0f05049ee4b649fc1278d8bbc11c7117bd52dbf12629435840cced5081526020017f066adf1a89cf8952f4030c50526d94b7cf2b53979c514ee75a79e708b6c10e0881526020017f0f8e545b98bfeb895f92c98bfc701d98f5d32f2981b10b99410ab7f4b3d5cb8181526020017f093e74e4f5b5d580a0f2080d2eee0401deff0a41a573962b4ca1e9d3f24f92d581526020017f2dc729b52adf10a2e85d64c6d3acd644c123deb84a6391b2fab8c7a01e3f89b481526020017f1bfa00559be1940769ed41b3a12d2f09fe59f37e473ec09959c33460e80d199a81526020017f2254b06a4d0b2a518d32335c0b9ff48575e15d8d59afb453d6b9c30cef80059d81526020017f2a7b206bea4d5da99e2f7a5a3df71a1e1a05bdd8269ac60f4ca7cbf9ddbcb00481526020017f0d15e3d37ae6870a132a8f294e47f5f24e701dd8ebd8e1ff8ec31eb75b78f2cc81526020017f0a03d56cfae4494e5d643eb34056256e5e0f384ef8f7e363f26693f264ec5a0f81526020017f10c74027baf32af1cdd86d366e4b67b4ff47c254f0ed1ccf6052acbc77c2b8b881526020017f144a8a6f9592d2c694c0b27db26d5729f6943a75d9a4a7cfd04aa52cd815d40481526020017f188baa450546065f64267f551af28a1c1641adff707f6170f21d07e324e0ddf481526020017f016b5238cb3d736efa0f6140391a00af60a7475ffcb40f4e86b80e218326933781526020017f27fe6cf71d1159f5cdc502ff4a5cd83effbd87d8a242e304f8bf29fcc3ab7b4981526020017f0c84f80d7dd6b6abc3ee2992103da40a401bbd46412f59083b65dbce81929b9c81526020017f175a1fc52806a315f9ba6ac3dd417a91b68e2235830b6f57c933da1e2ce16bfa81526020017f239960a195b90adfd7ae0e5ae7429120499ed47c5e7a922990040b41428834b081526020017f1827f505f3f46d25eb2490337f7727a7b22b741246f8a8c332f174ade98c4e0381526020017f09bfb217b77eae70fe4ff6c8db20a694d76f67fabbfed8b372598139a3c2554681526020017f219a4709c37a29b54dc9b3f7ae5363e8ae2cf93b0b5ae8fa24a688d00b86c0f281526020017f06e4212bbbc9a916e7bf85e73359a001884e026af6db9fa82ecd2313be696e3781526020017f08b1b7e85d3a7ea676939eb5462476b4b50fcbc74a0d2e746bed41a5787d680c81526020017f203be58cc0a1f7aa0dbff0014fc4147e26c93170375d1f736723a323763da94981526020017f2755aec549d09fab90f0e5f2ade9361530d75ac96e8698e41c858f2c8a26cb0f81526020017f218e60b594d2bf8e2cd7f9ef3ffbd2c9416acf09be87cb23043563f2e548c3cb81526020017f24234d68134d822d489e3c3dd6a67f9c0cc5c4e044cef6a62fbe695a8a7b007c81526020017f301f68325a95cbf787f37d80eb88accd59cf0aad280a6c6c22c13e89cbe0cdff81526020017f26508c83c6f585c3ce489cbd21d45889d9d0eb3473510687a1ec15f77a3e2db981526020017f0c5771187b53f64232c01fe94c049f398810b1adf852bb936a64699247d4126581526020017f04503f0c5c786b3d2c29a3de878a9b2c5d0a2b7eb19b15babfd0c105af49126581526020017f2c58f4abf5461c411a5a32098a250fc81305232959966757094b92ea687ab94e81526020017f01ebac848ec1500f52637d2791a49f92a88184d452b4a85970892492848a8c3081526020017f2b347c9a4ed8eb8e7b2cb3325a89b78faa1423ace194f339b4e964ae850375c781526020017f095dba45a4be32fa6275eed404932aa45cc570f009753760af5c36c4bbd61e2581526020017e2dba92283ed887b0e16f3fe6cc0283d8f412613e8b27a499bd4674e4b3283c81526020017e1a83c82e55c9d436539b88efc9a9f1e8bdb9d6673806c2902ea06af3fcbe4981526020017f0ba88c83615bc3c9257ac282390787646a6e129db2e57e8692fe754d934f6ccd81526020017f0fc05cca9c6337b85160133b40fd9b586d8eea73820ec728c7908ea9ec8091da81526020017f13915ea7d67cab713f724e9d5edd7ff0fc209271836810c1e0b1d18c0e9edf8c81526020017f2bf572c495aa4745b6a6ebcbc5d705f478ab79ceafbadbe60a3161f727d474c581526020017f2b682b48e53f541dc17f8617c3a62f12f50011f50541a52a30ab4090a709382d81526020017f09e50a801259690a823d71776b0b70b99ab8e51518844c64157b88c02fe096b481526020017f2e0a017750665c2c3da774539f65df0f344f366a39713bba592a42b6f3792a7f81526020017f1e633adee41c135793e21f3ba6429f600ab3b3686f8d2cda8c6efece54775bea81526020017f1b2368a9435b4a542b127e36714658033b67c8c91efb063d8f642e7751b610a981526020017f20498d803c980650d587089d4a946a976be1956b570922d9b0dd211a9f6ed10881526020017f13f4ea2a53a28dfed60a9f877c6408ff039c3c3eba72434b5a130a9c3d66783f81526020017f01593c768df7bb3070adcb78877afe064861daa317fba729d97a7d5a7eb1bf2481526020017f2ec21b748b02e47696389af6293072b2bdf1fd32fbb3614b306e4a0ad750f99781526020017f23b28d48af4b91468f5be2654b3c5423e99580f3b9cf4e7cc90456c9ca16bc3281526020017f2e2a3219522ac9f6d704866b478464b05f4db5a3c8d7572e289585cd483c727f81526020017f111a04ee61a6224e50bc97053d2734da850fa39be3dd4a5179766643e7aa623581526020017f0df9c85125dbf09a99809a8cc5fc29b3c2215f3e08af3abb8bf3428cc72cd2cf81526020017f13d806f347ff8fb549194dad60d2ba52d3a7fa275e87a0e44133a9a42922608f81526020017f21ab425ca64ab22ddb360d632fdcbfec71ed8afb70c6d72f9f28db655957d76f81526020017f066936f94bc3cd232bb6c4eb1376351ff6a6c73d2ff63c5ff0687c39d9e8b36681526020017f0385ddc1d65b46a9696dd505941d0025fcd7c824b7712e281c4e13237fdf933481526020017f1f9284cb08770bee10f4a2cd6cb2f23f9dfad22d61608ccbf452fa23ca68217681526020017f2498e619d8ef6a09958369c270cc457a8ca71443083e16c6e66d490dd8cfee0e81526020017f0d856989998c01a80b1c80bae30ddc6fea3e0030636143df4626b0453e46fbfd81526020017f0c073871d391446204181ba2d2b5c6e07e563300d6ce2a6677c38fb4d7a7f2cd81526020017f1ecdc7a34242d302731f2e98714e1fdc20ba2aed844db8d959c48aab2a50ce9781526020017f2a5c4e52b810e6db92fec966298c16c3b57db4d0c0ac9e6d97473810e0042aa681526020017f2cdd7d44d6e91ea31c1327d91e49b610f3964fea830d19f2688e628cbf12c7df81526020017f0713a18156af21c8cd53d0abc00bd757a036202682ba679867962de5f39e888781526020017f20e5d8d3df3ee0fc77907b4496ed34c4dc1f8be33f497c2315380b36a38f1d3281526020017f1719f9cdc5b682d3f135e71b73ecd140c1a3c54cafb2c92201efb372f767cb1581526020017f115e68c8daa24a51427c62d2fb36acae4496f1fabdf605168a11b2a8fce02d8681526020017f2553b19cbd4ced29f3491e7e77e8934b0c691524ebf9845fa29c110bb62400f981526020017f1cf1804feff8dea8093a5b85882f7fa2c101f5668ad656b3cddc8ebf8e1347e881526020017f2e039cf465f78a208b18c79e72d847d63cd99a5fa49d72912fd9ff924d38e47781526020017f2a6e5284dd984ecae91a275b98afdeb0b50e3552221ef88bda9a93a5db8a946681526020017f2cc3a111bac25d8535a49807b96e5d5433609903d80db0bc0e785544a1b6867081526020017f088eaf8e2d0ea48ab996cd4a1768518355b430ea59ca345352e03620f39c019d81526020017f30571b75a3e8c1c4e2b9d06f921ba8a84f29d28daedbf8e223f3e199b1fda3fc81526020017f12637083bbe71dece82b8d0bb2f615db455b1ea0de12dc0392f96ab78b8c7d8081526020017f05ab8543fd2f1001a03571489a03dbb69a5e4f19b66a78175a4544e1098bf66781526020017f09bd1178744718016665251fa317176f90e196351d8746276a61f9510319571881526020017f0b82e157af9fc2f2bd5e32ce8b0ce74a30558126fb6125dc9336c0cc3af78e6e81526020017f1087ec97ba86310b188b2c78fc6e08bf6debad64511adf0289664e03d25e80b081526020017f1c3d32b7f2d06ca85007612cc2cb21bd2a762728ca5d5cb67f270c7b746b806681526020017f0b5ea17168d011eade518daf660181780f240db7baf6c2ffc3185ec9dcad43d581526020017f18485b0897950f2705556dcee45e9028c6d30f520c7037a676ed7e6c359889f581526020017f0c76a212dbb1e000352a705461e965009e24ac0691ba00d3520a8e67a2848cdc81526020017f11b459ad01a5d898a1879aa55e47cb9651d77f97964efe3af646271c072a140f81526020017f1a2edca35996f9e2c46a4f71df2b4c3d34ce6e69b440ee1fab8b38d2ebab662c81526020017f1d27092c332ed99261ebbcfd863455e20681cf7896b90e810a26c4a17c78ea5c81526020017f1f96cdf294eec6aef989f4329f0aaaec7f4dd934edcc8d364108a38c1df90a2581526020017f10def1173cbf3b80e2cceb4e479038dc726700468e071d441cff5a0f67bcbdde81526020017f0bdd5239cc774d821167b9bf4c76af9b0590fabe13683582e272f3f0668b1a6c81526020017f2db3045ce96c312b5f086efa1a461be90b89d672be1dd2ab0058a56357f4c01981526020017f0dd010bd73fbf7502339fa70e402f144ff8e59fb16e8d89dbc5605039611093981526020017f17acb76eda0ca15ffda18fe2482edb7abfb5acac61c9c070e7f2d218e459828c81526020017f2c44a8352ba0ab04787125bfa233141885c0f554ce2ec22f60cfa10596842cd981526020017f09260054fae8e50f4606aa043b3450b45be90e221055b5257a5969ed5782b70681526020017f0ce4970b312e9b9e51f0b262c7bb7c672a6c13156f8e542418a0f88d07aa0b1781526020017f1ed4ea76dea2d4c1637a513ff051d084c8e1803d77f4bd86bb442111c12a2a6d81526020017f19a54e2960c81d281db2c465e3c26ad20b587fd20c306dd453f0f6737b2aa03781526020017f0c4ea4519ef484bebb38a8d4042292846d6a4bf03dc0bbbbfae6e307bc1b14b781526020017f2af1456db13af97d93e8a4dc65bc3fbdbcd8f01a926fd63cb9202996c037cc8381526020017f2244f0e929a36f58c603e53a7ad03b8971e717fc15fcab3579bfc7f42b2db0a681526020017f02f65efac7fd282724da34da379adbc6df62acb20e99f5b211804a2aa62cc77081526020017f0416a2f1b37a12f5f83fb9db46fb2eef4f52395ea1d7c9e1a2db717a80eef3ed81526020017f0352aba163975ef2ed58c85792c17e6dd75a384672a9d1456851980b1d3deba481526020017f05b661226791939d93c10a30265a74a5886fb14daaeda8f19c53f53589a5bc7881526020017f2611e167e9f57e9c52f20ef9b0f7dadf0a97407ae6ad296b8e4bc3476b70e9a681526020017f0ff9b6200b7fa9e8b6a9498ade7719e69878eec74c5d7204e0d48c213499c67d81526020017f0fd3c3aac2ffcaa8c4d847717ad2a0ac3bab0a7b95badca42721349a335717dc81526020017f2954d2edfaee6857a3fed23442880415956db9190dcf0d1ada9ae7dfb25a9ffe81526020017f2a783137c7cdee984ac25d08013353ef9a94f12dfd2ad9ed73650d56e2a4a3a681526020017f06abb8b477ab9670d1832e5d1406d3fe6a8573fef6e820e89b96b708c243789581526020017f059aa146a9fe5707c9b007184da2156ccc5d2069060ee462e6dfc2368d68985681526020017f235032d93596e205800cde14c31b93cf53a218e9b5c881d9b9d280082c58411881526020017f09781e4f25cb7fbd63f2113f0597c62254555c80b55194c34647e4352aed2f3881526020017ed109244657b97217b2fabb18d43a8318e2c250c7df39383213ee1999c194bb81526020017f117bae1cccfc58b7862924f78c88d36f3832fa5ae6ce7cea3002868f44ecaffa81526020017f073f76b2b43976c4d84a880b88ca3653ae46ea361b8e8dea5a5ee597a2ff56ee81526020017f08f1aafac24a85779dc95eabca12f2abe33c1ca9f88b5a6832c66144ebd8846b81526020017f263cc6fdecc318e75343e29f86728f2b469014a1062bcb51142ebc4cc328884d81526020017f2fe2e646cffe23e6a64396c015247ab78ebe1314098e2412af3bd12512c520a781526020017f23832de24cbac443eed4e1ca6e6f1520c9c7dec7a9aa98f99fa6cbe1278b6d1a81526020017f15c23fc100614b916b23e678b690288d2ef6cd80af62820e32b4b0bd144f3ace81526020017f0947b3de19c56cd57441bc56f4306031be1e38ab453171771c3a96fcdaa1363081526020017f1936a3f27a2d224948748a0a398b21082a671af42ddce7912cd29a51d282d81881526020017f0b95d8ef44e99faf8e132f51046f200ebab2fc524e58687ceb8ceb4ef0d142d781526020017f18b6b3e29a97434672aa4703e5330de3d4be674c33c9d940dcfb24dfb6747adb81526020017f26e68adc3bf56ea8809c3655ec7e666dd2e3668791df3ca02091ab105c03795781526020017f243b3e4267b24292f3fec43c9a0151b443de801a4808b98048757bab8a27915781526020017f105dd0716faabb6c558da498020970e178928f1b704c9d7a1196f6deb4148dc881526020017f0763b9f74669c1ddf7a8b71ff9ac7b2af4f0f4e235a666995af8f78b200b895c81526020017f041310c25e7e18bb7a1a92f58b22408e7aab8badb226eff360003fbda8bce06481526020017f1b530ab3a92c79ce91ae2a90e9685e9909c0b0f2f0d84920350047a269499f3a81526020017f20eb7aeaec98baabea49ce2cf32bd4b6ca8b7779da2c7cd744b77cad00e5e2b581526020017f16420bfb0e1f31b0f3d75b51f521644744e5ab1de468519103941f339cd0776c81526020017f1ebf8df6d6a2e3f233963cb81e0701cf8a7a45bf7a177e7012938bfe25b45daa81526020017f0f8dd3e45121185fdf929fc8ed3044ac3d49ae78be7ae4d27d121600e9a6fe5081526020017f2d5ead6641b9bb498d2b29668fba98462a8db60e08672777a7d24bcf080bb1cf81526020017f0b2d0d8a88c552c994a690aaa9b367081a2ecdad9674ea8a0f42853a7466c49481526020017f301c0c315facc59058920796e5c7c96d657d42391431263419c06a4bd66f5bb481526020017f1e3c2b905ab9b45d9d676c20ce6e736bcd1f3f038bfdf07ce1c584c75bf3b35781526020017f27bd0698e936a243becc30a5c135f5407384f5b8f81ee1fecfd6738cd5ca79fb81526020017f203e9dc99354eadc8f4e991b7c648b5913e96b37dd4eb37b8abd8f319280107381526020017f2d99cd894ea68b4e4e65012160ca0e1c6144acc46797d95db99b81327f7c89c681526020017f2461ae22b7db3cfc571a9d1fe9e90066dd3d9f1d2bdd973ec90b61e34532512b81526020017f2842cc67c2d6f72cc930dcbc4a6a39b569ed00a3e3b3af043a32c2b254a4063e81526020017f0d1599094cb469c1d28606b49e1b31a583e8bf7b60239bd6c5fb2a99172c10d481526020017f0fbfdd81cf32f69fdc64f594e7f3f4640be5fdc0408525f63eabe51dd336708a81526020017f2dc1a083e28b6ba4a0a4781dd80407cfe4fc74c9d4405f18e71a9af8fb31f1ec81526020017f1dd53ff68bae75fc0accf7882243d50a96d46916b381277b37f77aa771a3475d81526020017f11eb146c67fc0c34d4f54156ae3e143f502ccb5cc0ca796848c0387ce0f3a37781526020017f15abd18fbacfdb604bf8078708163bb8e3bb8d02be5e6607255630fc41c2aee081526020017f22da42b138f8a5150a0842b09b2916e4bbc367bfdcc66fe9f0efde7b34dbdc5381526020017e8bf480f9ae6ff49259528397922084cec2b3d240e655fc56ebdf1ba58efddb81526020017f036cad002d7d4c1a11f214f99f1353486d8bdd4cf1f2abb210f8dffbd44dc21281526020017f249e44ba1a3a889a2ddc90aee641d49341d8733d16b4068cb4faa3a20fc4408b81526020017f163c3e168faca2f713d9433e95b1efcef7b30fe1ece18e197bd39f9834e16a5b81526020017f1d3a4eb6826e35cb4e58b2e0bd0142efb74554dfdd1f8f324709a5d4fb97012381526020017f0ed1e28dcf6e81048722ab7c84458119cd953c24bb074157ac6c5d94f9a85e0181526020017f19b9cd2b53657ec1793ec07b4f3ae88fe502e69d61afc201f9becd1339a0ea7081526020017f11bcf0c2fc53c56802e6b31219f104e8d6b8f86895da500e5b48ddc3971a7d2181526020017e3d1f3453ac2f727aa4b452e2cdd6ec44bf57853a6432731c9547606265991581526020017f0c8e27fc7404e0df64cfc294ab5e530ed7f540e3a68725269327b23c799e6e6a81526020017f0c1ec3b1fd1efa4cf2c92c077a91af66980b667d489de1dd63d2483361d2f50881526020017e6ed054bdb882f9d4692975a2147adee27ee777775093856b74853979e6b0c781526020017f0e59e5f946670e2c8af2c9c0df21687dabd7db6693dda816efe5b275350cd4f081526020017f270fe111be7a17678d8bae173be6cf1c444e33822a8c253b39b10f90aad74f6981526020017f098dcc967eda6743fcbf335a21b02999ce7bb454fb7dad07d9874ca417b6744e81526020017f0e2b2ab99a7faa59fbb36ad2a3c49a9b5b864fbee6bac4b1cff26f921db4323481526020017f0981ac3dd6829c2a448409a7af5ccfdb0724102aa2440d13b4da6bf313fce7dc81526020017f1707a58f9af0f7bdc80676890c6111eaaade811ec85586945a6feb3c5432ed7181526020017f1328c8e7f7d79fed9a2a85debf4ec8209b0608660cf4773ff643c4ba3093f61881526020017f09a21b3ac08398dde9d8d4cf5deab6887f3cfc63135c3c161671725e24a7ff1d81526020017f146e3ec0db17f2e0965b7f181ee3785791229594018db98e117e79fc420e90f281526020017f1f6fb7f344672517c75017078d3b6ebda35c02b3449c230cb1228dbd34edb8a581526020017f07861e795ffe1eab63f03591188c32cbc214b3cfb6cf5574e78643e65a47412581526020017f279504a116e42d15699e992a8dff97ccba48145ba95d7f82ddb93d562f678b8581526020017f1ae1b161dc59fcb596fdb027950ceb993841adc06661e0f124c4558392051b0281526020017f08a9771a1ff4025b2a22e466648a5975b3eebfc7ec20ba80e85bea5b99ccf65181526020017ee2578b2eff9cd757c5e329bf60fd77453070f521ccb4bf2e4b6b71e2f2402981526020017ee24304193e3ff8fa7db8b2affcebb3bd46a38790a2124e003432a824fa284081526020017f1f845c44466e3f3454089d96fe9ea6321b414e8b5092b4eee0ecbaec5e92cc8e81526020017f29b0c81be91dee35d2fe2b4670a7fde85a28aceb8aa23c6c667ae6fc102093d781526020017f27c2e85715306a478a3fe6c0f91b15b763bfb24ac55b59780314e62ed59505ef81526020017f2d15111f7a471f9e9f02b48bf10cbbe100a0cf6c7524c35a681f9bce27115ace81526020017f07086b108c1525f6166dc3340e643b328a4bebcc1f257ccd672f393cffdc65f081526020017f092728fdd862b30869efae53de49ea101058eb931b54fecf8d2b2e6818193a8f81526020017f2d5af06fd615524fa9be0dab734e74cfebfb41b7224dee1464f0af2402a8be9a81526020017f1633ace80bd4c4ba28b2840e6c8de34c102ef8d8f60b1660845767f3dc0e385a81526020017f20cee63970a98406b41c676307a0f0bd6bb71ebe6b9babfec95270f6ec52195881526020017efee5c94cd2dae9266866d73b775402181e7aebe3e720b5e45614b7aa39e84c81526020017f130a334a834f6ba7fe80114678df6208973329f17e3b4b68f38a43ce330b461d81526020017f19a6e028938a90a7c389cfc935bcfe41f780a21e96f7d20635cb4c04e4246d4181526020017f117b21797e843fe7aa61e58436b78228e33f47b285f28f40c83df132c09bdedc81526020017f0bfde5a0be8d10919a59a9492323cd9ef79f38c06831136b40402886df79b79f81526020017f0ca3a942dfaa90938cfd077d495f9ffabb519c6b5e7c9093d008eaec1d82c28381526020017f21fadc62b4bc3398f2f2428c5ca61f2ada708591c9f716b2d9535e2d9874bf8181526020017f01e3008a7d155ca7a503147c3757f17d1784bcabc0f5156e7742e2ba633740aa81526020017f133f68e3d91a1d4f95c178c00c16de384c63761269a98099b5feea51633ab5ee81526020017f0d19a2c3a7c2d4e63ad3d42afcb4c85cd28f313d7be03691f29f6e0ad9b7ed6f81526020017f1e9ef879acc8ff7dbc24a14388b6ffafd023865943f5a807d8e0e45944d5d0ee81526020017f1e214e8df8e15cf64eca28f3a14cc71f00e14eac2e17f59782b91ae35bc88dd381526020017f09f69eb2ee97312d23360a5fbf72a606684e941d5c0e98af5e3817852cb08c8281526020017f26d870df343c049a2b62e2a8f013c4af11e12526360d14edc6d3bf7092a68e2e81526020017f18359c83422dde3f1ed886b1336faf68402bf4b640d9f7387a502c4968e4204181526020017f2e8a05bf4f1fc8716f706a5fa19197b0c0550124957de2b16be20c3ad9accccb81526020017f294e1b3a5133f8703529dbde375ae7ecd943c032397545655e20af85ded3ec4181526020017f17cb3df0d5d8806b89e79c3b873ddb8ab5b2f4d6228e1d0f4b93ac3589502fa081526020017f19beb5d2e2a86cf3a34f03f348518222b3dcb93aebb0a0a98a74e669e3f6d12881526020017f10430ea1d003a0fbfda437d788070169fbaea6791fd2103926d1e2e88842f61a81526020017f031fdb7a38b1ef8682a3385167dc9ce5fdd42c309cdb686d956b3276a5a7709981526020017f2deed3c9d7406da5f32a3d640f7429653cb92e240193a6cf37847e341cb3e84d81526020017f2982ec79bda8031fe898a9d8d0790696beb11540c118c3143730c511381955cf81526020017f215f23dc1b9955ace96d561e24c9321bfb1bf9575c5afcd6e90fc4ef6fe3717181526020017f05ad74c1f4d533e60d2960d930b16b945ee8134a76b9284b499365c1a56ab89781526020017f1d45a22bcb55301b7f0afd3e773057f801eb6615d258f9aa18098d42942f777f81526020017f0ce91fd723d4589673dba5df25ba0ffe650c9410b14112d5641e7bd7b581da4f81526020017f2be410703191e4556b95db6ae13bb0b905a9d2838960656db3eca145dd714ec281526020017f2d9fc4b9e014b3f3fd48f02f8c3dc241c3b1ca4d1fb6870467de225b668aa04781526020017f2cd12f0f4af0ca1945a6339dfd9c23d87a246cf4533f0d50519a201858994b5581526020017f2dd3dfe3da9a3751d133e31c20ab8ff4856d0945595096916a6357c978012d7481526020017f13b6e8c369939fc7aaf2625787e274fc9ac7d4bfc3ff9e888ab1b623a947cd7181526020017f0f911c419db041b4c5aed248f2674e69dbacfbdad99f94e2f64c33d3e713d13a81526020017ec249661cc730a2a5046fea742da74da83cfef60a16e4b3f4c7cac4d28e9f6b81526020017f04009621cf4654044cde39e2429464b4c71238b49d87aca504b89d049aadfd6281526020017f17a76a607aaf4a8c10d7eb5b1731d53c8c11eeb190afd1b3524e3583131023b281526020017f15701325609f5ed5a79a05fba24274990c70d06ce77ef58eb78e381640d3114f81526020017f09788fecd5318ec2e022a81a56b899ce8256be03e77c5f7134e3d0e54792f96b81526020017f22591bade5792fb8fda2eb61e780a1e838ad463fc0c46cca0be572a9b1369fad81526020017ebeff61413c5cde5f936087ec62865294f5f392d79d8640026a8344e2eca97681526020017f26aa92480100c0835dfce4ddb7046f6e3fec3e506d9744c695d37ce8c84fa33e81526020017f18761f8167f52896485565d751891ba994c858c971ca85481e98ce710d6fc13481526020017f17d2a07e476ab8efb8459e29795ed9e4b970ccd22c703bd6e9660fa73422194881526020017f05a1fb297916b87bbeff2b4dfab937fa6011b7f6770113e876a120ec60766d5981526020017f2c5c010f830e01ba7ed11175ff09ee4a9ecd4190d060a4779a5c1a76f63e74c581526020017f046cd0bac7e92efc823c9aeddcb1a9b02b426e4e25067c023bffaac1023ad07881526020017f1955cfced2ce6583df237877919a15c254770179963ae375198e117b610f292e81526020017f1cba41d81716cd5eb1a182c6f0033db2b99f7919dfcb1555844916c76e02473781526020017f254464c90c61b4ef501e9db5b634ea0d01c46794263593b768fbd48a0864f06381526020017f0d5007d9a6d156e2d17425f02231c0b58382f434384eefe926d101adb1f7ed7c81526020017f272e25816e3056b0f470d17e4ffcab5013d9bb4bbe99bc9698f60242a0a6cd1b81526020017f2094ed13f3cc413ec0344c594bb6011ca0e0ed4db307dea56897c9cc2ea7e4ed81526020017f1a76974bc3766de117ebc99d2f1e16a8d69d29d694828f3a44cbe8bf42791e1881526020017f1820ba15764d08237730d7da6bff5a1f59f4800e9b2ceb6b1d99e31e2b3c600381526020017f25967c94fbb8a6e12474d37e692cc99badbb9bacdf3696d0269fa688dfe96df481526020017f0524ad2bb6c81bd8fd242717b26eb3997750071aa688dc2c7449a9c128314bf381526020017f2ea23f317ca7658a4f245fb5744f60ba3673a43a399d90066dbd6759f3d8fee381526020017f1e2f225c62f5f8b93fd8b14c00cabb65a1675ceb9bf4577507a2dd3d43ed34c481526020017f16b4d2aafcfda52801a3985ed291367540f94f90415ee74dac3f9ab307995d3781526020017f0a3f0d41d755c8201e0c9b57a884204b7b5416298fccf6f05904c51c102a1a6581526020017f25f00bb5eb8ef272d2fa8ba7719c2ba3f38c1200363de134f35d984fc1786bf081526020017f2984fa62f79ba2f5dec616ea30742de37cedabb21732be338bff832e1b2d810b81526020017f05e0e716c6135200d728d2b11e18b5434801015d05140d4ada9b69d5ec0e634081526020017f2b73aab22361e4dba13d3ea29ba78087acfd5dc5f8b1cc65f53d90a5e9bf1cc481526020017f23a3c6497f3fdb0459996534da61cabd3649054964cfac095f46f7df953d29d281525060009061019162003b75929190620167e0565b50604051806132200160405280600281526020017f2db09ae9bc0cb9addf3404069078f0367ff42b63cb1c200bae5bf9095585b69c81526020017f2d9752d63211a5d70a2b923fa46323d9ee4b335214821c4e28335fe4ab36f5f681526020017f14f005640195f5f89df1e6dc51989230df0442430d01cd6a18c67eff66ecf38681526020017f1e81f1130cc3189b6bfa7a56460f965c84f91cdf8c8238e1e9e10d35e5fad59181526020017f12d8d1017662fc519f3c5a38dbf873e4297b9d19cfe639c6d95cca8b41d091db81526020017f01cbbe3f563134843af9b1631a9b217d6e4730e7b84a651d9d6495b08516292a81526020017f1ea17f01fdc7b1ec4948eb20f84fadee855467188b38bc9b51becb785c09882481526020017f108f22a5e997467a9ceb07c0a8bdfc0f818b7a4806dae79f5a21bceb8dfad21f81526020017f12c47799bf48ba1b3f368dc408b26551429c5bb25c99d9a651614d3d7464660181526020017f2a5b4dcd28243661b7cbf00898a113deb8d6a216078d95215e18a9051256cc7181526020017f1e6a19cd4ef672793545cf0e715200c9cf9e7c49785f10482a7136fd616e4ce181526020017f18f92db45a14f2dd1c715b14fbb84a5ec7962b31c7e10919780b7f6fa683730881526020017f2f3bc9080dba3661cae7cfab17655e0c8f02c58a275442c705aa5e579075570581526020017f27244f49d0cb70b9c8b5f8ee8ad6c10e6e42338ad163f92686e24a5a1d2cc14381526020017f2195656a9e7c33c40204677c1508fe6b9aad4860f6eed446df2465f431380de281526020017f019f54a5fad270031f70a506788b7e9af4f886439af24c9f8bc9be51a0dfa53281526020017f2b48cdd313ad91a00e67b05718b5aae295389547dd829765faaf7c55512af47981526020017f08d36a5e8999c5b1acd1d628b0327729e68e8c1d0dc152e93c6764f9a2c622f381526020017f2be26bf1b7cadc0e11514ddf409fccab3833c984c9efbd96ae86eeb17c2f39f881526020017f0762fd95b7a3b9d29baccac9eba605269c76338f1f36a1959dddfe82ea087a4c81526020017f1ca2f6af271260ffe7e704c58a6468cd61f473be108a95e65081b5050eff27ba81526020017f1fa9dfeccc3476072059f4977c97118d9a7acdd82364cc5248d321503b560fce81526020017f1d1bc3f74df4cfcc385f699ba42b2a77af67ea65ed8bf5f55924f12366bbe03a81526020017f04775e090a255cf36f4323e698da6aaa5c0a6b91c266ae2460355d45e475416481526020017f0b24830166cae4ac000452ee0072253a3d7b2504593a610c7a6332e33dac5aba81526020017f29aa2f849123b2ce3a9e808294309502a628a358eeb6eed3bc3ff4359fabc1bd81526020017f131752fe33ffed35294da381c4a559282d7d950ed35cfceb0f52606959d3e4ea81526020017f2c2e2ba6ad9a4d3c9ca344d3d10a37743d1287de620c9f39ef7ac2e4a21841e881526020017f16e677558a5950b4160339a16082f8ae9c69eb23ed25b7a71bbc7e76d802d7f581526020017f0dd1520c5309d2dad98c3d93a307ca734394b6b016fcd567ef92299bbc755a4081526020017f1f069a243fe0480253f7315edbf6d7b70659a0f079106db06cf39c78c592bfd681526020017f1a533bc573df768c7ebd44647e4951fcd0d1c8a744b9c540436dc3377a60815481526020017f019a0e16af63bca2c722e199253320572333ec9ba76fbdbe0015d1560faba34b81526020017f22ba7b8b4dcab614aef6bdd61a2ce0d4a598b08f1f67c068b2cbde9b84a87f2781526020017f29c792607bf3338cc7b918c6a85f8cd811c0e39aea1540bdee2294a01b8df99a81526020017f17e821180815182755c7f916f71416f853a3f95bd71303db707573373ecde4f381526020017f2c9d9059cfd06be4e01d22438f5021f6fe1b7107a8338d60f818ebd591c121a081526020017f1ed1aba1a71733a2e1ca14cf958ea4e9c02406cbe171c9afe2164425d96b03de81526020017f081b16cb599bb75a11f96108cddcf1663cd2c8cc670b809b5bc56c8a44c8234681526020017f2566d29eef96a7bff66fe723e785a40a38fd15ec6effa6d8df1e258235e5328e81526020017f05096dcd33ba9f017110cb3f1a272ec2aee026f163e8301e484f32d3968779a481526020017f1a4e25ad822cdc7b4acb061e1376f8fc08bb31f2ddf4691ccf792f075ca3976d81526020017f080ad78e6f4ed5b45453555f7585f2b19fa7f00153bf5142541a1a8ee614396381526020017f09e16d743c855aab915c7d489768ee811b8475662098a09fc1b45810e176c53381526020017f0efaed440edd7344c648ded9a361bbf310131b813d9af1e6d04d8f5766bc71a381526020017f1a6758d85fda1aaf7f3991a53da6e41b703bb98a0f29e8f23bc17e6e6ba8884681526020017f0ddae2c8e2cf998577a902133c1a62a86eb5aac7e9a0d23fa9a41fd04450bcc781526020017f243a70e6239ed38965d9c780a6f0000426993e1f8a6c6425d5e8fe832f65cbe381526020017f2f1a96a5436050c587fab67d64929f38a3d4bd3c38f1d6429eb1258ee2e7183a81526020017f2c553e984e83d566ab5da6f7f127f9fb90c885d972c7deb16a2df110a14b23b881526020017f2c829b65a7ac0b53ab0516908a6e801d2eed16d1a8660c6dc15dd6776c3f209081526020017f03d57b6bc8f8f7cde938ec366665054bf1579c0a4b61837e1460942de2da0d4581526020017f1432bc74da0b12f5e259db14938739c452cf4f6c85d891670b181df2da7a67fb81526020017f05f354b3507d5b9253217813f692f512fe5103ddcccc54f2506676aa901ae1ba81526020017f082412f2dd23675e2f20658caeb19e0e818a41a81d6a71be3aa6401c680f770881526020017f2d18d24424d26ddc9cc58e86bc8b21dde2a9a289139953fb5553cd9ede67f96b81526020017f1863426e414aa82207c8373707ff8d26c3348d4ac7c73153ab98673d60b23a4c81526020017f1de86572f965a1049df961ad9839d9d21c76f24e484be0659a9ba4c30f23aeb781526020017f2a1f9d177dadcacf48794c70c80a01c1e787784d67f3541666701c2c0a84bc0e81526020017f126543479f6e2ebcb644757899e5744e09b393475ddcbbb57f6f623180150fd981526020017f0d1371a04fa5ae9ca4e1e556394d2b6e2a77096d073026687f4aed256be6b9d781526020017f123ea954d8afbb6fdefc52dbb7ddc2bcbb7eb6d9df465eb1e7fa873020bbf4cc81526020017ee5a992aeb141c475cb8ca7de94abc1a36b8a0a5dc522b0b826192b8289746781526020017f081e12b8fe1259e58bb5540b6c2b6a150c29a25cd89ad5d0f342aab454c3344d81526020017f2fd5c2be758de3ad6e2fc75355d917e70eb434b9c59c6452a8064d39147ab5f481526020017f0726c87070ecdddaf2d5851122076c445ca80faf96abb325feb2bab27421622381526020017f2314d0ea8c8a2a86d1fe4d6d4faf6c18df62118ef36fba43fcac2c957e3306bc81526020017f1280202d50bcc2860d69f36e632db5527d98e9c66ceac20533baa3865c47336581526020017f1197de8dcd04a78049af371625c42bcb27ec915df91ad69b67cd7c78fe52cb0781526020017f15bd9f1ec14e0afd21b1f4a470ca7da8ca6894b0cdb059157b836db209f0993c81526020017f27211c07139459d79dec3fb38db8f1f3593a788e30eeeb9e7577f30077a07f3881526020017f2af441fb3e65f1d361039fe049851debca4f81531230bf9ba6557e0d766e795a81526020017f08330936a2ab54a317a922b145ebd153426019a0e8e06be71d9325607d541eb081526020017f205b54bf361e057be8fb871810cdc8fb6b5f510acb7633492bcd3bdbc1456fb881526020017f1bb11e0f91b43a92c704012f6f7dd2ea7cde44935b74688c27311a2ec50890c981526020017f0f3bb51c5d4495cadc671946e926af9169c87e39d2d563f862944dcb463a2a8c81526020017f217a11a3426b6805f637fb74e9d24e74366d34717fb111e39bccdad6b24a474e81526020017f130986539d0a459c1b34aac6b24dea7a8f4090949de9de369604c69a8ef4fac681526020017f2c0e4072ec93ba721b57d59d3bd451fd99b469ad7fdea0e86f347c51b645970381526020017f06d610532c8722672b16010f29ee8e7d0d27db8ceba71de82d19386be61bc8e281526020017f2089f21a4b2ab308577edcae8c0abf2209f6f17885624bf64baac2c73756929081526020017f30191eda7b6fb28fed890da1c6db54bddc8e65b7091d90a8acc20accc526f7f881526020017f0373dff873b95972abfebd98ff899962db6474bd6a2851e6a4416254399266b381526020017f107c41d11c4e019ceb88bea8422962288883535e50eff6dbdc73b550e561d29481526020017f152ed5ec916ef938a44c411977195f45fdf0f67ca3030571a20b17fffc64683181526020017f21cbdf68cd461b14fd03293786dac542b31efa92fee19c6a6baa0b303f627ee381526020017f107cf859e4a4f8f3dd790b7d6f16ab5e8873c178bd3e028b5a3eb178b49ff90f81526020017f0ba0e8a7ab17db3497651f2f789be9dc7bafdef658197b23dd96f91cba01939481526020017f217e6ae39a0fa7d9d6f5b516752ace83cec6898b39585d6ffc5eac9ae62bcce781526020017f242f5c27922365c15a9065c456fdf9481d06e4590a8526eec7c50e432395bcd081526020017f10d9b46b8137927c3020b075bb854e431623e34c342b2d65d574c83d1776a40781526020017f274ada73373dbcd6e18f8843c13668d18e398b9553a7d7a635a6d3d6ac48587081526020017f07c12d6c602971338bda52d31cad9c5dd6d45ea87783f269bf2f66a1a730c7ca81526020017f132021e1a41a0cf88bf8cf9e617860dde9cf1f00a0afc29dcef738bbb69add5481526020017f0b20d69d5a23d96aff001e9bd578354cfacbdb7c6ff7ba29c1d4635b01905a1381526020017f0188541798acc7378c4db725c5875a7d9e84797e919a2dd8a6b3a507d958624281526020017f2f65f974e75d7d1a9ba20c7cbd322e67a3857011746dd7d5a65061022f6292cf81526020017f1b2917578a6041acdb813d979ee327bd8c5cfbfd610d390ff0d5a99925b9a53e81526020017f1997453707ed763dad70ac56e3f60ba5d2fc9166c62aab6fe89f8285920bea1781526020017f153cdf1ba18bbf057165b70f315188461330c423709dba99290f22f57c37abdf81526020017f04426f997bd25096cd9f380bf7f24a8fda75d8240c758c57aa8b60fca620137c81526020017f0edfaf5f545c911ee5edb30fe95545fc19dea43653595800c62f350c4fee2f0d81526020017f2a2b180d1a72c362fb00c2e4566127f3990e2ea9055c01c07ab5a657ae83a7d181526020017f25a8b7445c293b8bd67a2a3627a50f14a5fe9900354c81705626705bd63293bd81526020017f119b762c24a5bf21dc29beeb268d590229c216558628865a53022dbadcf534eb81526020017f03525140829f62a66e8aaf1fd78a55c336a7f12811b96669547cbfea693ebc8e81526020017f25af1c49eed8a870c39845f5d4ac32375c897e884aea04d29da0cf97fd8a139f81526020017f2d4b40524a9c0bea6e3fedf1e0eb36762f32c44fa99a0b9e1e7448f7f022c63081526020017f2550df2b92c2cc4cca667f71c2b09fda7838b54ed4aa4d85e3470448274deb0a81526020017f2fa8a532ad64e8ca9632a54d16a7eb00a1456cfd737763062c71e5ed5a84e39881526020017f02a0cb124c1ad268c6de724dd56d17aa4155f3bd66958d14f93acde0436fe5e181526020017f236111d74f049575fdc4c2ceffa776af983bd6a09de5dd99a08073e202d97ef781526020017f236396a271b937ced1f9851c024b30cbad0d8f55e9d9d92a1192bff7496cc85c81526020017f074710ce50f2810ed4b2017e063dc36bae98a31a098c49b7273a8b46ed398b1681526020017f0444d24f478bde37c256555db11ccaa7be4c29289924cf4c0785b719e1f8766981526020017f109ba1eec394015e9911b6d761691c1ec9abc2c9f89091696d7b36be4758130d81526020017f17f55fe7450a17ea02b04781d42f1811f2e7e3c19b8354751a4ba447279f981181526020017f05c4b358643828987502ca4988232a9191652ea72596829d1c11627d7cd366a881526020017f2b6b61d0626d42dc4405a0c368811bc84b70edc0c06fd1fe0c54b6a7b0a073d581526020017f1265d05568f862a26795b60c31c872b8946014cc2f61280aad52dfb41b4fc1da81526020017f22c8fd72a471c75b2b391308d71e47dfd6dd5316f34a13287f1e0fb5f64e795581526020017f1ca4445fa9ebe5207f7665229acb3c6f12423f45b821201f152ac8d061ad528f81526020017f1bbd08fa70f0b5b4c3d272f296a357a087f81a52cdadd3dd3a534cb3cf2085e181526020017f08e748f8bc780d39f52bdcbfdbdd56c3972158151f180984b62375b7d1b6739581526020017f0177b771fade3434d864cdc05ce2da33acd9aa3e8b03ad63512da3ebd83ce41681526020017f24cd20e42482db933d67989387896edc219b7850c92b9aae404bc72d39162ce181526020017f16b348d436ea88a6cd4879460986eb0e05d94733489983a52bb52ed8fe24b8ce81526020017f1a1eabcacb9076551c93a6c3af98e4b58bac8e44379e1f395db4da258c930c6d81526020017f0d9d4d35867d46e5b43b0136e2e72d0e79f31771deaef438a7837bac824e3e6281526020017f14fd7ede1531ea912602c523bd372cecebce895a9f438eb4e8603e4ca7c6797a81526020017f0cd773c0454c0348c81f972509578ac68f60cd9e3aae9b2aa7ac9ad47f0e17c881526020017f0454a9c42d409c9dc35b5ab472834f0fa0412dc636b3038f3b0da5cc63b86e7081526020017f11911547238325d0fa564cc9b1d56db80b952926163e268aa2282ab2825d1bdc81526020017f27519329fa38fca9c97756d66481ba5b47762e08084557c501f1329fc2fee55681526020017f0863cf68f232e16b3a0fc0e57cf5776755e14d083c5e088582a304b53371299a81526020017f2e93826cac24f3d588613550a97d06eaaed84a27837c6583abb6ba5c188ebdb181526020017f13b174daaf7979b0cad214f943190d34365376625e68f8c621c049e90796166d81526020017f186c4c8ad130db1893b00440e7fa83a9fd932711b2684a8e6ebb9fdde080395381526020017f1f7f841fc756e5abe2996b43189d0bdfa3253c283f8e1e6179240f6837be241581526020017f16bf70133aaef689eb79a8bdbc9d3d9146c78b1c15f84358dbe7247a9dfc9f4f81526020017f0bd72b1af8278982b0dba4e51b9bb2e2a7c7e8b2788579488f7d7601098cd4ba81526020017f0f71c7172a1c0e936919a860f5d6fe4668c9666dc8c79e82f330b55d670e6f8e81526020017f29f2bef930f1c522a23c8ca6d74a700b82b5c8b85e95a55b7978a385f90f0e6f81526020017f13c0328a62445be701df1497b7d032b7fe48c07a14f6409b91489ad9924bd6af81526020017f14f53ca2d14f085fb6f425deff97a1831a6a07f59e078521acefee71b77a018381526020017f15cabd319dd27049ae6e2feb162232d2c02aeb5ce5ee2f63bd89a4a316bff2c581526020017f0bf3b709061a0e75d4a4868aac67c2c4af0b298cdf118741cfa3ecfa82e3516681526020017f080d70c0928aba7c000efb1d39ee7a74f63877d5489c6057ea42e35a5669acff81526020017f281b3fdfcca6086ed667e1e71f06c8dc09c2c2a7f3fdc9ea820260eaac6c4cdc81526020017f07eb4e56c2e56ef5885131eae21e600682a3ee57981eb6e91e9b8db925c9e9ee81526020017f20cae2aca1e3713adc22b466c215bf50b951460742c027456b0f8a6c2033062e81526020017f03c8a897ac84970c1d74e5ec13dc4609a1c1e1ae889ec7a133d379adae5a37b181526020017f0f95dd6b693e5d655063c9d6a94bfd34487f292f82dedcdbed692634d54466bc81526020017f0a51508c8c4b6d6203fc74869a835e56fd5304173722846a52810d3b995e04ea81526020017f2b466611b7f9fc13d45edf59b6a494efce25b64e854bbba478386b1f646e2f5881526020017f0a320855e1ff8b0ecf0c14c8d6a13951026a37fad63d34ea8f3083af9f210c6f81526020017f02a5cdb60bc458bdfe3b1d137408890e954abb2d1b1ac3ca473ef4a8862545fa81526020017f0527b1768cb027b9efd5ca15ef30a9484a0a66a890bfa972a4dbff8f722afa9f81526020017f0d4a6b750bcf74ecfe2e0a1d694a16dbb53fa4172d532ecc3a6ef51244760e5681526020017f22813b99e52c54fa9f606f86839a77dae231e97f9bc824e0d7e9b67c1c97bbd781526020017f0140909af8fc3faba0991cf9335a9f6dd430181e5e3b68ddc8c1064870bdb5a181526020017f11d8378d6763f840e84930b41d8f62974c354328d6c014b02579206cf1ab907181526020017f30628f1a8e3079d3f4e3814fd3cb910b08ff6bfbd30952377679f6c356e22f5081526020017f13884cb6a4a541198c1ce3c88668e7b667454225bfb47c2218c5374390da589481526020017f08dd25a49e1079bae266f67143f2b2af4762ea7d45606f850094091139835baa81526020017f09df8db093999bd226f2482281607c947ab94a72e4e71bf7bd3ac87f4de4339281526020017f0d2f1032e0de3783ebc36cd36ffc57578ed224dca2fdcd3e71304956c729816481526020017f1388fdfb43ccd97292f62c92dcf758a0ea96f2b34163fc9f5f556fd404ad2ed281526020017f2f6352f81aaf30d41fb2213f8087a1dad77e793bd2a8eec280ccb0623915b95281526020017f0d1f6781b4e7ea0e73e151a0097c1861eea49d6307a805443d6e707dc0af81f381526020017f29e34b09f8e92338969300419357be354340128b55c05411545561a0484dfd9581526020017f1766bb13a38ced2ab753db789564a5667a72e5dcb04c6a50cad1562fc9d7113b81526020017f1401c8fc6a359d3328a3883b185244f99d66744b6caf6367d04dc13c93245e7c81526020017f284e1ff8134ac3e86ff2a670efb5963889ac46d7830a82f642af7c64bd40a1fd81526020017f08d8d76168784520706a2ceb51aadcfa602bcf92036cec311a3223665e9f2e3981526020017f21a1ae049eef44076fe4bf8f1af630fe5767ea211a17545beca8f3a9ae3ddcf281526020017f0c4775e78f69287cf783a78651297fe22ec39b267a13f0a07c27b893b8ad9a1e81526020017f13226bebfa479d1dae5b9a35d940d2ba6335ae7c7bd8fee1aeb881113cb7bfb081526020017f124e90d7c0f7466c572002d718025003aa8f8161c4ccada504ceea4ce7e973ee81526020017f22ad2d9999b0fc6ab120542716a4f80bd908d59ee978d8cc2d22cd592f09dfe981526020017f11acd2e29992f9b106439b7221bd935b7dde9ed93cbbb6cd736d03e7e396d55381526020017f2dbdbfc9b3ca893e100437030667a0eddd19377ba052729f856fb8525e671c8b81526020017f22916ddfbfddbbd5d850e68d09238d98d5a1ae1569a2ddfc4b9b28d18f67478c81526020017f1add93c8d4cc88d6850afc4e1e495b12d184de1de2002764c72f47a7ffe5bc4481526020017f2446fa7fdd61098dd3c1ed51f5cdb2be0fe8dcac52033e0969e8e79ee9337f4281526020017f2c9f63418ae011375ca75513928754056cd2d853107fdcf26019930e4772a86181526020017f1b6dbbb7fd51310218d3ae111c60ce4cdf2ab44f9da3eff57675e8f698a5f3f481526020017f27c9f08fd716a77ecd4af68b94f1485c6882e3419bb9544fe06bda422499698e81526020017f1cca4e5826ba1dc7763097289dac306dbbcb51b33f91f373cf75b4c981a0c36481526020017f1af90c66eb1af3569e68b520d571700615e8138cb77d67bf25d833896861bf4f81526020017f0813d5df5d572ab67dc7de6e5ae2c468153815feb793e64bd88196ca155e1a5681526020017f0ae5c3f7a794471e17c3ecb7570aab9e72f931539693b583bff0115fd0e10c6981526020017f148c9b526f9dbd4cf68971501ccd71a201d398b6a0651ca9045031bbabdb7f1281526020017f150a46053c5ec1767541f1c8fc24fee12f3e315f13e30ae886165ad43730fad481526020017f098b557fc6b1652835d567dd014ade9b873816d75c6833f8eb7c4bb319cfa3d481526020017f0c082d4d1cbb3e3705deccd6147db1c10c8724f2445024973fb947618bfea86781526020017f25f8db28b936452db22aece8c33e4b7af0baed7eb8db08b9310c27b2e301bd6081526020017f2e8b419cfceb72ea1c0a916ed5d506e17abdd8f06928c14a75c940be8cda9d7e81526020017f144ae39b3e5beaafaff49f94d6c418ba613e70077e16dfc93cd677041c832d7981526020017f2b1453ad4004a5bdfcda3895ebb17bb34b68e3c354b450c460e1ec555ac5dd6281526020017f0be74a6851b0fd9e52a3b0aa998a8e1681fb10e7d5061f9e5ca2f5d8ff0ee5a981526020017f0a7a6de64ffa8b79eea3777500b61506903459fc4398fe139a40b1232f02946e81526020017f0fb9a9c7178f42ed4a633f3f330b9ede3e3e84a854e94f75a5bd44dfd3d63e3681526020017f01da4b9740adfed0d77709841b21c202c8045a51893005d7b82cbf6ffdec9bc381526020017f2d7b65a8c3da12b8cfc210b63b002be53448316265b9fac63e6e651c964e824a81526020017f288bf78339a8ce477ecfb4305cffa26f586cbb3ae3b7167e16e0ed708aa0b0e481526020017f1be1687c594c562e242299eac655ab260f2b61ef11805ed67b01e02bb0d4940b81526020017f032c1bec6c6db3c1751ddd3df6ec2ea967b6c874d5af8cf6faedbfd391dc634d81526020017f13ea56ef01dc5ce2f6dafc11f8dd7e59d0e17bca8e34f46751cd7aa78b9016ab81526020017f0be37bfeba9d9138250e7304442d1c3958179c6bf8741a7de32df78d002ba80381526020017f09b313a88454314a71fa18b4463b41e961713002ffc9d977839cb716d906088181526020017f03b03872b381eeb35d5b28269f7f92b71832bd693d6e18f50276c31eb7c5750e81526020017f0d97777592e3c765f4d3f70942cdeb6d3d1c7743968eb9409e1c87a31960a4f881526020017f1a40e152ada84ac9a1cce66fe224c4dcd2d6d9f2201b071f8b633aab71943ea381526020017f24ce36655e3c7778e4f97280142aeaeaa8d2a5fdc241f374cf146336797af16781526020017f149ed270aa61f5155841d0f0080dc003478960757675d97dc8ca8c4f40be24a181526020017f0a10a98542d96cbf880c81ba67521d325d2f1d80d8c8684fcaeb18035f61cee781526020017f1e6cf729311387f243609c5dea627337b79d38bc1200b9509dd7376d956b968981526020017f2994154d35a6fd1a09c1941161c1e09ebf4a26e55c7c1f5c7f12199195c661ec81526020017f1ca084b355a4c223228039438d2dc0406342c5b64542fb959899ed32f82444ef81526020017f1c988ec25056ba296f20de228e38498efd24eba0d10b0e838173dc56d52b9cb181526020017f14995c1e3245e40edc6be299cb3f6855a2b0ce42221b6f9ddd1c64632795bbd981526020017f26653584c9d4f9f16df9becd6299326b9c3aa1090015bc81cbd81e82e141fd6981526020017f2562a22b1deb12ea0aa57f1879764b991ab724d55708f05bf215c9b302040be681526020017f1aca053400d322adc5555dabdab5f72a5441009b693dbe3aa6f9bd1a5a776aad81526020017f171266eec8291a644e0391a74669f5b7049ce34b873dad07cd28381b77f5f34881526020017f0e3ed38deebed8bf7c189bd5cbaf4601dbac6b22bb7451d1097930f01f1c62d381526020017f254edefc63765be2138430fa00d13910a0e970a2526f842e196be1051cdf980981526020017f205f1d05baf531c4e417345a5a9dc10de30792440eb362834bb3e44445df595381526020017f20f9a98f2ddfe4f317ad0c974db34fd018954ed11783ddd0b7fd37522de6d65281526020017f1f7f0ce39c7a423d1bfb690da9e7e51ad060a7638422830094ef4ecc976e435681526020017eef2799c07d19035d9dc6ca191de024944563d71dae68512d46512e18e004ff81526020017f244975cb123d1943d35df78685f3bbf118ce6f2e3d64bafda92cbb9a8690f37581526020017f197abb1538493ea0e342e47ba9bca324c771057cfd9324881f9165e2f1190acc81526020017f2c48d1006f0ab18ff65a2f7961ce9cba588f771e9385ef3568e4f74fa41928e081526020017f026857f14d40101ba5f5f80dab9751128632567a2b908896dcd31659740cf53181526020017f29162b7c4fe395b211699a4de820aca3be87c932ecd367a306cf2da68ee8136781526020017f0a17d7305826abf4a703e23d2ad06f817ecca4e0cff6b92be6daeb3f0e65ff7781526020017f216261f04bef380001c03f93a2e44cf96dc484f1c38621b4f762b21bffb82f3b81526020017f15dec3c5ad40fc97800fa77724bd7d2d3cdd82e82a5435ffa4a16c16a977fe1781526020017f11b4ee08c0cd84fa52cdb33b80675aa37dc78a14f4f2b289410c5322e536adea81526020017f2ff80500967cc8cd46473b7e1fd8bca9355038cee05c567f9cfe3143ee8b95e981526020017f0adb55273d4db08f8c012af753b61bfd0d821e8eab2e1b9e1e739fe31ac6746b81526020017f04e0143e6271bddf8636229c0754fc78838e0cc53650c2d32ea53c631b99ceb781526020017f12151beb2019d3174a7ec630e6e8e15d6d338a97075f743fb72c969fce4cb09081526020017f1059fc8a85d7f8c5f5fefec88ce029f2c23b1b9e498fa14f1f45dcb2434211ae81526020017f06fc47df72e19dc3cb9470f89ebfad7b56fe6e8418104348f476d503d18b24ad81526020017f0fe46da5500afd05b7158d40fa763423473a15d2c85be63de8b548ee73c9206081526020017f120fc6683762de94b608c6b2965647f9164c229773f855616fafc3831687794081526020017f05de799d5f767cb70f7ad35f2845dd6fbcdb1cee6c8df369eaca320edf5af11681526020017f25db1c1555dd5c2461cc267af06438b316e89f123b00711fff5c45fca24b815281526020017e4ae54f7e77d6adf5971f23c9b34b0e3c17e98f19be937f4877d620c74d579681526020017f153867749e842ec4902aa7fa3949992b9ad3824797469e019fe37b3e03a6a6c881526020017f17368e8b6db5b72451adcd83824941525c4c7a2c6884e91e3a792e18f817893e81526020017f074a96e833340329224cddfd198f553d59e7540bbad0555d8ceccf66db44a7ef81526020017f1a498c26815a791c9a842f1988ff570a6fa7112d6478b39b6653fd2aed3976cc81526020017f0494bf7b2f4646b60b7c07cab96096a7413dea1563b87e0d7a5c3a2dcea03c7e81526020017f15acae9bfb1b52b9010554ea14e2392de6f042a6e85f8129152244fe53411ae981526020017f0b9fabe45fd2bfce72722454c9dce89c400cbeb67801397cb1e46c4c582a7c0081526020017f087bf8342cdb834cdef69bb651d4e33689de5f53c27e9b494cd8241adf4b8b7681526020017f017d69aac054f83ee714d96e93424fcf3e6b171e0349d9693c2b8fc9b59c970e81526020017f17e0717a37eb51e712f686c6fb68411e2c412377c6ad0188f192068dcadd295581526020017f2a83dc1858ea53e2384a58815fab239cf0ab5473b2b9a606a24d3658092c791881526020017f2e999bcc63e5be28ca93297b596dcb15a736a306e6eef30ac52bf298af3bf5c581526020017f037bf4108fcf3b5eae8b3cbcccaea71e1cfd15cef4557b0a009f96fde0a24f9081526020017f2886e24441b705dc948039a9cbbed6800857fd2b47e78debcdc6ba7d23af85b981526020017f23c6ea92f59ab50cf280871506723b2a3acd2d59b2979fd6a7103dd9ce3e239581526020017f288f7221f291db754c9463432d596d67aae7ae3a10ad341405c329a2d8b9401881526020017f0b0a23b126daee6193363abca2f573263eb0d60d69bb8b45c58bd60bddd3d05681526020017f15bfc7df083c3fc8533105e25812095eb8088bcc11f0a2081429aaa23b09abcb81526020017f06c293730a2b401f5b448ca735060b1ba0c8f4520f9a543f6e6d81b774433b6481526020017f29f3388a1937685199dae040e5635963c600ab667016170eb53fc708d898c77481526020017f109587084bc3eb3340d0fe6bfb7e5c251724839afc24a15fb8cd73204b3f58ae81526020017f14811ad768e0a9381cd12cf59f47cdbfe61a953dce3d6beb5ff5740cf08f0b1f81526020017f0bc0e6952f1d1f4ce4e3768eced18e764878bcf0829de6d1a00fb822b7fe906781526020017f2d55597c976341e70ceb158da9acbc7fe7bb6c36ddab4f0146bf96e7f644002881526020017f19393020c9dab5974c8b46722451ad39e3f17089bb283d82dd5241afdb62ce1581526020017f053e66fb88892d554af0395f6bd46c35a6a1f386264a43e547c096760a7e813181526020017f12367f8208cf405f991f5d8c4cbb13bcb9c7d75c1d0131d24fe9f38d1605fe5c81526020017f243732e34bddb83aff91c9428a2970bf30e5cf52979cdae6ffe56e12cd6680a681526020017f0933a0a842142513075727e01634cbd530458bd1e641304b94b9bac3cdae5dbe81526020017f057534ecf10968074f2cc6288ef385bcc518ecf1fb2970963d618fcc1a91374a81526020017f0d7e11ea2943aee61faade8fb56f1b2747e23e5539f34d6da1cee5ae0cfd342181526020017f256a0afb510cf8269ac17fa80d99a319468e0d8d0d98130ef02fccedc2a57a6d81526020017f1500494f7fc7b6f8087179d5ccd7e300443c26c2de0a075e3e00e603032ed31781526020017f166ec68821cb8eaa40bf1dc518c593ffcd56a6464d55dac143587299dd178db681526020017f137f0363c74a119bfddd9ce2ce972595df0a903fa6957d077791a23e315979a381526020017f1777ec9c71a20c6081546cada8a0a94f01a818c709bb80d5b9ef7bed8196d6ff81526020017f1f0dce4166cd3ccc292cf70a9955a0d996acdf4c94aca02221e0ad979924184c81526020017f2930c676d2cdb883674caff9648215bc94e6b64d4aab7ee17d00061f826782f381526020017f29905e64a14b66acff12cdb36837dcd4ff439874b012f1ea2a8eede44c65483c81526020017f10ee83bd8d404065a80a50a3ac0066f2f96aa6b2f47f284a0412b0baa1b6b1d681526020017ea252c29ab681d3a106d755defde441153b9845e01e19fb3f28d7eec68cba3681526020017f0c362923dba19708b8c8f102f6fda48b1a86f9903a9d262c5ea77d0f52563eeb81526020017f0e5483d6da8ccb087e846253dec9e58689e5322d2ca0237c148edcb72013bd2481526020017f2b6c0b22db858729e3b3349b3c1b0e1aece378e7ae4dac899c48c81d3c56039681526020017f03bef4886223761c2f7c91f40c73883fe2358f12b378dbde98286c97de36cd8d81526020017e62cb7b1b9f700f77c7a33a9729d2c549f2cabbbd11f7a067a2921acaa3a09a81526020017f0bd933d2ab3650c18fccd029c1832d4ad7bb076c0451a6743eda534393f05a0781526020017f096269b0742304672f03ae036f762c43d77fd2b5836c03990c799dd32c933b8081526020017f0477ac84bf4d1eb20d3430241417f0c1b0641f1a140e4f8a24c3dc2c1338a68c81526020017f20a78e77e8d51d8179138b115f3a16764b80946591a44c47d2f23acc061cd5fd81526020017f13cf16bae6a4e8ad859a63b5e12bc0e3534ff84fd3717b2760abfe3ea161346581526020017f2c9844c48bde0d81df248d899b17de71786e2b0643ead9f79dfaef7a8ba830ed81526020017f155a81e3f71035e2024e6cc1a1a9657fe69711d4f24b7844202093aa310079c781526020017f02b858e3889c01fc69815c8bafc2aca4b7303f1aaa7ba87f45f146db9edc83a681526020017f227ce991742097cccef9eecb9f7a3ca62b8c6e10c9d5ceba960a9e4cba11149981526020017f0cf0e13a785172c3c804476efaed268bf17d26b165c3e8e8941e553eebc4d8b581526020017f2522640b0ddbfa13a638fe6732dd5a038cc90a795d6e0145aed336948d13e98681526020017f19ec9ab044cc43fd3ace7992a29e04741bc8a02e025ac7122b171c4732be60fc81526020017f1579a3d54fc9bcb564523a9ccdd0f8d9be6f71c8a812464dd1af76d6cb0f6b3b81526020017f0a83213b15d9b95c00c47ee0216371317f0a691219eed808aefacb80842bdf6281526020017f1f6a6d3e5748d7e18184750ec41634888e61b4a1575a8704517d4d2c02d9955c81526020017f1f9599e7fa4f6a39f4cd2f7eaea20c5ffc80da3fd9bc743732616d5140f6a0b981526020017f2d6f4e3c91c59f15d27ae94f30fb89d797c9fcd62c27fec9b49732e4d87a3cc781526020017f0a3255107d46cf699e75b52c54b94cb827db195a2e74e4e7c55e4a2d624b4a2581526020017f12c62dbbac148f9b720d0c70bfe75c3fb321f91b067585893ef7874298dfeabc81526020017f1aa0868124f0a5b97fa5b464a31a70deb10d611adb1ea35c2b9d9910a348e5a981526020017f0e7a2ac7a8e4336289b61a568769ee3131383a09f57db9999d61b18b13a48bda81526020017f2365b2c269dcdc727f90fa04772aff6c3818ebacf864bf27ddbfb6aa929934bf81526020017ee60fd6bd60a5b06f471eca0fa6099cf802520089ee4909abc27b3814c1600881526020017f095f6c53e203c533296d326ea75bd02fce414fa9ce57f067350adfe8ae93950a81526020017f26594542f58a31f7e1795b68107a8d43c592f1c1fc868fb1497f8137f128039681526020017f1bf869da16ac1eae031927879467fb50a0ca92cc310da6bcb7e85588365101b881526020017f02fc7e98ded995086e2bd4c952d49309b85687de64799ab853a0f2277c2777d881526020017f074979c6e3cce6f49b7143444140f2b26eb9402bd7bb9d6318f7047923dc5d3f81526020017f1cf49172e3dfc301d1579f2a2e18daec83507dfbcf28c38dc889e40cd07e896e81526020017f16672ada48087fa64a8dc5cd711f468dcf96bb07d6a4b1777b046935316c051d81526020017f238684cd707352a243a1ff28c16b4aa8c4abc608316768ea4d333363dd2141c681526020017f2b2b7b46dffe5313b272ef788cf2b5b4e67b0411899fd11351560ad5243dfb5581526020017f177f3a3f79a31f4f0924c7f1204297b98795b0e7b5ad25f9b0c22bdf7ad68ab181526020017f105d7e5eb9da6dbade6ce36450926f05ae8e8198b698ed064d423f331c0f5ce681526020017f055fa5ec6a41c493b2ce7649c783681168bae5994a64a3fb4e030ba78b080bc081526020017f0edb1d6906ee7d7b67eff137efdce55f35c9df98962c37c364b3e31c8aab878581526020017f2bddd991722ec77e3b606f5bbd67d64d24197203af29f5033640a0f5aad7962181526020017f20d44348b6e9de6f6baff62bd37f98fd6ab7a6c8c152101f2f7e3c1d0c3ee2d981526020017f0383eabe3ef0c1fa2d1d5af354a4a22e9b18ac94cd07c4f3f6da1be773edd5b781526020017f2f90796c014e4319e2d61f06784232812e48988b8fd78d3938d31ba90652f67581526020017f2a1f54a216e6a55ffafcd542e78f5d9f71ec2fc06368e26d9d898a293bf4166f81526020017f0d98bcedf03f5e91a1df355e8563d475d7449da2a0051a010634c09c7a53debd81526020017f26cad17fa8d169dfe40cd79912d1d23b857a71041a18f3ed86dc8a99d1d95f8e81526020017f17e7ee4669f2b63a0031b587859a50daf21c80586f1b63949685e2eaa579c78a81526020017f015988ae64d53730e6012243ecde560050c684864abd03dd5415ad8ca1dc966181526020017f1e5b4c00625e3f1d80859de594e18f21ad9a78d2be1eedde69c7de651116d7cf81526020017f2b26cec685fd57e8e3a653b0284133990b90b0aa4134e79e093265c3a776f83e81526020017f02cc55921e32ffbaeef7d0ec57197a06d378aed3355489d7784d41b1180fd03b81526020017f0821f62a51f4aba78cff4869c0cbedd026b5d290f192c59b10062764a2577c0a81526020017f2ab061dda78d6d77f74b47f3542f96acf71bf63f25ac107107e4349d7685c13181526020017f1ae49b0604a871f482fb6542478de08892ff9beaff32a7b8ebe56f69df98a25181526020017f220172dc599b108f48c9aba3c6b636657e6ee2783ab292138e7bdeb7002f85fe81526020017f16260a4b4b5b2d1b8bff78e9cbc42d49c1ce391a8ec5aa5f2c1bb124cd32bad381526020017f07ac7d90a73c8f9e1d3c436b0144c096b078cb68f8349380039187bb016e407a81526020017f12b531228fb9e1341033128bcc7396ff4b943a2a96faf7408938b6f54cdaf9fe81526020017f07a9df46ce1ec793d394c5c80a88f424c1cb5e3f209987f7e02d8ae69985b07181526020017f1541c5de960af578f0da187bbbf21c708b731de8a399ac60ca6c825edc2dbc8681526020017f2ba48bf9017c878a8e801e0453204b7e4fc97826b0eb3003f627d10aa5d4f52d81526020017f02bacba73e88d00a9d4aa4a4d01e7bea728d5e16119d7c7dfbe61aeec70b366281526020017f0fe28fa263cb96d135dff0c532f38a6b9bc0f1626bdb1e47bdd32646e9a698a581526020017f0797f3c05d22415aae3eb0d82b42f6b6859f328966b7495dc880cb5a27c5ddbc81526020017f0ea9d6fdf240ad478b43029b75bf1c909ee46f9b3467983d0fea17e374faad2581526020017f281075e562bb0093776c2b5305f16acdb66433cac650e1f821a23ea1c7f4a5a781526020017f0f123da3cd2b24cbf9ec74d447bcd29f343a2bdeaa9420b85b19c7986c02deb481526020017f0802deb706087300f9e7c1d38242e472a0978b90eade696ee11968b1bf81204881526020017f14b55458d43f4da5ae91ec58fd28b831df67c530f951b509fdc1b93b994cb82281526020017f21ab19f1aaff67748865585ad2953283e5a322ededa06a9d7a6ab47653cdece481526020017f2680446b96c71637b7dd0984e8082d8e51befb9a4c8aefe1c0396f65bf74c60081526020017f1a835b65ffc809bca5a36081e7f66e8b6f229b0013ea9aebefb2b784c9b91e3e81526020017f1d4a3557a72da7b01fe312e00187bcdd397542a0194f6d94f8bbef68c43b2c4781526020017f27164bc715c49b7643fe4afd75a4412483f6dd7ec8551de064ef49fdacdb86dd81526020017f24ee8e2324f5286d7af25b0bd826cf03e7abfe039b59bc0d0554e9f63adb572681526020017f0175094b4159dfc905aeef4f3eb0ed866049d685271598245f8b42186fe6b91381526020017f042f8660feea56799f0c67679fed1452e0e26a01625bbdc0b2dbff0b46cc7c4481526020017f2cf0fe4aad488ab967a22911f2dec92ad6e8fb544bc3b1473e9e8db87d9c35f381526020017f2fb4bbdf0dd207f9433153253f3405f4eef8731616a31ab762bc15fc336fcefd81526020017f144e438d7d4800aa839d3ea5a0512fa2e794bbf5fd3ad9046e7ead36077eac8b81526020017f16453ff7b0eda65965c4cf84618638da7ba76de934ca7ea71a06fa5ebe6d7be181526020017f227947aec72c800a56becc5bf4f1e52a4f3d7845e0d39282775c219c11cff4c281526020017f0df402b6d942d3c79878564b7a3529464e815fc7baf849152b0ae40337f44a0381526020017f0b9fd100647e693ad1109ca4f950034aef56ef024161189e97334ad7ebb1c6a381526020017f163ae4d73485ca689dc88e85c91e51bbb5aad42e9fcc102657bf12e03804bb5781526020017f18316585edd4490e87ae9151d008daf23a1494fae1299c0a6f78f35ce409266e81526020017f2219572d8d3e606a90e5717be4b0302516be4f8b00d01da11b40e7614a5261a681526020017f0d829473c6ffa8ccb33cd09b7d20fbc3d12d07cf029ca1eac0ce2a90874853cb81526020017f01b1af6a4ff0d44f77f7cdd366df0de7841e9b8a1350fc971dcc0b5e370cac7e81526020017f095a0bc6a2223b45f8a741c1256498457b831d9382c12dbdc0cb594305cc2d8981526020017f2d849c7cd06e2207d43ccdc46cc6a1a0fdb4b4df4780da38020d9468f76f347081526020017f03a71ea4fb30d2076f60d672592c3b40287d457eb7da16ecdf6921700d6921b681526020017f17873f22f90eeb6c54081cb01cf53b4c198f003a50d97209d1b885367beb57e081526020017f01f9dbba2ff716dbc79ad5f8dd9a1836df311f9174a358242018379921a3dabb81526020017f0b1668d4050735c35370ae5752e65130713b06734a781bd4d0336b7463f4082781526020017f10631c3ab8dd48336e089990eadbeb5c08ce4b0272591e052c40100721f8b94081526020017f19f8a8979a84891eee5dfd059e117f8922d979f03b13b402af56afedf9f284d981526020017f2645656294749d392746f51275d88444463baebceaa5323e4f3122bcf1d8bd7681526020017f029cd5c4e5d974c4195946fe4df26813b9f54de92b259cb4415f32e0d3e9dbda81526020017f2910ce600e55f51899cf6eb6e88bf8e77a777636958a3ad0e59d45df26ee4b3f81526020017f18537e44037b5c89c0b6657992a0b172351c7786da3366aff1c08e07aaedb35481526020017f2c82cd40224408f7e38d418845ab067440b5b3c8754a736b85d7920b47b1617f81526020017f1aeba13d9cf67010a82b0f6a98955f5074fa68a483ed5eef44c6f41d422be1bb81526020017f26cae5d6a231a407ab92fc159f77f8672a9d13961acbde3b559243582b45e67e81526020017f140f7e62cb424c519fb3c5091ab7596e09f5cf317ed2f70bd32115300131d85f815250600190610191620076f4929190620167e0565b506040518061322001604052807f198e9393920d483a7260bfb731fb5d25f1aa493335a9e71297e485b7aef312c281526020017f0486687755ad3e809546dbb3d53487dfada5d1130460685d9fa008b0854738c581526020017f0d6b6a6d4fb6ee2335a924c73ef0300ff51e0ac872c0cf450012dd494894e2db81526020017f1440db80bbcdc42e33b08dac2d1307e4ce65ae3a3004c923d9acbf400baa763b81526020017f0cd364f6497c7ebea77bd596061f7061d4fcd4aa9a4a2095043778ff02e8f0e281526020017f1a9104d86abd6255f87ab76b01703b8971bb0d2a76151b293be89fb9bfa765cb81526020017f0ac0044a797d43ab1a121b0a0e7189aa41b7f893448f0e04522425ec5f938fc581526020017f089e06907bb1774365cf10082e8ef09301772b1c28e2e7f1788abb815801d54481526020017f07d2d122ae79045b89e5f44a8d3c5c4b9f5605996be89b24ac6a2f4ed4597eff81526020017f0555ab22b4e42a26f146f40fa40e9a9f6686957568733d7aebb8f1c073f6f21381526020017ea2cdccf1dddbac2ec3755794a0d7afdcaa5374bf581aae67b944109281190581526020017f1b32390cdeb97a802ad167c5450511be4328cde54b5c27b63f6db5e31910e06281526020017f21bdaa877a91770b326c87e7176d5d56f36dd45a1eec6012d964275ce60d94f481526020017f0c5792198461001f2541e0beccdf6811d9722b63ba865af786bb83bcd6dd5b9081526020017f0edc789584132a48a609fdee55b210772fb98e8aefbe1574c936e66b058af92381526020017f1122998dbf4e67c60f788cee232975679fa563448b902af2491b2bcb925b51ff81526020017f02f140075041a582ecd6f83b05f0c7ce69115fbc3e6e63cd8950bca0c2abfc3a81526020017f1e95363c1537c51bdc9ee0e2f591f2915411c38a2294792cfe05b0d351efcb0781526020017f0e06cba14ebe36c09f809ccdf6f86d3fe4b05be93151a8792b86b2d8ae617bb981526020017f13af8c7b38127ed80274d24932ee58004e96a8f2e3957beb301d3f0cbfec92b881526020017f1922109757a12a6a3aa88bd99affa0b0073a796ed336c82b895d5755551b0e3b81526020017f0a31fd1e95aff890da4fa2c698299ea7484864cb9acd915e54143f952e8d674781526020017f295710e04defd18dad2e27510ef6b8e345d65f2e81aa371f7df77142bc77aec681526020017f13baa65ad6f23c2e173a6e2ca7e3bbc826ff0fecd3b860557e5735854cd3189c81526020017f2f4943d5b1152a14e9f99f914f59601bd0870adc5a31a30182d220ad3ee4f39d81526020017f28434f3b07d9d38bce4e199b0455d95757044b76412b8b99c362f59629ea77f181526020017f2d089c795b143654a15489e14931ef6832c372f049e20a56935c6bf0d1e28e6d81526020017f19c1da8f65fc00808adfec21c0cf84498647248d9fd0b9dbf18df52346d596ca81526020017f154f074aa64a931e13475664e8db5ad826c6edd6a7a8946ddc5fe7280c8ed7ff81526020017f2f1d25cf906cca1f9cfa9193b058600f45baf352afedd85560b3fe93afe9df2b81526020017f1de040580f7e2a250eba6b0259e51ed037ad3bbe12b50e2c990909c72936f37681526020017f0e692e28d62c39eedd3f3800a95e3ac31b83e20bae982ceeee3efd4b5a563f8881526020017f0dedd6b3a96981028db626e241ed284f4149eaa711079ad55f1677febd6469c581526020017f210cb1a94f4e9a85bca176ce344ba4efc60e4c726db45cd9bc159c9a5c1335ac81526020017f2c09e235be17ebdfce8de0ba832bcd769db656d999eb15d8ae7f5321c49af1fc81526020017f256232253e0ae05e6077052edd120262310550a433f7112122cdcc9913dc0b5f81526020017f23e31a9c20773aa96c916a4be84569a7608d05b3c7d1d70098b42188a43d1cdd81526020017f2f4bf80005232699901e6061a6154ba92cc0d4d5442355af806a9a4319208fa081526020017f1c2deaa46677f28a92cd4d083eaba197e597bf39668424f29f937025f630b0af81526020017f1c8371fd0d5f108d93ffd56d91f586db6fb90171ff1e3be55c83686b0a21e4be81526020017f17ca8e1a8a1fe360466f405254b94443bd7be29459bf96e3c1948a7c3ae9314681526020017f22ce56c5d7cf56376c73faf6f68dd2ee8bf7f33225b8a7b8d97c57d3aa37d97681526020017f0e798d2aac986493639dba9e2b5552993e418c1aca7812c850d62187ab1108d481526020017f297e26b3e0efdd262e3924cfd1e4d7744baa8b91367c012b70f4c54f1f5b90ab81526020017f1824302c11ee883681802f16488fbdcbac71ce57d21b40c88867ee9189bc959881526020017f272ab0997b49b9f9bec3ac9b99ca931c54f8453f114d3561b9ce3c87d4b97a8181526020017f19db0f285f1a80d31529a87cdf1947e4803bab3b9a8221a8b64f225ac4e005fb81526020017f035b465c368786107fd734666d8baf107dc8b46e802bcb12168c19537333991581526020017f07aac1fb1503889d0eb92f840638aed1cd71874d15fb63eaf7aca5b483f8195b81526020017f0cc27c4e63f140e7050ce26e9e3fc1b59c8248a25a26b117d5b31aa0cb7ff77181526020017f0a853776d3bec849bd1dabe7f0e786788da9a99d2eecf217bbc32e8f4f9c0e5881526020017f2dcf14ca94fbecc3e57a9b0a14158d2247449e86893f3f7f53e5abed14752da281526020017f24cd656ae591aa41987bdb11c3649eb3504be328bad3abbcf4aec34ab036d5fd81526020017f284a2aa8b6986eba9ed9119dc6c62a9454af9e7d031d6105681e7fd6bcad416481526020017f0401de9570f0fd495ae4a8d715b9cfb9da1e3442b6a90d791f1a9e634f73438e81526020017f25a75d2765ecb49ca83b8c4cbd3aba09fa2c65a1e65a45822c5d68fdf586bd4e81526020017f242f0d76b199ec59a8644f698511f0530a0b3a2c80675821dacd3c23d07323ff81526020017f168470ed679338b42fd5ac12a3ac08e89ed74b970ec741a2e161f5492e93fbbc81526020017f113ccb43de85506c227db24f4240b81f2d2ee5d17dddf2c8d2b2885ac6f1f84b81526020017f163f53dfe254ee4b95141c1fddb46eff3d982f3a79724a3eb4af376246645c4481526020017f119c1d3dac5a9f9f51d249945af1629cb2d2c54c0598ef5d84c2ac3dc87a9eeb81526020017f0b4fa664e93ec0fe98bf281456dfc4a3c18c3bd636796002daab9a3329aa07b481526020017f1b6afb026a8d027c15e91d1d96e8dadac12b2fb1de0490fee85476ddfca2748e81526020017f244904eaa086f7f8f4c1dc2c771c7c8ff676670f95f4dd450d1a905ad7ceae0981526020017f01757528e7b1d54c1efa71aa6968ec4e08ff93c512d67eeaa3ec8d1a6b9c563081526020017f1cbcbef7ee9aaaf340cc71a9ca5f759d0df0a52e5057e091a14feb236f99abe881526020017f0e92e2d1139cd9cc87e1be42c3218e548a93c081a4c4e687812a2249938c4bcc81526020017f13173e4054d9a2e2a261ad130a3cbee9321a5a8709b71d77f5d94073acd9270781526020017ed529b3008588492ef614e0f44cad39c15b5132ccac085c65770023a249956a81526020017f2836994b3e6ad885e40c85b2761e9922811ddbf5118c1eda4cfe8cbc4c92538181526020017f04597458c42a6aea4f0ecf1ceaf7994aca3d8a1c0f5972c6ae52b36409bd7bf181526020017f031e1c5285161e7f33f9958aca686fd973f13cc01b46fd322feeb874db5be4b981526020017f19734e29ec13b3afb0e900719a8d2c987d4b1732359f2013978cc4705478378581526020017f1b12b757b60d7bf1d7b0462a364561c9db4d053f65e28c3793e41d921f073ccf81526020017f28acf279c928ca6b2344ee6abf8dbe0a28a73ad2dc44e104cb757755c7b502ed81526020017f11ee0553acbf3f8e1d7a0a7ed2fc6b678cb0432a39f29e59ffb02b7b26580c4d81526020017f069ff6c415117872ca535b2ccb1091072048e7394c2b198efb2b8e626fb5c4e381526020017f116e6f111773b6cd1d6b5fd0307160d6d6dfa465266c3d2d42c107111907575181526020017f18e79f5f79abc7ee2f1e02b8299df3e5e49201c6b5e2590d252d3ae25eb730bb81526020017f294a80abf458b5d31f061ef8b84efe4b45dd4288bb69521c09139f170118526881526020017f170b20ff6d1f90029e209eb560693e0ae8cbc036eeb10031281a819c7113737081526020017f1d742d0a188ac6fa0b3d87119d8a25c0453ba6c62c3cbd788481b427ddbe937581526020017f0f30ec7f14c20f57341b2dd6b9452ae879ef61c82e9e21b69a5f67fe805b70c981526020017f01916b4d79475d365891b16f821d745fe03918398f42017f3dc141b8504347ee81526020017f0e0a681cca83075d543c4cc5f451f160d31ca9431dc7806f3126cfcbb5fa051e81526020017f1d2ac9f4d2cc2ce2e6f4a9c23bc48692c9d116b67e3a3f2a2907b3648612918e81526020017f2c860b2ccff05bb265389a91f805687220e95ee0196e78da1e475250f09d749c81526020017f2de4c3522e3e7448d28fa762da6f983e2b86346c1b3aa94e55ea71c42ebf74c281526020017f1a1629efc687c31cd97f8c70a0836fa647e806d0c1ca0f38a370dbf30a48abef81526020017f0267f13ea3e7d996aed64d9053494bbfdc2a9a6b1be170bac6490d12ce054f2a81526020017f29f47420af95c3389a0f948e02486791ddc80346eb991a5a05cd8056e2b4dfb781526020017f21c4b8020a877ee6e8c4a7ca218295cd15901d71a99d6043f77c8ac62510b14081526020017f04812bdda86bb113ed449d6480a5dfce4ffc405f7dbdd26f6cdfdba495df879b81526020017f1701ac234532bf668cb54fd0de837b7029d4c8d0ddd389f03653a4144d6a8bba81526020017f2aa1a26a5bfd6cafc0a55a3891674941d011b291d1999a13a4e76ffb54d13a3781526020017f250b2514d1fcfdab1bfd0bf42609f798900fcac4ee743c30548d869b003fedf981526020017f2ec41a6ec1fbcaa898304cbdc740e5d283164d6f787bc0a36e34c392b1d4b33681526020017f0c3b1eba435ff0a660b0a4937781448e0c4f6ac55a27645e95277e1009900d2a81526020017f13aaf769eac52a7b1012ecbe707c825bd274318b6c5c61871af327f13c5a5f1b81526020017f11b7b7fac8f103805448be99ae562d8cc3bb1a876cd97d7a62a4b004e680734581526020017f0ef2ea9542aeb25f3ef945c6c695f09570e077474a58be08c443e827a1e2e4e381526020017f17aa0bce81cc88041fba53129249d584d3f3a6a8512596fa0ad26d729a52c93081526020017f2d28ead6b4b5b2d12b0e3bd770961cbcf5f988babd6f36de0992d747417981fe81526020017f2c2b85c1c8536413ffa7a29322a30e9a73be815feed62a9cf23d19ce6c896cc581526020017f03a6a312012b5d595016f1ecc36a64c530caf7fff4fc8439045ab7be3e86717881526020017f285faf4a74874a86d89b375b80e1cc47af795932f57bdb5a94bee5715f0b98e581526020017f2927e3aeb8888ecd4c927254aef415199a744b2b744f909e1f90c7bd0de4ec1481526020017f2bb6d464a8566576e8b0b083aba0692eaf08bd0b86a56cf93feae219b6fc8e4181526020017f0e7f27b7c9569f4cfd1e24dc55aedb5d48638c8f37dae4656869330ef81d5dfc81526020017f238da2293a7a0a3241164637b6b8cf442fe12510b1a2fc59e6ba61de43fafcd181526020017f15aceea3b3ad5e8cdcc1cf4e1935fa3185b5b5457058ebb0afad391a71df299f81526020017f2d2380521c34d1faf8b51505359810aa0f949cb222304d86bffe5eda60da577581526020017f034b6a1d9b0d26fc14de8f5ab4bdef29a48a098a8f19576c3fba3bd9e2ff5d0f81526020017e7410935eb95b5a8c48a636a1263c1f3cd028d306bd3eec9caae3af63e6891e81526020017f231f70bb658d503d76604b8546c788c53bfc6a1e905ddd8e64b3965d3afbe2eb81526020017f236f5bcd2fff55cc9443d23c7b8dcfe29caa331445b06d93c0600281c015f8b081526020017f0994a6040055f757772fc9f6c9addb495efa402a9d557e0ed476e5feff5064dd81526020017f091c974b6fbfd1d2260ff244c3c9204f759ca221cf43ccedc10a26235f9bc0a181526020017e469e1fa1900e2385471736d6c23ec8f69e69c79977f6283e6528703194df2d81526020017f11c623f5b8c12e781999b6677a5d133d763869c74256f5ec423d5df7f3786cb581526020017f061c3d7c9e5fca3f008542ee365cef18a05d9f0b4e37d199c7b8d92d75c6634081526020017f0ff3b9cf1ed4818566dc35684424f6b5c4e76b05edec26ad07c4bf3cbf8df1c081526020017f1f79d846fde5f18ced917511dbd5fbe3ffb0614c497220de580711e2108eb2bf81526020017f1309143bb2aa7c58cd82aa0188e881cb82f7138dd375ff48762e406a712f193581526020017f087246ff295dd190b788514029f286653ad3b5a73a46d05c90580ffe0ea13a1a81526020017f18060b4c2ac1b9caf218b6ceed6324f01850f76ffda9a2261b00cb9e041c92e081526020017f1a67030fdbfa413832c4784a04faf3edab66fed3aa6c75824bbc77bb21c5fdde81526020017f268c6b78350facaa0489477f71369d0e6445628c0d4b4f295550df8866a8390081526020017f2fee89044c86a5d0e132b6a9e55f18989edc9871942146b5020082e2cc597e4d81526020017f303347c4ace68dac65c88c5540219bf8b43248e5d4c6c7e0587e41f65734776f81526020017f14e9cc05879e1a46c70661841ea3a988495ff887132622a64b3193540c9371d881526020017f1d5b4d9ed5296c0e68b481f7870dd03ba5cc8978e035a6656c9bb71ea799d97481526020017f1aa2905812780f0dff5361143177bdbd943ecce7132b9991fc820bcaaec646b881526020017f04e96751b85d174636cdcd81dc61b1b5eddf71cfba6dab3f380a136553d8312c81526020017f0fef284bcea5810e5bfb11de68811eeb86abec9e55a3f3ddb9c401338efe340981526020017f2ace8fb3f7c36733d567044783412da19c78d60dc001e0eb5c7824f5f098cbf981526020017f262233528c7e39a390576f92378be9ca9b3c7f7adcebf6d540ade4943962ffd581526020017f1da98eeaef075fd2f2748e033931c15c7da1d3fbd95e3d84b77ffbf6c8663c9681526020017f2fdd253c3127a6726825d8e27937be37765bb8172d3c4620694aa35643d458a981526020017f23b6433045203da5cbf879b0e5f63d7e450e2051d5501f86d832abe9c1ea589f81526020017f1de881f400dcb81f0b487b5ba513c0f0a7b9e554a16cb76947d48e7bf8c61ab181526020017f2922129b643ab926854285e6f49e24f6fd1900297ab8c945834dc6bdc2ee685181526020017f2918ce3ad33afb022c05ddc7c702905c5559a28abf7d03b56e3c193ff51a5cd881526020017f0918d4db406125846a7fb281b91c655f705040b0ee6dfa52b979bffa128f146a81526020017f0a3b3d0b02ba4f315e1a53ef5472085e847256d4c2dda86dd4b5e4961b35f7dd81526020017f0320cef5d9d78ecffda402357cc9d87988d2526a38664b602516139a72a1c27481526020017f26a673f54b45aee36c96ec7e9e9393526e25d6e773937d8fb43e894c87637daf81526020017f136aa2afcc8bd447a9843913b6f9526db8e8248a29d9bde32395ce28b4e1ebe781526020017f15dc4db6cfd72fea69f9c0e6ac7cf9fdd64507260b780d58b49efff5d4fc609081526020017f27df549ed7a85f61879356ca0edf001a7db919e580285e26b2793036aeee8e7181526020017f18d297be93655df3fcb56dc5722a2579017dfdc8056c78ac22fa6162a1a052d881526020017f1f4071d13fa8e37cd5af48ad3f2a8d27bcaf2939565d5b2c659bc057dd30c96681526020017f0a55642372f72f2460561361ff0f01bc0ac91ca1ad87ed51bb2ceffaa60aa21f81526020017f02ce967cd8912d5c2021cc94efb70a421d2ec08edd7ee4280542b63bfcf8a71f81526020017f27d362f23fb0d48113278766a7e8a76d6e4b7c09e0d17fca5260ee96fbc0ed1081526020017f15e3afce720bd57509f6a80625f2334e09684c83067b29dca2880aa7fdb941d281526020017f1fc1365e0dc826e85e4b171caf90af11c2971fba7ec106981dda881fb0fcfd4281526020017f0d6d97691c4ccf125f18dd41c0b4491db5f78677d514946cb463341e44ab684581526020017f1cbd39560015b242b81c41446239c7cacb02fba5d3b57b9739c2df87f2feca2481526020017f1ddaa16f8af736011946d36cf9a4d22c5fbb67d115808039310eaf240796513781526020017f09daafcf5f7fb6d142d6dc65e35b06d4f7be5a9553c7b8c5b63fe8b322b0bfd881526020017f2dae9c3b7a6b0a191d64a14b0b5d5314af7fb63c08504262d338f57692ba2f0d81526020017f201493caf970e74bfee1a14af82771bbbd425aad09df16d33aa909e8a2e1ba4281526020017f255a36ed84d53839955df69a25206e1fb37e88fd15f57656bea59fb4507b706b81526020017f187743d6b374da904d20d6eefdae39de5880f34f292e903e4408a3033ab3817881526020017f21dda63ec4ed4b50462447040314428bed22a1856a48aa40c52690ebcfb01ffa81526020017f2fec93b28e781b48bb7d30619e080817ba2d520c1c6e5241f77c601abc3eb6e881526020017f2d3ccab623e71f82f9fbb46f16816c5641a757cf193bdbabdeab7301db26f0eb81526020017f26e79a4463239593a9eff2554d4bc892cee9016721fbd22720a723e4c90c2ce081526020017f0cd13a2c502ee4e6180b1a2d4ec7ab2fa713b3ac1b3ef71a264ed8c8bf1fb8d281526020017f20bd3d948c33efdd60a32396bade154613ac2f66b13e42fdd70e866efe89faad81526020017f0f5aab541b1b181f978498faa02032d590c8b1b2ade4dfc7b4414d17914f2f7f81526020017f20504cc31f60b4bcf20ec0a8dc6a7dd7c83e10777ea5d17561fc7b24e2ac0a1581526020017f1eac13a5d8f24526196e55ae3697221e4ac6f2a4ce5da36573f2f16de6577fdf81526020017e5ab83390ec1e470b4168f81376d52bf2b46503f25ecd8faa61e746bd02ada181526020017f25c9a47dd9411d251bfd5f26d14d189a271bc279a22976b30e39b0616e23b4d581526020017f162e92d7ed8fa4f0035dc67e34464f0c267876a681df4fad5b8ac6ec3e81870c81526020017f2a090d380c8c4c776de59546cdfe2f92900a458e453459f5a71ec2d77b8b707f81526020017f114ed2c12ff3f5703fb4798d8e33f5e2acf4eb43918686cdfd229108b5b3518c81526020017f0f399505f268d38293a8489b91573b90bafd634d5d70989ef0bf067976584e0281526020017f0b0b37a24069fd726c0cf11e4c8a7ad0ecc89047bf98dba3f6ec225571ad679781526020017f2d149ee923fbfcaec5261d9dabf1e1aa814d3fb388a6325b56cb828114f3bde881526020017f01885f38a83a55142375e872d68c30d7b6cd25bb16312533fc821ea6e14ffa6681526020017f2a1f6fa54b7a1215520fe808b3a21b1922a5a3a95ad2796defa58cceaad7248581526020017f154f5642e6419def4f8726c391b5f25d673887b54343a72bb596941c6adad16281526020017f1d0abd4dff4677e90753a18231a417c06eceedfe9dcf5a8502df042c93961d9281526020017f1597f422fd88bbe28bdfffd7985f05e05ef7f3d9c221f6a61fe9ef83348c00f681526020017f0736a76da0d65c3b4bdca98a16efa939f982165c30f83f050f34af2a708fb74781526020017f140a085a84fbdbf58c29ae12486922bb017bf7479e45b0fb05c73f4dd9c18fa981526020017f140b236efbf96665fe68d0ae9ad2889a58a875a3aabec8d8af66df2d7863ec9381526020017f026948d6f18afa4fd388d40e23dadffaa731e6194505f88cd0193ae7fdf14ea181526020017f2a99798d36ae75daaeefa2e181c2d5c1f4b514e20400b63c54ccb3f4bff1873981526020017f2cd486456b5da698d7cda8826c1e2dcc6d40d200f8df84ae5417981f83d9cba581526020017f0993af91e4a05f4517956b701cab81d2380bbac3c2771e886cb963bf3b0fe1a881526020017f09d1b2ee31782daac0e4edc7a2d5c4d33b5f3abe88328cb83496c1717d10563481526020017f27b06533ee0de2721f00f7dade1807fd593e3929d248afe80e4a3a54b7fedc9b81526020017f20518a85c7e3033903d2461119f314dd82c34e4ffaa4557b050e58772a5d583481526020017f018f936fb9420465e1a1bc7bd2998c3e055577f816e2319b95d179595d81297981526020017f2d847b5e02c6c9ba38fd4f5579410fce5663f174af0c89dbcb671e4e6124f33b81526020017f1aad8c44295225a99d1c8a217daa7df12d43cb06f0c2bf2c338fe6967d70433c81526020017f13392c2f2ff572ae6d0eb3d80eb268e180d28ec0edad761b92b85b69514168c981526020017f2e91e540ea8ae1de6a61e30eb1e1e057684122c85ecc4e0ada51c5fdf972543081526020017f2d954f28468497930ef4edafb30aeedd90c8303284d7439f7e7fd267752997b181526020017f032236a0b34dc580edab066a5754fe96a08544d7ab894bfffe32468779b4caff81526020017f0f7f3ca62f3b85a2a99abd2d379a8aee54a21516ba1ca93ac75e6510589077cc81526020017f1e70283d0c2ba099687f2068f745adfbf78192d54a5184acc79432c0fd790a2081526020017f29a3a06a40cadd196c6e71d317175ccbe6afe8ec3657810b72e9e5d862d3cd9381526020017f1920d33d997acbb9c58c83c7670873fbb05cb680ef92c43bd021034834e2f8a081526020017f2a141b9a4e2d40df2b7d5f6cfe285a71c85825a09d39faacb7aa50973f125c6381526020017f119c61bedec99c8143d824f62abef7a5aaa0c6388471dfc24dbb67f0c8e1e4fc81526020017f258dd7d89849d0d6163c1b8cac6b0a5a3781b09c78b384659b20111cb8a259c681526020017f1619d00752c3a268fe6798bfdd06a365629f8eb61d4bb213896059ffc7af1bdd81526020017f075f382adce7e58937874bb6fa8eafddc0822ddf2d6e0aa0d8ab42453d3d373181526020017f11ea5ef0866b39bd0a9ebb600e2668791afd645d175dcde1af7154e278bbaf1081526020017f100a1f6a9e79bdac690c8c6956800c4c801c230e8fef437e6f86d989f101753f81526020017f0de072a1716c9701f82a86e14e8a5812f129752830054bb24293cd85f0889abc81526020017f270d84727e6b69761c5834f629d53d06c2b296d7f6f2013c9e2634cdb191d2ec81526020017f03260c089c0261620d598ffecb3eb6a906fb94d330603df1a0aeab8f6db62ae481526020017f1d34029f06484af1387e169f9851b7ecf25e9cbe2d2eb813f95da4970fd0384b81526020017f18c2beca6ea7751081b2ae83473de9fa722474f07dde1d5e6eb439712f3cb5fc81526020017f109d6df50e0b9a5927f370d9aedce06e90832d4c95a38e7594554e7ebd1c5cc281526020017f045788fa48459101d5c207c6d8ed8bd19a93523109edfd8fffad29bee8049bbd81526020017f2402e56de8f372cd9cd7393722ed96d87dec2b158cf0c8e8489bfec1d799734981526020017f0970fc65c64846781d52d398db0d66e2b8ff3d157c179259fa5cee6db71beb9081526020017f21e7e201fd612be156b7ccfd3fb8cbdbe9ca0a4e61b39bb643869d8344c0dfdc81526020017f2fa4954853910509139461b0e55a3e2651da5ab30063e5baaab6c9f7802b580b81526020017f0326b64d5f84c6a48a4c73f1b54cc45db85b40c891d62952fa0ea7d701ee781b81526020017f097961caec43afbd9ebd62b5fbdcc214e4e3e02534f00789a919abb6acd4cfe881526020017f08e18576cfb05514c23eaeccfcf4c4ced538733f560093090c401f4bad641d4181526020017f089372d2cda1c51ceee615bc07503bf901a6ed08fb7d32bd3c7e1cdabfe97c2b81526020017f259777ec5a1357f0175a11c409b72244c8c9e5f667edd822f82ef5079030a6b181526020017f20cb496df34b1ac8e394721b31a4a6e6fc524aa987f10ef68ff52182204bc86081526020017f083479de6bac72bfc3ddce0007cb83a82008b4630ecb560cd045abe63fa3485881526020017f02d7597bad8e000d3cc5195584541951dd30cf69da8696e2615035e3228c4fa581526020017f021fbf460eabc6fc6f40f4231bdcaa9b27076e99f2521b4ad5903f3b7779ce1481526020017f140ae6d694d659364d5de09360c201f214197d0d94448573cec1c372a810b1e481526020017f2a359cc011205f5c2aa9bacf0d1576a7345915a6207cb8f97ab830652827f0b681526020017f0ff47f86248b2ee0a7d508650c913441dd6085a47d1c9957b9c18d4396c687dd81526020017f0b4370201d5bf13fe3629f21b334fece0a8c5b0bc97925a04facf1e055f6b15a81526020017f06663856f462544987e2b87019aa2167d7ad5d2f944571fd8288b963b754ffb881526020017f051f389d5b3d307e22ac4a993f10981b163e31917a1f01b13fe934460c44c78a81526020017f03da130b8a2bec5305a5966838bbd8eb026cbc6d85f372d4d92cc4aae534301381526020017f243d58664cf62bca98aa049ebf83e7f2482ce829cd78b2957bd8ef7ce99ad3ec81526020017f133288b8340bc7d93a88373e14cacaff163aece1dcf0b93793344298d0c8c17881526020017f13eaec17d5d23f65ba168e8c56d919368e6f2428538773fbbdae36160d7ee75381526020017f1f1485d9245b5108ce1e1a359bc57d7e2f33da543dfe55e8dea5df0fe43afb3281526020017f0b1a325b4bd962046c88fa913fcd3092572917bf9fc6310495de8b9938f0c04581526020017f08f19c233a51d5a4c365e17f5d1acfb6d2a51a0ea6f88a530854b895b587f54d81526020017f050e9a182b4eaea4a210d3bb8f560877952bdde568a667f12114e27b704b31d081526020017f2bf12c057f0342782bed2f53cb0ab8937dfaa9385ccfdabb3ec5b790014571e981526020017f2354f64c3c805c1eab782bf18c3e62f095a77956a8d2be8a4bc42810d56ce02881526020017f0b2968455871c9a8ceec05b112a634c23b4bfa24c0403785740505eb207d9bb081526020017f162f29efc67caa64b43555822ac4732f83616c050e6bdfb30bc8df997f90c7ed81526020017f26ec5b1cf8cbed269a6a9be020d971426fe335b30d4aac5e0cc6bb27d6f5f54e81526020017f29a971c544184aa38adca5a27dd917f3d097b99d06ad966d29aabd14e6ca541181526020017f0bb379b3870c2a49681a4bd3cfa7ceab9a6b5f58b72dcb5fa4dc4c28ab85193e81526020017f040f277de048ecfa3214bf6e34e063c6f749d774b62d00e227f33d149e9c423681526020017f147a462610114af862349675535912cd49213434ab045717bc41961ccd560d9481526020017f0eae4dd6ee2abfabf3904dabd2f04f4889849535d4946c954b28a0ccd9d15bcb81526020017f1101e25961eecca3f56dff5b4d5d64c784bbed6ae3571f47f030f464691a1d0581526020017f09413526378e80f9ec18f6055636b3daafe86ed67d158319d3c5f840040765eb81526020017f2103363ca0e29996d55f24c306551b81681719da414b68aecf26bbf032af986181526020017f1739c1feccf5469b7b4a898b0c3344cfb07ab9ae8822205f548ebf2f0c163f2a81526020017f1313bd5a4d926bcf91cfd2e9d29dadc49487b720fd0d0346b1a491f673af0e9581526020017f16e66730f37ead43c82848ac6182bf4b72a8a031af099cb919de43a77f82fa1a81526020017f0e2f9a1a0a4010098c4822ebd3e71d645c53d64409d3497746b96103a976f90b81526020017f2e58eb2e40ae075e41cb59d24fb8f502b2080f475641a494bf9b117166c3f8ca81526020017f211ce9754345bde8ceb68aeeb523786fb156d00e14124e8a448715e9e32f54d981526020017f1d1bbb20d92c6ea363a75ae120d5def3d4a0d092f9810b0976f60ba6ea20624e81526020017f079471488a99b21b3e7db04d3b53991811c90c3edb9ea73f0fe0712a2dea362a81526020017f21eea984e0d096bd96fe3a4aca0ced2c63c314d4f83806a9a9d8279f7a9f475e81526020017f07def23c3fa1c0651fde0951ac39ae1eee04ae2eb031f9e6bb409beb929a171e81526020017f0bfa6da8f6084bfbbc9a8e199db54b25d40e12341d7f7bb68bd09db4d36aff3e81526020017f19823bb6fd93a0904afad0b96d54f8b24b7db9fcb79eeacbfbf709b59be5e95f81526020017f21e3e41d0ded7e834311b119236baf8db21f33edd82aade4e385a25b851b064981526020017f22ee6858aecefa57058d2056c7c8afab6419d3e7d1757bdf8a7309aeb0c29aee81526020017f18156a3d72443c5e83f942c3ea97e85711224383c505e8d30b404cf96479fc1381526020017f29afaa9b04d8d53f4baf6509525c90ca757e8fb8e69c78653682a673639b7e3681526020017f1f805b1ebff3b7e547927222cd9ea4bbdbbab3858ccb0f95a4a287cce91ca15281526020017f21d493cfeaed273b599e709f073dccd8aa9c7631180dc69ae60fe21d8238f80f81526020017f2780bbc27925abe130601d4bf4b21c243135f3fb2f09c7372abbc7b1b507f47281526020017f0f054515c1fd1cf8e340b9f390797dc92b3fcb5c430f9e65d353c716d238fb3081526020017f29b76b5c42442666aba1d992d813d4eac92e8ed96f9d3419088be4d41534fe5181526020017f064ce77f5f2e05a94b1273c95919ec2887d5f8e046dc67d8caa6077bd84c200781526020017f086522a35a2ae15a4ef89d77190d9afe56c91242405d3444a8a66f68f907f86381526020017f0f59a2e5fddb45c05ed265c9494a3a70860f73b83909f140d63f27333a05188d81526020017f0fc1024b4ad28942b2956d74dfe0fbe4512b594f0f6d0a7ad1830686e49514c081526020017f05d15de8186faaa50882a5fdabdde6796c943e4141927747826e59aa9dc9f79281526020017f15e7f1409b06e8c29425137d6085c7f0d7f83e33d94d1ca2b768333b2d6b1a1681526020017f01b0db25ed4f630eee054a0fcb0462fd8bebc0445366f83042d8a47409efbf8881526020017f21b3479a4063d33513b9d6868e5059026a78756d3556f0cf76298455ac186a9781526020017f1086ba492909487aa18850db51aec00ea550134070bb12701499d17a388806f381526020017f07a93d0c10996f0ed52c0b0e61d13065a3dccd554196913169d54715eb255c3781526020017f2610ffac773c2dd9fd7001e8071ec12574cc53d716b8e084037b42d2eb1eb67481526020017f16cd8b9bd93c13c3ddc598035dbef820371387e2fe298224b0756dd6ef1153dc81526020017f1708612ad62e80b561112682816d83a14233fdf0a5e3a1c97a14c2a7998ab64281526020017f1139d37ed1bfa2bb4a9d645215e7042b1f203784dc3548f5a178a3500d8eb07e81526020017f155a1ee69b9d3813780b97e2f00ef501d53cbc7328fb403a06c7b0d7f946519481526020017f160a63eff6f2ef966c84ac6bbf4aece2218318aef06edde6043deaf439f6a82f81526020017f0dba87a68e47fbfbe95dac5804a63e6ade04ba175ff8aec534afd09241432b6581526020017f1f7ea4e10bca50cd8cf2a6208191d186fcec0e3e4269d8726c98bfd9df656c0281526020017f07c61b6e5b6d55ccfa75078351680e4da19d48666af1f4b182022742bc52ea7e81526020017f1f66bd01f578a05a91ceb0f33004ac2341a3340688d19f5c07649642e80714db81526020017f2373762608f9521553b16e9f0e4bdfe85a10fc829e0a8a030e5e7daa958541a481526020017f1b4929929582659adec32e26a094cc8c1e88f22b2c50a98ace8ff9ce189f9b7181526020017f2f3d7bc4b446f3f7c64be798816a096cd0f6930f7d4e03bbe702e5fcdfc847ce81526020017f19a55b7ce2d4eac92e94f70f1491ba05375418dcc6550c5fc2ed8835ba97940281526020017f27d83f37df645ed50972780b2198dacf83a7a8d9791302d21fbca3d198437b7381526020017f068bffc9ee181f27149ce537ff64fe2c0867c2d29438d78319d640cc1648823281526020017f22a04da2b81899a784528e08e9de43850e101c76496c38f58c704fa7b59a0a3581526020017f15ec745404f536522ec6d479fe3468192987826870c2f6452dfaafaf1c45ada781526020017f2275571864b7cd9ef7ae75cf4a308f4767422bb4f3fb4a167801fd4cee255f6281526020017f0c53dc091e8028459d1759e93bcec826d087ac5f8f2e68ef9d485791137a689681526020017f0baa3b56cec39cae2bd817d5f050ea906100c7de9de01957591bee9a442c351a81526020017f0fd732f75c2f1d339aad526c33f9f8163c6611af19db35f5a65976af951ffd1581526020017f26a9f3b7c9f32bdecc7bff226cc1d66ce827469e1e7fdb6ee4ed00f06655319581526020017f23e4bedb8243a1eb0107f21709120a9d86d4dda0482f355dd841f520c3e5534581526020017f0d266ceb04ee6ec5ba317f4d041ea7d8ad5b20df4dbb39d2f4f170f039d8a1a481526020017f238083b59d8964b16d999c4257eccd84749de2a165c35a8456076543d252316a81526020017f1d763c396efa317ea10e0593b54fc2b2dfc6be494a4bb8ca0f8b1324599e294b81526020017f04dc29c9460335a6ce1d849a52349154ef0d921d69b7526c4f47785fbcdc476281526020017f15e1d669addba287ea25478d708f36540f1421cd033bc9348e43441158dc875d81526020017f0cb2611195572d019787bc4c56f717232ce520ad4d9abeb43a49c86ac1e5f99c81526020017f1f3074400c9eb02ecdefbd45cdaeb0c4a958c9d91810dd67136c120aeed5c54381526020017f26935abb0dba26930454256de81782654054a9ccbec6d1b12881fcd28fe010cb81526020017f18237f7fff4e7ba11a91517baa3e9bd637b26f224036e64d61a714faed1f824181526020017f258a64c27fd1cb113c7a3d3fa010d94cad56cf71f198634277104a21a340175b81526020017f0cfdf944596e52c276ee72157440a6ff5e3ec361f9345e022c0094da747cff6581526020017f14f37e3450840de6ea9068f8e676f428db1c2647b8e149ba1921b74742ba716181526020017f08e6a5851014f56d80996a664cd121c2440c81b1b13f4722dcfcfd1301975aec81526020017f0d6707e95e01af9605372fcb1fc3343f1f02c0ceb14a1689a625d7f93618d27f81526020017f2001741a1983e3ac53e7ddae9e0907c325642bfc2a0385280a32faac206b073081526020017f04c4ae5e46c7c99d0246a74ab28f4ebb26a6b7f210a310dd2d71dea21b46d08781526020017f0bd8d1cadd53d490b4c7e0e3999b3b4b4895785f5cbcda245210136056b9c6c381526020017f2a5ba4b1c3a6fd298ffc2c142cdcf957fe1f3b5d1b889a0818c9620f7e33a8b481526020017f19334a4c47f8c78735a51dff71912d8b82157a047f583cf9f048e6859f158e1781526020017f0de363f9e58136c29d1e5311fd32ac0e6e147039786774c0526509c845c788da81526020017f1e52a2341dfe510df3788a33c3d7b615b84ff12c9e4c05323740256480737fd781526020017f0d4f7c5fdf03cc438c33723785ab7bea02092a97338f0433bfb0f8d76e957bb681526020017f2ada49a7ccea73719bf4432c7e61bc7bfb1dc7a2754fdad0b481b2a391482af481526020017f1d268caa483ba22fdb6a24673068b446c5d39dc4c0aebfd75fec04e5e399ac6581526020017f263a9e66225b8db5e439ecb62927b749a89a30ece2b9df715588ead2cd465a8981526020017f1787f042825492887623f6ff967c28c018d29ce34f57fd7528c5e3ff700b484781526020017f0f9d9657ea99f6c5d0385a07069f5ed1578bea03c9ff3b0e5dda9651548918b681526020017f0b6d32676f216d4753870509f90feff60b57f39c02c6f0c67a77302a773a2c7f81526020017f267dafa4d4996f8197735809cc5f196ae7870b35853625328a145c88bbca803781526020017f29a0cd7c152351469159dd50c23e5e67a74e1bc9439b12e21c00e3676b5bcdb981526020017f2db8cfb51bbf9be43f1ce305bcd2558d3ea558e66dc559232bf231227aaa2bea81526020017f079453d20aa141752f61406962b93248907be153ca5d25b615bc3d34530a69e881526020017f2a319175d70d94944168514b139fd4b160032b1e9a42d9b664d6695fabfec7c381526020017f1c82dc0fc35157003ab2dda5a50e83e45ac4e6f235603f4ff87c556533cbe8be81526020017f2967cba9fa0e7bc151dbff952fe1086e1ba928c008e2502d62546a2b2594234381526020017f139308b68cbba5fa40ff402a5687d7de2448c5eba4cc229749b6172c3be5bb2681526020017f105d614934c841b6e36cb478c2aed252117e35ad55615aece4abba1853c84ace81526020017f033fc2c66c2aec9ec6325d1edb3b3b6701a664ee81ec90428be11bf389b37c7881526020017eca7abcd5319ab809cd769a16c5e551be7af3f2de4bce0048e8998f65d72e9781526020017f0fe4a6ea4ab18228a37bce4aadd0aff594797d2392a190fdac4f51749cfa31c881526020017f2f1b02e65dd9acdb845fe7c3ba245d8ae6f270e818f34dfb93de9f97da55381781526020017f17dd5b03044777e7a81800d2d79c14012f5b1ca840e59fb59cb34dfc6987dd5c81526020017f196bc5aeef0c66382873e9d94158d4f7bb2820a4b3e2d9403dbe5ae5ebe8c82981526020017f27136af5acb23284f90fa8dd656678fee0cbe871915b89554d9754df7accdef481526020017f2f467597a125f3fa2a22f347f9ee113d543baee4df1b82ac163d63ab5ebd4e2081526020017f1e4ea1b648bd660187992739c43a89fb6c3164b3d84180d5f88f0a5e01a62e4581526020017f24b51fb7faa5ba08487bbfec8745b3aefc0e48ef9f22f414c94f74b4ace3fb0681526020017f0da5a380713af1ea4c0b82755f4b4b0402a8c94dc0c3345395947db71374232f81526020017f2b175f9daf62a6401309d7683fdbcbdb356d96297ef7c8942cc0f8d16c401a1781526020017f1b62865eb6a3e291a4c913d68d8638a13260851926319f8e56628ba6f10929a481526020017f17034048f47dc912910defaced2f329eaf4c4d9d7b8e867ab1e96769adf93dc581526020017f100cd9087267d9d28ff6f7427fb02584d69a6731de32bfa9ecc5d6c9b8c3a6c381526020017f22c51c72995717a9f54fab9a3650051e05279185b28e9d868a983a55ba61813e81526020017f0febd4d5078b3971c8ff1cd0be9941d63bf109e886038f19a4b8be28d1aa69cb81526020017f2fd96c9c812491559823d93aa17134981a82364fc0e26794e8d1f0b24b20c40181526020017f0ac5dab204ec3148daae6200d563d3893dc1c8a6d9672598c5988d457376ee9881526020017f0e270b39d9445101e0418c738e650ab0bebd256600539b089338fd7058920f8a81526020017f0e208f405b7c7c8a5db038f9e1733748601d5a4cf53e0d2c20158ae8b6c9a85981526020017f2c2016b6645fa24f8beb443573137e0780466528d0436578a873760f631d030681526020017f13c00474f9abdad0b4e0ccd77adcd13ea08366de62eefe632fd87e8804cbc5ce81526020017f2128f8764fe72e790a09e18d40af32e6e444a16d85cd7639b82927bf41289be081526020017ef10a3799958b4c7a66f533f5584539bd7fcb9dc203b2df820d19a5de70956881526020017f045dd1d7839d415613208574c6b9491e296be9cb428e986dbc41e4d660f6a9bf81526020017f256f01d8e22fc13629f4c31a30595a9c56b4e11ad8d43dfd127339bb98cef95981526020017f1923ac8840918d424b4d04c00eec69369956c6459316bf101d488e581388fc4d81526020017f2d0e5e7c7ba3a295f0a26bdd0ee2758dc6e6ab8836d14898fcff3e7ed7a60b5481526020017f25639f642418df5b052488a3ad13e9f70be3b55606b440e2987c6a3c836a5df281526020017f0ac413e9d4c68aeb4797639836eb0c4d856196897b0e4200268983f4d8cdf8e181526020017f011e5373d0fd13ea49ecc8a42884154de4229aab098b91e922e78344b1f821b181526020017f093d4a57af29ef0c3f66c082c241282c33f8f94f11d2c08664f2eba9f201b7b681526020017f186ba46d855a0b44f2b74a95591c1f1e0576932f393648092fcb3b597d0f561581526020017f13ec81cede9192d7cf1e8bcaeeabc250ca224a587dc5171e9c36360c0cc1317381526020017f24f0a8ff631d6af65f43a42235f5837d0a2798119d7c8730f24dd604f9d67bb181526020017f052f278c046f05e50a4a3ed029abd78b9a1f4b204490668995015c0f6d7f0a6d81526020017f1cc8aff91370978a71574a590ff54cd8cc406aec579a4cf7b045a0d9870c647881526020017f2363e2448764a00ee530a3abe6824d316c3c571ad00ffdb6e319b19034cfc21781526020017f2037ea0eb83e7babd449ebbe07bc66bf1eef24b51a5ba18378b42f0c97a7d5b481526020017f19425870625659fb6c20292741ca1441be5976595266a0a17d839bb0c241f32e81526020017f2561dbb6cda6dfd8affff0d1ec3096a22471a75532dda1b3dc931742dad179ec81526020017f1a01b69958d9614acf1b3637c0db504b796426da387042cd9469440b4d30da8c81526020017f153838dd8eb1cc393673ac6ed1a5dd0fb209556720f145acd3a240c6e0885b5f81526020017f2a614d03a19bf65ef7ef1dd7674d013b2f0fd73e8402a057d9c73a75e7315cf081526020017f0ecaed29fbc09e8983d958724d8f657708520c25d8352e0f0cd692c9fe86ec0181526020017f05835f2ca069e8419f64eb2fdfa86a1527cd8bdd5370299cc30c0820e4753c1e8152506002906101916200b291929190620167e0565b506040518061322001604052807f1800deef121f1e76426a00665e5c4479674322d4f75edadd46debd5cd992f6ed81526020017f099ece5fa385a639dff850e44c21126247b71082b0d94ced9990c4f783e78fc581526020017f2cc123c637ab4e165e47e2364657d70b7221daf4199e3467e039b02f9d57fdcc81526020017f0e074d1f5f4911accd1635be684e6e9d4b7061eb113bddc5517c9f17a46c864c81526020017f119e5b449b14b193c3a6b089994e4828341074f19a852f2bfa874d7d27824d9781526020017e9441462d0fa8dade580d805ece38263b1fa56197fe1ff6e07d91283cfbc1ec81526020017f11078f34384702008d6f3c8d9c4462a9859d8baa5bfa71d5af1d47d5846bc58181526020017f19f3428c81d97a989294dbc57d558cbb22e3dfde81ed0c47801cbbbb0f4b238f81526020017f0609551a284400bc6ffd400969fdc4c66aab040f0394cf6ada0daeac63a8d31c81526020017f29d2d4d0e926a14d03ef5fd23473ded811c286eba5a92123d193bfb601823f4e81526020017f14c0de2b8ce1cc8cfaf02a273e1dbcdced281a2d8a54243dc63373b34e34f56381526020017f1acc7df9d7a544d6e4850925dafa92ecd9a1869b9af3190bfcb4e7ffd41a7d1081526020017f08b3ca4165790a621b0f4398d13fbaef78cf7962d9b888eae812e2d421a1cd9881526020017f0704fd82280c88e5ef7dd389019fc3462e242886e8c052ba4e712e096df38add81526020017f05a3854b827988d35dd612d26b4cd84204dc3a495815a24988de6f8cdd1fe4e281526020017f219641bc3633b82f08942918c3564e7ca725bd4b7680eab810472a9500b473d481526020017f0206f38ac888d87b7bd6191d36b6646adeea262a17192995afd202a5c518129281526020017f244f1fce5857e6b90843644e0755894131a82509a73b9afa837895f51d6b2f0c81526020017f08743ad34d6107d6335130f01646c66a49a283196b834ea93d7f52e47345ecc581526020017f2c026bccacb0f3c23a32c09bf8272155f45f0c0bbe9b257414d7498a2d9900d181526020017f22e0e35f8692a4ff1c73c460e36d323bf5d4459fca5bbf0c17f9196977d113d781526020017f1a9dcd1534fabbdb597c8508bcf57f920f9cb2e98e4126c91f080242f16b3a2d81526020017f0afb44ee67469a07bc6b4232a42bbe7180c1a87830a2b861338b0aabd87a1b5881526020017f113e29c99b8f54178d315414085732ae5b0fba9ab01faf71d9c38b7d704e86d081526020017f115629e994c6893d41b7ce9910ef3601910ab459203a984f7c14ceca8cc9b4b181526020017f106325299d787dad19e009f2aecd1ccc041d6589f199ee603451da8b53c32b5981526020017f0c42c8ce7c8a082a81f212677530df6d49160ab3cdc79ee7a5724ba1bd6ab69c81526020017f1cd3dc895dbe3f523bdf53fe57322a4b6ad6d2843b965dd4ff221d528d1f928381526020017f0208d460a733a8b751c3283335afea63c4e9de44b0df5d6c655ee0d73e3c05cc81526020017f207dcd6cb43f9b74f5434d581931751a634b1c028846a465aa6be8c5db18192981526020017f1cbd131ff8ce25fdd1137412384a7f39a10781f918e59b1de1e5f77c6bd090e381526020017f0ed171ea18b0ebb23795225a6c245ab13ed3612db60838345c56d165fb9b786181526020017f21f2fddc007d2b49187b7d444d39e4254a6b33936539fb0c3489c29eb881799081526020017f2a3ea316a6463086828380f6c6df0b974c27457e2ef1ab090605bc3045f27da681526020017f0d3682b036fd86ef64886f3e0fb5287d5e8b181dc881c344880e0696c1d8949681526020017f27b791ef7af78e11b9b980c305fdd87c4ed014c111203ad0356828c7116a561a81526020017f14055b0246160f2a444c1d691536fba66e1381c3377fc7f870b8f5e27698e33781526020017f073acd8b11d47780c8a180cd19fe01da3538d203806154917e061c900087670581526020017f2831718ce4f0750d798eeca8df4fb2adb4df93df934ad2adc02699b4e72c6c3b81526020017f195a7f1f338c8ceb80802c522ee76f5943011412a5247747da895250b115686a81526020017e8c25db042f977c91a7bd7c7e96d547eb09530b627604918173ace60da95adf81526020017f14bd10c7c7d383adb71ee3259eb51bf32c1d36a2085490a35dd595703028aebe81526020017f09ba4c06ba6b4b55e3aee87fb6a9c8e741280f837b840a8bd517cfcb0a1740e481526020017f2a21a3454ea64caa7b0fae7f7a08737bffd482aec05da446432ef8f9fb80469381526020017f08824fb2e5b2e06b5660624c7e4c9d0d9e918c0fdca0c0ae7274a8cb3c8a2cb181526020017f18c618895b2cd9d977d40795c74d55c8c5d6589b8e075bd8b9579099b623b92881526020017f068d671c5b28eed53e3067286ae0e3a47c0183ed00756d2494282e1ebb79bf2081526020017f12af6ae403c171a7a389ac61182493509391beec9d3e755ff461b161347838b281526020017f07da9df46993d5107820180b765ce09119c1bdd6700d6fd22f1d7b5d7ce7804081526020017f271886e1af7aa4d73890ef1ffce04554e12d560f696f4fbf6cf6d4cbc90144c681526020017f297e6362f6a40923abeecbf3bc247ec4c4785ebda76cb9a13d9733ba2e3f700781526020017f08dfe3af74c29ae67e2c3cf6336b467758bf465bf5bb64f9cc0c97fa5fdf743e81526020017f0764963a50f60ceecb8d0ac105d8531d8c4897ac79f8bac1f1b525b87be81c7981526020017f1c3d574b68c454852038e7f1dd19140c360ac2083cde3b43760c4956904c053e81526020017f2557d84af7fbdc6a0c4fb764babbf5d4b9f3aa9e5beac52e27666ffea529e6bf81526020017f0636cb84be8c9af8328bcc0c6075f09bd09378b3fc33626e05d0d68208c5ff6881526020017f27e721ebec98e9804aa703662015f31bececc30bfa0e387131b74310e66d465981526020017f302075f3caea4562bcae343ea36e7b922ed31146e22a66f868050d6ed69daa2081526020017f1ae5490a64ede881bfdcf65b6b663d264c945916ca0164dacfbf06e6cda00e1a81526020017f126d2c40f9827f0bbdb35bb8e3ffe14bd7d2a50d354e43d972fa60dfffa16c4781526020017f2ddfee597110a8fd00aee18ab30fdf0ec0fba4883ada2e854347fe27de1f151b81526020017f27221a038374d82fc92be698c5fe848683bba2c93a7b18ca4f3ec5297097e52281526020017f2f2c82b0ba38ceaf314f3507ece256b09b8c3ef6631f0b11e684c3956fba16a981526020017f0b2028f407aa5b9eff52d2bca22351c3078b998f63db490c78b1b2d9be76ee0681526020017f28a9721e325df8137868502caddc5387b00d4efcf31636fae5450685031fb96e81526020017f0ab6d3fccccdf29c6f1a1d7a89ea629158a41e28bf6cf04f123a87507cfbe42f81526020017f0e174ad312141a4908b135e4e28edb836e96285a1aae6b73cc5cc94860bfa5f181526020017f15ca56527bf1be37a5db75c0151e99c8bb1e7ac0ad4425b286f3db7006d2a08181526020017f0a0f336f2b8394f2f70989d70a3993a615963a631858fa459e66b6def8bede0c81526020017f1717ba0d39fd653c575dabebab30f360e006d37f2566f04d100b2b30b390754d81526020017f28aded96638bc73f654721c1ac58cdd60c697a2b640b3217191ddf0be8fd930981526020017f298fe6f28ce2af2ea1937a9b6456bb4a691e237c4d6868aef91407e07914796181526020017f2125dd61b1b663291c9a2b588f1c4140ac42a835623f719aeca28fca806b3f7681526020017f149f879645b4606484a8bf8625e89b009eced0e932bf5c57710b57340ec610c081526020017f24653f5f2745778912b4d46318f719658704115c3974b4fdc44926554777b96781526020017f14b437a97c64dbcb4fd234d8278d4832f88a789bc94cbe6878b10336c1648ff781526020017f2ab7185eb53f9dc93301beab5f42a8b37f8aaf405ae625957bfcf17c13ccfc9281526020017f227542abe2b3bad1d02217d578428217f0b1c6d730af547021fd892b053241be81526020017f0fbb4013b28269f6204af7ac6f5e81eefe16595f25a43ca757e416bcc54b0e7b81526020017ef8219336f824c8e76f287fc5dae99f9c73cb72abaf39135c3cac22ba918aa781526020017f08575d53eaf5ff05c9e0b09880bc6c2acc3987d44bba2e202463091f14d6c77081526020017f25d9d2abd56a959238c0b85436b6cc5272c7703af897e09a4ab03bb6546575bd81526020017f1e5e8ed09a5a2dba1c148814f9b484c962ed3e2f50e52eb3a3e0dbcb067124a481526020017f2456f2578ea9caeeebd351e20d34329cb3ce9ebdfb794b14a666672b2775bedc81526020017f0bd891ffaa13cf2a54c322a27cf72982ca3935cacfd1927509f66512dd2680f581526020017f102c2a9a0eaefad62524016ef247466d827a4c2bd31a08abfb8bef1404df00e881526020017f0202a059e00b7bf80fa07188971ca2af6638de72a1988e7d79dcd5d97a8cb74681526020017f1713481188c03fa5c7ac0260d868d982bb98ab60dca2dad81aed88cd28bafb3d81526020017f19870aa37a6f29528c642e7e10205bc80a529e9bd0d92ec15ea28e8c4c8181bc81526020017f2c003272d3c1c9fd3a1d79be96421ce730e6cb2b14d04341c79f1e28d407f50581526020017f2174882b1a210449dd99a2c444f44c9eb6e3128f61674d829989ef544a113eea81526020017f17bc85d9f9194b04fbaa33df1a5010ef5bef72c88c1b20c9db4597e54b30a87d81526020017f25fe8b9355fd151bcc58120b10f3346864f9e18c672def6516116a125d05a0de81526020017f281f02d225f4ebb2273e1c1f7830f06b55dea5da4415d5f79898e2fe152d6da481526020017f1e764b1987d74057ed13c3c68d02ca53a4eed389f65290de34f166886ab1117a81526020017f1915858ac52f345633e54af74d535eaf04ae6696bba9cf0167ed43448f0af05281526020017f2922055d76a20811fd1643d267f7866d5b1af376bbd47f4665fea757b90961db81526020017f09df99bfb1e65cf508203f913d8919940f5a1888c3bb8cbb3d5965ac5b22e81e81526020017f0cea90b103f2b207b1ed245ee1366b63a69caa086e393e357b62dc6ce2af898f81526020017f1a208be7d14bf953dabab75c859bb5890be8f135aa33ea3ca744f05ebe839ae881526020017f1ee6c29d856941a3f27c68e9435684025dfb2489623fcc3eea54a121ddaf08a981526020017f1c1b0c590d42ce02e1dd6538368f1d76d3cb053e5ead796d525969327e40a65e81526020017f2a183c0df86c4369fdfd82d1603d49ae724e655ee8e342dab9dcfe8ae318e6d681526020017f260c98364069a9904c6a61ef91dac71c1a7e857bb8e67bb3fc77385d68d00a4081526020017f08ff8107d63258e1ab7457212cf1eee690e193a1e95f9dc78a960ec1d72331b281526020017f299464f72eb0f3df37e5caccb91869247487295a907e307d3e09d688825f8ed781526020017f15e03b7dd4e3f6e09b468360f45545538a8eaad79cc038dd516b75f4d363879f81526020017f1f5b2d2f1d2e6ad8c83419077c5f5a7dbff62a35c69ebd3658809a6f6e44f99581526020017f0c2c0bc5c7ae5821621b9d002f2186d9ee2c0789bec04024ff5d4868f748f71681526020017f2c56dc116b747dade41523d33781bf04e0ebd48aad359d0ab6d1770aed40be8281526020017f2036e29d6ac2d1fccb34097e72eb3c83fdf1a8f46f635bd366c7ee8821234d7381526020017f07b3fbddf8371dec65c1acb581e6bf2c399f2b7ca6d55e4e06b0d39c7ab28e3e81526020017f171916e1c1fa526c37bd3afe3de535d64ca6c49bded87de72a3b0326c95bc0f181526020017f01d160b9d888c4dfdb3fd557d4c39ad843b8475ccff9b1af2d75ee66d50e298981526020017f2c0af76c92f60aaadbc13e25e5b3cbc17af58eb2492e4d4183349bb670dcd6a981526020017f128bb2be6de17b76afc95894d7b2de6e621330139991b7d6f04c2d88599cbf1081526020017f0f9433ab8c00d816c7ff6ff756b97147bf95f3cd439d5bf83b88987831ada8cc81526020017f23d8c8ee2770182d64f9a752bcd70ff4fb319025b93aad684256534721127f7481526020017f0ac2819b3b494a69121fb880f38ae24105a78817ebbba8dbf778c67cce34ef7981526020017f2db3fb7f726b215979e58258fef68acd7992a3e4c1eccd6ea26a1825ce92786581526020017f302d503c06f68d13efa25d07bb7fb2ecf542f13b68ec388e7a7eb6f6775fef3d81526020017f01271068924a438bfaa0bb02bde097cc2254a921842032cd663b8e327c0a1f9081526020017f1673945df1d00cd84466411a2d51d5b6d5d619e9039e31cd395d64bb8217150181526020017f0df5e1d9a68a7f30fb9248d6ee67bc47af533b5e8878305455fe79abbfae666e81526020017f109c6a7e1d3a40ef778347d0b1ca9176ef7960009e595c051b4c1d43e145060b81526020017f2342cca7b48f6803276c5cbc1649e7f7abd83e2eb1ffc8a167e029fcca12d55081526020017f0a210ccac1bbb694697a2da166d5f14db5d7f23c3ef34c4d65b54a7dd968e2a281526020017f19407dc30bba2c95cce1ab98ad5e115a91798cd4796f631816bd6ce1b31666e881526020017f12c1d1bc6ee16e9faf60fddaa831b29377c729c00303803331abf4bc1231709381526020017f0d18ea011eb392e7582844354c0c8a5f4f9845c5e89829fbd52bf9754106d33181526020017f0b08d6958dd8bbf753962058f963795f75334a095d6ff4be7b9a17c05b5f9cd881526020017f2b10de0dda3389ea1bdf97caaa51c2c18982115e01209cbd6263df17326869dd81526020017f2854d5b245a653e1dc74228dc002de25d1fbf731016081d96e0c3118cf58374881526020017f278b480dc52bd35a70f5f3bdf4e5c49024b2f2c3dfa7ab64c8ffd8d5825bb6e681526020017f2c2c6a26c203f063f09629532b84a951fcc0736c219094b07eee1cf18baa6b0581526020017f25ecb581c119f88095396008aefb6f4617791ca71febe2cb2ed545a11f03a4bf81526020017f304c4b7bacfb5aeba9889e509a4cff2a6533af23bc8f8a50a4cf2315f9b350b581526020017f1b75d60b591cab7ea96bc9d230a45ff9cd01b11b802867f52e1a717ad530162981526020017f223e54b69789234ae6ea94fafcbc4b7e7a03e9bf76f07366caca92c4d2fffbe981526020017f173f405437360777a6f2dd6c8334be96ae3b22d3a0f94b5e1e6a485ddbce73e181526020017f09955f3ba2b4afa68433a335541cfc43806b8004f26409badfef9ec252dc4c9081526020017f05bfe8333ab7319418db2b4d1ddc8d3a65ba3bd1959a6fbad6584f1f3587221481526020017f2e2bf27d7bb6c50e112d2ec1c0e559255ec0a226d2bcc64c68a2a381782ca7b981526020017f16fc086580cf06c9ef776428feefe2de390425079408a5868a9b86a2efc8961981526020017f063bf06ee965aef82525bc0283b184b8159d6cdefa1ffe1f487baf016a7187f381526020017f12bd02bb3a4d1afad9f52a40d5c3a60c7febd83430581f411a2f7ef252900d0181526020017f24226b63e0d481c9191e3ff9467ecd67bf1589ea7f12f8dd9d728263b0be921c81526020017f2f66702b6c5737b67f02a56c3cd30b4f036376cabfb48f3fb0866122edfdef7f81526020017f1b339928c04f6c7ae13514a6ad7bfea20d20a4f8355b203c4f36fd5af41aae5e81526020017f07cc8075c7c80134688fa915fe8410031fbea135a5b0d87453f7195c52db7aee81526020017f0a560bf02092cdc4379d03d0ced83f91a6f37e958674abc508dfdfb27fdb2b1681526020017f2512190dbaa522b99a091008dd82101721eb2578a0f158d1e49695d49084dae781526020017f2d4530cd55463b4c31edb6eed435a98b65a32d421aeca1f6f28be9f502a7c93a81526020017f062237057fe5c083356edb51e07b966bd1085cb74630974c2f54e4fc17c247de81526020017f129fab84874511eec4473d7c253e05b2efd9c53097363bbd3b1fb81c78249fe581526020017f25922d8e0da68df6b989b517d9023beddb559cea58eb69e13c3a02a33a43684481526020017f0459e5a438bbcc53be1ff348b488444794cd97b5282ba2b3abfd9c335b9bf1ec81526020017f2d096df69cf8493d1b4cc07b255f1e30a02ee6a386f4bd38643fe0ab4d558c3281526020017f1769d2c2acd2bd7eaadf97181c5e12a5468235e3b7421dcba763f2fc75f47f6d81526020017f0453800a2399b3e12683e789a60d8ef833aa24de5f5e04ad58ecf87ed5aae9d781526020017f0be3fdaa181ed403958a8f73781d859a94e2ff7cefc31e6bcda226a26631e33b81526020017f21962b54ef78d8ddd357dceb28d9575303792d071b5081f96f58b34a9752318881526020017f14f16649015de56703bd21a5b1ddf40043967b1d6407fcf2f9fa49b18a71168381526020017f1cfb6f6b94768ee5056a10abc46e240bc1ab6286269f942cf3ebe366cac147c081526020017f2f0491f2b8be458f6e0880f06f37ec619b5829db844a5bf4f4e2f761bbc123f681526020017f07da3e90bf7ac55289b2e07e0eeaf2467a3f633bdc4db549cd539cd66a05f99181526020017f1d2b0be5e01b5761423df7f71ac4355eac0ef4eb936ad862f341bd6f1416f29781526020017f10598d95adcb904f788248f500c13e516ad495a99158ab1a3f953e3bd11b93bc81526020017f2e6caea8f3606fa20c4dddda217a546847c3b7224e2f4250dc8e2da60b197e9981526020017f19c2ccfa1f91cc40a0d717540a4001751f81e98c2382b23aea5c2fd74c7d203881526020017f09f22e42f849743a519b027d8ce7bf47b0f48110d2d1e4fde4910d808b02f32781526020017f15d019c76ed98bde1bc4fbc44becf6a6a696d0e4b0c9405610d97de178b371be81526020017f2d5c05c441a430c35ba035dcbe23cf92c220b1d5621534f576b1906c1a238bb081526020017f2dcb8e3fde2888b58407b658a0453ec10bf885793d7567133761673f605318a881526020017f1a17e7ef8ed77d726f698dea2291f704d5559c0c27deb7845110aa784d4e44c581526020017f2930f9ca75e6081074d5f7e3b2ea14915b6e27bfab010551df5ff5773fea346b81526020017f2abd652da5ae82993e49d49f5f6c48c201162838cd76a75744ac8a0aa51438dc81526020017f1482ad6e0025e48c403cda5c08be9a0eaa25c273210a57cc442b1862eaae26d781526020017f14962dbce9b5009ebc1d64899d8ece872aff548a64b9a219afed06297c150b1a81526020017f11186941f075bdf06aef0b91abad1ad687fc789c1010f8606033a13a5264187281526020017f281a80bbd7e1e5d7b08dbfdc3d0f87d86bc0d978a8ec8c35f657ef53f20f9c8881526020017f272adb73d0ff13ff333fc0821b29534888634383410ae2fcd059b9f30202a9be81526020017f0c265189497b7caf768161009fe10ed579d47b5f3a78d20a98f171d869a04cfb81526020017f2b3e1491ea5b92d7c800d4fcb81893d859a821966a3f7695ba9fc5c56346976481526020017f1bbed85f5a9884a9efefb003b090c6ea92bd7164ff4cf817386a325737d137af81526020017f2ac99257b9395534ffea1e0d4b7528e9619e621971212ec4d6a92f78c0e92a4081526020017f0f9afb5dca50505da20d4eb5f265f6de45620bb1771db8761825d1b9da2bc40a81526020017f0239df5025a6d310e48e13eb75bba6b65ce874299968230bfdff50c015c8da2681526020017f1bc2f5e1d780a599544da7b8905cfd9d44a7594612a7bebce2549ee6df37a36781526020017f07810092fc60bd3467b41501cbe7d416478518a9ad76f5a73e4d77e1b94886b281526020017f1957ae7ed4dbd81924798513fe41eff74a661fe3e16886457f0099e71b33a43f81526020017f0fe012d169d025320ca2c7458bf128d4b7e6af2a58e0b710206487a1aa62751e81526020017f1ab1249022935bc61fe668794c344106096eea4c8eb9f8891cb984e2084d4dda81526020017f0fbc1ec08382e3436ad5ca0a9227d7574b736512d7ff703f7391f8aa632d957181526020017f137db1e8b645646f92d139b9778d8239470fead1433919ce710092c8a745d26581526020017f2d65eed8ac30366e555ef279beef9f3cb78ef5e484821a81dc84aa1b64d178c081526020017f17b045d8ec6f8053b98bd8334ea209996c8e444a33dd8a4e007944837f2a3e6581526020017ea4dce04ee2145ee4383d65e9b92e55b74904a0593697bde1ab063bb5e638b981526020017f0d8879f858c0a544f784b77539541697e8edae6fca6bf372576ba13a7ac798d781526020017f1f53a26b84485702bb29416fa8e20fdf731af3a345ebeafbef9b6f0fadd3580f81526020017f2cc9338e4ae59e7df64cfe0f52de3e4671039b3247ef20a6b47e20d1f3a93f1881526020017f1fa68a612cfb2a36787416d2093b6c6f9468e577aaf73ecb393d7ce17b0a7a6e81526020017f1e2a729c5fbcc35a541020b34e6406fe13ce9bde2ffcb0f9abf426d00951c5dc81526020017f0104c6bbd8f510189aef5aff4714bd77728581fc4c969bbae613bd813011d1a081526020017f2041d42b6e9f811c2be37e3d250c490663c0f0f3485a5e96c3952dd026d96d3f81526020017f1404f5f358edd254fe3b3a0f16eb45983097628694c19e8c86a34c6917430acf81526020017f07b9aeaf2f771079612fb7d44f73840e217dbc257bcdcbe3ec7cbdad9b6df2e881526020017f03a65e7613f1ccfa90f3f64ad6a4ad04eaaf402c60ce7b1253d0cbf97fa7824481526020017f19b5610fe6c670b170933d35d02f581ffff2748c77c2ec4efb0b340f4d4fc4c281526020017f1bf002bfe4e6067107cd50d2985c0ebd92931f53c3c2b93635bb786788f542d881526020017f0b5fa6459d777284e3eefa13d4c8d13ee8dcd602bf94577a83b4b2ed0a13c72a81526020017f11e5d878c90625f41627386cc23c817721323bbb6ddd2411efed52733a84e5e681526020017f199e90777f38068627fde9acb94ee9ab1643cd2f4e255cacd9c98bb06c18524681526020017f13cbeed028dd7d3f19f52c39711d1015bfc8f310dd58677ddbd7f1996bb47b8f81526020017f22b07ac7c1d0ecf02d29c00ca891015cd13f30a8b086a1db389be573b95d2dce81526020017f199ad9daceef1593964c9b88e47cd79439669c344fb88ea6f953faaa4847128681526020017f2415e7de9e9683f6487f611ebd17881116eb1214193c6b6f957f54e96b57c79581526020017f08bbe3ece960b39273a9d7485d28112ff15bd7c9bba1c2c6fbb34a6f8a3362f681526020017f01d745e3fe60e768326223b52d1d1744dd904cf83efa5d3489dcc22411169b1481526020017f06c0de1d4d28bb2f9afcb785976f67fb45950ebdf05e10f3794e30bced16225b81526020017f2e9609a3bf4fc074bb6b67b95caa72adcd0448c35d27fa4af3bee1df52ad94f281526020017f3016bb8bdbefa1608f2f5b09e331aeae2a092f95e235348e79fcf89ecd28c34581526020017f0418c24b02425af6013afdad4d27023fb6b84ec060d04f2c99ece3b3765d28b681526020017f14bd19eff1cfe8dd07b73a6b4c948c2bd8369b821337beada759cbc147f5389e81526020017f0918c3f3f191d31cb3450356bb01ce6cdbd26aefe99fa14f9b24e44061bd832d81526020017f2fe5db8cadc3cbce6d434274b33f5f845cd4538b3e0c735d0c94c87631ba800881526020017f16d5ac3db6003924c784c8e827d2320ada657894e1a39c0346a6bfd3bc6d2df481526020017f2b54aa393c0d26e29861b453f1c90cdbf10ddfe31d76d18e1eec8a1407066bac81526020017f04051844ed490a27abade063d374180edf187ed802a82757465535eda6ceee2081526020017f026f94736fdec3a2bb9bffaff7c8273e0e05e2ac0644fe7f667c072adbc42a8781526020017f143a147c4f13d8e34ea97557a61aebd5eefb101f0b5a151220e673219b67348381526020017f16a1155721265ec13f7afa91a34a49aa40c6a5d2660581d64000a665114e10f281526020017e65e6c7a22a09280b648d7d3739fd06066203ea6cbb926be220052f769c5e7a81526020017f04cd51e205eda9a57368b595f71c3ab8a8b511af6bf7fcf98c046b285ef2fc9e81526020017ed0e70998d26a59e1f243cae9987340c091a4e5c76bd85380aea3e2a33a519681526020017f1ca87154ec7821e91f958e6b5510f850ca629442d755ecd9b93cf700014a11db81526020017f0f06a6f17902ec83939cfe8b17a94a5a978227712fa776e80e5d52f8b42ab0ee81526020017f027e783ea995fd53d8a1e0c8fcd69652baaefa81378a0edbe4c7f9ec3693f2fa81526020017f15a775cbaba06d9a15c573e5a1aa3d973d8ed739aca7b4642acaa00092b5575981526020017f0e3dbbdf097554bb5736694e780ed9559c63267ed4f10eb8d91ee07ab0bec02781526020017f1a31f0e8013382b0bfd30b7a998ebda2e9768fe03450bbce59670125598bbe8581526020017f2844a0996dfadc269983c400f7d269f00d398a1f39945bb6cea168cb8c1feaf081526020017f1562c695cae79816f9c312f7dadf2a8b6f6d4727382bbeff79364f9c1b7857cc81526020017f04d65d003be5955b5a51c756741548cfed7d6bb337e3210d0147a295f3ab523e81526020017f02568944e566231a196589633a8970f4eb4cfafedfb59eac891e6a7ab8a3cee681526020017f0b72c587d28ca69913bddf69661639fcd465c57bfd77b990435ba8434f0a4dc781526020017f14c69c4283b1cd704211c370a88b96ed5e23511618c91f6aa6b74383e9b1747c81526020017f08e9095e2b86b66f27441a4638dfd4ba9cb5a38fe297bf5e308da4061240050e81526020017f0eaaeb3d969ca41ff96a697d4601914c26c4bcf1d8ec8e9c005b9839f6f0cce481526020017f23abbc4e2b918e0cea95e665fa0e160b3612cef3fd4efea0cda9dd54986b3a4581526020017f02e203f6a69eedd05b6f1795b2849a002fdb90e2d2c3da7bbc1c045a87c7e3e981526020017f242e39d0083455a5126ea3628bf729a78abaa23df71b26c08dcd3ce8bd5dbebf81526020017f2683868407d88709d4bc733bb9b856e69a3046c2c337bfc2cb5523975195448881526020017f141da135d14138107664f032887e91b0b210ed4bcdd06ba8f117ba0fcd6fa09f81526020017f2156ffc047e4f68f334f8c905b97ccbfbedd6b287f26d96ba3d1e58df99d7a0f81526020017f24838e22c05687d4f12475857eeda907b1880e036f83c8c6eca3c4eca9fe85aa81526020017f1fd0c6fb73cc7ae194c626ca61bcbbc66c125b682b2540ffc2e8bfe9cf5b73ff81526020017f2bda6c0baed0716e4eaff1e04bd71288b03d61c5b74af6115f368a070bc9f87681526020017f23a538aa26864a27dfb1431460b8753d6e6e52a383d2c3a938384b6e6c4dfab081526020017f1e1883807c9c466d0b7d0a58b75d5d72419a9f630f30e3f400d2a092e37afc4581526020017f2ec665ecafef23dfc6dc778178efc032a42a1ea4bb920912f10a9d6afb748cdb81526020017f2d3613db3d8ad49fae4ffb6025238895e676db502690bfeb1c8a0a9bf7adf65881526020017f2f5632b6719cf05d9c53ab3a0de4b3ecb48a15302233d38f318b2f40e0749b2381526020017f181d9352e5d80cca98d39c5813ec2961274bc1dfe4a58be346f5644f7f8fc06681526020017f24e101d4f5821a1e85472a6a6e1eb0d99c2e06bd2a5123517e372f887247d5ff81526020017f173885c18e5d27fdc62e53c36e8f113e010612dc5ba43cb8c01d2c82d33ff57d81526020017f1b4f778f6655ad52b188010aa499611699b70127619dbcca2133d641a9d016a281526020017f2b5552e817465b7acd391cb3f188eb151745ffc5c610049c54c71dd32d87a82b81526020017f163eb2269e213c83247cfd03e5fb64006bfeb2cdb328066fe32d39674cd13e4b81526020017f06fee8ecc808f5b85b344ac14aa3cbd09b14e23dde9cfec3bb9e00b9d72a0f1981526020017f28aa7626aff9c8e762d7c8e5fe5c1f2fe83463c6aca87830975146728d356c9081526020017f1710f62d16eaed2bd95485cc85789717eaad3dd4d8c7818d84b02ff820752b7881526020017f0c66733c0d8e9c48f9dd95c4449f92d351e54e4cc8d0ebc8387b9666bfea066f81526020017f2d8a42b4d0ba6396a6fcbcb6d28fb6c90e5ce8010be4b67b7a15538618e08f0881526020017f23498140954159b09ec1dc3f2af542aa9e72eedd4fcefddf73e30ccd4843116981526020017f247d00719f03eaea4426dce77d06ee063c43bdbcbd3560ce1f013609b18b9c1781526020017f0fc28b274bf33a2d48bd0debe3606b8b1ea15be0618759baa80e1c675a05be4781526020017f10ef13143dc3dcf0e27937342ad98f8d54bd2f8c63318ce7c3bb4d0e0308262b81526020017f02c40bb3ac6d70ffa3f0abc4d463145403aa169cea08ff2a89dd1babafb6ed6781526020017f22a1b6095a3766d440793b9bc935ddac894b4f418976cd596785d4b8efb8d7d881526020017f234217343430197be300419b627e4f7981e63b30ccfcc833387e8117fb9a6ba881526020017f1e86bba66f3392f0313c86a4276c0108d7425d191040d07ac56ca47a30fb12a781526020017f0d91667ba000f7fbbce2da5b5f320d9f2e2e2e8cebde1b05de289c5a706d86e781526020017f2577015357787051e27c3b945d61f4f34e79671f01192f7abe8afc885cdcd60f81526020017f0ba738fa8bfa698f4b8983e6353979dc3154b5bdc774a5c97f5c7c2ef02feac581526020017f1ec937e1d7e2a189b5d64d08070fa686fbc590d8455885a1d36a4305bf0e4ada81526020017f20e79875497409852aaeac1bc289e8c6b36147af275f453042e669aeb56a068d81526020017f287a6e2d9518db4de45ee547c085aa9c41f55d97675ce11a914a61205de6b5dc81526020017f2a85a2bdebe68435cd97e80c4b688f72ca552a7625031e956d5401752d48e5b281526020017f132cb86f0e97b921a15776cb365fbbb64e427f16a3b890d1f5f5b599a23eacc781526020017f286b4645f5374fe9455d671b0d7982733f264fdbbb6941fed7b69b9529807a3381526020017f102873b4d46d72d66f4849e33a0453405736d6e4ee3d32a9309d28bb0557c62881526020017f09681527c0017ecf2a537fa94417b1817a489ac9d95881fb0f07eaea42893d4281526020017f040e01e580699c40128d3ee8f8767d786e23f4112135c7f2b5bc49c44a434ecb81526020017f0943a8e4cb8094374cd9193aeb6ba3fe6b97e19d34132f6ecb453965ef98622881526020017f1cff1931e404a565d158433a6ff61db98b28dec7ab8f2b5f6cc4200c27de90a381526020017f1171c11ad26c778294b1c748454e5c0336940a71648e5d64fb67fcb7fd03391381526020017f0e9690126bb6fcca5c64fc0927cef5aa4c4fff6e2c67552cff535eb5c4268f3881526020017f1f1421ad5bc848dc649c5aecff001c1ece27d214cd8181eb490b2e7c9a5684f081526020017f1d7493a5a7fa15b3230900de02945c32deb2a2c29dba52302a943e941642976781526020017f1b71f3307f711101d4ffedf14c1b219be8f71f9d9a6533339e73ba7f2cc8515f81526020017f04ab359b9d41f9ae97b785b11eb2223cf7fe80af9b00f4ac119a07e7fd5196a081526020017f156f25dbd6f30a68fe9d10489a1456ed795b747c520ecf57880ec25c2895ece081526020017f232c0a3ccf596be057d34c0d5891ac9cc3288a2277f97c458a4a1af755ab889181526020017f10979bb99c9a87a3e306d5c10bc4908797b63b79af68768aa7d5169f8d5e2f8981526020017f011d8a6d588c08380b86d57dfa7b1b25133e4de18df43a80586146dd92e904ae81526020017f0846b92df66538db8ca0ec402e7abfe750bcd50743adb530edfeeaeba74e359d81526020017f288334d911b196d397b2d68d8a5337e5f52d602579489d488b632684eea12ad081526020017f1d58742eaf52de0cb891fc4e80d7bb0e63f1236474416c1207167b4bbe9855a781526020017f03dccb20c8dbc4d4808a945f73587192db8df2c00631dd9f0041fb931ae63d1a81526020017f063b4b00617036755c345836d7afd18cf708c3a659e88e4e93c485b49517a87681526020017f22315ea8b8a9a98b3ae138e7e40f92b0c708c772ab9dbbc860ed03eb1913ac3181526020017f28f51251278656d7d36655ffd3a5bf5e5ce7727c404cd665513efb66064054ed81526020017f0c33bf25fae03587e300dc68f1f7b95c896d788e9d94f06c0d54969d9af264dc81526020017f149ac80ca669fb4e9818bb7045d0be994e9c3b570e7dfab814d2b8e1b2b96b9b81526020017f0530ba4ad44b006b76afcf9452409132062f889bf2762709c71c85e2619a1f4d81526020017f08125e74e1eccebe262fce3d01aad89df88481d6bd568308dd809e429b39f88081526020017f01ca45dea3cba2f0d60ebb681707b0e10b1d580e7044514fa895947656bc876681526020017f2d54e14b993f5ff7b9bca0deb9b109872279bf1f2aa88d5238c07af928bee26181526020017f1f222b3f7af0db104d9f861e74c210b3594470cbce2848e4ab5eb12bda84133e81526020017f2f30bd3f01a371be869feb8fa83485e0a659c1e450e7434b15d89b0864c9f28381526020017f2c504389129450136a31cff7a8c5a9ae3ab463cdafee43d1fef9ff3b5581e70381526020017f2d5049d7d6136ce315281b3aa77b746a5d03529b60bec053efe4b1cf0222b72981526020017f159a6cd41491a7757f338411e32a86fa4adee8ed43cf7fafbcda02bceeba616e81526020017f11a9849e926ab19ce98469d94109e9183c8e50a5d9c2d68d1b850bade33c365781526020017f28c4e62325b1b60c64d187387a1bca168e43ad8d5e866327e3ea47093962204481526020017f239e7929ac786a542b7229f4852043aaf9e13793aacdc095b9b65c949d398b1381526020017f0448f11c6eb0494d26f8336f8f6a564ddead0c0d342badbc94439f519787703281526020017f0680356792c0c45a047cf8917a7a41bc89edc44fc71808d3be5c74797dd1677081526020017f1fbb825ad90962aa490ec0ad09ee4f8d38733a6b5727bedd4891b89e2c664d6e81526020017f25a158a6ee42ca1ba7be16edc28c995299331be2d3e1b606414ed3bc46c678ef81526020017f1b80089246164f7b9fb7c4698848f2e3ae65444374cd892ecb64e76cfa909e0881526020017f0946d21d448f25672e27c61eb4d59a9e8ab513f7f40ef586bbc1902d2d6c9f4081526020017f2a51dfc30bd27fa6b4d27c8119342570c700c6371177a2caa1d4c574509ad59081526020017f049fe6ae1002c3d4f44265c30aebc9284c5fc8c73a01193a162650cfb21b608081526020017f113665d58ba1c2f28d28684df7a494999b671b2d31dec359859ed7c3c3e61d5081526020017f174c7b3803821c5c8450eaf68936539ece3f499c276a148748589ac6aa0d35a081526020017f0c38b52651f6ede8deb6852563354f456b1ae4d495b9f8bc9ee7aa8cc50edfac81526020017f1d7df493b53d74efc57b39778d3457f9f56c8ed39c2654b6beeab15d6f5e88c681526020017f21641c9ced7b453072d6a5413faf5cb86b1ba451bbe248a640494fdc2d0aef9b81526020017f16ff9f6ee9f8f0cd7720d3468a7111574d760daf5300e1bbcb56876b8ab4fb2581526020017f2dda3c11da6102bdb6c5f24bc7a35e8551b88bc8f1bcc1cd849250b522c97bbe81526020017f0b8aa2eb0af612e442d401911e4bf771eddea6c5772e5c8625a9815ee7e5652681526020017f29778448c69c085da84d5871f76c86f4b1a3a94133f5865cfe1319fb19d4545d81526020017f0ff51ab84638be25e6aae814f2c91618a3d2136a68673122f08e1dc46276478581526020017f203572c9a1992dcf6bac6e17df1a176387bf7eb0dd6e89fef403397ea05b6a5681526020017f0c5ad7650ad06e72ba2d97f50b3e64165c4c6ddbc5e3b7dce3d4972b1b354c2181526020017f1ed81a526fbabff947a5f453f6d705371023b87b0943cdff9db1d950d2d168e681526020017f2a8f321574533d922924a69fbe8fe1fc866c496e3b58f5d5c8e6b831e4808ab181526020017f08335b35731ff6d9e1c24d9679a01c16f30135c25e9ec18a72faa5e7e7d52d1181526020017f0c5a4321a152f58865fd280ba61f2b843279937b55fa81020e3c700dcf5d104681526020017f146b13b88194a6f2f552dd34fb3b58652b074a852afb18311228624d7d48a27781526020017f0bfd2856e63f47aa6e6b139677fc6cf9b3398104c0e89b7d08154104429dcca081526020017f1c5ce8089141f64cb88ca7d1c809e5ed0b92c4776d87ad63214c99d7add5700f81526020017f1d543fe7318e08abb7e1069a38e1b7dcfb3e120c9a7360c7d3f4c7597a4d57c681526020017f25181e92ed457f060362565c47e53c79019cda2f0ee63cd218fe4f60723c279581526020017f14d022ea688d69cac230d3182f326b6871b2ee5505f43d62c2998faa2352564081526020017f0a4d70d0468e96d4d768961f4d613d0de0372232f15ac5d093bae66bbd0fdb7f81526020017f053da667724fc62d59864479ef597b82f520dc6c5a76119c73a48a963996337c81526020017f1406e1e6b50f4094001614482d296394a8a5f1d4ecaf8e60f074e7316772bd6e81526020017e2827430785771f9bb08988bb3554edf5572bed6e0ae9a45abe99a1dc4bf0b681526020017f0efb1fdc6d5072e555cdf587af2e461b6cfb568639d783464655c358abf6629381526020017f097c56a59a83ba2fc4d706b7aadd093cdd1bc930dd15ee60c5243337e8a4eafa81526020017f0c3d99de769e48ad74a883ce04453d651c02e8ff3776ca3996cf28b583cb1f5f81526020017f22992b4e2b005fa30c29a71c386ff7edb88f26d4adf5b35e88676e5928e683d081526020017f2991a46f5d924a18e4776113d80fd2e1c685282592560d0c4f21c0a3cf0cc56981526020017f16f073591bb330c01ead3f77524de5cc9bcd4e781f0f3cd862d0133e5fb0bac281526020017e7af4b277b4bf874767329f6f8979bf08723f27d3f655b59a38b1d5acdbbbf181526020017f2dbdff903011136d83977b111ba28e589096dcb290ff1a3e00684b12e71d77e981526020017f0fd9836cc949fabdf026253da54eca21161bf33c8ca7261b5216b29719914ecb81526020017f1194c70d1bfb25cdb5f0415b637b337af22d1379b6c929ec530d0f5b20947b8181526020017f23bee341abfe3812c529f2f037eb8420be4ea0973ae8c22deef73b1338048d2c81526020017f1d9473cd6570d5d6c1153cecc11b2644ae299e2732e3bb6e2167bf43354fe44b81526020017f1b3a0fe39cb7957ecf0f8aab42d6d30d5b1eb95e4dce59c78483a961b8b145cb81526020017f255739b23d7b2c5d3cea2417773056a87def09cb559cfbe9e4f016b073c4445681526020017f2e15d1be4455f36ed99615d59d6b560ca079e89c83fe9fefbc7172f228dc74ce81526020017f1d4f11d00be0bb87b451a940efde7931972f8b37dc9bac847bdc52aea496718b81526020017f0ff75f6e17dd49bf084d3e1690490929e6c53e43ab54349492979fa97ef07ea981526020017f06811a919b05301b0d0950c70f59fe120b3991a6156d7184e01011f461d1252981526020017f1e214fb83c8232f956ad68ce10e3b479887ae44b42b887d2475c5e27bb090ba981526020017f1198493cac34968f67c9e788b45469a1634e9336d05c080c27b04c56e065adb281526020017f12974d2e2c0987202e16d64f4058139666eabe317ec78e1cddb8f1aeab6ae6e981526020017f047ac87e53e6bb7ff4fde2da147671ea9f03d4130cee8f267cbd11b106323d6181526020017f222b51e4e4ab6b9fedc8ff9b1648d3c941da8c31c402a655c30e13d54bddbf9681526020017f229ed220f93b1dadc8d458ce3562bd850405d81706599f20b68071ec7feaef5881526020017f261a088db63b8c0edcf35aca699ac903c6d9aa4718cd5f54bc6628fc1a327d1181526020017f1a73b13fb5e3ed899fc6959153bd8d163deb01e14e0331df429073b0416a097b81526020017f08af4bbb4256f16eaaff7cf9c58b903d8dbfa5f9d7060eaa9a1444b6ce99aa7881526020017f29ae0d9a6ca9bca1532036398ff432bb0ed92b6713e5ba27695e89b9884dca5981526020017f03132963ca4e917d864c429ceb96071bdcb773297ab662050a8bc8d09b0219ed81526020017f1498d5ef8e4494618124626902e7b8fb0fbcbb43369e188493602284edf6e56f81526020017f0446c0bdd9d73fba1d967022a6f0ddb047aac76cdc97699566401bb4564c102681526020017f21035606b3ff98ef14bedea817ea4d9c0703915fa8f0152be78bd03efb10b5ec81526020017f0942f34087d8e0365bc4d20ced10356f9cda45079533580e51c1ef883119a58081526020017f12656c2ba68532a0bce3a88fea5e765959cd0e0bde155e6a277dde8fd26016fd81526020017f044790fee011516721338f5abf1c61d3b7e9aafc3629ff546a3ee42704f4337e81526020017f146b8909c078ced3b52fd8cb6abe16a8a21e69770d953ace6087a557b2e5359181526020017f15c11df25426607fcc35c14455869dac425b54633a82a8352d8b6367520e49f881526020017f118c78660ae1aa164a6647b32d47f9a62c1f083b4ce79232e890d90f0f23c87281526020017f06e78333777e96cfd676f43fc998202c9e4d8835d0a574cc183706da9fd6bcad81526020017f16c02f387786040f1334746c5969bde2b2c109a0184bfd8a9fbb92bfb6674a5e8152506003906101916200ee2d929190620167e0565b506040518061322001604052807f090689d0585ff075ec9e99ad690c3395bc4b313370b38ef355acdadcd122975b81526020017f1fa69c987c6371ff51704116523cbd21059e40d295eb0f4e2702ab556c5eff3e81526020017f1f15399598c905e15644a95f525f41154903590853f2159af188137cdea0969b81526020017f037e46446bdbae26e8aded0e7686111c903bb5b640c1470ef074fe9be712424e81526020017f07d95b235c8da0ceab5c9fca11955e63050cec5efea90548b65b66ee8f6ead0881526020017f1d472ac29b641582faaeb9b1f49d38150ae84c3c33a5f482342b2de979b8a07b81526020017f132f0c17c76b2a60398bee00a07ebfb263e6be58dfc9a9f026751ce767adffe981526020017f012eea98b8bae1fcca11343944219f93910440568b21122f074d8124f5ae88ab81526020017f01909645e97a4770301ec591181585c03ebc764f92df56a33f090bb139073b6581526020017f2abd6fc9d5d69118c45c7a1018dfed54e0880a5f91e7df747f3e14dfb3cf192281526020017f16b43554d8bc5ecda93b00b14266bf3227101c55829950f66fa42d442282c0ab81526020017f0208940bf89820581355a512b7b31161e7cc7ed40b2e19948c3f6590bbedbce781526020017f07365ad56a9997bb932d265707832c46e6afb64ec22911ba46814f677f4702a881526020017f2e83f7190ee5b45cf335b8cdc48c6d59b78afa5b0dc33b9d2ae66d6ea0bfda0b81526020017f05387788214b4ec6231531c5029332a33c07be2403f76bb9c4c68e448630f6d681526020017f0209172113fc627498d41358059e848e273b06592f6e369da0f930c3cb26d9d381526020017f09389c90cebe7a43b0448da7d7b3661e556c03b1f3dc1086f1853b465777af7981526020017f29633612a7ea64849e2ad11c73b6134c367601f528947dc2aa05922d221c26f681526020017f0c03443ccb913dbcb5f88385a02a18fa00ca0d98e88a668eb11c00f4ce9e9a8381526020017f2a8aa57ed87db9886d697f0f1c44326be99eca52a199c8734eef4f4fde6e267281526020017f2d3e68d957b43c5da3229ad2c0b5047c50a71084eb324dab66c7683cf0022a8c81526020017f0374cfeeed29c1519951321ec049b2110d6bc5041c9c8ff52d2ffa2cae8496fb81526020017f0543a215c34ac6a5408dafd85aeb0b8c3a2c25f773187f5a6d8d82feff7b5f3281526020017f259e5528fab8d1d60f2a01d63793fc7f057bcee47aef2831dbcb780e45db005681526020017f28e3f39f053059f6b548b68e05b2464ad4bf9f6c9833ace307aa9a438662557781526020017f04452d807668ecdeb0905fa02825334e588660ca971095f3bb9ec085c3782e8781526020017f02cf5c42f789443882118519108ef1e77d071de86b55f0e796d4be90bea0a44c81526020017f080cacabc0253c481557ab383793482648ef5da09c314c95891eab60d4fe14b581526020017f2caef6adebe782153785f75083aa61865b50acba5994934a38599a48d9d4646881526020017e060a171cc17fd36b420e7beae96aea84e4f3eaa7f09cc07e0003740cccaa9e81526020017f29295e652ed8e338b97acede09f8623a1fdd8677eae1a44d8dbcb459c435478581526020017f0f9fbebefc582421166730d3d77555de76d17d261698ab1f1755830b3e579b6e81526020017f1fcc019bd6588f20078bb24c8fd722016f3ddcc62e2b71cdbac406d26a090a6381526020017f2812c2b9c14685485af21193ab2e2855cbbc9730b5deb76e68f63f2e022ad08f81526020017f19d10584d1fb74f5027bed70969578ea8660eaf65c8e11df150fbfbab619346981526020017f23f25350768ed613b187e707b3b0c46b43625f82d86439baf0b17456c2fa7b8381526020017f133839cbf58d5a49cc9ffe1827476bbf511a1c405ed1c535234de00d8f0188ca81526020017f30337139da68550d89d3cfd7e0953ef00ebc7b1c6e3e6e4248a1d9768149cfb181526020017f0cd9ca7fcebfb295c52a2ac9bc765a51a5d8d543bd3aee6f007f146480f37f7581526020017f0108ffe604fa277aa678f3bee7738f510652d4d9b897546cc645e7ea813a6e3381526020017f266cb8041b62fb94b6476a23fee1a44a67ccb1dc9655ad2a3c6e81258e19da4c81526020017f22e2f675d297f0f3ceb62da2c81f933ee50abc90f9e333ebd6fb09940917ce7a81526020017eddd4d81769f4cb7d87a97c0e499a0e98dc480174ed59d49347ba49a526418c81526020017f2a98bc7f884c1649239522c786a0f66f7a2ba6385270036684376e9cd2d0debe81526020017f06ce2f746a8748ee79e575bd099338bf4a067fbe8305e1bc9ab5feab85f4853b81526020017f07805134eabd297412fd56b7f1b3848de5f91ab091ecf8bd86cf9d0d9b9959ac81526020017f1522225214e594747d778680069bd36205a9dd9ef9097baecdb84aa66686a31881526020017f0119dd6fc92c28bcdb8834a744b2118f6e0fd43b2357e29d4e86c77c50542a3381526020017f1ead0b6718db40c9bf9b886d7cb23b5eccaa26e5ebba759eb85a358c2646101881526020017f1abf932cda139f8f145ec7d7ce7188e5baca8b5ba956acd1240f5f18bd8327ba81526020017f152918ed437a2dae5026476155becc397b0429fb6b97b1246a5f04b712fccf4781526020017f24c1b0cd87b067ce2033452a66b69e869f1652e059b19a181d7d2bbc2073726481526020017f08be16d12a3dd1cf7fa4d2884a22dbfd718717174423bdd16edaf8c3c361037c81526020017f0c6df2e28f60228ac635ea08787e495a9b2f55d2c8b57dcbaa50a8bd8abc222781526020017f1251583298f8cc8451191b2f859824860b9fe6b19585cef3f132ec55f2ee798681526020017f2a0821359cc2662ce852f5989e7acec060ef33e6c97c302e70da6f5c222eba7081526020017f0cda0798ee0043d2e053eb3618a5e1b59a624dfcf150e35c5651854663f8a83c81526020017f22eef80bb110f75aae052dcbb233994d0085f1ffebf9a657fa58e8b33893071181526020017eae0c3836f12d6412bcc6ee8687c679c7fec21e5a793f9f7de1aa773b405c4f81526020017f1203a54825cbec2eed803da5cad31641270c54d9bd9ad0cd81553cb0d75b56d781526020017f0e550f95794ac3c667ddce6c4d8f6af7f5f62aedd6ae01ea858eb08ca7b4eb2b81526020017f2001510b20e5c2f7c11c5748e7a220d093f8ebe2c6099662fec3dbc4dfaf146f81526020017f129be19f7b709d4f66511fb56cd7510c17d99d37c2a281dc7e167712cf761d2c81526020017f20ec1f11e38aa9d9f99e844a91d71bd30ae4878e44b7e5d3722f32363e5b665181526020017f2e5abd0768705cb1ebb1c69b31a2bf4bee000b901a7c9e1ed1217e73c10399b681526020017f2a5ce7c6005ef363f2607cdaf0074e64d5b56ad308cd84a1bf47d6f64a3c1e2b81526020017f079f363ca8705621e29b620306fc0b05fbb16f1da4a7a8b873c2f56015a76e4581526020017f0a05ba324a946e308ace2d0aaae609d2278db7749bb797ea7d12ada7475e863b81526020017f15e66c5b7434091a4dc4a9064084f5e46d44d7c89265dd4689c5a0e50b4c3abb81526020017f1b28ef4c01e27532522d814ff10b437f164895fd9a3034348d069c78be4a468e81526020017f17c93dfc0e983d6a6f67c98ebf344e0badc5d224f795379d46281fc5ea680f9981526020017f1275cf85e0dbfe23b54daf43344765e66eb7f1eab4ee5ac42daa28dcae2ce89281526020017f2cca95109b4609a6efe66ca2f490037d65a96eadc86d99aa26c42840e263dd3481526020017f17881af3f604e434b025015992b6a09a25137ac6fe34e40d545b5233e256813681526020017f2df82654b8cb309576d5ee9a59c1757fd83a3c5e93bad1db8f7e1c72796998ea81526020017f1b9d13202e43555d769c13ff1b47be1e8837bbb848f78014a81741fcb4a6172681526020017f23059d311267416bc309d8aae6c1e4264c6df5f7f551dbe9daf88cc0fe54f57281526020017f20d04c25861c9d9bfaec85895b5806bfbdb704c5f515e92c7002b0da83191dac81526020017f04da130aa8f94641d4fcddf28c8215932ff65c61026ea33b50bddcd86950217381526020017f2044157a2fe716abea350a05bbdb81e1bffc119fc84dabec9a08e44e4f3d7ed881526020017f25f28d0a091c2608c9742916a3695535f38247a4cce0b9f72b52aa5d9fac8ad881526020017f09c7a0ea014bfbcfb2e17645c1f85bc7374cfc3b01f006d7b00c289634332aa981526020017f0e9fb0897f3e7fce0f6667355fd837acde7044c854b9d32ee15b8089f6cc133f81526020017f0ea8963316ff376ed4b910b89d8923a293e54bf286d40648ae06b5ceb57de73181526020017f2f9083050c692d1665dbea0095d5a99c64cd006e43a273beabab09cf56bf507481526020017f20399c958ef81219926bb4e9f59322d5ad2112a2610326e68600289ed56a2bb681526020017f2fa9d185ac3040b29d0d20916e6e24cfb4999902dc4dad591446b758cbf351e081526020017f299a9e2df0604ca357d28197d26a4fe81d03d675cc3d540664d9054591a7201f81526020017f16a1f8b12a89d2086e95b8a32f8403c8302d4ecb2ff64296e8bf7e14e3b285fa81526020017f0423962e140ea89cab9ca140e47d64fb173dafba5f12a88fba219050eb10082881526020017f0ce9750bb9fd49372b4b3298665b74c1750f1cc4a46884d022e18a9887ff78ab81526020017f0c1b7b9c47b605cb28a4606379ede95f474603e39ca39c10e59fe21b1d5a524f81526020017f25ae42a92a000924915edf07aef30f2550a2c0bee3492e1124eee10d154a1c0781526020017f109f7492d09faa481f0d9d091dd62af64a209198d59f2b335ab7d94a67ae7ddc81526020017f10f602acf7eeade674055d0a8f54a897a7abb33938a665467f82d0a6f3978bf281526020017f303efa923fd7969c903d76dc5e415e0ff72e828d77938572cd18b2957554337481526020017f2d93715756887bcd7b790d1470727c1bee02feea2a3066627d9597428992c58c81526020017f27c923fd24dfb60472a7f522bad4cbaebb84379980fada397275c69540e072c381526020017f0512f22477de4361edc0aad1afa36970201e3539a1d90ff73d0529c62a9ccf7681526020017f0de679fb0de0b17d0b035a512c1c9da2e418ec0cc490997143b5526e265ef1f681526020017f06c4fa40d9863ed5bef0038b13eb83bf899bcb9164d907c777fea61c8932f69d81526020017f2bb8dca79c631b8713c95fbd76a40a3a1ca0b89b12960b3bc717385fc29f7acd81526020017f286590c02c0ede2d87ee07c1954accd5d7534b63cf452af97a20d9e6bca0312c81526020017f15551d7baec21c680032872cdfda672b9475eda75a7ef38f1fe76d2b7e0cf03181526020017f1bf20c9e26834b9e872c82ef5321467dcf4f94b8d31c1ab0706176db08630e5281526020017f2e0a683242f6e3edce73cf3f74d6463a20adef5570a53a83723221f77da76d4881526020017f0e0ab2fd86ce8dc1389ed93b8eec7c60965cdbfeef38a3c8fb0e0f72b1630ccf81526020017f2fe879b71c365271fed1d9ee93de496f949b9c0fb207556f66ace41e35567c7a81526020017f1faa3443ba8a3d841ed29d04c9331a0fc53c0e0c9327b48d30af7b553406c7d981526020017f1a94dccda91a9561d63d2bedea404791fe682dfcbade7041f52e37da95e677a081526020017f0cae3c9756c6b4407de85b6e57203c68a9427af87e767ea495d1a41a8ba022c481526020017f1ffa1adf13b5788a363aa0cbb33998e552da6ddf71e7eeab9a3284bb79468f4f81526020017f1ca4eee1c4cda8e5ecca442979b24e6c0dba707832d0a31c8e4181cfe32af22a81526020017f080290833343eb65007b54c22c99ccfdb9447913e313806392078394e30ab3fc81526020017f1fa4cb9a42a5047d9d49e766e23117e7389e727e168c8d239dc33eff5518eb4d81526020017f2d3e0faa5652854f6bf4a394f91d1c1491b045ef60f027a5867778164f82aac881526020017f2d7b0ca7dc100d60e1ef1f9c5d0de8ef8c054850730966ea9be7fa74ade797c181526020017f2ee52a9aa812f8ede04d7dae71ad056a7df996c98836a86870ef2a02915d069c81526020017f1ea7306830b919fcc8f90276a4d447dd6395043eee6aed87c7293342b002592581526020017f22d8748bbe03e3048d38d6e6e83aae95dbaa10bb798fc0a6d471d0bf39778d2681526020017f198d0725557c6f2bb1f79809e96630c40923dc4fa3038c3b605e76e7f4c2797b81526020017f04dd0ea2fd07dec62a9fe738cb4dc0d3404aa1a56ef700600a59dc7957888e1681526020017f2d7cf69b87dafcee610ef77399dd1b01dcb40775c31aa2f41cae8209c552f5d481526020017f26aa2fdc639cbe5f7d27460b93c64c969a6d7bdfe047e69f7e0458d6c886f98a81526020017f1dd1b0abdd09fa18655f8ab98345f0ac1e41f6f7206156a2cde6304603efdd2381526020017f24208ea7c79dc71abc1ad76826e8a9aa37620de3285133abe93e6bf5d44d221b81526020017e48f3dd557699161fcfb5abfd6e730f716a08496672805ef46ba18e9c326b7d81526020017f0923232c5b1271b10306bc10fa1fd5e2474f28b984669c1a50ea2361ac5bb3ff81526020017f0e54c0c0718fb3478d310fd4e74a49bd2ba7a410e2e979678591e236054b622481526020017f2091360caae0e86af82828f2f2aef945f19ca68beaf8554d8f8159ec03534f3581526020017f1fc7f0b654fa34c1a1dd5c03397d1ed355129b2efdf5529251ee1ad770db629e81526020017f20fc90303447c1dbd7574b9e2e2256e9442d03a5a6101f3b834c5752e42974f181526020017f21f23603d03337ae7cf06b90ee77161b8ad5f6f2085c5031e947e1882184f8bd81526020017f11addb27dc0f27cd1f7f2dabbc08cc6ab2a8b534048db1ff160777eb55c2450f81526020017f21748293dc8850249e3e74060ef583d662da12600098395346a60b194aea455d81526020017f12318869e9562e71f8de0b48f7bfbc8694068dfefa40bfbdebcaae31c622058881526020017f03d23715d3c76274ab391792cdecb2304dd0f19622f6b5433ed9627e397cf2ca81526020017f1ab799d291917565cff94b6161e3a9c38293e316b4665d987b26ec946aa234d781526020017f2e2b465738a711edc444cce7e436f28d49919fe235b6dc66fcd59ec34842c11e81526020017f27f2dfee544f8150cb199a86102d304bb3888026cac27a6ae50f3eae2761b18181526020017f2ddf54f4d2a57aae618b8b2c7ff9c42ca9429e7989d96b2292dbfab8c3b231de81526020017f04addb9ececa9c301b11b5b51373170757cf2056e72e48e447e3283a65fd865281526020017f1ec8b456269a3000238bd54b2235f974b12b06f951f41f90a7ab3144107301ad81526020017f1be5de40a5024ca2c861444d877540e97666a2336da1145428467e88465c0fd181526020017f0dabb0aff066eebe534a0b81cd558106509022e758b2d8c15c94a5582be44cf081526020017f07ef4e1275f4f718c3c89de5c9bce4723db6d1792c1c1d38f37d860fffd1051381526020017f1471a045151d84294e4ed235dae1e9204222c73e7feb60860a59e6f272e7c12181526020017f27b20fa0f9ed559d5f0e33319a62bf97640108d45ab665cbbee3c1864190a6fa81526020017f1ccb1c7a478bc326e8b1a59fc568fd8f1a0c80c7478740643a5a894b2ad750a881526020017f1b08a4859d576dda796b0a4ea232cb95a8a99e132b3cdc5c687a9f707c4f21fc81526020017f274bf8668b58433f8bf58dcd031f32fdbe1e0ba88dad70f781da564db6a094c481526020017f2ddfceba900a276fe68b7b76bdfd36a05c0f4dcef338c78117de0f4d510807cb81526020017f0e2be4ab882ada2b25c24ededff02aa9633f8bfca0869bccaee96ac27dc3196281526020017f1f35108560c1d226a8105d42880dd72aeb425e8a5d63adc070982c64f7f5eed081526020017f10dfc725646db18997de7b21328faecf052dbb20312f40d2409c9344feb745ee81526020017f05fe0b720f0b73118bc545de6a2ec56eecd2c9c5e72b04bae5d5d265f5390aba81526020017f296484feec13acbb7909b57a6455ce4997957b9559c97463d4bdc8002d1245db81526020017f1c5f5489d1e3ea95ec88184b4a9f73d16486c31ec69b2aea134e908c062942a681526020017f218180fb3a63fc48bb186d2d2875676ea27ce91a43e51b4bdc7a200117684a0581526020017f12cd4ae1ff45dcd12292fd8985cc333d115a07a3d2427ed3f76f141d7858f55481526020017f222d63af54c041a0f5938cc9fa81f584209780a9ad6049449d3c18ecf515c7ed81526020017f0e3947658bde28b49c9ef2a1742b9431f4723fee1dce57eaa84cecbbeca9e88681526020017f1c675221a39e07dccd8417f8184e6442b135da5670a64938f8e1c23f66fd59f781526020017f29532b45992b20a376fa12aee93dcdba5e7ba6da8337b8928b10936280cbed5281526020017f2cd5da839ab30884609455eaacf7231578a3e41db5973e8333cfe0288eb28d8081526020017f2f58656bb88061911654353170462033d101db4d52b82c7bfb29c7e517ff008b81526020017f060c9458053c75c7bdf6649db705672e87c5323f42ce720999a626be1113f9e281526020017f0fb699a5eb3730660b909a8b9654f49983fe899cd7a4c7a12adc6820549e34a481526020017f1865b0da659bd63c04a00536258d2dfbad885714329119a302e8b85bc8baa37081526020017f09c326db49ba94dfcb21ca8c543e11be8d369059e0ccd73367c93f4b640942a481526020017f1f784f295880f50afa631648f5bbf43f4c58b5cbc52d9e4fe92a96db2561de6c81526020017f03e141cfd3e52375861113206e7b6c0228af5f519f34a34c837a2489536d290081526020017f229b5752fb3d39e563eb6b542877f35d9b94f6c615f4b53979a1c85536db5f9181526020017e81db706ed79b9923d3a6e0639a26d89dcd0b6d6abd980a194a815775bf94ea81526020017f19e801004eacbad28ab7fe829dae1321467fa2d9e48c1c1662e42d4c4a4c85fc81526020017f18428f28f43ffb436adb50460d3cd231f8e2284b0be15e32f21ee1b6ca1b418081526020017f25435018158d425dcd5980ade58161a4ffb64de5ed660cf6860003968c1596a181526020017f0db1fa06d06f5453d0bcbca957239a49b3ab5f1255687f54c914cb5e865d10e981526020017f1d6eed145e829a75cc1ff05d7deca89a16563ad0222a887b79a4b3dffb64d6b981526020017f0f1fa36496aa48b824d1bd6187a43e70d28d7ad83c6cd81186f5e1fe3512754c81526020017f2ec1fa725865cba297da6820f87ddc4d89536891fcb8cc8c6c9c5b64c62525c181526020017f2911d88e25cbe7ec40000a825221e1b9c1ffb175f1c08f7d7a0431455865a9c481526020017f0fe5e26a62b5eb7786f5cee7f8bfd325a056253f7b0291739695e12ca674c9d881526020017f14908296b8e368054eede4e04a6d21833fc593ef60f9962ec673097a9b39459b81526020017f26dedbecf967759d552157a0d8f3952eedbc0c55d4ea7d85aa26f5bbd8e61e6a81526020017e6cf9aacb5946d2754368c5a9197c461f65ae0bd42866e6ce914174775fc04581526020017f1afc4aa38de9e292f11ebbe145fb0f765c298cfaf7f1e2409a41f869b3a9637381526020017f20858194aaa0c3d7fb702b3b97e5181258a948b4513c72896bf7e7c534e0832c81526020017f0a95b2d5f163b21cd638f1052b148cf08d7231eb32ec60bbe9c92364fcc9acd281526020017f15a9cdba99568623557010d9eec4a5d7bef5978df83318587c3fc7cd3b9ebf2281526020017f1f42a2391e55b32a861ba9cd2688dbecd7ef04dbdf846357d7be8a6dee697c9681526020017e40640a2935937130eb2256d65b590cd45bc06e1224ef4f32f6ec3348af640281526020017f1a9383b41ed6248a832efd7456e75b0109c81813c693ab936c747739c6d10ec881526020017f283fdca46f38213e31fbe67c2f7b9e94fd4734f48332579eed017bb7f548391281526020017f1e956cb04381c90294fd7fa05ee768fe03006dfbbc22eb22926e593baba6999781526020017f2fe8783cccfcede5a335059dc1497c120fa622d37bc2bb032ec5a84f5ba9e64581526020017f1a513888e9c452b96ae4e6b332540919f40b396aa1096b02357e700808f1aa0d81526020017f19a300509220959c9f5df65568aad2d162ff25b34b73631623e24ff810e50c4081526020017f13bb5bdd2c374525a806f158da3d3f73c02c83f1244aa3ce25e3f51f6afec9c781526020017f23e1883c2ff8fe6e0ff0523cbec6f2278df3148aae9d889598ad77daacf775c681526020017f104e107ca888762e1402fda55c8450c92897b3a58b9c0f0c75365f251b4f99fc81526020017f0b2313af6f36ca83a7103d746c3c78735594016276abfef2de97abfe008b315881526020017f1717e6cafaadef1a429e928344fd4e0bbd8ea3a61c0c4666cae939ab1dc60fbc81526020017f165846bac31446521652daaa4d51b4e48b92eb312093b207808ca8ab8cc6fc4481526020017f2850269882ff48755c1ea0e9d9bfc998d09bb6ece1f7dc297159ce8ffa60b9fd81526020017f237deb916ebfcd390ee7767fc4629b375e65a992bbefd8b5df01ae6ec1ffd79d81526020017f3039fbbf4b639d1c015370720adcabfec4e4d26ed104b628e75afc8ccbf722b781526020017f06e941afbe32b09fb708fc771379f61f9d786cd1f9ad5daaef6cfd1074dad0e481526020017f21d0852bf8d308026e9a0f5fc77d95238f8087085f4aa0840b05969e32822e3b81526020017f080be78f8a8865e17daab1a6141d9f92e6f29a777dd92abebb40487d938cd36281526020017f2dfcb6d8fe169802d9e61d7cc1a78290ed67261fe1c5d1be59ad9777575c8e6781526020017f19225ed44882ed32439e449f6e7b615ed27fcdca83f8e2907f1ae6cd6377680881526020017f1751f130c727f78db02ce0409654492e49675aef878946d2127e1c6d478ba22d81526020017f201faf21cdc824f5de4543be5dce646423fc185d40439c9ccc59cb7bdc5468c681526020017f1b0ada7c3c9c6ff7d6133520373f32c4150f4505e48982c51e972eb34cde78e981526020017f226b332663e6eb75273a94f2eeb445f366def1c875368f7df0099f034624de9081526020017f30213833fcdb869fc6b7f80153e096a0f221f5006201f7ef8d1c276c38e2e3ba81526020017f18cf4e06b8ba68e31c00f46734613929e098bc3a7919b8d5a156eaa65f61b2c381526020017f3005e72ac7c70051f507432c6aa9430699a42a93e6c716886015101427c3171881526020017f1fe10e4daa45d429677c2ed4cae7eba6accf552678c5bcf59f69c0a79407948381526020017f0c7f9e59f59fc307b3bdb73a4df64c70d3114e8d267053974c8fe509c219009f81526020017f2f090d24fbb78db9e025aba3e6dd4c52f1ed50c15f53d735ab54d90de951978381526020017f176324a4f8e8c2b1698e98b3b78db0bfd3f985113c8344435a3208b6a629248781526020017f17dc8eb1c1b519a7809a49ec5aab6783454ec1827eed1ec210a3ec54f7f98f4e81526020017f1853cfeaa934011d123fed30e6402abf798dad371317043cffa24dea7d59a96a81526020017f0929ac95249f1843c67f6e8e60fe655fe8dd81d6a1781562fd0182f0593791eb81526020017f1e91e83e698bc0544509f7545562d133272d42b9dd20f3b9a728e5d42d799f3e81526020017f2f9d48268cd39d0a0c3c26aafd02f89bd8f02afb8b7f7540e377dd0048146cff81526020017f27c31dcaaa556c2bb6704ee5db6543a5d65835cf0ac89ceaf0450944d2a6613b81526020017f28c35bd60ee73adcf10fb9f1f655160bb27af1c8dae0c4c612805df231912c9981526020017f200bd369325c2327c436a0e17a50ecb201ac89e3722cfbc0597f982e236dae6981526020017f025d7070a376d2025d082f9fe2929d6ffc3f5e53b4209770a8a886f47e2d21c381526020017f2cda5805049726a9ed2b248a61e94364b30bf5d2b9309ad7f67e094520c9b57581526020017f2f540ab95fd29ef88c5c984d317135bea0c5595bc12181e65bdc3ab1d92523fd81526020017f18591e5917db3a2c2673c7a62cce9ff827fe80bb900123932437cf63352848d681526020017f0f9d83d29f37150eedf5111f8cfba031bacae8e27781d1e045ed10a6304fa5d881526020017f09a4747de9b6b2afe50b8f446518a7a44d6ddd2158700c85df7391883c1ed5f181526020017f0d2bc6dd986ae36dc093920bb00fddeb45f6c2c646784b34339fccd26f856b2781526020017f08b943bbc6934e61ce4a660442821bbe64d19b43a25de100bf3d3d9ce0b0780e81526020017f04fb8ed23a0cc5a9c6dbc29068b345d46d3e5c0caa8d9911df102282c558031381526020017f1c9095261ee916593e549c83fee1b9015076109fea68092a62345a00291ee6ab81526020017f238b7f053fa6353dd0029e1e6cd25c59efc5906098e741903696a8b36d2d512681526020017f26816fe832c27d7593bd08c150674ebe26684f68d868c91867fa39eba2d30e8781526020017f2454032dd5cbaaa405a52dff8490f57350094c1d7c6433720c1f82b8ddb478a481526020017f2bd98f9dc1421c83c5f4a3c869224dd1f097ddcecf34c0ecd8349cad51aa0e0181526020017f26f4dcc934dbedf79735eeee47af942ecf4215ca503c6a80c6d0151dab5c424581526020017f2702b954b6f7ea109711f00197974de567ed7cf6d390fe0ba6f3f34fec3915f181526020017f027da626df1da28ca976a1153a44250aa4d83985900a91bae065e3e09586b3a581526020017f09920af8287e086699751956063de79d1e26e74580036ae3778782a8a5a4046281526020017f0ddcdbd2ff7966f0f3d03809bec46c83757da6e1c8edadcb5d00661ea72c873a81526020017f15e0d2f5926bd8fe5ee71f4d8f9aeb5529bba056ed34076cbf69921a8adcffa681526020017f17ac1d1a1c4050978f35af6e644989a1625a1ba0182f5b0c174aef5993bc04c081526020017f20f3726b591dcbfda80cbfc0a448bad8d241d83a58be46662d2a6e6e46af91b181526020017f10fd44bf9ee522e8e84334682b920a5c5baeb650bced29ecd233fb59c3fcc91781526020017f13951edd2bb1bd5599993f90ce6ee1ccc14fd14f0b29e1f5671bac37b73df02a81526020017f0e410769f7229dc9946e59338a8ac9598b23040f84d88d8e63cdd5453f676f0f81526020017f0209f94361b3a1be18c187406cee372febcf0791f904770aefb211dceb67930f81526020017f2c53d2c11a8e61d594f10557de81a43fb090f37dc0c9cd706aee697ab5f1a8a581526020017f19551bab6646790d9ad1cb6063fec8a5dc4991bfe11ab2e08c1a1ea7c3796aa481526020017f2c2772af23776ae58ac28b515b939253582098b165c71f3179cedd51876dc7a081526020017f1a057549a591d29f7d45e53be2abf354b6103bbdf9fbf7f55d4fff083a88594d81526020017f16102a6e9d39136a263013f96877fc38ebda605037de6652d928801c556b85af81526020017f227176c0009e7b16c0c1f8f828f770fd5e5d1f21b794f35abecdb7f439df96c581526020017f07123a34520cb6aaa32607c1441e3723b475d1f9f33665b970604920f3af94c981526020017f2a1edd52cb2f8533d7174a51d6e940fdb53b1f0567c3192569b95f06f8b49b0081526020017f10289aa9caed92e8c8d0649a4971670e3fb596364e9fff1199b4f0fd1aacb03d81526020017f1e1cb99d9b67a81839c7693fcdb4edca332df44b8801d5bdbfb2070f0bd4071381526020017f1efa870c4917a1bead2a83acf752613f694c8ec85dcb8c8d4cc93e47333e1ceb81526020017f2b11ebd88583856c792d4c6e0af316867636d211eefbd3ad73053deafeac6bb281526020017ec1bbebe4ae3d727f26a211704a6a52c1172095f02be36d5697e8f442c0093581526020017f1dac49fc6a5660dc9aa2bca004b549e591acdfd05952fa1e4f37d90680f7c5b581526020017f0e6497afb4f5537656117fbf594231289e9e7d963f6299f832edf9812ed1db1a81526020017f24dde645fe488efd534468b30953ad182b4dc8b1aae1d218e86b01f8b979474681526020017f223993067865c097de1766af15704284af2beb4159d919819fa17df617c5a87381526020017f077cfbeb2d53f5bdcf1242f3d19e8b6c96ecc604efb4593e2e0295bf1a29077681526020017f2c6bc760229b66f8c0c7f840e9a997c3e5c63d267c6a8296f5734d5ecd0eb5b881526020017f14de79b9f10edb7e93090dec65e77054aef9fcb6418fc7d49cd0daf04d8ed5b381526020017f09979bf5cac36441e156170d41a8c91812999e91dbf065a9d15505cd6b14ac9681526020017f2ee9ca813d8bc29919deb4e3eb931f12f2a4d480e66aad7ab8ace0003a978ecf81526020017f07be5401471f19b509fed38c3d222fb14ec2bfed37152756f6d79a71227748c881526020017f2f01b3cd02df42453ead4406be181b54786d34e9afd4bee9457c45cff4c41e2d81526020017f2580e92d22282a45a465e0177a6b5e1b148ec5d2181c808b1c481481f758106681526020017f1a80b2f8f403f259a6025ee66dcc66155cae72b4ccf43dfa5260051d446d5d4181526020017ef2b651e15bd62ffd114b45cafc2269d79567989c8630c1ee6530e69cf3d25c81526020017f2973ecd0f780bc64bd39b24f638a5f1e9a87303a46115dc2c251ed5f6970a62081526020017f227f65d77ca94e6112f1c46223596714ff2c8729b42c4d0cc525dd29e2cbc99281526020017f228bbffec41646dafcfa8bdd45988ae475c7145e3180782d8d7d7cb6156ce28c81526020017f26e9dd29b73db4147897c4bd7d304c4ebecad950e449facb21fde20f66be646281526020017f11e8698d9fba7e6cb13758facae5a85139684c05ec79e6b004d11cba60e2bf3581526020017f1dc5198189c062227cbfbbd4a0c79154b12a96b0ebb9f24560712920943f8b4681526020017f2da54a94a8ba0093800deed90f79008baa2c7c013c51143ce877f15aaf8de3aa81526020017f2e589452086bb7f814b1a184b67dd1126d4d1a73b44aa03f0d678fc60b7a3abc81526020017f0c5e054f966c4ccdc0e3fd4e3b4ad894f5c43108b870fa44a449c4c71a8cb10381526020017f20954c4117fffb8849278726943554adcd7789a5b6c79b03092a55fb0240183681526020017f2a9dc385c68f785be64229abeacb10a495b0181442fd1f6cad22ba1bdd23709b81526020017f0e852938558da94b7d1ed4701d6bcf4220a228fed31ac455bc35cdfb9978f76c81526020017f1bdf72d00d5ea7f4410ce7ff72a58406760935d64c3f1bfaf0c8c0a895ffb19381526020017f25ceda5904cd75cdb08bcc8eca4991c1b35651a7ff87e74c87e7ad703959df2881526020017f208d788a7beff5f42198ac6c8ae2cbb1d637743a55eb05ea252d1ee9a4383eea81526020017f1c2a458587c48382377339ab1d6e8be8983fbdb9d429b1c994736717223daad081526020017f2b0d4dd2f6f4145e3af5e21ba9ae76e19ec1e1b3355e895e193d103ed63aa15481526020017f0fc20285213ff5d14087044bea327f65424ec8afa9c27ae88830533cb4006a3c81526020017f24f688dc65b73c68e62f1032df549e594e206e4bdd1f449e8690fe3338b3850181526020017f25b081133155798aa5283d5d4933458315c9960bd2f01c18000095ec3c94885d81526020017f17cf73e4ced1315e4bdccbc9055dfc44a7086d5c4176304d91ab9fc91b0084ea81526020017f1938d63b22ec0b11fd591961a69d4051ba37ca849dec92b688cef60e2e4b373581526020017f1f2dc943ddbc193fdcade8343aee1c280919ac1cc520321e0524267928bf77b181526020017f18dca42ba36a0f4e6a318db364cedd470e701d63b794716c77f17d64418e5a9481526020017f17d19142ed1ede30e550207befe21ac9b7756f608f23533fa4e5afc68c7e779381526020017f1d3432779fee0e41665f6dcd48dd444bcf746f968b46a77db230de93b9f4581781526020017f21a1234a29b0bd243da27c78a952a9f59f231d1cf3c7fcc2f657e39a6f64caf281526020017f25d003434d8b1e7381e796c5036d55786f1fe332be124f53a02f56ed255760fd81526020017e10c5a15980ebf3aed0e8055cc594457fc8a14f0dfc696492caddbf4378c39581526020017f025c1c2c66598920482b57f798d7c157dd86e1931a74a150138aea119e5f399881526020017f1e031ed4faadc76f0dd9a66c62752b2e83bf83ad52209b8dd80f07e0aae5169581526020017f0d79c46cc4ebad7a3a13d51377a1695b2f59e99272d8ad02caa7ccbd44df5b8081526020017f2a9f2fec7d09a100441999191999e829d008e7253f26c38624ab176910161d3f81526020017f2c2de5e51af9c7020d408f21f8452b4443e89d58f30d45d58cf099f0a509d7b181526020017f10cef388872441486fd5f9fff0cee232057e11ef42a8566beb54335eeb3264a281526020017e9f1bdcd7343a0e48b44a63e4a04dd771e2bae297ff23dafabb0681b19c629081526020017f057aaaeed6ee79ff0cd29e2b01f6988ad9d08e685ea8a93ce88e4ea79f3d5c5a81526020017f03995daad6754bd61062bf78b6660e5c725f7f306ce1e613dfe51e8f4e334d0481526020017f028a2fd46234da2ca05131c1ff6ec7d35aa2e50bb6e9605c2f7f0ee5baad1b5781526020017f05fb68b895f5731de5331fae6cf6f7931c20ae0b0c001d7d75d2cf73f7fb052381526020017f15ad2ea0138ed0a2988425f2363bef3d7dd94ae3219a7b02dc8302a2007ba16681526020017f190d01f834c38a43a6ec05cc63fd8c4866bb39ae0f540fe357c1601b08bb32da81526020017f0c958c4b5f9804d93cf255ae9c7ede6e4ed635d9fa65e680802de248f7d6d6ac81526020017f063fc87de45dfc2aca68c39479ef1f39a97ac634b2106d5266a4169948cd9aa281526020017f2e719833e2466e1f4fa508d526374adb0ba1c5853f862a74262201c34eaaddab81526020017f1b885a0f201c3d8dd2544a47c0a8a28828c18d45e22cc17217eb681362b7550681526020017f21bc9ede7a3209df8518f4f54e852f90e6276e8560d8a5f0e91a415d1ab260c381526020017f0fec7c2ee7fb10c682097a88a3cfff1a4524ffe00a689b5c5ae180e6dd05ebde81526020017f1021885cbecf7bea556529d5f886bb3544f9a0857dbc9ff3ae3547639bcf75bf81526020017f149f9c82154291902b539448860b5847cbb101b8baffaf5c59c1b058917871ad81526020017f1f629adbf62027cfeb82188752c3c968e3ffbe714a0bfa9b48f3c8c2021c33d081526020017f04a91b0b01b392e957f3744e4c5ae87267e966ed1a4d8d3c53066cf739e208fc81526020017f1320f08867d05b5b2578dfa2643692a1cc13f6b328dbc648807ca2db1d68360881526020017f0b694a8f6f8b805122fc0a7c047cc3d830c8e7ecb2e82472b4dbba4a449dbd7b81526020017f0476aabd827d9b7bdbced430974a7b5ff29234af4cc50a031a7cc872f1188fe181526020017f0576e631420df5b6f1f498eb7e819cd9b5bda7bbf171a562503adfab6c63714381526020017f29e507e89c52b989aa3cfcf94978d7fa282cab57ff59b3077c69d0470e2458d981526020017f2fece7766f1d495d33e92a76fb46a6e4e5852fef497bf90e295880a6618eccd181526020017f037de56c7261c6467666de2eb80d79a7e50ee0f3ee921e8552bc3e7ca468b53d81526020017f0cbfceab18709cb5c149a4cf668364a172a16769ace40410a0eecf3d9f193a4181526020017f1c861380ee2dd09deedcd0341afda9379fe2994e3b9350a6596fe57104a8d77481526020017f2bc543d5706491d24bf60087d203952d018b19c2fd53286e88f1ff724fab672f81526020017f0f27a11c97f33adb42f1a0f1ddafb0d5e4419850164b8052b1f968b757c9099881526020017f0a8a0acbb80cd8fa0600d4fce837f9a59006001ba346e890dba66258f3ebee8581526020017f29eb08e318fddfb86bb30c2105826b37f1a89c36db64531df8689921e928c16d81526020017f0c52d435ba6653fd2256d2fedae00b75106f1ef29ecd024baac0b631b325056681526020017f1a1fb084010c9af82185b75393d5c6a378eba56bd6605fe9eefebcf66b1118c581526020017f071c4dce7a841039e9b6d844b2c91f064717b7f576e393556825b46ec551158e81526020017f2de98971be6127425eb357fe1aa98fad1fec65119a40e7615fb91d1bef8fa81881526020017f27c0b02d758d22b65d736496816a4e121c7929ad8eaf68b94f36fe1e46b9055481526020017f059de4bf6b396e4aea14a41e921cde9728e3620043f478ddadcacdb63a1db54681526020017f0e606fdd647ed96e1de6b131bf7d166f4b8fc08d8f48443d9d7884029b307d0f81526020017f03db723adf0bbd2f60ed4ca9afced5d69541dbdfbeb8be016517f8762cc3cb2681526020017f154f430b7a81ff718781cd9aed1b5def3246a88b2d537c17bc697ccb3aa96d3081526020017f108ae40cbe58a6b8d82840666704367d01c47afbc694a619735aac6693033a0181526020017f03f0216b9f67d197c35eaf0c7d90d001d75271de46308b6908b0a486876e505381526020017f175347fd6d437d93fbdf279bc786716c3e95d2809ef10d34f83f1f686da96bc081526020017f1c946745496a8a7b0a9793fdc4c5640b0c8fb893614b7c08dd090cdc28730c6081526020017f2f48ed50fba87be8d692e4c5973a2d214d86e8d2effd5c8e0fa416e9926ad05b81526020017f053eb1fde1df285122f06d3efbbbf36d351f338772c8a9097da0431c19f9efa081526020017f10632a72e0148f6074a76de1237d1ad27d08985838716f0b1b42d60ce31be24f81526020017f2ca574dfe9d39b82a9bed592c71a8605535eedfaee36abf3a4d0aa745eadb30c81526020017f1041f7823d9aa937c5242ddb661f412756464dca657e2dbcb61bcbad232b768b81526020017f27b1630b13a913f1b834c739a9f2504bea1bd17c933001ee7b1c2ac5ae905cbc81526020017f1f65c7f449ac5a08a280f8745834a652942cf3b416618753966c094cc18ec14b81526020017f0d6b4cf797e1a704cda13dfe3fff2ccb3a7b199115c858900f7581c51fdcd4fb81526020017f096ac603f601a26464edcdaa7b7c47cda7d79e61a8312e0fc56511e0aa5a9fdd81526020017f2d1b9f1888586d10803626b09b8e2e17fd045d79b258cb29daf0499a7f94b05281526020017f1153de0f6d661e2d501241da4a66f0df7058235e5a9352a32bc9226b77e4618481526020017f01656d56e98dae4c6b078ae42b941089cc1177e2138bf2c776f74189bd4ee04481526020017f23a37d5f74433a83a6e636142b1cc8ebe7aa4b2c0448eb3f6ece1ffde2cfdf7981526020017f12f7076c0eec67680e0d9e920ad1ada1d1e3892225ae49cbb9c99e8ffdf8728f81526020017f286921f0a5ed7563fada12e79d05cab2da4291f758d52e8c132c3aba23ba28ed81526020017f3014d712b5037f3b2806d32d20ca0f584ceb7f69289b39d039a568aa5ca0af2481526020017f2234ddf999f3a87e03d7b86c8f052d495ec4821181f9624ac22b1c567e6e02f981526020017f0f50554266cfcb42076ad5bed96b53aee9a016c49cb792e11c7fa98aeede1b6081526020017f17a25a761e914496762c8155c0f263cb90e8417a7f02a9d06ef0a0b875351e9d81526020017f29af8bd92b18511e3dee054b439caf20a73dfc89ca766e6a5dc98ff07544f79b81526020017f2691fc5dec298ac3d8be7a1eb0d759c76250360922ad90d8290599dcf6f0ce1581526020017f178fe14cf60e583940b314d0941c977c965f50b1adc1e90248ddc2c839128ef881526020017f2d0f8c1f8621b704594b46bfb6060277e90a1ed22ca992ec75a77cd1aa7497d781526020017f2adaa116427b8d9167241a7dc001c2fd55e3e648c1656e93c431c12e973ca8b781526020017f2ad00cd06f5cba503eedd2113e6282530a427d92be89b6a6e5eda8b4683a666181526020017f18ef699660d64db188ffea7d9b92281055c6ac0f3734ebeac5d42977d8a342f581526020017f1334ec444ff1df88d152af4499243aaacb3168a8f04ca047a07f3cebef083b3b81526020017f254c80a50ae1a910e626c4787e5d5adf8cff405b2dcfca1a4449ac03ce38618381526020017f0323a70967edaeb176cb752a5778557a8b1a54e618c42e06ac50284856dd742881526020017f1cef0bbfb413f23f57170da3192c477e24614ff1f36e44fd0ee22a1117124e5e81526020017f2068ba923ff5a540bc6967bb5e22a90ebef5f649aec6ea29aa80d235ed3b818c81526020017f01ff1914654009fcb0c75ed6ce3336b3e3fe774fb5bbabecadaf1fe2feebba8881526020017f28c865b63e472e362c00f536d84da9541914beb4872213b0c099a3c306fc350481526020017f22b550e564d79fd0030c8c3a4ff81d700616b327c4f9067f53c36c9332b3afc981526020017f244b895e2457521883b1aa674c08692200a094dd924e00d3f4c51a4f7242704081526020017f05a8ecfd884a0a474cf955a0541b3a2af0bad6f112fa42d8c9f49df8cbb62ecf81526020017f2c8ab920ff02896f4f7cd2d2bcc7956b7fb03799d62cba9f0ba4bbb12a29752281526020017f2bd7a730a042aaaa5aabefd2994bedd1f59fa61bacaf908baccfcd0ad6f9866081526020017f29c7b19b528d28f2728bc2b31891a097f4c1cfe9d594921184567120ffd35ec3815250600490610191620129c6929190620167e0565b506040518061322001604052807f12c85ea5db8c6deb4aab71808dcb408fe3d1e7690c43d37b4ce6cc0166fa7daa81526020017eb6884e5d02665b86897c3c692d952ccc56cb84bc137759311bb2c2c86690cf81526020017f02919621e2ff8494caf99207f3c6a8a950cea2f30433fa96495ad6997e46080381526020017f12b3c8620bef242ad47d612482c2b86d5ac6e08d92d38a49e6a72226da641ab481526020017f2af21fab1e94bcd2ed406126b1f83b75a89bfef82541a463177f406fa13c82d981526020017f18419bde812a1a553fa037040b9b70c092b4830884952149ec9056e3183b56e781526020017f1918238e14b33ffc4f315905f94f531229b440f717e364a43246ddc58b42fb1181526020017f0dcd7d11e69c974c7e61a5e0dd4561a14204829c2b875f540d8970c5c0e707b581526020017f263a6f2bba50f82c812065047d313bb6d86fbfceef4558d4f262c9f20d69c8c481526020017f191e8d1be990c1d0bf566f911d13f4a73610475069673a7d1f800f1deebfd88981526020017f0e123f3a5745e948daf14fc47d8d9b5336b1cb5d9bb0fb3c68d04ccb47beee1d81526020017f1984e978dabff2ed3d8e1515ea400023eaf7fb64d89a528c70ad7b3eb9cd7ce481526020017f2257a99b9478b978055242fc1a98147a571ba1f43057cde050d8813bfbeafa4481526020017f0ec988ac5eecb315e32cb41cfa9bec5013b0615d2f322af29be6219a5bdf3fbb81526020017f1eee2daf63193476901af1b01f4da4d6c59a897255029a7db353baa86efe9d2481526020017f0e0bca0ded0eae6179e55e1423876a253f80067996d4ebbe83497ada53b6320181526020017f016c225c8bd04023143f8a5da99cc7d2d18f1b7dcebf03780642844f38fef2e181526020017f2e7681726c48f794b512700d647290043e0fb1e19753bbe52014a3505d1b96cc81526020017f0b1938467427c21fa90d0086216ee3709c6adac62b12731c427db5de7c72375c81526020017f228752d2eb03435f81f42eb563ddef9a14d641c91a0620799335c1ecf7c64dc381526020017f18411dcc53a6fe418c7780ad7368c5b19e37c0f341c4dbd3f480c58da060e6b081526020017f03cf2e74e1d28b8b2b21ead98aef3367ae5b865331cbb23849f7440e9a425b5981526020017f10f119065c615ec9d9c1edd9b1d73dc6d90d7769fe3cfd44c830f0f223a10ea681526020017f114ea3edce42e4619cab653010bde13cfae92366d3b3e8a9c603fefe7bf0d9b181526020017f29c74b018d8869b26cb316c30ba327a14abd78e8f06886beb21796043d53bb1381526020017f21551755729f1ee937e705f1ff5ce4c59502213cc0dec1f947ba25ac4247b2a881526020017f0a0db2582b63ee89314f1b2c837d02a1ade37046294e236ebfd56a4460e5d79381526020017f165b88084196f13b818d704e2d41174c32e08c4b76e3238f9db2c89cd4a9bb6181526020017f2c56b625db75cb16352cc88478dc993c54823a44ddfdcd1462ce542a4cc1aafb81526020017f0161ce2cc47bcd117c39c81685fc40ca5428dcd84ee9d0ad77be31a0d117099681526020017f2265ae2d29cd4c5b97c0586b99d3cee355fe4d8fd255beef3c8b170e9482914681526020017f140419d7eeb6ca168627487be08eb158d650fa77a55f1d25b491afa93e4955ab81526020017f273f1c5764366aed0e82cf31df1ed5637022768fb5fe3226a2e47395d122464681526020017f12deed3939a65f50328ad8bde5df8af6543f0c79bdc00cec310b54381fc8049581526020017f074090cff5c01d68c3faeb74f4853dc5d56758d0b609855395e76fe61adbb12081526020017f015881fbc3afe4997afbe5f3fb6c5f75fc58cbed6a7f2bb474d5819f1cd2fc4d81526020017f12af30f26de66ed24007a87476c4033d601191fd0008d6fe07d8c863a0c108b181526020017f10e196c7884c2b1daf217e96834802052d18ccb4d190e5ae7c7dcbebfcf7c24881526020017f21668c4a087bda2e8626af411f1ff4ede58b02b3390bbbcd3d003516f9eddbb481526020017f0610e2e051dcfc2b777306a112918039ec4bec15904830624a4b3e895c9ef72281526020017f1156c673b2f4c5917cd98be80cfa05efc26b9e066f9b2874a2b343d7c3b66c6881526020017f0a7b453f8d7ca14c9ab4c261f76164b6cfae4f8fb74a21a8c5de2b6a1086d86581526020017f02a60150a0de5ea3c16c79cea9aad72499841f082a4e85616007c04a51dc33de81526020017f0684e5344bf2871685886a641ac030840256874bf4f73d641c4d430fdfbe720f81526020017f0c271f23c72c8892e9ae80c9c171bf7c23d914121543a6fec6d566f9b3a0c87581526020017f0a5d81e65833080792764e42a117449f9f1520091fdde1972f3e587678dd8b7681526020017f22d9419e578f30ee19a483a3db3c1c263f6e764c00734ad1287e78ec0f46775b81526020017f2af806dddf7789d31cd28142d5cb72a11fb13089988ec82af966e5de90595ed881526020017f2126b15926f4edb6a31b9313400257600fd7a8d03e773c392ab5cdca7408bf8a81526020017f136daf0f2901ce4cbeee7c608e437dbc3e1bb81384a7d4269d2019a8672a9efd81526020017f26a3039a71318ca0885be0bcb048a392047ce0bd1620e8a92c236c92dca3be2181526020017f18522cfda3c461af1437a3e43cb1bf4ac6e4d7a9e7291e45e11298ca6528648c81526020017f148b4b5e2e404a927b996905f4a438fdea7e6d47931a9e8d25dd7984a22d35f281526020017f0af5ac4f74f11eaaac1e223edea619cd8a607a502424a3312d6b64830c1382f581526020017f096a5dc14089372206b3527d37c7f1bbf83415153189e6456b6dd7de9e72ddaa81526020017f125054697789084ec381f0625646aa58885b0719f7af6e7307c24b8fd2a62af081526020017f28940345a2f4b2d81cad8647f6f8736770e20c8b0d6384f5a46ab1b1cad3781681526020017f23dba4657529f3ba2dbf432ca7317d30282afb9dd8028094e402e8edbb7d9e0881526020017f0b59bea50ac3e6a89346f2e2d943b147b695c8d6ca757631be883ea87f2b03e181526020017f0530d9bea08c612bc6c46be5e056f8dba73717b7ccc088e2e146c01287e5b51981526020017f0249f0fb6b0bf67ea148afd7ee1e2814024425b9833e1e9503c2a04c7ec1424f81526020017f0e5a9502f19482eb99c0b8229c2624afbb9fce1be0cab9dfedfadff24803746e81526020017f022676e361ba6a86fb4294a3ffc4f1daf89b7059af7b0410268ac82631261d1e81526020017f27016a86ae247b3b7799fa041a3573924f251a8c53bc9c9412cb16499957ef2581526020017f1694c7a5868f55694aaad6b14905bf53cc3ac80b0f4fd223d2c6876d18f3394b81526020017f2249b6cff0647eee056ac0b1e1918a5bbe05bc07e6b3fe408ee9d1e68db90fe981526020017f0547aa59383a6c1e278484ddadad2e737007bbdafe46199a685acfe1dc699b1c81526020017f10e41e1d19207aa2f6f92d1b4c9e27768f3de9ad3ed7bcb03681a8a0a7fc417281526020017f0de6909aefec9f531aa07a6e87311ec5c01e625dd505009cd1b1a2c61ef0f40481526020017f07c3a631ecf9fe308097d9514a55664c22ad80bbeaf0b5da95de642090b42ce281526020017f21516a5f120eb9bc554edf7c84918be350a8d870403a60010ffffa635e9c1ce481526020017f198b039afccc349ca11055803ff7a1e9363df1c5225e61fbecb11ca34ee51b9181526020017f284478b4c3e0193bcebd56c9f5dc8d9a20c29601638d04dda1fda93ceb460a6881526020017f0d5ec99c05efd8e02d40d24f2c534c5c36bbdeb984f869a5e6600338d60a01ce81526020017f1c4ccee50cd7deca3b9e4e05e02fd8538173c0bbf6b28d4690fcea3230b1668f81526020017f0705ed3a9ba00160629f0a779919182d074fc95e2b0a88536014e80f1318674081526020017f0e2cbb38ae08f5a5f1f68bbd9a65d31917fd7aa85af41d730958d38ec75327dd81526020017f0f8282723511f83a54b47b48e70fcac97fc61887e63d81bcbb9eb74c26f5575d81526020017f0e01af8cc8d5ee9b3beaa02c90f43edb5401dc015b4ed73ab3fbb38be410f9d581526020017f1877afacd4d873902f578c9a153c5114ddecbfb551104dc75dab5e3bd293f89281526020017f2608e7f11bf769a37efea8c48862a8dda89bfbba99f7dfd86cf20dca05093ec681526020017ea9c4e81d3e1a65249879af42bbc6411927b04f23ceca1cbbffaaf8218b7fa581526020017f05d720324590c1764f837fc34c267e088f6861ed808dec7b53c8a07aa09de0ba81526020017f0aa9078c6e4f3f85437d8eb00edb58ea0924ca34490ed67e90dfefbaf4e94a4f81526020017f2ad71b28f55d24592ac35be91bc35fad27a2c786bbd70a942ee51ced3aa00b6681526020017f1585f870e403a9a5fe872f7de5a2f605be1e42e2f18c541235a65a545dbaa49481526020017f2c7c71b7bae2476a24d81cf09542e3ce084c236234df9740385f92084bf16fa281526020017f2f1112681d1ca5e84d4a7abeb3885d7142fed6d5d5e9747c24f05d6e728b68bd81526020017f30526f1bef59bfe68e2a9eb8cc4c772a044ae6e4874c1b08c25feb30b435af1681526020017f2394a9efcbe0b6f51ccf136de126a3a1bae115bc7e81e2beda6a371119a98b9881526020017f11a8186c23f893cbae1a9d304c5c3afcbc7a0f0919a4a8552de7f8a145a5fdb181526020017f1de99f61833cd5646a830ff78c66a7b4f7b4bb98a8d8daca0da974d68757916681526020017f15c24eb6c703e394005d9e36343f0d5f80c472550f67c33dc503209e8099023681526020017f1c65879ee19f6c80c3377812e26914f3c1e5affa73a25082e7a0b8f02f21f3a981526020017f2111f83533dbef1122027b82cc13ec219661ce29577c8be72b34cd1ec1655d2381526020017f0d358aa2da680cc9529fb1ad202075a42808562ebc383212c85f5254d845738581526020017f2209378241f085c067b4e96aa5baa608e34302681517a41e733637feccca38e881526020017f148b61961e04055c4243988d833c609116c655c7cd971c2415e00717667d026981526020017f1a86ae591b41b000a49216dedad915704ea8a959e63448c22a16de9d543706d281526020017f0574eb8447e88675a8838adb2decdafd3251f5107d1635f4369b99abc9f1ed3481526020017f1ae9a093f447ef39c5ae334a596e2254a1eb052d6e65c5437cdf27830bd7ca6c81526020017f24d9c3acc4dd3c6a6b20519c770ae2b3fff0efeec1a9114d6cf49343f516833c81526020017f0a3f8a05054f12500aa56913918f403158d01296778d8ebed1f22767cb24aa2581526020017f1280e2961556d308d59bba9093f260fdef24a4f0ed691ea8ca46fef8016dd55181526020017f11c0907d868f505013e3bcc534d0bfb4299689a72d98dbc7796fa76bc8f4b81181526020017e9cf7e782ae7e5a0734ee4dc6020fcc901a5234612065b8701603ac86f0c5d281526020017f0f7f6e3c717bace4a6b4974ee598c0be4aedcb7461c1a3e70f926825ca5efba981526020017f0f249a1adf6f8be6d655307f8a1f71ad7e2cd9fe5cb1f24184214509865b613781526020017f060620b234c20a27ccbf8fde51f6bfc68b93a75e9723e22f07f391054107666981526020017f1b4d1fd37e9006420b2179306ecca410879d5bea67d928a9c846510d54cd926981526020017f29e38f0204cd3334bf9954d0e2f253dac66fc7b6c9af7e56fe6b14d20f2de5b481526020017f1b74a541c0b461bb87b1f46bb00c22b6d4ecf4a4ba442c361c68f2b35f6358d081526020017f0d697ae7254fff87f59b411d358d82a2479d8eb9c58a2880b52c8b0f7421241581526020017f0d488c82cb46c1f18b71f5f04bdef5d6d71d1d8748378c15129c71aa27e04ca081526020017ec340c67b1c65d78d931034d3e46b23a8d570194b0cba7a5c3046dcdd1ea6d181526020017f19bd69fd2c7bb76185caa7ee2b7cbcc5e1384fcbb40d112a45c1993acdf53e3781526020017f16b0e1b4460dbcf892e531f2d0dbcdc0e3b2893290e8c246ebc48304707773df81526020017f20146f0d059331b569f0fad8c43fba9a8887b216eaf4bb913292f1cfe39ab17b81526020017f19f71650151e33b329d3cc066832b0bd513e2fb82b2f9f87fab26e6dcc88208181526020017f2c8bbc55bf1e9e301596098ab2e66c3cd962a6a5fbc55d4695d0f6cc35b5dc9581526020017f19e5d9d66e35627ac467706067ce455f1baa496a4bde917781aa0f49fa2cc83381526020017f20fd1eb325b957d16bc2a622d80903b65f101323678df28e93728e48fff4795781526020017f2383771c1fca05b3e15ce6ddcb101dbcb17fc2c015c17c87301349183dedfe8481526020017f1ecee3b33daeae9602044f3ef1769bdb57c7e8827091fcfa73ba59803b18add081526020017f0ab51463585c408d391f2537d7f5d960b030dc1264d6d3f52b87c9365df2aeab81526020017f253ea463f96eb8207328df6d66caf26dfea203e2350ebd963644f8849f87286981526020017f1807606817d33a7b14748b1a9f286973b88304f4d8e9e30e37eb5d880d49f86c81526020017f1d4b48f37ba94db3ab357bb55d4ba818ea63d97c28869efb4f782b08e43ded0681526020017f14abd52ce67aaed0e0408008040fb3ba0fb2d2e762855893b285774497c15af181526020017f06f659f106d00442001f6ad429f95afa5c21c77be811fabfd2cad64e58ac98e581526020017f079b811270d0d5c31f7699b4945551dc6e0c3a18ed24b8935d28c2342c41b47681526020017f202be20ed8606dddade77262fb67ec62e66b2f4fa5415efc336a9085123f067781526020017f03909b7c733b015928a14ec9cc64e728e9a9a76b132714030c307b38928ab88a81526020017f21b329dcd3a2cd06e13bf7a4032fabf751e372dc3f2009cd4a2650426e1dd70c81526020017f23bd5d60154fffd1642c50f32373a865cf8238ff89d35b28c255f25ec26e22a581526020017f23dbfeacd76c80ac1a8d07ffd61dcbccdca2ea1d844c7a99a78b055122f85dd881526020017f034ca899c42542e815d5f4338f6df0486c9078de6c5feb7fdc0aeb0515978e1f81526020017f2f0d03e4dcd58d4d1afd448e34001a6cf9a173a39eb7b25136a43c7d56e3e30381526020017f168ffff3acbc40e024b956aed171478aed2dfef07357d37afb8f6b2f0dcfb80281526020017f30008cf6333403687116deb35b1196c40e669bcd6375203a0a37740f2ef31b5081526020017f232df4238b03c8a566d9a1d7d96312c58f59695938b96690746ccf6ebfdd2a2a81526020017f2525d389bf2d908d04361716e2f737238609b8b4cf9cc2c3a768e970d9c4900d81526020017f1111ffe75b580d0692aaeccd6ce61ce32a83a2be09e5b6a99fedb95e1857724981526020017f1b139d9572ec7528e0bdb416e9c185758845fa8d794d600d3bfa98c7fb9fea8d81526020017f17178eb4ffc066ea15bf54fcba22cf802e3ea5e573e2d8f6a8cebbb1c2ab4be181526020017f16cae99e43835c3142886d54c028bce2bef7702176136992816877759053114881526020017f25b8e14593e180df530304f9f9c2b30260524d3cd475d1421da7f9cfe100333081526020017f25d9fe2d2bd0f87d481452182b6f142b7902bf47fcda517413386aecfac65ec181526020017f030b2aa7c9f3bd3287314a0b4fd933d8344c9b23f15f863cdcb75e0a984a5ae781526020017f0e84fd100bed92535deee90e018f9b0364b840b9394cd87e2bc92c6a15afefed81526020017f06fb2c4b6cb94c79dfefcb5b052cc9baed381b32f938d4633c89a4242077d73f81526020017f2bb50ae9499d23fa6cdba037267e656753ec87c3d635e4daef0068c9b3118f2181526020017f22a973d9fdf1c5c9a7cfd350229b97f813e5f2704e25b2ed7e80a2b6cdaaf52981526020017f1a4584a78b0b5cff1bcb76d165887ec8f280cb2f86f1a9173f91e4efee5db99e81526020017f305df9f5b99758b23690849d54ea114b82e927faf71a59a46b3dbb34dc11c65081526020017f2975842961b4befda742942766cbd6addb3d555d07f8d48ac54c80121c1293ff81526020017f2effbf7c60a1444159826dc7dcf180a77c0e8e396b447d820cbb07b12740a37e81526020017f1570ec82088abb61b16ce1c50e13edb77d6dbc3443ef7ca004a6a9bc7db4079a81526020017f105243be47397a947daa4d88f1d24fbaca24080e0d3955dbc204f0f3fe27415481526020017f2d24f8ec406cf941f63e6622430179964a2c5ca5506c52d55d8a50aad011189381526020017f245c019b76760a38f05cb60a66d3e81a6e1c3440399db862ea286dce820bd5a581526020017f070841a9e85c15e1e3b7952fa3232194426cb5166dd022e367134b398a73b8b481526020017f133debbcb6e5c6f9e3e866cc920b85331f6d9639f07352c767d6f2baf5a2f2ef81526020017f11aa9aa1a1dc0939426f7f1eedafbf0396eb69aa39490b1bc1f2b58b0787091581526020017f252304d786c45d5ce0ba7b9792d2ab5ffc4c17584480b2da883a5f24385b58ba81526020017f0a31a28a65f74ebe1a8f4d2589a060d2aa09226835cecbfb90daeead5a10e27b81526020017f063d1af5461cff05400ea77f14deddaf64c7bb4a4394a9219523b37ab7fc969681526020017f0fad0255e31d2e19bac2408e5903e91a65facdf9e56e6bf43fe92a4a1fe1d21981526020017f02abf78d2410ac91fc3e7d07cf47563265f28afcd9c35e069743cdbb8f731f3581526020017f14fb31a38e538a8feaf8043c136cd002cbb3362fcb382fbe45e6a30b22b1216b81526020017f195c72d16f50318cabe392d653219a84eada7265e5ede63c717f2cc88848643d81526020017f18a2c7b81d1fe9a8f81d7621ea23f774510666b56f26f439b0803c9d1b305a9d81526020017f1295303034412e56032f78dcfdf573ae0bcbfc5b3953faf9254b87ab9650498c81526020017f1691bb4cfb1e7b827a0e41802635b8875cf146cc276e6ad58f65ea96d4ea887181526020017f145ba65dcfa8efaece743a2572f976463e4f9582fb3ea845e06e9d67e8936b9b81526020017f13cad25fee6c3a7a7e7041ea54d6a78635efd176e387fb3b2a176709fb84594b81526020017f2998128dd63fa2e5f30ada01378882743014cae30b8cd7c11473176467b3c92881526020017f1aeb82c6d0e1a08e706e9add2c7b4753295a05e4c424b8317a1948f89dc050b581526020017f2f2282bca1c494a491eff261eb1cf8abd2ece06a4b813f249bd7d33d65be585c81526020017f29a9f57318698569ae3deee7a0e07cfbf8a793f0ae82d46ef2a20560695d9d4f81526020017e5ef2a61ac60c62777097bd89aea334b44c21fad19fa44d3f81bd6e1ba29b0b81526020017f2e295940550866edf32a5b415d2ad7ad5d6a6229a719a4185dd41b6587b6709b81526020017f2d8543641f4e589f339e10c876cb41a972f95b11c55f8a30711250deef2eaaff81526020017f214a0845bad3991a3e002624bc7d7e208a25cbb8b05dae8cbc5bc71457674b0981526020017f1f79c8dd56e21b8ac7f13e6f40e2f1b4e88ea50fc584e348fd78057fa4b85f5081526020017f0d2be4fbcafe50920cb174ccf080302d4b754b5827813530e888b8391d84a1b881526020017f29f5cb3554899057b12355039fe857ad5d968b145d6ce5f320c84d67d64b22a081526020017f197a27b47f67d24c404da364ab591d394774d01bdf8f2f42cbcadd675d1b3d6081526020017f18751bfe0c703345eae395d4452d9f17f1c9c1055b8fd4202ceaa97ab15a823e81526020017f01332bc56c942f2d2adbf6a1f7b1fa34c26c09f72aa714345220a84cb4c5b11a81526020017f2f86c84f865a8c8a3cc309f2b81797d8f5353f2347e960257a7b8965b6b4d2fc81526020017f1055f69de31a6a12650e55ecf9361dc30f5360fe03ae24b2d0af0df0216394f481526020017f302af42e5ed17063f852b7b5b784031b0d1fb69edc52e7712e31927a86f0d27881526020017f0b6c0f33ce4d8f33822ebac084fbb67470258a6a5ab90be4ff03b7bb9233f40981526020017f2f913ae12f2593ba5e3bbf4e25ee8e2ec131118aadef21ae6097c7f10f8fa62b81526020017f0b3bcc4697c0601a45361570efb1864eb3f66d5207e7632693958f343ed6600481526020017f23a5fca67e73d29f41f8de9d4c0eaf959a25cb0b104b662cb62f2da33f9c03d281526020017f159cccc4183061b9a053b526942d761fe0c0fe7eca09ec78ff7433b38d53e95a81526020017f030c6557e7fb6b09f1e6133c7dd3f40e7c66d8573ee63bdf6ce2e7c3e1fca53881526020017f18fb2477753cce1745839f68fb1799890985bdd87b05aeecbf797dd2ae0a146581526020017f1b427b3aee89923ab7c2d1f4422085d2fdfa4d74754116a3fb9e96f75a8f98ed81526020017f1f4309ca8af5864502291addc18e76af6c2782680048ebf18512d7d397627c7381526020017ed8fea5ac06d5c2bfba95926463e21992b1d6093b8a7343e269c65c4dc2b3b081526020017f2d81b7cc955047c20607417530fff977b2641f40fca100ced78450bec87baa1781526020017f13ee6bbd242ad7981484fa929095b55e9aa65a00db6ce1d7cda831ceb75a423c81526020017f2f34d9246f11a45c5a400e6c55477e0fe2d10d90780413ae59d1208d7e13a7c681526020017f13d6a42d1b4b1611373a277993175c5d16e216153ab98ed1cd5f71e9267b8e1281526020017f2e0382964af51e746912d679f87b2220060fb8069834e18f7f9c160bd403885d81526020017f1227ed99d0b7d785cc843949735a4133e025217d84e946594910f182946d86a181526020017f27a32cfa14fe66c6e7d69ab740ff45fd27e8d741b24dd73bacbcc92ec7c7f0fc81526020017f0470197d7b13c1a3982f6dc98c3fd94b479c5bb4a4cc9a5df4f88689ae6c40ae81526020017f0b0608c02b4453e7847e029b74063ea6f0d3a3405345c0abe494c84d0662657981526020017f2eb17c59ba4ef3180bf87b36831170e017951794fb2641c7f7ad4f1b7431c9d781526020017f246178b06752491923b045a22cec858d21e79fe0462c45d2d6f11da9e72064d781526020017f1c67a186c36d2c00ef733c3932f5a533ec17b2276aef272c8ce3a177c1073cd681526020017f0a13ccc2e878ce7bfa97e0cd67972ffd22d341c6d2bb1cddb3f735658ddc8ddb81526020017f1e65c6c5086a345bb998fcaade3a8d2658218f657a1c9ee6715efd737683974e81526020017f1f3b52da37c6ddf4815bf75b05721eb10e8de6be03e5bc4c1e3da3d921a72a1281526020017f1a3bd07b4b1f22e8178f928d8660283dd8b33addcb35b6bf881551bf34d57d3481526020017f04a5f5b8ab332c487f239139fa2d5ebe106d5daa8dde37d5fa34d9954e1352b881526020017f219465a0e87a00f618a65fe4ee97a254f1aae720447ad32419df540dc3a28a3b81526020017f152ae9728cd9b7b58b6453a1fc7cca0e084d2bd333a0790e3cae25cd30d25c5881526020017f03834a74681fe08501d11593ff1161bb831ef247beb2fcf3b9a701a0751090d181526020017f2c9b967a8aa9e918f010542f2d8c1705bea9598a0386a21454c347693a76b52181526020017f085564ee6244a9bcd6a8ddb101f7f38bd9bde45a6d7ffe1c2cf3a91ba815d01b81526020017f03cdee1ca3f550be6173136ffd9e7806230f2cb735922a47fb56f81ddc436ba781526020017f137c32518b0cabf3e4ad538e475d12c6f7ae562eb2a0f6ea373f810e2573ef7181526020017f1d581fbb0feb7aa4587003dbdb983ad9d69617a2bcf5bf6fbe86872cb5a588ff81526020017f0197f9a6a33a33de45e3ac94d4e415e8a67d6832076bbda94eda73979a9add9f81526020017f2e8239ef5b171c236b9e2ceabed41d525ff6d47e1315229319b2dda58c58e8a781526020017f2bee71a1857ecde5e233f7957a03cb02c1b0760d812c9910c09425792860dc8a81526020017f12cb78a08c423fc42aa3db67b687a3b7d0dcefed40b100d411710f7326e0332f81526020017f149651a3761fb8270e518c7735cacd48b9fe1ef6b4ea007b58b9f666cf03e80681526020017f1b9ef42d43bf03fdcea82ed394cfacc8d9d258ed20b817a2e1e52885834be9b681526020017f0ccaac5856fbacbb44c3e41bc7a104e90fcf92b2dfca5ead58c93f87cdd0adb681526020017f1958fd18aa2dea4d6de683df72f66d355e89905f800e9a105ad4d5d48c09dc5781526020017f0612f50439c1da4c21875e6017330049eaee92c2a9695efa749541e3388fc63d81526020017f2bc709ff4d1e57387d0a2815095e2edd0f4ea0b0f1a8f8bed008cba40a8ee87481526020017f0861baa3b24e0b8a3541b752767014587e80d0cfffd491271744f1cf93acb02381526020017f0ce8305c070a3e8e092d4912f1e497ada7328408682ca2883f458f37f40e2e5c81526020017f14bd057cd8ef6ce10a06c5d803424412d40b94eab705fd839326caf3c2ee96e981526020017f2fa3de1f0018a970b05567e5d125c398c816cd2e0a1c040b207f891664d92de281526020017f1e1db65976d7d60dda0bf082f43bc1233998d0a93ee9f752171e5e3bb0e43a2581526020017f2975fc7198e3437082fb91812eebed29fc61f20585d22b2d7e8179b0552e02d181526020017f0a45ca6550b64a5f146c46e1367a703d17a6aaed27ce887e648483c64ba30b5e81526020017f267b60ebee43f21c495262ddb4427033d85c274a3e2e083be01a44b0a68e99a881526020017f051c67a8f3656bb4b34f585cab8d68988fd3e129e8256dd233ee5af7a9ac07f581526020017f023c53c3a0a6722599abf9c323027c5a61386afa7447079bd3f7460d8cc08d6781526020017f26e49de338663646907cdc3bfde4ac7d417f8c800c0b780b9173d78d32a2079a81526020017f0b9498a68cf721d8ec5ad15c604e486102134e9d5cc9e3997dd497f97c590a4181526020017f222ea8a6033ec826d01385f4acf187d4fae202d0f6374534c22852c711c58d0781526020017f2ea83e3becf34115f901eb8e167ea22585cb5db314515e5d06dc962fbe3990f181526020017f064434321f6e691f2d6b320240e7d8dd7aaac7a643d29f2dce635790fbf744e781526020017f231f5029fd22ae810c766e6d0cf96210792ca1c77c1a1d2273b14979ce503e6f81526020017f01b57d41583590b4c395206b0b89e6fc0c6527244c6d8547ca37b914bcfbac5781526020017f161803c2363694d97dec60c67e32824a658fcbae8fb07c473aa544c34eae8c3381526020017f0ab74b152653759b097791cf15f6743cb6fcbc3c4a3ffbaef9c37cbe662a652981526020017f1be9f33d1fb89bc6433a0f6669a89f36e0c759b94805c40aec3c7f514be1362881526020017f30419d3c68b3c451262a072f45ec20c4e0442e37983db2c3c0b3ac632d23bc9481526020017f0712b4e036de46d2408feeca028e9611b4dfd9127b95870075c3e4eb43f598b281526020017f27c2216181c9ccf5ce06a355795ed9e8f744b0171a402c4568f7c9335961fcd481526020017f27fbe7709f6de9b4fb06e711f61bc8608f293e886059fe5b76977abe74a927a981526020017f085cd0676544326eff45fc39337561a546a44c24dbc832452bb9ec6249faaa9681526020017f08fb605e423036511729dabe2646ea9c394236da4ff537720a753bbaf4f19d5181526020017f04701f30224caf61cede313ea0efc38e255dbbdc7f1f4558109442e9865344fd81526020017f1f7f9a2cdd897d755e140efbed420aadabc8d2c107d2cad128105a4ec92b7a0381526020017f181a58dc16d88ba1e37171b86d06e0a44a9cc7a735461c28fcdd6e9a68a14f7181526020017f0b968707b716c0b51705fdee1b59e7d0d7bfec0560c07deb2283bacf9589eaf481526020017f1f0528259f4a4f8d0a34de07290faa5213a02b594196042c822f90919e48302f81526020017f2ba7d305b04e8a9f6c9f786fe3c2d472189dd0bcb351bdca76ade692c9ff022681526020017f0ad749047573051f70e53f4adb566a7a364673efcd3fb55129ece490594f9d3381526020017f27b8b36277b10f4c39c616861c5be5123ada083376b92f21b49829206970530181526020017f29eac18b77068a7814057e292ab787efcef8f858f3242580048b4a4b5636718181526020017f2d8bad2a41a84e01922920ac23eb4da173dbbb884a332f24038aa6a4a9f628fa81526020017f0786d5b423093ca3d840450dc733dfe31400a82001883149af6eb841bd465f1b81526020017f0f3bb665b0e6c6c34750daf89e17ae79ea7e4c583fff99194b681080f73f9e7081526020017f0cec7ff7eb57ff74f021030aeab5c9fe26a51a5664abe8377098a58f488e388481526020017f0e0a810f939843d50fcb62ad03560a3b13c39664715417c5a5aa95353c42032581526020017f1f6b60adad15da23d1a0a6191b34b01a00fce7c44a03c223e892214b848490d081526020017f113d8aa0b573031865c04245ae840f9052fe84ab1987fdc3689604d07efe3e9381526020017f06ede1f983c2abe5dfb4aaa507691b884f7710bdee0690780f2493d8328a31bb81526020017f18eb63fbfc5c489c06e03478b6e387b62fbf48005791e2f5fe947bca38b0095781526020017f190ad44273ee7396de43b1fc7308d1dab06c1757960712cd5d3cd6b7e494a0e481526020017f0de4fad3b69ed72a202bc9dfa5690fefedc9c114f75c54f30f666705e5e6140f81526020017f2af61bb8625f6f0e508ae03a78fa619e0d7c84068c650ee8d236e86f23d1519381526020017f1dd409566b7146811a321191e597048c080fbd3b100027cd995e846c55a771df81526020017f1641c359df4e6223567feab4204ccd8fa13e32f35e60fa018f781cde9509e92981526020017f12ccac8a1abb008094df89a7838738a9158f557af1c3827a337f17f60164216181526020017f060e27649af3383bb07a33db616387d9b319f8292f93383ab936fc85ecccb7b681526020017f1ae2d09a2080b8e11033bdd8e9503bc6ab582946fb07acabb61debb09a4522fb81526020017efa11f3e76b8a19e23ab0ec7c68911311231b70b23460f595ddc7da592c69a381526020017f1e9a2efbb270582df7349b01b31a67a43a099859ed0cc933642c04495160efef81526020017f2114985ff6f727a6d518ea4692b6adc0dbfa934d1fd4567ef0ee827495bb9aeb81526020017f1cdecac3d99249cd0519e654aade6977f017cd312618cde38944b169b553653381526020017f21af9fa8958e597db0a9b23c2609bfba1799d6f6f360f195d12feb11e9120c7a81526020017f27b6389bd3b7e4c57a18f2b62c7b8369c22d8f239130317dfc589ed9a4d2f71981526020017f303d7375e744ce2a5378dc222951bfac94c359af2aa8a4ad28e05f90fcda806b81526020017f15944a98030ee25f1c9299a09ea1e920c10bbaa28794fd843461a3b9bb05a76e81526020017f07ad20f1b17f0827a309742a68f60508b4715095f1dbd953d2d86bb31166c42281526020017f29e8245fb96b4f1b80ba56fe2e1def6265e6cdbd237793721bf3792dc952f07681526020017f125af8a3585679bc00c499719e4a6ca6b19f80e3501b3b256aeac6645976cb0181526020017f189f4e7d6caa24390e9078424795506f52b14dbeb0b41b9dd51804cfde314a7681526020017f19aa929a27cb8e12d0ac539d7f3b0ccd4d8a6f3ae9c0eb4e84ae66bad6dbdc8281526020017f0aa78e9152b76e13a4f7e708872a35d121bfe32febe0488f9ccea51fb059cde081526020017f280a08783d1f927cbc58a6ef1669c96f0d283ae00fad1b59ba12064585d3bf0d81526020017f1891b95bd7b9fc979bdcef24c28a4e23a0344d7cf0f53a8aa243fb8773b078e781526020017f09ddcf8eedb3286aece8afdc66403fa29cc57a6121be4a6ef9aa9a8e83b69ef881526020017f1bc7882c74aec271fff959deac3f2b3f567534a87ef3a4dcdd084879473993c681526020017f2d260ebb6292161f2e1041b3a86917060cf085bc49f6572f07156733e766897b81526020017f2674b55d1710a09640e49053bd63aee86d8789cd930205b918f811fa19d1a50c81526020017f0d0e2d08f1f441cce053e8a66b744bc53ca577f44380bcdaab1cc245cc0acb7b81526020017f20d4184ec017c5f4a3835825461ca08fb9c8e06301ec738307200828b62a3fa481526020017f20764614ab8b3017916ca040792753afd7d9a44ef01be41e1d8fb55a5830d55781526020017f208db00001e9a0b556c3d48692d0a0a9c6a11d5ccbcf070d7487275a41f052fb81526020017f26aef729f239888fb295a2e493bd79e793eb5ab3e042e5f5aae159a4f6a0102b81526020017ecc2c0ab0af14732f0bd1963c9c814cb5daac12b3ae8e6faf6e7e229f90a93e81526020017f095e29e025ab2c2f69a8573ff22c90d45bdb536404129c848ad725d8ba4ec84781526020017f186de5f3cf84322c9fbd1bf22218cd8bf85d5b591dd5486d35ebdeb584868b0681526020017f1ee3e686d637334d30ca00a2859803951ac5c3e1dbf48f9dff3e5dc5c8b0cfee81526020017f0d6b484fbba59acc0f144077eebed0a290aa36dcaf8a716ffa2466082a0962cc81526020017f2f1c8afcf851283aaa4839db003a928d7aff205c413baf0388ed12aa1a82d3d281526020017f2dadad318eccaf53b190852091e99b5244c550877bd306127c2fb4e45bbc0aac81526020017f2cd5ca77df88abdc3466135fba37a7b5e9d6e1173d35a9f46d9764dbe765c3ca81526020017f150d046315edfa65f465573e63242395799da5eaad5e1691dfa1b73b7c24665881526020017f0aa128c20211bf19ee19f19ee41a55e6c453f4d102b61068c4131556b0ec5d4e81526020017f176819c25be13de57021f0e918db230e19980dc82ecc5aba496d02b41bac8b0781526020017f0d22d47a64a7c0e54484840a3379d8f9a60596e7235361ee9c50048bd1d8fcba81526020017f1f4350c31fc2081d0369b6f2d9ed08fa2db6321bd098b1d2e1ec6bcf02c0d34b81526020017f1a6d12db827718c64cd5f73e2e577c2b8c83bc9cc6b849895233176bc4ad26cb81526020017f19bc26122ba93d82903a70ff1b8f04a21c3b354927f596e90e5a8589f8ec1fa181526020017f0f861e73421c64f6e6c9cd53b25c6e19ffc7d18ee510896b12af53c7a436f69081526020017f1b3f0ee487401c19a1ee412dad6f8a4efbcb3dbb5d3e6557cbb775d9f4396f9e81526020017f23e47c7051d01baf48f717818e1473322c64150dfe42b735b37b113d4a4330a681526020017f0d08b6bebae410aab692fd78620b2b354fb557174a6787bbcad542e719cced4281526020017f0b6265be36e863ef838d7e6ea985340a2e7a80a6d0ef0ecb407c11b5402d103b81526020017f06d0147f1a6c5fd1beb8394db96745f332a312bc3769c20135f5abf5a69b780981526020017f062ec511d4332ad5d16b8570a6ce828aec8e4ff701f834596e93ad0efe83fcec81526020017f23b520de8fdbdae4973c2751bc50589f854c76ea9e62f8fa0152625a11d53bfc81526020017f113af1d125038df7ae0c82d9c17000f78daa933f3bb0a7e18dcf60096291091b81526020017f152b79c881cfc7af92cdf675da6612d8e94bd4810b08d728bffb263aafae39d181526020017f20cfce43741bd04516dafa6aa8d2d7eae8b709a84a080e69f292ed9b764d65fd81526020017f104cdfc4be942da660a0cee7dec6e9e951f8c460d7d642364c82565922cd254e81526020017f145706ff98012a58d8a9682f6cbc1865371890dbcf632abe29a8e8dbd2ac085881526020017f02d87ee138e93c954a1e9c024f9368c1c9d37e5ac3efdee5bac6900a129e815681526020017f05238165d39d677956bab31932e75a06bd1f67081317ee3c14e131d9b3ca00bf81526020017f1b9168ffd6af5b84d346a9364a3fe96861f79cc83f1d015fadc7ef45dae6625881526020017f1e9b8febfab7c845d8363c2ac4c631200ed60056bf87d1e1424756abaf69117b81526020017f194fdd7328f5d1785ea967cfc873505ce69e2acc947c717bfc9bcc89755d9e1e81526020017f1736e57b262322a03116c75a93d4f9123fd53df5d7ec98f2638bc3fe67f01d3481526020017f05d964e452b8cbe7d01abdd422acc19d4e1121eb6a9b40c592d2cf6a509f4a6681526020017f1d0e60699c2a758871b7dfa4602d79aacdb59c741ab5bba3a2a443dec130120f81526020017f0bf9f0949a134f6ac86f6955e344c6b923f33b105a718f24933568bbd3447b6681526020017f1042c85e2c6af2161bddb2bb8b708c9c74c822dfe4421532c7acf5ef136e233f81526020017f23eb78f5f923f7d73225d8808c8c0914c80dc4c29b8fe87081adb51abbcb6f2f81526020017f15d22753094baedf84297d286c9805858ac08f1336df7345535dd32c86cb48a781526020017f0db73b97f96706c1618c325c1a089ad6608bce31598b72472295d2c4397e943681526020017f1b846b318b7fe7bd33fc8dce93df73e2073dd0199e9fa613c29db72e65fdc60181526020017f1d5440c709dbfc96454e1c7ab43ad604a0af703dc70b8bb2b7322eb07c03a97a81526020017f02886dae58ea286a9a12039a8580542547a0db36cfcdcd34b8289a3c24f7a6be81526020017f1b1597a47db6714799cfad7ba27e6dae8224b0545f158550dd097a79c94d95d081526020017f10bee9edc04875cb4504dcdc9142e98890bab5803fbd29684eae24a89a4db33281526020017f2ee9edec66f482319d25d5c688a24781f5bfdcbf3ea7d78611f70540be04abb581526020017f01f835880ac55db149846fafa935dc08742a37ec2b6189a6d411656954d05d3381526020017f1ec360cefb28b46ddfe28f2b90914bba108d09830073d9523fecaa78911c1b1581526020017f0fb6aa1dee7df67c1568cab656557ec1ce6cd9e22cda87bbf51305e9a9ba854481526020017f0210a7c5fd6c752f1cc3d6b5f1d1f423f76e2459a7c0485f1101e49cfb67ff4e81526020017f1684cad2ab9313e6190e6693d333f1757a18d4773098481550cab4813d327c0781526020017f0fdcff5393706425f7265e924ebe1fe555495a009e424d7b8def3cf7e508a80181526020017f0abf4de98f63214991e52a7842dd181fbb411e4373058bc98cbb43383dddf92781526020017f1672a11b669969b729ce36ecc6a27272894e1d4d5fce317c14ca31281994f7f681526020017f2eea755a3eba2031fae31c444faf19ab3a051fa97c15677b6ec23b9a5615e7d581526020017f26f3141e804a01896eafc1d510bf6549546e0d614058cfc8acd113819863082581526020017f2bd8b628ab8c7e3430a5eee40b902478bf1e2efde9d9e470d3133b349c4eb93781526020017f0ff55171bad434c5b7c89bc7a861750ca1782d7ebfc27261d4a75f5c192d79b681526020017f2b04cc69f53137fe2b55729a89c12c58dc3c262e480128d9c1c9bff8f17cb17381526020017f0578136679dba81f8c3d2acfb13f5d0b74d5fba8a619eac687c6638a3944798681526020017f03cd88f5f59c75e8c35d20134a1c6edf9ec7cb591f0f9daf4689c16ec603dbcb81526020017f0f59696f97c35a2e1f169601504cf505750ec6078131ec27450f2ab06b6e45a681526020017f01ca28485f9d26cba5f117e5157275b3155645feffb522f8604dbf6a366efbfc81526020017f040b584018a982dd7161b5c34f5f7d97735d2a6de4bf3aefa0bbdb617f640b9181526020017f25e67cea468dcff9b71d0d9f1083e099e18e8247826956255b106c73329057d281526020017f237d56025d2d626ef519a7e99f005ee074b0e6533f854205982eb372848fcbb181526020017f1c99353e4f18d725fed3706e0ef6a454137339e27e2a3b891105426166a4672d81526020017f2698d2a34a19d959fd90477c2ae6d6ff8276ca06c9135484d6fa441eb0efd14281526020017e9620b444c7e4c6fd3d6ae5cc26e2ab665f9a3492d547e768de7e2c1d93ac4381526020017f17a9d791e9a30be94041cee9408d79d5cda1c0b6dc4be79ca20318081c8092c281526020017f2d35f7a90e4845428f113d93d1c66b78574ee865e4c4cd8a2fc7f4ecc06c65e381526020017f0a6fa81dba38e4fd11f840cd19c4d9ba124cd27aa48435a53f434a0777219c6481526020017f1eb1518d04ab2b329e0a520159b57f9ad4ce6368ce3bf28b3c5117872cb275c081526020017f0661ffab79f02c2cf267f23fdd74f133d9c5f6bba4a9e4788388445ac65e1a5a81526020017f086922949d24a041021ce168295cd83c961e80b74760c839dbbe511072dbba9d81526020017f298ab05b5cd3ea0f20a7758d83701a0ae2d96d6e0518f367ade908c9bde64ac281526020017f0136dbbb90d87032aadbcaa1212a71b2f410168c63e05ffbbcf716a43eb6575581526020017f2afd4f062a3aa457b215cbc50c4d9dda318b4973859cb299f82dc15c09909b3a81526020017f142e44cfcfa729b1ed0b1f5e0769b0e3d2be226c7d8ba51c0b0d4d6ecc4a1a2981526020017f1efa620a75b5a938d2ef36d9fe800e04f192be1db996ff5b3c9c4469c3b14df281526020017f199d99f8bf5cafb0bb09dcc5611b7f99e076ddbe7790b0938eed1d3009fe73db81526020017f1f8c3504dd4744298d4e08cb4d32900261f256199d14e012ef5662ae5efa5c5c81526020017f2b279bc351da646f4f8ad371b02e6a530328987a1bb022182b171c5238b078a181526020017f0177e0bbe9fda698cc6cabcdd25f3c8cba3b314ccd6c1cccce3fd9d2bf9360e581526020017f1e65b91565e4d0f35d7ddfef938c73d45100a19074c7c74463eb2a7a0144caac81525060059061019162016561929190620167e0565b5060405180604001604052806000808154811062016584576201658362016896565b5b906000526020600020015481526020016001600081548110620165ac57620165ab62016896565b5b90600052602060002001548152506006600082015181600001556020820151816001015550506040518060400160405280604051806040016040528060026000815481106201660057620165ff62016896565b5b90600052602060002001548152602001600360008154811062016628576201662762016896565b5b90600052602060002001548152508152602001604051806040016040528060046000815481106201665e576201665d62016896565b5b90600052602060002001548152602001600560008154811062016686576201668562016896565b5b90600052602060002001548152508152506008600082015181600001906002620166b292919062016832565b50602082015181600201906002620166cc92919062016832565b505050604051806040016040528060405180604001604052806002600181548110620166fd57620166fc62016896565b5b90600052602060002001548152602001600360018154811062016725576201672462016896565b5b90600052602060002001548152508152602001604051806040016040528060046001815481106201675b576201675a62016896565b5b90600052602060002001548152602001600560018154811062016783576201678262016896565b5b9060005260206000200154815250815250600c600082015181600001906002620167af92919062016832565b50602082015181600201906002620167c992919062016832565b505050348015620167d957600080fd5b50620168c5565b8280548282559060005260206000209081019282156201681f579160200282015b828111156201681e57825182559160200191906001019062016801565b5b5090506201682e919062016877565b5090565b826002810192821562016864579160200282015b828111156201686357825182559160200191906001019062016846565b5b50905062016873919062016877565b5090565b5b808211156201689257600081600090555060010162016878565b5090565b7f4e487b7100000000000000000000000000000000000000000000000000000000600052603260045260246000fd5b6117e180620168d56000396000f3fe608060405234801561001057600080fd5b50600436106100415760003560e01c806359434d4a14610046578063903ae89014610076578063c1eb466c146100a6575b600080fd5b610060600480360381019061005b9190610ee6565b6100d6565b60405161006d9190610f6d565b60405180910390f35b610090600480360381019061008b9190610fdd565b6101a1565b60405161009d919061105f565b60405180910390f35b6100c060048036038101906100bb919061107a565b61063f565b6040516100cd91906110e5565b60405180910390f35b6100de610cc3565b60006040518060400160405280600081526020016000815250905060005b8351811015610197576101828261017d60405180604001604052806000868154811061012b5761012a611100565b5b906000526020600020015481526020016001868154811061014f5761014e611100565b5b90600052602060002001548152508785815181106101705761016f611100565b5b60200260200101516106c7565b61079f565b9150808061018f9061115e565b9150506100fc565b5080915050919050565b60007f30644e72e131a029b85045b68181585d2833e84879b9709143e1f593f0000001856000015110610209576040517f08c379a000000000000000000000000000000000000000000000000000000000815260040161020090611229565b60405180910390fd5b7f30644e72e131a029b85045b68181585d2833e84879b9709143e1f593f000000185602001511061026f576040517f08c379a0000000000000000000000000000000000000000000000000000000008152600401610266906112bb565b60405180910390fd5b7f30644e72e131a029b85045b68181585d2833e84879b9709143e1f593f00000018460000151106102d5576040517f08c379a00000000000000000000000000000000000000000000000000000000081526004016102cc9061134d565b60405180910390fd5b7f30644e72e131a029b85045b68181585d2833e84879b9709143e1f593f000000184602001511061033b576040517f08c379a0000000000000000000000000000000000000000000000000000000008152600401610332906113df565b60405180910390fd5b7f30644e72e131a029b85045b68181585d2833e84879b9709143e1f593f0000001831061039d576040517f08c379a000000000000000000000000000000000000000000000000000000000815260040161039490611471565b60405180910390fd5b7f30644e72e131a029b85045b68181585d2833e84879b9709143e1f593f000000182106103ff576040517f08c379a00000000000000000000000000000000000000000000000000000000081526004016103f690611503565b60405180910390fd5b600061043c86610437610432600660405180604001604052908160008201548152602001600182015481525050876106c7565b61089d565b61079f565b905060006104498661089d565b9050600061045787876106c7565b9050610632610466828561079f565b6008604051806040016040529081600082016002806020026040519081016040528092919082600280156104af576020028201915b81548152602001906001019080831161049b575b50505050508152602001600282016002806020026040519081016040528092919082600280156104f4576020028201915b8154815260200190600101908083116104e0575b50505050508152505084600c60405180604001604052908160008201600280602002604051908101604052809291908260028015610547576020028201915b815481526020019060010190808311610533575b505050505081526020016002820160028060200260405190810160405280929190826002801561058c576020028201915b815481526020019060010190808311610578575b50505050508152505086600c604051806040016040529081600082016002806020026040519081016040528092919082600280156105df576020028201915b8154815260200190600101908083116105cb575b5050505050815260200160028201600280602002604051908101604052809291908260028015610624576020028201915b815481526020019060010190808311610610575b50505050508152505061095b565b9350505050949350505050565b6000807f30644e72e131a029b85045b68181585d2833e84879b9709143e1f593f000000190506000806001905060005b86518110156106ba57600087828151811061068d5761068c611100565b5b602002602001015190508485828509850893508487840992505080806106b29061115e565b91505061066f565b5081935050505092915050565b6106cf610cc3565b6106d7610cdd565b8360000151816000600381106106f0576106ef611100565b5b60200201818152505083602001518160016003811061071257610711611100565b5b60200201818152505082816002600381106107305761072f611100565b5b602002018181525050600060608360808460076107d05a03fa9050806000810361075657fe5b5080610797576040517f08c379a000000000000000000000000000000000000000000000000000000000815260040161078e9061156f565b60405180910390fd5b505092915050565b6107a7610cc3565b6107af610cff565b8360000151816000600481106107c8576107c7611100565b5b6020020181815250508360200151816001600481106107ea576107e9611100565b5b60200201818152505082600001518160026004811061080c5761080b611100565b5b60200201818152505082602001518160036004811061082e5761082d611100565b5b602002018181525050600060608360c08460066107d05a03fa9050806000810361085457fe5b5080610895576040517f08c379a000000000000000000000000000000000000000000000000000000000815260040161088c906115db565b60405180910390fd5b505092915050565b6108a5610cc3565b600082600001511480156108bd575060008260200151145b156108e05760405180604001604052806000815260200160008152509050610956565b6040518060400160405280836000015181526020017f30644e72e131a029b85045b68181585d97816a916871ca8d3c208c16d87cfd478460200151610925919061162a565b7f30644e72e131a029b85045b68181585d97816a916871ca8d3c208c16d87cfd47610950919061165b565b81525090505b919050565b60008060405180606001604052808981526020018781526020018581525090506000604051806060016040528089815260200187815260200185815250905060006012905060008167ffffffffffffffff8111156109bc576109bb610d6d565b5b6040519080825280602002602001820160405280156109ea5781602001602082028036833780820191505090505b50905060005b6003811015610c28576000600682610a08919061168f565b9050858260038110610a1d57610a1c611100565b5b60200201516000015183600083610a3491906116e9565b81518110610a4557610a44611100565b5b602002602001018181525050858260038110610a6457610a63611100565b5b60200201516020015183600183610a7b91906116e9565b81518110610a8c57610a8b611100565b5b602002602001018181525050848260038110610aab57610aaa611100565b5b602002015160000151600060028110610ac757610ac6611100565b5b602002015183600283610ada91906116e9565b81518110610aeb57610aea611100565b5b602002602001018181525050848260038110610b0a57610b09611100565b5b602002015160000151600160028110610b2657610b25611100565b5b602002015183600383610b3991906116e9565b81518110610b4a57610b49611100565b5b602002602001018181525050848260038110610b6957610b68611100565b5b602002015160200151600060028110610b8557610b84611100565b5b602002015183600483610b9891906116e9565b81518110610ba957610ba8611100565b5b602002602001018181525050848260038110610bc857610bc7611100565b5b602002015160200151600160028110610be457610be3611100565b5b602002015183600583610bf791906116e9565b81518110610c0857610c07611100565b5b602002602001018181525050508080610c209061115e565b9150506109f0565b50610c31610d21565b6000602082602086026020860160086107d05a03fa90508060008103610c5357fe5b5080610c94576040517f08c379a0000000000000000000000000000000000000000000000000000000008152600401610c8b9061178b565b60405180910390fd5b600082600060018110610caa57610ca9611100565b5b6020020151141596505050505050509695505050505050565b604051806040016040528060008152602001600081525090565b6040518060600160405280600390602082028036833780820191505090505090565b6040518060800160405280600490602082028036833780820191505090505090565b6040518060200160405280600190602082028036833780820191505090505090565b6000604051905090565b600080fd5b600080fd5b600080fd5b6000601f19601f8301169050919050565b7f4e487b7100000000000000000000000000000000000000000000000000000000600052604160045260246000fd5b610da582610d5c565b810181811067ffffffffffffffff82111715610dc457610dc3610d6d565b5b80604052505050565b6000610dd7610d43565b9050610de38282610d9c565b919050565b600067ffffffffffffffff821115610e0357610e02610d6d565b5b602082029050602081019050919050565b600080fd5b6000819050919050565b610e2c81610e19565b8114610e3757600080fd5b50565b600081359050610e4981610e23565b92915050565b6000610e62610e5d84610de8565b610dcd565b90508083825260208201905060208402830185811115610e8557610e84610e14565b5b835b81811015610eae5780610e9a8882610e3a565b845260208401935050602081019050610e87565b5050509392505050565b600082601f830112610ecd57610ecc610d57565b5b8135610edd848260208601610e4f565b91505092915050565b600060208284031215610efc57610efb610d4d565b5b600082013567ffffffffffffffff811115610f1a57610f19610d52565b5b610f2684828501610eb8565b91505092915050565b610f3881610e19565b82525050565b604082016000820151610f546000850182610f2f565b506020820151610f676020850182610f2f565b50505050565b6000604082019050610f826000830184610f3e565b92915050565b600080fd5b600060408284031215610fa357610fa2610f88565b5b610fad6040610dcd565b90506000610fbd84828501610e3a565b6000830152506020610fd184828501610e3a565b60208301525092915050565b60008060008060c08587031215610ff757610ff6610d4d565b5b600061100587828801610f8d565b945050604061101687828801610f8d565b935050608061102787828801610e3a565b92505060a061103887828801610e3a565b91505092959194509250565b60008115159050919050565b61105981611044565b82525050565b60006020820190506110746000830184611050565b92915050565b6000806040838503121561109157611090610d4d565b5b600083013567ffffffffffffffff8111156110af576110ae610d52565b5b6110bb85828601610eb8565b92505060206110cc85828601610e3a565b9150509250929050565b6110df81610e19565b82525050565b60006020820190506110fa60008301846110d6565b92915050565b7f4e487b7100000000000000000000000000000000000000000000000000000000600052603260045260246000fd5b7f4e487b7100000000000000000000000000000000000000000000000000000000600052601160045260246000fd5b600061116982610e19565b91507fffffffffffffffffffffffffffffffffffffffffffffffffffffffffffffffff820361119b5761119a61112f565b5b600182019050919050565b600082825260208201905092915050565b7f56657269666965722e7665726966794b5a473a205f636f6d6d69746d656e742e60008201527f58206973206f7574206f662072616e6765000000000000000000000000000000602082015250565b60006112136031836111a6565b915061121e826111b7565b604082019050919050565b6000602082019050818103600083015261124281611206565b9050919050565b7f56657269666965722e7665726966794b5a473a205f636f6d6d69746d656e742e60008201527f59206973206f7574206f662072616e6765000000000000000000000000000000602082015250565b60006112a56031836111a6565b91506112b082611249565b604082019050919050565b600060208201905081810360008301526112d481611298565b9050919050565b7f56657269666965722e7665726966794b5a473a205f70726f6f662e582069732060008201527f6f7574206f662072616e67650000000000000000000000000000000000000000602082015250565b6000611337602c836111a6565b9150611342826112db565b604082019050919050565b600060208201905081810360008301526113668161132a565b9050919050565b7f56657269666965722e7665726966794b5a473a205f70726f6f662e592069732060008201527f6f7574206f662072616e67650000000000000000000000000000000000000000602082015250565b60006113c9602c836111a6565b91506113d48261136d565b604082019050919050565b600060208201905081810360008301526113f8816113bc565b9050919050565b7f56657269666965722e7665726966794b5a473a205f696e646578206973206f7560008201527f74206f662072616e676500000000000000000000000000000000000000000000602082015250565b600061145b602a836111a6565b9150611466826113ff565b604082019050919050565b6000602082019050818103600083015261148a8161144e565b9050919050565b7f56657269666965722e7665726966794b5a473a205f76616c7565206973206f7560008201527f74206f662072616e676500000000000000000000000000000000000000000000602082015250565b60006114ed602a836111a6565b91506114f882611491565b604082019050919050565b6000602082019050818103600083015261151c816114e0565b9050919050565b7f70616972696e672d6d756c2d6661696c65640000000000000000000000000000600082015250565b60006115596012836111a6565b915061156482611523565b602082019050919050565b600060208201905081810360008301526115888161154c565b9050919050565b7f70616972696e672d6164642d6661696c65640000000000000000000000000000600082015250565b60006115c56012836111a6565b91506115d08261158f565b602082019050919050565b600060208201905081810360008301526115f4816115b8565b9050919050565b7f4e487b7100000000000000000000000000000000000000000000000000000000600052601260045260246000fd5b600061163582610e19565b915061164083610e19565b9250826116505761164f6115fb565b5b828206905092915050565b600061166682610e19565b915061167183610e19565b9250828210156116845761168361112f565b5b828203905092915050565b600061169a82610e19565b91506116a583610e19565b9250817fffffffffffffffffffffffffffffffffffffffffffffffffffffffffffffffff04831182151516156116de576116dd61112f565b5b828202905092915050565b60006116f482610e19565b91506116ff83610e19565b9250827fffffffffffffffffffffffffffffffffffffffffffffffffffffffffffffffff038211156117345761173361112f565b5b828201905092915050565b7f70616972696e672d6f70636f64652d6661696c65640000000000000000000000600082015250565b60006117756015836111a6565b91506117808261173f565b602082019050919050565b600060208201905081810360008301526117a481611768565b905091905056fea264697066735822122059848ee0a5374efe55ea7d54aceb286a58ea4fa24d65924f466e75166df3f19664736f6c634300080d0033",
  "immutableReferences": {},
  "source": "// Modified from https://github.com/appliedzkp/semaphore/blob/master/contracts/sol/verifier.sol\n// SPDX-License-Identifier: MIT\npragma solidity >=0.4.22 <0.9.0;\npragma experimental ABIEncoderV2;\nimport \"./Pairing.sol\";\nimport { Constants } from \"./Constants.sol\";\n\ncontract Verifier is Constants {\n\n    using Pairing for *;\n\n    // The G1 generator\n    Pairing.G1Point SRS_G1_0 = Pairing.G1Point({\n        X: Constants.SRS_G1_X_Pos[0],\n        Y: Constants.SRS_G1_Y_Pos[0]\n    });\n\n    // The G2 generator\n    Pairing.G2Point g2Generator = Pairing.G2Point({\n        X: [ Constants.SRS_G2_X_0_Pos[0], Constants.SRS_G2_X_1_Pos[0] ],\n        Y: [ Constants.SRS_G2_Y_0_Pos[0], Constants.SRS_G2_Y_1_Pos[0] ]\n\n    });\n\n    Pairing.G2Point SRS_G2_1 = Pairing.G2Point({\n        X: [ Constants.SRS_G2_X_0_Pos[1], Constants.SRS_G2_X_1_Pos[1] ],\n        Y: [ Constants.SRS_G2_Y_0_Pos[1], Constants.SRS_G2_Y_1_Pos[1] ]\n    });\n\n    /*\n     * Verifies a single-point evaluation of a polynominal using the KZG\n     * commitment scheme.\n     *    - p(X) is a polynominal\n     *    - _value = p(_index) \n     *    - commitment = commit(p)\n     *    - proof = genProof(p, _index, _value)\n     * Returns true if and only if the following holds, and returns false\n     * otherwise:\n     *     e(commitment - commit([_value]), G2.g) == e(proof, commit([0, 1]) - zCommit)\n     * @param _commitment The KZG polynominal commitment.\n     * @param _proof The proof.\n     * @param _index The x-value at which to evaluate the polynominal.\n     * @param _value The result of the polynominal evaluation.\n     */\n    function verify(\n        Pairing.G1Point memory _commitment,\n        Pairing.G1Point memory _proof,\n        uint256 _index,\n        uint256 _value\n    ) public view returns (bool) {\n        // Make sure each parameter is less than the prime q\n        require(_commitment.X < BABYJUB_P, \"Verifier.verifyKZG: _commitment.X is out of range\");\n        require(_commitment.Y < BABYJUB_P, \"Verifier.verifyKZG: _commitment.Y is out of range\");\n        require(_proof.X < BABYJUB_P, \"Verifier.verifyKZG: _proof.X is out of range\");\n        require(_proof.Y < BABYJUB_P, \"Verifier.verifyKZG: _proof.Y is out of range\");\n        require(_index < BABYJUB_P, \"Verifier.verifyKZG: _index is out of range\");\n        require(_value < BABYJUB_P, \"Verifier.verifyKZG: _value is out of range\");\n\n        // Check that \n        //     e(commitment - aCommit, G2.g) == e(proof, xCommit - zCommit)\n        //     e(commitment - aCommit, G2.g) / e(proof, xCommit - zCommit) == 1\n        //     e(commitment - aCommit, G2.g) * e(proof, xCommit - zCommit) ^ -1 == 1\n        //     e(commitment - aCommit, G2.g) * e(-proof, xCommit - zCommit) == 1\n        // where:\n        //     aCommit = commit([_value]) = SRS_G1_0 * _value\n        //     xCommit = commit([0, 1]) = SRS_G2_1\n        //     zCommit = commit([_index]) = SRS_G2_1 * _index\n\n        // To avoid having to perform an expensive operation in G2 to compute\n        // xCommit - zCommit, we instead check the equivalent equation:\n        //     e(commitment - aCommit, G2.g) * e(-proof, xCommit) * e(-proof, -zCommit) == 1\n        //     e(commitment - aCommit, G2.g) * e(-proof, xCommit) * e(proof, zCommit) == 1\n        //     e(commitment - aCommit, G2.g) * e(-proof, xCommit) * e(index * proof, G2.g) == 1\n        //     e((index * proof) + (commitment - aCommit), G2.g) * e(-proof, xCommit) == 1\n\n\n        // Compute commitment - aCommitment\n        Pairing.G1Point memory commitmentMinusA = Pairing.plus(\n            _commitment,\n            Pairing.negate(\n                Pairing.mulScalar(SRS_G1_0, _value)\n            )\n        );\n\n        // Negate the proof\n        Pairing.G1Point memory negProof = Pairing.negate(_proof);\n\n        // Compute index * proof\n        Pairing.G1Point memory indexMulProof = Pairing.mulScalar(_proof, _index);\n\n        // Returns true if and only if\n        // e((index * proof) + (commitment - aCommitment), G2.g) * e(-proof, xCommit) == 1\n        return Pairing.pairing(\n            Pairing.plus(indexMulProof, commitmentMinusA),\n            g2Generator,\n            negProof,\n            SRS_G2_1,\n            negProof,\n            SRS_G2_1\n        );\n    }\n\n    /*\n     * @return A KZG commitment to a polynominal\n     * @param coefficients The coefficients of the polynomial to which to\n     *                     commit.\n     */\n    function commit(\n        uint256[] memory coefficients\n    ) public view returns (Pairing.G1Point memory) {\n\n        Pairing.G1Point memory result = Pairing.G1Point(0, 0);\n\n        for (uint256 i = 0; i < coefficients.length; i ++) {\n            result = Pairing.plus(\n                result,\n                Pairing.mulScalar(\n                    Pairing.G1Point({\n                        X: Constants.SRS_G1_X_Pos[i],\n                        Y: Constants.SRS_G1_Y_Pos[i]\n                    }),\n                    coefficients[i]\n                )\n            );\n        }\n        return result;\n    }\n\n    /*\n     * @return The polynominal evaluation of a polynominal with the specified\n     *         coefficients at the given index.\n     */\n    function evalPolyAt(\n        uint256[] memory _coefficients,\n        uint256 _index\n    ) public pure returns (uint256) {\n\n        uint256 m = Constants.BABYJUB_P;\n        uint256 result = 0;\n        uint256 powerOfX = 1;\n\n        for (uint256 i = 0; i < _coefficients.length; i ++) {\n            uint256 coeff = _coefficients[i];\n            assembly {\n                result:= addmod(result, mulmod(powerOfX, coeff, m), m)\n                powerOfX := mulmod(powerOfX, _index, m)\n            }\n        }\n        return result;\n    }\n    \n    /*\n     * Verifies the evaluation of multiple points of a polynominal using the\n     * KZG commitment scheme.\n     *    - p(X) is a polynominal\n     *    - commitment = commit(p)\n     *    - For each y in _values and each x in _indices, y = p(x)\n     *    - proof = genMultiProof(p, _indices)\n     * Returns true if and only if the following holds, and returns false\n     * otherwise:\n     *     e(-commit(zPoly), proof) * e(commitment - commit(iPoly), g) == 1\n     * @param _commitment The polynominal commitment.\n     * @param _proof The proof.\n     * @param _indices The x-values at which to evaluate the polynominal.\n     * @param _values The evaluation of the polynominal at each index.\n     * @param _iCoeffs The coefficients of a polynominal which interpolates\n     *                 each index and corresponding y-value.\n     * @param _zCoeffs The coefficients of a polynominal which intersects y=0\n     *                 for each index.\n     */\n    // function verifyMulti(\n    //     Pairing.G1Point memory _commitment,\n    //     Pairing.G2Point memory _proof,\n    //     uint256[] memory _indices,\n    //     uint256[] memory _values,\n    //     uint256[] memory _iCoeffs,\n    //     uint256[] memory _zCoeffs\n    // ) public view returns (bool) {\n    //     // Perform range checks\n    //     require(_commitment.X < BABYJUB_P, \"Verifier.verifyMultiKZG: _commitment.X is out of range\");\n    //     require(_commitment.Y < BABYJUB_P, \"Verifier.verifyMultiKZG: _commitment.Y is out of range\");\n    //     require(_proof.X[0] < BABYJUB_P, \"Verifier.verifyKZG: _proof.X[0] is out of range\");\n    //     require(_proof.X[1] < BABYJUB_P, \"Verifier.verifyKZG: _proof.X[1] is out of range\");\n    //     require(_proof.Y[0] < BABYJUB_P, \"Verifier.verifyKZG: _proof.Y[0] is out of range\");\n    //     require(_proof.Y[1] < BABYJUB_P, \"Verifier.verifyKZG: _proof.Y[1] is out of range\");\n\n    //     for (uint256 i = 0; i < _iCoeffs.length; i ++) {\n    //         require(_iCoeffs[i] < BABYJUB_P, \"Verifier.verifyKZG: an _iCoeffs value is out of range\");\n    //     }\n\n    //     for (uint256 i = 0; i < _zCoeffs.length; i ++) {\n    //         require(_zCoeffs[i] < BABYJUB_P, \"Verifier.verifyKZG: an _zCoeffs value is out of range\");\n    //     }\n\n    //     // Check whether _iCoeffs and _zCoeffs are valid\n    //     for (uint256 i = 0; i < _indices.length; i ++) {\n    //         uint256 index = _indices[i];\n    //         uint256 value = _values[i];\n    //         require(index < BABYJUB_P, \"Verifier.verifyKZG: an index is out of range\");\n    //         require(value < BABYJUB_P, \"Verifier.verifyKZG: a value is out of range\");\n\n    //         uint256 zEval = evalPolyAt(_zCoeffs, _indices[i]);\n    //         require(zEval == 0, \"Verifier.verifyMulti: invalid _zCoeffs\");\n\n    //         uint256 iEval = evalPolyAt(_iCoeffs, _indices[i]);\n    //         require(iEval == _values[i], \"Verifier.verifyMulti: invalid _iCoeffs\");\n    //     }\n\n    //     // Generate the KZG commitments to the i and z polynominals\n    //     Pairing.G1Point memory zCommit = commit(_zCoeffs);\n    //     Pairing.G1Point memory iCommit = commit(_iCoeffs);\n\n    //     // Compute commitment - commit(iPoly)\n    //     Pairing.G1Point memory commitmentMinusICommit =\n    //         Pairing.plus(\n    //             _commitment,\n    //             Pairing.negate(iCommit)\n    //         );\n\n    //     // Perform the pairing check\n    //     return Pairing.pairing(\n    //         Pairing.negate(zCommit),\n    //         _proof,\n    //         commitmentMinusICommit,\n    //         g2Generator, \n    //         commitmentMinusICommit,\n    //         g2Generator\n    //     );\n    // }\n\n    /*\n    // Uncomment to perform gas benchmarks\n    function commitBenchmark(\n        uint256[] memory _coefficients\n    ) public {\n        commit(_coefficients);\n    }\n\n    function verifyMultiBenchmark(\n        Pairing.G1Point memory _commitment,\n        Pairing.G2Point memory _proof,\n        uint256[] memory _indices,\n        uint256[] memory _values,\n        uint256[] memory _iCoeffs,\n        uint256[] memory _zCoeffs\n    ) public {\n        verifyMulti(_commitment, _proof, _indices, _values, _iCoeffs, _zCoeffs);\n    }\n    */\n}",
  "sourcePath": "/Users/mac/Desktop/codings/ethereum/sonic/src/verifier/contracts/Verifier.sol",
  "compiler": {
    "name": "solc",
    "version": "0.8.13+commit.abaa5c0e.Emscripten.clang"
  },
  "schemaVersion": "3.4.7",
  "updatedAt": "2022-10-12T13:28:56.848Z",
  "devdoc": {
    "kind": "dev",
    "methods": {},
    "version": 1
  },
  "userdoc": {
    "kind": "user",
    "methods": {},
    "version": 1
  }
}