{
  "contractName": "Verifier",
  "abi": [
    {
      "anonymous": false,
      "inputs": [
        {
          "indexed": false,
          "internalType": "bool",
          "name": "result",
          "type": "bool"
        }
      ],
      "name": "verifyResult",
      "type": "event"
    },
    {
      "inputs": [
        {
          "components": [
            {
              "internalType": "uint256",
              "name": "X",
              "type": "uint256"
            },
            {
              "internalType": "uint256",
              "name": "Y",
              "type": "uint256"
            }
          ],
          "internalType": "struct Pairing.G1Point",
          "name": "_commitment",
          "type": "tuple"
        },
        {
          "components": [
            {
              "internalType": "uint256",
              "name": "X",
              "type": "uint256"
            },
            {
              "internalType": "uint256",
              "name": "Y",
              "type": "uint256"
            }
          ],
          "internalType": "struct Pairing.G1Point",
          "name": "_proof",
          "type": "tuple"
        },
        {
          "internalType": "uint256",
          "name": "_index",
          "type": "uint256"
        },
        {
          "internalType": "uint256",
          "name": "_value",
          "type": "uint256"
        }
      ],
      "name": "verify",
      "outputs": [
        {
          "internalType": "bool",
          "name": "",
          "type": "bool"
        }
      ],
      "stateMutability": "view",
      "type": "function",
      "constant": true
    },
    {
      "inputs": [],
      "name": "verifySonic",
      "outputs": [
        {
          "internalType": "bool",
          "name": "",
          "type": "bool"
        }
      ],
      "stateMutability": "nonpayable",
      "type": "function"
    }
  ],
  "bytecode": "0x6080604052604051806040016040528060405180604001604052807f198e9393920d483a7260bfb731fb5d25f1aa493335a9e71297e485b7aef312c281526020017f1800deef121f1e76426a00665e5c4479674322d4f75edadd46debd5cd992f6ed815250815260200160405180604001604052807f090689d0585ff075ec9e99ad690c3395bc4b313370b38ef355acdadcd122975b81526020017f12c85ea5db8c6deb4aab71808dcb408fe3d1e7690c43d37b4ce6cc0166fa7daa81525081525060008082015181600001906002620000db92919062000e00565b50602082015181600201906002620000f592919062000e00565b505050604051806040016040528060405180604001604052807f198e9393920d483a7260bfb731fb5d25f1aa493335a9e71297e485b7aef312c281526020017f1800deef121f1e76426a00665e5c4479674322d4f75edadd46debd5cd992f6ed815250815260200160405180604001604052807f090689d0585ff075ec9e99ad690c3395bc4b313370b38ef355acdadcd122975b81526020017f12c85ea5db8c6deb4aab71808dcb408fe3d1e7690c43d37b4ce6cc0166fa7daa8152508152506004600082015181600001906002620001d092919062000e00565b50602082015181600201906002620001ea92919062000e00565b505050604051806040016040528060405180604001604052807f198e9393920d483a7260bfb731fb5d25f1aa493335a9e71297e485b7aef312c281526020017f1800deef121f1e76426a00665e5c4479674322d4f75edadd46debd5cd992f6ed815250815260200160405180604001604052807f090689d0585ff075ec9e99ad690c3395bc4b313370b38ef355acdadcd122975b81526020017f12c85ea5db8c6deb4aab71808dcb408fe3d1e7690c43d37b4ce6cc0166fa7daa8152508152506008600082015181600001906002620002c592919062000e00565b50602082015181600201906002620002df92919062000e00565b5050507f2d2e305d3ab2dc6e0081ffcf4a701f924a1a7296cdc32046c10c0b6f992387b2600c557f30644e72e131a029b85045b68181585d2833e84879b9709143e1f593f00000018062000338576200033762000ef5565b5b600e54600f5409600d557f2f0ed729a52c3cf5d51e5e6d8e737f79e5d99150f7b9b63f3dd38704f9d8ef26600e557f2f376e28777cfe34cf077eba864c462fd6efbfe4d3f6af17768ef2ed4f829ddd600f557f2f17797aa9b5b553209d135cdd69146128b9841e82c8b01e3f3a07d1e3714dc96010556015601155620003ea600e546011547f30644e72e131a029b85045b68181585d2833e84879b9709143e1f593f000000162000ca560201b60201c565b60125560405180604001604052807f2d2e305d3ab2dc6e0081ffcf4a701f924a1a7296cdc32046c10c0b6f992387b281526020017f10d4d3cca369c48670346ef36c6739e885bb11b52038a89c706aacfb7d72d78981525060136000820151816000015560208201518160010155505060405180604001604052807f2d2e305d3ab2dc6e0081ffcf4a701f924a1a7296cdc32046c10c0b6f992387b281526020017f10d4d3cca369c48670346ef36c6739e885bb11b52038a89c706aacfb7d72d78981525060156000820151816000015560208201518160010155505060405180604001604052807f2d2e305d3ab2dc6e0081ffcf4a701f924a1a7296cdc32046c10c0b6f992387b281526020017f10d4d3cca369c48670346ef36c6739e885bb11b52038a89c706aacfb7d72d78981525060176000820151816000015560208201518160010155505060405180604001604052807f2d2e305d3ab2dc6e0081ffcf4a701f924a1a7296cdc32046c10c0b6f992387b281526020017f10d4d3cca369c48670346ef36c6739e885bb11b52038a89c706aacfb7d72d78981525060196000820151816000015560208201518160010155505060405180604001604052807f2d2e305d3ab2dc6e0081ffcf4a701f924a1a7296cdc32046c10c0b6f992387b281526020017f10d4d3cca369c48670346ef36c6739e885bb11b52038a89c706aacfb7d72d789815250601b6000820151816000015560208201518160010155505060405180604001604052807f2d2e305d3ab2dc6e0081ffcf4a701f924a1a7296cdc32046c10c0b6f992387b281526020017f10d4d3cca369c48670346ef36c6739e885bb11b52038a89c706aacfb7d72d789815250601d6000820151816000015560208201518160010155505060405180604001604052807f2d2e305d3ab2dc6e0081ffcf4a701f924a1a7296cdc32046c10c0b6f992387b281526020017f10d4d3cca369c48670346ef36c6739e885bb11b52038a89c706aacfb7d72d789815250601f6000820151816000015560208201518160010155505060405180604001604052807f2d2e305d3ab2dc6e0081ffcf4a701f924a1a7296cdc32046c10c0b6f992387b281526020017f10d4d3cca369c48670346ef36c6739e885bb11b52038a89c706aacfb7d72d78981525060216000820151816000015560208201518160010155505060405180604001604052807f2d2e305d3ab2dc6e0081ffcf4a701f924a1a7296cdc32046c10c0b6f992387b281526020017f10d4d3cca369c48670346ef36c6739e885bb11b52038a89c706aacfb7d72d7898152506023600082015181600001556020820151816001015550507f2d2e305d3ab2dc6e0081ffcf4a701f924a1a7296cdc32046c10c0b6f992387b26025557f10d4d3cca369c48670346ef36c6739e885bb11b52038a89c706aacfb7d72d7896026557f2d2e305d3ab2dc6e0081ffcf4a701f924a1a7296cdc32046c10c0b6f992387b26027557f19a48669ccf72c593144962560f593b667daa2052d1cdcc2500bb3b003c073c96028557f2d2e305d3ab2dc6e0081ffcf4a701f924a1a7296cdc32046c10c0b6f992387b26029557f10d4d3cca369c48670346ef36c6739e885bb11b52038a89c706aacfb7d72d789602a557f2d2e305d3ab2dc6e0081ffcf4a701f924a1a7296cdc32046c10c0b6f992387b2602b557f10d4d3cca369c48670346ef36c6739e885bb11b52038a89c706aacfb7d72d789602c5560405180604001604052807f2d2e305d3ab2dc6e0081ffcf4a701f924a1a7296cdc32046c10c0b6f992387b281526020017f10d4d3cca369c48670346ef36c6739e885bb11b52038a89c706aacfb7d72d789815250602d6000820151816000015560208201518160010155505060405180604001604052807f2d2e305d3ab2dc6e0081ffcf4a701f924a1a7296cdc32046c10c0b6f992387b281526020017f10d4d3cca369c48670346ef36c6739e885bb11b52038a89c706aacfb7d72d789815250602f6000820151816000015560208201518160010155505060405180604001604052807f2d2e305d3ab2dc6e0081ffcf4a701f924a1a7296cdc32046c10c0b6f992387b281526020017f10d4d3cca369c48670346ef36c6739e885bb11b52038a89c706aacfb7d72d78981525060316000820151816000015560208201518160010155505060405180604001604052807f2d2e305d3ab2dc6e0081ffcf4a701f924a1a7296cdc32046c10c0b6f992387b281526020017f10d4d3cca369c48670346ef36c6739e885bb11b52038a89c706aacfb7d72d78981525060336000820151816000015560208201518160010155505060405180604001604052807f2d2e305d3ab2dc6e0081ffcf4a701f924a1a7296cdc32046c10c0b6f992387b281526020017f10d4d3cca369c48670346ef36c6739e885bb11b52038a89c706aacfb7d72d78981525060356000820151816000015560208201518160010155505060405180604001604052807f2d2e305d3ab2dc6e0081ffcf4a701f924a1a7296cdc32046c10c0b6f992387b281526020017f10d4d3cca369c48670346ef36c6739e885bb11b52038a89c706aacfb7d72d78981525060376000820151816000015560208201518160010155505060405180604001604052807f2d2e305d3ab2dc6e0081ffcf4a701f924a1a7296cdc32046c10c0b6f992387b281526020017f10d4d3cca369c48670346ef36c6739e885bb11b52038a89c706aacfb7d72d78981525060396000820151816000015560208201518160010155505062000c076040518060c00160405280609a815260200162002cce609a913962000da660201b60201c565b603b5560405180608001604052806041815260200162002d6860419139603c908051906020019062000c3b92919062000e45565b5073e448992fdeaf94784bbd8f432d781c061d907985603d60006101000a81548173ffffffffffffffffffffffffffffffffffffffff021916908373ffffffffffffffffffffffffffffffffffffffff16021790555034801562000c9e57600080fd5b5062001150565b600080820362000cec576040517f08c379a000000000000000000000000000000000000000000000000000000000815260040162000ce39062000f85565b60405180910390fd5b6000840362000cff576000905062000d9f565b6000830362000d12576001905062000d9f565b60006001905060007f800000000000000000000000000000000000000000000000000000000000000090505b600081111562000d9957838186161515870a85848509099150836002820486161515870a85848509099150836004820486161515870a85848509099150836008820486161515870a8584850909915060108104905062000d3e565b81925050505b9392505050565b60008160405160200162000dbb91906200102a565b6040516020818303038152906040528051906020012060405160200162000de39190620010c2565b604051602081830303815290604052805190602001209050919050565b826002810192821562000e32579160200282015b8281111562000e3157825182559160200191906001019062000e14565b5b50905062000e41919062000ed6565b5090565b82805462000e53906200111b565b90600052602060002090601f01602090048101928262000e77576000855562000ec3565b82601f1062000e9257805160ff191683800117855562000ec3565b8280016001018555821562000ec3579182015b8281111562000ec257825182559160200191906001019062000ea5565b5b50905062000ed2919062000ed6565b5090565b5b8082111562000ef157600081600090555060010162000ed7565b5090565b7f4e487b7100000000000000000000000000000000000000000000000000000000600052601260045260246000fd5b600082825260208201905092915050565b7f4d6f64756c7573206973207a65726f0000000000000000000000000000000000600082015250565b600062000f6d600f8362000f24565b915062000f7a8262000f35565b602082019050919050565b6000602082019050818103600083015262000fa08162000f5e565b9050919050565b600081519050919050565b600081905092915050565b60005b8381101562000fdd57808201518184015260208101905062000fc0565b8381111562000fed576000848401525b50505050565b6000620010008262000fa7565b6200100c818562000fb2565b93506200101e81856020860162000fbd565b80840191505092915050565b600062001038828462000ff3565b915081905092915050565b7f19457468657265756d205369676e6564204d6573736167653a0a333200000000600082015250565b60006200107b601c8362000fb2565b9150620010888262001043565b601c82019050919050565b6000819050919050565b6000819050919050565b620010bc620010b68262001093565b6200109d565b82525050565b6000620010cf826200106c565b9150620010dd8284620010a7565b60208201915081905092915050565b7f4e487b7100000000000000000000000000000000000000000000000000000000600052602260045260246000fd5b600060028204905060018216806200113457607f821691505b6020821081036200114a5762001149620010ec565b5b50919050565b611b6e80620011606000396000f3fe608060405234801561001057600080fd5b50600436106100365760003560e01c8063903ae8901461003b5780639c22c9511461006b575b600080fd5b610055600480360381019061005091906112df565b610089565b6040516100629190611361565b60405180910390f35b6100736104f7565b6040516100809190611361565b60405180910390f35b60007f30644e72e131a029b85045b68181585d2833e84879b9709143e1f593f00000018560000151106100f1576040517f08c379a00000000000000000000000000000000000000000000000000000000081526004016100e8906113ff565b60405180910390fd5b7f30644e72e131a029b85045b68181585d2833e84879b9709143e1f593f0000001856020015110610157576040517f08c379a000000000000000000000000000000000000000000000000000000000815260040161014e90611491565b60405180910390fd5b7f30644e72e131a029b85045b68181585d2833e84879b9709143e1f593f00000018460000151106101bd576040517f08c379a00000000000000000000000000000000000000000000000000000000081526004016101b490611523565b60405180910390fd5b7f30644e72e131a029b85045b68181585d2833e84879b9709143e1f593f0000001846020015110610223576040517f08c379a000000000000000000000000000000000000000000000000000000000815260040161021a906115b5565b60405180910390fd5b7f30644e72e131a029b85045b68181585d2833e84879b9709143e1f593f00000018310610285576040517f08c379a000000000000000000000000000000000000000000000000000000000815260040161027c90611647565b60405180910390fd5b7f30644e72e131a029b85045b68181585d2833e84879b9709143e1f593f000000182106102e7576040517f08c379a00000000000000000000000000000000000000000000000000000000081526004016102de906116d9565b60405180910390fd5b60006102fb6102f68686610a46565b610b1e565b9050600061031961031361030d610bdc565b86610a46565b83610c00565b90506104eb86600860405180604001604052908160008201600280602002604051908101604052809291908260028015610368576020028201915b815481526020019060010190808311610354575b50505050508152602001600282016002806020026040519081016040528092919082600280156103ad576020028201915b815481526020019060010190808311610399575b50505050508152505083600460405180604001604052908160008201600280602002604051908101604052809291908260028015610400576020028201915b8154815260200190600101908083116103ec575b5050505050815260200160028201600280602002604051908101604052809291908260028015610445576020028201915b815481526020019060010190808311610431575b5050505050815250508b600060405180604001604052908160008201600280602002604051908101604052809291908260028015610498576020028201915b815481526020019060010190808311610484575b50505050508152602001600282016002806020026040519081016040528092919082600280156104dd576020028201915b8154815260200190600101908083116104c9575b505050505081525050610cfe565b92505050949350505050565b60008061054a602d60405180604001604052908160008201548152602001600182015481525050601360405180604001604052908160008201548152602001600182015481525050600e54600c54610089565b905061059c602f60405180604001604052908160008201548152602001600182015481525050601560405180604001604052908160008201548152602001600182015481525050600e54602654610089565b90506105ee603160405180604001604052908160008201548152602001600182015481525050601760405180604001604052908160008201548152602001600182015481525050600e54602554610089565b9050610640603160405180604001604052908160008201548152602001600182015481525050601960405180604001604052908160008201548152602001600182015481525050600d54602a54610089565b9050610692603360405180604001604052908160008201548152602001600182015481525050601b60405180604001604052908160008201548152602001600182015481525050600e54602754610089565b90506106e4603560405180604001604052908160008201548152602001600182015481525050601d60405180604001604052908160008201548152602001600182015481525050600f54602854610089565b9050610736603760405180604001604052908160008201548152602001600182015481525050601f60405180604001604052908160008201548152602001600182015481525050600e54602954610089565b90506107876037604051806040016040529081600082015481526020016001820154815250506021604051806040016040529081600082015481526020016001820154815250506001602b54610089565b90506107d9603960405180604001604052908160008201548152602001600182015481525050602360405180604001604052908160008201548152602001600182015481525050600f54602c54610089565b9050603d60009054906101000a900473ffffffffffffffffffffffffffffffffffffffff1673ffffffffffffffffffffffffffffffffffffffff166108aa603b54603c805461082790611728565b80601f016020809104026020016040519081016040528092919081815260200182805461085390611728565b80156108a05780601f10610875576101008083540402835291602001916108a0565b820191906000526020600020905b81548152906001019060200180831161088357829003601f168201915b5050505050611066565b73ffffffffffffffffffffffffffffffffffffffff161490507f30644e72e131a029b85045b68181585d2833e84879b9709143e1f593f0000001806108f2576108f1611759565b5b7f30644e72e131a029b85045b68181585d2833e84879b9709143e1f593f00000018061092157610920611759565b5b601254600c5409602654086025541490507f30644e72e131a029b85045b68181585d2833e84879b9709143e1f593f00000018061096157610960611759565b5b6028547f30644e72e131a029b85045b68181585d2833e84879b9709143e1f593f000000161098f91906117b7565b7f30644e72e131a029b85045b68181585d2833e84879b9709143e1f593f0000001806109be576109bd611759565b5b7f30644e72e131a029b85045b68181585d2833e84879b9709143e1f593f0000001806109ed576109ec611759565b5b602954602a54086025540908602754149050602c54602b541490507f9ebf19a79884326bf6ddfcf4bd501eb6a52b40414ecd5d8a70514f606810801e81604051610a379190611361565b60405180910390a18091505090565b610a4e611139565b610a56611153565b836000015181600060038110610a6f57610a6e6117eb565b5b602002018181525050836020015181600160038110610a9157610a906117eb565b5b6020020181815250508281600260038110610aaf57610aae6117eb565b5b602002018181525050600060608360808460076107d05a03fa90508060008103610ad557fe5b5080610b16576040517f08c379a0000000000000000000000000000000000000000000000000000000008152600401610b0d90611866565b60405180910390fd5b505092915050565b610b26611139565b60008260000151148015610b3e575060008260200151145b15610b615760405180604001604052806000815260200160008152509050610bd7565b6040518060400160405280836000015181526020017f30644e72e131a029b85045b68181585d97816a916871ca8d3c208c16d87cfd478460200151610ba69190611886565b7f30644e72e131a029b85045b68181585d97816a916871ca8d3c208c16d87cfd47610bd191906117b7565b81525090505b919050565b610be4611139565b6040518060400160405280600181526020016002815250905090565b610c08611139565b610c10611175565b836000015181600060048110610c2957610c286117eb565b5b602002018181525050836020015181600160048110610c4b57610c4a6117eb565b5b602002018181525050826000015181600260048110610c6d57610c6c6117eb565b5b602002018181525050826020015181600360048110610c8f57610c8e6117eb565b5b602002018181525050600060608360c08460066107d05a03fa90508060008103610cb557fe5b5080610cf6576040517f08c379a0000000000000000000000000000000000000000000000000000000008152600401610ced90611903565b60405180910390fd5b505092915050565b60008060405180606001604052808981526020018781526020018581525090506000604051806060016040528089815260200187815260200185815250905060006012905060008167ffffffffffffffff811115610d5f57610d5e6111de565b5b604051908082528060200260200182016040528015610d8d5781602001602082028036833780820191505090505b50905060005b6003811015610fcb576000600682610dab9190611923565b9050858260038110610dc057610dbf6117eb565b5b60200201516000015183600083610dd7919061197d565b81518110610de857610de76117eb565b5b602002602001018181525050858260038110610e0757610e066117eb565b5b60200201516020015183600183610e1e919061197d565b81518110610e2f57610e2e6117eb565b5b602002602001018181525050848260038110610e4e57610e4d6117eb565b5b602002015160000151600060028110610e6a57610e696117eb565b5b602002015183600283610e7d919061197d565b81518110610e8e57610e8d6117eb565b5b602002602001018181525050848260038110610ead57610eac6117eb565b5b602002015160000151600160028110610ec957610ec86117eb565b5b602002015183600383610edc919061197d565b81518110610eed57610eec6117eb565b5b602002602001018181525050848260038110610f0c57610f0b6117eb565b5b602002015160200151600060028110610f2857610f276117eb565b5b602002015183600483610f3b919061197d565b81518110610f4c57610f4b6117eb565b5b602002602001018181525050848260038110610f6b57610f6a6117eb565b5b602002015160200151600160028110610f8757610f866117eb565b5b602002015183600583610f9a919061197d565b81518110610fab57610faa6117eb565b5b602002602001018181525050508080610fc3906119d3565b915050610d93565b50610fd4611197565b6000602082602086026020860160086107d05a03fa90508060008103610ff657fe5b5080611037576040517f08c379a000000000000000000000000000000000000000000000000000000000815260040161102e90611a67565b60405180910390fd5b60008260006001811061104d5761104c6117eb565b5b6020020151141596505050505050509695505050505050565b60008060008060418551146110815760009350505050611133565b6020850151925060408501519150606085015160001a9050601b8160ff1610156110b557601b816110b29190611a94565b90505b601b8160ff16141580156110cd5750601c8160ff1614155b156110de5760009350505050611133565b600186828585604051600081526020016040526040516111019493929190611af3565b6020604051602081039080840390855afa158015611123573d6000803e3d6000fd5b5050506020604051035193505050505b92915050565b604051806040016040528060008152602001600081525090565b6040518060600160405280600390602082028036833780820191505090505090565b6040518060800160405280600490602082028036833780820191505090505090565b6040518060200160405280600190602082028036833780820191505090505090565b6000604051905090565b600080fd5b600080fd5b6000601f19601f8301169050919050565b7f4e487b7100000000000000000000000000000000000000000000000000000000600052604160045260246000fd5b611216826111cd565b810181811067ffffffffffffffff82111715611235576112346111de565b5b80604052505050565b60006112486111b9565b9050611254828261120d565b919050565b6000819050919050565b61126c81611259565b811461127757600080fd5b50565b60008135905061128981611263565b92915050565b6000604082840312156112a5576112a46111c8565b5b6112af604061123e565b905060006112bf8482850161127a565b60008301525060206112d38482850161127a565b60208301525092915050565b60008060008060c085870312156112f9576112f86111c3565b5b60006113078782880161128f565b94505060406113188782880161128f565b93505060806113298782880161127a565b92505060a061133a8782880161127a565b91505092959194509250565b60008115159050919050565b61135b81611346565b82525050565b60006020820190506113766000830184611352565b92915050565b600082825260208201905092915050565b7f56657269666965722e7665726966794b5a473a205f636f6d6d69746d656e742e60008201527f58206973206f7574206f662072616e6765000000000000000000000000000000602082015250565b60006113e960318361137c565b91506113f48261138d565b604082019050919050565b60006020820190508181036000830152611418816113dc565b9050919050565b7f56657269666965722e7665726966794b5a473a205f636f6d6d69746d656e742e60008201527f59206973206f7574206f662072616e6765000000000000000000000000000000602082015250565b600061147b60318361137c565b91506114868261141f565b604082019050919050565b600060208201905081810360008301526114aa8161146e565b9050919050565b7f56657269666965722e7665726966794b5a473a205f70726f6f662e582069732060008201527f6f7574206f662072616e67650000000000000000000000000000000000000000602082015250565b600061150d602c8361137c565b9150611518826114b1565b604082019050919050565b6000602082019050818103600083015261153c81611500565b9050919050565b7f56657269666965722e7665726966794b5a473a205f70726f6f662e592069732060008201527f6f7574206f662072616e67650000000000000000000000000000000000000000602082015250565b600061159f602c8361137c565b91506115aa82611543565b604082019050919050565b600060208201905081810360008301526115ce81611592565b9050919050565b7f56657269666965722e7665726966794b5a473a205f696e646578206973206f7560008201527f74206f662072616e676500000000000000000000000000000000000000000000602082015250565b6000611631602a8361137c565b915061163c826115d5565b604082019050919050565b6000602082019050818103600083015261166081611624565b9050919050565b7f56657269666965722e7665726966794b5a473a205f76616c7565206973206f7560008201527f74206f662072616e676500000000000000000000000000000000000000000000602082015250565b60006116c3602a8361137c565b91506116ce82611667565b604082019050919050565b600060208201905081810360008301526116f2816116b6565b9050919050565b7f4e487b7100000000000000000000000000000000000000000000000000000000600052602260045260246000fd5b6000600282049050600182168061174057607f821691505b602082108103611753576117526116f9565b5b50919050565b7f4e487b7100000000000000000000000000000000000000000000000000000000600052601260045260246000fd5b7f4e487b7100000000000000000000000000000000000000000000000000000000600052601160045260246000fd5b60006117c282611259565b91506117cd83611259565b9250828210156117e0576117df611788565b5b828203905092915050565b7f4e487b7100000000000000000000000000000000000000000000000000000000600052603260045260246000fd5b7f70616972696e672d6d756c2d6661696c65640000000000000000000000000000600082015250565b600061185060128361137c565b915061185b8261181a565b602082019050919050565b6000602082019050818103600083015261187f81611843565b9050919050565b600061189182611259565b915061189c83611259565b9250826118ac576118ab611759565b5b828206905092915050565b7f70616972696e672d6164642d6661696c65640000000000000000000000000000600082015250565b60006118ed60128361137c565b91506118f8826118b7565b602082019050919050565b6000602082019050818103600083015261191c816118e0565b9050919050565b600061192e82611259565b915061193983611259565b9250817fffffffffffffffffffffffffffffffffffffffffffffffffffffffffffffffff048311821515161561197257611971611788565b5b828202905092915050565b600061198882611259565b915061199383611259565b9250827fffffffffffffffffffffffffffffffffffffffffffffffffffffffffffffffff038211156119c8576119c7611788565b5b828201905092915050565b60006119de82611259565b91507fffffffffffffffffffffffffffffffffffffffffffffffffffffffffffffffff8203611a1057611a0f611788565b5b600182019050919050565b7f70616972696e672d6f70636f64652d6661696c65640000000000000000000000600082015250565b6000611a5160158361137c565b9150611a5c82611a1b565b602082019050919050565b60006020820190508181036000830152611a8081611a44565b9050919050565b600060ff82169050919050565b6000611a9f82611a87565b9150611aaa83611a87565b92508260ff03821115611ac057611abf611788565b5b828201905092915050565b6000819050919050565b611ade81611acb565b82525050565b611aed81611a87565b82525050565b6000608082019050611b086000830187611ad5565b611b156020830186611ae4565b611b226040830185611ad5565b611b2f6060830184611ad5565b9594505050505056fea2646970667358221220f53236999bf8757bd2933bcc73a65efd16761e6187ec7cbee0be43545d3e200064736f6c634300080d003332303930303432393839393239313030393037333239393238393436393636303134393731363738353539363235313439313330303639323033353638313439323031363933393137393235372c2034333336393130323335363836393631353338323835393936353237323731373734393336373139303538383334353439353338363836303430373438373135323833383132323030393719ec5dc5aa05a220cd210a113352596ebf80d06a6f776b8e0c656e50a5c5567f1e8a7f23fb27f77ea5b5d42f0e2384facdebebd85f026e2a73e94d4690a40a6801",
  "immutableReferences": {},
  "source": "// Modified from https://github.com/appliedzkp/semaphore/blob/master/contracts/sol/verifier.sol\r\n// SPDX-License-Identifier: MIT\r\n\r\n// please notice that current code may be temporary code for cost estimation, and right version is annotated\r\n\r\npragma solidity >=0.4.22 <0.9.0;\r\npragma experimental ABIEncoderV2;\r\nimport \"./Pairing.sol\";\r\n// import \"./PolyCoeff.sol\";\r\nimport { Constants } from \"./Constants.sol\";\r\n// import \"@openzeppelin/contracts/utils/Strings.sol\";\r\n\r\ncontract Verifier is Constants {\r\n\r\n    using Pairing for *;\r\n\r\n    event verifyResult(bool result);\r\n\r\n    // d_j when j=1\r\n    uint256 d = uint256(20435686948508171234472206488737953800505595616105823290561271581793730135986);\r\n    uint256 yz = mulmod(y, z, BABYJUB_P);\r\n    uint256 z = uint256(21284924740537517593391635090683107806948436131904811688892120057033464016678);\r\n    uint256 y = uint256(21356640755055926883299664242251323519715676831624930462071588778907420237277);\r\n    uint256 beta = uint256(21300179784197405894513072539865320928097398620497813074953097024203243212233);\r\n\r\n    // number of constraints?\r\n    uint256 N = 21;\r\n    uint256 z_n = expMod(z, N, BABYJUB_P);\r\n\r\n    // struct UserCommitments{\r\n\r\n    //     // ECDSA signature\r\n    //     bytes32 message;\r\n    //     bytes sig;\r\n    //     address addr;\r\n\r\n    //     // d_j when j=1\r\n\r\n    //     // S\r\n\r\n    //     // gamma(z) = gamma[0] + gamma[1]*z + gamma[2]*z^2 + ...\r\n    //     uint256[1] gamma1;\r\n    //     uint256[1] gamma2;\r\n    //     uint256[2] gamma3;\r\n    //     uint256[1] gamma4;\r\n    //     uint256[1] gamma5;\r\n    //     uint256[2] gamma6;\r\n    //     uint256[1] gamma7;\r\n    //     // the committed prove, g^p[x], g^w[x]\r\n    //     Pairing.G1Point pi_1;\r\n    //     Pairing.G1Point pi_2;\r\n\r\n\r\n    //     // other prover submitted variables\r\n    //     uint256 r_1;\r\n    //     uint256 r_tilde;\r\n    //     uint256 t;\r\n    //     uint256 k;\r\n    //     uint256 s_tilde;\r\n    //     uint256 r_2;\r\n    //     uint256 s_1_tilde;\r\n    //     uint256 s_2_tilde;\r\n\r\n    //     // poly commitments, Fs\r\n    //     Pairing.G1Point D;\r\n    //     Pairing.G1Point R_tilde;\r\n    //     Pairing.G1Point R;\r\n    //     Pairing.G1Point T;\r\n    //     Pairing.G1Point K;\r\n    //     Pairing.G1Point S_x;\r\n    //     Pairing.G1Point S_y;\r\n    // }\r\n    // // too many local variables, so create a struct\r\n    // struct verification_variables{\r\n    //     // Z(T / Si)[z] * ^(i-1)\r\n    //     uint256 Z_beta_1; // i = 1,  etc.\r\n    //     uint256 Z_beta_2;\r\n    //     uint256 Z_beta_3;\r\n    //     uint256 Z_beta_4;\r\n    //     // uint256 Z_beta_5;\r\n    //     // uint256 Z_beta_6;\r\n    //     // uint256 Z_beta_7;\r\n\r\n    //     // H calculation\r\n    //     // Pairing.G1Point H;\r\n\r\n    //     // R calculation, denoted RR because already have a R for one Fcommitment\r\n    //     // first calculate the PI product, and to do this first calculate the power of g after product to reduce gas cost\r\n    //     // calculate the PI product\r\n    //     // Pairing.G1Point RR;\r\n\r\n    //     // check the equation, then check others\r\n    //     // bool result;\r\n    // }\r\n\r\n    // Sonic proofs\r\n    // D_j when j=1\r\n    Pairing.G1Point pi_D = Pairing.G1Point(uint256(20435686948508171234472206488737953800505595616105823290561271581793730135986),\r\n        uint256(7613038940582986439878577004424311309737615170791456916446723479068371769225));\r\n    Pairing.G1Point pi_R_tilde = Pairing.G1Point(uint256(20435686948508171234472206488737953800505595616105823290561271581793730135986),\r\n        uint256(7613038940582986439878577004424311309737615170791456916446723479068371769225));\r\n    Pairing.G1Point pi_R1 = Pairing.G1Point(uint256(20435686948508171234472206488737953800505595616105823290561271581793730135986),\r\n        uint256(7613038940582986439878577004424311309737615170791456916446723479068371769225));\r\n    Pairing.G1Point pi_R2 = Pairing.G1Point(uint256(20435686948508171234472206488737953800505595616105823290561271581793730135986),\r\n        uint256(7613038940582986439878577004424311309737615170791456916446723479068371769225));\r\n    Pairing.G1Point pi_T = Pairing.G1Point(uint256(20435686948508171234472206488737953800505595616105823290561271581793730135986),\r\n        uint256(7613038940582986439878577004424311309737615170791456916446723479068371769225));\r\n    Pairing.G1Point pi_K = Pairing.G1Point(uint256(20435686948508171234472206488737953800505595616105823290561271581793730135986),\r\n        uint256(7613038940582986439878577004424311309737615170791456916446723479068371769225));\r\n    Pairing.G1Point pi_S_x1 = Pairing.G1Point(uint256(20435686948508171234472206488737953800505595616105823290561271581793730135986),\r\n        uint256(7613038940582986439878577004424311309737615170791456916446723479068371769225));\r\n    Pairing.G1Point pi_S_x2 = Pairing.G1Point(uint256(20435686948508171234472206488737953800505595616105823290561271581793730135986),\r\n        uint256(7613038940582986439878577004424311309737615170791456916446723479068371769225));\r\n    Pairing.G1Point pi_S_y = Pairing.G1Point(uint256(20435686948508171234472206488737953800505595616105823290561271581793730135986),\r\n        uint256(7613038940582986439878577004424311309737615170791456916446723479068371769225));\r\n    uint256 r_1 = uint256(20435686948508171234472206488737953800505595616105823290561271581793730135986);\r\n    uint256 r_tilde = uint256(7613038940582986439878577004424311309737615170791456916446723479068371769225);\r\n    uint256 t = uint256(20435686948508171234472206488737953800505595616105823290561271581793730135986);\r\n    uint256 k = uint256(11598511819595573397693757683043215863237090817957830497519701049476846220233);\r\n    uint256 s_tilde = uint256(20435686948508171234472206488737953800505595616105823290561271581793730135986);\r\n    uint256 r_2 = uint256(7613038940582986439878577004424311309737615170791456916446723479068371769225);\r\n    uint256 s_1_tilde = uint256(20435686948508171234472206488737953800505595616105823290561271581793730135986);\r\n    uint256 s_2_tilde = uint256(7613038940582986439878577004424311309737615170791456916446723479068371769225);\r\n    // poly commitments, Fs\r\n    Pairing.G1Point D = Pairing.G1Point(uint256(20435686948508171234472206488737953800505595616105823290561271581793730135986),\r\n        uint256(7613038940582986439878577004424311309737615170791456916446723479068371769225));\r\n    Pairing.G1Point R_tilde = Pairing.G1Point(uint256(20435686948508171234472206488737953800505595616105823290561271581793730135986),\r\n        uint256(7613038940582986439878577004424311309737615170791456916446723479068371769225));\r\n    Pairing.G1Point R = Pairing.G1Point(uint256(20435686948508171234472206488737953800505595616105823290561271581793730135986),\r\n        uint256(7613038940582986439878577004424311309737615170791456916446723479068371769225));\r\n    Pairing.G1Point T = Pairing.G1Point(uint256(20435686948508171234472206488737953800505595616105823290561271581793730135986),\r\n        uint256(7613038940582986439878577004424311309737615170791456916446723479068371769225));\r\n    Pairing.G1Point K = Pairing.G1Point(uint256(20435686948508171234472206488737953800505595616105823290561271581793730135986),\r\n        uint256(7613038940582986439878577004424311309737615170791456916446723479068371769225));\r\n    Pairing.G1Point S_x = Pairing.G1Point(uint256(20435686948508171234472206488737953800505595616105823290561271581793730135986),\r\n        uint256(7613038940582986439878577004424311309737615170791456916446723479068371769225));\r\n    Pairing.G1Point S_y = Pairing.G1Point(uint256(20435686948508171234472206488737953800505595616105823290561271581793730135986),\r\n        uint256(7613038940582986439878577004424311309737615170791456916446723479068371769225));\r\n    bytes32 message = ethMessageHash(\"20900429899291009073299289469660149716785596251491300692035681492016939179257, 433691023568696153828599652727177493671905883454953868604074871528381220097\");\r\n    bytes sig = hex\"19ec5dc5aa05a220cd210a113352596ebf80d06a6f776b8e0c656e50a5c5567f1e8a7f23fb27f77ea5b5d42f0e2384facdebebd85f026e2a73e94d4690a40a6801\";\r\n    address addr = 0xE448992FdEaF94784bBD8f432d781C061D907985;\r\n\r\n    // formerly used variables:\r\n\r\n    // temporarily this is for original sonic\r\n    // uint256[21] Proof = [\r\n    //     uint256(20435686948508171234472206488737953800505595616105823290561271581793730135986),\r\n    //     uint256(7613038940582986439878577004424311309737615170791456916446723479068371769225),\r\n    //     uint256(20900429899291009073299289469660149716785596251491300692035681492016939179257),\r\n    //     uint256(17015433841169487450406840425175642150965883946544965612916879717959251917877),\r\n    //     uint256(433691023568696153828599652727177493671905883454953868604074871528381220097),\r\n    //     uint256(10320531664273889342578906132837836076031009559738199149165995480549188738219),\r\n    //     uint256(5841514956038981489672186264970094693930045609713312309929445225955171101947),\r\n    //     uint256(5021024840007099401420413415719005463562614305701472747429400657816854795888),\r\n    //     uint256(20774065911754029615648528083815650325450840922528127398846513310899898519818),\r\n    //     uint256(15033194806153309440324576121312701377491848712637707126378339071163915088607),\r\n    //     uint256(13797601081368067296147105517336555699959400728196376360418452678919689273357),\r\n    //     uint256(347536244405038501480645670232637364896709701574004323632284243300674648233),\r\n    //     uint256(14150985670258525975582637074878024272235049272474457475329855381177734047698),\r\n    //     uint256(2655786006985334435742353147654701867454007390061009682990360208958229883457),\r\n    //     uint256(19749978915220999581635876327451130211831443864540429941950424972239040718725),\r\n    //     uint256(18652734379260577017619098828238354228621932558467343220803598526754221068969),\r\n    //     uint256(19231643171984527412379363884712632725022106910875011856721870145973184299950),\r\n    //     uint256(11890584382703984881384687349129438589403848436060509080598302278432395889958),\r\n    //     uint256(19848703903105846067635106277601755727734486581037082434405934553883502968806),\r\n    //     uint256(7073067203970200196273245091229017314841577127190841947842173598530677375580),\r\n    //     uint256(11142795172845103846997117758219330284910812886430955732663385421662518242916)\r\n    // ];\r\n\r\n    // length of longest u,v,w, i.e. longest length of a,b,c, linear to poly. current 32: 2994\r\n\r\n    // SOCC_hscS = [G1Point S_j, uint256 s_j, G1Point W_j]\r\n    // uint256[5] SOCC_hscS = [\r\n    //     uint256(4856595452220518861283513887787149560249872199754148373623768058895650888886),\r\n    //     uint256(18903793806709064235976701805982270837399009185115750427816521247566249210556),\r\n    //     uint256(11142795172845103846997117758219330284910812886430955732663385421662518242916),\r\n    //     uint256(21371202341828297453905088304285070177929072675831707150146249345026206448204),\r\n    //     uint256(2804295765584777874267821186909392907007222244895837511075392229436674961086)\r\n    // ];\r\n    // SOCC_hscW = [uint256 s'_j,G1Point W'_j, G1Point Q_j]\r\n    // uint256[5] SOCC_hscW = [\r\n    //     uint256(10516069979663785554384039720791935537971662430097624533692998141893610132813),\r\n    //     uint256(4047408704098476939730481302397316844045052246660100325786631118072453155095),\r\n    //     uint256(3536770324764440576997419732517461268782698510962602892817204324264966117745),\r\n    //     uint256(14245367996788138561788347307320292816184394224142842975302936827932398609764),\r\n    //     uint256(4809015920432886449944012129537258787815219963382067822305826740230093200527)\r\n    // ];\r\n\r\n    // Pairing.G1Point hscQv = Pairing.G1Point(\r\n    //     uint256(2990558601454446836641627272921201963123578559834602407524792456795005493261),\r\n    //     uint256(13202662347545347168000079135411531495309137838398006144762638337293564502641)\r\n    // );\r\n    // Pairing.G1Point hscC = Pairing.G1Point(\r\n    //     uint256(20354021681082976488982424663336191185782081465046767166624106617637273115698),\r\n    //     uint256(7434894914590215425794637416957100516507193983165584369402225555559623348194)\r\n    // );\r\n\r\n    // uint256 u = uint256(8197071660809916300712359474937866146139983659726903111927633346212682272753);\r\n    // uint256 v = uint256(18304223670379022123371455395869338667757056554451611927086438308637909615067);\r\n\r\n    // from terminal\r\n    // uint256 s_uv = uint256(7791702837224372263152657165191932519240106980588006270334507770946892728366);\r\n\r\n    // The G2 generator\r\n    // why it's here? because the G2Gen() doesn't work in verify() for unknown reason\r\n    // Pairing.G2Point g2Generator = Pairing.G2Point({\r\n    //     X: [ SRS_G2_X_0[0], SRS_G2_X_1[0] ],\r\n    //     Y: [ SRS_G2_Y_0[0], SRS_G2_Y_1[0] ]\r\n    // });\r\n    // g\r\n    // Pairing.G1Point g = Pairing.G1Point(1, 2);\r\n    \r\n    // h^\r\n    // Pairing.G2Point SRS_G2_2 = Pairing.G2Point({\r\n    //     X: [ SRS_G2_X_0_Pos[2], SRS_G2_X_1_Pos[2] ],\r\n    //     Y: [ SRS_G2_Y_0_Pos[2], SRS_G2_Y_1_Pos[2] ]\r\n    // });\r\n\r\n    // Sonic version - Verify a single-point evaluation of a polynominal\r\n    function verify(\r\n        Pairing.G1Point memory _commitment, // F\r\n        Pairing.G1Point memory _proof, // W\r\n        uint256 _index,  // z\r\n        uint256 _value  // F(z) or v\r\n        // uint proofIndex,\r\n        // bool isT\r\n    ) public view returns (bool) {\r\n        // Make sure each parameter is less than the prime q\r\n        require(_commitment.X < BABYJUB_P, \"Verifier.verifyKZG: _commitment.X is out of range\");\r\n        require(_commitment.Y < BABYJUB_P, \"Verifier.verifyKZG: _commitment.Y is out of range\");\r\n        require(_proof.X < BABYJUB_P, \"Verifier.verifyKZG: _proof.X is out of range\");\r\n        require(_proof.Y < BABYJUB_P, \"Verifier.verifyKZG: _proof.Y is out of range\");\r\n        require(_index < BABYJUB_P, \"Verifier.verifyKZG: _index is out of range\");\r\n        require(_value < BABYJUB_P, \"Verifier.verifyKZG: _value is out of range\");\r\n       \r\n        Pairing.G1Point memory negProof = Pairing.negate(Pairing.mulScalar(_proof, _index));\r\n        Pairing.G1Point memory mulProof = Pairing.plus(Pairing.mulScalar(G1Gen(), _value), negProof);\r\n\r\n        return Pairing.pairing_3point(_proof, SRS_G2_hAlphaX1,\r\n                                mulProof, SRS_G2_hAlphaX0,\r\n                                _commitment, t_hxdmax);\r\n    }\r\n\r\n\r\n\r\n    /*\r\n     * Verifies a single-point evaluation of a polynominal using the KZG\r\n     * commitment scheme.\r\n     *    - p(X) is a polynominal\r\n     *    - _value = p(_index) \r\n     *    - commitment = commit(p)\r\n     *    - proof = genProof(p, _index, _value)\r\n     * Returns true if and only if the following holds, and returns false\r\n     * otherwise:\r\n     *     e(commitment - commit([_value]), G2.g) == e(proof, commit([0, 1]) - zCommit)\r\n     * @param _commitment The KZG polynominal commitment.\r\n     * @param _proof The proof.\r\n     * @param _index The x-value at which to evaluate the polynominal.\r\n     * @param _value The result of the polynominal evaluation.\r\n     */\r\n    //   - Verify a single-point evaluation of a polynominal\r\n\r\n    // function verify(\r\n    //     Pairing.G1Point memory _commitment, // F\r\n    //     Pairing.G1Point memory _proof, // \r\n    //     uint256 _index,  // z\r\n    //     uint256 _value  // F(z) or v\r\n    //     //uint proofIndex\r\n    // ) public view returns (bool) {\r\n    //     // Make sure each parameter is less than the prime q\r\n    //     require(_commitment.X < BABYJUB_P, \"Verifier.verifyKZG: _commitment.X is out of range\");\r\n    //     require(_commitment.Y < BABYJUB_P, \"Verifier.verifyKZG: _commitment.Y is out of range\");\r\n    //     require(_proof.X < BABYJUB_P, \"Verifier.verifyKZG: _proof.X is out of range\");\r\n    //     require(_proof.Y < BABYJUB_P, \"Verifier.verifyKZG: _proof.Y is out of range\");\r\n    //     require(_index < BABYJUB_P, \"Verifier.verifyKZG: _index is out of range\");\r\n    //     require(_value < BABYJUB_P, \"Verifier.verifyKZG: _value is out of range\");\r\n    //     // Check that \r\n    //     //     e(commitment - aCommit, G2.g) == e(proof, xCommit - zCommit)\r\n    //     //     e(commitment - aCommit, G2.g) / e(proof, xCommit - zCommit) == 1\r\n    //     //     e(commitment - aCommit, G2.g) * e(proof, xCommit - zCommit) ^ -1 == 1\r\n    //     //     e(commitment - aCommit, G2.g) * e(-proof, xCommit - zCommit) == 1\r\n    //     // where:\r\n    //     //     aCommit = commit([_value]) = SRS_G1_0 * _value\r\n    //     //     xCommit = commit([0, 1]) = SRS_G2_1\r\n    //     //     zCommit = commit([_index]) = SRS_G2_1 * _index\r\n\r\n    //     // To avoid having to perform an expensive operation in G2 to compute\r\n    //     // xCommit - zCommit, we instead check the equivalent equation:\r\n    //     //     e(commitment - aCommit, G2.g) * e(-proof, xCommit) * e(-proof, -zCommit) == 1\r\n    //     //     e(commitment - aCommit, G2.g) * e(-proof, xCommit) * e(proof, zCommit) == 1\r\n    //     //     e(commitment - aCommit, G2.g) * e(-proof, xCommit) * e(index * proof, G2.g) == 1\r\n    //     //     e((index * proof) + (commitment - aCommit), G2.g) * e(-proof, xCommit) == 1\r\n\r\n    //     // Compute commitment - aCommitment\r\n    //     Pairing.G1Point memory commitmentMinusA = Pairing.plus(\r\n    //         _commitment,\r\n    //         Pairing.negate(\r\n    //             Pairing.mulScalar(Pairing.G1Point(1, 2), _value)\r\n    //         )\r\n    //     );\r\n\r\n    //     // Negate the proof\r\n    //     Pairing.G1Point memory negProof = Pairing.negate(_proof);\r\n\r\n    //     // Compute index * proof\r\n    //     Pairing.G1Point memory indexMulProof = Pairing.mulScalar(_proof, _index);\r\n\r\n    //     // Return true if and only if\r\n    //     // e((index * proof) + (commitment - aCommitment), G2.g) * e(-proof, xCommit) == 1\r\n    //     return Pairing.pairing(\r\n    //         Pairing.plus(indexMulProof, commitmentMinusA),\r\n    //         g2Generator,\r\n    //         negProof,\r\n    //         SRS_G2_1 // it's h. original author of kzg commitment code call it 'xCommit' here\r\n    //     );\r\n    // }\r\n\r\n    // modified sonic verifier using KZG commitment\r\n\r\n    // function verifySonic_KZG(\r\n    //     // uint256[21] memory Proof,\r\n    //     // uint256[2] memory Randoms\r\n    // ) public returns (bool) {\r\n\r\n    //     // simulate calculating kY\r\n    //     // uint256 ky = evalKPoly();\r\n    //     // // // simulate calculating sXY\r\n    //     // uint256 sx = evalXPoly();\r\n    //     // uint256 sy = evalXPoly();\r\n\r\n    //     //uint256 yz = mulmod(y, z, BABYJUB_P);\r\n\r\n    //     // y^N for halo implementation style\r\n    //     // uint256 y_n = expMod(z, N, BABYJUB_P);\r\n    //     // t for halo implementation style\r\n    //     // uint256 t = addmod(mulmod(addmod(Proof[6], Proof[9], BABYJUB_P), \r\n    //     //                           addmod(addmod(Proof[12], \r\n    //     //                                         Proof[15], BABYJUB_P), \r\n    //     //                                  evalS, BABYJUB_P), BABYJUB_P),\r\n    //     //                     mulmod((BABYJUB_P - evalK), y_n, BABYJUB_P),\r\n    //     //                     BABYJUB_P);\r\n\r\n    //     uint256 t = addmod(mulmod(addmod(Proof[6], Proof[9], BABYJUB_P), \r\n    //                               addmod(addmod(Proof[12], \r\n    //                                             Proof[15], BABYJUB_P), \r\n    //                                      evalS, BABYJUB_P), BABYJUB_P),\r\n    //                         (BABYJUB_P - evalK), BABYJUB_P);\r\n\r\n\r\n    //     bool verifySignature = recover(message, sig) == addr;\r\n    //     // bool result = verify(Pairing.G1Point(Proof[0], Proof[1]), // aLocal\r\n    //     //               Pairing.G1Point(Proof[7], Proof[8]),\r\n    //     //               z, \r\n    //     //               Proof[6]) &&\r\n    //     //         verify(Pairing.G1Point(Proof[0], Proof[1]), // bLocal\r\n    //     //               Pairing.G1Point(Proof[13], Proof[14]),\r\n    //     //               yz,\r\n    //     //               Proof[12]) &&\r\n    //     //         verify(Pairing.G1Point(Proof[2], Proof[3]), // aRaw\r\n    //     //               Pairing.G1Point(Proof[10], Proof[11]),\r\n    //     //               z,\r\n    //     //               Proof[9]) &&\r\n    //     //         verify(Pairing.G1Point(Proof[2], Proof[3]), // bRaw\r\n    //     //               Pairing.G1Point(Proof[16], Proof[17]),\r\n    //     //               yz,\r\n    //     //               Proof[15]) &&\r\n    //     //         verify(Pairing.G1Point(Proof[4], Proof[5]), // t\r\n    //     //               Pairing.G1Point(Proof[18], Proof[19]),\r\n    //     //               z,\r\n    //     //               t) &&                               \r\n    //     //         verify(Pairing.G1Point(Proof[4], Proof[5]), // t\r\n    //     //               Pairing.G1Point(Proof[18], Proof[19]),\r\n    //     //               z,\r\n    //     //               t) &&                                            // pcV srsLocal (srsD srsLocal) commitK y (k, wk)\r\n    //     //         verify(Pairing.G1Point(Proof[4], Proof[5]), // t\r\n    //     //               Pairing.G1Point(Proof[18], Proof[19]),\r\n    //     //               z,\r\n    //     //               t) &&                                            // pcV srsLocal (srsD srsLocal) commitC y (c, wc)\r\n    //     //         verify(Pairing.G1Point(Proof[4], Proof[5]), // t\r\n    //     //               Pairing.G1Point(Proof[18], Proof[19]),\r\n    //     //               z,\r\n    //     //               t) &&                                            // pcV srsLocal (srsD srsLocal) commitC yOld (cOld, wcOld)\r\n    //     //         verify(Pairing.G1Point(Proof[4], Proof[5]), // t\r\n    //     //               Pairing.G1Point(Proof[18], Proof[19]),\r\n    //     //               z,\r\n    //     //               t) &&                                            //, pcV srsLocal (srsD srsLocal) commitC yNew (cNew, wcNew)\r\n    //     //         verify(Pairing.G1Point(Proof[4], Proof[5]), // t\r\n    //     //               Pairing.G1Point(Proof[18], Proof[19]),\r\n    //     //               z,\r\n    //     //               t) &&                                            //, pcV srsLocal (srsD srsLocal) commitS z (s, ws)\r\n    //     //         verify(Pairing.G1Point(Proof[4], Proof[5]), // t\r\n    //     //               Pairing.G1Point(Proof[18], Proof[19]),\r\n    //     //               z,\r\n    //     //               t) &&                                            //, pcV srsLocal (srsD srsLocal) commitSOld z (sOld, wsOld)\r\n    //     //          verify(Pairing.G1Point(Proof[4], Proof[5]), // t\r\n    //     //               Pairing.G1Point(Proof[18], Proof[19]),\r\n    //     //               z,\r\n    //     //               t) &&                                           //, pcV srsLocal (srsD srsLocal) commitSNew z (sNew, wsNew)\r\n    //     //         verifySignature &&\r\n    //     //         Proof[6] == Proof[7] && // c_old == s_old\r\n    //     //         Proof[8] == Proof[9] && // c_new == s_new\r\n    //     //         Proof[10] == Proof[11]; // c == s\r\n\r\n    //     // temporary code for estimating gas cost, the above is correct version\r\n    //     bool result = verify(Pairing.G1Point(Proof[0], Proof[1]), // aLocal\r\n    //                   Pairing.G1Point(Proof[7], Proof[8]),\r\n    //                   z, \r\n    //                   Proof[6]);\r\n    //     result = verify(Pairing.G1Point(Proof[0], Proof[1]), // bLocal\r\n    //                   Pairing.G1Point(Proof[13], Proof[14]),\r\n    //                   yz,\r\n    //                   Proof[12]);\r\n    //     result = verify(Pairing.G1Point(Proof[2], Proof[3]), // aRaw\r\n    //                   Pairing.G1Point(Proof[10], Proof[11]),\r\n    //                   z,\r\n    //                   Proof[9]);\r\n    //     result = verify(Pairing.G1Point(Proof[2], Proof[3]), // bRaw\r\n    //                   Pairing.G1Point(Proof[16], Proof[17]),\r\n    //                   yz,\r\n    //                   Proof[15]);\r\n    //     result = verify(Pairing.G1Point(Proof[4], Proof[5]), // t\r\n    //                   Pairing.G1Point(Proof[18], Proof[19]),\r\n    //                   z,\r\n    //                   t);                              \r\n    //     result = verify(Pairing.G1Point(Proof[4], Proof[5]), // t\r\n    //                   Pairing.G1Point(Proof[18], Proof[19]),\r\n    //                   z,\r\n    //                   t);                                            // pcV srsLocal (srsD srsLocal) commitK y (k, wk)\r\n    //     result = verify(Pairing.G1Point(Proof[4], Proof[5]), // t\r\n    //                   Pairing.G1Point(Proof[18], Proof[19]),\r\n    //                   z,\r\n    //                   t);                                            // pcV srsLocal (srsD srsLocal) commitC y (c, wc)\r\n    //     result = verify(Pairing.G1Point(Proof[4], Proof[5]), // t\r\n    //                   Pairing.G1Point(Proof[18], Proof[19]),\r\n    //                   z,\r\n    //                   t);                                            // pcV srsLocal (srsD srsLocal) commitC yOld (cOld, wcOld)\r\n    //     result = verify(Pairing.G1Point(Proof[4], Proof[5]), // t\r\n    //                   Pairing.G1Point(Proof[18], Proof[19]),\r\n    //                   z,\r\n    //                   t);                                            //, pcV srsLocal (srsD srsLocal) commitC yNew (cNew, wcNew)\r\n    //     result = verify(Pairing.G1Point(Proof[4], Proof[5]), // t\r\n    //                   Pairing.G1Point(Proof[18], Proof[19]),\r\n    //                   z,\r\n    //                   t);                                            //, pcV srsLocal (srsD srsLocal) commitS z (s, ws)\r\n    //     result = verify(Pairing.G1Point(Proof[4], Proof[5]), // t\r\n    //                   Pairing.G1Point(Proof[18], Proof[19]),\r\n    //                   z,\r\n    //                   t);                                            //, pcV srsLocal (srsD srsLocal) commitSOld z (sOld, wsOld)\r\n    //     result = verify(Pairing.G1Point(Proof[4], Proof[5]), // t\r\n    //                   Pairing.G1Point(Proof[18], Proof[19]),\r\n    //                   z,\r\n    //                   t);                                           //, pcV srsLocal (srsD srsLocal) commitSNew z (sNew, wsNew)\r\n    //     result = verifySignature;\r\n    //     result = Proof[6] == Proof[7]; // c_old == s_old\r\n    //     result = Proof[8] == Proof[9]; // c_new == s_new\r\n    //     result = Proof[10] == Proof[11]; // c == s\r\n    //     emit verifyResult(result);\r\n    //     return result;\r\n    // }\r\n\r\n    // sonic verifier\r\n\r\n    function verifySonic(\r\n        // uint256[21] memory Proof,\r\n        // uint256[2] memory Randoms\r\n    ) public returns (bool) {\r\n\r\n        // simulate calculating kY\r\n        // uint256 ky = evalKPoly();\r\n        // // // simulate calculating sXY\r\n        // uint256 sx = evalXPoly();\r\n        // uint256 sy = evalXPoly();\r\n\r\n        // uint256 yz = mulmod(y, z, BABYJUB_P);\r\n\r\n        // y^N for halo implementation style\r\n        // uint256 y_n = expMod(z, N, BABYJUB_P);\r\n        // t for halo implementation style\r\n        // uint256 t = addmod(mulmod(addmod(Proof[6], Proof[9], BABYJUB_P), \r\n        //                           addmod(addmod(Proof[12], \r\n        //                                         Proof[15], BABYJUB_P), \r\n        //                                  evalS, BABYJUB_P), BABYJUB_P),\r\n        //                     mulmod((BABYJUB_P - evalK), y_n, BABYJUB_P),\r\n        //                     BABYJUB_P);\r\n\r\n\r\n\r\n        // bool result = verify(D,\r\n        //               pi_D,\r\n        //               z, \r\n        //               d)\r\n        //     && verify(R_tilde,\r\n        //               pi_R_tilde,\r\n        //               z,\r\n        //               r_tilde)\r\n        //     && verify(R,\r\n        //               pi_R1,\r\n        //               z,\r\n        //               r_1)\r\n        //     && = verify(R,\r\n        //               pi_R2,\r\n        //               yz,\r\n        //               r_2)\r\n        //     && verify(T,\r\n        //               pi_T,\r\n        //               z,\r\n        //               t)\r\n        //     && verify(K,\r\n        //               pi_K,\r\n        //               y,\r\n        //               k)\r\n        //     && verify(S_x,\r\n        //               pi_S_x1,\r\n        //               z,\r\n        //               s_tilde)\r\n        //     && verify(S_x,\r\n        //               pi_S_x2,\r\n        //               1,\r\n        //               s_1_tilde)\r\n        //     && verify(S_y,\r\n        //               pi_S_y,\r\n        //               y,\r\n        //               s_2_tilde)\r\n        //     && recover(message, sig) == addr //verifySignature\r\n        //     && r_1 == addmod(r_tilde, mulmod(d, z_n, BABYJUB_P), BABYJUB_P)\r\n        //     && t == addmod(mulmod(r_1, \r\n        //                           addmod(r_2,\r\n        //                                  s_tilde, BABYJUB_P), BABYJUB_P),\r\n        //                     (BABYJUB_P - k), BABYJUB_P)\r\n        //     && s_1_tilde == s_2_tilde;\r\n\r\n        // temporary code for estimating gas cost, the above is correct version\r\n        bool result = verify(D,\r\n                      pi_D,\r\n                      z, \r\n                      d);\r\n        result = verify(R_tilde,\r\n                      pi_R_tilde,\r\n                      z,\r\n                      r_tilde);\r\n        result = verify(R,\r\n                      pi_R1,\r\n                      z,\r\n                      r_1);\r\n        result = verify(R,\r\n                      pi_R2,\r\n                      yz,\r\n                      r_2);\r\n        result = verify(T,\r\n                      pi_T,\r\n                      z,\r\n                      t);\r\n        result = verify(K,\r\n                      pi_K,\r\n                      y,\r\n                      k);\r\n        result = verify(S_x,\r\n                      pi_S_x1,\r\n                      z,\r\n                      s_tilde);\r\n        result = verify(S_x,\r\n                      pi_S_x2,\r\n                      1,\r\n                      s_1_tilde);\r\n        result = verify(S_y,\r\n                      pi_S_y,\r\n                      y,\r\n                      s_2_tilde);\r\n        result = recover(message, sig) == addr; //verifySignature\r\n        result = r_1 == addmod(r_tilde, mulmod(d, z_n, BABYJUB_P), BABYJUB_P);\r\n        result = t == addmod(mulmod(r_1, \r\n                                  addmod(r_2,\r\n                                         s_tilde, BABYJUB_P), BABYJUB_P),\r\n                            (BABYJUB_P - k), BABYJUB_P);\r\n        result = s_1_tilde == s_2_tilde;\r\n\r\n        emit verifyResult(result);\r\n        return result;\r\n    }\r\n\r\n    // add improvement for batched commitments of original KZG\r\n    /*\r\n    we check e<g^w[],h^> e<(g^w[])^-z,h> == RHS\r\n     */\r\n    // function verifySonicBatchedOriginKZG(\r\n    //     // uint256[21] memory Proof,\r\n    //     // uint256[2] memory Randoms\r\n    // ) public returns (bool) {\r\n\r\n    //     // simulate calculating kY\r\n    //     // uint256 ky = evalKPoly();\r\n    //     // // // simulate calculating sXY\r\n    //     // uint256 sx = evalXPoly();\r\n    //     // uint256 sy = evalXPoly();\r\n\r\n        \r\n    //     // y^N for halo implementation style\r\n    //     // uint256 y_n = expMod(z, N, BABYJUB_P);\r\n\r\n    //     // t for halo implementation style\r\n    //     // uint256 t = addmod(mulmod(addmod(Proof[6], Proof[9], BABYJUB_P), \r\n    //     //                           addmod(addmod(Proof[12], \r\n    //     //                                         Proof[15], BABYJUB_P), \r\n    //     //                                  evalS, BABYJUB_P), BABYJUB_P),\r\n    //     //                     mulmod((BABYJUB_P - evalK), y_n, BABYJUB_P),\r\n    //     //                     BABYJUB_P);\r\n\r\n    //     // uint256 t = addmod(mulmod(addmod(Proof[6], Proof[9], BABYJUB_P), \r\n    //     //                           addmod(addmod(Proof[12], \r\n    //     //                                         Proof[15], BABYJUB_P), \r\n    //     //                                  evalS, BABYJUB_P), BABYJUB_P),\r\n    //     //                     (BABYJUB_P - evalK), BABYJUB_P);\r\n\r\n\r\n    //     bool verifySignature = recover(message, sig) == addr;\r\n\r\n    //     // F\r\n    //     Pairing.G1Point[8] memory F = [\r\n    //                                 Pairing.G1Point(Proof[0], Proof[1]),//R0\r\n    //                                 Pairing.G1Point(Proof[2], Proof[3]), // Rj\r\n    //                                 Pairing.G1Point(Proof[4], Proof[5]), //T\r\n    //                                 Pairing.G1Point(Proof[6], Proof[7]), //C\r\n    //                                 Pairing.G1Point(Proof[8], Proof[9]), //Ck\r\n    //                                 Pairing.G1Point(Proof[10], Proof[11]), //S\r\n    //                                 Pairing.G1Point(Proof[12], Proof[13]), //Sold\r\n    //                                 Pairing.G1Point(Proof[14], Proof[15])  //Snew\r\n    //                                 ];\r\n    //     // Z(T / Si)[z] * ^(i-1)\r\n    //     uint256 Z_beta_1 = 1; // i = 1,  etc.\r\n    //     uint256 Z_beta_2 = beta;\r\n    //     uint256 Z_beta_3 = mulmod(Z_beta_2, beta, BABYJUB_P);\r\n    //     uint256 Z_beta_4 = mulmod(Z_beta_3, beta, BABYJUB_P);\r\n    //     uint256 Z_beta_5 = mulmod(Z_beta_4, beta, BABYJUB_P);\r\n    //     uint256 Z_beta_6 = mulmod(Z_beta_5, beta, BABYJUB_P);\r\n    //     uint256 Z_beta_7 = mulmod(Z_beta_6, beta, BABYJUB_P);\r\n    //     uint256 Z_beta_8 = mulmod(Z_beta_7, beta, BABYJUB_P);\r\n\r\n    //     Z_beta_1 = mulmod(Z_beta_1, z_calculation(1), BABYJUB_P);\r\n    //     Z_beta_2 = mulmod(Z_beta_2, z_calculation(2), BABYJUB_P);\r\n    //     Z_beta_3 = mulmod(Z_beta_3, z_calculation(3), BABYJUB_P);\r\n    //     Z_beta_4 = mulmod(Z_beta_4, z_calculation(4), BABYJUB_P);\r\n    //     Z_beta_5 = mulmod(Z_beta_5, z_calculation(5), BABYJUB_P);\r\n    //     Z_beta_6 = mulmod(Z_beta_6, z_calculation(6), BABYJUB_P);\r\n    //     Z_beta_7 = mulmod(Z_beta_7, z_calculation(7), BABYJUB_P);\r\n    //     Z_beta_8 = mulmod(Z_beta_8, z_calculation(8), BABYJUB_P);\r\n\r\n    //     // the prove, g^p[], g^w[]\r\n    //     Pairing.G1Point[2] memory pi = [\r\n    //         Pairing.G1Point(1, 2),\r\n    //         Pairing.G1Point(1, 2)\r\n    //     ];\r\n    //     // product_result is the first G1 element of the RHS pairing\r\n    //     // first calculate the uppercase Pi product\r\n    //     Pairing.G1Point memory product_result = Pairing.mulScalar(Pairing.plus(D, \r\n    //                                                             Pairing.negate(Pairing.mulScalar(g, \r\n    //                                                                             addmod(gamma1[0], \r\n    //                                                                             mulmod(gamma1[1], z, BABYJUB_P), \r\n    //                                                                             BABYJUB_P)))), Z_beta_1);\r\n    //     product_result = Pairing.plus(product_result, \r\n    //                                 Pairing.mulScalar(Pairing.plus(R_tilde, \r\n    //                                                             Pairing.negate(Pairing.mulScalar(g, \r\n    //                                                                             addmod(gamma2[0], \r\n    //                                                                             mulmod(gamma2[1], z, BABYJUB_P), \r\n    //                                                                             BABYJUB_P)))), Z_beta_2));\r\n    //     product_result = Pairing.plus(product_result, \r\n    //                                 Pairing.mulScalar(Pairing.plus(R, \r\n    //                                                             Pairing.negate(Pairing.mulScalar(g, \r\n    //                                                                             gamma3[0]))), Z_beta_3));\r\n    //     product_result = Pairing.plus(product_result, \r\n    //                                 Pairing.mulScalar(Pairing.plus(T, \r\n    //                                                             Pairing.negate(Pairing.mulScalar(g, \r\n    //                                                                             addmod(addmod(gamma4[0], \r\n    //                                                                             mulmod(gamma4[1], z, BABYJUB_P), \r\n    //                                                                             BABYJUB_P),\r\n    //                                                                             mulmod(gamma4[2], \r\n    //                                                                             mulmod(z, z, \r\n    //                                                                             BABYJUB_P), \r\n    //                                                                             BABYJUB_P),\r\n    //                                                                             BABYJUB_P)\r\n    //                                                                             )))\r\n    //                                                     , Z_beta_4)\r\n    //                                     );\r\n    //     product_result = Pairing.plus(product_result, \r\n    //                                 Pairing.mulScalar(Pairing.plus(K, \r\n    //                                                             Pairing.negate(Pairing.mulScalar(g, \r\n    //                                                                             gamma5[0]))), Z_beta_5));\r\n    //     product_result = Pairing.plus(product_result, \r\n    //                                 Pairing.mulScalar(Pairing.plus(S_x, \r\n    //                                                             Pairing.negate(Pairing.mulScalar(g, \r\n    //                                                                             gamma6[0]))), Z_beta_6));\r\n    //     product_result = Pairing.plus(product_result, \r\n    //                                 Pairing.mulScalar(Pairing.plus(S_y, \r\n    //                                                             Pairing.negate(Pairing.mulScalar(g, \r\n    //                                                                             gamma7[0]))), Z_beta_7));\r\n    //     product_result = Pairing.plus(product_result, \r\n    //                                 Pairing.mulScalar(Pairing.plus(F[7], \r\n    //                                                             Pairing.negate(Pairing.mulScalar(g, \r\n    //                                                                             gamma8[0]))), Z_beta_8));\r\n    //     // then add the first item before the uppercase Pi product\r\n    //     product_result = Pairing.plus(product_result,\r\n    //                                 Pairing.negate(Pairing.plus(pi[0],\r\n    //                                                 Pairing.mulScalar(g,\r\n    //                                                                 z_calculation(9)))));//zT[z]\r\n\r\n    //     // check e<g^w[],h^>e<g^w[]g^-z,h> == RHS, then check others\r\n    //     // bool result = Pairing.pairing_3point(\r\n    //     //     pi[1],\r\n    //     //     SRS_G2_2, // h^, see above\r\n    //     //     Pairing.negate(Pairing.mulScalar(pi[1], z)),\r\n    //     //     SRS_G2_1, // h, see above\r\n    //     //     Pairing.negate(product_result),\r\n    //     //     SRS_G2_1\r\n    //     //     )\r\n    //     //     && verifySignature\r\n    //     //     && Proof[6] == Proof[7] // c_old == s_old\r\n    //     //     && Proof[8] == Proof[9] // c_new == s_new\r\n    //     //     && Proof[10] == Proof[11]; // c == s\r\n\r\n    //     // temporary code for estimating gas cost, the above is correct version\r\n    //     // check e<g^w[],h^>e<(g^w[])^-z,h> == RHS, then check others\r\n    //     bool result = Pairing.pairing_3point(\r\n    //         pi[1], // g^w[]\r\n    //         SRS_G2_2, // h^, see above\r\n    //         Pairing.negate(Pairing.mulScalar(pi[1], z)),\r\n    //         SRS_G2_1, // h, see above\r\n    //         Pairing.negate(product_result),\r\n    //         SRS_G2_1\r\n    //         );\r\n    //     result = verifySignature;\r\n    //     result = Proof[6] == Proof[7]; // c_old == s_old\r\n    //     result = Proof[8] == Proof[9]; // c_new == s_new\r\n    //     result = Proof[10] == Proof[11]; // c == s\r\n    //     emit verifyResult(result);\r\n    //     return result;\r\n    // }\r\n\r\n\r\n    // using batched commitments of sonic version of modified KZG\r\n    // used for test convenience only\r\n    // function verifySonicBatched(\r\n    // ) public{\r\n        \r\n    //     // for reference:\r\n        \r\n    //     // // ECDSA signature\r\n    //     // bytes32 message = ethMessageHash(\"20900429899291009073299289469660149716785596251491300692035681492016939179257, 433691023568696153828599652727177493671905883454953868604074871528381220097\");\r\n    //     // bytes sig = hex\"19ec5dc5aa05a220cd210a113352596ebf80d06a6f776b8e0c656e50a5c5567f1e8a7f23fb27f77ea5b5d42f0e2384facdebebd85f026e2a73e94d4690a40a6801\";\r\n    //     // address addr = 0xE448992FdEaF94784bBD8f432d781C061D907985;\r\n\r\n    //     // // d_j when j=1\r\n    //     // uint256 d = uint256(20435686948508171234472206488737953800505595616105823290561271581793730135986);\r\n    //     // uint256 yz = mulmod(y, z, BABYJUB_P);\r\n    //     // uint256 z = uint256(21284924740537517593391635090683107806948436131904811688892120057033464016678);\r\n    //     // uint256 y = uint256(21356640755055926883299664242251323519715676831624930462071588778907420237277);\r\n    //     // uint256 beta = uint256(21300179784197405894513072539865320928097398620497813074953097024203243212233);\r\n    //     // // S\r\n    //     // uint256[1] S1 = [z];\r\n    //     // uint256[1] S2 = [z];\r\n    //     // uint256[2] S3 = [z, yz];\r\n    //     // uint256[1] S4 = [z];\r\n    //     // uint256[1] S5 = [y];\r\n    //     // uint256[2] S6 = [z, 1];\r\n    //     // uint256[1] S7 = [y];\r\n    //     // // gamma(z) = gamma[0] + gamma[1]*z + gamma[2]*z^2 + ...\r\n    //     // uint256[1] gamma1 = [z];\r\n    //     // uint256[1] gamma2 = [z];\r\n    //     // uint256[2] gamma3 = [z, yz];\r\n    //     // uint256[1] gamma4 = [z];\r\n    //     // uint256[1] gamma5 = [z];\r\n    //     // uint256[2] gamma6 = [z, 1];\r\n    //     // uint256[1] gamma7 = [z];\r\n    //     // // the committed prove, g^p[x], g^w[x]\r\n    //     // Pairing.G1Point pi_1 = Pairing.G1Point(1, 2);\r\n    //     // Pairing.G1Point pi_2 = Pairing.G1Point(1, 2);\r\n\r\n    //     // // number of constraints?\r\n    //     // uint256 N = 21;\r\n    //     // uint256 z_n = expMod(z, N, BABYJUB_P);\r\n\r\n    //     // // other prover submitted variables\r\n    //     // uint256 r_1 = uint256(20435686948508171234472206488737953800505595616105823290561271581793730135986);\r\n    //     // uint256 r_tilde = uint256(7613038940582986439878577004424311309737615170791456916446723479068371769225);\r\n    //     // uint256 t = uint256(20435686948508171234472206488737953800505595616105823290561271581793730135986);\r\n    //     // uint256 k = uint256(11598511819595573397693757683043215863237090817957830497519701049476846220233);\r\n    //     // uint256 s_tilde = uint256(20435686948508171234472206488737953800505595616105823290561271581793730135986);\r\n    //     // uint256 r_2 = uint256(7613038940582986439878577004424311309737615170791456916446723479068371769225);\r\n    //     // uint256 s_1_tilde = uint256(20435686948508171234472206488737953800505595616105823290561271581793730135986);\r\n    //     // uint256 s_2_tilde = uint256(7613038940582986439878577004424311309737615170791456916446723479068371769225);\r\n\r\n    //     // // poly commitments, Fs\r\n    //     // Pairing.G1Point D = Pairing.G1Point(uint256(20435686948508171234472206488737953800505595616105823290561271581793730135986),\r\n    //     //     uint256(7613038940582986439878577004424311309737615170791456916446723479068371769225));\r\n    //     // Pairing.G1Point R_tilde = Pairing.G1Point(uint256(20435686948508171234472206488737953800505595616105823290561271581793730135986),\r\n    //     //     uint256(7613038940582986439878577004424311309737615170791456916446723479068371769225));\r\n    //     // Pairing.G1Point R = Pairing.G1Point(uint256(20435686948508171234472206488737953800505595616105823290561271581793730135986),\r\n    //     //     uint256(7613038940582986439878577004424311309737615170791456916446723479068371769225));\r\n    //     // Pairing.G1Point T = Pairing.G1Point(uint256(20435686948508171234472206488737953800505595616105823290561271581793730135986),\r\n    //     //     uint256(7613038940582986439878577004424311309737615170791456916446723479068371769225));\r\n    //     // Pairing.G1Point K = Pairing.G1Point(uint256(20435686948508171234472206488737953800505595616105823290561271581793730135986),\r\n    //     //     uint256(7613038940582986439878577004424311309737615170791456916446723479068371769225));\r\n    //     // Pairing.G1Point S_x = Pairing.G1Point(uint256(20435686948508171234472206488737953800505595616105823290561271581793730135986),\r\n    //     //     uint256(7613038940582986439878577004424311309737615170791456916446723479068371769225));\r\n    //     // Pairing.G1Point S_y = Pairing.G1Point(uint256(20435686948508171234472206488737953800505595616105823290561271581793730135986),\r\n    //     //     uint256(7613038940582986439878577004424311309737615170791456916446723479068371769225));\r\n\r\n    //     verifySonicBatchedImpl(UserCommitments(\r\n\r\n    //         // ECDSA signature\r\n    //         ethMessageHash(\"20900429899291009073299289469660149716785596251491300692035681492016939179257, 433691023568696153828599652727177493671905883454953868604074871528381220097\"),\r\n    //         hex\"19ec5dc5aa05a220cd210a113352596ebf80d06a6f776b8e0c656e50a5c5567f1e8a7f23fb27f77ea5b5d42f0e2384facdebebd85f026e2a73e94d4690a40a6801\",\r\n    //         0xE448992FdEaF94784bBD8f432d781C061D907985,\r\n\r\n    //         // d_j when j=1\r\n\r\n\r\n    //         // gamma(z) = gamma[0] + gamma[1]*z + gamma[2]*z^2 + ...\r\n    //         [z],\r\n    //         [z],\r\n    //         [z, yz],\r\n    //         [z],\r\n    //         [z],\r\n    //         [z, 1],\r\n    //         [z],\r\n    //         // the committed prove, g^p[x], g^w[x]\r\n    //         Pairing.G1Point(1, 2),\r\n    //         Pairing.G1Point(1, 2),\r\n\r\n\r\n    //         // other prover submitted variables\r\n    //         uint256(20435686948508171234472206488737953800505595616105823290561271581793730135986),\r\n    //         uint256(7613038940582986439878577004424311309737615170791456916446723479068371769225),\r\n    //         uint256(20435686948508171234472206488737953800505595616105823290561271581793730135986),\r\n    //         uint256(11598511819595573397693757683043215863237090817957830497519701049476846220233),\r\n    //         uint256(20435686948508171234472206488737953800505595616105823290561271581793730135986),\r\n    //         uint256(7613038940582986439878577004424311309737615170791456916446723479068371769225),\r\n    //         uint256(20435686948508171234472206488737953800505595616105823290561271581793730135986),\r\n    //         uint256(7613038940582986439878577004424311309737615170791456916446723479068371769225),\r\n\r\n    //         // poly commitments, Fs\r\n    //         Pairing.G1Point(uint256(20435686948508171234472206488737953800505595616105823290561271581793730135986),\r\n    //             uint256(7613038940582986439878577004424311309737615170791456916446723479068371769225)),\r\n    //         Pairing.G1Point(uint256(20435686948508171234472206488737953800505595616105823290561271581793730135986),\r\n    //             uint256(7613038940582986439878577004424311309737615170791456916446723479068371769225)),\r\n    //         Pairing.G1Point(uint256(20435686948508171234472206488737953800505595616105823290561271581793730135986),\r\n    //             uint256(7613038940582986439878577004424311309737615170791456916446723479068371769225)),\r\n    //         Pairing.G1Point(uint256(20435686948508171234472206488737953800505595616105823290561271581793730135986),\r\n    //             uint256(7613038940582986439878577004424311309737615170791456916446723479068371769225)),\r\n    //         Pairing.G1Point(uint256(20435686948508171234472206488737953800505595616105823290561271581793730135986),\r\n    //             uint256(7613038940582986439878577004424311309737615170791456916446723479068371769225)),\r\n    //         Pairing.G1Point(uint256(20435686948508171234472206488737953800505595616105823290561271581793730135986),\r\n    //             uint256(7613038940582986439878577004424311309737615170791456916446723479068371769225)),\r\n    //         Pairing.G1Point(uint256(20435686948508171234472206488737953800505595616105823290561271581793730135986),\r\n    //             uint256(7613038940582986439878577004424311309737615170791456916446723479068371769225))\r\n    //     ));\r\n    // }\r\n\r\n    // function verifySonicBatchedImpl(\r\n    //     UserCommitments memory cm\r\n    // ) public returns (bool) {\r\n\r\n    //     // simulate calculating kY\r\n    //     // uint256 ky = evalKPoly();\r\n    //     // // // simulate calculating sXY\r\n    //     // uint256 sx = evalXPoly();\r\n    //     // uint256 sy = evalXPoly();\r\n\r\n        \r\n    //     // y^N for halo implementation style\r\n    //     // uint256 y_n = expMod(z, N, BABYJUB_P);\r\n\r\n    //     // t for halo implementation style\r\n    //     // uint256 t = addmod(mulmod(addmod(Proof[6], Proof[9], BABYJUB_P), \r\n    //     //                           addmod(addmod(Proof[12], \r\n    //     //                                         Proof[15], BABYJUB_P), \r\n    //     //                                  evalS, BABYJUB_P), BABYJUB_P),\r\n    //     //                     mulmod((BABYJUB_P - evalK), y_n, BABYJUB_P),\r\n    //     //                     BABYJUB_P);\r\n\r\n    //     // uint256 t = addmod(mulmod(addmod(Proof[6], Proof[9], BABYJUB_P), \r\n    //     //                           addmod(addmod(Proof[12], \r\n    //     //                                         Proof[15], BABYJUB_P), \r\n    //     //                                  evalS, BABYJUB_P), BABYJUB_P),\r\n    //     //                     (BABYJUB_P - evalK), BABYJUB_P);\r\n    //     verification_variables memory vars;\r\n    //     // Z(T / Si)[z] * ^(i-1)\r\n    //     vars.Z_beta_1 = mulmod(1, z_calculation(1), BABYJUB_P); // i = 1,  etc.\r\n    //     vars.Z_beta_2 = mulmod(beta, z_calculation(2), BABYJUB_P);\r\n    //     vars.Z_beta_3 = mulmod(mulmod(vars.Z_beta_2, beta, BABYJUB_P), z_calculation(3), BABYJUB_P);\r\n    //     vars.Z_beta_4 = mulmod(mulmod(vars.Z_beta_3, beta, BABYJUB_P), z_calculation(4), BABYJUB_P);\r\n    //     uint256 Z_beta_5 = mulmod(mulmod(vars.Z_beta_4, beta, BABYJUB_P), z_calculation(5), BABYJUB_P);\r\n    //     uint256 Z_beta_6 = mulmod(mulmod(Z_beta_5, beta, BABYJUB_P), z_calculation(6), BABYJUB_P);\r\n    //     uint256 Z_beta_7 = mulmod(mulmod(Z_beta_6, beta, BABYJUB_P), z_calculation(7), BABYJUB_P);\r\n        \r\n    //     // H calculation\r\n    //     Pairing.G1Point memory H = Pairing.plus(Pairing.plus(Pairing.mulScalar(cm.D, vars.Z_beta_1), Pairing.mulScalar(cm.R_tilde, vars.Z_beta_2)), Pairing.mulScalar(cm.R, vars.Z_beta_3));\r\n    //     H = Pairing.plus(H, Pairing.mulScalar(cm.T, vars.Z_beta_4));\r\n    //     H = Pairing.plus(H, Pairing.mulScalar(cm.K, Z_beta_5));\r\n    //     H = Pairing.plus(H, Pairing.mulScalar(cm.S_x, Z_beta_6));\r\n    //     H = Pairing.plus(H, Pairing.mulScalar(cm.S_y, Z_beta_7));\r\n\r\n    //     // R calculation, denoted  RR because already have a R for one Fcommitment\r\n    //     // first calculate the PI product, and to do this first calculate the power of g after product to reduce gas cost\r\n    //     uint256 power = mulmod(vars.Z_beta_1, BABYJUB_P - cm.gamma1[0], BABYJUB_P);\r\n    //     power = addmod(power, mulmod(vars.Z_beta_2, BABYJUB_P - cm.gamma2[0], BABYJUB_P), BABYJUB_P);\r\n    //     power = addmod(power, mulmod(vars.Z_beta_3, BABYJUB_P - addmod(cm.gamma3[0], mulmod(cm.gamma3[1], z, BABYJUB_P), \r\n    //                                                             BABYJUB_P), BABYJUB_P), BABYJUB_P);\r\n    //     power = addmod(power, mulmod(vars.Z_beta_4, BABYJUB_P - cm.gamma4[0], BABYJUB_P), BABYJUB_P);\r\n    //     // power = addmod(power, mulmod(Z_beta_4, BABYJUB_P - addmod(addmod(gamma4[0], \r\n    //     //                                                                         mulmod(gamma4[1], z, BABYJUB_P), \r\n    //     //                                                                         BABYJUB_P),\r\n    //     //                                                                         mulmod(gamma4[2], \r\n    //     //                                                                         mulmod(z, z, \r\n    //     //                                                                         BABYJUB_P), \r\n    //     //                                                         BABYJUB_P),\r\n    //     //                                                     BABYJUB_P),\r\n    //     //                             BABYJUB_P), BABYJUB_P);\r\n    //     power = addmod(power, mulmod(Z_beta_5, BABYJUB_P - cm.gamma5[0], BABYJUB_P), BABYJUB_P);\r\n    //     power = addmod(power, mulmod(Z_beta_6, BABYJUB_P - addmod(cm.gamma6[0], mulmod(cm.gamma6[1], z, BABYJUB_P), \r\n    //                                                             BABYJUB_P), BABYJUB_P), BABYJUB_P);\r\n    //     power = addmod(power, mulmod(Z_beta_7, BABYJUB_P - cm.gamma7[0], BABYJUB_P), BABYJUB_P);\r\n    //     // calculate the PI product\r\n    //     Pairing.G1Point memory RR = Pairing.mulScalar(Pairing.G1Point(1, 2), power);\r\n\r\n    //     // then add the first item before the uppercase Pi product\r\n    //     //g^p[x]zT[z]\r\n    //     RR = Pairing.plus(RR, Pairing.negate(Pairing.plus(cm.pi_1,\r\n    //                                                     Pairing.mulScalar(Pairing.G1Point(1, 2),\r\n    //                                                                     z_calculation(9)))));\r\n    //     //g^zw[x]\r\n    //     RR = Pairing.plus(RR, Pairing.mulScalar(cm.pi_2, z));\r\n        \r\n    //     // check the equation, then check others\r\n    //     // bool result = Pairing.pairing_3point(\r\n    //     //     H,\r\n    //     //     SRS_G2_1, // h, see above\r\n    //     //     R,\r\n    //     //     t_hxdmax,\r\n    //     //     Pairing.negate(pi_2),\r\n    //     //     t_hxdmaxplusone\r\n    //     //     )\r\n    //     //     && recover(message, sig) == addr //verifySignature\r\n    //     //     && r_1 == addmod(r_tilde, mulmod(d, z_n, BABYJUB_P), BABYJUB_P)\r\n    //     //     && t == addmod(mulmod(r_1, \r\n    //     //                           addmod(r_2,\r\n    //     //                                  s_tilde, BABYJUB_P), BABYJUB_P),\r\n    //     //                     (BABYJUB_P - k), BABYJUB_P)\r\n    //     //     && s_1_tilde == s_2_tilde;\r\n\r\n    //     // temporary code for estimating gas cost, the above is correct version\r\n    //     bool result = Pairing.pairing_3point(\r\n    //         H,\r\n    //         SRS_G2_1,\r\n    //         RR,\r\n    //         t_hxdmax,\r\n    //         Pairing.negate(cm.pi_2),\r\n    //         t_hxdmaxplusone\r\n    //         );\r\n    //     result = recover(cm.message, cm.sig) == cm.addr; //verifySignature\r\n    //     result = cm.r_1 == addmod(cm.r_tilde, mulmod(d, z_n, BABYJUB_P), BABYJUB_P);\r\n    //     result = cm.t == addmod(mulmod(cm.r_1, \r\n    //                               addmod(cm.r_2,\r\n    //                                      cm.s_tilde, BABYJUB_P), BABYJUB_P),\r\n    //                         (BABYJUB_P - cm.k), BABYJUB_P);\r\n    //     result = cm.s_1_tilde == cm.s_2_tilde;\r\n\r\n    //     emit verifyResult(result);\r\n    //     return result;\r\n    // }\r\n    \r\n\r\n    // function z_calculation (uint256 i)\r\n    //                         internal view returns (uint256){\r\n        \r\n    //     uint256 result = 1;\r\n    //     if (i != 1){\r\n    //         result = mulmod(result, addmod(z, BABYJUB_P - [z][0], BABYJUB_P), BABYJUB_P);\r\n    //     }\r\n    //     if (i != 2){\r\n    //         result = mulmod(result, addmod(z, BABYJUB_P - [z][0], BABYJUB_P), BABYJUB_P);\r\n    //     }\r\n    //     if (i != 3){\r\n    //         result = mulmod(mulmod(result, addmod(z, BABYJUB_P - [z, yz][1], BABYJUB_P), BABYJUB_P)\r\n    //                         , addmod(z, BABYJUB_P - [z, yz][0], BABYJUB_P), BABYJUB_P);\r\n    //     }\r\n    //     if (i != 4){\r\n    //         result = mulmod(result, addmod(z, BABYJUB_P - [z][0], BABYJUB_P), BABYJUB_P);\r\n    //         // result = mulmod(mulmod(mulmod(result, addmod(z, BABYJUB_P - [z][2], BABYJUB_P), BABYJUB_P)\r\n    //         //                 , addmod(z, BABYJUB_P - [z][1], BABYJUB_P), BABYJUB_P)\r\n    //         //                 , addmod(z, BABYJUB_P - [z][0], BABYJUB_P), BABYJUB_P);\r\n    //     }\r\n    //     if (i != 5){\r\n    //         result = mulmod(result, addmod(z, BABYJUB_P - [y][0], BABYJUB_P), BABYJUB_P);\r\n    //     }\r\n    //     if (i != 6){\r\n    //         result = mulmod(mulmod(result, addmod(z, BABYJUB_P - [z, 1][1], BABYJUB_P), BABYJUB_P)\r\n    //                         , addmod(z, BABYJUB_P - [z, 1][0], BABYJUB_P), BABYJUB_P);\r\n    //     }\r\n    //     if (i != 7){\r\n    //         result = mulmod(result, addmod(z, BABYJUB_P - [y][0], BABYJUB_P), BABYJUB_P);\r\n    //     }\r\n    //     return result;\r\n    // }\r\n\r\n    /**\r\n     * @dev Recover signer address from a message by using their signature\r\n     * @param hash bytes32 message, the hash is the signed message. What is recovered is the signer address.\r\n     * @param signature bytes signature, the signature is generated using web3.eth.sign()\r\n     */\r\n    function recover(bytes32 hash, bytes memory signature) internal pure returns (address) {\r\n        bytes32 r;\r\n        bytes32 s;\r\n        uint8 _v;\r\n\r\n        // Check the signature length\r\n        if (signature.length != 65) {\r\n            return (address(0));\r\n        }\r\n\r\n        // Divide the signature in r, s and v variables\r\n        // ecrecover takes the signature parameters, and the only way to get them\r\n        // currently is to use assembly.\r\n        // solium-disable-next-line security/no-inline-assembly\r\n        assembly {\r\n            r := mload(add(signature, 32))\r\n            s := mload(add(signature, 64))\r\n            _v := byte(0, mload(add(signature, 96)))\r\n        }\r\n\r\n        // Version of signature should be 27 or 28, but 0 and 1 are also possible versions\r\n        if (_v < 27) {\r\n            _v += 27;\r\n        }\r\n\r\n        // If the version is correct return the signer address\r\n        if (_v != 27 && _v != 28) {\r\n            return (address(0));\r\n        } else {\r\n            // solium-disable-next-line arg-overflow\r\n            return ecrecover(hash, _v, r, s);\r\n        }\r\n    }\r\n\r\n    /**\r\n    * @dev prefix a bytes32 value with \"\\x19Ethereum Signed Message:\" and hash the result\r\n    */\r\n    function ethMessageHash(string memory rawCommitment) internal pure returns (bytes32) {\r\n        return keccak256(\r\n            abi.encodePacked(\"\\x19Ethereum Signed Message:\\n32\", keccak256(abi.encodePacked(rawCommitment)))\r\n        );\r\n    }\r\n\r\n\r\n    //     /*\r\n    //  * @return The polynominal evaluation of a polynominal with the specified\r\n    //  *         coefficients at the given index.\r\n    //  */\r\n    //  function evalPoly() public view returns (uint256) {\r\n\r\n    //     uint baseOrder = 204;\r\n    //     uint length = 64;\r\n    //     uint256 _index = y;\r\n    //     uint256 m = BABYJUB_P;\r\n    //     uint256 result = 0;\r\n    //     uint256 powerOfX = 1;\r\n\r\n    //     for (uint256 i = 0; i < length; i ++) {\r\n    //         assembly {\r\n    //             result:= addmod(result, mulmod(powerOfX, i, m), m)\r\n    //             powerOfX := mulmod(powerOfX, i, m)\r\n    //         }\r\n    //     }\r\n    //     uint256 basePower = invMod(expMod(_index, baseOrder, m), m);\r\n    //     result = mulmod(basePower, result, m);\r\n\r\n    //     return result;\r\n    // }\r\n\r\n    /// @dev Modular euclidean inverse of a number (mod p).\r\n    /// @param _x The number\r\n    /// @param _pp The modulus\r\n    /// @return q such that x*q = 1 (mod _pp)\r\n    // function invMod(uint256 _x, uint256 _pp) internal pure returns (uint256) {\r\n    //     require(_x != 0 && _x != _pp && _pp != 0, \"Invalid number\");\r\n    //     uint256 q = 0;\r\n    //     uint256 newT = 1;\r\n    //     uint256 r = _pp;\r\n    //     uint256 t;\r\n    //     while (_x != 0) {\r\n    //     t = r / _x;\r\n    //     (q, newT) = (newT, addmod(q, (_pp - mulmod(t, newT, _pp)), _pp));\r\n    //     (r, _x) = (_x, r - t * _x);\r\n    //     }\r\n\r\n    //     return q;\r\n    // }\r\n\r\n    /// @dev Modular exponentiation, b^e % _pp.\r\n    /// Source: https://github.com/androlo/standard-contracts/blob/master/contracts/src/crypto/ECCMath.sol\r\n    /// @param _base base\r\n    /// @param _exp exponent\r\n    /// @param _pp modulus\r\n    /// @return r such that r = b**e (mod _pp)\r\n    function expMod(uint256 _base, uint256 _exp, uint256 _pp) internal pure returns (uint256) {\r\n        require(_pp!=0, \"Modulus is zero\");\r\n\r\n        if (_base == 0)\r\n        return 0;\r\n        if (_exp == 0)\r\n        return 1;\r\n\r\n        uint256 r = 1;\r\n        uint256 bit = 57896044618658097711785492504343953926634992332820282019728792003956564819968; // 2 ^ 255\r\n        assembly {\r\n        for { } gt(bit, 0) { }{\r\n            // a touch of loop unrolling for 20% efficiency gain\r\n            r := mulmod(mulmod(r, r, _pp), exp(_base, iszero(iszero(and(_exp, bit)))), _pp)\r\n            r := mulmod(mulmod(r, r, _pp), exp(_base, iszero(iszero(and(_exp, div(bit, 2))))), _pp)\r\n            r := mulmod(mulmod(r, r, _pp), exp(_base, iszero(iszero(and(_exp, div(bit, 4))))), _pp)\r\n            r := mulmod(mulmod(r, r, _pp), exp(_base, iszero(iszero(and(_exp, div(bit, 8))))), _pp)\r\n            bit := div(bit, 16)\r\n        }\r\n        }\r\n\r\n        return r;\r\n    }\r\n    \r\n\r\n}",
  "sourcePath": "D:\\homework\\sonic\\src\\verifier\\contracts\\Verifier.sol",
  "compiler": {
    "name": "solc",
    "version": "0.8.13+commit.abaa5c0e.Emscripten.clang"
  },
  "schemaVersion": "3.4.8",
  "updatedAt": "2023-02-26T09:55:42.899Z",
  "networkType": "ethereum",
  "devdoc": {
    "kind": "dev",
    "methods": {},
    "version": 1
  },
  "userdoc": {
    "kind": "user",
    "methods": {},
    "version": 1
  }
}