{
  "contractName": "Verifier",
  "abi": [
    {
      "anonymous": false,
      "inputs": [
        {
          "indexed": false,
          "internalType": "bool",
          "name": "result",
          "type": "bool"
        }
      ],
      "name": "verifyResult",
      "type": "event"
    },
    {
      "inputs": [],
      "name": "verifySonicBatched",
      "outputs": [
        {
          "internalType": "bool",
          "name": "",
          "type": "bool"
        }
      ],
      "stateMutability": "nonpayable",
      "type": "function"
    }
  ],
  "bytecode": "0x6080604052604051806040016040528060405180604001604052807f198e9393920d483a7260bfb731fb5d25f1aa493335a9e71297e485b7aef312c281526020017f1800deef121f1e76426a00665e5c4479674322d4f75edadd46debd5cd992f6ed815250815260200160405180604001604052807f090689d0585ff075ec9e99ad690c3395bc4b313370b38ef355acdadcd122975b81526020017f12c85ea5db8c6deb4aab71808dcb408fe3d1e7690c43d37b4ce6cc0166fa7daa81525081525060008082015181600001906002620000db92919062000ea1565b50602082015181600201906002620000f592919062000ea1565b505050604051806040016040528060405180604001604052807f198e9393920d483a7260bfb731fb5d25f1aa493335a9e71297e485b7aef312c281526020017f1800deef121f1e76426a00665e5c4479674322d4f75edadd46debd5cd992f6ed815250815260200160405180604001604052807f090689d0585ff075ec9e99ad690c3395bc4b313370b38ef355acdadcd122975b81526020017f12c85ea5db8c6deb4aab71808dcb408fe3d1e7690c43d37b4ce6cc0166fa7daa8152508152506004600082015181600001906002620001d092919062000ea1565b50602082015181600201906002620001ea92919062000ea1565b505050604051806040016040528060405180604001604052807f21a808dad5c50720fb7294745cf4c87812ce0ea76baa7df4e922615d1388f25a81526020017f04c5e74c85a87f008a2feb4b5c8a1e7f9ba9d8eb40eb02e70139c89fb1c505a9815250815260200160405180604001604052807f204b66d8e1fadc307c35187a6b813be0b46ba1cd720cd1c4ee5f68d13036b4ba81526020017f2d58022915fc6bc90e036e858fbc98055084ac7aff98ccceb0e3fde64bc1a0848152508152506008600082015181600001906002620002c592919062000ea1565b50602082015181600201906002620002df92919062000ea1565b505050604051806040016040528060405180604001604052807f198e9393920d483a7260bfb731fb5d25f1aa493335a9e71297e485b7aef312c281526020017f1800deef121f1e76426a00665e5c4479674322d4f75edadd46debd5cd992f6ed815250815260200160405180604001604052807f090689d0585ff075ec9e99ad690c3395bc4b313370b38ef355acdadcd122975b81526020017f12c85ea5db8c6deb4aab71808dcb408fe3d1e7690c43d37b4ce6cc0166fa7daa815250815250600c600082015181600001906002620003ba92919062000ea1565b50602082015181600201906002620003d492919062000ea1565b505050604051806040016040528060405180604001604052807f198e9393920d483a7260bfb731fb5d25f1aa493335a9e71297e485b7aef312c281526020017f1800deef121f1e76426a00665e5c4479674322d4f75edadd46debd5cd992f6ed815250815260200160405180604001604052807f090689d0585ff075ec9e99ad690c3395bc4b313370b38ef355acdadcd122975b81526020017f12c85ea5db8c6deb4aab71808dcb408fe3d1e7690c43d37b4ce6cc0166fa7daa8152508152506010600082015181600001906002620004af92919062000ea1565b50602082015181600201906002620004c992919062000ea1565b505050620004f66040518060c00160405280609a8152602001620033d3609a913962000d2060201b60201c565b6014556040518060800160405280604181526020016200346d60419139601590805190602001906200052a92919062000ee6565b5073e448992fdeaf94784bbd8f432d781c061d907985601660006101000a81548173ffffffffffffffffffffffffffffffffffffffff021916908373ffffffffffffffffffffffffffffffffffffffff1602179055507f2d2e305d3ab2dc6e0081ffcf4a701f924a1a7296cdc32046c10c0b6f992387b26017557f30644e72e131a029b85045b68181585d2833e84879b9709143e1f593f000000180620005d657620005d562000ff5565b5b601954601a54096018557f2f0ed729a52c3cf5d51e5e6d8e737f79e5d99150f7b9b63f3dd38704f9d8ef266019557f2f376e28777cfe34cf077eba864c462fd6efbfe4d3f6af17768ef2ed4f829ddd601a557f2f17797aa9b5b553209d135cdd69146128b9841e82c8b01e3f3a07d1e3714dc9601b556040518060200160405280601954815250601c9060016200066f92919062000f77565b506040518060200160405280601954815250601d9060016200069392919062000f77565b5060405180604001604052806019548152602001601854815250601e906002620006bf92919062000ea1565b5060405180602001604052806019548152506020906001620006e392919062000f77565b506040518060200160405280601a5481525060219060016200070792919062000f77565b5060405180604001604052806019548152602001600181525060229060026200073292919062000ea1565b506040518060200160405280601a5481525060249060016200075692919062000f77565b50604051806020016040528060195481525060259060016200077a92919062000f77565b50604051806020016040528060195481525060269060016200079e92919062000f77565b50604051806040016040528060195481526020016018548152506027906002620007ca92919062000ea1565b5060405180602001604052806019548152506029906001620007ee92919062000f77565b506040518060200160405280601954815250602a9060016200081292919062000f77565b50604051806040016040528060195481526020016001815250602b9060026200083d92919062000ea1565b506040518060200160405280601954815250602d9060016200086192919062000f77565b506200087262000d7a60201b60201c565b602e600082015181600001556020820151816001015550506200089a62000d7a60201b60201c565b6030600082015181600001556020820151816001015550506015603255620008ee6019546032547f30644e72e131a029b85045b68181585d2833e84879b9709143e1f593f000000162000da060201b60201c565b6033557f2d2e305d3ab2dc6e0081ffcf4a701f924a1a7296cdc32046c10c0b6f992387b26034557f10d4d3cca369c48670346ef36c6739e885bb11b52038a89c706aacfb7d72d7896035557f2d2e305d3ab2dc6e0081ffcf4a701f924a1a7296cdc32046c10c0b6f992387b26036557f19a48669ccf72c593144962560f593b667daa2052d1cdcc2500bb3b003c073c96037557f2d2e305d3ab2dc6e0081ffcf4a701f924a1a7296cdc32046c10c0b6f992387b26038557f10d4d3cca369c48670346ef36c6739e885bb11b52038a89c706aacfb7d72d7896039557f2d2e305d3ab2dc6e0081ffcf4a701f924a1a7296cdc32046c10c0b6f992387b2603a557f10d4d3cca369c48670346ef36c6739e885bb11b52038a89c706aacfb7d72d789603b5560405180604001604052807f2d2e305d3ab2dc6e0081ffcf4a701f924a1a7296cdc32046c10c0b6f992387b281526020017f10d4d3cca369c48670346ef36c6739e885bb11b52038a89c706aacfb7d72d789815250603c6000820151816000015560208201518160010155505060405180604001604052807f2d2e305d3ab2dc6e0081ffcf4a701f924a1a7296cdc32046c10c0b6f992387b281526020017f10d4d3cca369c48670346ef36c6739e885bb11b52038a89c706aacfb7d72d789815250603e6000820151816000015560208201518160010155505060405180604001604052807f2d2e305d3ab2dc6e0081ffcf4a701f924a1a7296cdc32046c10c0b6f992387b281526020017f10d4d3cca369c48670346ef36c6739e885bb11b52038a89c706aacfb7d72d78981525060406000820151816000015560208201518160010155505060405180604001604052807f2d2e305d3ab2dc6e0081ffcf4a701f924a1a7296cdc32046c10c0b6f992387b281526020017f10d4d3cca369c48670346ef36c6739e885bb11b52038a89c706aacfb7d72d78981525060426000820151816000015560208201518160010155505060405180604001604052807f2d2e305d3ab2dc6e0081ffcf4a701f924a1a7296cdc32046c10c0b6f992387b281526020017f10d4d3cca369c48670346ef36c6739e885bb11b52038a89c706aacfb7d72d78981525060446000820151816000015560208201518160010155505060405180604001604052807f2d2e305d3ab2dc6e0081ffcf4a701f924a1a7296cdc32046c10c0b6f992387b281526020017f10d4d3cca369c48670346ef36c6739e885bb11b52038a89c706aacfb7d72d78981525060466000820151816000015560208201518160010155505060405180604001604052807f2d2e305d3ab2dc6e0081ffcf4a701f924a1a7296cdc32046c10c0b6f992387b281526020017f10d4d3cca369c48670346ef36c6739e885bb11b52038a89c706aacfb7d72d78981525060486000820151816000015560208201518160010155505034801562000d1957600080fd5b5062001250565b60008160405160200162000d359190620010a7565b6040516020818303038152906040528051906020012060405160200162000d5d91906200113f565b604051602081830303815290604052805190602001209050919050565b62000d8462000fbc565b6040518060400160405280600181526020016002815250905090565b600080820362000de7576040517f08c379a000000000000000000000000000000000000000000000000000000000815260040162000dde90620011ca565b60405180910390fd5b6000840362000dfa576000905062000e9a565b6000830362000e0d576001905062000e9a565b60006001905060007f800000000000000000000000000000000000000000000000000000000000000090505b600081111562000e9457838186161515870a85848509099150836002820486161515870a85848509099150836004820486161515870a85848509099150836008820486161515870a8584850909915060108104905062000e39565b81925050505b9392505050565b826002810192821562000ed3579160200282015b8281111562000ed257825182559160200191906001019062000eb5565b5b50905062000ee2919062000fd6565b5090565b82805462000ef4906200121b565b90600052602060002090601f01602090048101928262000f18576000855562000f64565b82601f1062000f3357805160ff191683800117855562000f64565b8280016001018555821562000f64579182015b8281111562000f6357825182559160200191906001019062000f46565b5b50905062000f73919062000fd6565b5090565b826001810192821562000fa9579160200282015b8281111562000fa857825182559160200191906001019062000f8b565b5b50905062000fb8919062000fd6565b5090565b604051806040016040528060008152602001600081525090565b5b8082111562000ff157600081600090555060010162000fd7565b5090565b7f4e487b7100000000000000000000000000000000000000000000000000000000600052601260045260246000fd5b600081519050919050565b600081905092915050565b60005b838110156200105a5780820151818401526020810190506200103d565b838111156200106a576000848401525b50505050565b60006200107d8262001024565b6200108981856200102f565b93506200109b8185602086016200103a565b80840191505092915050565b6000620010b5828462001070565b915081905092915050565b7f19457468657265756d205369676e6564204d6573736167653a0a333200000000600082015250565b6000620010f8601c836200102f565b91506200110582620010c0565b601c82019050919050565b6000819050919050565b6000819050919050565b62001139620011338262001110565b6200111a565b82525050565b60006200114c82620010e9565b91506200115a828462001124565b60208201915081905092915050565b600082825260208201905092915050565b7f4d6f64756c7573206973207a65726f0000000000000000000000000000000000600082015250565b6000620011b2600f8362001169565b9150620011bf826200117a565b602082019050919050565b60006020820190508181036000830152620011e581620011a3565b9050919050565b7f4e487b7100000000000000000000000000000000000000000000000000000000600052602260045260246000fd5b600060028204905060018216806200123457607f821691505b6020821081036200124a5762001249620011ec565b5b50919050565b61217380620012606000396000f3fe608060405234801561001057600080fd5b506004361061002b5760003560e01c80632d88635414610030575b600080fd5b61003861004e565b6040516100459190611c99565b60405180910390f35b600080600190506000601b54905060007f30644e72e131a029b85045b68181585d2833e84879b9709143e1f593f00000018061008d5761008c611cb4565b5b601b548309905060007f30644e72e131a029b85045b68181585d2833e84879b9709143e1f593f0000001806100c5576100c4611cb4565b5b601b548309905060007f30644e72e131a029b85045b68181585d2833e84879b9709143e1f593f0000001806100fd576100fc611cb4565b5b601b548309905060007f30644e72e131a029b85045b68181585d2833e84879b9709143e1f593f00000018061013557610134611cb4565b5b601b548309905060007f30644e72e131a029b85045b68181585d2833e84879b9709143e1f593f00000018061016d5761016c611cb4565b5b601b54830990507f30644e72e131a029b85045b68181585d2833e84879b9709143e1f593f0000001806101a3576101a2611cb4565b5b6101ad6001610eda565b880996507f30644e72e131a029b85045b68181585d2833e84879b9709143e1f593f0000001806101e0576101df611cb4565b5b6101ea6002610eda565b870995507f30644e72e131a029b85045b68181585d2833e84879b9709143e1f593f00000018061021d5761021c611cb4565b5b6102276003610eda565b860994507f30644e72e131a029b85045b68181585d2833e84879b9709143e1f593f00000018061025a57610259611cb4565b5b6102646004610eda565b850993507f30644e72e131a029b85045b68181585d2833e84879b9709143e1f593f00000018061029757610296611cb4565b5b6102a16005610eda565b840992507f30644e72e131a029b85045b68181585d2833e84879b9709143e1f593f0000001806102d4576102d3611cb4565b5b6102de6006610eda565b830991507f30644e72e131a029b85045b68181585d2833e84879b9709143e1f593f00000018061031157610310611cb4565b5b61031b6007610eda565b82099050600061034b603c604051806040016040529081600082015481526020016001820154815250508961150b565b90506103808161037b603e604051806040016040529081600082015481526020016001820154815250508a61150b565b6115e3565b90506103b4816103af60408051806040016040529081600082015481526020016001820154815250508961150b565b6115e3565b90506103e9816103e46042604051806040016040529081600082015481526020016001820154815250508861150b565b6115e3565b905061041e816104196044604051806040016040529081600082015481526020016001820154815250508761150b565b6115e3565b90506104538161044e6046604051806040016040529081600082015481526020016001820154815250508661150b565b6115e3565b9050610488816104836048604051806040016040529081600082015481526020016001820154815250508561150b565b6115e3565b905060007f30644e72e131a029b85045b68181585d2833e84879b9709143e1f593f0000001806104bb576104ba611cb4565b5b60256000600181106104d0576104cf611ce3565b5b01547f30644e72e131a029b85045b68181585d2833e84879b9709143e1f593f00000016104fd9190611d4b565b8a0990507f30644e72e131a029b85045b68181585d2833e84879b9709143e1f593f0000001806105305761052f611cb4565b5b602660006001811061054557610544611ce3565b5b01547f30644e72e131a029b85045b68181585d2833e84879b9709143e1f593f00000016105729190611d4b565b890990507f30644e72e131a029b85045b68181585d2833e84879b9709143e1f593f0000001806105a5576105a4611cb4565b5b7f30644e72e131a029b85045b68181585d2833e84879b9709143e1f593f0000001806105d4576105d3611cb4565b5b7f30644e72e131a029b85045b68181585d2833e84879b9709143e1f593f00000018061060357610602611cb4565b5b7f30644e72e131a029b85045b68181585d2833e84879b9709143e1f593f00000018061063257610631611cb4565b5b601954602760016002811061064a57610649611ce3565b5b015409602760006002811061066257610661611ce3565b5b0154087f30644e72e131a029b85045b68181585d2833e84879b9709143e1f593f00000016106909190611d4b565b8909820890507f30644e72e131a029b85045b68181585d2833e84879b9709143e1f593f0000001806106c5576106c4611cb4565b5b7f30644e72e131a029b85045b68181585d2833e84879b9709143e1f593f0000001806106f4576106f3611cb4565b5b602960006001811061070957610708611ce3565b5b01547f30644e72e131a029b85045b68181585d2833e84879b9709143e1f593f00000016107369190611d4b565b8809820890507f30644e72e131a029b85045b68181585d2833e84879b9709143e1f593f00000018061076b5761076a611cb4565b5b7f30644e72e131a029b85045b68181585d2833e84879b9709143e1f593f00000018061079a57610799611cb4565b5b602a6000600181106107af576107ae611ce3565b5b01547f30644e72e131a029b85045b68181585d2833e84879b9709143e1f593f00000016107dc9190611d4b565b8709820890507f30644e72e131a029b85045b68181585d2833e84879b9709143e1f593f00000018061081157610810611cb4565b5b7f30644e72e131a029b85045b68181585d2833e84879b9709143e1f593f0000001806108405761083f611cb4565b5b7f30644e72e131a029b85045b68181585d2833e84879b9709143e1f593f00000018061086f5761086e611cb4565b5b7f30644e72e131a029b85045b68181585d2833e84879b9709143e1f593f00000018061089e5761089d611cb4565b5b601954602b6001600281106108b6576108b5611ce3565b5b015409602b6000600281106108ce576108cd611ce3565b5b0154087f30644e72e131a029b85045b68181585d2833e84879b9709143e1f593f00000016108fc9190611d4b565b8609820890507f30644e72e131a029b85045b68181585d2833e84879b9709143e1f593f00000018061093157610930611cb4565b5b7f30644e72e131a029b85045b68181585d2833e84879b9709143e1f593f0000001806109605761095f611cb4565b5b602d60006001811061097557610974611ce3565b5b01547f30644e72e131a029b85045b68181585d2833e84879b9709143e1f593f00000016109a29190611d4b565b85098208905060006109bb6109b56116e1565b8361150b565b9050610a1181610a0c610a07602e60405180604001604052908160008201548152602001600182015481525050610a026109f36116e1565b6109fd6009610eda565b61150b565b6115e3565b611705565b6115e3565b9050610a4881610a4360306040518060400160405290816000820154815260200160018201548152505060195461150b565b6115e3565b90506000610c6384600860405180604001604052908160008201600280602002604051908101604052809291908260028015610a99576020028201915b815481526020019060010190808311610a85575b5050505050815260200160028201600280602002604051908101604052809291908260028015610ade576020028201915b815481526020019060010190808311610aca575b5050505050815250506040805180604001604052908160008201548152602001600182015481525050600060405180604001604052908160008201600280602002604051908101604052809291908260028015610b50576020028201915b815481526020019060010190808311610b3c575b5050505050815260200160028201600280602002604051908101604052809291908260028015610b95576020028201915b815481526020019060010190808311610b81575b505050505081525050610bc7603060405180604001604052908160008201548152602001600182015481525050611705565b600460405180604001604052908160008201600280602002604051908101604052809291908260028015610c10576020028201915b815481526020019060010190808311610bfc575b5050505050815260200160028201600280602002604051908101604052809291908260028015610c55576020028201915b815481526020019060010190808311610c41575b5050505050815250506117c3565b9050601660009054906101000a900473ffffffffffffffffffffffffffffffffffffffff1673ffffffffffffffffffffffffffffffffffffffff16610d3460145460158054610cb190611dae565b80601f0160208091040260200160405190810160405280929190818152602001828054610cdd90611dae565b8015610d2a5780601f10610cff57610100808354040283529160200191610d2a565b820191906000526020600020905b815481529060010190602001808311610d0d57829003601f168201915b5050505050611b2b565b73ffffffffffffffffffffffffffffffffffffffff161490507f30644e72e131a029b85045b68181585d2833e84879b9709143e1f593f000000180610d7c57610d7b611cb4565b5b7f30644e72e131a029b85045b68181585d2833e84879b9709143e1f593f000000180610dab57610daa611cb4565b5b60335460175409603554086034541490507f30644e72e131a029b85045b68181585d2833e84879b9709143e1f593f000000180610deb57610dea611cb4565b5b6037547f30644e72e131a029b85045b68181585d2833e84879b9709143e1f593f0000001610e199190611d4b565b7f30644e72e131a029b85045b68181585d2833e84879b9709143e1f593f000000180610e4857610e47611cb4565b5b7f30644e72e131a029b85045b68181585d2833e84879b9709143e1f593f000000180610e7757610e76611cb4565b5b603854603954086034540908603654149050603b54603a541490507f9ebf19a79884326bf6ddfcf4bd501eb6a52b40414ecd5d8a70514f606810801e81604051610ec19190611c99565b60405180910390a1809b50505050505050505050505090565b6000806001905060018314610f92577f30644e72e131a029b85045b68181585d2833e84879b9709143e1f593f000000180610f1857610f17611cb4565b5b7f30644e72e131a029b85045b68181585d2833e84879b9709143e1f593f000000180610f4757610f46611cb4565b5b601c600060018110610f5c57610f5b611ce3565b5b01547f30644e72e131a029b85045b68181585d2833e84879b9709143e1f593f0000001610f899190611d4b565b60195408820990505b60028314611043577f30644e72e131a029b85045b68181585d2833e84879b9709143e1f593f000000180610fc957610fc8611cb4565b5b7f30644e72e131a029b85045b68181585d2833e84879b9709143e1f593f000000180610ff857610ff7611cb4565b5b601d60006001811061100d5761100c611ce3565b5b01547f30644e72e131a029b85045b68181585d2833e84879b9709143e1f593f000000161103a9190611d4b565b60195408820990505b60038314611199577f30644e72e131a029b85045b68181585d2833e84879b9709143e1f593f00000018061107a57611079611cb4565b5b7f30644e72e131a029b85045b68181585d2833e84879b9709143e1f593f0000001806110a9576110a8611cb4565b5b601e6000600281106110be576110bd611ce3565b5b01547f30644e72e131a029b85045b68181585d2833e84879b9709143e1f593f00000016110eb9190611d4b565b601954087f30644e72e131a029b85045b68181585d2833e84879b9709143e1f593f00000018061111e5761111d611cb4565b5b7f30644e72e131a029b85045b68181585d2833e84879b9709143e1f593f00000018061114d5761114c611cb4565b5b601e60016002811061116257611161611ce3565b5b01547f30644e72e131a029b85045b68181585d2833e84879b9709143e1f593f000000161118f9190611d4b565b6019540884090990505b6004831461124a577f30644e72e131a029b85045b68181585d2833e84879b9709143e1f593f0000001806111d0576111cf611cb4565b5b7f30644e72e131a029b85045b68181585d2833e84879b9709143e1f593f0000001806111ff576111fe611cb4565b5b602060006001811061121457611213611ce3565b5b01547f30644e72e131a029b85045b68181585d2833e84879b9709143e1f593f00000016112419190611d4b565b60195408820990505b600583146112fb577f30644e72e131a029b85045b68181585d2833e84879b9709143e1f593f00000018061128157611280611cb4565b5b7f30644e72e131a029b85045b68181585d2833e84879b9709143e1f593f0000001806112b0576112af611cb4565b5b60216000600181106112c5576112c4611ce3565b5b01547f30644e72e131a029b85045b68181585d2833e84879b9709143e1f593f00000016112f29190611d4b565b60195408820990505b60068314611451577f30644e72e131a029b85045b68181585d2833e84879b9709143e1f593f00000018061133257611331611cb4565b5b7f30644e72e131a029b85045b68181585d2833e84879b9709143e1f593f00000018061136157611360611cb4565b5b602260006002811061137657611375611ce3565b5b01547f30644e72e131a029b85045b68181585d2833e84879b9709143e1f593f00000016113a39190611d4b565b601954087f30644e72e131a029b85045b68181585d2833e84879b9709143e1f593f0000001806113d6576113d5611cb4565b5b7f30644e72e131a029b85045b68181585d2833e84879b9709143e1f593f00000018061140557611404611cb4565b5b602260016002811061141a57611419611ce3565b5b01547f30644e72e131a029b85045b68181585d2833e84879b9709143e1f593f00000016114479190611d4b565b6019540884090990505b60078314611502577f30644e72e131a029b85045b68181585d2833e84879b9709143e1f593f00000018061148857611487611cb4565b5b7f30644e72e131a029b85045b68181585d2833e84879b9709143e1f593f0000001806114b7576114b6611cb4565b5b60246000600181106114cc576114cb611ce3565b5b01547f30644e72e131a029b85045b68181585d2833e84879b9709143e1f593f00000016114f99190611d4b565b60195408820990505b80915050919050565b611513611bfe565b61151b611c18565b83600001518160006003811061153457611533611ce3565b5b60200201818152505083602001518160016003811061155657611555611ce3565b5b602002018181525050828160026003811061157457611573611ce3565b5b602002018181525050600060608360808460076107d05a03fa9050806000810361159a57fe5b50806115db576040517f08c379a00000000000000000000000000000000000000000000000000000000081526004016115d290611e3c565b60405180910390fd5b505092915050565b6115eb611bfe565b6115f3611c3a565b83600001518160006004811061160c5761160b611ce3565b5b60200201818152505083602001518160016004811061162e5761162d611ce3565b5b6020020181815250508260000151816002600481106116505761164f611ce3565b5b60200201818152505082602001518160036004811061167257611671611ce3565b5b602002018181525050600060608360c08460066107d05a03fa9050806000810361169857fe5b50806116d9576040517f08c379a00000000000000000000000000000000000000000000000000000000081526004016116d090611ea8565b60405180910390fd5b505092915050565b6116e9611bfe565b6040518060400160405280600181526020016002815250905090565b61170d611bfe565b60008260000151148015611725575060008260200151145b1561174857604051806040016040528060008152602001600081525090506117be565b6040518060400160405280836000015181526020017f30644e72e131a029b85045b68181585d97816a916871ca8d3c208c16d87cfd47846020015161178d9190611ec8565b7f30644e72e131a029b85045b68181585d97816a916871ca8d3c208c16d87cfd476117b89190611d4b565b81525090505b919050565b60008060405180606001604052808981526020018781526020018581525090506000604051806060016040528089815260200187815260200185815250905060006012905060008167ffffffffffffffff81111561182457611823611ef9565b5b6040519080825280602002602001820160405280156118525781602001602082028036833780820191505090505b50905060005b6003811015611a905760006006826118709190611f28565b905085826003811061188557611884611ce3565b5b6020020151600001518360008361189c9190611f82565b815181106118ad576118ac611ce3565b5b6020026020010181815250508582600381106118cc576118cb611ce3565b5b602002015160200151836001836118e39190611f82565b815181106118f4576118f3611ce3565b5b60200260200101818152505084826003811061191357611912611ce3565b5b60200201516000015160006002811061192f5761192e611ce3565b5b6020020151836002836119429190611f82565b8151811061195357611952611ce3565b5b60200260200101818152505084826003811061197257611971611ce3565b5b60200201516000015160016002811061198e5761198d611ce3565b5b6020020151836003836119a19190611f82565b815181106119b2576119b1611ce3565b5b6020026020010181815250508482600381106119d1576119d0611ce3565b5b6020020151602001516000600281106119ed576119ec611ce3565b5b602002015183600483611a009190611f82565b81518110611a1157611a10611ce3565b5b602002602001018181525050848260038110611a3057611a2f611ce3565b5b602002015160200151600160028110611a4c57611a4b611ce3565b5b602002015183600583611a5f9190611f82565b81518110611a7057611a6f611ce3565b5b602002602001018181525050508080611a8890611fd8565b915050611858565b50611a99611c5c565b6000602082602086026020860160086107d05a03fa90508060008103611abb57fe5b5080611afc576040517f08c379a0000000000000000000000000000000000000000000000000000000008152600401611af39061206c565b60405180910390fd5b600082600060018110611b1257611b11611ce3565b5b6020020151141596505050505050509695505050505050565b6000806000806041855114611b465760009350505050611bf8565b6020850151925060408501519150606085015160001a9050601b8160ff161015611b7a57601b81611b779190612099565b90505b601b8160ff1614158015611b925750601c8160ff1614155b15611ba35760009350505050611bf8565b60018682858560405160008152602001604052604051611bc694939291906120f8565b6020604051602081039080840390855afa158015611be8573d6000803e3d6000fd5b5050506020604051035193505050505b92915050565b604051806040016040528060008152602001600081525090565b6040518060600160405280600390602082028036833780820191505090505090565b6040518060800160405280600490602082028036833780820191505090505090565b6040518060200160405280600190602082028036833780820191505090505090565b60008115159050919050565b611c9381611c7e565b82525050565b6000602082019050611cae6000830184611c8a565b92915050565b7f4e487b7100000000000000000000000000000000000000000000000000000000600052601260045260246000fd5b7f4e487b7100000000000000000000000000000000000000000000000000000000600052603260045260246000fd5b6000819050919050565b7f4e487b7100000000000000000000000000000000000000000000000000000000600052601160045260246000fd5b6000611d5682611d12565b9150611d6183611d12565b925082821015611d7457611d73611d1c565b5b828203905092915050565b7f4e487b7100000000000000000000000000000000000000000000000000000000600052602260045260246000fd5b60006002820490506001821680611dc657607f821691505b602082108103611dd957611dd8611d7f565b5b50919050565b600082825260208201905092915050565b7f70616972696e672d6d756c2d6661696c65640000000000000000000000000000600082015250565b6000611e26601283611ddf565b9150611e3182611df0565b602082019050919050565b60006020820190508181036000830152611e5581611e19565b9050919050565b7f70616972696e672d6164642d6661696c65640000000000000000000000000000600082015250565b6000611e92601283611ddf565b9150611e9d82611e5c565b602082019050919050565b60006020820190508181036000830152611ec181611e85565b9050919050565b6000611ed382611d12565b9150611ede83611d12565b925082611eee57611eed611cb4565b5b828206905092915050565b7f4e487b7100000000000000000000000000000000000000000000000000000000600052604160045260246000fd5b6000611f3382611d12565b9150611f3e83611d12565b9250817fffffffffffffffffffffffffffffffffffffffffffffffffffffffffffffffff0483118215151615611f7757611f76611d1c565b5b828202905092915050565b6000611f8d82611d12565b9150611f9883611d12565b9250827fffffffffffffffffffffffffffffffffffffffffffffffffffffffffffffffff03821115611fcd57611fcc611d1c565b5b828201905092915050565b6000611fe382611d12565b91507fffffffffffffffffffffffffffffffffffffffffffffffffffffffffffffffff820361201557612014611d1c565b5b600182019050919050565b7f70616972696e672d6f70636f64652d6661696c65640000000000000000000000600082015250565b6000612056601583611ddf565b915061206182612020565b602082019050919050565b6000602082019050818103600083015261208581612049565b9050919050565b600060ff82169050919050565b60006120a48261208c565b91506120af8361208c565b92508260ff038211156120c5576120c4611d1c565b5b828201905092915050565b6000819050919050565b6120e3816120d0565b82525050565b6120f28161208c565b82525050565b600060808201905061210d60008301876120da565b61211a60208301866120e9565b61212760408301856120da565b61213460608301846120da565b9594505050505056fea26469706673582212201c808ee36e84a98bcb9b7fa2c928077af6652a41a3902f44313a86a88104cfae64736f6c634300080d003332303930303432393839393239313030393037333239393238393436393636303134393731363738353539363235313439313330303639323033353638313439323031363933393137393235372c2034333336393130323335363836393631353338323835393936353237323731373734393336373139303538383334353439353338363836303430373438373135323833383132323030393719ec5dc5aa05a220cd210a113352596ebf80d06a6f776b8e0c656e50a5c5567f1e8a7f23fb27f77ea5b5d42f0e2384facdebebd85f026e2a73e94d4690a40a6801",
  "immutableReferences": {},
  "source": "// Modified from https://github.com/appliedzkp/semaphore/blob/master/contracts/sol/verifier.sol\r\n// SPDX-License-Identifier: MIT\r\n\r\n// please notice that current code may be temporary code for cost estimation, and right version is annotated\r\n\r\npragma solidity >=0.4.22 <0.9.0;\r\npragma experimental ABIEncoderV2;\r\nimport \"./Pairing.sol\";\r\n// import \"./PolyCoeff.sol\";\r\nimport { Constants } from \"./Constants.sol\";\r\n// import \"@openzeppelin/contracts/utils/Strings.sol\";\r\n\r\ncontract Verifier is Constants {\r\n\r\n    using Pairing for *;\r\n\r\n    event verifyResult(bool result);\r\n\r\n    // ECDSA signature\r\n    bytes32 message = ethMessageHash(\"20900429899291009073299289469660149716785596251491300692035681492016939179257, 433691023568696153828599652727177493671905883454953868604074871528381220097\");\r\n    bytes sig = hex\"19ec5dc5aa05a220cd210a113352596ebf80d06a6f776b8e0c656e50a5c5567f1e8a7f23fb27f77ea5b5d42f0e2384facdebebd85f026e2a73e94d4690a40a6801\";\r\n    address addr = 0xE448992FdEaF94784bBD8f432d781C061D907985;\r\n\r\n    // d_j when j=1\r\n    uint256 d = uint256(20435686948508171234472206488737953800505595616105823290561271581793730135986);\r\n    uint256 yz = mulmod(y, z, Pairing.BABYJUB_P);\r\n    uint256 z = uint256(21284924740537517593391635090683107806948436131904811688892120057033464016678);\r\n    uint256 y = uint256(21356640755055926883299664242251323519715676831624930462071588778907420237277);\r\n    uint256 beta = uint256(21300179784197405894513072539865320928097398620497813074953097024203243212233);\r\n    // S\r\n    uint256[1] S1 = [z];\r\n    uint256[1] S2 = [z];\r\n    uint256[2] S3 = [z, yz];\r\n    uint256[1] S4 = [z];\r\n    uint256[1] S5 = [y];\r\n    uint256[2] S6 = [z, 1];\r\n    uint256[1] S7 = [y];\r\n    // gamma(z) = gamma[0] + gamma[1]*z + gamma[2]*z^2 + ...\r\n    uint256[1] gamma1 = [z];\r\n    uint256[1] gamma2 = [z];\r\n    uint256[2] gamma3 = [z, yz];\r\n    uint256[1] gamma4 = [z];\r\n    uint256[1] gamma5 = [z];\r\n    uint256[2] gamma6 = [z, 1];\r\n    uint256[1] gamma7 = [z];\r\n    // the committed prove, g^p[x], g^w[x]\r\n    Pairing.G1Point pi_1 = G1Gen();\r\n    Pairing.G1Point pi_2 = G1Gen();\r\n\r\n    // number of constraints?\r\n    uint256 N = 21;\r\n    uint256 z_n = expMod(z, N, BABYJUB_P);\r\n\r\n    // other prover submitted variables\r\n    uint256 r_1 = uint256(20435686948508171234472206488737953800505595616105823290561271581793730135986);\r\n    uint256 r_tilde = uint256(7613038940582986439878577004424311309737615170791456916446723479068371769225);\r\n    uint256 t = uint256(20435686948508171234472206488737953800505595616105823290561271581793730135986);\r\n    uint256 k = uint256(11598511819595573397693757683043215863237090817957830497519701049476846220233);\r\n    uint256 s_tilde = uint256(20435686948508171234472206488737953800505595616105823290561271581793730135986);\r\n    uint256 r_2 = uint256(7613038940582986439878577004424311309737615170791456916446723479068371769225);\r\n    uint256 s_1_tilde = uint256(20435686948508171234472206488737953800505595616105823290561271581793730135986);\r\n    uint256 s_2_tilde = uint256(7613038940582986439878577004424311309737615170791456916446723479068371769225);\r\n\r\n    // poly commitments, Fs\r\n    Pairing.G1Point D = Pairing.G1Point(uint256(20435686948508171234472206488737953800505595616105823290561271581793730135986),\r\n        uint256(7613038940582986439878577004424311309737615170791456916446723479068371769225));\r\n    Pairing.G1Point R_tilde = Pairing.G1Point(uint256(20435686948508171234472206488737953800505595616105823290561271581793730135986),\r\n        uint256(7613038940582986439878577004424311309737615170791456916446723479068371769225));\r\n    Pairing.G1Point R = Pairing.G1Point(uint256(20435686948508171234472206488737953800505595616105823290561271581793730135986),\r\n        uint256(7613038940582986439878577004424311309737615170791456916446723479068371769225));\r\n    Pairing.G1Point T = Pairing.G1Point(uint256(20435686948508171234472206488737953800505595616105823290561271581793730135986),\r\n        uint256(7613038940582986439878577004424311309737615170791456916446723479068371769225));\r\n    Pairing.G1Point K = Pairing.G1Point(uint256(20435686948508171234472206488737953800505595616105823290561271581793730135986),\r\n        uint256(7613038940582986439878577004424311309737615170791456916446723479068371769225));\r\n    Pairing.G1Point S_x = Pairing.G1Point(uint256(20435686948508171234472206488737953800505595616105823290561271581793730135986),\r\n        uint256(7613038940582986439878577004424311309737615170791456916446723479068371769225));\r\n    Pairing.G1Point S_y = Pairing.G1Point(uint256(20435686948508171234472206488737953800505595616105823290561271581793730135986),\r\n        uint256(7613038940582986439878577004424311309737615170791456916446723479068371769225));\r\n\r\n    // Sonic proofs\r\n    // D_j when j=1\r\n    // Pairing.G1Point pi_D = Pairing.G1Point(uint256(20435686948508171234472206488737953800505595616105823290561271581793730135986),\r\n    //     uint256(7613038940582986439878577004424311309737615170791456916446723479068371769225));\r\n    // Pairing.G1Point pi_R_tilde = Pairing.G1Point(uint256(20435686948508171234472206488737953800505595616105823290561271581793730135986),\r\n    //     uint256(7613038940582986439878577004424311309737615170791456916446723479068371769225));\r\n    // Pairing.G1Point pi_R1 = Pairing.G1Point(uint256(20435686948508171234472206488737953800505595616105823290561271581793730135986),\r\n    //     uint256(7613038940582986439878577004424311309737615170791456916446723479068371769225));\r\n    // Pairing.G1Point pi_R2 = Pairing.G1Point(uint256(20435686948508171234472206488737953800505595616105823290561271581793730135986),\r\n    //     uint256(7613038940582986439878577004424311309737615170791456916446723479068371769225));\r\n    // Pairing.G1Point pi_T = Pairing.G1Point(uint256(20435686948508171234472206488737953800505595616105823290561271581793730135986),\r\n    //     uint256(7613038940582986439878577004424311309737615170791456916446723479068371769225));\r\n    // Pairing.G1Point pi_K = Pairing.G1Point(uint256(20435686948508171234472206488737953800505595616105823290561271581793730135986),\r\n    //     uint256(7613038940582986439878577004424311309737615170791456916446723479068371769225));\r\n    // Pairing.G1Point pi_S_x1 = Pairing.G1Point(uint256(20435686948508171234472206488737953800505595616105823290561271581793730135986),\r\n    //     uint256(7613038940582986439878577004424311309737615170791456916446723479068371769225));\r\n    // Pairing.G1Point pi_S_x2 = Pairing.G1Point(uint256(20435686948508171234472206488737953800505595616105823290561271581793730135986),\r\n    //     uint256(7613038940582986439878577004424311309737615170791456916446723479068371769225));\r\n    // Pairing.G1Point pi_S_y = Pairing.G1Point(uint256(20435686948508171234472206488737953800505595616105823290561271581793730135986),\r\n    //     uint256(7613038940582986439878577004424311309737615170791456916446723479068371769225));\r\n\r\n\r\n\r\n    // formerly used variables:\r\n\r\n    // temporarily this is for original sonic\r\n    // uint256[21] Proof = [\r\n    //     uint256(20435686948508171234472206488737953800505595616105823290561271581793730135986),\r\n    //     uint256(7613038940582986439878577004424311309737615170791456916446723479068371769225),\r\n    //     uint256(20900429899291009073299289469660149716785596251491300692035681492016939179257),\r\n    //     uint256(17015433841169487450406840425175642150965883946544965612916879717959251917877),\r\n    //     uint256(433691023568696153828599652727177493671905883454953868604074871528381220097),\r\n    //     uint256(10320531664273889342578906132837836076031009559738199149165995480549188738219),\r\n    //     uint256(5841514956038981489672186264970094693930045609713312309929445225955171101947),\r\n    //     uint256(5021024840007099401420413415719005463562614305701472747429400657816854795888),\r\n    //     uint256(20774065911754029615648528083815650325450840922528127398846513310899898519818),\r\n    //     uint256(15033194806153309440324576121312701377491848712637707126378339071163915088607),\r\n    //     uint256(13797601081368067296147105517336555699959400728196376360418452678919689273357),\r\n    //     uint256(347536244405038501480645670232637364896709701574004323632284243300674648233),\r\n    //     uint256(14150985670258525975582637074878024272235049272474457475329855381177734047698),\r\n    //     uint256(2655786006985334435742353147654701867454007390061009682990360208958229883457),\r\n    //     uint256(19749978915220999581635876327451130211831443864540429941950424972239040718725),\r\n    //     uint256(18652734379260577017619098828238354228621932558467343220803598526754221068969),\r\n    //     uint256(19231643171984527412379363884712632725022106910875011856721870145973184299950),\r\n    //     uint256(11890584382703984881384687349129438589403848436060509080598302278432395889958),\r\n    //     uint256(19848703903105846067635106277601755727734486581037082434405934553883502968806),\r\n    //     uint256(7073067203970200196273245091229017314841577127190841947842173598530677375580),\r\n    //     uint256(11142795172845103846997117758219330284910812886430955732663385421662518242916)\r\n    // ];\r\n\r\n    // length of longest u,v,w, i.e. longest length of a,b,c, linear to poly. current 32: 2994\r\n\r\n    // SOCC_hscS = [G1Point S_j, uint256 s_j, G1Point W_j]\r\n    // uint256[5] SOCC_hscS = [\r\n    //     uint256(4856595452220518861283513887787149560249872199754148373623768058895650888886),\r\n    //     uint256(18903793806709064235976701805982270837399009185115750427816521247566249210556),\r\n    //     uint256(11142795172845103846997117758219330284910812886430955732663385421662518242916),\r\n    //     uint256(21371202341828297453905088304285070177929072675831707150146249345026206448204),\r\n    //     uint256(2804295765584777874267821186909392907007222244895837511075392229436674961086)\r\n    // ];\r\n    // SOCC_hscW = [uint256 s'_j,G1Point W'_j, G1Point Q_j]\r\n    // uint256[5] SOCC_hscW = [\r\n    //     uint256(10516069979663785554384039720791935537971662430097624533692998141893610132813),\r\n    //     uint256(4047408704098476939730481302397316844045052246660100325786631118072453155095),\r\n    //     uint256(3536770324764440576997419732517461268782698510962602892817204324264966117745),\r\n    //     uint256(14245367996788138561788347307320292816184394224142842975302936827932398609764),\r\n    //     uint256(4809015920432886449944012129537258787815219963382067822305826740230093200527)\r\n    // ];\r\n\r\n    // Pairing.G1Point hscQv = Pairing.G1Point(\r\n    //     uint256(2990558601454446836641627272921201963123578559834602407524792456795005493261),\r\n    //     uint256(13202662347545347168000079135411531495309137838398006144762638337293564502641)\r\n    // );\r\n    // Pairing.G1Point hscC = Pairing.G1Point(\r\n    //     uint256(20354021681082976488982424663336191185782081465046767166624106617637273115698),\r\n    //     uint256(7434894914590215425794637416957100516507193983165584369402225555559623348194)\r\n    // );\r\n\r\n    // uint256 u = uint256(8197071660809916300712359474937866146139983659726903111927633346212682272753);\r\n    // uint256 v = uint256(18304223670379022123371455395869338667757056554451611927086438308637909615067);\r\n\r\n    // from terminal\r\n    // uint256 s_uv = uint256(7791702837224372263152657165191932519240106980588006270334507770946892728366);\r\n\r\n    // The G2 generator\r\n    // why it's here? because the G2Gen() doesn't work in verify() for unknown reason\r\n    // Pairing.G2Point g2Generator = Pairing.G2Point({\r\n    //     X: [ Constants.SRS_G2_X_0[0], Constants.SRS_G2_X_1[0] ],\r\n    //     Y: [ Constants.SRS_G2_Y_0[0], Constants.SRS_G2_Y_1[0] ]\r\n    // });\r\n    // g\r\n    // Pairing.G1Point g = Pairing.G1Point(1, 2);\r\n    \r\n    // h^\r\n    // Pairing.G2Point SRS_G2_2 = Pairing.G2Point({\r\n    //     X: [ SRS_G2_X_0_Pos[2], SRS_G2_X_1_Pos[2] ],\r\n    //     Y: [ SRS_G2_Y_0_Pos[2], SRS_G2_Y_1_Pos[2] ]\r\n    // });\r\n\r\n    // Sonic version - Verify a single-point evaluation of a polynominal\r\n    // function verify(\r\n    //     Pairing.G1Point memory _commitment, // F\r\n    //     Pairing.G1Point memory _proof, // W\r\n    //     uint256 _index,  // z\r\n    //     uint256 _value  // F(z) or v\r\n    //     // uint proofIndex,\r\n    //     // bool isT\r\n    // ) public view returns (bool) {\r\n    //     // Make sure each parameter is less than the prime q\r\n    //     require(_commitment.X < BABYJUB_P, \"Verifier.verifyKZG: _commitment.X is out of range\");\r\n    //     require(_commitment.Y < BABYJUB_P, \"Verifier.verifyKZG: _commitment.Y is out of range\");\r\n    //     require(_proof.X < BABYJUB_P, \"Verifier.verifyKZG: _proof.X is out of range\");\r\n    //     require(_proof.Y < BABYJUB_P, \"Verifier.verifyKZG: _proof.Y is out of range\");\r\n    //     require(_index < BABYJUB_P, \"Verifier.verifyKZG: _index is out of range\");\r\n    //     require(_value < BABYJUB_P, \"Verifier.verifyKZG: _value is out of range\");\r\n       \r\n    //     Pairing.G1Point memory negProof = Pairing.negate(Pairing.mulScalar(_proof, _index));\r\n    //     Pairing.G1Point memory mulProof = Pairing.plus(Pairing.mulScalar(Constants.G1Gen(), _value), negProof);\r\n\r\n    //     return Pairing.pairing_3point(_proof, Constants.SRS_G2_hAlphaX1,\r\n    //                             mulProof, Constants.SRS_G2_hAlphaX0,\r\n    //                             _commitment, Constants.t_hxdmax);\r\n    // }\r\n\r\n\r\n\r\n    /*\r\n     * Verifies a single-point evaluation of a polynominal using the KZG\r\n     * commitment scheme.\r\n     *    - p(X) is a polynominal\r\n     *    - _value = p(_index) \r\n     *    - commitment = commit(p)\r\n     *    - proof = genProof(p, _index, _value)\r\n     * Returns true if and only if the following holds, and returns false\r\n     * otherwise:\r\n     *     e(commitment - commit([_value]), G2.g) == e(proof, commit([0, 1]) - zCommit)\r\n     * @param _commitment The KZG polynominal commitment.\r\n     * @param _proof The proof.\r\n     * @param _index The x-value at which to evaluate the polynominal.\r\n     * @param _value The result of the polynominal evaluation.\r\n     */\r\n    //   - Verify a single-point evaluation of a polynominal\r\n\r\n    // function verify(\r\n    //     Pairing.G1Point memory _commitment, // F\r\n    //     Pairing.G1Point memory _proof, // \r\n    //     uint256 _index,  // z\r\n    //     uint256 _value  // F(z) or v\r\n    //     //uint proofIndex\r\n    // ) public view returns (bool) {\r\n    //     // Make sure each parameter is less than the prime q\r\n    //     require(_commitment.X < BABYJUB_P, \"Verifier.verifyKZG: _commitment.X is out of range\");\r\n    //     require(_commitment.Y < BABYJUB_P, \"Verifier.verifyKZG: _commitment.Y is out of range\");\r\n    //     require(_proof.X < BABYJUB_P, \"Verifier.verifyKZG: _proof.X is out of range\");\r\n    //     require(_proof.Y < BABYJUB_P, \"Verifier.verifyKZG: _proof.Y is out of range\");\r\n    //     require(_index < BABYJUB_P, \"Verifier.verifyKZG: _index is out of range\");\r\n    //     require(_value < BABYJUB_P, \"Verifier.verifyKZG: _value is out of range\");\r\n    //     // Check that \r\n    //     //     e(commitment - aCommit, G2.g) == e(proof, xCommit - zCommit)\r\n    //     //     e(commitment - aCommit, G2.g) / e(proof, xCommit - zCommit) == 1\r\n    //     //     e(commitment - aCommit, G2.g) * e(proof, xCommit - zCommit) ^ -1 == 1\r\n    //     //     e(commitment - aCommit, G2.g) * e(-proof, xCommit - zCommit) == 1\r\n    //     // where:\r\n    //     //     aCommit = commit([_value]) = SRS_G1_0 * _value\r\n    //     //     xCommit = commit([0, 1]) = SRS_G2_1\r\n    //     //     zCommit = commit([_index]) = SRS_G2_1 * _index\r\n\r\n    //     // To avoid having to perform an expensive operation in G2 to compute\r\n    //     // xCommit - zCommit, we instead check the equivalent equation:\r\n    //     //     e(commitment - aCommit, G2.g) * e(-proof, xCommit) * e(-proof, -zCommit) == 1\r\n    //     //     e(commitment - aCommit, G2.g) * e(-proof, xCommit) * e(proof, zCommit) == 1\r\n    //     //     e(commitment - aCommit, G2.g) * e(-proof, xCommit) * e(index * proof, G2.g) == 1\r\n    //     //     e((index * proof) + (commitment - aCommit), G2.g) * e(-proof, xCommit) == 1\r\n\r\n    //     // Compute commitment - aCommitment\r\n    //     Pairing.G1Point memory commitmentMinusA = Pairing.plus(\r\n    //         _commitment,\r\n    //         Pairing.negate(\r\n    //             Pairing.mulScalar(Constants.G1Gen(), _value)\r\n    //         )\r\n    //     );\r\n\r\n    //     // Negate the proof\r\n    //     Pairing.G1Point memory negProof = Pairing.negate(_proof);\r\n\r\n    //     // Compute index * proof\r\n    //     Pairing.G1Point memory indexMulProof = Pairing.mulScalar(_proof, _index);\r\n\r\n    //     // Return true if and only if\r\n    //     // e((index * proof) + (commitment - aCommitment), G2.g) * e(-proof, xCommit) == 1\r\n    //     return Pairing.pairing(\r\n    //         Pairing.plus(indexMulProof, commitmentMinusA),\r\n    //         g2Generator,\r\n    //         negProof,\r\n    //         SRS_G2_1 // it's h. original author of kzg commitment code call it 'xCommit' here\r\n    //     );\r\n    // }\r\n\r\n    // modified sonic verifier using KZG commitment\r\n\r\n    // function verifySonic_KZG(\r\n    //     // uint256[21] memory Proof,\r\n    //     // uint256[2] memory Randoms\r\n    // ) public returns (bool) {\r\n\r\n    //     // simulate calculating kY\r\n    //     // uint256 ky = evalKPoly();\r\n    //     // // // simulate calculating sXY\r\n    //     // uint256 sx = evalXPoly();\r\n    //     // uint256 sy = evalXPoly();\r\n\r\n    //     //uint256 yz = mulmod(y, z, Pairing.BABYJUB_P);\r\n\r\n    //     // y^N for halo implementation style\r\n    //     // uint256 y_n = expMod(z, N, BABYJUB_P);\r\n    //     // t for halo implementation style\r\n    //     // uint256 t = addmod(mulmod(addmod(Proof[6], Proof[9], Pairing.BABYJUB_P), \r\n    //     //                           addmod(addmod(Proof[12], \r\n    //     //                                         Proof[15], Pairing.BABYJUB_P), \r\n    //     //                                  evalS, Pairing.BABYJUB_P), Pairing.BABYJUB_P),\r\n    //     //                     mulmod((BABYJUB_P - evalK), y_n, BABYJUB_P),\r\n    //     //                     BABYJUB_P);\r\n\r\n    //     uint256 t = addmod(mulmod(addmod(Proof[6], Proof[9], Pairing.BABYJUB_P), \r\n    //                               addmod(addmod(Proof[12], \r\n    //                                             Proof[15], Pairing.BABYJUB_P), \r\n    //                                      evalS, Pairing.BABYJUB_P), Pairing.BABYJUB_P),\r\n    //                         (BABYJUB_P - evalK), BABYJUB_P);\r\n\r\n\r\n    //     bool verifySignature = recover(message, sig) == addr;\r\n    //     // bool result = verify(Pairing.G1Point(Proof[0], Proof[1]), // aLocal\r\n    //     //               Pairing.G1Point(Proof[7], Proof[8]),\r\n    //     //               z, \r\n    //     //               Proof[6]) &&\r\n    //     //         verify(Pairing.G1Point(Proof[0], Proof[1]), // bLocal\r\n    //     //               Pairing.G1Point(Proof[13], Proof[14]),\r\n    //     //               yz,\r\n    //     //               Proof[12]) &&\r\n    //     //         verify(Pairing.G1Point(Proof[2], Proof[3]), // aRaw\r\n    //     //               Pairing.G1Point(Proof[10], Proof[11]),\r\n    //     //               z,\r\n    //     //               Proof[9]) &&\r\n    //     //         verify(Pairing.G1Point(Proof[2], Proof[3]), // bRaw\r\n    //     //               Pairing.G1Point(Proof[16], Proof[17]),\r\n    //     //               yz,\r\n    //     //               Proof[15]) &&\r\n    //     //         verify(Pairing.G1Point(Proof[4], Proof[5]), // t\r\n    //     //               Pairing.G1Point(Proof[18], Proof[19]),\r\n    //     //               z,\r\n    //     //               t) &&                               \r\n    //     //         verify(Pairing.G1Point(Proof[4], Proof[5]), // t\r\n    //     //               Pairing.G1Point(Proof[18], Proof[19]),\r\n    //     //               z,\r\n    //     //               t) &&                                            // pcV srsLocal (srsD srsLocal) commitK y (k, wk)\r\n    //     //         verify(Pairing.G1Point(Proof[4], Proof[5]), // t\r\n    //     //               Pairing.G1Point(Proof[18], Proof[19]),\r\n    //     //               z,\r\n    //     //               t) &&                                            // pcV srsLocal (srsD srsLocal) commitC y (c, wc)\r\n    //     //         verify(Pairing.G1Point(Proof[4], Proof[5]), // t\r\n    //     //               Pairing.G1Point(Proof[18], Proof[19]),\r\n    //     //               z,\r\n    //     //               t) &&                                            // pcV srsLocal (srsD srsLocal) commitC yOld (cOld, wcOld)\r\n    //     //         verify(Pairing.G1Point(Proof[4], Proof[5]), // t\r\n    //     //               Pairing.G1Point(Proof[18], Proof[19]),\r\n    //     //               z,\r\n    //     //               t) &&                                            //, pcV srsLocal (srsD srsLocal) commitC yNew (cNew, wcNew)\r\n    //     //         verify(Pairing.G1Point(Proof[4], Proof[5]), // t\r\n    //     //               Pairing.G1Point(Proof[18], Proof[19]),\r\n    //     //               z,\r\n    //     //               t) &&                                            //, pcV srsLocal (srsD srsLocal) commitS z (s, ws)\r\n    //     //         verify(Pairing.G1Point(Proof[4], Proof[5]), // t\r\n    //     //               Pairing.G1Point(Proof[18], Proof[19]),\r\n    //     //               z,\r\n    //     //               t) &&                                            //, pcV srsLocal (srsD srsLocal) commitSOld z (sOld, wsOld)\r\n    //     //          verify(Pairing.G1Point(Proof[4], Proof[5]), // t\r\n    //     //               Pairing.G1Point(Proof[18], Proof[19]),\r\n    //     //               z,\r\n    //     //               t) &&                                           //, pcV srsLocal (srsD srsLocal) commitSNew z (sNew, wsNew)\r\n    //     //         verifySignature &&\r\n    //     //         Proof[6] == Proof[7] && // c_old == s_old\r\n    //     //         Proof[8] == Proof[9] && // c_new == s_new\r\n    //     //         Proof[10] == Proof[11]; // c == s\r\n\r\n    //     // temporary code for estimating gas cost, the above is correct version\r\n    //     bool result = verify(Pairing.G1Point(Proof[0], Proof[1]), // aLocal\r\n    //                   Pairing.G1Point(Proof[7], Proof[8]),\r\n    //                   z, \r\n    //                   Proof[6]);\r\n    //     result = verify(Pairing.G1Point(Proof[0], Proof[1]), // bLocal\r\n    //                   Pairing.G1Point(Proof[13], Proof[14]),\r\n    //                   yz,\r\n    //                   Proof[12]);\r\n    //     result = verify(Pairing.G1Point(Proof[2], Proof[3]), // aRaw\r\n    //                   Pairing.G1Point(Proof[10], Proof[11]),\r\n    //                   z,\r\n    //                   Proof[9]);\r\n    //     result = verify(Pairing.G1Point(Proof[2], Proof[3]), // bRaw\r\n    //                   Pairing.G1Point(Proof[16], Proof[17]),\r\n    //                   yz,\r\n    //                   Proof[15]);\r\n    //     result = verify(Pairing.G1Point(Proof[4], Proof[5]), // t\r\n    //                   Pairing.G1Point(Proof[18], Proof[19]),\r\n    //                   z,\r\n    //                   t);                              \r\n    //     result = verify(Pairing.G1Point(Proof[4], Proof[5]), // t\r\n    //                   Pairing.G1Point(Proof[18], Proof[19]),\r\n    //                   z,\r\n    //                   t);                                            // pcV srsLocal (srsD srsLocal) commitK y (k, wk)\r\n    //     result = verify(Pairing.G1Point(Proof[4], Proof[5]), // t\r\n    //                   Pairing.G1Point(Proof[18], Proof[19]),\r\n    //                   z,\r\n    //                   t);                                            // pcV srsLocal (srsD srsLocal) commitC y (c, wc)\r\n    //     result = verify(Pairing.G1Point(Proof[4], Proof[5]), // t\r\n    //                   Pairing.G1Point(Proof[18], Proof[19]),\r\n    //                   z,\r\n    //                   t);                                            // pcV srsLocal (srsD srsLocal) commitC yOld (cOld, wcOld)\r\n    //     result = verify(Pairing.G1Point(Proof[4], Proof[5]), // t\r\n    //                   Pairing.G1Point(Proof[18], Proof[19]),\r\n    //                   z,\r\n    //                   t);                                            //, pcV srsLocal (srsD srsLocal) commitC yNew (cNew, wcNew)\r\n    //     result = verify(Pairing.G1Point(Proof[4], Proof[5]), // t\r\n    //                   Pairing.G1Point(Proof[18], Proof[19]),\r\n    //                   z,\r\n    //                   t);                                            //, pcV srsLocal (srsD srsLocal) commitS z (s, ws)\r\n    //     result = verify(Pairing.G1Point(Proof[4], Proof[5]), // t\r\n    //                   Pairing.G1Point(Proof[18], Proof[19]),\r\n    //                   z,\r\n    //                   t);                                            //, pcV srsLocal (srsD srsLocal) commitSOld z (sOld, wsOld)\r\n    //     result = verify(Pairing.G1Point(Proof[4], Proof[5]), // t\r\n    //                   Pairing.G1Point(Proof[18], Proof[19]),\r\n    //                   z,\r\n    //                   t);                                           //, pcV srsLocal (srsD srsLocal) commitSNew z (sNew, wsNew)\r\n    //     result = verifySignature;\r\n    //     result = Proof[6] == Proof[7]; // c_old == s_old\r\n    //     result = Proof[8] == Proof[9]; // c_new == s_new\r\n    //     result = Proof[10] == Proof[11]; // c == s\r\n    //     emit verifyResult(result);\r\n    //     return result;\r\n    // }\r\n\r\n    // sonic verifier\r\n\r\n    // function verifySonic(\r\n    //     // uint256[21] memory Proof,\r\n    //     // uint256[2] memory Randoms\r\n    // ) public returns (bool) {\r\n\r\n    //     // simulate calculating kY\r\n    //     // uint256 ky = evalKPoly();\r\n    //     // // // simulate calculating sXY\r\n    //     // uint256 sx = evalXPoly();\r\n    //     // uint256 sy = evalXPoly();\r\n\r\n    //     // uint256 yz = mulmod(y, z, Pairing.BABYJUB_P);\r\n\r\n    //     // y^N for halo implementation style\r\n    //     // uint256 y_n = expMod(z, N, BABYJUB_P);\r\n    //     // t for halo implementation style\r\n    //     // uint256 t = addmod(mulmod(addmod(Proof[6], Proof[9], Pairing.BABYJUB_P), \r\n    //     //                           addmod(addmod(Proof[12], \r\n    //     //                                         Proof[15], Pairing.BABYJUB_P), \r\n    //     //                                  evalS, Pairing.BABYJUB_P), Pairing.BABYJUB_P),\r\n    //     //                     mulmod((BABYJUB_P - evalK), y_n, BABYJUB_P),\r\n    //     //                     BABYJUB_P);\r\n\r\n\r\n\r\n    //     // bool result = verify(D,\r\n    //     //               pi_D,\r\n    //     //               z, \r\n    //     //               d)\r\n    //     //     && verify(R_tilde,\r\n    //     //               pi_R_tilde,\r\n    //     //               z,\r\n    //     //               r_tilde)\r\n    //     //     && verify(R,\r\n    //     //               pi_R1,\r\n    //     //               z,\r\n    //     //               r_1)\r\n    //     //     && = verify(R,\r\n    //     //               pi_R2,\r\n    //     //               yz,\r\n    //     //               r_2)\r\n    //     //     && verify(T,\r\n    //     //               pi_T,\r\n    //     //               z,\r\n    //     //               t)\r\n    //     //     && verify(K,\r\n    //     //               pi_K,\r\n    //     //               y,\r\n    //     //               k)\r\n    //     //     && verify(S_x,\r\n    //     //               pi_S_x1,\r\n    //     //               z,\r\n    //     //               s_tilde)\r\n    //     //     && verify(S_x,\r\n    //     //               pi_S_x2,\r\n    //     //               1,\r\n    //     //               s_1_tilde)\r\n    //     //     && verify(S_y,\r\n    //     //               pi_S_y,\r\n    //     //               y,\r\n    //     //               s_2_tilde)\r\n    //     //     && recover(message, sig) == addr //verifySignature\r\n    //     //     && r_1 == addmod(r_tilde, mulmod(d, z_n, BABYJUB_P), BABYJUB_P)\r\n    //     //     && t == addmod(mulmod(r_1, \r\n    //     //                           addmod(r_2,\r\n    //     //                                  s_tilde, BABYJUB_P), BABYJUB_P),\r\n    //     //                     (BABYJUB_P - k), BABYJUB_P)\r\n    //     //     && s_1_tilde == s_2_tilde;\r\n\r\n    //     // temporary code for estimating gas cost, the above is correct version\r\n    //     bool result = verify(D,\r\n    //                   pi_D,\r\n    //                   z, \r\n    //                   d);\r\n    //     result = verify(R_tilde,\r\n    //                   pi_R_tilde,\r\n    //                   z,\r\n    //                   r_tilde);\r\n    //     result = verify(R,\r\n    //                   pi_R1,\r\n    //                   z,\r\n    //                   r_1);\r\n    //     result = verify(R,\r\n    //                   pi_R2,\r\n    //                   yz,\r\n    //                   r_2);\r\n    //     result = verify(T,\r\n    //                   pi_T,\r\n    //                   z,\r\n    //                   t);\r\n    //     result = verify(K,\r\n    //                   pi_K,\r\n    //                   y,\r\n    //                   k);\r\n    //     result = verify(S_x,\r\n    //                   pi_S_x1,\r\n    //                   z,\r\n    //                   s_tilde);\r\n    //     result = verify(S_x,\r\n    //                   pi_S_x2,\r\n    //                   1,\r\n    //                   s_1_tilde);\r\n    //     result = verify(S_y,\r\n    //                   pi_S_y,\r\n    //                   y,\r\n    //                   s_2_tilde);\r\n    //     result = recover(message, sig) == addr; //verifySignature\r\n    //     result = r_1 == addmod(r_tilde, mulmod(d, z_n, BABYJUB_P), BABYJUB_P);\r\n    //     result = t == addmod(mulmod(r_1, \r\n    //                               addmod(r_2,\r\n    //                                      s_tilde, BABYJUB_P), BABYJUB_P),\r\n    //                         (BABYJUB_P - k), BABYJUB_P);\r\n    //     result = s_1_tilde == s_2_tilde;\r\n\r\n    //     emit verifyResult(result);\r\n    //     return result;\r\n    // }\r\n\r\n    // add improvement for batched commitments of original KZG\r\n    /*\r\n    we check e<g^w[],h^> e<(g^w[])^-z,h> == RHS\r\n     */\r\n    // function verifySonicBatchedOriginKZG(\r\n    //     // uint256[21] memory Proof,\r\n    //     // uint256[2] memory Randoms\r\n    // ) public returns (bool) {\r\n\r\n    //     // simulate calculating kY\r\n    //     // uint256 ky = evalKPoly();\r\n    //     // // // simulate calculating sXY\r\n    //     // uint256 sx = evalXPoly();\r\n    //     // uint256 sy = evalXPoly();\r\n\r\n        \r\n    //     // y^N for halo implementation style\r\n    //     // uint256 y_n = expMod(z, N, BABYJUB_P);\r\n\r\n    //     // t for halo implementation style\r\n    //     // uint256 t = addmod(mulmod(addmod(Proof[6], Proof[9], Pairing.BABYJUB_P), \r\n    //     //                           addmod(addmod(Proof[12], \r\n    //     //                                         Proof[15], Pairing.BABYJUB_P), \r\n    //     //                                  evalS, Pairing.BABYJUB_P), Pairing.BABYJUB_P),\r\n    //     //                     mulmod((BABYJUB_P - evalK), y_n, BABYJUB_P),\r\n    //     //                     BABYJUB_P);\r\n\r\n    //     // uint256 t = addmod(mulmod(addmod(Proof[6], Proof[9], Pairing.BABYJUB_P), \r\n    //     //                           addmod(addmod(Proof[12], \r\n    //     //                                         Proof[15], Pairing.BABYJUB_P), \r\n    //     //                                  evalS, Pairing.BABYJUB_P), Pairing.BABYJUB_P),\r\n    //     //                     (BABYJUB_P - evalK), BABYJUB_P);\r\n\r\n\r\n    //     bool verifySignature = recover(message, sig) == addr;\r\n\r\n    //     // F\r\n    //     Pairing.G1Point[8] memory F = [\r\n    //                                 Pairing.G1Point(Proof[0], Proof[1]),//R0\r\n    //                                 Pairing.G1Point(Proof[2], Proof[3]), // Rj\r\n    //                                 Pairing.G1Point(Proof[4], Proof[5]), //T\r\n    //                                 Pairing.G1Point(Proof[6], Proof[7]), //C\r\n    //                                 Pairing.G1Point(Proof[8], Proof[9]), //Ck\r\n    //                                 Pairing.G1Point(Proof[10], Proof[11]), //S\r\n    //                                 Pairing.G1Point(Proof[12], Proof[13]), //Sold\r\n    //                                 Pairing.G1Point(Proof[14], Proof[15])  //Snew\r\n    //                                 ];\r\n    //     // Z(T / Si)[z] * ^(i-1)\r\n    //     uint256 Z_beta_1 = 1; // i = 1,  etc.\r\n    //     uint256 Z_beta_2 = beta;\r\n    //     uint256 Z_beta_3 = mulmod(Z_beta_2, beta, BABYJUB_P);\r\n    //     uint256 Z_beta_4 = mulmod(Z_beta_3, beta, BABYJUB_P);\r\n    //     uint256 Z_beta_5 = mulmod(Z_beta_4, beta, BABYJUB_P);\r\n    //     uint256 Z_beta_6 = mulmod(Z_beta_5, beta, BABYJUB_P);\r\n    //     uint256 Z_beta_7 = mulmod(Z_beta_6, beta, BABYJUB_P);\r\n    //     uint256 Z_beta_8 = mulmod(Z_beta_7, beta, BABYJUB_P);\r\n\r\n    //     Z_beta_1 = mulmod(Z_beta_1, z_calculation(1), BABYJUB_P);\r\n    //     Z_beta_2 = mulmod(Z_beta_2, z_calculation(2), BABYJUB_P);\r\n    //     Z_beta_3 = mulmod(Z_beta_3, z_calculation(3), BABYJUB_P);\r\n    //     Z_beta_4 = mulmod(Z_beta_4, z_calculation(4), BABYJUB_P);\r\n    //     Z_beta_5 = mulmod(Z_beta_5, z_calculation(5), BABYJUB_P);\r\n    //     Z_beta_6 = mulmod(Z_beta_6, z_calculation(6), BABYJUB_P);\r\n    //     Z_beta_7 = mulmod(Z_beta_7, z_calculation(7), BABYJUB_P);\r\n    //     Z_beta_8 = mulmod(Z_beta_8, z_calculation(8), BABYJUB_P);\r\n\r\n    //     // the prove, g^p[], g^w[]\r\n    //     Pairing.G1Point[2] memory pi = [\r\n    //         G1Gen(),\r\n    //         G1Gen()\r\n    //     ];\r\n    //     // product_result is the first G1 element of the RHS pairing\r\n    //     // first calculate the uppercase Pi product\r\n    //     Pairing.G1Point memory product_result = Pairing.mulScalar(Pairing.plus(D, \r\n    //                                                             Pairing.negate(Pairing.mulScalar(g, \r\n    //                                                                             addmod(gamma1[0], \r\n    //                                                                             mulmod(gamma1[1], z, BABYJUB_P), \r\n    //                                                                             BABYJUB_P)))), Z_beta_1);\r\n    //     product_result = Pairing.plus(product_result, \r\n    //                                 Pairing.mulScalar(Pairing.plus(R_tilde, \r\n    //                                                             Pairing.negate(Pairing.mulScalar(g, \r\n    //                                                                             addmod(gamma2[0], \r\n    //                                                                             mulmod(gamma2[1], z, BABYJUB_P), \r\n    //                                                                             BABYJUB_P)))), Z_beta_2));\r\n    //     product_result = Pairing.plus(product_result, \r\n    //                                 Pairing.mulScalar(Pairing.plus(R, \r\n    //                                                             Pairing.negate(Pairing.mulScalar(g, \r\n    //                                                                             gamma3[0]))), Z_beta_3));\r\n    //     product_result = Pairing.plus(product_result, \r\n    //                                 Pairing.mulScalar(Pairing.plus(T, \r\n    //                                                             Pairing.negate(Pairing.mulScalar(g, \r\n    //                                                                             addmod(addmod(gamma4[0], \r\n    //                                                                             mulmod(gamma4[1], z, BABYJUB_P), \r\n    //                                                                             BABYJUB_P),\r\n    //                                                                             mulmod(gamma4[2], \r\n    //                                                                             mulmod(z, z, \r\n    //                                                                             BABYJUB_P), \r\n    //                                                                             BABYJUB_P),\r\n    //                                                                             BABYJUB_P)\r\n    //                                                                             )))\r\n    //                                                     , Z_beta_4)\r\n    //                                     );\r\n    //     product_result = Pairing.plus(product_result, \r\n    //                                 Pairing.mulScalar(Pairing.plus(K, \r\n    //                                                             Pairing.negate(Pairing.mulScalar(g, \r\n    //                                                                             gamma5[0]))), Z_beta_5));\r\n    //     product_result = Pairing.plus(product_result, \r\n    //                                 Pairing.mulScalar(Pairing.plus(S_x, \r\n    //                                                             Pairing.negate(Pairing.mulScalar(g, \r\n    //                                                                             gamma6[0]))), Z_beta_6));\r\n    //     product_result = Pairing.plus(product_result, \r\n    //                                 Pairing.mulScalar(Pairing.plus(S_y, \r\n    //                                                             Pairing.negate(Pairing.mulScalar(g, \r\n    //                                                                             gamma7[0]))), Z_beta_7));\r\n    //     product_result = Pairing.plus(product_result, \r\n    //                                 Pairing.mulScalar(Pairing.plus(F[7], \r\n    //                                                             Pairing.negate(Pairing.mulScalar(g, \r\n    //                                                                             gamma8[0]))), Z_beta_8));\r\n    //     // then add the first item before the uppercase Pi product\r\n    //     product_result = Pairing.plus(product_result,\r\n    //                                 Pairing.negate(Pairing.plus(pi[0],\r\n    //                                                 Pairing.mulScalar(g,\r\n    //                                                                 z_calculation(9)))));//zT[z]\r\n\r\n    //     // check e<g^w[],h^>e<g^w[]g^-z,h> == RHS, then check others\r\n    //     // bool result = Pairing.pairing_3point(\r\n    //     //     pi[1],\r\n    //     //     SRS_G2_2, // h^, see above\r\n    //     //     Pairing.negate(Pairing.mulScalar(pi[1], z)),\r\n    //     //     SRS_G2_1, // h, see above\r\n    //     //     Pairing.negate(product_result),\r\n    //     //     SRS_G2_1\r\n    //     //     )\r\n    //     //     && verifySignature\r\n    //     //     && Proof[6] == Proof[7] // c_old == s_old\r\n    //     //     && Proof[8] == Proof[9] // c_new == s_new\r\n    //     //     && Proof[10] == Proof[11]; // c == s\r\n\r\n    //     // temporary code for estimating gas cost, the above is correct version\r\n    //     // check e<g^w[],h^>e<(g^w[])^-z,h> == RHS, then check others\r\n    //     bool result = Pairing.pairing_3point(\r\n    //         pi[1], // g^w[]\r\n    //         SRS_G2_2, // h^, see above\r\n    //         Pairing.negate(Pairing.mulScalar(pi[1], z)),\r\n    //         SRS_G2_1, // h, see above\r\n    //         Pairing.negate(product_result),\r\n    //         SRS_G2_1\r\n    //         );\r\n    //     result = verifySignature;\r\n    //     result = Proof[6] == Proof[7]; // c_old == s_old\r\n    //     result = Proof[8] == Proof[9]; // c_new == s_new\r\n    //     result = Proof[10] == Proof[11]; // c == s\r\n    //     emit verifyResult(result);\r\n    //     return result;\r\n    // }\r\n\r\n\r\n    // using batched commitments of sonic version of modified KZG\r\n    function verifySonicBatched(\r\n        // uint256[21] memory Proof,\r\n        // uint256[2] memory Randoms\r\n    ) public returns (bool) {\r\n\r\n        // simulate calculating kY\r\n        // uint256 ky = evalKPoly();\r\n        // // // simulate calculating sXY\r\n        // uint256 sx = evalXPoly();\r\n        // uint256 sy = evalXPoly();\r\n\r\n        \r\n        // y^N for halo implementation style\r\n        // uint256 y_n = expMod(z, N, BABYJUB_P);\r\n\r\n        // t for halo implementation style\r\n        // uint256 t = addmod(mulmod(addmod(Proof[6], Proof[9], Pairing.BABYJUB_P), \r\n        //                           addmod(addmod(Proof[12], \r\n        //                                         Proof[15], Pairing.BABYJUB_P), \r\n        //                                  evalS, Pairing.BABYJUB_P), Pairing.BABYJUB_P),\r\n        //                     mulmod((BABYJUB_P - evalK), y_n, BABYJUB_P),\r\n        //                     BABYJUB_P);\r\n\r\n        // uint256 t = addmod(mulmod(addmod(Proof[6], Proof[9], Pairing.BABYJUB_P), \r\n        //                           addmod(addmod(Proof[12], \r\n        //                                         Proof[15], Pairing.BABYJUB_P), \r\n        //                                  evalS, Pairing.BABYJUB_P), Pairing.BABYJUB_P),\r\n        //                     (BABYJUB_P - evalK), BABYJUB_P);\r\n\r\n        // Z(T / Si)[z] * ^(i-1)\r\n        uint256 Z_beta_1 = 1; // i = 1,  etc.\r\n        uint256 Z_beta_2 = beta;\r\n        uint256 Z_beta_3 = mulmod(Z_beta_2, beta, BABYJUB_P);\r\n        uint256 Z_beta_4 = mulmod(Z_beta_3, beta, BABYJUB_P);\r\n        uint256 Z_beta_5 = mulmod(Z_beta_4, beta, BABYJUB_P);\r\n        uint256 Z_beta_6 = mulmod(Z_beta_5, beta, BABYJUB_P);\r\n        uint256 Z_beta_7 = mulmod(Z_beta_6, beta, BABYJUB_P);\r\n\r\n        Z_beta_1 = mulmod(Z_beta_1, z_calculation(1), BABYJUB_P);\r\n        Z_beta_2 = mulmod(Z_beta_2, z_calculation(2), BABYJUB_P);\r\n        Z_beta_3 = mulmod(Z_beta_3, z_calculation(3), BABYJUB_P);\r\n        Z_beta_4 = mulmod(Z_beta_4, z_calculation(4), BABYJUB_P);\r\n        Z_beta_5 = mulmod(Z_beta_5, z_calculation(5), BABYJUB_P);\r\n        Z_beta_6 = mulmod(Z_beta_6, z_calculation(6), BABYJUB_P);\r\n        Z_beta_7 = mulmod(Z_beta_7, z_calculation(7), BABYJUB_P);\r\n\r\n        // H calculation\r\n        Pairing.G1Point memory H = Pairing.mulScalar(D, Z_beta_1);\r\n        H = Pairing.plus(H, Pairing.mulScalar(R_tilde, Z_beta_2));\r\n        H = Pairing.plus(H, Pairing.mulScalar(R, Z_beta_3));\r\n        H = Pairing.plus(H, Pairing.mulScalar(T, Z_beta_4));\r\n        H = Pairing.plus(H, Pairing.mulScalar(K, Z_beta_5));\r\n        H = Pairing.plus(H, Pairing.mulScalar(S_x, Z_beta_6));\r\n        H = Pairing.plus(H, Pairing.mulScalar(S_y, Z_beta_7));\r\n\r\n        // R calculation, denoted  RR because already have a R for one Fcommitment\r\n        // first calculate the PI product, and to do this first calculate the power of g after product to reduce gas cost\r\n        uint256 power = mulmod(Z_beta_1, BABYJUB_P - gamma1[0], BABYJUB_P);\r\n        power = mulmod(Z_beta_2, BABYJUB_P - gamma2[0], BABYJUB_P);\r\n        power = addmod(power, mulmod(Z_beta_3, BABYJUB_P - addmod(gamma3[0], mulmod(gamma3[1], z, BABYJUB_P), \r\n                                                                BABYJUB_P), BABYJUB_P), BABYJUB_P);\r\n        power = addmod(power, mulmod(Z_beta_4, BABYJUB_P - gamma4[0], BABYJUB_P), BABYJUB_P);\r\n        // power = addmod(power, mulmod(Z_beta_4, BABYJUB_P - addmod(addmod(gamma4[0], \r\n        //                                                                         mulmod(gamma4[1], z, BABYJUB_P), \r\n        //                                                                         BABYJUB_P),\r\n        //                                                                         mulmod(gamma4[2], \r\n        //                                                                         mulmod(z, z, \r\n        //                                                                         BABYJUB_P), \r\n        //                                                         BABYJUB_P),\r\n        //                                                     BABYJUB_P),\r\n        //                             BABYJUB_P), BABYJUB_P);\r\n        power = addmod(power, mulmod(Z_beta_5, BABYJUB_P - gamma5[0], BABYJUB_P), BABYJUB_P);\r\n        power = addmod(power, mulmod(Z_beta_6, BABYJUB_P - addmod(gamma6[0], mulmod(gamma6[1], z, BABYJUB_P), \r\n                                                                BABYJUB_P), BABYJUB_P), BABYJUB_P);\r\n        power = addmod(power, mulmod(Z_beta_7, BABYJUB_P - gamma7[0], BABYJUB_P), BABYJUB_P);\r\n        // calculate the PI product\r\n        Pairing.G1Point memory RR = Pairing.mulScalar(Constants.G1Gen(), power);\r\n\r\n        // then add the first item before the uppercase Pi product\r\n        //g^p[x]zT[z]\r\n        RR = Pairing.plus(RR, Pairing.negate(Pairing.plus(pi_1,\r\n                                                    Pairing.mulScalar(Constants.G1Gen(),\r\n                                                                    z_calculation(9)))));\r\n        //g^zw[x]\r\n        RR = Pairing.plus(RR, Pairing.mulScalar(pi_2, z));\r\n\r\n\r\n        // check the equation, then check others\r\n        // bool result = Pairing.pairing_3point(\r\n        //     H,\r\n        //     Constants.SRS_G2_1, // h, see above\r\n        //     R,\r\n        //     Constants.t_hxdmax,\r\n        //     Pairing.negate(pi_2),\r\n        //     Constants.t_hxdmaxplusone\r\n        //     )\r\n        //     && recover(message, sig) == addr //verifySignature\r\n        //     && r_1 == addmod(r_tilde, mulmod(d, z_n, BABYJUB_P), BABYJUB_P)\r\n        //     && t == addmod(mulmod(r_1, \r\n        //                           addmod(r_2,\r\n        //                                  s_tilde, BABYJUB_P), BABYJUB_P),\r\n        //                     (BABYJUB_P - k), BABYJUB_P)\r\n        //     && s_1_tilde == s_2_tilde;\r\n\r\n        // temporary code for estimating gas cost, the above is correct version\r\n        bool result = Pairing.pairing_3point(\r\n            H,\r\n            Constants.SRS_G2_1, // h, see above\r\n            R,\r\n            Constants.t_hxdmax,\r\n            Pairing.negate(pi_2),\r\n            Constants.t_hxdmaxplusone\r\n            );\r\n        result = recover(message, sig) == addr; //verifySignature\r\n        result = r_1 == addmod(r_tilde, mulmod(d, z_n, BABYJUB_P), BABYJUB_P);\r\n        result = t == addmod(mulmod(r_1, \r\n                                  addmod(r_2,\r\n                                         s_tilde, BABYJUB_P), BABYJUB_P),\r\n                            (BABYJUB_P - k), BABYJUB_P);\r\n        result = s_1_tilde == s_2_tilde;\r\n\r\n        emit verifyResult(result);\r\n        return result;\r\n    }\r\n    \r\n\r\n    function z_calculation (uint256 i)\r\n                            internal view returns (uint256){\r\n        \r\n        uint256 result = 1;\r\n        if (i != 1){\r\n            result = mulmod(result, addmod(z, BABYJUB_P - S1[0], BABYJUB_P), BABYJUB_P);\r\n        }\r\n        if (i != 2){\r\n            result = mulmod(result, addmod(z, BABYJUB_P - S2[0], BABYJUB_P), BABYJUB_P);\r\n        }\r\n        if (i != 3){\r\n            result = mulmod(mulmod(result, addmod(z, BABYJUB_P - S3[1], BABYJUB_P), BABYJUB_P)\r\n                            , addmod(z, BABYJUB_P - S3[0], BABYJUB_P), BABYJUB_P);\r\n        }\r\n        if (i != 4){\r\n            result = mulmod(result, addmod(z, BABYJUB_P - S4[0], BABYJUB_P), BABYJUB_P);\r\n            // result = mulmod(mulmod(mulmod(result, addmod(z, BABYJUB_P - S4[2], BABYJUB_P), BABYJUB_P)\r\n            //                 , addmod(z, BABYJUB_P - S4[1], BABYJUB_P), BABYJUB_P)\r\n            //                 , addmod(z, BABYJUB_P - S4[0], BABYJUB_P), BABYJUB_P);\r\n        }\r\n        if (i != 5){\r\n            result = mulmod(result, addmod(z, BABYJUB_P - S5[0], BABYJUB_P), BABYJUB_P);\r\n        }\r\n        if (i != 6){\r\n            result = mulmod(mulmod(result, addmod(z, BABYJUB_P - S6[1], BABYJUB_P), BABYJUB_P)\r\n                            , addmod(z, BABYJUB_P - S6[0], BABYJUB_P), BABYJUB_P);\r\n        }\r\n        if (i != 7){\r\n            result = mulmod(result, addmod(z, BABYJUB_P - S7[0], BABYJUB_P), BABYJUB_P);\r\n        }\r\n        return result;\r\n    }\r\n\r\n    /**\r\n     * @dev Recover signer address from a message by using their signature\r\n     * @param hash bytes32 message, the hash is the signed message. What is recovered is the signer address.\r\n     * @param signature bytes signature, the signature is generated using web3.eth.sign()\r\n     */\r\n    function recover(bytes32 hash, bytes memory signature) internal pure returns (address) {\r\n        bytes32 r;\r\n        bytes32 s;\r\n        uint8 _v;\r\n\r\n        // Check the signature length\r\n        if (signature.length != 65) {\r\n            return (address(0));\r\n        }\r\n\r\n        // Divide the signature in r, s and v variables\r\n        // ecrecover takes the signature parameters, and the only way to get them\r\n        // currently is to use assembly.\r\n        // solium-disable-next-line security/no-inline-assembly\r\n        assembly {\r\n            r := mload(add(signature, 32))\r\n            s := mload(add(signature, 64))\r\n            _v := byte(0, mload(add(signature, 96)))\r\n        }\r\n\r\n        // Version of signature should be 27 or 28, but 0 and 1 are also possible versions\r\n        if (_v < 27) {\r\n            _v += 27;\r\n        }\r\n\r\n        // If the version is correct return the signer address\r\n        if (_v != 27 && _v != 28) {\r\n            return (address(0));\r\n        } else {\r\n            // solium-disable-next-line arg-overflow\r\n            return ecrecover(hash, _v, r, s);\r\n        }\r\n    }\r\n\r\n    /**\r\n    * @dev prefix a bytes32 value with \"\\x19Ethereum Signed Message:\" and hash the result\r\n    */\r\n    function ethMessageHash(string memory rawCommitment) internal pure returns (bytes32) {\r\n        return keccak256(\r\n            abi.encodePacked(\"\\x19Ethereum Signed Message:\\n32\", keccak256(abi.encodePacked(rawCommitment)))\r\n        );\r\n    }\r\n\r\n\r\n    //     /*\r\n    //  * @return The polynominal evaluation of a polynominal with the specified\r\n    //  *         coefficients at the given index.\r\n    //  */\r\n    //  function evalPoly() public view returns (uint256) {\r\n\r\n    //     uint baseOrder = 204;\r\n    //     uint length = 64;\r\n    //     uint256 _index = y;\r\n    //     uint256 m = Constants.BABYJUB_P;\r\n    //     uint256 result = 0;\r\n    //     uint256 powerOfX = 1;\r\n\r\n    //     for (uint256 i = 0; i < length; i ++) {\r\n    //         assembly {\r\n    //             result:= addmod(result, mulmod(powerOfX, i, m), m)\r\n    //             powerOfX := mulmod(powerOfX, i, m)\r\n    //         }\r\n    //     }\r\n    //     uint256 basePower = invMod(expMod(_index, baseOrder, m), m);\r\n    //     result = mulmod(basePower, result, m);\r\n\r\n    //     return result;\r\n    // }\r\n\r\n    /// @dev Modular euclidean inverse of a number (mod p).\r\n    /// @param _x The number\r\n    /// @param _pp The modulus\r\n    /// @return q such that x*q = 1 (mod _pp)\r\n    // function invMod(uint256 _x, uint256 _pp) internal pure returns (uint256) {\r\n    //     require(_x != 0 && _x != _pp && _pp != 0, \"Invalid number\");\r\n    //     uint256 q = 0;\r\n    //     uint256 newT = 1;\r\n    //     uint256 r = _pp;\r\n    //     uint256 t;\r\n    //     while (_x != 0) {\r\n    //     t = r / _x;\r\n    //     (q, newT) = (newT, addmod(q, (_pp - mulmod(t, newT, _pp)), _pp));\r\n    //     (r, _x) = (_x, r - t * _x);\r\n    //     }\r\n\r\n    //     return q;\r\n    // }\r\n\r\n    /// @dev Modular exponentiation, b^e % _pp.\r\n    /// Source: https://github.com/androlo/standard-contracts/blob/master/contracts/src/crypto/ECCMath.sol\r\n    /// @param _base base\r\n    /// @param _exp exponent\r\n    /// @param _pp modulus\r\n    /// @return r such that r = b**e (mod _pp)\r\n    function expMod(uint256 _base, uint256 _exp, uint256 _pp) internal pure returns (uint256) {\r\n        require(_pp!=0, \"Modulus is zero\");\r\n\r\n        if (_base == 0)\r\n        return 0;\r\n        if (_exp == 0)\r\n        return 1;\r\n\r\n        uint256 r = 1;\r\n        uint256 bit = 57896044618658097711785492504343953926634992332820282019728792003956564819968; // 2 ^ 255\r\n        assembly {\r\n        for { } gt(bit, 0) { }{\r\n            // a touch of loop unrolling for 20% efficiency gain\r\n            r := mulmod(mulmod(r, r, _pp), exp(_base, iszero(iszero(and(_exp, bit)))), _pp)\r\n            r := mulmod(mulmod(r, r, _pp), exp(_base, iszero(iszero(and(_exp, div(bit, 2))))), _pp)\r\n            r := mulmod(mulmod(r, r, _pp), exp(_base, iszero(iszero(and(_exp, div(bit, 4))))), _pp)\r\n            r := mulmod(mulmod(r, r, _pp), exp(_base, iszero(iszero(and(_exp, div(bit, 8))))), _pp)\r\n            bit := div(bit, 16)\r\n        }\r\n        }\r\n\r\n        return r;\r\n    }\r\n    \r\n\r\n}",
  "sourcePath": "D:\\homework\\sonic\\src\\verifier\\contracts\\Verifier.sol",
  "compiler": {
    "name": "solc",
    "version": "0.8.13+commit.abaa5c0e.Emscripten.clang"
  },
  "schemaVersion": "3.4.8",
  "updatedAt": "2023-02-23T07:36:59.462Z",
  "networkType": "ethereum",
  "devdoc": {
    "kind": "dev",
    "methods": {},
    "version": 1
  },
  "userdoc": {
    "kind": "user",
    "methods": {},
    "version": 1
  }
}