{
  "contractName": "Verifier",
  "abi": [
    {
      "anonymous": false,
      "inputs": [
        {
          "indexed": false,
          "internalType": "bool",
          "name": "result",
          "type": "bool"
        }
      ],
      "name": "verifyResult",
      "type": "event"
    },
    {
      "inputs": [
        {
          "components": [
            {
              "internalType": "uint256",
              "name": "X",
              "type": "uint256"
            },
            {
              "internalType": "uint256",
              "name": "Y",
              "type": "uint256"
            }
          ],
          "internalType": "struct Pairing.G1Point",
          "name": "_commitment",
          "type": "tuple"
        },
        {
          "components": [
            {
              "internalType": "uint256",
              "name": "X",
              "type": "uint256"
            },
            {
              "internalType": "uint256",
              "name": "Y",
              "type": "uint256"
            }
          ],
          "internalType": "struct Pairing.G1Point",
          "name": "_proof",
          "type": "tuple"
        },
        {
          "internalType": "uint256",
          "name": "_index",
          "type": "uint256"
        },
        {
          "internalType": "uint256",
          "name": "_value",
          "type": "uint256"
        }
      ],
      "name": "verify",
      "outputs": [
        {
          "internalType": "bool",
          "name": "",
          "type": "bool"
        }
      ],
      "stateMutability": "view",
      "type": "function",
      "constant": true
    },
    {
      "inputs": [],
      "name": "verifySonic",
      "outputs": [
        {
          "internalType": "bool",
          "name": "",
          "type": "bool"
        }
      ],
      "stateMutability": "nonpayable",
      "type": "function"
    },
    {
      "inputs": [],
      "name": "verifySonicBatched",
      "outputs": [
        {
          "internalType": "bool",
          "name": "",
          "type": "bool"
        }
      ],
      "stateMutability": "nonpayable",
      "type": "function"
    },
    {
      "inputs": [],
      "name": "evalPoly",
      "outputs": [
        {
          "internalType": "uint256",
          "name": "",
          "type": "uint256"
        }
      ],
      "stateMutability": "view",
      "type": "function",
      "constant": true
    }
  ],
  "bytecode": "0x608060405260405180604001604052807f198e9393920d483a7260bfb731fb5d25f1aa493335a9e71297e485b7aef312c281526020017f21a808dad5c50720fb7294745cf4c87812ce0ea76baa7df4e922615d1388f25a81525060009060026200006b929190620017c0565b5060405180604001604052807f1800deef121f1e76426a00665e5c4479674322d4f75edadd46debd5cd992f6ed81526020017f04c5e74c85a87f008a2feb4b5c8a1e7f9ba9d8eb40eb02e70139c89fb1c505a98152506001906002620000d3929190620017c0565b5060405180604001604052807f090689d0585ff075ec9e99ad690c3395bc4b313370b38ef355acdadcd122975b81526020017f204b66d8e1fadc307c35187a6b813be0b46ba1cd720cd1c4ee5f68d13036b4ba81525060029060026200013b929190620017c0565b5060405180604001604052807f12c85ea5db8c6deb4aab71808dcb408fe3d1e7690c43d37b4ce6cc0166fa7daa81526020017f2d58022915fc6bc90e036e858fbc98055084ac7aff98ccceb0e3fde64bc1a0848152506003906002620001a3929190620017c0565b5060405180608001604052807f1a597e49c263d6a226f25fe1e806caac7f15f85b763044e7d3043ba5992dd8d581526020017f228b515a17f28b89920873207477f8c7fc05582debaf3184febf1cfdedc5ce8881526020017f18e9db03472e0863ddf2838cf8880b11083593229561aaf9a11c760bb97a64fa81526020017f0566eed2b6bb584ca75fbe0ca9ffc98eb586c25812617df7e01a2b6d8270f0bf81525060049060046200025792919062001812565b5060405180608001604052807f208f992ecbeeef3fa5b1c3505c588c7a872e3987797a14052b6f34411c9ea0ae81526020017f12bb1156a9f6b360fcb2614e15d8a3ff07f2c699dc69ca830b20d2df91fe9cd381526020017f15904dc85f8ddf338fe3151d3c146b4083e99dd3f26d87d33dd5d20eb64284a381526020017f20101834550a7d15aa7a685d3f0095b689822cb568dfc9690e0cc58e9826d8fb81525060059060046200030b92919062001812565b5060405180608001604052807f024248dcf25ea502fb805bcab808906eb944154792151d643ad7b4b0eca6d91381526020017f2b15dc62a5c9e36597914ddbbfde48806a8eabe45c8d3cccf9578ad08e058f9281526020017f20ab132d3e7dd0600d89b397a3bf88e3900434c826b458028981278a619d809481526020017f0a66c012d8ebf11c9a9fc4ccfeeab0ace62b1c1fa744f6c6173f1994e9241db78152506006906004620003bf92919062001812565b5060405180608001604052807f14c35af32416c899af0b827ef0f1a686393d629317706d8c143cdfd5717c4c5e81526020017f02a4fd764f52470e2fcfff325fb9692f55d6b8b077eefeaa04e07152b4d1fa9481526020017f28505103380e230ea76fa52dc17b1269cfa9076761a1bb971c5b90767de58db081526020017f19ea09d089c848b2dee00082395883e0b405de1da65d4b4aeebd50c84e47349d81525060079060046200047392919062001812565b50604051806040016040528060405180604001604052807f185c3f6fe300ae4825fbc17232a7ef067d895c6838b58df5d3821b3c5f47a38081526020017f0ec8eed74d6dfed1e4bbac422898cbf6334bb2ea304a443a0b388c8a513b98ea815250815260200160405180604001604052807f2ce0b9172a655debea69f18829f2b0a98ec43a6ce296f603371237011936328181526020017f113e4f1953b68002611afddebc49dc2876e7a4e246061eec0f05ebc6595ff13781525081525060086000820151816000019060026200054c92919062001864565b506020820151816002019060026200056692919062001864565b505050604051806040016040528060405180604001604052807f11a27fdb89b46af22a89049c391fada5cb5ce6f4c9df8fe5ebae5d422b0bcddf81526020017f1ebadb21506ba2b40566be5bdbfe1ead7400477fc516e1ded4461c6759c221f5815250815260200160405180604001604052807f2d204255b7a4116982ce5bcd3bcc3639e3cc82b273a8ffbf404370c38ce5db3f81526020017f18b0e4266a167129aaee0af3b9ab5a3b4d2bcd690de7d94312c23b494f9fd3bb815250815250600c6000820151816000019060026200064192919062001864565b506020820151816002019060026200065b92919062001864565b505050604051806040016040528060405180604001604052807f198e9393920d483a7260bfb731fb5d25f1aa493335a9e71297e485b7aef312c281526020017f1800deef121f1e76426a00665e5c4479674322d4f75edadd46debd5cd992f6ed815250815260200160405180604001604052807f090689d0585ff075ec9e99ad690c3395bc4b313370b38ef355acdadcd122975b81526020017f12c85ea5db8c6deb4aab71808dcb408fe3d1e7690c43d37b4ce6cc0166fa7daa81525081525060106000820151816000019060026200073692919062001864565b506020820151816002019060026200075092919062001864565b505050604051806102a001604052807f2d2e305d3ab2dc6e0081ffcf4a701f924a1a7296cdc32046c10c0b6f992387b281526020017f10d4d3cca369c48670346ef36c6739e885bb11b52038a89c706aacfb7d72d78981526020017f2e35395f5838af48130dca441dda40ea378236a7259002822b87101d02189cf981526020017f259e64ee9a51992b6a66d97b27e9071b120bd0677b1e58f9373725493d0dfc3581526020017ef575de1f064343e871771cb242eaaf6812e4568c2bb7e6673e876c7464050181526020017f16d136c3465f30dfece26e1c3f94d1b9f6b90caa57245be3440ee15730c89cab81526020017f0cea2e280aefedbce8fd0e4abaf7e4575dc8fe4a4268a61d8dd063507fc5ecfb81526020017f0b19cca2316e1f6d3490971e1707cf7f8a8542f1ebb784b0f95ae933e191167081526020017f2dedb4628bf08f798ce6d93603b6ed8cac8942ae15ac5468e21b057a6001910a81526020017f213c7c9a650878edd5e1c73acd8868f2b83acff59c7fe0708c4006b8fe24b2df81526020017f1e812a5bf519614265594c3c12f2c881d46929dbaeabe2353ecd4288b7ab000d81526020017ec4b2d3c0dadfd5209c926bf4f936931a6d2c04fa9608cb278d855dbd3f38a981526020017f1f492c8edd37499078a6576275a4f46fe77a79ae3034b524e22eae2459c8a7d281526020017f05df1f21eb91f54ce9ebc45963392c05646ab94d5285f23f62d004e9742caa4181526020017f2baa1788aecf01e0f174e1dec4e4a1a6bb12e04f5a664c73110341089fa4a78581526020017f293d12d2ddee8106ee524edceb5b09802836c0009574f2a42db542c83d1612a981526020017f2a84b96b69dba240b21032b810c85532ac40b61d6b890cc3757309d83d0703ae81526020017f1a49d50f46a39f0fde8d3e1d95771d29bbb9eb7c9baab30cfb7867a50cd00d2681526020017f2be1f7e20177ef75851870d314a7fff4c31f0a9590dcadfa7ad98f63d01bffe681526020017f0fa336d3c59c626772a0d93ee1d4144b21e0fea2b000cd4fa60c03f69456025c81526020017f18a2993be8e03e3ec58688e40a0997a30ae6b413ab6156da93218e1ba39fee64815250601490601562000a8b929190620018a9565b506040518060a001604052807f2f376e28777cfe34cf077eba864c462fd6efbfe4d3f6af17768ef2ed4f829ddd81526020017f2f0ed729a52c3cf5d51e5e6d8e737f79e5d99150f7b9b63f3dd38704f9d8ef2681526020017f2ef8bb94a174a78dfe41d6eed9d719c7d83be3826f1f10504ace98cab243a95a81526020017f2f1d1ad3ba383b2802a9d032e35c633fcb87438ec572dcecf69bdd65d3a29c6d81526020017f2f17797aa9b5b553209d135cdd69146128b9841e82c8b01e3f3a07d1e3714dc9815250602990600562000b65929190620018ee565b507f19a48669ccf72c593144962560f593b667daa2052d1cdcc2500bb3b003c073c9602e556014806015811062000ba15762000ba062001a6d565b5b0154602f556040518060a001604052807f0abcbc513a4f12ef3d24aedcb8005305a64e9914941d63de78e83c7ce9559cb681526020017f29cb2b0a977afdb5e3c2fead88d2b26d1b699c1b7a6693262c371d3263f232bc81526020017f18a2993be8e03e3ec58688e40a0997a30ae6b413ab6156da93218e1ba39fee6481526020017f2f3fabffbd2bca7bc61901b09b4f45c78a3748a2e40ced61b93883605553ba4c81526020017f06332cd70541f1f5958e148a641305cb34193b8a595c46613dc0fff11c226ebe815250603090600562000c7f929190620018ee565b506040518060a001604052807f173fe27a7f0c60540d8d600c5850189dd4bb8d7f3c007a385606cd2c6181554d81526020017f08f2c08c988b82b1e72491c92c1888d988b28dbdf5969bca17d439211e0e491781526020017f07d1bdb66bfe5e8ea65931d35586ff1c40ce91a19e82bf032ce19b1ef5f0597181526020017f1f7e97b1ecc7c35f2e9ee3393ea5d101018c8ab489dc82d6678931cd13a0656481526020017f0aa1ce7a4ee86b4d125985c4fbef9eb81ff6397e9ee5b638cd6c5f7f3f1edc8f815250603590600562000d59929190620018ee565b5060405180604001604052807f069c989f95c67f2eadad54192ee90365dfd843dd18cd104449c2cd0f6135a00d81526020017f1d30712bd9824a34faf8681c2f97adc1305a2faf1b39d4edf30d23aa5d73e271815250603a6000820151816000015560208201518160010155505060405180604001604052807f2cfff7d01b631c28468be5bf2d727199af5fad36b826df7816f54952caf49c3281526020017f1070005b7818ade38c833c325a22173c6abf1df16c09a6634c989af7701ecfe2815250603c600082015181600001556020820151816001015550507f121f60ce38117f295e9818dfcb4dc742f01502a468e608ef94852d629c400ff1603e557f2877d2ce379fc3bf527374243a7169b5101750073677141bca5b7ea0248e81db603f557f1139f290e1b15f50b86c3fa6c4961c7e69c7b36bf05d9dc9791958e93c06082e60405562000eca6040518060c00160405280609a815260200162005a11609a91396200176660201b60201c565b60415560405180608001604052806041815260200162005aab604191396042908051906020019062000efe92919062001933565b5073e448992fdeaf94784bbd8f432d781c061d907985604360006101000a81548173ffffffffffffffffffffffffffffffffffffffff021916908373ffffffffffffffffffffffffffffffffffffffff160217905550604051806040016040528060405180604001604052806000808154811062000f815762000f8062001a6d565b5b90600052602060002001548152602001600160008154811062000fa95762000fa862001a6d565b5b906000526020600020015481525081526020016040518060400160405280600260008154811062000fdf5762000fde62001a6d565b5b90600052602060002001548152602001600360008154811062001007576200100662001a6d565b5b906000526020600020015481525081525060446000820151816000019060026200103392919062001864565b506020820151816002019060026200104d92919062001864565b5050506040518060400160405280600181526020016002815250604860008201518160000155602082015181600101555050604051806040016040528060405180604001604052806000600181548110620010ad57620010ac62001a6d565b5b9060005260206000200154815260200160018081548110620010d457620010d362001a6d565b5b90600052602060002001548152508152602001604051806040016040528060026001815481106200110a576200110962001a6d565b5b90600052602060002001548152602001600360018154811062001132576200113162001a6d565b5b9060005260206000200154815250815250604a6000820151816000019060026200115e92919062001864565b506020820151816002019060026200117892919062001864565b505050604051806040016040528060405180604001604052806004600281548110620011a957620011a862001a6d565b5b906000526020600020015481526020016005600281548110620011d157620011d062001a6d565b5b906000526020600020015481525081526020016040518060400160405280600660028154811062001207576200120662001a6d565b5b9060005260206000200154815260200160076002815481106200122f576200122e62001a6d565b5b9060005260206000200154815250815250604e6000820151816000019060026200125b92919062001864565b506020820151816002019060026200127592919062001864565b5050507f30644e72e131a029b85045b68181585d2833e84879b9709143e1f593f000000180620012aa57620012a962001a9c565b5b6029600160058110620012c257620012c162001a6d565b5b01546029600060058110620012dc57620012db62001a6d565b5b0154096052557f21d1ad4787778ebe1fe648796a728cba28fdc1b56fda844fc2f5bf686ba122d76053556040518060400160405280602960016005811062001329576200132862001a6d565b5b01548152602001602960016005811062001348576200134762001a6d565b5b015481525060549060026200135f92919062001864565b506040518060400160405280605254815260200160525481525060569060026200138b92919062001864565b5060405180602001604052806029600160058110620013af57620013ae62001a6d565b5b01548152506058906001620013c6929190620019c4565b5060405180606001604052806029600160058110620013ea57620013e962001a6d565b5b01548152602001602960016005811062001409576200140862001a6d565b5b01548152602001602960016005811062001428576200142762001a6d565b5b015481525060599060036200143f92919062001a09565b506040518060200160405280602960016005811062001463576200146262001a6d565b5b0154815250605c9060016200147a929190620019c4565b50604051806020016040528060296001600581106200149e576200149d62001a6d565b5b0154815250605d906001620014b5929190620019c4565b5060405180602001604052806029600160058110620014d957620014d862001a6d565b5b0154815250605e906001620014f0929190620019c4565b506040518060200160405280602960016005811062001514576200151362001a6d565b5b0154815250605f9060016200152b929190620019c4565b50604051806040016040528060296001600581106200154f576200154e62001a6d565b5b0154815260200160296001600581106200156e576200156d62001a6d565b5b015481525060609060026200158592919062001864565b50604051806040016040528060525481526020016052548152506062906002620015b192919062001864565b5060405180602001604052806029600160058110620015d557620015d462001a6d565b5b01548152506064906001620015ec929190620019c4565b506040518060600160405280602960016005811062001610576200160f62001a6d565b5b0154815260200160296001600581106200162f576200162e62001a6d565b5b0154815260200160296001600581106200164e576200164d62001a6d565b5b015481525060659060036200166592919062001a09565b506040518060200160405280602960016005811062001689576200168862001a6d565b5b01548152506068906001620016a0929190620019c4565b5060405180602001604052806029600160058110620016c457620016c362001a6d565b5b01548152506069906001620016db929190620019c4565b5060405180602001604052806029600160058110620016ff57620016fe62001a6d565b5b0154815250606a90600162001716929190620019c4565b50604051806020016040528060296001600581106200173a576200173962001a6d565b5b0154815250606b90600162001751929190620019c4565b503480156200175f57600080fd5b5062001c74565b6000816040516020016200177b919062001b4e565b60405160208183030381529060405280519060200120604051602001620017a3919062001be6565b604051602081830303815290604052805190602001209050919050565b828054828255906000526020600020908101928215620017ff579160200282015b82811115620017fe578251825591602001919060010190620017e1565b5b5090506200180e919062001a4e565b5090565b82805482825590600052602060002090810192821562001851579160200282015b828111156200185057825182559160200191906001019062001833565b5b50905062001860919062001a4e565b5090565b826002810192821562001896579160200282015b828111156200189557825182559160200191906001019062001878565b5b509050620018a5919062001a4e565b5090565b8260158101928215620018db579160200282015b82811115620018da578251825591602001919060010190620018bd565b5b509050620018ea919062001a4e565b5090565b826005810192821562001920579160200282015b828111156200191f57825182559160200191906001019062001902565b5b5090506200192f919062001a4e565b5090565b828054620019419062001c3f565b90600052602060002090601f016020900481019282620019655760008555620019b1565b82601f106200198057805160ff1916838001178555620019b1565b82800160010185558215620019b1579182015b82811115620019b057825182559160200191906001019062001993565b5b509050620019c0919062001a4e565b5090565b8260018101928215620019f6579160200282015b82811115620019f5578251825591602001919060010190620019d8565b5b50905062001a05919062001a4e565b5090565b826003810192821562001a3b579160200282015b8281111562001a3a57825182559160200191906001019062001a1d565b5b50905062001a4a919062001a4e565b5090565b5b8082111562001a6957600081600090555060010162001a4f565b5090565b7f4e487b7100000000000000000000000000000000000000000000000000000000600052603260045260246000fd5b7f4e487b7100000000000000000000000000000000000000000000000000000000600052601260045260246000fd5b600081519050919050565b600081905092915050565b60005b8381101562001b0157808201518184015260208101905062001ae4565b8381111562001b11576000848401525b50505050565b600062001b248262001acb565b62001b30818562001ad6565b935062001b4281856020860162001ae1565b80840191505092915050565b600062001b5c828462001b17565b915081905092915050565b7f19457468657265756d205369676e6564204d6573736167653a0a333200000000600082015250565b600062001b9f601c8362001ad6565b915062001bac8262001b67565b601c82019050919050565b6000819050919050565b6000819050919050565b62001be062001bda8262001bb7565b62001bc1565b82525050565b600062001bf38262001b90565b915062001c01828462001bcb565b60208201915081905092915050565b7f4e487b7100000000000000000000000000000000000000000000000000000000600052602260045260246000fd5b6000600282049050600182168062001c5857607f821691505b60208210810362001c6e5762001c6d62001c10565b5b50919050565b613d8d8062001c846000396000f3fe608060405234801561001057600080fd5b506004361061004c5760003560e01c80632d88635414610051578063903ae8901461006f5780639c22c9511461009f578063ffef4ff4146100bd575b600080fd5b6100596100db565b60405161006691906132c0565b60405180910390f35b61008960048036038101906100849190613401565b610dfc565b60405161009691906132c0565b60405180910390f35b6100a76111e9565b6040516100b491906132c0565b60405180910390f35b6100c5611d0d565b6040516100d29190613477565b60405180910390f35b600080604360009054906101000a900473ffffffffffffffffffffffffffffffffffffffff1673ffffffffffffffffffffffffffffffffffffffff166101ad6041546042805461012a906134c1565b80601f0160208091040260200160405190810160405280929190818152602001828054610156906134c1565b80156101a35780601f10610178576101008083540402835291602001916101a3565b820191906000526020600020905b81548152906001019060200180831161018657829003601f168201915b5050505050611dc8565b73ffffffffffffffffffffffffffffffffffffffff161490506000604051806101000160405280604051806040016040528060146000601581106101f4576101f36134f2565b5b0154815260200160146001601581106102105761020f6134f2565b5b015481525081526020016040518060400160405280601460026015811061023a576102396134f2565b5b015481526020016014600360158110610256576102556134f2565b5b01548152508152602001604051806040016040528060146004601581106102805761027f6134f2565b5b01548152602001601460056015811061029c5761029b6134f2565b5b01548152508152602001604051806040016040528060146006601581106102c6576102c56134f2565b5b0154815260200160146007601581106102e2576102e16134f2565b5b015481525081526020016040518060400160405280601460086015811061030c5761030b6134f2565b5b015481526020016014600960158110610328576103276134f2565b5b0154815250815260200160405180604001604052806014600a60158110610352576103516134f2565b5b015481526020016014600b6015811061036e5761036d6134f2565b5b0154815250815260200160405180604001604052806014600c60158110610398576103976134f2565b5b015481526020016014600d601581106103b4576103b36134f2565b5b0154815250815260200160405180604001604052806014600e601581106103de576103dd6134f2565b5b015481526020016014600f601581106103fa576103f96134f2565b5b0154815250815250905060006104106001611e9b565b9050600061041e6002611e9b565b9050600061042c6003611e9b565b9050600061043a6004611e9b565b905060006104486005611e9b565b905060006104566006611e9b565b905060006104646007611e9b565b905060006104726008611e9b565b9050600060405180604001604052806104896126c7565b81526020016104966126c7565b8152509050600061059d6105978c6000600881106104b7576104b66134f2565b5b602002015161059261058d6048604051806040016040529081600082015481526020016001820154815250507f30644e72e131a029b85045b68181585d2833e84879b9709143e1f593f00000018061051257610511613521565b5b7f30644e72e131a029b85045b68181585d2833e84879b9709143e1f593f00000018061054157610540613521565b5b6029600260058110610556576105556134f2565b5b0154606060016002811061056d5761056c6134f2565b5b0154096060600060028110610585576105846134f2565b5b0154086126eb565b6127c3565b612881565b8b6126eb565b90506106a8816106a361069d8e6001600881106105bd576105bc6134f2565b5b60200201516106986106936048604051806040016040529081600082015481526020016001820154815250507f30644e72e131a029b85045b68181585d2833e84879b9709143e1f593f00000018061061857610617613521565b5b7f30644e72e131a029b85045b68181585d2833e84879b9709143e1f593f00000018061064757610646613521565b5b602960026005811061065c5761065b6134f2565b5b01546062600160028110610673576106726134f2565b5b015409606260006002811061068b5761068a6134f2565b5b0154086126eb565b6127c3565b612881565b8c6126eb565b612881565b90506107258161072061071a8e6002600881106106c8576106c76134f2565b5b60200201516107156107106048604051806040016040529081600082015481526020016001820154815250506064600060018110610709576107086134f2565b5b01546126eb565b6127c3565b612881565b8b6126eb565b612881565b90506108778161087261086c8e600360088110610745576107446134f2565b5b60200201516108676108626048604051806040016040529081600082015481526020016001820154815250507f30644e72e131a029b85045b68181585d2833e84879b9709143e1f593f0000001806107a05761079f613521565b5b7f30644e72e131a029b85045b68181585d2833e84879b9709143e1f593f0000001806107cf576107ce613521565b5b7f30644e72e131a029b85045b68181585d2833e84879b9709143e1f593f0000001806107fe576107fd613521565b5b6029600260058110610813576108126134f2565b5b0154602960026005811061082a576108296134f2565b5b0154096065600160038110610842576108416134f2565b5b015409606560006003811061085a576108596134f2565b5b0154086126eb565b6127c3565b612881565b8a6126eb565b612881565b90506108f4816108ef6108e98e600460088110610897576108966134f2565b5b60200201516108e46108df60486040518060400160405290816000820154815260200160018201548152505060686000600181106108d8576108d76134f2565b5b01546126eb565b6127c3565b612881565b896126eb565b612881565b90506109718161096c6109668e600560088110610914576109136134f2565b5b602002015161096161095c6048604051806040016040529081600082015481526020016001820154815250506069600060018110610955576109546134f2565b5b01546126eb565b6127c3565b612881565b886126eb565b612881565b90506109ee816109e96109e38e600660088110610991576109906134f2565b5b60200201516109de6109d9604860405180604001604052908160008201548152602001600182015481525050606a6000600181106109d2576109d16134f2565b5b01546126eb565b6127c3565b612881565b876126eb565b612881565b9050610a6b81610a66610a608e600760088110610a0e57610a0d6134f2565b5b6020020151610a5b610a56604860405180604001604052908160008201548152602001600182015481525050606b600060018110610a4f57610a4e6134f2565b5b01546126eb565b6127c3565b612881565b866126eb565b612881565b9050610ad281610acd610ac885600060028110610a8b57610a8a6134f2565b5b6020020151610ac3604860405180604001604052908160008201548152602001600182015481525050610abe6009611e9b565b6126eb565b612881565b6127c3565b612881565b90506000610d1a83600160028110610aed57610aec6134f2565b5b6020020151604e60405180604001604052908160008201600280602002604051908101604052809291908260028015610b3b576020028201915b815481526020019060010190808311610b27575b5050505050815260200160028201600280602002604051908101604052809291908260028015610b80576020028201915b815481526020019060010190808311610b6c575b505050505081525050610bde86600160028110610ba057610b9f6134f2565b5b6020020151610bd9610bd46048604051806040016040529081600082015481526020016001820154815250506053546126eb565b6127c3565b612881565b604a60405180604001604052908160008201600280602002604051908101604052809291908260028015610c27576020028201915b815481526020019060010190808311610c13575b5050505050815260200160028201600280602002604051908101604052809291908260028015610c6c576020028201915b815481526020019060010190808311610c58575b505050505081525050610c7e876127c3565b604a60405180604001604052908160008201600280602002604051908101604052809291908260028015610cc7576020028201915b815481526020019060010190808311610cb3575b5050505050815260200160028201600280602002604051908101604052809291908260028015610d0c576020028201915b815481526020019060010190808311610cf8575b50505050508152505061297f565b90508c90506014600760158110610d3457610d336134f2565b5b01546014600660158110610d4b57610d4a6134f2565b5b01541490506014600960158110610d6557610d646134f2565b5b01546014600860158110610d7c57610d7b6134f2565b5b01541490506014600b60158110610d9657610d956134f2565b5b01546014600a60158110610dad57610dac6134f2565b5b01541490507f9ebf19a79884326bf6ddfcf4bd501eb6a52b40414ecd5d8a70514f606810801e81604051610de191906132c0565b60405180910390a1809d505050505050505050505050505090565b60007f30644e72e131a029b85045b68181585d2833e84879b9709143e1f593f0000001856000015110610e64576040517f08c379a0000000000000000000000000000000000000000000000000000000008152600401610e5b906135d3565b60405180910390fd5b7f30644e72e131a029b85045b68181585d2833e84879b9709143e1f593f0000001856020015110610eca576040517f08c379a0000000000000000000000000000000000000000000000000000000008152600401610ec190613665565b60405180910390fd5b7f30644e72e131a029b85045b68181585d2833e84879b9709143e1f593f0000001846000015110610f30576040517f08c379a0000000000000000000000000000000000000000000000000000000008152600401610f27906136f7565b60405180910390fd5b7f30644e72e131a029b85045b68181585d2833e84879b9709143e1f593f0000001846020015110610f96576040517f08c379a0000000000000000000000000000000000000000000000000000000008152600401610f8d90613789565b60405180910390fd5b7f30644e72e131a029b85045b68181585d2833e84879b9709143e1f593f00000018310610ff8576040517f08c379a0000000000000000000000000000000000000000000000000000000008152600401610fef9061381b565b60405180910390fd5b7f30644e72e131a029b85045b68181585d2833e84879b9709143e1f593f0000001821061105a576040517f08c379a0000000000000000000000000000000000000000000000000000000008152600401611051906138ad565b60405180910390fd5b600061107e8661107961107461106e6126c7565b876126eb565b6127c3565b612881565b9050600061108b866127c3565b9050600061109987876126eb565b90506111dc6110a88285612881565b6044604051806040016040529081600082016002806020026040519081016040528092919082600280156110f1576020028201915b8154815260200190600101908083116110dd575b5050505050815260200160028201600280602002604051908101604052809291908260028015611136576020028201915b815481526020019060010190808311611122575b50505050508152505084604a60405180604001604052908160008201600280602002604051908101604052809291908260028015611189576020028201915b815481526020019060010190808311611175575b50505050508152602001600282016002806020026040519081016040528092919082600280156111ce576020028201915b8154815260200190600101908083116111ba575b505050505081525050612ce7565b9350505050949350505050565b6000807f30644e72e131a029b85045b68181585d2833e84879b9709143e1f593f00000018061121b5761121a613521565b5b602e547f30644e72e131a029b85045b68181585d2833e84879b9709143e1f593f000000161124991906138fc565b7f30644e72e131a029b85045b68181585d2833e84879b9709143e1f593f00000018061127857611277613521565b5b7f30644e72e131a029b85045b68181585d2833e84879b9709143e1f593f0000001806112a7576112a6613521565b5b602f547f30644e72e131a029b85045b68181585d2833e84879b9709143e1f593f0000001806112d9576112d8613521565b5b6014600f601581106112ee576112ed6134f2565b5b01546014600c60158110611305576113046134f2565b5b015408087f30644e72e131a029b85045b68181585d2833e84879b9709143e1f593f00000018061133857611337613521565b5b601460096015811061134d5761134c6134f2565b5b01546014600660158110611364576113636134f2565b5b015408090890506000604360009054906101000a900473ffffffffffffffffffffffffffffffffffffffff1673ffffffffffffffffffffffffffffffffffffffff1661143c604154604280546113b9906134c1565b80601f01602080910402602001604051908101604052809291908181526020018280546113e5906134c1565b80156114325780601f1061140757610100808354040283529160200191611432565b820191906000526020600020905b81548152906001019060200180831161141557829003601f168201915b5050505050611dc8565b73ffffffffffffffffffffffffffffffffffffffff16149050600061150f6040518060400160405280601460006015811061147a576114796134f2565b5b015481526020016014600160158110611496576114956134f2565b5b0154815250604051806040016040528060146007601581106114bb576114ba6134f2565b5b0154815260200160146008601581106114d7576114d66134f2565b5b015481525060296001600581106114f1576114f06134f2565b5b01546014600660158110611508576115076134f2565b5b0154610dfc565b90506115b560405180604001604052806014600060158110611534576115336134f2565b5b0154815260200160146001601581106115505761154f6134f2565b5b015481525060405180604001604052806014600d60158110611575576115746134f2565b5b015481526020016014600e60158110611591576115906134f2565b5b01548152506052546014600c601581106115ae576115ad6134f2565b5b0154610dfc565b905061166f604051806040016040528060146002601581106115da576115d96134f2565b5b0154815260200160146003601581106115f6576115f56134f2565b5b015481525060405180604001604052806014600a6015811061161b5761161a6134f2565b5b015481526020016014600b60158110611637576116366134f2565b5b01548152506029600160058110611651576116506134f2565b5b01546014600960158110611668576116676134f2565b5b0154610dfc565b905061171560405180604001604052806014600260158110611694576116936134f2565b5b0154815260200160146003601581106116b0576116af6134f2565b5b0154815250604051806040016040528060146010601581106116d5576116d46134f2565b5b0154815260200160146011601581106116f1576116f06134f2565b5b01548152506052546014600f6015811061170e5761170d6134f2565b5b0154610dfc565b90506117b96040518060400160405280601460046015811061173a576117396134f2565b5b015481526020016014600560158110611756576117556134f2565b5b01548152506040518060400160405280601460126015811061177b5761177a6134f2565b5b015481526020016014601360158110611797576117966134f2565b5b015481525060296001600581106117b1576117b06134f2565b5b015486610dfc565b905061185d604051806040016040528060146004601581106117de576117dd6134f2565b5b0154815260200160146005601581106117fa576117f96134f2565b5b01548152506040518060400160405280601460126015811061181f5761181e6134f2565b5b01548152602001601460136015811061183b5761183a6134f2565b5b01548152506029600160058110611855576118546134f2565b5b015486610dfc565b905061190160405180604001604052806014600460158110611882576118816134f2565b5b01548152602001601460056015811061189e5761189d6134f2565b5b0154815250604051806040016040528060146012601581106118c3576118c26134f2565b5b0154815260200160146013601581106118df576118de6134f2565b5b015481525060296001600581106118f9576118f86134f2565b5b015486610dfc565b90506119a560405180604001604052806014600460158110611926576119256134f2565b5b015481526020016014600560158110611942576119416134f2565b5b015481525060405180604001604052806014601260158110611967576119666134f2565b5b015481526020016014601360158110611983576119826134f2565b5b0154815250602960016005811061199d5761199c6134f2565b5b015486610dfc565b9050611a49604051806040016040528060146004601581106119ca576119c96134f2565b5b0154815260200160146005601581106119e6576119e56134f2565b5b015481525060405180604001604052806014601260158110611a0b57611a0a6134f2565b5b015481526020016014601360158110611a2757611a266134f2565b5b01548152506029600160058110611a4157611a406134f2565b5b015486610dfc565b9050611aed60405180604001604052806014600460158110611a6e57611a6d6134f2565b5b015481526020016014600560158110611a8a57611a896134f2565b5b015481525060405180604001604052806014601260158110611aaf57611aae6134f2565b5b015481526020016014601360158110611acb57611aca6134f2565b5b01548152506029600160058110611ae557611ae46134f2565b5b015486610dfc565b9050611b9160405180604001604052806014600460158110611b1257611b116134f2565b5b015481526020016014600560158110611b2e57611b2d6134f2565b5b015481525060405180604001604052806014601260158110611b5357611b526134f2565b5b015481526020016014601360158110611b6f57611b6e6134f2565b5b01548152506029600160058110611b8957611b886134f2565b5b015486610dfc565b9050611c3560405180604001604052806014600460158110611bb657611bb56134f2565b5b015481526020016014600560158110611bd257611bd16134f2565b5b015481525060405180604001604052806014601260158110611bf757611bf66134f2565b5b015481526020016014601360158110611c1357611c126134f2565b5b01548152506029600160058110611c2d57611c2c6134f2565b5b015486610dfc565b90508190506014600760158110611c4f57611c4e6134f2565b5b01546014600660158110611c6657611c656134f2565b5b01541490506014600960158110611c8057611c7f6134f2565b5b01546014600860158110611c9757611c966134f2565b5b01541490506014600b60158110611cb157611cb06134f2565b5b01546014600a60158110611cc857611cc76134f2565b5b01541490507f9ebf19a79884326bf6ddfcf4bd501eb6a52b40414ecd5d8a70514f606810801e81604051611cfc91906132c0565b60405180910390a180935050505090565b60008060cc905060006040905060006029600060058110611d3157611d306134f2565b5b0154905060007f30644e72e131a029b85045b68181585d2833e84879b9709143e1f593f000000190506000806001905060005b85811015611d8e578384828409840892508381830991508080611d8690613930565b915050611d64565b506000611da5611d9f868987613041565b85613139565b90508380611db657611db5613521565b5b83820992508297505050505050505090565b6000806000806041855114611de35760009350505050611e95565b6020850151925060408501519150606085015160001a9050601b8160ff161015611e1757601b81611e149190613985565b90505b601b8160ff1614158015611e2f5750601c8160ff1614155b15611e405760009350505050611e95565b60018682858560405160008152602001604052604051611e6394939291906139e4565b6020604051602081039080840390855afa158015611e85573d6000803e3d6000fd5b5050506020604051035193505050505b92915050565b6000806001905060018314611ff8577f30644e72e131a029b85045b68181585d2833e84879b9709143e1f593f000000180611ed957611ed8613521565b5b7f30644e72e131a029b85045b68181585d2833e84879b9709143e1f593f000000180611f0857611f07613521565b5b6054600060028110611f1d57611f1c6134f2565b5b01547f30644e72e131a029b85045b68181585d2833e84879b9709143e1f593f0000001611f4a91906138fc565b605354087f30644e72e131a029b85045b68181585d2833e84879b9709143e1f593f000000180611f7d57611f7c613521565b5b7f30644e72e131a029b85045b68181585d2833e84879b9709143e1f593f000000180611fac57611fab613521565b5b6054600160028110611fc157611fc06134f2565b5b01547f30644e72e131a029b85045b68181585d2833e84879b9709143e1f593f0000001611fee91906138fc565b6053540884090990505b6002831461214e577f30644e72e131a029b85045b68181585d2833e84879b9709143e1f593f00000018061202f5761202e613521565b5b7f30644e72e131a029b85045b68181585d2833e84879b9709143e1f593f00000018061205e5761205d613521565b5b6056600060028110612073576120726134f2565b5b01547f30644e72e131a029b85045b68181585d2833e84879b9709143e1f593f00000016120a091906138fc565b605354087f30644e72e131a029b85045b68181585d2833e84879b9709143e1f593f0000001806120d3576120d2613521565b5b7f30644e72e131a029b85045b68181585d2833e84879b9709143e1f593f00000018061210257612101613521565b5b6056600160028110612117576121166134f2565b5b01547f30644e72e131a029b85045b68181585d2833e84879b9709143e1f593f000000161214491906138fc565b6053540884090990505b600383146121ff577f30644e72e131a029b85045b68181585d2833e84879b9709143e1f593f00000018061218557612184613521565b5b7f30644e72e131a029b85045b68181585d2833e84879b9709143e1f593f0000001806121b4576121b3613521565b5b60586000600181106121c9576121c86134f2565b5b01547f30644e72e131a029b85045b68181585d2833e84879b9709143e1f593f00000016121f691906138fc565b60535408820990505b600483146123fa577f30644e72e131a029b85045b68181585d2833e84879b9709143e1f593f00000018061223657612235613521565b5b7f30644e72e131a029b85045b68181585d2833e84879b9709143e1f593f00000018061226557612264613521565b5b605960006003811061227a576122796134f2565b5b01547f30644e72e131a029b85045b68181585d2833e84879b9709143e1f593f00000016122a791906138fc565b605354087f30644e72e131a029b85045b68181585d2833e84879b9709143e1f593f0000001806122da576122d9613521565b5b7f30644e72e131a029b85045b68181585d2833e84879b9709143e1f593f00000018061230957612308613521565b5b605960016003811061231e5761231d6134f2565b5b01547f30644e72e131a029b85045b68181585d2833e84879b9709143e1f593f000000161234b91906138fc565b605354087f30644e72e131a029b85045b68181585d2833e84879b9709143e1f593f00000018061237e5761237d613521565b5b7f30644e72e131a029b85045b68181585d2833e84879b9709143e1f593f0000001806123ad576123ac613521565b5b60596002600381106123c2576123c16134f2565b5b01547f30644e72e131a029b85045b68181585d2833e84879b9709143e1f593f00000016123ef91906138fc565b605354088609090990505b600583146124ab577f30644e72e131a029b85045b68181585d2833e84879b9709143e1f593f00000018061243157612430613521565b5b7f30644e72e131a029b85045b68181585d2833e84879b9709143e1f593f0000001806124605761245f613521565b5b605c600060018110612475576124746134f2565b5b01547f30644e72e131a029b85045b68181585d2833e84879b9709143e1f593f00000016124a291906138fc565b60535408820990505b6006831461255c577f30644e72e131a029b85045b68181585d2833e84879b9709143e1f593f0000001806124e2576124e1613521565b5b7f30644e72e131a029b85045b68181585d2833e84879b9709143e1f593f00000018061251157612510613521565b5b605d600060018110612526576125256134f2565b5b01547f30644e72e131a029b85045b68181585d2833e84879b9709143e1f593f000000161255391906138fc565b60535408820990505b6007831461260d577f30644e72e131a029b85045b68181585d2833e84879b9709143e1f593f00000018061259357612592613521565b5b7f30644e72e131a029b85045b68181585d2833e84879b9709143e1f593f0000001806125c2576125c1613521565b5b605e6000600181106125d7576125d66134f2565b5b01547f30644e72e131a029b85045b68181585d2833e84879b9709143e1f593f000000161260491906138fc565b60535408820990505b600883146126be577f30644e72e131a029b85045b68181585d2833e84879b9709143e1f593f00000018061264457612643613521565b5b7f30644e72e131a029b85045b68181585d2833e84879b9709143e1f593f00000018061267357612672613521565b5b605f600060018110612688576126876134f2565b5b01547f30644e72e131a029b85045b68181585d2833e84879b9709143e1f593f00000016126b591906138fc565b60535408820990505b80915050919050565b6126cf613225565b6040518060400160405280600181526020016002815250905090565b6126f3613225565b6126fb61323f565b836000015181600060038110612714576127136134f2565b5b602002018181525050836020015181600160038110612736576127356134f2565b5b6020020181815250508281600260038110612754576127536134f2565b5b602002018181525050600060608360808460076107d05a03fa9050806000810361277a57fe5b50806127bb576040517f08c379a00000000000000000000000000000000000000000000000000000000081526004016127b290613a75565b60405180910390fd5b505092915050565b6127cb613225565b600082600001511480156127e3575060008260200151145b15612806576040518060400160405280600081526020016000815250905061287c565b6040518060400160405280836000015181526020017f30644e72e131a029b85045b68181585d97816a916871ca8d3c208c16d87cfd47846020015161284b9190613a95565b7f30644e72e131a029b85045b68181585d97816a916871ca8d3c208c16d87cfd4761287691906138fc565b81525090505b919050565b612889613225565b612891613261565b8360000151816000600481106128aa576128a96134f2565b5b6020020181815250508360200151816001600481106128cc576128cb6134f2565b5b6020020181815250508260000151816002600481106128ee576128ed6134f2565b5b6020020181815250508260200151816003600481106129105761290f6134f2565b5b602002018181525050600060608360c08460066107d05a03fa9050806000810361293657fe5b5080612977576040517f08c379a000000000000000000000000000000000000000000000000000000000815260040161296e90613b12565b60405180910390fd5b505092915050565b60008060405180606001604052808981526020018781526020018581525090506000604051806060016040528089815260200187815260200185815250905060006012905060008167ffffffffffffffff8111156129e0576129df613300565b5b604051908082528060200260200182016040528015612a0e5781602001602082028036833780820191505090505b50905060005b6003811015612c4c576000600682612a2c9190613b32565b9050858260038110612a4157612a406134f2565b5b60200201516000015183600083612a589190613b8c565b81518110612a6957612a686134f2565b5b602002602001018181525050858260038110612a8857612a876134f2565b5b60200201516020015183600183612a9f9190613b8c565b81518110612ab057612aaf6134f2565b5b602002602001018181525050848260038110612acf57612ace6134f2565b5b602002015160000151600060028110612aeb57612aea6134f2565b5b602002015183600283612afe9190613b8c565b81518110612b0f57612b0e6134f2565b5b602002602001018181525050848260038110612b2e57612b2d6134f2565b5b602002015160000151600160028110612b4a57612b496134f2565b5b602002015183600383612b5d9190613b8c565b81518110612b6e57612b6d6134f2565b5b602002602001018181525050848260038110612b8d57612b8c6134f2565b5b602002015160200151600060028110612ba957612ba86134f2565b5b602002015183600483612bbc9190613b8c565b81518110612bcd57612bcc6134f2565b5b602002602001018181525050848260038110612bec57612beb6134f2565b5b602002015160200151600160028110612c0857612c076134f2565b5b602002015183600583612c1b9190613b8c565b81518110612c2c57612c2b6134f2565b5b602002602001018181525050508080612c4490613930565b915050612a14565b50612c55613283565b6000602082602086026020860160086107d05a03fa90508060008103612c7757fe5b5080612cb8576040517f08c379a0000000000000000000000000000000000000000000000000000000008152600401612caf90613c2e565b60405180910390fd5b600082600060018110612cce57612ccd6134f2565b5b6020020151141596505050505050509695505050505050565b6000806040518060400160405280878152602001858152509050600060405180604001604052808781526020018581525090506000600c905060008167ffffffffffffffff811115612d3c57612d3b613300565b5b604051908082528060200260200182016040528015612d6a5781602001602082028036833780820191505090505b50905060005b6002811015612fa8576000600682612d889190613b32565b9050858260028110612d9d57612d9c6134f2565b5b60200201516000015183600083612db49190613b8c565b81518110612dc557612dc46134f2565b5b602002602001018181525050858260028110612de457612de36134f2565b5b60200201516020015183600183612dfb9190613b8c565b81518110612e0c57612e0b6134f2565b5b602002602001018181525050848260028110612e2b57612e2a6134f2565b5b602002015160000151600060028110612e4757612e466134f2565b5b602002015183600283612e5a9190613b8c565b81518110612e6b57612e6a6134f2565b5b602002602001018181525050848260028110612e8a57612e896134f2565b5b602002015160000151600160028110612ea657612ea56134f2565b5b602002015183600383612eb99190613b8c565b81518110612eca57612ec96134f2565b5b602002602001018181525050848260028110612ee957612ee86134f2565b5b602002015160200151600060028110612f0557612f046134f2565b5b602002015183600483612f189190613b8c565b81518110612f2957612f286134f2565b5b602002602001018181525050848260028110612f4857612f476134f2565b5b602002015160200151600160028110612f6457612f636134f2565b5b602002015183600583612f779190613b8c565b81518110612f8857612f876134f2565b5b602002602001018181525050508080612fa090613930565b915050612d70565b50612fb1613283565b6000602082602086026020860160086107d05a03fa90508060008103612fd357fe5b5080613014576040517f08c379a000000000000000000000000000000000000000000000000000000000815260040161300b90613c2e565b60405180910390fd5b60008260006001811061302a576130296134f2565b5b602002015114159650505050505050949350505050565b6000808203613085576040517f08c379a000000000000000000000000000000000000000000000000000000000815260040161307c90613c9a565b60405180910390fd5b600084036130965760009050613132565b600083036130a75760019050613132565b60006001905060007f800000000000000000000000000000000000000000000000000000000000000090505b600081111561312c57838186161515870a85848509099150836002820486161515870a85848509099150836004820486161515870a85848509099150836008820486161515870a858485090991506010810490506130d3565b81925050505b9392505050565b600080831415801561314b5750818314155b8015613158575060008214155b613197576040517f08c379a000000000000000000000000000000000000000000000000000000000815260040161318e90613d06565b60405180910390fd5b60008060019050600084905060005b600087146132185786826131ba9190613d26565b90508286806131cc576131cb613521565b5b87806131db576131da613521565b5b858409886131e991906138fc565b860880945081955050508687826132009190613b32565b8361320b91906138fc565b80985081935050506131a6565b8394505050505092915050565b604051806040016040528060008152602001600081525090565b6040518060600160405280600390602082028036833780820191505090505090565b6040518060800160405280600490602082028036833780820191505090505090565b6040518060200160405280600190602082028036833780820191505090505090565b60008115159050919050565b6132ba816132a5565b82525050565b60006020820190506132d560008301846132b1565b92915050565b6000604051905090565b600080fd5b600080fd5b6000601f19601f8301169050919050565b7f4e487b7100000000000000000000000000000000000000000000000000000000600052604160045260246000fd5b613338826132ef565b810181811067ffffffffffffffff8211171561335757613356613300565b5b80604052505050565b600061336a6132db565b9050613376828261332f565b919050565b6000819050919050565b61338e8161337b565b811461339957600080fd5b50565b6000813590506133ab81613385565b92915050565b6000604082840312156133c7576133c66132ea565b5b6133d16040613360565b905060006133e18482850161339c565b60008301525060206133f58482850161339c565b60208301525092915050565b60008060008060c0858703121561341b5761341a6132e5565b5b6000613429878288016133b1565b945050604061343a878288016133b1565b935050608061344b8782880161339c565b92505060a061345c8782880161339c565b91505092959194509250565b6134718161337b565b82525050565b600060208201905061348c6000830184613468565b92915050565b7f4e487b7100000000000000000000000000000000000000000000000000000000600052602260045260246000fd5b600060028204905060018216806134d957607f821691505b6020821081036134ec576134eb613492565b5b50919050565b7f4e487b7100000000000000000000000000000000000000000000000000000000600052603260045260246000fd5b7f4e487b7100000000000000000000000000000000000000000000000000000000600052601260045260246000fd5b600082825260208201905092915050565b7f56657269666965722e7665726966794b5a473a205f636f6d6d69746d656e742e60008201527f58206973206f7574206f662072616e6765000000000000000000000000000000602082015250565b60006135bd603183613550565b91506135c882613561565b604082019050919050565b600060208201905081810360008301526135ec816135b0565b9050919050565b7f56657269666965722e7665726966794b5a473a205f636f6d6d69746d656e742e60008201527f59206973206f7574206f662072616e6765000000000000000000000000000000602082015250565b600061364f603183613550565b915061365a826135f3565b604082019050919050565b6000602082019050818103600083015261367e81613642565b9050919050565b7f56657269666965722e7665726966794b5a473a205f70726f6f662e582069732060008201527f6f7574206f662072616e67650000000000000000000000000000000000000000602082015250565b60006136e1602c83613550565b91506136ec82613685565b604082019050919050565b60006020820190508181036000830152613710816136d4565b9050919050565b7f56657269666965722e7665726966794b5a473a205f70726f6f662e592069732060008201527f6f7574206f662072616e67650000000000000000000000000000000000000000602082015250565b6000613773602c83613550565b915061377e82613717565b604082019050919050565b600060208201905081810360008301526137a281613766565b9050919050565b7f56657269666965722e7665726966794b5a473a205f696e646578206973206f7560008201527f74206f662072616e676500000000000000000000000000000000000000000000602082015250565b6000613805602a83613550565b9150613810826137a9565b604082019050919050565b60006020820190508181036000830152613834816137f8565b9050919050565b7f56657269666965722e7665726966794b5a473a205f76616c7565206973206f7560008201527f74206f662072616e676500000000000000000000000000000000000000000000602082015250565b6000613897602a83613550565b91506138a28261383b565b604082019050919050565b600060208201905081810360008301526138c68161388a565b9050919050565b7f4e487b7100000000000000000000000000000000000000000000000000000000600052601160045260246000fd5b60006139078261337b565b91506139128361337b565b925082821015613925576139246138cd565b5b828203905092915050565b600061393b8261337b565b91507fffffffffffffffffffffffffffffffffffffffffffffffffffffffffffffffff820361396d5761396c6138cd565b5b600182019050919050565b600060ff82169050919050565b600061399082613978565b915061399b83613978565b92508260ff038211156139b1576139b06138cd565b5b828201905092915050565b6000819050919050565b6139cf816139bc565b82525050565b6139de81613978565b82525050565b60006080820190506139f960008301876139c6565b613a0660208301866139d5565b613a1360408301856139c6565b613a2060608301846139c6565b95945050505050565b7f70616972696e672d6d756c2d6661696c65640000000000000000000000000000600082015250565b6000613a5f601283613550565b9150613a6a82613a29565b602082019050919050565b60006020820190508181036000830152613a8e81613a52565b9050919050565b6000613aa08261337b565b9150613aab8361337b565b925082613abb57613aba613521565b5b828206905092915050565b7f70616972696e672d6164642d6661696c65640000000000000000000000000000600082015250565b6000613afc601283613550565b9150613b0782613ac6565b602082019050919050565b60006020820190508181036000830152613b2b81613aef565b9050919050565b6000613b3d8261337b565b9150613b488361337b565b9250817fffffffffffffffffffffffffffffffffffffffffffffffffffffffffffffffff0483118215151615613b8157613b806138cd565b5b828202905092915050565b6000613b978261337b565b9150613ba28361337b565b9250827fffffffffffffffffffffffffffffffffffffffffffffffffffffffffffffffff03821115613bd757613bd66138cd565b5b828201905092915050565b7f70616972696e672d6f70636f64652d6661696c65640000000000000000000000600082015250565b6000613c18601583613550565b9150613c2382613be2565b602082019050919050565b60006020820190508181036000830152613c4781613c0b565b9050919050565b7f4d6f64756c7573206973207a65726f0000000000000000000000000000000000600082015250565b6000613c84600f83613550565b9150613c8f82613c4e565b602082019050919050565b60006020820190508181036000830152613cb381613c77565b9050919050565b7f496e76616c6964206e756d626572000000000000000000000000000000000000600082015250565b6000613cf0600e83613550565b9150613cfb82613cba565b602082019050919050565b60006020820190508181036000830152613d1f81613ce3565b9050919050565b6000613d318261337b565b9150613d3c8361337b565b925082613d4c57613d4b613521565b5b82820490509291505056fea26469706673582212207cf8527774ec6ea77d2f1a79a1d77581d0527e2293da8361034547c16e48ed9864736f6c634300080d003332303930303432393839393239313030393037333239393238393436393636303134393731363738353539363235313439313330303639323033353638313439323031363933393137393235372c2034333336393130323335363836393631353338323835393936353237323731373734393336373139303538383334353439353338363836303430373438373135323833383132323030393719ec5dc5aa05a220cd210a113352596ebf80d06a6f776b8e0c656e50a5c5567f1e8a7f23fb27f77ea5b5d42f0e2384facdebebd85f026e2a73e94d4690a40a6801",
  "immutableReferences": {},
  "source": "// Modified from https://github.com/appliedzkp/semaphore/blob/master/contracts/sol/verifier.sol\r\n// SPDX-License-Identifier: MIT\r\npragma solidity >=0.4.22 <0.9.0;\r\npragma experimental ABIEncoderV2;\r\nimport \"./Pairing.sol\";\r\n// import \"./PolyCoeff.sol\";\r\nimport { Constants } from \"./Constants.sol\";\r\n// import \"@openzeppelin/contracts/utils/Strings.sol\";\r\n\r\ncontract Verifier is Constants {\r\n\r\n    using Pairing for *;\r\n\r\n    // PolyCoeff polyCoeff;\r\n\r\n    event verifyResult(bool result);\r\n    // description in F below\r\n    uint256[21] Proof = [\r\n        uint256(20435686948508171234472206488737953800505595616105823290561271581793730135986),\r\n        uint256(7613038940582986439878577004424311309737615170791456916446723479068371769225),\r\n        uint256(20900429899291009073299289469660149716785596251491300692035681492016939179257),\r\n        uint256(17015433841169487450406840425175642150965883946544965612916879717959251917877),\r\n        uint256(433691023568696153828599652727177493671905883454953868604074871528381220097),\r\n        uint256(10320531664273889342578906132837836076031009559738199149165995480549188738219),\r\n        uint256(5841514956038981489672186264970094693930045609713312309929445225955171101947),\r\n        uint256(5021024840007099401420413415719005463562614305701472747429400657816854795888),\r\n        uint256(20774065911754029615648528083815650325450840922528127398846513310899898519818),\r\n        uint256(15033194806153309440324576121312701377491848712637707126378339071163915088607),\r\n        uint256(13797601081368067296147105517336555699959400728196376360418452678919689273357),\r\n        uint256(347536244405038501480645670232637364896709701574004323632284243300674648233),\r\n        uint256(14150985670258525975582637074878024272235049272474457475329855381177734047698),\r\n        uint256(2655786006985334435742353147654701867454007390061009682990360208958229883457),\r\n        uint256(19749978915220999581635876327451130211831443864540429941950424972239040718725),\r\n        uint256(18652734379260577017619098828238354228621932558467343220803598526754221068969),\r\n        uint256(19231643171984527412379363884712632725022106910875011856721870145973184299950),\r\n        uint256(11890584382703984881384687349129438589403848436060509080598302278432395889958),\r\n        uint256(19848703903105846067635106277601755727734486581037082434405934553883502968806),\r\n        uint256(7073067203970200196273245091229017314841577127190841947842173598530677375580),\r\n        uint256(11142795172845103846997117758219330284910812886430955732663385421662518242916)\r\n    ];\r\n\r\n    uint256[5] Randoms = [\r\n        uint256(21356640755055926883299664242251323519715676831624930462071588778907420237277),\r\n        uint256(21284924740537517593391635090683107806948436131904811688892120057033464016678),\r\n        uint256(21245863740537517593391635090683107806948436131465498421988152500056051919194), // z\r\n        uint256(21310127601857075097195740179019725106470167450176016701474654076975565675629), // alpha\r\n        uint256(21300179784197405894513072539865320928097398620497813074953097024203243212233) // beta\r\n    ];\r\n    // length of longest u,v,w, i.e. longest length of a,b,c, linear\r\n    // uint256 N = 2994;\r\n\r\n    uint256 evalK = uint256(11598511819595573397693757683043215863237090817957830497519701049476846220233);\r\n    uint256 evalS = Proof[20];\r\n\r\n    // SOCC_hscS = [G1Point S_j, uint256 s_j, G1Point W_j]\r\n    uint256[5] SOCC_hscS = [\r\n        uint256(4856595452220518861283513887787149560249872199754148373623768058895650888886),\r\n        uint256(18903793806709064235976701805982270837399009185115750427816521247566249210556),\r\n        uint256(11142795172845103846997117758219330284910812886430955732663385421662518242916),\r\n        uint256(21371202341828297453905088304285070177929072675831707150146249345026206448204),\r\n        uint256(2804295765584777874267821186909392907007222244895837511075392229436674961086)\r\n    ];\r\n    // SOCC_hscW = [uint256 s'_j,G1Point W'_j, G1Point Q_j]\r\n    uint256[5] SOCC_hscW = [\r\n        uint256(10516069979663785554384039720791935537971662430097624533692998141893610132813),\r\n        uint256(4047408704098476939730481302397316844045052246660100325786631118072453155095),\r\n        uint256(3536770324764440576997419732517461268782698510962602892817204324264966117745),\r\n        uint256(14245367996788138561788347307320292816184394224142842975302936827932398609764),\r\n        uint256(4809015920432886449944012129537258787815219963382067822305826740230093200527)\r\n    ];\r\n\r\n    Pairing.G1Point hscQv = Pairing.G1Point(\r\n        uint256(2990558601454446836641627272921201963123578559834602407524792456795005493261),\r\n        uint256(13202662347545347168000079135411531495309137838398006144762638337293564502641)\r\n    );\r\n    Pairing.G1Point hscC = Pairing.G1Point(\r\n        uint256(20354021681082976488982424663336191185782081465046767166624106617637273115698),\r\n        uint256(7434894914590215425794637416957100516507193983165584369402225555559623348194)\r\n    );\r\n\r\n    uint256 u = uint256(8197071660809916300712359474937866146139983659726903111927633346212682272753);\r\n    uint256 v = uint256(18304223670379022123371455395869338667757056554451611927086438308637909615067);\r\n\r\n    // from terminal\r\n    uint256 s_uv = uint256(7791702837224372263152657165191932519240106980588006270334507770946892728366);\r\n\r\n    // from Go\r\n    bytes32 message = ethMessageHash(\"20900429899291009073299289469660149716785596251491300692035681492016939179257, 433691023568696153828599652727177493671905883454953868604074871528381220097\");\r\n    bytes sig = hex\"19ec5dc5aa05a220cd210a113352596ebf80d06a6f776b8e0c656e50a5c5567f1e8a7f23fb27f77ea5b5d42f0e2384facdebebd85f026e2a73e94d4690a40a6801\";\r\n    address addr = 0xE448992FdEaF94784bBD8f432d781C061D907985;\r\n\r\n    // The G2 generator\r\n    // IMPORTANT: why it's here? because the G2Gen() doesn't work in verify() for unknown reason\r\n    Pairing.G2Point g2Generator = Pairing.G2Point({\r\n        X: [ Constants.SRS_G2_X_0[0], Constants.SRS_G2_X_1[0] ],\r\n        Y: [ Constants.SRS_G2_Y_0[0], Constants.SRS_G2_Y_1[0] ]\r\n    });\r\n    // g\r\n    Pairing.G1Point g = Pairing.G1Point(1, 2);\r\n    // xCommit in verify(), I think it's h in SRS\r\n    Pairing.G2Point SRS_G2_1 = Pairing.G2Point({\r\n        X: [ Constants.SRS_G2_X_0[1], Constants.SRS_G2_X_1[1] ],\r\n        Y: [ Constants.SRS_G2_Y_0[1], Constants.SRS_G2_Y_1[1] ]\r\n    });\r\n    // h^\r\n    Pairing.G2Point SRS_G2_2 = Pairing.G2Point({\r\n        X: [ SRS_G2_X_0_Pos[2], SRS_G2_X_1_Pos[2] ],\r\n        Y: [ SRS_G2_Y_0_Pos[2], SRS_G2_Y_1_Pos[2] ]\r\n    });\r\n    uint256 yz = mulmod(Randoms[0], Randoms[1], Pairing.BABYJUB_P);\r\n    // z, z < BABYJUB_P\r\n    uint256 z = uint256(15296790970327023790902573209632219845262752031560971643217337210279580213975);\r\n    // S, each element < BABYJUB_P\r\n    uint256[2] S1 = [Randoms[1], Randoms[1]];\r\n    uint256[2] S2 = [yz,  yz];\r\n    uint256[1] S3 = [Randoms[1]];\r\n    uint256[3] S4 = [Randoms[1], Randoms[1], Randoms[1]];\r\n    uint256[1] S5 = [Randoms[1]];\r\n    uint256[1] S6 = [Randoms[1]];\r\n    uint256[1] S7 = [Randoms[1]];\r\n    uint256[1] S8 = [Randoms[1]];\r\n    // gamma [0] + [1]*z + [2]*z^2 + ...\r\n    uint256[2] gamma1 = [Randoms[1], Randoms[1]];\r\n    uint256[2] gamma2 = [yz,  yz];\r\n    uint256[1] gamma3 = [Randoms[1]];\r\n    uint256[3] gamma4 = [Randoms[1], Randoms[1], Randoms[1]];\r\n    uint256[1] gamma5 = [Randoms[1]];\r\n    uint256[1] gamma6 = [Randoms[1]];\r\n    uint256[1] gamma7 = [Randoms[1]];\r\n    uint256[1] gamma8 = [Randoms[1]];\r\n\r\n\r\n    // Sonic version - Verify a single-point evaluation of a polynominal\r\n    // function verify(\r\n    //     Pairing.G1Point memory _commitment, // F\r\n    //     Pairing.G1Point memory _proof, // W\r\n    //     uint256 _index,  // z\r\n    //     uint256 _value,  // F(z) or v\r\n    //     uint proofIndex\r\n    //     //bool isT\r\n    // ) public view returns (bool) {\r\n    //     // Make sure each parameter is less than the prime q\r\n    //     require(_commitment.X < BABYJUB_P, \"Verifier.verifyKZG: _commitment.X is out of range\");\r\n    //     require(_commitment.Y < BABYJUB_P, \"Verifier.verifyKZG: _commitment.Y is out of range\");\r\n    //     require(_proof.X < BABYJUB_P, \"Verifier.verifyKZG: _proof.X is out of range\");\r\n    //     require(_proof.Y < BABYJUB_P, \"Verifier.verifyKZG: _proof.Y is out of range\");\r\n    //     require(_index < BABYJUB_P, \"Verifier.verifyKZG: _index is out of range\");\r\n    //     require(_value < BABYJUB_P, \"Verifier.verifyKZG: _value is out of range\");\r\n       \r\n    //     Pairing.G1Point memory negProof = Pairing.negate(Pairing.mulScalar(_proof, _index));\r\n    //     Pairing.G1Point memory mulProof = Pairing.plus(Pairing.mulScalar(Constants.G1Gen(), _value), negProof);\r\n    //     Pairing.G1Point memory negCm = Pairing.negate(_commitment);\r\n\r\n    //     return Pairing.pairing(_proof, Constants.SRS_G2_hAlphaX1(proofIndex),\r\n    //                             mulProof, Constants.SRS_G2_hAlphaX0(proofIndex));\r\n    //                             //negCm, Constants.SRS_G2_hAlphaXdMax(proofIndex, isT)\r\n    // }\r\n\r\n    // KZG version - Verify a single-point evaluation of a polynominal\r\n    /*\r\n     * Verifies a single-point evaluation of a polynominal using the KZG\r\n     * commitment scheme.\r\n     *    - p(X) is a polynominal\r\n     *    - _value = p(_index) \r\n     *    - commitment = commit(p)\r\n     *    - proof = genProof(p, _index, _value)\r\n     * Returns true if and only if the following holds, and returns false\r\n     * otherwise:\r\n     *     e(commitment - commit([_value]), G2.g) == e(proof, commit([0, 1]) - zCommit)\r\n     * @param _commitment The KZG polynominal commitment.\r\n     * @param _proof The proof.\r\n     * @param _index The x-value at which to evaluate the polynominal.\r\n     * @param _value The result of the polynominal evaluation.\r\n     */\r\n    function verify(\r\n        Pairing.G1Point memory _commitment, // F\r\n        Pairing.G1Point memory _proof, // \r\n        uint256 _index,  // z\r\n        uint256 _value  // F(z) or v\r\n        //uint proofIndex\r\n    ) public view returns (bool) {\r\n        // Make sure each parameter is less than the prime q\r\n        require(_commitment.X < BABYJUB_P, \"Verifier.verifyKZG: _commitment.X is out of range\");\r\n        require(_commitment.Y < BABYJUB_P, \"Verifier.verifyKZG: _commitment.Y is out of range\");\r\n        require(_proof.X < BABYJUB_P, \"Verifier.verifyKZG: _proof.X is out of range\");\r\n        require(_proof.Y < BABYJUB_P, \"Verifier.verifyKZG: _proof.Y is out of range\");\r\n        require(_index < BABYJUB_P, \"Verifier.verifyKZG: _index is out of range\");\r\n        require(_value < BABYJUB_P, \"Verifier.verifyKZG: _value is out of range\");\r\n        // Check that \r\n        //     e(commitment - aCommit, G2.g) == e(proof, xCommit - zCommit)\r\n        //     e(commitment - aCommit, G2.g) / e(proof, xCommit - zCommit) == 1\r\n        //     e(commitment - aCommit, G2.g) * e(proof, xCommit - zCommit) ^ -1 == 1\r\n        //     e(commitment - aCommit, G2.g) * e(-proof, xCommit - zCommit) == 1\r\n        // where:\r\n        //     aCommit = commit([_value]) = SRS_G1_0 * _value\r\n        //     xCommit = commit([0, 1]) = SRS_G2_1\r\n        //     zCommit = commit([_index]) = SRS_G2_1 * _index\r\n\r\n        // To avoid having to perform an expensive operation in G2 to compute\r\n        // xCommit - zCommit, we instead check the equivalent equation:\r\n        //     e(commitment - aCommit, G2.g) * e(-proof, xCommit) * e(-proof, -zCommit) == 1\r\n        //     e(commitment - aCommit, G2.g) * e(-proof, xCommit) * e(proof, zCommit) == 1\r\n        //     e(commitment - aCommit, G2.g) * e(-proof, xCommit) * e(index * proof, G2.g) == 1\r\n        //     e((index * proof) + (commitment - aCommit), G2.g) * e(-proof, xCommit) == 1\r\n\r\n        // Compute commitment - aCommitment\r\n        Pairing.G1Point memory commitmentMinusA = Pairing.plus(\r\n            _commitment,\r\n            Pairing.negate(\r\n                Pairing.mulScalar(Constants.G1Gen(), _value)\r\n            )\r\n        );\r\n\r\n        // Negate the proof\r\n        Pairing.G1Point memory negProof = Pairing.negate(_proof);\r\n\r\n        // Compute index * proof\r\n        Pairing.G1Point memory indexMulProof = Pairing.mulScalar(_proof, _index);\r\n\r\n        // Return true if and only if\r\n        // e((index * proof) + (commitment - aCommitment), G2.g) * e(-proof, xCommit) == 1\r\n        return Pairing.pairing(\r\n            Pairing.plus(indexMulProof, commitmentMinusA),\r\n            g2Generator, // \r\n            negProof,\r\n            SRS_G2_1\r\n        );\r\n    }\r\n\r\n    // modified sonic verifier\r\n    function verifySonic(\r\n        // uint256[21] memory Proof,\r\n        // uint256[2] memory Randoms\r\n    ) public returns (bool) {\r\n\r\n        // simulate calculating kY\r\n        // uint256 ky = evalKPoly();\r\n        // // // simulate calculating sXY\r\n        // uint256 sx = evalXPoly();\r\n        // uint256 sy = evalXPoly();\r\n\r\n        //uint256 yz = mulmod(Randoms[0], Randoms[1], Pairing.BABYJUB_P);\r\n\r\n        // y^N for halo implementation style\r\n        // uint256 y_n = expMod(Randoms[1], N, BABYJUB_P);\r\n        // t for halo implementation style\r\n        // uint256 t = addmod(mulmod(addmod(Proof[6], Proof[9], Pairing.BABYJUB_P), \r\n        //                           addmod(addmod(Proof[12], \r\n        //                                         Proof[15], Pairing.BABYJUB_P), \r\n        //                                  evalS, Pairing.BABYJUB_P), Pairing.BABYJUB_P),\r\n        //                     mulmod((BABYJUB_P - evalK), y_n, BABYJUB_P),\r\n        //                     BABYJUB_P);\r\n\r\n        uint256 t = addmod(mulmod(addmod(Proof[6], Proof[9], Pairing.BABYJUB_P), \r\n                                  addmod(addmod(Proof[12], \r\n                                                Proof[15], Pairing.BABYJUB_P), \r\n                                         evalS, Pairing.BABYJUB_P), Pairing.BABYJUB_P),\r\n                            (BABYJUB_P - evalK), BABYJUB_P);\r\n\r\n\r\n        bool verifySignature = recover(message, sig) == addr;\r\n        // bool result = verify(Pairing.G1Point(Proof[0], Proof[1]), // aLocal\r\n        //               Pairing.G1Point(Proof[7], Proof[8]),\r\n        //               Randoms[1], \r\n        //               Proof[6]) &&\r\n        //         verify(Pairing.G1Point(Proof[0], Proof[1]), // bLocal\r\n        //               Pairing.G1Point(Proof[13], Proof[14]),\r\n        //               yz,\r\n        //               Proof[12]) &&\r\n        //         verify(Pairing.G1Point(Proof[2], Proof[3]), // aRaw\r\n        //               Pairing.G1Point(Proof[10], Proof[11]),\r\n        //               Randoms[1],\r\n        //               Proof[9]) &&\r\n        //         verify(Pairing.G1Point(Proof[2], Proof[3]), // bRaw\r\n        //               Pairing.G1Point(Proof[16], Proof[17]),\r\n        //               yz,\r\n        //               Proof[15]) &&\r\n        //         verify(Pairing.G1Point(Proof[4], Proof[5]), // t\r\n        //               Pairing.G1Point(Proof[18], Proof[19]),\r\n        //               Randoms[1],\r\n        //               t) &&                               \r\n        //         verify(Pairing.G1Point(Proof[4], Proof[5]), // t\r\n        //               Pairing.G1Point(Proof[18], Proof[19]),\r\n        //               Randoms[1],\r\n        //               t) &&                                            // pcV srsLocal (srsD srsLocal) commitK y (k, wk)\r\n        //         verify(Pairing.G1Point(Proof[4], Proof[5]), // t\r\n        //               Pairing.G1Point(Proof[18], Proof[19]),\r\n        //               Randoms[1],\r\n        //               t) &&                                            // pcV srsLocal (srsD srsLocal) commitC y (c, wc)\r\n        //         verify(Pairing.G1Point(Proof[4], Proof[5]), // t\r\n        //               Pairing.G1Point(Proof[18], Proof[19]),\r\n        //               Randoms[1],\r\n        //               t) &&                                            // pcV srsLocal (srsD srsLocal) commitC yOld (cOld, wcOld)\r\n        //         verify(Pairing.G1Point(Proof[4], Proof[5]), // t\r\n        //               Pairing.G1Point(Proof[18], Proof[19]),\r\n        //               Randoms[1],\r\n        //               t) &&                                            //, pcV srsLocal (srsD srsLocal) commitC yNew (cNew, wcNew)\r\n        //         verify(Pairing.G1Point(Proof[4], Proof[5]), // t\r\n        //               Pairing.G1Point(Proof[18], Proof[19]),\r\n        //               Randoms[1],\r\n        //               t) &&                                            //, pcV srsLocal (srsD srsLocal) commitS z (s, ws)\r\n        //         verify(Pairing.G1Point(Proof[4], Proof[5]), // t\r\n        //               Pairing.G1Point(Proof[18], Proof[19]),\r\n        //               Randoms[1],\r\n        //               t) &&                                            //, pcV srsLocal (srsD srsLocal) commitSOld z (sOld, wsOld)\r\n        //          verify(Pairing.G1Point(Proof[4], Proof[5]), // t\r\n        //               Pairing.G1Point(Proof[18], Proof[19]),\r\n        //               Randoms[1],\r\n        //               t) &&                                           //, pcV srsLocal (srsD srsLocal) commitSNew z (sNew, wsNew)\r\n        //         verifySignature &&\r\n        //         Proof[6] == Proof[7] && // c_old == s_old\r\n        //         Proof[8] == Proof[9] && // c_new == s_new\r\n        //         Proof[10] == Proof[11]; // c == s\r\n\r\n        // temporary code for estimating gas cost, the above is correct version\r\n        bool result = verify(Pairing.G1Point(Proof[0], Proof[1]), // aLocal\r\n                      Pairing.G1Point(Proof[7], Proof[8]),\r\n                      Randoms[1], \r\n                      Proof[6]);\r\n        result = verify(Pairing.G1Point(Proof[0], Proof[1]), // bLocal\r\n                      Pairing.G1Point(Proof[13], Proof[14]),\r\n                      yz,\r\n                      Proof[12]);\r\n        result = verify(Pairing.G1Point(Proof[2], Proof[3]), // aRaw\r\n                      Pairing.G1Point(Proof[10], Proof[11]),\r\n                      Randoms[1],\r\n                      Proof[9]);\r\n        result = verify(Pairing.G1Point(Proof[2], Proof[3]), // bRaw\r\n                      Pairing.G1Point(Proof[16], Proof[17]),\r\n                      yz,\r\n                      Proof[15]);\r\n        result = verify(Pairing.G1Point(Proof[4], Proof[5]), // t\r\n                      Pairing.G1Point(Proof[18], Proof[19]),\r\n                      Randoms[1],\r\n                      t);                              \r\n        result = verify(Pairing.G1Point(Proof[4], Proof[5]), // t\r\n                      Pairing.G1Point(Proof[18], Proof[19]),\r\n                      Randoms[1],\r\n                      t);                                            // pcV srsLocal (srsD srsLocal) commitK y (k, wk)\r\n        result = verify(Pairing.G1Point(Proof[4], Proof[5]), // t\r\n                      Pairing.G1Point(Proof[18], Proof[19]),\r\n                      Randoms[1],\r\n                      t);                                            // pcV srsLocal (srsD srsLocal) commitC y (c, wc)\r\n        result = verify(Pairing.G1Point(Proof[4], Proof[5]), // t\r\n                      Pairing.G1Point(Proof[18], Proof[19]),\r\n                      Randoms[1],\r\n                      t);                                            // pcV srsLocal (srsD srsLocal) commitC yOld (cOld, wcOld)\r\n        result = verify(Pairing.G1Point(Proof[4], Proof[5]), // t\r\n                      Pairing.G1Point(Proof[18], Proof[19]),\r\n                      Randoms[1],\r\n                      t);                                            //, pcV srsLocal (srsD srsLocal) commitC yNew (cNew, wcNew)\r\n        result = verify(Pairing.G1Point(Proof[4], Proof[5]), // t\r\n                      Pairing.G1Point(Proof[18], Proof[19]),\r\n                      Randoms[1],\r\n                      t);                                            //, pcV srsLocal (srsD srsLocal) commitS z (s, ws)\r\n        result = verify(Pairing.G1Point(Proof[4], Proof[5]), // t\r\n                      Pairing.G1Point(Proof[18], Proof[19]),\r\n                      Randoms[1],\r\n                      t);                                            //, pcV srsLocal (srsD srsLocal) commitSOld z (sOld, wsOld)\r\n        result = verify(Pairing.G1Point(Proof[4], Proof[5]), // t\r\n                      Pairing.G1Point(Proof[18], Proof[19]),\r\n                      Randoms[1],\r\n                      t);                                           //, pcV srsLocal (srsD srsLocal) commitSNew z (sNew, wsNew)\r\n        result = verifySignature;\r\n        result = Proof[6] == Proof[7]; // c_old == s_old\r\n        result = Proof[8] == Proof[9]; // c_new == s_new\r\n        result = Proof[10] == Proof[11]; // c == s\r\n        emit verifyResult(result);\r\n        return result;\r\n    }\r\n\r\n    // add improvement for batched commitments\r\n    /*\r\n    we check e<g^w[],h^> e<g^w[]g^-z,h> == RHS\r\n     */\r\n    function verifySonicBatched(\r\n        // uint256[21] memory Proof,\r\n        // uint256[2] memory Randoms\r\n    ) public returns (bool) {\r\n\r\n        // simulate calculating kY\r\n        // uint256 ky = evalKPoly();\r\n        // // // simulate calculating sXY\r\n        // uint256 sx = evalXPoly();\r\n        // uint256 sy = evalXPoly();\r\n\r\n        \r\n        // y^N for halo implementation style\r\n        // uint256 y_n = expMod(Randoms[1], N, BABYJUB_P);\r\n\r\n        // t for halo implementation style\r\n        // uint256 t = addmod(mulmod(addmod(Proof[6], Proof[9], Pairing.BABYJUB_P), \r\n        //                           addmod(addmod(Proof[12], \r\n        //                                         Proof[15], Pairing.BABYJUB_P), \r\n        //                                  evalS, Pairing.BABYJUB_P), Pairing.BABYJUB_P),\r\n        //                     mulmod((BABYJUB_P - evalK), y_n, BABYJUB_P),\r\n        //                     BABYJUB_P);\r\n\r\n        // uint256 t = addmod(mulmod(addmod(Proof[6], Proof[9], Pairing.BABYJUB_P), \r\n        //                           addmod(addmod(Proof[12], \r\n        //                                         Proof[15], Pairing.BABYJUB_P), \r\n        //                                  evalS, Pairing.BABYJUB_P), Pairing.BABYJUB_P),\r\n        //                     (BABYJUB_P - evalK), BABYJUB_P);\r\n\r\n\r\n        bool verifySignature = recover(message, sig) == addr;\r\n\r\n        // F\r\n        Pairing.G1Point[8] memory F = [\r\n                                    Pairing.G1Point(Proof[0], Proof[1]),//R0\r\n                                    Pairing.G1Point(Proof[2], Proof[3]), // Rj\r\n                                    Pairing.G1Point(Proof[4], Proof[5]), //T\r\n                                    Pairing.G1Point(Proof[6], Proof[7]), //C\r\n                                    Pairing.G1Point(Proof[8], Proof[9]), //Ck\r\n                                    Pairing.G1Point(Proof[10], Proof[11]), //S\r\n                                    Pairing.G1Point(Proof[12], Proof[13]), //Sold\r\n                                    Pairing.G1Point(Proof[14], Proof[15])  //Snew\r\n                                    ];\r\n        // Z(T / Si)[z]\r\n        uint256 Z1 = z_calculation(1); // i = 1\r\n        uint256 Z2 = z_calculation(2);\r\n        uint256 Z3 = z_calculation(3);\r\n        uint256 Z4 = z_calculation(4);\r\n        uint256 Z5 = z_calculation(5);\r\n        uint256 Z6 = z_calculation(6);\r\n        uint256 Z7 = z_calculation(7);\r\n        uint256 Z8 = z_calculation(8);\r\n\r\n        // the prove, g^p[], g^w[]\r\n        Pairing.G1Point[2] memory pi = [\r\n            G1Gen(),\r\n            G1Gen()\r\n        ];\r\n        // product_result is the first G1 element of the RHS pairing\r\n        // first calculate the uppercase Pi product\r\n        Pairing.G1Point memory product_result = Pairing.mulScalar(Pairing.plus(F[0], \r\n                                                                Pairing.negate(Pairing.mulScalar(g, \r\n                                                                                addmod(gamma1[0], \r\n                                                                                mulmod(gamma1[1], Randoms[2], BABYJUB_P), \r\n                                                                                BABYJUB_P)))), Z1);\r\n        product_result = Pairing.plus(product_result, \r\n                                    Pairing.mulScalar(Pairing.plus(F[1], \r\n                                                                Pairing.negate(Pairing.mulScalar(g, \r\n                                                                                addmod(gamma2[0], \r\n                                                                                mulmod(gamma2[1], Randoms[2], BABYJUB_P), \r\n                                                                                BABYJUB_P)))), Z2));\r\n        product_result = Pairing.plus(product_result, \r\n                                    Pairing.mulScalar(Pairing.plus(F[2], \r\n                                                                Pairing.negate(Pairing.mulScalar(g, \r\n                                                                                gamma3[0]))), Z3));\r\n        product_result = Pairing.plus(product_result, \r\n                                    Pairing.mulScalar(Pairing.plus(F[3], \r\n                                                                Pairing.negate(Pairing.mulScalar(g, \r\n                                                                                addmod(gamma4[0], \r\n                                                                                mulmod(gamma4[1], \r\n                                                                                mulmod(Randoms[2], Randoms[2], BABYJUB_P), \r\n                                                                                BABYJUB_P), BABYJUB_P)))), Z4));\r\n        product_result = Pairing.plus(product_result, \r\n                                    Pairing.mulScalar(Pairing.plus(F[4], \r\n                                                                Pairing.negate(Pairing.mulScalar(g, \r\n                                                                                gamma5[0]))), Z5));\r\n        product_result = Pairing.plus(product_result, \r\n                                    Pairing.mulScalar(Pairing.plus(F[5], \r\n                                                                Pairing.negate(Pairing.mulScalar(g, \r\n                                                                                gamma6[0]))), Z6));\r\n        product_result = Pairing.plus(product_result, \r\n                                    Pairing.mulScalar(Pairing.plus(F[6], \r\n                                                                Pairing.negate(Pairing.mulScalar(g, \r\n                                                                                gamma7[0]))), Z7));\r\n        product_result = Pairing.plus(product_result, \r\n                                    Pairing.mulScalar(Pairing.plus(F[7], \r\n                                                                Pairing.negate(Pairing.mulScalar(g, \r\n                                                                                gamma8[0]))), Z8));\r\n        // then add the first item before the uppercase Pi product\r\n        product_result = Pairing.plus(product_result,\r\n                                    Pairing.negate(Pairing.plus(pi[0],\r\n                                                    Pairing.mulScalar(g,\r\n                                                                    z_calculation(9)))));//zT[z]\r\n\r\n        // check e<g^w[],h^>e<g^w[]g^-z,h> == RHS, then check others\r\n        // bool result = Pairing.pairing_3point(\r\n        //     pi[1],\r\n        //     SRS_G2_2, // h^, see above\r\n        //     Pairing.plus(pi[1], Pairing.negate(Pairing.mulScalar(g, z))),\r\n        //     SRS_G2_1, // h, see above\r\n        //     Pairing.negate(product_result),\r\n        //     SRS_G2_1\r\n        //     )\r\n        //     && verifySignature\r\n        //     && Proof[6] == Proof[7] // c_old == s_old\r\n        //     && Proof[8] == Proof[9] // c_new == s_new\r\n        //     && Proof[10] == Proof[11]; // c == s\r\n\r\n        // temporary code for estimating gas cost, the above is correct version\r\n        // check e<g^w[],h^>e<g^w[]g^-z,h> == RHS, then check others\r\n        bool result = Pairing.pairing_3point(\r\n            pi[1],\r\n            SRS_G2_2, // h^, see above\r\n            Pairing.plus(pi[1], Pairing.negate(Pairing.mulScalar(g, z))),\r\n            SRS_G2_1, // h, see above\r\n            Pairing.negate(product_result),\r\n            SRS_G2_1\r\n            );\r\n        result = verifySignature;\r\n        result = Proof[6] == Proof[7]; // c_old == s_old\r\n        result = Proof[8] == Proof[9]; // c_new == s_new\r\n        result = Proof[10] == Proof[11]; // c == s\r\n        emit verifyResult(result);\r\n        return result;\r\n    }\r\n    \r\n\r\n    function z_calculation (uint256 i)\r\n                            internal view returns (uint256){\r\n        \r\n        uint256 result = 1;\r\n        if (i != 1){\r\n            result = mulmod(mulmod(result, addmod(z, BABYJUB_P - S1[1], BABYJUB_P), BABYJUB_P)\r\n                            , addmod(z, BABYJUB_P - S1[0], BABYJUB_P), BABYJUB_P);\r\n        }\r\n        if (i != 2){\r\n            result = mulmod(mulmod(result, addmod(z, BABYJUB_P - S2[1], BABYJUB_P), BABYJUB_P)\r\n                            , addmod(z, BABYJUB_P - S2[0], BABYJUB_P), BABYJUB_P);\r\n        }\r\n        if (i != 3){\r\n            result = mulmod(result, addmod(z, BABYJUB_P - S3[0], BABYJUB_P), BABYJUB_P);\r\n        }\r\n        if (i != 4){\r\n            result = mulmod(mulmod(mulmod(result, addmod(z, BABYJUB_P - S4[2], BABYJUB_P), BABYJUB_P)\r\n                            , addmod(z, BABYJUB_P - S4[1], BABYJUB_P), BABYJUB_P)\r\n                            , addmod(z, BABYJUB_P - S4[0], BABYJUB_P), BABYJUB_P);\r\n        }\r\n        if (i != 5){\r\n            result = mulmod(result, addmod(z, BABYJUB_P - S5[0], BABYJUB_P), BABYJUB_P);\r\n        }\r\n        if (i != 6){\r\n            result = mulmod(result, addmod(z, BABYJUB_P - S6[0], BABYJUB_P), BABYJUB_P);\r\n        }\r\n        if (i != 7){\r\n            result = mulmod(result, addmod(z, BABYJUB_P - S7[0], BABYJUB_P), BABYJUB_P);\r\n        }\r\n        if (i != 8){\r\n            result = mulmod(result, addmod(z, BABYJUB_P - S8[0], BABYJUB_P), BABYJUB_P);\r\n        }\r\n        return result;\r\n    }\r\n\r\n    // SCC\r\n    // function verifySOCC() public returns (bool) {\r\n\r\n    //     bool verified = verify(Pairing.G1Point(SOCC_hscS[0], SOCC_hscS[1]), // pcV(bp,srs,S_j,d,z_j,(s_j,W_j)\r\n    //                   Pairing.G1Point(SOCC_hscS[3], SOCC_hscS[4]),\r\n    //                   Randoms[1], \r\n    //                   SOCC_hscS[2],\r\n    //                   0, true) &&\r\n    //                   verify(Pairing.G1Point(SOCC_hscS[0], SOCC_hscS[1]), // pcV(bp,srs,S_j,d,u,(s'_j,W'_j))\r\n    //                   Pairing.G1Point(SOCC_hscW[1], SOCC_hscW[2]),\r\n    //                   u, \r\n    //                   SOCC_hscW[0],\r\n    //                   0, true) &&\r\n    //                   verify(hscC,                                      // pcV(bp,srs,C,d,y_j,(s'_j,Q_j)\r\n    //                   Pairing.G1Point(SOCC_hscW[3], SOCC_hscW[4]),\r\n    //                   Randoms[0], \r\n    //                   SOCC_hscW[0],\r\n    //                   0, true) &&\r\n    //                   verify(hscC,                                      // pcV(bp,srs,C,d,v,(s_uv,Q_v))\r\n    //                   hscQv,\r\n    //                   v, \r\n    //                   s_uv,\r\n    //                   0, true);\r\n    //     emit verifyResult(verified);\r\n    //     return verified;\r\n    // }\r\n\r\n    /**\r\n     * @dev Recover signer address from a message by using their signature\r\n     * @param hash bytes32 message, the hash is the signed message. What is recovered is the signer address.\r\n     * @param signature bytes signature, the signature is generated using web3.eth.sign()\r\n     */\r\n    function recover(bytes32 hash, bytes memory signature) internal pure returns (address) {\r\n        bytes32 r;\r\n        bytes32 s;\r\n        uint8 _v;\r\n\r\n        // Check the signature length\r\n        if (signature.length != 65) {\r\n            return (address(0));\r\n        }\r\n\r\n        // Divide the signature in r, s and v variables\r\n        // ecrecover takes the signature parameters, and the only way to get them\r\n        // currently is to use assembly.\r\n        // solium-disable-next-line security/no-inline-assembly\r\n        assembly {\r\n            r := mload(add(signature, 32))\r\n            s := mload(add(signature, 64))\r\n            _v := byte(0, mload(add(signature, 96)))\r\n        }\r\n\r\n        // Version of signature should be 27 or 28, but 0 and 1 are also possible versions\r\n        if (_v < 27) {\r\n            _v += 27;\r\n        }\r\n\r\n        // If the version is correct return the signer address\r\n        if (_v != 27 && _v != 28) {\r\n            return (address(0));\r\n        } else {\r\n            // solium-disable-next-line arg-overflow\r\n            return ecrecover(hash, _v, r, s);\r\n        }\r\n    }\r\n\r\n    /**\r\n    * @dev prefix a bytes32 value with \"\\x19Ethereum Signed Message:\" and hash the result\r\n    */\r\n    function ethMessageHash(string memory rawCommitment) internal pure returns (bytes32) {\r\n        return keccak256(\r\n            abi.encodePacked(\"\\x19Ethereum Signed Message:\\n32\", keccak256(abi.encodePacked(rawCommitment)))\r\n        );\r\n    }\r\n\r\n\r\n    //     /*\r\n    //  * @return The polynominal evaluation of a polynominal with the specified\r\n    //  *         coefficients at the given index.\r\n    //  */\r\n     function evalPoly() public view returns (uint256) {\r\n\r\n        uint baseOrder = 204;\r\n        uint length = 64;\r\n        uint256 _index = Randoms[0];\r\n        uint256 m = Constants.BABYJUB_P;\r\n        uint256 result = 0;\r\n        uint256 powerOfX = 1;\r\n\r\n        for (uint256 i = 0; i < length; i ++) {\r\n            assembly {\r\n                result:= addmod(result, mulmod(powerOfX, i, m), m)\r\n                powerOfX := mulmod(powerOfX, i, m)\r\n            }\r\n        }\r\n        uint256 basePower = invMod(expMod(_index, baseOrder, m), m);\r\n        result = mulmod(basePower, result, m);\r\n\r\n        return result;\r\n    }\r\n\r\n    /// @dev Modular euclidean inverse of a number (mod p).\r\n    /// @param _x The number\r\n    /// @param _pp The modulus\r\n    /// @return q such that x*q = 1 (mod _pp)\r\n    function invMod(uint256 _x, uint256 _pp) internal pure returns (uint256) {\r\n        require(_x != 0 && _x != _pp && _pp != 0, \"Invalid number\");\r\n        uint256 q = 0;\r\n        uint256 newT = 1;\r\n        uint256 r = _pp;\r\n        uint256 t;\r\n        while (_x != 0) {\r\n        t = r / _x;\r\n        (q, newT) = (newT, addmod(q, (_pp - mulmod(t, newT, _pp)), _pp));\r\n        (r, _x) = (_x, r - t * _x);\r\n        }\r\n\r\n        return q;\r\n    }\r\n\r\n    /// @dev Modular exponentiation, b^e % _pp.\r\n    /// Source: https://github.com/androlo/standard-contracts/blob/master/contracts/src/crypto/ECCMath.sol\r\n    /// @param _base base\r\n    /// @param _exp exponent\r\n    /// @param _pp modulus\r\n    /// @return r such that r = b**e (mod _pp)\r\n    function expMod(uint256 _base, uint256 _exp, uint256 _pp) internal pure returns (uint256) {\r\n        require(_pp!=0, \"Modulus is zero\");\r\n\r\n        if (_base == 0)\r\n        return 0;\r\n        if (_exp == 0)\r\n        return 1;\r\n\r\n        uint256 r = 1;\r\n        uint256 bit = 57896044618658097711785492504343953926634992332820282019728792003956564819968; // 2 ^ 255\r\n        assembly {\r\n        for { } gt(bit, 0) { }{\r\n            // a touch of loop unrolling for 20% efficiency gain\r\n            r := mulmod(mulmod(r, r, _pp), exp(_base, iszero(iszero(and(_exp, bit)))), _pp)\r\n            r := mulmod(mulmod(r, r, _pp), exp(_base, iszero(iszero(and(_exp, div(bit, 2))))), _pp)\r\n            r := mulmod(mulmod(r, r, _pp), exp(_base, iszero(iszero(and(_exp, div(bit, 4))))), _pp)\r\n            r := mulmod(mulmod(r, r, _pp), exp(_base, iszero(iszero(and(_exp, div(bit, 8))))), _pp)\r\n            bit := div(bit, 16)\r\n        }\r\n        }\r\n\r\n        return r;\r\n    }\r\n    \r\n\r\n}",
  "sourcePath": "D:\\homework\\sonic\\src\\verifier\\contracts\\Verifier.sol",
  "compiler": {
    "name": "solc",
    "version": "0.8.13+commit.abaa5c0e.Emscripten.clang"
  },
  "schemaVersion": "3.4.8",
  "updatedAt": "2023-01-08T11:48:00.636Z",
  "networkType": "ethereum",
  "devdoc": {
    "kind": "dev",
    "methods": {},
    "version": 1
  },
  "userdoc": {
    "kind": "user",
    "methods": {},
    "version": 1
  }
}